:020000040800F2
:100000000004002075030008770300087703000848
:1000100077030008770300087703000877030008D8
:10002000770300087703000877030008013B000806
:1000300077030008770300087703000877030008B8
:1000400077030008770300087703000877030008A8
:100050007703000877030008770300087703000898
:100060007703000877030008770300086D44000851
:1000700095440008C1440008ED44000819450008F3
:10008000414500086D450008770300087703000824
:100090007703000877030008770300087703000858
:1000A0007703000877030008770300087703000848
:1000B000F9570008770300087703000895490008FE
:1000C000A14A0008770300087703000877030008B7
:1000D0007703000877030008770300087703000818
:1000E0007703000877030008770300087703000808
:1000F0007703000877030008770300089945000894
:100100007703000877030008815800087703000888
:1001100077030008770300087703000877030008D7
:10012000C5450008ED450008194600084546000889
:10013000714600087703000877030008770300087A
:100140007703000877030008770300087D54000850
:1001500099460008C5460008F146000877030008E4
:100160007703000877030008770300087703000887
:100170007703000877030008770300087703000877
:100180007703000877030008770300087703000867
:100190007703000877030008770300087703000857
:1001A0007703000877030008770300087703000847
:1001B0007703000877030008770300087703000837
:1001C0007703000877030008770300087703000827
:1001D0007703000877030008770300087703000817
:0801E0000D020008E90100080E
:1001E80010B5054C237833B9044B13B10448AFF369
:1001F80000800123237010BD280C0020000000009F
:10020800687900080C4B43B10C480D4910B5AFF3A1
:1002180000800C48036823B910BD0A48036833B945
:100228007047094B002BF7D0BDE810401847064B24
:10023800002BF5D0184700BF0000000068790008BF
:100248002C0C0020280C00200000000072B6394851
:1002580080F30888384880F3098838484EF60851F2
:10026800CEF20001086040F20000CCF200004EF629
:100278003471CEF200010860BFF34F8FBFF36F8F68
:1002880040F20000C0F2F0004EF68851CEF20001B4
:100298000860BFF34F8FBFF36F8F4FF00000E1EEA0
:1002A800100A4EF63C71CEF200010860062080F379
:1002B8001488BFF36F8F03F0C3F903F044F94FF0CC
:1002C80055301F491B4A91423CBF41F8040BFAE7DD
:1002D8001C49194A91423CBF41F8040BFAE71A49F4
:1002E8001A4A1B4B9A423EBF51F8040B42F8040BC2
:1002F800F8E700201749184A91423CBF41F8040B1F
:10030800FAE703F0A1F903F09CF9144C144DAC4240
:1003180003DA54F8041B8847F9E703F023F9114C72
:10032800114DAC4203DA54F8041B8847F9E703F08F
:1003380089B9000000040020000C0020000000081B
:10034800000000200004002068790008000C00204C
:10035800280C0020280C0020E0140020E0010008F0
:10036800E4010008E4010008E80100086EE700F075
:1003780000F8FEE72DE9F04F2DED108AC1F80CD0FA
:10038800C3689D46BDEC108ABDE8F08F002383F357
:1003980011882846A047002003F080FBFEE703F001
:1003A80025FB00DFFEE7000053B94AB9002908BF62
:1003B80000281CBF4FF0FF314FF0FF3000F07AB932
:1003C800ADF1080C6DE904CE00F006F8DDF804E0A4
:1003D800DDE9022304B070472DE9F0478C460D464D
:1003E8000446089E002B51D18A4217466DD9B2FAAD
:1003F80082FEBEF1000F0BD0CEF1200C01FA0EF5F3
:1004080020FA0CFC02FA0EF74CEA050C00FA0EF47E
:100418004FEA174A250CBCFBFAF81FFA87F90AFBC2
:1004280018CC45EA0C4508FB09F3AB420AD9ED198B
:1004380008F1FF3280F02381AB4240F22081A8F11D
:1004480002083D44ED1AA4B2B5FBFAF00AFB1055B8
:1004580044EA054400FB09F9A14509D9E41900F16A
:10046800FF3380F00A81A14540F2078102383C44FD
:10047800A4EB090440EA08400021002E61D024FAC8
:100488000EF4002334607360BDE8F0878B4207D90F
:10049800002E54D0002186E821000846BDE8F087E8
:1004A800B3FA83F1002940F08E80AB4202D3824236
:1004B80000F2FA80841A65EB03050120AC46002E91
:1004C8003FD086E81010BDE8F08712B90127B7FBC6
:1004D800F2F7B7FA87FEBEF1000F34D1EB1B3A0CE6
:1004E8001FFA87FC0121B3FBF2F8250C02FB183335
:1004F80045EA03450CFB08F3AB4207D9ED1908F1AF
:10050800FF3002D2AB4200F2D1808046ED1AA3B28E
:10051800B5FBF2F002FB105543EA05440CFB00FC66
:10052800A44507D9E41900F1FF3302D2A44500F22B
:10053800B8801846A4EB0C0440EA08409DE7314611
:100548003046BDE8F087CEF1200405FA0EF307FA2D
:100558000EF720FA04F83A0C25FA04F448EA0308DE
:10056800B4FBF2F14FEA184502FB11441FFA87FC6D
:1005780045EA044501FB0CF3AB4200FA0EF409D935
:10058800ED1901F1FF3080F08A80AB4240F287809C
:1005980002393D44EB1A1FFA88F5B3FBF2F002FB6F
:1005A800103345EA034500FB0CF3AB4207D9ED19BC
:1005B80000F1FF386FD2AB426DD902383D44EB1AD7
:1005C80040EA01418FE7C1F1200722FA07F88B4082
:1005D80005FA01F448EA030320FA07FE4FEA134C30
:1005E800FD404EEA040EB5FBFCF94FEA1E440CFB35
:1005F80019551FFA83F844EA054509FB08F4AC428B
:1006080002FA01F200FA01FA08D9ED1809F1FF30EF
:1006180043D2AC4241D9A9F102091D442D1B1FFA4E
:100628008EFEB5FBFCF00CFB10554EEA054400FBB2
:1006380008F8A04507D9E41800F1FF3529D2A045EC
:1006480027D902381C4440EA0940A4EB0804A0FB5F
:1006580002894C45C6464D4615D312D056B1BAEB61
:100668000E0364EB050404FA07F7CB401F43CC40A4
:10067800376074600021BDE8F0871846F8E69046B8
:10068800E0E6C245EAD2B8EB020E69EB0305013891
:10069800E4E72846D7E7404691E78146BEE70146AA
:1006A80078E702383C4445E7084608E7A8F102081D
:1006B8003D442BE7704700BF034613F8012B002A7F
:1006C800FBD1181A0138704720224FF400710148F5
:1006D80004F09BB80004024008B500F01FFD28286C
:1006E80012D81B4A10780523013090FBF3F303EB73
:1006F8008303C01A174B10704FF41F71C0F1040028
:1007080001FB003000F0C6FE00F008FD282808D9DB
:1007180000F004FD3B2804D84FF41F710E4800F088
:10072800B9FE00F0FBFC3B2810D90C4B18780130BF
:1007380000F0010018700A4BC0F101004FF41F715E
:1007480001FB0030BDE8084000F0A4BE08BD00BFB2
:100758004C0C0020085A0008236800084D0C0020A3
:100768009F6A00080020704737B506210F2000F067
:10077800D5FD00214A4800F07DFE07210F2000F03A
:10078800CDFD484B186800F074F90021032865D89E
:10079800DFE800F0025E60624348444C00F06AFE05
:1007A80000F0BCFC00285BD0414D00F093FE2868A7
:1007B80002F072FC962804D902F044FC2860FFF786
:1007C8008BFF02F03FFC206000F0A8FC00230A2108
:1007D8008DF805302023B0FBF1F28DF804308DF848
:1007E800033001FB12033033D2B28DF80230B2FB72
:1007F800F1F301FB132313F0FF0347D03033DBB2CF
:10080800092A8DF8013081BF6423B0FBF3F0303042
:10081800C0B298BF20208DF800000721002000F00A
:100828007DFD0021234800F025FE9DF80030202B97
:1008380031D19DF801300021202B0EBF0DF10200AF
:100848008DF804100DF1010000F014FE03B030BD66
:100858001948A2E71948A0E719489EE719489CE7F4
:10086800206802F019FC4EF66023984202D900F085
:10087800F5FEA9E70E4C206802F00EFC9628A3D9D5
:1008880002F0E0FB2060FFF727FF9DE7642834BFF4
:1008980020233023B4E700218DF803106846D3E7FE
:1008A800F4670008400D0020FB670008440C002096
:1008B800480C00201E680008026800080968000843
:1008C800106800081768000803230222012100F0BD
:1008D80059B808B545F65F53984206D1887828B1CB
:1008E800002000F044F8002008BD012008BD0120C8
:1008F800704708B5FFF7EDFF08BD704708B5FFF76B
:10090800FCFF08BD13B502AB03E903000F4B1B78CE
:10091800B3B99DF80230009873B16AB102F020F9BA
:1009280004460146009802F0D5F80099204602B026
:10093800BDE8104000F0CEB802F0F2F80446F4E743
:10094800009802F00DF90099F1E700BFEE0C0020C5
:1009580003460A4600689988FFF7D4BF10B50021FE
:100968000446FFF7F5FF2146FFF7C8FF10BD10B595
:1009780001248440E0B202F072FA2046BDE810403B
:1009880002F03BB810B5012404FA02F204FA01F1AE
:10099800114304FA03F331EA00020CBF18439843E9
:1009A80010BD08B500F072FABDE8084000F08FBA33
:1009B80008B500F013FCBDE8084000F08DBA704798
:1009C80008B501F0D9FCFFF7FAFF40F6C41003F0B0
:1009D8006AF8BDE8084002F065BB38B50121054654
:1009E800FFF7B6FFAB7804460BB100F0C3FB29460E
:1009F8002046FFF77EFF08B9002038BD294620466B
:100A080000F0CAFE0028F7D02946204600F014FF5F
:100A18000028F1D02946204601F016F80028EBD02E
:100A2800AB785BB145F65B539C421CD00AD8B4F551
:100A3800B84F12D045F6DF439C4211D02846FFF745
:100A480056FF38BD45F65C539C420FD045F65D53C2
:100A58009C42F3D102F0FCF8F0E7FFF7B1FFCBE7D7
:100A680002F072FAC8E702F0FDF8E7E702F0FDF8D5
:100A7800E4E7030C002B16BF184600231023020AD4
:100A88001CBF1046083302091EBF04331046DBB2F0
:100A980082081EBF02331046DBB242081CBF013376
:100AA800DBB218467047704708B5FFF7FCFF08BD72
:100AB8000120704708B5FFF7FBFF08BD10B50446D5
:100AC800FFF7F2FF2046FFF7F5FF10BD0020704743
:100AD8007047000030225043C1F307230C2202FB69
:100AE800030353FA81F3034A32F8130082B002B0C9
:100AF800704700BF74660008014B33F81000704758
:100B0800C86F000813B5ADF804100199FFF7E2FFAC
:100B180000F0CAF8B0F5A04F04462ED2B0F5804FC9
:100B280080F08980DF2817D8C02875D2A72808D870
:100B3800A52867D2012817D001D3042814D200248D
:100B480012E0BE28FBD85834E4B2554B33F81440B1
:100B580044F48844A4B207E0B0F5005F07D2B0F5CA
:100B6800807F56D2E728EAD8204602B010BDB0F5FB
:100B7800405F57D2C0F30B0050E0B0F5AA4F1BD22C
:100B8800B0F5A84FC3B275D2B0F5A44F07D2B0F5EF
:100B9800A24F55D34AF2F10040EA0324E4E7B0F546
:100BA800A64F5DD29808012403F003039C4044EA51
:100BB800401444F40C44CDE7B0F5B24F0ED2B0F572
:100BC800B04F5CD2B0F5AC4FB9D2C0B200F0EEF87D
:100BD800040204F4F85444F40054C5E7B0F5B44FE3
:100BE80052D3A0F5C043B3F5005FA8D2C0F30420E8
:100BF80000F0DCF8E4B2000244F4005400F4F850C9
:100C08000443B1E75B34E4B2264B1C5D44F48044F2
:100C1800AAE7C0F30C04A7E7C03880B2FFF76CFF5F
:100C28000446A1E710F4006FC4B214BF44F448446A
:100C380044F4404498E7C0F30B0444F4204493E799
:100C480003F0030201249440C0F3011044F40C445F
:100C580044EA0024C3F3810344EA43139CB283E7C4
:100C68009808012403F003039C4044EA401444F428
:100C78000A446FE74AF2F40444EA032474E74AF2A8
:100C8800F00040EA042465E700F00F0000F08EF859
:100C9800C4F3031440EA042444F410445AE700BFA0
:100CA8009A6F0008976F0008822825D00CD8312841
:100CB80063D004D8292859D02A2865D07047352808
:100CC8004DD0392818D07047E32830D004D8E02810
:100CD80019D0E22826D07047E62832D0E72835D048
:100CE800E42832D1304B5A7891072ED51B7813F06F
:100CF800100F08BFE72012E02B4B1B7813F0030FEF
:100D080018BFE0207047284A1378D90743D452788F
:100D180012F0010F19D013F0100F08BFE32018BF0D
:100D280000207047204B1B7813F0040FF2E71E4A8F
:100D38001378590731D45278D20730D413F0100FF2
:100D4800EDE7194B1B781A07D1D47047164A137868
:100D5800190726D452789207F0D5E420F5E7124B0C
:100D68001B7813F0200F18BF292070470E4B1B78F3
:100D780013F0200F18BF352070470B4B1B7813F06A
:100D8800400F18BF2A207047074B1B7813F0400FFD
:100D980018BF3120704739207047E2207047E020A3
:100DA8007047E620704700BF680E0020294B1A786C
:100DB800510707D500F01801082927D100F0F700DE
:100DC80040F00400110707D500F01801182926D1B2
:100DD80000F0E70040F014005B78D90707D500F071
:100DE8001801082924D100F0F70040F00100990704
:100DF80007D500F01803182B23D100F0E70040F0C6
:100E08001100D30648BF00F0E700704700F0140156
:100E1800042904BF00F0FB0040F00800D2E700F00E
:100E28001401142904BF00F0EB0040F01800D3E7C8
:100E380000F01101012904BF00F0FE0040F0080095
:100E4800D5E700F01103112B04BF00F0EE0040F0CD
:100E58001800D6E7680E002001F0ECBF08B500F0D6
:100E6800A9F8642002F01FFE00F0A4F8002000F0AA
:100E780037F8C30705D5FFF7EFFFBDE8084002F0D4
:100E880011B908BD08B5FFF7E9FF08BD08B501F0BD
:100E9800D6FF08B902F058F801F0DBFF084B1870CC
:100EA80001F0E1FF074B1880FFF7ECFF01F0D4FFDA
:100EB80001F0A3FD044B1868BDE8084001F0B8BD77
:100EC8006F0D0020680E0020400D0020704708B507
:100ED800FFF7FCFF08BD704708B5FFF7FCFF08BD2A
:100EE800014B33F810007047720E00207047012044
:100EF80002F0D9BD00BF00BF00BF00BF00BF00BFE8
:100F080000BF00BF00BF00BF00BF00BF00BF00BFE1
:100F180000BF00BF00BF00BF00BF00BF00BF7047D9
:100F280008B5FFF7E4FF08BD08B5202282F3118851
:100F3800012100F00F03994020F00F0003F065FC39
:100F4800002383F3118808BD38B51348134DFFF704
:100F5800EBFF1348FFF7E8FF1248FFF7E5FF1248D9
:100F6800FFF7E2FF002455F824000134FFF7DCFF07
:100F78000C2CF8D10D490E4A002304200B80138055
:100F88004B8053808B809380CB80D38000F076F8A1
:100F9800BDE83840FFF705BD05000240C86F0008EE
:100FA8000400024003000240020002406A0E0020D2
:100FB800720E00202DE9F74F2C4F00252E46A8462B
:100FC800B9464FEA850A57F82540202383F311884C
:100FD800012324F00F0B04F00F0403FA04F4214654
:100FE8001A465846A4B2019303F00FFCABF81A4016
:100FF80088F31188FFF77EFF00221D48019B1446E5
:1010080050F8221021F00F0E01F00F01DEF810E069
:101018002EFA01F1C90754BF03FA02F10021013287
:101028000C430C2AA4B2EBD159F80A00FFF77CFF55
:10103800FFF776FF0F4B33F81520A24218BF23F8AD
:10104800154005F1010514BF01230023042D46EACC
:101058000306B6D133462A460749064800F010F879
:10106800FFF7A6FC304603B0BDE8F08FF86F000824
:10107800C86F00086A0E0020720E0020704700003A
:10108800F8B506460F4615460D4C2BB101232370C3
:1010980001F0F6FF0B4B1880237853B1094B1888E1
:1010A80001F0F3FF052804D90023AB4202DB00233B
:1010B8002370F8BD36F8132027F813200133F4E71E
:1010C8004E0C0020500C0020014B185C704700BFEC
:1010D800540C0020034BC218185C527840EA0220D6
:1010E800704700BF540C0020014B1954704700BFD3
:1010F800540C0020024B19541844090A41707047D7
:10110800540C0020044B195418440B0A43700B0C60
:10111800090E8370C1707047540C0020014B187879
:10112800704700BF780C0020A0F5C043B3F5005FFE
:1011380009D3A0F58043B3F5805F04D3A0F580738D
:10114800B3F5F85F0BD2C0B2031F9BB2232B0BD9A8
:101158002B3880B20D288CBF002001207047B0F5D5
:10116800807F28BF0020EFE70120704708B5FFF710
:10117800DBFF08BD70B5FFF7F9FF40B3144D2888B1
:1011880010B3144E01F081FF347842F6E06393FB0C
:10119800F0F0FF28D4BFC4EB0000C4F1FF0007EE55
:1011A800900AB8EEE70ADFED0C7A20EE270A04F081
:1011B800C5FB07EE904AF8EEE77A37EE800AFCEEB8
:1011C800C07A17EE903A337001F05AFF288070BD4C
:1011D8007A0C0020780C0020A779473D10B50F4CF9
:1011E800208801F052FFB0F57A7F16D90C4ADFED5E
:1011F8000D6A1378594207EE101A07EE903AB8EEC6
:10120800C77AF8EEE77AE7EE267AFCEEE77A17EE89
:10121800903A137001F034FF208010BD7A0C002042
:10122800780C0020A779473D10B5074C4FF4806231
:101238000021204604F0D7FB044B1C60044B4FF6FA
:10124800FF721A8010BD00BF7C0E002080120020A3
:101258007E0C002010B5FFF785FA1F4C1F4B20703D
:1012680010F0010F0CBF802240221A7000F020FC01
:1012780020230D221A49782000F040FC08B10020F4
:1012880010BD237813F0020F4FF003024FF0200334
:101298001FD11449782000F031FC0028EFD1202319
:1012A8000D221149782000F029FC04460028E6D1D7
:1012B80001F0C8FE0D4B00F56A4060301860FFF77A
:1012C800B3FF0B4B012018700A4B18700A4B1C70A7
:1012D80010BD0A49DEE700BF810C0020820C002007
:1012E800127000080B7000081F7000087C120020A4
:1012F800800C00207C0C0020830C00200870000863
:10130800044BB0F5806F28BF00201844024B1860CA
:10131800704700BF7C0E002080120020044B00EBB9
:1013280040001B78400003FB010080B2FFF7E8BFD4
:10133800820C00200C480D49026810B5531A0C4A5B
:10134800063312789BB293FBF2F402FB1434121B9F
:10135800D2B2052A9CBF9B189BB2B3F5806F28BFF9
:1013680000230B44036010BD801200207C0E002077
:10137800820C00200A2838B504D10120BDE8384085
:1013880000F04AB80D2801D10020F7E71D4A1E4C8D
:1013980013681D6825609D88A58004065DBF1B4CE9
:1013A80000EB400004EB400000205DBF04681C60B7
:1013B80080881860988051B914681348062221461D
:1013C80004F002FB60B9BDE83840FFF7B3BF13680B
:1013D800981D9842F0D01978C94303F8011BF8E723
:1013E8000B4B0C49E41AC4F38913A4B201220888F0
:1013F800063402FA03F3A409034302FA04F41C4373
:101408000C80E0E780120020840C00202C7000087B
:101418007C0E00207E0C002070B5134E134B3168F3
:10142800134C1A78091B8DB295FBF2F302FB135388
:10143800D31ADBB260B10624B3FBF4F4631EDCB24A
:10144800FF2C00D170BD00212020FFF793FFF5E7A6
:101458001D44B5F5806FAABF034689B219461944E1
:101468002144316070BD00BF80120020820C002032
:101478007C0E002070B504460E46FFF71DF92518AE
:10148800AC4200D370BD314614F8010BFFF772FF70
:10149800F6E70000F0B5B1F5806F0C4C0C4D28BF95
:1014A8004FF480610022012793B28B4200D3F0BD34
:1014B800865C12F804E0B64506D016559B092E88BE
:1014C80007FA03F333432B800132EDE77C0E00204B
:1014D8007E0C002038B501F0B5FD0B4C0B4B00F528
:1014E8006A40603018602378254653B920230222C9
:1014F8000749782000F002FB08B1207838BD0123A5
:101508002370287838BD00BF7C0C00207C12002096
:10151800107000082DE9F04F484D2A8885B0002A40
:1015280036D0474B1B789BBBDCB242FA04F1C907A3
:1015380003F10103F8D5434E337813F00102424B0F
:1015480029D1A00100F040019970C0093F315871BC
:10155800D9709A713C4920230722782000F0CEFAEE
:101568000746A8B93378DB071ED4384A20230093EE
:1015780002EB841240231946782000F0EFFA38B9BC
:10158800FFF7A8FF0123A3402C8824EA03042C803A
:1015980005B0BDE8F08FE200D2B29A7000210732A0
:1015A800DA7059710722D4E701464022284804F02E
:1015B8001AFAA301039338464FF0010B254BC75C79
:1015C800039B1F44214B1F44234BC25C204B013A11
:1015D8001A440026C6F107090BFA06FA92F80180A8
:1015E8005FFA89F95FFA8AFA4FF0000E17F80E10C1
:1015F800A9EB0E030AEA010103F0070301FA03FC51
:101608005B4203F0070321FA03F34CEA03030EF1EC
:10161800010E48EA0303BEF1080F5FFA83F8E5D12B
:101628000136082E02F8018FD4D101300828C5D11F
:1016380020230093064A40239DE700BF7E0C00202C
:10164800830C0020810C0020000C00207C0E002060
:101658008A0C00206C7500087475000838B5094CB0
:10166800237825464BB1202302220749782000F031
:1016780045FA08B1207838BD2070287880F001003C
:1016880038BD00BF7C0C00200E70000808B50D4B5B
:101698001B78B3B100210846FFF740FEFFF764F856
:1016A800FFF738FF084B1B785BB101F0CBFC074B09
:1016B8001B68C01A064B984203D8BDE80840FFF7DC
:1016C800CDBF08BD800C00207C0C00207C120020BF
:1016D800FEFFFF7FF8B5144682789DF818701D4606
:1016E8002B4B92B11C7001F0CBFC2A4B188004F1F3
:1016F8002003DBB2072B4AD804F007040120A040DE
:10170800C0B2BDE8F84000F010BC1E78A6422FD148
:10171800204B188801F0B9FCB0F5967F28D2AE426C
:1017280005F1200415D006F12003DBB2072B06D8FB
:1017380006F007060120B040C0B200F0FFFBE3B29C
:10174800072B1FD805F0070301209840C0B200F00E
:10175800ECFB3846E4B200F0E2FB072C17D805F0A2
:1017680007050120A840C0B2BDE8F84000F0E6BB7C
:1017780004F12003DBB2072B09D804F00704012089
:10178800A040F0E73846BDE8F84000F0C8BBF8BD17
:10179800CA0C0020CC0C002013B545F6F4430446CF
:1017A8009C42084626D011D845F6D9439C421CD005
:1017B80045F6DA439C4237D045F6D8439C420ED1D1
:1017C80026230093E1231A4621461EE045F6F643F8
:1017D8009C421FD013D345F6F7439C421FD0807814
:1017E80030B3144B00221A7012E027230093E5232C
:1017F800E522E9E726230093E022E123E4E7272313
:101808000093E422E52345F6F541FFF763FF002046
:1018180002B010BD26230093E222E123D4E7272358
:101828000093E622E523CFE7282300930123DFE78F
:101838000120EDE7CA0C002038B505468878002855
:1018480000F0FD8045F602439D42C0F0F98045F660
:1018580015439D4205D9A5F5B9437B3B082B00F2FA
:10186800EF8001F000FB774C45F610439D42208045
:1018780000F0B48039D845F608439D4200F08C80CA
:101888001CD845F604439D4276D00ED845F602434F
:101898009D4268D045F603439D4269D0208801F0F7
:1018A800EEFA00F069FD002038BD45F606439D427A
:1018B8006ED065D9237843F0200357E045F60C43F2
:1018C8009D4277D008D845F60A439D426ED067D925
:1018D80023786FF3000349E045F60E439D4271D02B
:1018E8006CD923786FF3041340E045F6FC439D421E
:1018F8004AD020D845F613439D4277D00DD845F6F7
:1019080011439D426ED045F612439D42C6D100F068
:1019180033FD23786FF3C71328E045F615439D423E
:101928006CD07ED345F6FB439D42B7D1637843F034
:1019380001036370B2E7B5F5BA4F5BD008D845F636
:10194800FE439D4246D041D9637843F00303F0E754
:1019580045F602539D426ED05AD345F603539D4235
:101968009CD1002068E0237843F00103237095E7B9
:10197800237843F00203F9E7237843F00403F5E7FB
:10198800237843F00803F1E7637843F00203D0E7D4
:10199800237843F01003E9E7237843F04003E5E7B1
:1019A80000F0EAFC237843F08003DFE7237843F074
:1019B8000C03DBE723786FF34103D7E723786FF352
:1019C8008203D3E723786FF3C303CFE763786FF31A
:1019D8000003AEE763786FF34103AAE723786FF358
:1019E8004513C3E723786FF38613BFE7237803F023
:1019F800F703E4E7637803F0FD03E8E7237883F06F
:101A08000402C2F3800262F3820362F3C303ADE708
:101A18006378DA4302F0010262F3000362F34103E0
:101A280087E700F0A9FC2378C3F3C01282F0010213
:101A380062F3C7139AE7012001F088FA2EE7012024
:101A480038BD00BF680E002045F61643984210B511
:101A58000C461FD101F00CF9A1780F4A0F4B81B148
:101A680000F0AA00002814BF012100211170186895
:101A780014BF3521292101F0AEFA01F06BF90020DD
:101A880010BD12781868002A14BF3521292101F0E9
:101A9800A4FAF2E7012010BDCE0C0020080C0020AB
:101AA80028B120280CBF6FF001004FF0FF307047BD
:101AB800104B10B51C78E4B901221A704021224657
:101AC8000D4802F0A2FE224680210B4802F09DFE3E
:101AD800642001F0E8FF40F206224021064802F0A7
:101AE80094FE40F2062280210348BDE8104002F02F
:101AF8008CBE10BDD00C0020000402402DE9FF412F
:101B0800134D144C0E462070134928461746984624
:101B180002F081F842F2107E40F2E7300021E8FB43
:101B28000E014FF47A720023FEF73EFC24780290EF
:101B3800002364080193009332463B462146284619
:101B480002F077F804B0BDE8F041FFF7A9BF00BF85
:101B58002C140020CF0C00207C7500082DE9F047DC
:101B68001F4C84B09A4604AF207088461D481E4911
:101B7800914602F050F80AF1080323F00703ADEB91
:101B8800030D0AF1010604AD00214B1CC9B25145F1
:101B980020D3B7F820E0247885F8008042F2107C42
:101BA80040F2E7300021EEFB0C014FF47A7200237B
:101BB800FEF7FAFB640800230290019300932A467B
:101BC80033462146074802F034F8FFF769FFBD465F
:101BD800BDE8F0876A1819F8011051701946D4E762
:101BE800CF0C00202C1400207C750008014B1860D5
:101BF800704700BFD40C0020024B186808B1036876
:101C080018477047D40C0020024B1B680BB15B6867
:101C180018477047D40C0020054B1988814205D01D
:101C28001880044B1B680BB1DB681847704700BF6E
:101C3800DA0C0020D40C0020054B1988814205D00D
:101C48001880044B1B680BB11B691847704700BF0D
:101C5800D80C0020D40C002008B501F0F3F9024B91
:101C68001860024B186008BDDC0C0020E00C002056
:101C78007047704708B5FFF7FCFF08BD704708B507
:101C8800FFF7FCFF08BD000008B5044801F042FA60
:101C9800FFF7EEFFFFF7EEFF08BD00BF392E000883
:101CA8000120704708B5FFF7FBFF08BD7047704774
:101CB80008B5FFF7FBFFFFF7FAFF08BD08B501F00D
:101CC800BFF9FFF741F90020FFF7C4FAFFF7D7FF84
:101CD80008BD00002DE9F04F87B0FFF76BF9064605
:101CE80008B1FFF7B9FF374F0024B8465FFA84F907
:101CF8004846FFF7F5F837F814B05845824616D12C
:101D08000134042CF2D1FF238DF810308DF81130F6
:101D180000238DF8123001F0B3F940F00100ADF85E
:101D2800140006AB13E9030000F052F82DE0264B2F
:101D38001B789B0701D5FFF7D9F8002301258AEA0C
:101D48000B0B15EA0B0FD9B232D00191FFF7AAFF9E
:101D58000199A8B11AEA050F14BF012300238DF8D1
:101D680008108DF80A308DF8099001F089F940F0D3
:101D78000100ADF80C0002AB93E8030000F028F86E
:101D880038F814305D4028F81450FFF77FFC0EB186
:101D9800FFF7A0FB0D4CFFF72FFF237883420DD0F0
:101DA800FFF72AFF207007B0BDE8F04FFEF786BEA8
:101DB80001336D000C2BADB2C3D1A1E707B0BDE86C
:101DC800F08F00BFE60C00206F0D0020E40C00200F
:101DD8001FB58DE803009DF802306C460BB100F08A
:101DE80073FF0022039294E8030002AB0290ADF85F
:101DF8000C1093E8030000F027FD04B010BD08B5EF
:101E0800008800F0CFFE08BD38B5044600283AD057
:101E1800031FDBB2A02B13D81B4D0146286801F025
:101E2800A7F828B12146286801F0D7F800F092FFFA
:101E38002146286801F0CFF8BDE8384000F08ABF95
:101E480000F12003DBB2072B07D800F007040120BC
:101E5800A040C0B200F012FFEEE700F15B03DBB276
:101E6800022B05D8094AD05CBDE83840FFF7D4BE3C
:101E78005834E4B2162C06D8054B33F81400BDE8E4
:101E88003840FFF7D9BE38BD080C00208875000817
:101E98008C75000808B568B3031FDBB2A02B08D8FF
:101EA800154B0146186801F098F8BDE8084000F0A5
:101EB80051BF00F12003DBB2072B08D8012300F043
:101EC800070003FA00F0C0B200F0E0FEEDE700F111
:101ED8005B03DBB2022B04D80020BDE80840FFF703
:101EE8009BBE5830C0B2162804D80020BDE8084070
:101EF800FFF7A2BE08BD00BF080C002038B5054694
:101F08000C46FFF781FF24B92846BDE83840FFF7A3
:101F1800C1BF0A20013C01F0C6FDA4B2F3E739288D
:101F28000CBF50210021FFF7E9BF08B528B100F028
:101F3800A5FEBDE8084000F00DBF08BD08B528B1F2
:101F480000F0A4FEBDE8084000F004BF08BD2DE97C
:101F5800F04790F806A0857807460C4600F05EFE2C
:101F68004FEA1A1A8046A8B1A8469DB1C4F30723C0
:101F780003F0F003402B04D004F12003DBB2072B5D
:101F88001FD9022000F036FF00F048FE80F0010063
:101F98005FFA80F8C4F30339B9F10F0F42D8DFE8CC
:101FA80019F0130013004A004A009F004100410045
:101FB8004100CB002301350135018A014100410070
:101FC80093014FF00008E5E7C4F3072313F0F00F7F
:101FD80016BF2609C4F3032606F0F006E4B295B14D
:101FE80056B104F12003DBB2072B304600D93CB9C7
:101FF80000F044FE00F0AEFE2046FFF705FF11E0BA
:1020080000F052FEF6E72046FFF744FF56B104F110
:102018002003DBB2072B304600D94CB900F036FE5E
:1020280000F098FEA9F10809B9F1030F68D8A1E0FA
:1020380000F042FEF4E7C4F3072303F0F003202B7B
:1020480014BF2609C4F30326E4B218BF06F0F0064D
:1020580064B1012C2CD0ADB3BAF1000F2CD0BB79F0
:10206800D907C9D56FF30713BB7125E09DB1BAF144
:10207800000F06D100F044FE3043C0B2FFF755FF11
:10208800D0E7BAF1010FF5D100F03AFE3043C0B203
:1020980000F042FEC6E7BAF1000F05D100F04EFE8F
:1020A8003046FFF74BFFBDE7BAF1010FF6D1B9E7AC
:1020B80025B1BAF1050FB5D83046DFE7BAF1040FFC
:1020C800B0D8EDE7BAF1000FEAD0392C0CBF4FF4C5
:1020D8004870012001F0E7FC2046FFF7DBFEA1E78E
:1020E800C4F381233BB1012B9CD11DB3C4F3090078
:1020F800FFF7A2FD04E0DDB1C4F30900FFF78CFD92
:10210800B8F1000F00F0E78000F080FD10F001004A
:1021180040F0E180B87000F071FD00F0A1FC384695
:1021280000F0EBF800F06AFDBDE8F04700F0A2BC53
:102138002846E3E72846DBE714F4407F28D1CDB9E9
:10214800C4F34210E2064FEA800048BF0F25C0B230
:1021580048BF854004F00F03C4F3812448BFED4312
:102168008340022C45EA03000CD00ED8012C06D07F
:1021780000F04EFCFFF740FDFEF7A0FCC0E700F0C2
:102188003FFCF7E700F04CFCF4E700F036FCF1E721
:10219800F5B1C4F30023002BECD0C4F34210800047
:1021A800C3B204F00F0000FA03F214F010001CBFD1
:1021B8000F209840C4F3812418BFC043022C40EA82
:1021C80002000BD00DD8012C05D000F071FCD1E72E
:1021D800C4F34023DFE700F063FCCBE700F070FCBA
:1021E800C8E700F029FCC5E7E6B23DB1C4F3032017
:1021F80000F036FC3046FFF798FEBBE73046FFF7A5
:102208009DFEC4F3032000F035FCB3E7E6B2A6F167
:10221800F003042B3DD8DFE803F00310161D260059
:1022280045B1BAF1040F3FF6FDAEC4F3042000F047
:102238002DFCF7E6BAF1050FF5E735B1C4F3042034
:1022480000F00EFCEEE6002DF8D0C4F3042000F0F8
:1022580011FCE7E625B1C4F3042000F0FCFBE1E63D
:1022680000F0F6FBDEE64DB1C4F30424204600F08E
:10227800F7FB0321204600F099FDD3E6012000F08A
:10228800B9FDBAF1010F7FF6CDAE022000F0B2FD24
:10229800C8E625B1BAF1000FD0D03046ADE6BAF1A4
:1022A800000FD2D0392E0CBF4FF44870012001F036
:1022B800FAFB304611E7C4F30322E1B23846FEF7D1
:1022C80005FC00F02FFB1BE7C4F30322E1B23846FC
:1022D800FEF7FEFB14E7BDE8F08738B50188044631
:1022E800807800F06BFC054600F0F2FB00F084FB00
:1022F80029462046FFF72BFE38BD13B58388028890
:10230800ADF804200446CBB1BDF804204FF6FF73A6
:102318009A4213D0FEF761FB50B900F07FFC68B118
:10232800A3785BB1022002B0BDE8104000F062BDA6
:102338002046FFF7D2FF2046FEF710FB02B010BD83
:1023480008B50020FFF768FC0020FFF775FC00F0D7
:10235800BBFC00F0CFFCBDE8084000F0FBBC00006F
:1023680008B5044B186800F03AFEBDE80840FFF7CE
:10237800E7BF00BF080C002008B500F08FFCBDE8DF
:102388000840FFF7EDBFC0F303330E3303F00F022D
:102398000D2A0CD80123934013F4105FC1B217D152
:1023A80040F20330184004D113F010030BD1002081
:1023B8007047F02902D003D8E729F8D801207047E0
:1023C800F429F4D1FAE7E729F8D9F129F6D07047CA
:1023D800C0F3C020704707B5ADF80400019800F0BD
:1023E800E1FBFFF7D0FF03B05DF804FB82B002AB5E
:1023F80003E9030002B0704782B002AB03E90300AF
:1024080002B0704770B5094B094E1C78094D3378F6
:10241800A34200D170BD05EBC40355F834005968D8
:102428000134FFF7E9FF04F00704F0E7390D002055
:10243800380D0020F80C0020024B18685968FFF787
:10244800DBBF00BFF00C0020224BF7B59A791209C8
:102458000AD19A7842B1204A204F1278204E4FF67E
:10246800FF7E3978914201D103B0F0BD988860B3FE
:1024780019785C788DF804108DF80540BDF8045083
:10248800754522D006EBC20595F801C0A4451CD1BC
:1024980016F832408C4218D1A978B1B9A988091A1E
:1024A80089B2B1F5967F10D299790A48012262F370
:1024B80007119971AB7962F30713AB71FFF71DFF31
:1024C80003B0BDE8F040FFF79DBF013202F00702FC
:1024D800C7E700BFF00C0020390D0020380D0020A0
:1024E800F80C00202DE9F047BE4F8EB00446B9889D
:1024F8000068089038882278637894F80280B4F8E5
:1025080004A0ADF804000DF1200E3E46002900F0AD
:10251800198185B24FF6FF7C654500F0138197F865
:102528000290B9F1000F00F00D81AAEB010189B208
:10253800B1F5967FB97980F0BB8011F0F00F74D1B6
:1025480065451BD08DF820208DF821303888BDF8DE
:102558002050854212D14546B8F1000F0ED1012313
:1025680063F30711B971FFF767FF3846FFF7C5FE38
:10257800BB79A37128460EB0BDE8F0874546BAF18D
:10258800000F49D08DF81C208DF81D30BDF81C00B7
:102598004FF6FF7188423FD0002D40D192489349B1
:1025A800077809789248B9420FD18DF820208DF824
:1025B8002130089800F0F6FAC0F30332C3B2032AB8
:1025C8001DD8DFE802F01313212100EBC10696F8AD
:1025D80001E09E4506D110F831E0964502D1B67863
:1025E800002EC7D1013101F00701DCE710F4706F4C
:1025F80001D0002BBED02033DBB2072BBAD920463E
:10260800FFF77BFE4D46B5E710F4706FF3D0A27963
:1026180012F0F00FEFD1ADE7B8F1000FAAD0B379FF
:1026280043F00103B3710025A4E780B2604516D0DA
:102638008DF820208DF821303888BDF8205085424B
:102648000DD1B8F1000F0AD1A1712046FFF755FE50
:1026580023683B6063687B60FFF7EEFED2E78DF886
:1026680020208DF821300898FFF7B5FEE0B1B8F1C9
:10267800000F19D0B3791F2B0CD93288ADF8282058
:1026880000228DF82A20ADF82CA08DF82E300AA84B
:10269800FFF733FE2368336063687360FFF7D4FE87
:1026A800FFF7CAFE012565E72046FFF726FEF9E792
:1026B80011F0F00513D18DF820208DF821308DF818
:1026C8002280ADF824A09EE80300FFF78FFE38466D
:1026D800FFF713FE3D607D60FFF7AEFE4AE780B26C
:1026E800604514D08DF820208DF821303888BDF849
:1026F800205085420BD1B8F1000F08D1A1712046B6
:10270800FFF7FBFDC7F80080C7F804807AE78DF86B
:1027180020208DF821300898FFF75DFE0028C3D0EF
:10272800B8F1000FC0D0B3791F2BB3D93288ADF8F8
:10273800302000228DF83220ADF834A08DF83630E4
:102748000CA8A5E73088ADF81400002961D085B23F
:102758004FF6FF77BD425CD0B578002D59D1AAEB72
:10276800010189B2B1F5967F44D24546002D9BD030
:1027780080B2B84223D08DF820208DF821303188DE
:10278800BDF8200088421AD1B379DA0712D41A09A1
:1027980010D0A3711B090F2B1FBFA279013363F35C
:1027A8000712A2712046FFF7A8FD2368336063680B
:1027B800736091E72368336063687360DAE68DF8C5
:1027C80020208DF821300898FFF705FE00287FF4B7
:1027D80061AFB379204643F00103B371FFF78DFD74
:1027E800C8E600BFF00C0020380D0020390D00208D
:1027F800F80C00208DF82280ADF824A08DF8202058
:102808008DF821309EE80300FFF7F0FD3560756014
:1028180062E7B8F1000F3FF447AF8DF820208DF83C
:1028280021300898FFF7D7FD054600283FF43CAF54
:1028380023683360636803487360FFF7E0FAFFF7C3
:1028480003FE49E7F00C0020F0B587B08DE80300DF
:102858006846FFF747FE2F4F2F4D0646B0B1BDF82B
:102868000430BDF80020ADF8082043B192B24FF60D
:10287800FF739A4203D09DE80300FFF7BDFD274C84
:1028880028783B78834228D107B0F0BD9DE8030043
:1028980004AB83E80300BDF80410BDF81020ADF8C0
:1028A8000C200029EBD090B24FF6FF729042E6D090
:1028B8003C782878621C02F00702824221D0174E29
:1028C800ADF8141003CB06EBC40E46F834003A708A
:1028D800CEF80410FFF796FDD1E704EBC000FFF730
:1028E80001FE0028D0D02B7804EBC30254F8330043
:1028F8005168FFF781FD2B78013303F007032B7034
:10290800BEE7FFF739FD064B3E702E701E605E6015
:10291800BAE700BF380D0020390D0020F80C002060
:10292800F00C0020F8B50346002853D000250126F6
:102938001878732803F1010406D8042820D2012846
:102948000AD002281FD0F8BD752835D02AD3A0F1A7
:1029580084036F2B33D9F8BD9C1C5B7803F12002EC
:10296800D2B2072A0BD803F007039840C0B200F090
:10297800B1F900F0EFF92F4637BB2346D8E71846E0
:10298800FFF742FAF7E758789C1C00F12003DBB206
:10299800072B16D800F0070006FA00F0C0B200F0C6
:1029A800A1F9E6E75F789C1C002FE4D00A20013FDC
:1029B80001F079F8FFB2F7E79C1C5D78DBE700F0DF
:1029C8007F00FFF767FAD6E70A20013F01F06BF8AE
:1029D800FFB2D1E7F8BD704708B5FFF7FCFF08BDA7
:1029E80008B5FFF7F9FF034B1860BDE80840FFF78B
:1029F800A7BC00BF3C0D00207047FFF7F1BF0000E7
:102A0800024B1B681843FFF7EBBF00BF3C0D0020CB
:102A1800024B1B681840FFF7E3BF00BF3C0D0020C6
:102A2800024B1B685840FFF7DBBF00BF3C0D00207E
:102A380008B5FDF749FF08BD08B5FFF7F9FF034BD7
:102A48001860BDE80840FFF77BBC00BF400D0020C0
:102A58000020FFF7F1BF012303FA00F0FFF7ECBFF6
:102A6800012303FA00F0024B1B681843FFF7E4BF89
:102A7800400D0020012303FA00F0034B1B6823EAF2
:102A88000000FFF7D9BF00BF400D0020012303FA63
:102A980000F0024B1B685840FFF7CEBF400D0020E6
:102AA800024B1B681843FFF7C7BF00BF400D00204B
:102AB800024B1B681840FFF7BFBF00BF400D002046
:102AC800024B1B685840FFF7B7BF00BF400D0020FE
:102AD80070470000C0F3072303EB430300EB8303B5
:102AE80003F0FF0337B503F0070201209040DB082D
:102AF8000A4A03EB8303C0B2134400245D7821FA29
:102B080004F242F300026A40024001346A40052C94
:102B180003F8012FF2D103B030BD00BF430D0020F0
:102B2800C0F3072303EB430313B500EB830000F066
:102B3800FF0000F007040949C00800EB80000022EC
:102B4800014410468B5CE34003F0010393400132DB
:102B58001843052AC0B2F5D102B010BD440D0020BB
:102B68000E4B73B51E680E4BADF804001B681F248E
:102B78001E4326FA04F3DB0706D414F1FF34F8D217
:102B88000025284602B070BDE5B201992846FDF738
:102B9800B9FF80B20128F0D0F3E700BF400D002054
:102BA8003C0D002007B5ADF804000198FFF7D8FFE9
:102BB8000199FDF7A7FF03B05DF804FB13B50E4BB1
:102BC800ADF804101B7823B10198FFF7EBFF02B0B2
:102BD80010BD60B10198FFF7C3FF04460146019894
:102BE800FFF778FF01992046FDF78CFFEFE7019882
:102BF800FFF796FF0446F5E7EE0C0020024B93F929
:102C08000000C0F3C70070476B0D0020024B187816
:102C180000F00700704700BF6B0D0020034B1878C9
:102C280010F0070018BF0120704700BF6B0D00208F
:102C3800064A5378C3F38001814205D060F38203CA
:102C48005370108800F01BB9704700BF680E002051
:102C5800034B587880F00400C0F38000FFF7E8BF0A
:102C6800680E00200120FFF7E3BF0020FFF7E0BF58
:102C7800014B1878704700BF6D0D0020024A137889
:102C880018431070704700BF6D0D0020024A13787A
:102C980023EA0000107070476D0D0020014B0022E0
:102CA8001A7070476D0D0020024A1378184310708F
:102CB800704700BF6E0D0020024A137823EA000017
:102CC800107070476E0D0020014B00221A7070477B
:102CD8006E0D0020024A137818431070704700BF29
:102CE8006A0D0020024A137823EA0000107070472A
:102CF8006A0D0020014B00221A7070476A0D0020EF
:102D0800014B1878704700BF6C0D0020704708B55C
:102D1800FFF7FCFF08BD000008B5064B5B785B07B2
:102D280006D4054B1978814202D01870FFF7EFFFDF
:102D380008BD00BF680E00206C0D002008B5044BCC
:102D48001A781AB100201870FFF7E1FF08BD00BF1C
:102D58006C0D002010B50D4B0D491B7809780D4CF2
:102D68000B430D49206809780B430C490370097817
:102D780031B10B43037000F0EDF808B1FFF7DEFF47
:102D88002068BDE81040FEF73FBF00BF6D0D002072
:102D98006E0D0020080C00206A0D00206C0D00202C
:102DA800704708B5FFF7FCFF08BD00000A4A5278D3
:102DB800520710B50CD4094C41EAC0012170FFF745
:102DC8004FFE94F90000C0F3C700FFF7EAFF10BDFB
:102DD800BDE81040FFF744BE680E00206B0D0020D0
:102DE80008B5034B00201870FFF7DBFF08BD00BFD4
:102DF8006B0D002008B50C4A92F9003023EA000058
:102E080040B21070420702D1DBB2834203D1074BB4
:102E18005B785B0707D5C0F3C700FFF72BFEBDE85B
:102E28000840FFF7DDBF08BD6B0D0020680E0020CD
:102E3800002070474FF6FF710020FEF75BB908B518
:102E48000020FEF747F94FF6EA63C31A5842584183
:102E580008BD0220FEF738B90320FEF735B9014650
:102E68000320FEF741B910B50420FEF72DF90446FA
:102E78002220FEF729F944EA002080B210BD10B5DF
:102E8800C1B204460420FEF72FF9210A2220BDE82A
:102E98001040FEF729B901460F20FEF733B9014665
:102EA8001320FEF72FB90020FFF7F9BF08B500205F
:102EB800FFF7F1FFFFF7F7FF08BD000010B54FF669
:102EC800EA610020FEF716F900210220FEF70CF94E
:102ED800002103200024FEF707F91A4B214604209D
:102EE8001C60FEF701F921462220FEF7FDF8214675
:102EF8000520FEF7F9F821460620FEF7F5F8FF2130
:102F08000720FEF7F1F821460820FEF7FBF82146D6
:102F18000D20FEF7E9F821461820FEF7F3F82146C0
:102F28001720FEF7E1F821461C20FEF7EBF82146B2
:102F38002020FEF7DFF821461820FEF7E3F8FFF718
:102F4800B5FF10BD3C0D0020FFF7B8BF01460E20AD
:102F5800FEF7CAB8821C00F1080300209A4200D18B
:102F6800704712F8011B0029F8D00130C0B2F5E70C
:102F780039B1831C083013F8012B914203D08342E6
:102F8800F9D1002070470120704730B54FF0FF336A
:102F9800851C002215F8014B8C420CD0B3F1FF3F81
:102FA80002D1002C08BF13460132D4B2062C62B2FB
:102FB800F0D15A1C00D130BD1844817030BD10B515
:102FC800831C002208301C788C4208BF1A70013319
:102FD8008342F8D110BDFFF7D8BFFFF7F0BF002339
:102FE800C0F80230C3807047704708B5FFF7FCFF90
:102FF80008BD000008B5FFF751FEFFF765FE084B56
:103008001868FFF7ECFF0020FEF706FE0020FEF729
:1030180013FEFEF7F1FDFDF751FDFFF7E6FF08BDD2
:10302800080C002008B5202383F3118800F0E6FD82
:10303800002383F31188014B186008BD700D002030
:10304800FFF7F0BF38B5202383F3118800F0D6FDD1
:10305800002383F31188094B196842F20F74411A4F
:1030680000254FF47A70E0FB014542F2107200230C
:1030780020462946FDF798F938BD00BF700D00209D
:1030880008B5FFF7DFFF80B208BD10B50446FFF7AB
:10309800D9FF001B80B210BD10B50446FFF7D2FF60
:1030A800001B10BD074B084A1A60BFF34F8F074932
:1030B800074BCA6802F4E0621343CB60BFF34F8F3B
:1030C80000BFFDE7FCFF0020EFBEADDE00ED00E035
:1030D8000400FA050A4A08B552F8041C094B99423B
:1030E8000DD1002342F8043C83F31488064B1B6877
:1030F80083F3088862B6054B1B689847FEE708BD4E
:1031080000000120EFBEADDE0000FF1F0400FF1F1E
:1031180000207047014B1860704700BF0C0C00205E
:1031280010B5084A084C117824784B1C03F00F039B
:103138009C421FBF054C13706054012008BF00203B
:1031480010BD00BF941200209512002084120020A8
:10315800202383F31188002383F311887047704775
:1031680038B5094C10462246002542F8045F40EA6B
:103178000120194600F016FA63682060AB4214BFBC
:103188002046284638BD00BF740D002090F84A300C
:10319800022B054B1A7804D102F0FB02012A02D156
:1031A8005A78024B1A707047B20D0020A80D002003
:1031B800042938B505460C4613D0052911D0022933
:1031C80014D1202383F31188094A012100F075FDE9
:1031D800084A2146284600F070FD002383F3118831
:1031E80038BD2046BDE83840FFF79ABF38BD00BF5C
:1031F800BC750008E075000870B504460648C36849
:103208000D460BB100F0D6FA2B462146034A024878
:10321800BDE8704000F07ABA940D00202932000809
:10322800F8B50546202383F311880378042B03D0CF
:10323800002383F31188F8BD124C2278002AF7D0B6
:10324800114B1B78002BF3D003899B0704D4082368
:103258000E4A012100F085FD207842F21073A0FB90
:10326800030140F2E73680194FF000074FF47A72F5
:103278004FF000037941FDF797F829468000FFF7E2
:10328800BBFFD5E7900D0020100C0020A90D0020F1
:10329800F8B590F8443003F07F02212A04466CD137
:1032A80013F0800525D0002D67D090F8450002283E
:1032B80019D003280ED001285FD194F848302BB9D3
:1032C8003D4AA2630822E2632364F8BD0023A36396
:1032D800E363F9E7B4F84830002B4ED1374AA263CC
:1032E8000120E063F0E7364BA3630120E06300238D
:1032F800EAE790F845300A2B3AD00B2B0DD0092B72
:103308003BD190F84830012B37D82E4B83630223EA
:10331800C3632D4B23640120F8BDB0F848501DBB92
:1033280090F84630254A003318BF01231370244B08
:103338001A78CAB1202282F31188187842F21073E1
:10334800A0FB030140F2E73680194FF000074FF465
:103358007A724FF000037941FDF726F82146800084
:10336800FFF74AFF85F311880023A363E363D1E7DE
:10337800134B90F847201A70DBE7B4F8442040F26A
:1033880081639A4201D00020F8BD94F84920616811
:1033980094F848304D6894F8471043EA02232046D1
:1033A80094F84620A8470028EDD04368A363036833
:1033B800E3630023AEE700BFA90D0020100C002036
:1033C800900D0020B20D00209531000870470000D4
:1033D80008B510220021044802F005FB034A002327
:1033E8001370034A137008BD841200209412002041
:1033F80095120020F8B50C4D0C4E2C4637782B78DA
:103408000B480022BB420CD019460133415C052908
:1034180003F00F034FF00102F4D12370FFF7EAFD28
:10342800ECE702B12370F8BD951200209412002039
:1034380084120020426D936B23F4002310B593632C
:10344800044643F6982000F02EFB0649204600F07B
:1034580022FC626D936B43F400239363024B0022BA
:10346800DA6010BD04760008940D0020014B18782E
:10347800704700BFA80D002038B50546202383F308
:103488001188104C2378042B0DD123899B070ED467
:1034980008232A4601210B4800F063FC0A4A2B68DE
:1034A80013606B685360002383F3118838BD236968
:1034B80058694FF0FF310C3000F002FB2378042BE1
:1034C800F1D1E5E764140020A90D00207047000041
:1034D80007B52023024683F311880A480378042B92
:1034E80005D0002383F3118803B05DF804FB0323A0
:1034F800ADF80520022101AA8DF8043000F031FC56
:10350800EFE700BF6414002007B52023024683F3C9
:1035180011880A480378042B05D0002383F3118807
:1035280003B05DF804FB8DF80430ADF805200323E3
:1035380001AA022100F015FCEFE700BF6414002087
:10354800FFF7C8BD704708B5FFF7FAFF02F0AEF9FC
:10355800FFF7F8FF08BD08B502F0EEF9FDF7B4F87B
:1035680008BD000008B500F025FB00F08DF8FEF757
:103578008BFBFFF72DFF0948FFF75CFF4FF4FA704C
:1035880000F091FAFEF79AFB0548FEF72FFBFFF7CC
:1035980031FFFEF79FFBFEF78BFBF8E76414002072
:1035A800140C0020030A032B18D006D8012B0ED0C8
:1035B800022B10D0002003460BE0212B17D0222B22
:1035C800F8D1E9B10129F5D132200F4B01E00F4BB9
:1035D8001220136070473B200D4BFAE7C0B2022857
:1035E800E8D80C4B0C4953F82030085CF1E721B1BE
:1035F8000129DFD10920094BEBE70920084BE8E74F
:103608004020084BE5E700BFDE7600085E7600083C
:103618002376000814760008207600084E76000805
:103628003576000870760008024B034A1A60034A90
:103638005A60704798120020E01400200000012012
:1036480070477047FEE700000D4B70B503F180002E
:103658000024A3F1100126C90439AA4207D353F85C
:10366800041C8A4208D310338342F2D170BD51F84A
:10367800046F42F8046BF0E742F8044BF1E700BF2F
:1036880020770008FEE7000010B50D4C00F010F997
:1036980000F02EF8FFF7C8FF80220A49204600F004
:1036A800B9F9012344F8180C037400F035FA002323
:1036B80083F3118862B60448BDE8104000F0D6B91B
:1036C80008140020907700089877000872B6014B1C
:1036D8005862FEE7E013002000F0A8B8034B5968D1
:1036E8005A68521A9042FBD8704700BF001000E099
:1036F800054B03F114025A619A614FF0FF32DA6107
:1037080000221A62704700BFE01300202DE9F04143
:10371800274E0361C2600D46044600F06FFA334637
:10372800022D53F8142F294638BF02219A423746F2
:103738001D460AD130627461B46108442260626037
:10374800A160BDE8F04100F048BA366A831B13EB6C
:10375800010821D34FF0000E9068834217D81E4409
:10376800AA423E6201D0C01A90607B699A68914271
:103778001BD85A682360626014605C60A160986816
:10378800411A99604FF0FF33FB61BDE8F081C2F840
:1037980008E01B1A1268DFE79368984503D206EB26
:1037A800080000F027FA4146DFE7891A1B68DDE7C1
:1037B800E01300201C494A69824238B50D4601F1E0
:1037C80014040ED042680368136003685A60A34269
:1037D8004FF00002C26026D09A6881680A449A6055
:1037E80038BD13684B61A3424FF000015C60D160A3
:1037F80003D1BDE8384000F0F8B9926899682C6A9E
:103808001144996000F0FAF96A699268001B8242D3
:1038180009D9111A012998BF821C286ABDE83840C5
:10382800104400F0E7B938BDE01300202DE9F84F47
:103838001E4C4FF00008656904F11407C14600F0FA
:10384800DDF9266AAB68861BB3421DD84FF0200A03
:10385800AA68236AD5F80CB0134423622B68BB42CC
:103868005F60A6EB02066361C5F80C8001D100F029
:10387800BCF989F311882869D8478AF311886569E2
:10388800AB689E42E4D2DAE76369BB420CD09A681F
:103898002062961B9E60AB68022B2CBFC0180230BA
:1038A800BDE8F84F00F0A6B9BDE8F88FE013002096
:1038B800024B00221B605B609A607047E013002097
:1038C800002303748268054B1B6899689142FBD2F8
:1038D8005A6803604260106058607047E013002027
:1038E80008B5202383F31188027C0023052A06D813
:1038F800DFE802F00B050503120E426913604FF072
:10390800FF334361FFF7DCFF002383F3118808BD11
:10391800426993680133936090E80C001A6002686A
:103928005360ECE7002303748268054B1B689968B1
:103938009142FBD85A680360426010605860704733
:10394800E0130020054B19690874186802681A60AA
:103958005360186101230374FCF70CBDE0130020C9
:1039680030B54B1C87B005460A4C10D023690A4A6B
:1039780001A8FFF7CBFE2846FFF7E4FF049B13B12D
:1039880001A8FFF717FF2369586907B030BDFFF793
:10399800D9FFF8E7E0130020E938000838B50C4DE6
:1039A80041612B6981689A689142044603D8BDE851
:1039B8003840FFF785BF1846FFF7B4FF01232C6195
:1039C800014623742046BDE83840FCF7D3BC00BF4D
:1039D800E0130020044B1A681B6990689B689842A2
:1039E80094BF002001207047E013002010B5084C58
:1039F800236820691A6822605460012223611A74BE
:103A0800FFF790FF01462069BDE81040FCF7B2BC03
:103A1800E0130020022101740021826041740262D7
:103A2800C1618161704700008368C168A3F18C029D
:103A380043F81C2C026943F84C2C426943F8482C83
:103A4800094A43F82C2C022203F8182C002243F8C8
:103A5800201C03F8172C43F8081C43F80C2C43F8D7
:103A6800102CA3F1280070479503000810B52023F7
:103A780083F31188FFF7D8FF00210446FFF78EFF74
:103A8800002383F31188204610BD0000024B1B69F8
:103A980058610F20FFF756BFE0130020202383F35F
:103AA8001188FFF7F3BF08B50146202383F3118877
:103AB8000820FFF755FF002383F3118808BD000095
:103AC800054B1B6921B1036058610320FFF748BF0C
:103AD8004FF0FF30704700BFE013002003682BB1A0
:103AE8000022026059611846FFF7EABE70470023BA
:103AF8000060406083607047EFF3098305494A68B6
:103B080022F001024A60683383F30988002383F3B3
:103B18001188704730EF00E0202080F3118862B6EA
:103B28000B4B0C4AD96821F4E0610904090C0A43DB
:103B38000949DA60CA6842F08072CA6007490A68AF
:103B480042F001020A601022DA7783F822007047F7
:103B580000ED00E00003FA05F0ED00E0001000E0E1
:103B680010B5202383F311880E4B5B6813F40063B0
:103B780014D0F1EE103AEFF30984683C4FF08073EB
:103B8800E361094BDB68236684F30988FFF722FFAA
:103B980010B1064BA36110BD054BFBE783F31188F9
:103BA80010BD00BF00ED00E030EF00E0A703000803
:103BB800AA03000808B500F08FFB00F025FE00F00E
:103BC80021F800F050F800F057F8FFF7C4FCBDE802
:103BD800084000F000B801F0CFBD4FF0804300224C
:103BE80058631A610222DA6070474FF0804300225E
:103BF800DA6070474FF08043586370474FF0804356
:103C0800586A704700F0BABF01230370002343606D
:103C18000C30FFF76CBF10B52023044683F31188DE
:103C2800416000F0BBFF02232370002383F3118857
:103C380010BD7FB50546202484F31188032606703D
:103C480000240A9E84600296099E0196089E0096AA
:103C580001F056F8431C0CBF052302232B7084F394
:103C6800118804B070BD01F0CBBD0123037000239F
:103C78004360C3600374704701F034B901230370D3
:103C880000234360C36183620362C36243620363C8
:103C980003814381704738B50446202383F3118894
:103CA80000254160C56005614561856101F02AF91B
:103CB8000223237085F3118838BD70B500EB8103AA
:103CC80005465069DA600E46144618B114220021E0
:103CD80001F089FEA06918B11422002101F083FEC9
:103CE80031462846BDE8704001F0D6B9F8B50389D9
:103CF80003F001030381438903F001030446438170
:103D080000F1100500F11C0600272B6873B15869F3
:103D180020B16FF001010C30FFF7E0FE2B689869C5
:103D280020B16FF001010C30FFF7D8FE45F8047B95
:103D3800B542EAD12046BDE8F84001F041BAF0B4F6
:103D480000EB81044789E4680125A4698D403D435F
:103D5800458123600023A2606360E360F0BC01F04A
:103D680057BAF0B400EB81040789E4680125646957
:103D78008D403D43058123600023A2606360E360BA
:103D8800F0BC01F0DBBA02232DE9F04103700023F7
:103D98000446A0F84C3080F84E3080F84F3003814C
:103DA800438100F10C0600F11C074FF020081D4666
:103DB80033689BB188F311883368586920B16FF074
:103DC80001010C30FFF78AFE3368986920B16FF063
:103DD80001010C30FFF782FE85F3118846F8045B79
:103DE800BE42E5D184F83450204601F0F1F863680A
:103DF8001B6823B120460021BDE8F0411847BDE803
:103E0800F081F8B5037880F85030052303704368D3
:103E18001B6804460BB10421984700232381638162
:103E280004F10C0520271C341E462B689BB187F330
:103E380011882B68586920B16FF001010C30FFF729
:103E48004DFE2B68986920B16FF001010C30FFF727
:103E580045FE86F311880435A542E6D1F8BD4368CE
:103E680090F850201B6802700BB105211847704765
:103E780090F8343070B5044613B1002380F834301C
:103E880004F14402204601F0BAF963689B6863BBF9
:103E980094F8445015F0600615D194F8453005F0B3
:103EA8007F0545EA032540F202339D4200F00E816A
:103EB8005BD8022D00F0DC803FD8002D00F0878011
:103EC800012D00F0CF800021204601F037FC0021B1
:103ED800204601F029FC63681B6813B106212046BF
:103EE8009847062384F8343070BD20469847002848
:103EF800CED094F84B2094F84A3043EA0223E26B80
:103F0800934238BFE36394F94430E56B002B4FF0DC
:103F1800200380F2FD80002D00F0EC80092284F857
:103F2800342083F311880021E36BA26B2046FFF74E
:103F380018FF002383F3118870BDB5F5817F00F069
:103F4800B180B5F5407F49D0B5F5807FBBD194F8F5
:103F58004630012BB7D1B4F84C3023F00203A4F853
:103F68004C30A663E6632664C3E740F201639D42D2
:103F78001ED8B5F5C06F3BD2B5F5A06FA3D1B4F884
:103F88004430B3F5A06F0ED194F8463084F84E3023
:103F9800204601F075F863681B6813B101212046BB
:103FA8009847032323700023A363E3632364A0E7F4
:103FB800B5F5106F32D040F602439D4252D0B5F5A8
:103FC800006F80D104F14F03A363012324E004F1BF
:103FD8004C03A3630223E36325648AE794F846301D
:103FE800012B7FF470AFB4F84C3043F00203B6E70E
:103FF80094F84920616894F848304D6894F847105F
:1040080043EA0223204694F84620A84700283FF4B4
:104018005AAF4368A3630368E363A4E72378042BD8
:1040280010D1202383F311882046FFF75FFE86F323
:104038001188636884F84F601B68032121700BB1F5
:104048002046984794F84630002BACD084F84F307F
:104058000423237063681B68002BA4D00221204628
:104068009847A0E7374BA3630223E36300239DE748
:1040780094F8481011F0800F204601F00F010ED07F
:1040880001F0B0F8012806D002287FF41CAF2E4BAF
:10409800A363E06367E72D4BA363E56363E701F080
:1040A80094F8EFE794F84630002B7FF40CAF94F8BF
:1040B800483013F00F013FF476AF1A06204602D5B8
:1040C80001F050FB6FE701F043FB6CE794F84630D2
:1040D800002B7FF4F8AE94F8483013F00F013FF44A
:1040E80062AF1B06204602D501F028FB5BE701F012
:1040F8001BFB58E7142284F8342083F311882B46DD
:104108002A4629462046FFF71AFE85F3118870BD16
:104118005DB1152284F8342083F311880021E36B04
:10412800A26B2046FFF70BFE03E70B2284F834202E
:1041380083F311882B462A4629462046FFF711FEAD
:10414800E3E700BFB9770008B5770008B77700083C
:1041580038B590F834300446152B29D8DFE803F039
:104168003E28282828283E28280B293928282828A6
:10417800282828283E3E90F84B1090F84A20C36B18
:1041880042EA01229A4214D9C268128AB3FBF2F5B4
:1041980002FB15356DB9202383F311882B462A4677
:1041A8002946FFF7DEFD85F311880A2384F83430A9
:1041B80038BD142384F83430202383F31188002376
:1041C8001A4619462046FFF7BAFD002383F31188E3
:1041D80038BD036C03B198470023E7E7002101F0DD
:1041E800ADFA0021204601F09FFA63681B6813B1FD
:1041F8000621204698470623D8E790F83420152A48
:1042080038B5044622D80123934040F64162134250
:104218001DD113F480150FD19B0217D50B2380F8FD
:104228003430202383F311882B462A462946FFF78A
:1042380098FD85F3118838BDC3689B695B682BB905
:10424800036C03B19847002384F8343038BD00214B
:1042580001F074FA0021204601F066FA63681B68D1
:1042680013B10621204698470623EDE700F1604385
:1042780000F01F02400903F5614309018000C9B23B
:1042880000F1604083F8001300F56140012393407A
:10429800C0F8803103607047062108B50846FFF76B
:1042A800E5FF06210720FFF7E1FF06210820FFF7B9
:1042B800DDFF06210920FFF7D9FF06210A20FFF7B5
:1042C800D5FF06211720FFF7D1FF06212820BDE8DA
:1042D8000840FFF7CBBF000008B5214B1A6962F010
:1042E8001F021A611A6902F01F021A614FF0FF30AB
:1042F8001A695A69586100215A6959615A691A6AD2
:1043080062F080521A621A6A02F080521A621A6ABD
:104318005A6A58625A6A59625A6A1A6C42F080524A
:104328001A641A6E42F080521A661A6E0D4A1068A4
:1043380040F480701060186F00F44070B0F5007F92
:104348001EBF4FF4803018671967536823F4007351
:10435800536000F0DFF9BDE80840FFF79DBF00BFDC
:104368000038024000700040354B4FF080521A640C
:10437800344A4FF4004111601A6842F001021A6091
:104388001A689207FCD59A6822F003029A602C4BAF
:1043980019469A6812F00C02FBD1186800F0F9006F
:1043A80018609A601A6842F480321A600B689B039E
:1043B800FCD54B6F43F001034B67214B5A6F9007B5
:1043C800FCD5214A5A601A6842F080721A601D4A68
:1043D80053685904FCD51A4B1A689201FCD51B4A3C
:1043E8009A600322C3F88C20194B1A68194B9A4219
:1043F800194B21D1194A1168194A91421CD14FF41D
:1044080081721A60144A136803F00F03022BFAD161
:104418000B4B9A6842F002029A609A6802F00C020A
:10442800082AFAD15A6C42F480425A645A6E42F40D
:1044380080425A665B6E704740F20272E1E700BF45
:104448000038024000700040195441070094883831
:10445800002004E011640020003C024000ED00E070
:1044680041C20F4108B5074B074A196801F03D01E1
:10447800996053680BB190689847BDE80840FFF70A
:104488006FBB00BF00600240C80D002008B5084B94
:104498001968890901F03D018A019A60054AD368C3
:1044A8000BB110699847BDE80840FFF759BB00BF3A
:1044B80000600240C80D002008B5084B1968090CB7
:1044C80001F03D010A049A60054A53690BB19069ED
:1044D8009847BDE80840FFF743BB00BF00600240B3
:1044E800C80D002008B5084B1968890D01F03D0179
:1044F8008A059A60054AD3690BB1106A9847BDE8E6
:104508000840FFF72DBB00BF00600240C80D002027
:1045180008B5074B074A596801F03D01D960536A4D
:104528000BB1906A9847BDE80840FFF719BB00BF78
:1045380000600240C80D002008B5084B5968890979
:1045480001F03D018A01DA60054AD36A0BB1106BAC
:104558009847BDE80840FFF703BB00BF0060024072
:10456800C80D002008B5084B5968090C01F03D0139
:104578000A04DA60054A536B0BB1906B9847BDE8A3
:104588000840FFF7EDBA00BF00600240C80D0020E8
:1045980008B5084B5968890D01F03D018A05DA60B4
:1045A800054AD36B0BB1106C9847BDE80840FFF77C
:1045B800D7BA00BF00600240C80D002008B5074BFD
:1045C800074A196801F03D019960536C0BB1906C72
:1045D8009847BDE80840FFF7C3BA00BF006402402F
:1045E800C80D002008B5084B1968890901F03D017C
:1045F8008A019A60054AD36C0BB1106D9847BDE8E3
:104608000840FFF7ADBA00BF00640240C80D0020A3
:1046180008B5084B1968090C01F03D010A049A60B5
:10462800054A536D0BB1906D9847BDE80840FFF7F8
:1046380097BA00BF00640240C80D002008B5084BB7
:104648001968890D01F03D018A059A60054AD36D04
:104658000BB1106E9847BDE80840FFF781BA00BF5C
:1046680000640240C80D002008B5074B074A596886
:1046780001F03D01D960536E0BB1906E9847BDE8CB
:104688000840FFF76DBA00BF00640240C80D002063
:1046980008B5084B5968890901F03D018A01DA60BB
:1046A800054AD36E0BB1106F9847BDE80840FFF775
:1046B80057BA00BF00640240C80D002008B5084B77
:1046C8005968090C01F03D010A04DA60054A536F84
:1046D8000BB1906F9847BDE80840FFF741BA00BF9B
:1046E80000640240C80D002008B5084B5968890DC0
:1046F80001F03D018A05DA60054AD36F13B1D2F89B
:1047080080009847BDE80840FFF72ABA00640240D5
:10471800C80D00200D4A30B500230D4C13600C2540
:10472800194605FB03F00059016002EBC300013391
:10473800102B4160F5D1074A4FF0FF339360D360E7
:10474800C2F80834C2F80C3430BD00BFC80D0020D0
:10475800BC770008006002400F28F8B54BD8274EF8
:104768000124376884403C4245D106EBC00CDFF891
:1047780094E0CCF804200C25274314F0FF0F376091
:1047880005FB00E5CCF80830764609D01C4B1F6BBA
:1047980047F400171F631F6D47F400171F651B6D53
:1047A80014F47F4F09D0164B1C6B44F480041C632F
:1047B8001C6D44F480041C651B6D0C234343F358A3
:1047C8001C6824F01F041C601C6814F00104FBD151
:1047D8000C2707FB00603D2690F809E0476806FAB9
:1047E8000EF63E601C6021245C6112B1C07AFFF7AE
:1047F8003DFD2846F8BD0025FBE700BFC80D002099
:1048080000380240BC77000870472DE9F74FC2F323
:10481800C31302F00308C2F3800CC2F3C10EC2F343
:1048280041170193454600244FF001094FF0030A50
:10483800CB073CD5019A04F007039B0002FA03F664
:104848000F2202FA03F3426809FA04FB22EA0B0278
:1048580042EA0C0242606200D0F808B00AFA02F29A
:10486800D2430BEA020B4BEA0E0BC0F808B0D0F8A3
:104878000CB002EA0B0B4BEA070BB8F1020FC0F8B9
:104888000CB06FEA03031CD1072C95BFD0F820B0F9
:10489800D0F824B003EA0B0303EA0B0395BF3343B4
:1048A80033430362436203681A402A43026049089B
:1048B80019D04FEA4C0C4FEA8E0EBF00AD00013400
:1048C800B6E7D0F800B002EA0B022A43072C0260D0
:1048D80095BF026A426A1340134095BF1E431E43A8
:1048E80006624662E3E703B0BDE8F08F11F00C0FF3
:1048F80038B50546446B02D00A48FEF7E7FE2B6B35
:104908001A68116821F01F0111601168C907FCD4E9
:10491800597A5A683D238B401360636843F40073E7
:10492800636038BD7C78000811F00C0F70B506463E
:10493800446B02D01448FEF7C9FEF36A1A6811687E
:1049480021F01F011160156815F00105FBD1597A96
:104958005A683D238B401360636823F48053636077
:10496800236823F480632360236843F4007323607F
:10497800202383F31188294606F11C00FFF7AEF8BF
:1049880085F3118870BD00BF7C7800083D483E4A19
:1049980070B5446BA369656945EA034323F07F4317
:1049A800934202462AD010D8B3F1011F1AD03749D2
:1049B8008B4217D015F00A0F18BFA369EB0542BF49
:1049C800636923F48073636146E0314A93422BD0D4
:1049D8000232934233D02F4A9342EBD1038CC3F374
:1049E800470309E0138C1A0A06D003F0010343F0C9
:1049F800F00302F0060213432361DBE7636823F444
:104A080000736360C36A1B681A6842F001021A6087
:104A1800626842F4805262605B68012BCAD82368DE
:104A280023F480632360C5E7636823F4007363603D
:104A3800036B1A68136843F001031360BAE723692C
:104A4800C36A1B685E685EB1038C43F0010303848C
:104A5800236843F4A0632360BDE87040FFF780B883
:104A6800636823F400736360236843F4007323606E
:104A7800202383F3118831461C30FFF72FF886F383
:104A8800118897E72C14002002000300010003009E
:104A98008200070008000300364B5A6B506970B556
:104AA80000F45F44E44354611C6B25682E6826F0CB
:104AB8001F0681B22E602E68F607FCD4667A6568F8
:104AC8003D24B4402C60DC6A25682E6826F01F0659
:104AD8002E602E68F607FCD4667A65683D24B440DB
:104AE8002C6011F480741DBF01249C6054699C6083
:104AF8001CBF24F4807454618C0542BF9C6844F048
:104B080002049C604E050BD5546824F4007454606C
:104B1800146844F4007414609A6842F004029A60BD
:104B28000D0542BF9A6842F008029A604C0442BFE1
:104B38009A6842F020029A60C90442BF9A6842F01B
:104B480010029A60020442BF9A6842F040029A60DA
:104B58009B6853B1202383F311886FF00101064845
:104B6800FEF7BCFF002383F31188BDE87040FEF711
:104B7800F7BF00BF2C1400204814002010B5054CC6
:104B88002046FFF741F80023034AE3616263E362CA
:104B9800236310BD2C140020005400400378012B1F
:104BA80070B50446456B38D140F25643836240F2F3
:104BB800164343624A4B98422FD14A4E4A4A336AB7
:104BC80043F400133362336A23F400133362336A05
:104BD800052103460020FFF7BFFD444AE062234653
:104BE80005210620FFF7B8FD336C206343F400135A
:104BF8003364336E43F40013336605211F20336E8C
:104C0800FFF734FB05212020FFF730FB626A3849A3
:104C1800A36A0A430B436262A362E36A616B1A6880
:104C2800606805F110039360226B067A126893603E
:104C38004FF400432B604FF4106200232B606A602E
:104C48004C68426824F03F042404240C4C604C68EF
:104C580044F015044C60274CA2421ADC5200264B43
:104C6800B3FBF2F31622C3F30B030A62CB6102789B
:104C78000B68022A9BB22AD0032A2ED0012A02D11D
:104C880023F00A039BB20B602B6843F001032B60EF
:104C980070BD1A4CA242E9DC022E0AD102EB420492
:104CA800154AB2FBF4F292B21A4342F400430722C7
:104CB800DBE7032E01BF192353430F4AB2FBF3F27C
:104CC80012BF40F6FF7292B24FF48043ECE723F034
:104CD80008039BB243F00203D5E743F00A03D2E787
:104CE8002C1400200038024031490008F54800081B
:104CF80000000302A0860100406F4001801A0600F0
:104D08002DE9F041490000260446456B8660018480
:104D180086F31188016B806A09680860CA604B6075
:104D2800E36A626A1B681A60069ADA60079A5A6030
:104D3800FEF764FF4FF02008074688F31188AB6937
:104D48009A0702D42B689B0528D5FEF757FFC01B8E
:104D5800B0F5FA7F1FD3236B1A68116821F01F0181
:104D680011601168CF07FCD4597A5A683D238B40EB
:104D78001360E36A1A68116821F01F011160116855
:104D8800CE07FCD4597A5A683D238B4013604FF004
:104D9800FF30BDE8F08186F31188CEE76B6808998B
:104DA80043F400736B602B6843F480732B6004F149
:104DB8001C00FEF785FED8B1236B1A68116821F034
:104DC8001F0111601168CD07FCD4597A5A683D2338
:104DD8008B401360E36A1A68116821F01F011160A3
:104DE8001168C907FCD4597A5A683D238B4013606F
:104DF800BDE8F081836D70B5446D9E6800214FF069
:104E0800FF354A01A3180131D3F800090028BEBFB5
:104E1800D3F8000940F08040C3F80009D3F8000B2C
:104E28000028BEBFD3F8000B40F08040C3F8000B49
:104E3800A3188E42C3F80859C3F8085BE1D24FF0B3
:104E48000113C4F81C3870BD890141F020010161CB
:104E580003699B06FCD41220FEF740BC204B03EBF1
:104E680080022DE9F047D2F80CE05D6DDEF81420E1
:104E7800461CD2F800C005EB063605EB4018516811
:104E880061450BD3D5F83428012303FA00F022EA50
:104E98000000C5F834081846BDE8F087BEF8104091
:104EA800ACEB0103A34228BF2346D8F81849A4B2A3
:104EB800B3EB840F10D894681F46A4F1040959F87D
:104EC80004AFC6F800A0042F01D9043FF7E71C443B
:104ED8000B4494605360D2E70020BDE8F08700BF20
:104EE8006414002010B5054C2046FEF7C7FE4FF0AD
:104EF800A0436365024BA36510BD00BF6414002086
:104F0800AC7800080378012B70B5054650D12A4BC0
:104F1800446D98421BD1294B5A6B42F080025A6368
:104F28005A6D42F080025A655A6D5A6942F0800201
:104F38005A615A6922F080025A610E2143205B6946
:104F4800FFF794F91E4BE3601E4BC4F800380023AA
:104F5800C4F8003EC02323606E6D4FF43413A3637E
:104F68003369002BFCDA012333610C20FEF7B6FB12
:104F78003369DB07FCD41220FEF7B0FB3369002B42
:104F8800FCDA0026A6602846FFF734FF6B68C4F8F1
:104F98001068DB68C4F81468C4F81C684BB90A4B7D
:104FA800A3614FF0FF336361A36843F00103A3607B
:104FB80070BD064BF4E700BF6414002000380240BF
:104FC8004014004003002002003C30C0083C30C0C0
:104FD800F8B5446D054600212046FFF735FFA96D59
:104FE80000234FF001128F68C4F834384FF0006680
:104FF800C4F81C284FF0FF3004EB431201339F42E2
:10500800C2F80069C2F8006BC2F80809C2F8080BB8
:10501800F2D20B686A6DEB6563621023136116693F
:1050280016F01006FBD11220FEF758FBD4F8003812
:1050380023F4FE63C4F80038A36943F4402343F023
:105048001003A3610923C4F81038C4F814380A4BB4
:10505800EB604FF0C043C4F8103B084BC4F8003B6A
:10506800C4F81069C4F80039EB6D03F1100243F479
:105078008013EA65A362F8BD8878000840800010B4
:10508800426D90F84E10D2F8003823F4FE6343EADC
:105098000113C2F8003870472DE9F0410EB200EB59
:1050A80086080D46D8F80C100F6807F00303022B8A
:1050B80050D0032B50D03D4A3D4F012B18BF174607
:1050C800446D4FEA451E04EB0E030022C3F8102B73
:1050D8008A6905F1100C002A40D04A8A05F1580364
:1050E8005B013A43E2500123D4F81C2803FA0CF37D
:1050F8001343A6444A69C4F81C380023CEF8103973
:1051080005F13F03002A39D00A8A898B92080129C0
:1051180088BF4A43C16D04EB8303561841EA024233
:10512800C66529465A602046FFF78EFED8F80C302F
:105138001B8A43EA85531F4305F148035B01E75087
:105148000123D4F81C2803FA05F51543C4F81C58A4
:10515800BDE8F081174FB3E7174FB1E704EB4613EB
:10516800D3F8002B22F40042C3F8002BD4F81C28F3
:10517800012303FA0CF322EA0303BAE704EB8303DF
:105188000E4A5A6004EB461629462046FFF75CFE95
:10519800D6F8003923F40043C6F80039D4F81C388F
:1051A800012202FA05F523EA0505CFE70080001081
:1051B800008004100080081000800C100004000219
:1051C800826D1268C265FFF715BE5831436D4901FB
:1051D8005B5813F4004004D013F4001F14BF0120DF
:1051E800022070474831436D49015B5813F4004071
:1051F80004D013F4001F14BF01200220704700EBF5
:105208008101CB68196A0B6813604B68536070475B
:1052180000EB810330B5DD68AA691368136119B919
:10522800402B84BF402313606B8A1468426D1C4472
:10523800013CB4FBF3F46343033323F0030302EBB1
:10524800411043EAC44343F0C043C0F8103B2B6805
:1052580003F00303012B09B20ED1D2F8083802EB90
:10526800411013F4807FD0F8003B14BF43F0805303
:1052780043F00053C0F8003B02EB4112D2F8003B68
:1052880043F00443C2F8003B30BD0000F8B52A4C97
:10529800666D06EB40130546D3F8087BC3F8087B18
:1052A80038070AD5D6F81438190706D504EB85034C
:1052B8002946DB6820465B689847FA073BD5D6F84D
:1052C8001438DB0737D5AE1C04EB86035968C5B91B
:1052D8008B69488A5F68B7FBF0F200FB127282B9EB
:1052E80018681A6990420CD2121A83E82400202305
:1052F80083F3118810482946FFF78AFF85F3118840
:10530800F8BD012303FA05F2638923EA02036381E6
:10531800CB6813B1294608489847202383F311889E
:1053280004EB86046368986941680C30FEF7D6FB85
:10533800002383F31188F8BD6414002000EB810377
:1053480070B5DD68436D6C69266826614A0156BBF5
:105358001A444FF40020C2F810092A6802F0030228
:10536800012A0AB20ED1D3F8080803EB421410F44C
:10537800807FD4F8000914BF40F0805040F00050FE
:10538800C4F8000903EB4212D2F8000940F00440C7
:10539800C2F80009D3F83408012202FA01F10143E6
:1053A800C3F8341870BD19B9402E84BF402020605E
:1053B80020682E8A841940F00050013C1A44B4FB3E
:1053C800F6F440EAC440C6E72DE9F041044628480F
:1053D800466D06EB44130546D3F80879C3F80879F7
:1053E80017F0010F1BD0D6F81038DA0717D504F1DB
:1053F800020800EB880359684B69D3F800E01A6982
:10540800964519D2A2EB0E0200251A605D60202392
:1054180083F311882146FFF791FF85F311883B0636
:1054280024D5D6F834280123A34013421ED02046A1
:10543800BDE8F041FFF712BD012303FA04F2038926
:1054480023EA020303818B680BB121469847202386
:1054580083F3118805EB880500216B6858690C30C7
:10546800FEF73CFB002383F31188D8E7BDE8F08101
:10547800641400202DE9F74FAA48456D6E69AB69A1
:105488001E4016F4805F6E61044606D0FEF77BFC72
:1054980003B0BDE8F04FFEF763BB002E12DAD5F873
:1054A800003EA0489B071EBFD5F8003E23F003032B
:1054B800C5F8003ED5F8043823F00103C5F80438D0
:1054C800FEF7CDFC370505D59648FFF793FC9548C0
:1054D800FEF797FCB0040CD5D5F8083813F0060F82
:1054E800EB6823F470530CBF43F4105343F4A053F8
:1054F800EB60310704D56368DB680BB189489847CE
:10550800F2025FD4B30210D5636DDFF818B20193CD
:105518004FF000084FF001094FF0200AA26D926881
:105528005FFA88F18A4280F09A80F70619D5616D92
:105538000A6AC2F30A1702F00F0302F4F012B2F576
:10554800802F00F0C480B2F5402F0AD104EB83030A
:1055580001F58051DB68186A00231A469F4240F023
:10556800AA803003D5F8184813D5E10302D50020E6
:10557800FFF78CFEA20302D50120FFF787FE630325
:1055880002D50220FFF782FE270302D50320FFF78A
:105598007DFE75037FF57CAFE00702D50020FFF79D
:1055A80013FFA10702D50120FFF70EFF620702D5FE
:1055B8000220FFF709FF23077FF56AAF0320FFF7F3
:1055C80003FF65E7636D01934FF000084FF0010991
:1055D8004FF0200AA36D9B685FFA88F7BB4291D30E
:1055E800019B03EB4713D3F8002902F44022B2F5DC
:1055F800802F31D1D3F80029002A2DDAD3F80029D9
:1056080042F09042C3F80029D3F80029002AFBDBB6
:105618003946606DFFF718FC228909FA07F307F18C
:10562800020B22EA030304EB8B022381526892687F
:1056380012B139463B4890478AF3118804EB8B0333
:1056480000215B6858690C30FEF748FA002383F3A1
:1056580011883846FFF702FC08F10108BAE7019BF8
:1056680003EB4110D0F8002B02F44022B2F5802F52
:105678001ED1D0F8002B002A1ADA608909FA01F243
:1056880020EA02028F1C628104EB87025268D2680A
:105698000AB1584690478AF3118804EB87077A685D
:1056A800906941680C30FEF719FA002282F31188DC
:1056B80008F1010832E79C0708BF0A68072B98BF62
:1056C800027003F101039CBF120A013046E702335E
:1056D80004EB830201F58051526890690268D0F8A2
:1056E80008C04068A2EB000E0022104697420AD17B
:1056F80004EB830463689B699A683A449A605A6821
:1057080017445F602DE712F0030F08BF086896453D
:1057180088BF8CF8000002F1010284BF000A0CF176
:10572800010CE3E764140020436D03EB4111D1F849
:10573800003B43F40013C1F8003B7047436D03EB93
:105748004111D1F8003943F40013C1F8003970470A
:10575800436D03EB4111D1F8003B23F40013C1F86A
:10576800003B7047436D03EB4111D1F8003923F436
:105778000013C1F800397047114B1A6C42F001024E
:105788001A641A6E42F001021A660E4A1B6E93687A
:1057980043F0010393604FF0804341F267029A623D
:1057A8004FF0FF32DA6200229A615A63DA605A6077
:1057B80001225A6108211A601C20FEF757BD00BF5C
:1057C80000380240002004E04FF0804208B5136919
:1057D800D1680B40D9B2C9439B07116107D5202373
:1057E80083F31188FDF778FF002383F3118808BD40
:1057F80008B5FFF7E9FFBDE80840FEF7B1B90000BA
:1058080010B5044C2046FEF730FA04232374024BEB
:10581800A36110BDC4140020000C0040836970B55A
:105828001D69DA681540EAB2D243AE0704461A6128
:1058380003D543681B6903B19847680704D56368B3
:105848009B690BB120469847290704D563681B6AF2
:105858000BB120469847EA0604D563689B6A0BB1EA
:1058680020469847EB0706D563689B681BB120461E
:10587800BDE87040184770BD08B50348FFF7CEFF74
:10588800BDE80840FEF76CB9C41400204B684360BB
:105898008B688360CB68C3600B6943614B690362A3
:1058A8008B6943620B6803607047000008B51A4BA8
:1058B8001A481A6942F01F021A611A6922F01F0277
:1058C8001A611A691A6B42F01F021A631A6D42F0C4
:1058D8001F021A65124A1B6D1146FFF7D7FF1148C0
:1058E80002F11C01FFF7D2FF0F4802F13801FFF760
:1058F800CDFF0E4802F15401FFF7C8FF0C4802F132
:105908007001FFF7C3FF0B4802F18C01FFF7BEFFE0
:10591800BDE80840FEF728BD0038024000000240FC
:10592800B87800080004024000080240000C024059
:1059380000100240001C02407047000010EE102AC0
:1059480022F00041CB0D7F3B162B1CDC002B10EE08
:10595800100A21DB194919410A421CD0DFED187AD7
:1059680070EE277AF5EEC07AF1EE10FA13DD002A10
:1059780004DD4FF4000242FA03F3184420EA01035D
:1059880000EE103A7047B1F1FF4F04D330EE000A31
:1059980070479FED0C0A7047DFED097A70EE277AA1
:1059A800F5EEC07AF1EE10FAF5DD002AF1DB0029F8
:1059B800F7EE007A18BFB0EE670A7047FFFF7F0066
:1059C800CAF249710000008010B5013902449042C2
:1059D80001D1002010BD10F8013B11F8014FA3427E
:1059E800F5D0181B10BD02440346934200D17047FE
:0659F80003F8011BF9E7B2
:045A0000F8B500BF36
:045A0400F8B500BF32
:105A080000007E7E183C6642000C1C70701C0C0066
:105A1800747414147C68007C7C0070782C247C7C62
:105A2800000000000000000000000000000000006E
:105A380000000000000000000000804040202020FE
:105A480020101010101008080404040830408000CA
:105A5800000000000000000000000000000000003E
:105A6800000000000000000000000000000000002E
:105A7800000000000000000000000000008080809E
:105A880000000000C06030180C84C66223331191F6
:105A980071F1719111332362C6840C183060C00013
:105AA80000000000000000000000000000000000EE
:105AB80000186482020202020201000000008080D5
:105AC8000000000000000000008000303000C0C16D
