:020000040800F2
:1000000000040020910300089303000893030008F4
:100010009303000893030008930300089303000868
:10002000930300089303000893030008C1340008F9
:100030009303000893030008930300089303000848
:100040009303000893030008930300089303000838
:100050009303000893030008930300089303000828
:10006000930300089303000893030008C53D0008AC
:10007000ED3D0008193E0008453E0008713E0008AD
:10008000993E0008C53E000893030008930300084A
:1000900093030008930300089303000893030008E8
:1000A00093030008930300089303000893030008D8
:1000B000A14D000893030008930300089141000834
:1000C0009D4200089303000893030008930300086F
:1000D00093030008930300089303000893030008A8
:1000E0009303000893030008930300089303000898
:1000F000930300089303000893030008F13E0008EF
:100100009303000893030008294E00089303000896
:100110009303000893030008930300089303000867
:100120001D3F0008453F0008713F00089D3F000843
:10013000C93F0008930300089303000893030008D5
:10014000930300089303000893030008154A00086E
:10015000F13F00081D4000084940000893030008D3
:100160009303000893030008930300089303000817
:100170009303000893030008930300089303000807
:1001800093030008930300089303000893030008F7
:1001900093030008930300089303000893030008E7
:1001A00093030008930300089303000893030008D7
:1001B00093030008930300089303000893030008C7
:1001C00093030008930300089303000893030008B7
:1001D00093030008930300089303000893030008A7
:0801E000510200082902000889
:1001E8000348044B834202D0034B03B118477047BE
:1001F800200C0020200C00200000000005480649C3
:100208000B1AD90F01EBA301491002D0034B03B11C
:1002180018477047200C0020200C00200000000028
:1002280010B5064C237843B9FFF7DAFF044B13B136
:100238000448AFF300800123237010BD200C002078
:1002480000000000B054000808B5044B1BB1044975
:100258000448AFF30080BDE80840CFE70000000085
:10026800240C0020B054000872B6394880F308887E
:10027800384880F3098838484EF60851CEF2000114
:10028800086040F20000CCF200004EF63471CEF265
:1002980000010860BFF34F8FBFF36F8F40F200007B
:1002A800C0F2F0004EF68851CEF200010860BFF3AC
:1002B8004F8FBFF36F8F4FF00000E1EE100A4EF63C
:1002C8003C71CEF200010860062080F31488BFF369
:1002D8006F8F02F091FE02F012FE4FF055301F4969
:1002E8001B4A91423CBF41F8040BFAE71C49194AE2
:1002F80091423CBF41F8040BFAE71A491A4A1B4BD2
:100308009A423EBF51F8040B42F8040BF8E700206C
:100318001749184A91423CBF41F8040BFAE702F02A
:100328006FFE02F06AFE144C144DAC4203DA54F826
:10033800041B8847F9E701F0FDFF114C114DAC4251
:1003480003DA54F8041B8847F9E702F057BE0000A7
:1003580000040020000C002000000008000000201D
:1003680000040020B0540008000C0020200C0020DD
:10037800200C002080100020E0010008E4010008A3
:10038800E4010008E80100086EE700F000F8FEE765
:100398002DE9F04F2DED108AC1F80CD0C3689D46A9
:1003A800BDEC108ABDE8F08F002383F3118828463E
:1003B800A047002003F052F8FEE703F00DF800DF35
:1003C800FEE7000010EE102AC2F3C7537F3B162B3E
:1003D80022F000411ADC002B21DB1A4919410A429C
:1003E8001CD0DFED197A70EE277AF5EEC07AF1EEBF
:1003F80010FA13DD002A04DD4FF4000040FA03F37D
:100408001A4422EA010300EE103A7047B1F1FF4F97
:1004180004D330EE000A70479FED0C0A7047DFEDF9
:100428000A7A70EE277AF5EEC07AF1EE10FAF5DD69
:10043800002AF1DB0029F7EE007A18BFB0EE670A50
:10044800704700BFFFFF7F00CAF2497100000080BB
:1004580053B94AB9002908BF00281CBF4FF0FF3123
:100468004FF0FF3000F06EB9ADF1080C6DE904CE25
:1004780000F006F8DDF804E0DDE9022304B0704777
:100488002DE9F047089D04468C46002B40F08380F8
:100498008A42174647D9B2FA82F242B1C2F1200025
:1004A80024FA00F09140974040EA010C94404FEA4A
:1004B8001748230CBCFBF8F61FFA87FE08FB16C189
:1004C80043EA014306FB0EF1994209D9FB1806F1EC
:1004D800FF3080F01981994240F21681023E3B4478
:1004E8005B1AA4B2B3FBF8F008FB103344EA0344E8
:1004F80000FB0EFEA64509D93C1900F1FF3380F038
:100508000581A64540F2028102383C4440EA064093
:10051800A4EB0E0400261DB1D4400023C5E9004316
:100528003146BDE8F08702B9FFDEB2FA82F2002A4E
:1005380050D1CB1B4FEA174E1FFA87F80126B3FBA1
:10054800FEFC210C0EFB1C3341EA034108FB0CF3B3
:100558008B4207D979180CF1FF3002D28B4200F296
:10056800E9808446C91AA3B2B1FBFEF00EFB101154
:1005780043EA014408FB00F8A04507D93C1900F1FB
:10058800FF3302D2A04500F2D9801846A4EB080434
:1005980040EA0C40BFE78B4209D9002D00F0B1803A
:1005A8000026C5E9000130463146BDE8F087B3FAB8
:1005B80083F6002E4AD18B4202D3824200F2B880E1
:1005C800841A61EB030101208C46002DA8D0C5E9EF
:1005D800004CA5E7C2F1200320FA03F6974001FA80
:1005E80002F04FEA174ED9403043030CB1FBFEF638
:1005F8001FFA87F80EFB161143EA014306FB08F1C0
:10060800994204FA02F409D9FB1806F1FF3C80F07C
:100618008D80994240F28A80023E3B445B1A81B247
:10062800B3FBFEF00EFB103341EA034100FB08F375
:100638008B4207D9791800F1FF3C73D28B4271D9EC
:1006480002383944CB1A40EA064678E7C6F1200C4E
:1006580003FA06F422FA0CF31C4320FA0CF701FA09
:1006680006F34FEA144E21FA0CF11F433B0CB1FB81
:10067800FEF91FFA84F80EFB191143EA014109FB40
:1006880008FA8A4502FA06F200FA06F308D9611850
:1006980009F1FF3048D28A4546D9A9F10209214417
:1006A800A1EB0A01BFB2B1FBFEF00EFB101147EA45
:1006B800014700FB08F8B84507D9E71900F1FF31F1
:1006C8002ED2B8452CD90238274440EA0940A7EB76
:1006D8000807A0FB02894F45C64649461AD317D0DA
:1006E8005DB1B3EB0E0267EB010707FA0CFCF240B1
:1006F8004CEA0202F740C5E9002700263146BDE86A
:10070800F0872E4628460BE70646E9E61846FDE63A
:100718004345E5D2B8EB020E69EB04010138DFE787
:100728000846D2E760468DE78146B9E7664675E731
:1007380030464AE7ACF1020C394413E702383C442E
:1007480024E700BF704700BF032A70B412D940EAFB
:100758000105AD0704460B461ED11946204653F83D
:10076800045B54F8046BAE4216D1043A032A2046BF
:100778001946F2D8561EA2B10139441E01E0C31829
:100788000CD014F8015F11F8012F9542A6EB040371
:10079800F5D0A81A70BC7047561EEDE7184670BC15
:1007A80070471046F6E700BFF0B4860746D0541EDF
:1007B800002A3CD0CAB2034601E0013C37D303F813
:1007C800012B9D07F9D1032C2AD9CDB245EA05257D
:1007D8000F2C45EA054534D9A4F1100222F00F0C7C
:1007E80003F120071609674403F1100242E9045592
:1007F80042E902551032BA42F8D1721C14F00C0FBB
:1008080003EB021204F00F0613D0331F23F0030387
:100818000433134442F8045B9342FBD106F003040B
:100828002CB1CAB21C4403F8012B9C42FBD1F0BC8A
:10083800704734461346002CF3D1F8E714460346B4
:10084800C1E71A462646E0E7024820224FF4007125
:1008580003F02FBC0004024003230222012100F010
:100868005CB808B545F66353984206D1887818B144
:10087800002000F046F8002008BD0120FCE7012018
:10088800704708B5FFF7EDFF08BD704708B5FFF7DB
:10089800FCFF08BD13B502AB03E903000F4B1B783F
:1008A800B3B99DF80230009873B16AB100F098FCB2
:1008B80004460146009800F04FFC0099204602B01B
:1008C800BDE8104001F00EBA00F06AFC0446F4E7F7
:1008D800009800F085FC0099F1E700BF3C0C00206F
:1008E80003460A4600689988FFF7D4BF012070477D
:1008F80010B500210446FFF7F3FF2146FFF7C6FFB6
:1009080010BD10B5012303FA00F4E0B201F0BBF802
:100918002046BDE8104000F0B2BB10B5012404FA2F
:1009280002F204FA01F1114304FA03F331EA000276
:100938000CBF1843984310BD08B501F0BBFB00F08D
:1009480070F8BDE8084001F0D6BB08B501F08AFD93
:10095800BDE8084001F0D4BB704708B500F03AFB89
:10096800FFF7FAFF40F6C41002F07DFDBDE808402D
:1009780002F04AB838B501210546FFF7B1FFAB7858
:1009880004460BB101F036FD29462046FFF779FFF2
:1009980008B9002038BD2946204601F0E7FD0028A7
:1009A800F7D02946204601F03BFE0028F1D0294621
:1009B800204601F023FF0028EBD0AB785BB145F669
:1009C8005B539C421CD00AD8B4F5B84F12D045F6F8
:1009D800DF439C4211D02846FFF751FFDAE745F67E
:1009E8005C539C420FD045F65D539C42F3D100F016
:1009F80043FFF0E7FFF7B1FFCBE701F0B9F8C8E72D
:100A080000F046FFE7E700F046FFE4E7704708B567
:100A1800FFF7FCFF08BD0120704708B5FFF7FBFF93
:100A280008BD704710B50446FFF7F1FF2046FFF7F1
:100A3800F4FF10BD10B586B06C4684E803009DF83D
:100A480002300BB100F056FF0023ADF8163094E8E1
:100A58000300ADF8141089B20490ADF80C0004AC92
:100A680041B182B24FF6FF739A4203D02046FFF796
:100A78003DFF18B194E8030000F050FE06B010BD29
:100A8800008800F0CDBB000010B50446002838D01F
:100A9800031FDBB2A02B11D81A4B0146186801F0CE
:100AA80017FF20B1204600F0AFFE00F069FF204696
:100AB80000F0A2FEBDE8104000F062BF00F1200384
:100AC800DBB2072B07D800F007040120A040C0B212
:100AD80000F0EAFEEEE700F15B03DBB2022B05D87B
:100AE8002438BDE8104080B201F0C4BE5834E4B2E6
:100AF800162C06D8044B33F81400BDE8104001F05A
:100B0800C9BE10BD000C00207450000808B503468B
:100B180048B3021FD2B2A02A05D800F075FEBDE87E
:100B2800084000F02DBF00F12002D2B2072A07D8F2
:100B380000F0070301209840C0B200F0BDFEEEE7C8
:100B480000F15B02D2B2022A04D8BDE808400020B6
:100B580001F090BE5833DBB2162B04D8BDE808402C
:100B6800002001F097BE08BD38B505460C46FFF7D2
:100B78008BFF24B92846BDE83840FFF7C7BF0A20D5
:100B8800013C02F070FCA4B2F3E739280CBF5021F5
:100B98000021FFF7E9BF08B528B100F085FEBDE8E0
:100BA800084000F0EDBE08BD08B528B100F084FE8D
:100BB800BDE8084000F0E4BE08BD2DE9F34786799A
:100BC800857880460C4600F03DFE36090746A0B100
:100BD8002F4695B1C4F3072303F0F003402B04D04C
:100BE80004F12003DBB2072B1ED9022000F018FF06
:100BF80000F028FE80F00100C7B2C4F30339B9F150
:100C08000F0F3FD8DFE819F01200120063006300ED
:100C1800AF003E003E003E00C60022013201320114
:100C280087013E003E0090010027E6E7C4F3072352
:100C3800C4F3032613F0F00F18BF3601E4B295B1E0
:100C480056B104F12003DBB2072B304600D93CB97A
:100C580000F02AFE00F094FE2046FFF715FF11E091
:100C680000F038FEF6E72046FFF750FF56B104F1D2
:100C78002003DBB2072B304600D92CBB00F01CFE4A
:100C880000F07EFEA9F10809B9F1030F03D801F0BD
:100C9800E1FDFFF7C7FE002F00F04D8100F0CAFD0F
:100CA80010F0010040F0478188F8020000F0BAFD1A
:100CB80000F018FA404600F054F900F0B3FD02B015
:100CC800BDE8F04700F018BA00F00CFED8E7C4F30E
:100CD800072303F0F003C4F3032A202BE4B218BF60
:100CE8004FEA0A1A64B1012C28D07DB34EB398F8A4
:100CF8000630D907B0D56FF3071388F8063020E01F
:100D080095B13EB900F012FE40EA0A00C0B2FFF702
:100D180042FFB7E7012EF5D100F008FE40EA0A00CD
:100D2800C0B200F00FFEADE72EB900F01DFE504630
:100D3800FFF73AFFA6E7012EA4D0F6E71DB1052E6E
:100D4800A0D85046E3E7042E9CD8F0E7002EEED05A
:100D5800392C0CBF4FF44870012002F084FB204668
:100D6800FFF7D4FE8EE714F4406FC4F3812307D055
:100D7800012B87D165B1C4F3090001F08BFD81E730
:100D880025B1C4F3090001F075FD7BE72846FAE7B1
:100D98002846F2E714F4407F27D1002D7FF472AF84
:100DA800C4F34210E2064FEA800048BF0F25C0B2E4
:100DB80048BF854004F00F03C4F3812448BFED43C6
:100DC8008340022C45EA030009D0032C0AD0012CE9
:100DD80002D000F05FF955E700F054F952E700F04F
:100DE80061F94FE700F04BF94CE7C4F3012215B362
:100DF80002F00103002B3FF445AFC4F3421080001A
:100E0800C2B204F00F0000FA02F114F010001CBF87
:100E18000F2303FA02F0C4F3812414BFC34303462B
:100E2800022C43EA01000BD0032C0CD0012C04D077
:100E380000F080F926E75308DCE700F073F921E7B2
:100E480000F080F91EE700F039F91BE7E6B2C4F3B9
:100E5800032425B1204600F045F9304657E73046CF
:100E6800FFF7A2FE204600F047F90BE75FFA84FA85
:100E7800AAF1F003042B39D8DFE803F0030E151AA2
:100E880023003DB1042E3FF6FDAEC4F3042000F06C
:100E98003FF9F7E6052EF6E7C4F30420002DE2D06B
:100EA80000F020F9EEE6C4F30420002DF8D0DAE7CC
:100EB80025B1C4F3042000F010F9E3E600F00AF9C4
:100EC800E0E64DB1C4F30420019000F00BF901985D
:100ED800032100F081FDD5E6012000F0A1FD012EDF
:100EE8007FF6D0AE022000F09BFDCBE62DB10EB10F
:100EF8005046B2E6C4F30420D2E74EB1BAF1390F36
:100F08000CBF4FF44870012002F0ADFA504627E7B5
:100F1800C4F30420A7E7C4F30322E1B2404600F07B
:100F2800DDFE00F0ADF9ADE6C4F30322E1B24046C0
:100F380000F0D6FEA6E602B0BDE8F08713B501883A
:100F48000446807800F078F90146019100F002F932
:100F580000F094F80199204602B0BDE81040FFF770
:100F68002CBE13B583880288ADF804200446CBB1A3
:100F7800BDF804204FF6FF739A4213D0FFF7FAFC2E
:100F880050B900F05FFC68B1A3785BB1022002B0F1
:100F9800BDE8104000F044BD2046FFF7CFFF2046D3
:100FA800FFF7A6FC02B010BD08B5002001F062FCF6
:100FB800002001F06FFC00F09DFC00F0B1FCBDE8E2
:100FC800084000F0DDBC08B500F026FCBDE808408C
:100FD800FFF7EABF08B500F077FCBDE80840FFF767
:100FE800F2BFC0F30332023AC3B20D2A1CD8DFE8BD
:100FF80002F007071B1B141B1B1B0707181B1B18DA
:10100800F02B13D004D8E72B8CBF002001207047A9
:10101800F42B14BF002001207047E72B06D9F12BD1
:10102800F7E7C0F3C02070470020704701207047E1
:1010380008B5008800F0F4F8BDE80840FFF7D1BF14
:1010480082B002AB03E9030002B0704782B002AB82
:1010580003E9030002B07047704708B5FFF7FCFFCB
:1010680008BD000008B5FFF7F8FF034B1860BDE89E
:101078000840FFF799BF00BF400C00207047FFF7FA
:10108800F1BF0000024B1B681843FFF7EBBF00BF1E
:10109800400C0020024B1B681840FFF7E3BF00BF5D
:1010A800400C0020024B1B685840FFF7DBBF00BF15
:1010B800400C002008B5FFF7CFFB08BD08B5FFF7C7
:1010C800F9FF034B1860BDE80840FFF76DBF00BF8C
:1010D800440C00200020FFF7F1BF012303FA00F0C1
:1010E800FFF7ECBF012303FA00F0024B1B6818431B
:1010F800FFF7E4BF440C0020012303FA00F0034B80
:101108001B6823EA0000FFF7D9BF00BF440C00208A
:10111800012303FA00F0024B1B685840FFF7CEBFCB
:10112800440C0020024B1B681843FFF7C7BF00BFE1
:10113800440C0020024B1B681840FFF7BFBF00BFDC
:10114800440C0020024B1B685840FFF7B7BF00BF94
:10115800440C002070470000C0F3072303EB43034F
:1011680037B500EB830000F0070301229A40C0F373
:10117800C4000A4B00EB8000D2B218440024057862
:1011880021FA04F343F300036B40134001346B402E
:10119800052C00F8013BF2D103B030BD480C00200B
:1011A800C0F3072303EB430313B500EB83000B499C
:1011B80000F00704C0F3C40000EB800000220144E3
:1011C800104611F8013BE34003F00103934001325C
:1011D8001843052AC0B2F4D102B010BD480C002053
:1011E8000D4B73B51E680D4BADF804001B681F242A
:1011F8001E4326FA04F3DB07E5B205D4013CF8D216
:101208000025284602B070BD0199284600F04CFE22
:1012180080B20128F2D0F4E7440C0020400C0020F2
:1012280007B5ADF804000198FFF7DAFF019903B09C
:101238005DF804EB00F038BE13B5104BADF80410A0
:101248001B782BB1019802B0BDE81040FFF7E8BF4A
:1012580070B10198FFF7C4FF044601460198FFF7F3
:101268007BFF0199204602B0BDE8104000F01CBE8B
:101278000198FFF795FF0446F3E700BF3C0C0020F8
:10128800F8B5034660B1002501261C4614F8010B89
:1012980074283FD00BD802282DD002D8012812D0AC
:1012A800F8BD031F6F2BFBD8FFF7EEFB1AE075287C
:1012B8003AD000F17C03DBB26F2BF1D800F07F004D
:1012C800FFF724FC0EE09C1C5B7803F12002D2B2ED
:1012D800072A0ED803F007039840C0B200F010FBAD
:1012E80000F04EFB2F46013FFFB2FF2F1FD12346D0
:1012F800CBE71846D8E758789C1C00F12003DBB2EE
:10130800072BDDD800F0070006FA00F0C0B200F0A5
:10131800FFFAE5E75F789C1C013FFFB2FF2FE1D0A1
:101328000A2002F0A0F8F7E75D789C1CDAE70A20AB
:1013380002F099F8D7E7000070B5094B094E1C7800
:10134800094D3378A34200D170BD05EBC40355F8AD
:10135800340059680134FFF779FE04F00704F0E718
:10136800AF0C0020AE0C00206E0C0020024B186859
:101378005968FFF76BBE00BF660C0020224BF7B51B
:101388009A7912F0F00F0AD19A7842B11F4A204E8A
:101398001278204D4FF6FF773178914201D103B092
:1013A800F0BD98881988ADF8041040B389B2B942E5
:1013B80025D005EBC20493F801C061788C451ED195
:1013C80093F800C015F832108C4518D1A178B1B93E
:1013D800A188091A89B2B1F5967F10D299790A487D
:1013E800012262F307119971A37962F30713A371BC
:1013F800FFF7B7FD03B0BDE8F040FFF79DBF01322E
:1014080002F00702C8E700BF660C0020AF0C0020FE
:10141800AE0C00206E0C00202DE9FF47BB4F0446A0
:10142800BB880068009038882178627894F8028038
:10143800B4F804A0ADF80800EC463D46002B00F0D7
:10144800C38080B24FF6FF7E704500F0BD80BE7845
:10145800002E00F0B980AAEB0303B8799BB2B3F56C
:10146800967F00F0F00980F086803B88ADF8083060
:10147800B9F1000F47D17345C14617D0B4F800C081
:101488009C4513D1B8F1000F40F00681012363F3A6
:101498000710B871FFF76AFF3846FFF762FDBB799E
:1014A800A3710026304604B0BDE8F087BAF1000FFA
:1014B80040F0F680B8F1000FF3D0AB7943F00103A8
:1014C800AB71EEE700EBC30595F801C0944506D172
:1014D80010F833C08C4502D1AD78002DE1D101332D
:1014E80003F00703F0E010F4706F02D0002B00F057
:1014F8000A812033DBB2072B40F205812046FFF733
:1015080030FDB146FFE0734510D022889A420DD1D4
:10151800B8F1000F0AD1A0712046FFF722FD236819
:101528003B6063687B60FFF721FFBBE72046FFF75E
:101538007FFDE0B1B8F1000F19D0AB791F2B0CD9A2
:101548002A88ADF8082002A800228DF80A20ADF8F4
:101558000CA08DF80E30FFF704FD23682B6063683C
:101568006B60FFF70BFFFFF701FF01269AE72046A4
:10157800FFF7F7FCF9E7B9F1000F15D18DF8012055
:101588008DF80280ADF804A08DF800109CE80300E7
:10159800FFF756FD3846FFF7E4FCC7F80090C7F898
:1015A8000490FFF7E3FEAEE022883B889A42BDD163
:1015B800B8F1000FBAD1A0712046FFF7D2FCC7F8E6
:1015C8000080C7F804806DE72888ADF80800002B74
:1015D8004DD086B24FF6FF70864248D0AE78002EC6
:1015E80045D1AAEB03039BB2B3F5967F30D24646AA
:1015F800002EBCD022882B889A421CD1AB79DA07FE
:1016080014D413F0F00211D0F02AA37106D0DBB283
:10161800C3F30312013262F30713A3712046FFF7E5
:10162800A0FC23682B6063686B607CE723682B60F1
:1016380063686B6036E72046FFF7FAFC00288CD118
:10164800AB79204643F00103AB71FFF78AFC29E729
:101658008DF80280ADF804A08DF800108DF80120F7
:101668009CE80300FFF7ECFC2E606E605BE7B8F1C6
:10167800000F3FF47CAF2046FFF7DAFC064600284F
:101688003FF475AF23682B60636820486B60FFF7F1
:10169800F7F9FFF773FE46E7BAF1000F3FF40DAF15
:1016A8008DF808108DF80920BDF808004FF6FF7373
:1016B80098423FF4FFAEB8F1000F7FF4FEAE144835
:1016C800144B07781B781448BB427FF4FBAE8DF8A7
:1016D80001208DF800100098FFF7A2FDC0F3033237
:1016E800012AC3B27FF6FFAE0E3202F00F02012AC2
:1016F8003FF604AF10F4706F3FF4FBAEA27912F01E
:10170800F00F7FF4F6AE4E46CCE600BF660C002024
:10171800AE0C0020AF0C00206E0C0020F0B587B096
:101728006D4685E803002846FFF776FE2E4F2F4EBC
:10173800044688B1BDF80430BDF80020ADF810208B
:1017480043B192B24FF6FF739A4203D095E8030073
:10175800FFF77CFC264C41E095E8030004AB83E8E6
:101768000300BDF80410BDF81020ADF80C200029C6
:10177800F0D01FFA82FC4FF6FF7294453D7830781E
:10178800E8D06A1C02F0070282420DD0184CADF86E
:10179800141003CB04EBC50C44F835003A70CCF8B0
:1017A8000410FFF7C9FDD5E7FFF714FC114B3C7097
:1017B80034701C605C60CDE704EBC000FFF72CFEC2
:1017C80080B1337804EBC30254F833005168FFF753
:1017D8003DFC3378013303F00703337030783B78EE
:1017E8008342E9D107B0F0BDAE0C0020AF0C002059
:1017F8006E0C0020660C0020024B0146186801F0B0
:101808009AB800BF000C0020024B0146186801F08E
:1018180094B800BF000C0020014B186801F08FB885
:10182800000C0020024B93F90000C0F3C70070477A
:10183800B90C0020024B187800F00700704700BF71
:10184800B90C0020034B187810F0070018BF0120CE
:10185800704700BFB90C0020064A5378C3F38001D3
:10186800814205D060F382035370108800F01BB9E1
:10187800704700BF100E0020044B5878C0F380005A
:1018880080F0010000F00100FFF7E6BF100E002015
:101898000120FFF7E1BF0020FFF7DEBF014B1878FA
:1018A800704700BFBB0C0020024B1A781043187019
:1018B800704700BFBB0C0020024A137823EA0000DF
:1018C80010707047BB0C0020014B00221A70704743
:1018D800BB0C0020024B1A7810431870704700BFE9
:1018E800BC0C0020024A137823EA000010707047ED
:1018F800BC0C0020014B00221A707047BC0C002061
:10190800024B1A7810431870704700BFB80C0020BB
:10191800024A137823EA000010707047B80C0020C0
:10192800014B00221A707047B80C0020014B187840
:10193800704700BFBA0C0020704708B5FFF7FCFFDE
:1019480008BD0000064A5278520708B506D4054A71
:101958001178814202D01070FFF7EFFF08BD00BF79
:10196800100E0020BA0C002008B5044B1A781AB1E2
:1019780000201870FFF7E1FF08BD00BFBA0C002077
:1019880010B50D4B0D491B7809780D4C0B430D49CB
:10199800206809780B430C490370097831B10B436F
:1019A800037000F087FF08B1FFF7DEFF2068BDE88D
:1019B800104000F057BF00BFBB0C0020BC0C00203B
:1019C800000C0020B80C0020BA0C0020704708B5A5
:1019D800FFF7FCFF08BD00000A4A5278520710B50D
:1019E8000CD4094C41EAC0012170FFF77BFB94F944
:1019F8000000C0F3C700FFF7EAFF10BDBDE81040C4
:101A0800FFF770BB100E0020B90C002008B5034B7F
:101A180000201870FFF7DBFF08BD00BFB90C0020DD
:101A280008B50C4A92F9003023EA000040B2107061
:101A3800420702D1DBB2834203D1074B5B785B07D5
:101A480007D5C0F3C700FFF757FBBDE80840FFF70D
:101A5800DDBF08BDB90C0020100E00204FF6FF7145
:101A6800002000F09DBC08B5002000F075FC4FF682
:101A7800E963C31A5842584108BD022000F066BC09
:101A8800032000F063BC0146032000F083BC10B5BE
:101A9800042000F05BFC0446222000F057FC44EAD6
:101AA800002080B210BD10B5C1B20446042000F079
:101AB80071FC210A2220BDE8104000F06BBC0146F1
:101AC8000F2000F06FBC0146132000F06BBC002013
:101AD800FFF7F9BF08B50020FFF7F1FFFFF7F7FFA1
:101AE80008BD000010B54FF6E961002000F058FC71
:101AF8000021022000F04EFC00210320002400F009
:101B080049FC1A4B214604201C6000F043FC214686
:101B1800222000F03FFC2146052000F03BFC214636
:101B2800062000F037FCFF21072000F033FC214697
:101B3800082000F037FC21460D2000F02BFC214640
:101B4800182000F02FFC2146172000F023FC214626
:101B58001C2000F027FC2146202000F021FC214613
:101B6800182000F01FFCFFF7B5FF10BD400C002047
:101B7800FFF7B8BF01460E2000F00CBC08B500F016
:101B880013FF024B1860024B186008BDC00C002000
:101B9800C40C00207047704708B5FFF7FCFF08BD6C
:101BA800704708B5FFF7FCFF08BD000008B50448FA
:101BB80000F060FAFFF7EEFFFFF7EEFF08BD00BF89
:101BC800752000080120704708B5FFF7FBFF08BD26
:101BD8007047704708B5FFF7FBFFFFF7FAFF08BD2E
:101BE80008B500F0DFFE00F039FBFFF7DAFF08BDAB
:101BF8002DE9F74F00F04CFB08B1FFF7BFFFDFF806
:101C0800D4A0DFF8D48000255646EFB2384600F05D
:101C18007BFA3AF8024B844281463FD098F800306C
:101C28009B0701D500F076FA84EA0904A3B20022E2
:101C3800012423425FFA82FB2BD0FFF7C5FFA8B12E
:101C480019EA040F14BF012300238DF802308DF820
:101C580000B08DF8017000F0C5FE40F00100ADF84D
:101C6800040002AB13E90300FEF7E4FE36F8153072
:101C78005C4026F81540164C00F0ECFD23788342B2
:101C880022D000F0E7FD207003B0BDE8F04FFEF76A
:101C9800C9BE013264000C2AA4B2CAD10135042D90
:101CA800B3D14FF6FF73ADF8003000238DF8023042
:101CB80000F098FE40F00100ADF8040002AB13E913
:101CC8000300FEF7B7FED6E703B0BDE8F08F00BF0C
:101CD800C80C0020CA0C0020D20C0020002070473D
:101CE8007047000030225043C1F307230C2202FB47
:101CF800030353FA81F1034B33F8110082B002B0A9
:101D0800704700BFF44E0008014B33F810007047CD
:101D1800D050000810B500F0D3F8B0F5A04F044635
:101D28002ED2B0F5804F80F08780DF2812D8BF28E8
:101D380076D8A7280AD8A42866D8012804D0031F73
:101D48009BB2A12B28BF0024204610BDBF285FD11D
:101D58000024F9E7B0F5405F0CD2B0F5005F65D21A
:101D6800E728F1D9A0F580739BB2B3F5F85FEFD2FD
:101D780084B2E9E70205C3B25BD443F44044E3E725
:101D8800B0F5AA4F1DD2B0F5A84FC3B272D2B0F5C4
:101D9800A64F0AD2B0F5A44F63D2B0F5A24F50D3E4
:101DA8004AF2F10040EA0324CEE79C08012003F040
:101DB800030300FA03F343EA441040F40A4084B2F0
:101DC800C2E7B0F5B44F0FD2B0F5B24F5ED2B0F55E
:101DD800AC4F52D3A0F5B0439BB2FF2BB8D84AF210
:101DE800F00040EA0420EAE7A0F5C0439BB2B3F54F
:101DF800005FADD2C0F3042000F0E2F8000200F466
:101E0800F850E4B220433EE0243840F48040D6E75E
:101E18005834E4B2234B33F8140040F4884493E771
:101E2800C03880B2FFF770FF04468DE7C0F30B009F
:101E3800F8E743F4484487E7C0F30B0040F4204434
:101E480082E7C0F30114C3F38100400140EA042093
:101E580003F00303012404FA03F3184340F40C408D
:101E6800ADE79C08012003F0030300FA03F343EAFB
:101E78004410F3E74AF2F40094E7C0B200F0A0F887
:101E8800000200F4F85040F400545DE700F00F0041
:101E980000F096F8C4F3031440EA042040F410401C
:101EA8008DE700BFA250000807B5ADF804100199EE
:101EB800FFF718FF03B05DF804EBFFF72BBF000036
:101EC800E7284DD8DF2807D8312861D00ED829282F
:101ED80057D02A2863D07047A0F1E003072B3FD8DA
:101EE800DFE803F0123E2126303E3A3F392804D07D
:101EF800822802D035283DD07047304B1B7813F02C
:101F0800030F18BFE02070472C4A1378D9074DD427
:101F1800527812F0010F23D013F0100F08BFE320FE
:101F280018BF00207047254B1B7813F0040FF2E709
:101F3800224A137859073BD45278D2073AD413F07F
:101F4800100FEDE71D4B5A78910709D51B7813F050
:101F5800100F08BFE720E3E7184B1B781A07F6D4E1
:101F68007047164A1378190726D452789207E6D58F
:101F7800E420F5E7114B1B7813F0200F18BF292038
:101F880070470E4B1B7813F0200F18BF3520704791
:101F98000A4B1B7813F0400F18BF2A207047074BD5
:101FA8001B7813F0400F18BF312070473920704755
:101FB800E2207047E0207047E6207047100E0020AE
:101FC800294B1A78510707D500F01801082927D19D
:101FD80000F0F70040F00400110707D500F01801E1
:101FE800182926D100F0E70040F014005B78D907E3
:101FF80007D500F01801082924D100F0F70040F0B7
:102008000100990707D500F01803182B23D100F019
:10201800E70040F01100D30648BF00F0E700704722
:1020280000F01401042904BF00F0FB0040F0080090
:10203800D2E700F01401142904BF00F0EB0040F0CF
:102048001800D3E700F01101012904BF00F0FE00D9
:1020580040F00800D5E700F01103112B04BF00F091
:10206800EE0040F01800D6E7100E00200020704760
:1020780000207047014B1860704700BF040C002017
:10208800FFF7ECBC08B500F003F9642001F0EBF9A8
:1020980000F0FEF8002000F037F8C30705D5FFF779
:1020A800EFFFBDE8084000F0AFBC08BD08B5FFF77A
:1020B800E9FF08BD08B5FFF7D6FC08B9FFF758FDDA
:1020C800FFF7DBFC084B1870FFF7E1FC074B1880A3
:1020D800FFF7ECFFFFF7D4FCFEF7D1FF044B1868BD
:1020E800BDE80840FEF7E6BFD20C0020100E002025
:1020F800440C0020704708B5FFF7FCFF08BD704787
:1021080008B5FFF7FCFF08BD014B33F81000704716
:102118001A0E00207047012001F0A5B900BF00BFCA
:1021280000BF00BF00BF00BF00BF00BF00BF00BFAF
:1021380000BF00BF00BF00BF00BF00BF00BF00BF9F
:1021480000BF00BF00BF704708B5FFF7E4FF08BD38
:1021580008B5202282F31188012100F00F0399406D
:1021680020F00F0001F0A5FF002383F3118808BDBC
:1021780038B50C480C4DFFF7EBFF0C48FFF7E8FFAC
:102188000B48FFF7E5FF0B48FFF7E2FF0C2455F873
:10219800040B431C01D0FFF7DBFF013C14F0FF04E4
:1021A800F5D138BD05000240D050000804000240B7
:1021B80003000240020002402DE9F843254F57F87A
:1021C80021305C1C06460D4640D0202282F311883F
:1021D8004FF0010823F00F0903F00F0308FA03F486
:1021E800214642464846A4B201F063FFA9F81A40C6
:1021F800002484F31188FFF791FF174A2346A1466C
:1022080052F8041B481C23D021F00F0001F00F01E5
:10221800006920FA01F1C9071AD408FA03F10CB2CF
:10222800013344EA09040C2B1FFA84F9E8D157F862
:102238002500431C01D0FFF78BFFB9F1000118BF3F
:1022480001212846FFF780FF26F81590BDE8F8839E
:102258000024E5E700510008D050000808B5FFF752
:1022680087FF0949094A002304200B8013804B800B
:1022780053808B809380CB80D38000F033F8BDE807
:102288000840FEF759BB00BF120E00201A0E0020AE
:1022980037B50024CDE90044E1B268460134FFF7C0
:1022A8008BFF042CF8D10D4C694608222046FEF716
:1022B8004BFA00281DBF6A4603CA012500251CBF2A
:1022C80020606160054806492B46042200F00CF89E
:1022D800FEF73BFB284603B030BD00BF120E0020BE
:1022E8001A0E002070470000F8B5104C06460F463D
:1022F80015462BB10123237000F056FB0C4B1860D8
:1023080023782BB10A4B186800F078FB04280AD808
:10231800F8BD36F8132027F8132001339D42F8DC66
:1023280000232370F4E70023F8E700BFD30C002054
:10233800D40C002008B500F007FB00F0EEFD00F01B
:10234800EFFD00F003FEFFF745FCFAE7014B185CD0
:10235800704700BFD80C0020034BC218185C527895
:1023680040EA0220704700BFD80C0020024B1954E5
:102378001844090A41707047D80C0020044B1954BE
:1023880018440B0A43700B0C090E8370C170704718
:10239800D80C0020014B1954704700BFD80C0020FE
:1023A800FFF7E4BFFFF7EABFA0F5C043B3F5005F4E
:1023B80009D3A0F58043B3F5805F04D3A0F58073FB
:1023C800B3F5F85F0BD2C0B2031F9BB2232B0BD916
:1023D8002B3880B20D288CBF002001207047B0F543
:1023E800807F28BF0020EFE70120704708B5FFF77E
:1023F800DBFF08BD70B5FFF7F9FF58B3164D288805
:1024080028B3164E00F0F3FA3478DFED157A4EF65D
:102418006023B3FBF0F00523B0FBF3F0FF2894BF73
:10242800C4EB0003C4F1FF0300EE103AB8EEC00A93
:1024380020EE270AFDF7C6FF07EE904AF8EEE77A86
:1024480037EE800AFCEEC07A17EE903A337000F04F
:10245800C9FA288070BD00BFFE0C0020FC0C0020CB
:10246800A779473D10B50F4C208800F0C0FAB0F5A9
:102478007A7F16D90C4ADFED0D6A1378594207EEB8
:10248800101A07EE903AB8EEC77AF8EEE77AE7EE58
:10249800267AFCEEE77A17EE903A137000F0A2FA6B
:1024A800208010BDFE0C0020FC0C0020A779473DC1
:1024B800F8B5144682789DF818701D46294B92B1DC
:1024C8001C7000F08FFA284B188004F12003DBB24F
:1024D800072B45D804F007040120A040C0B2BDE88E
:1024E800F840FEF758BB1E78A6422FD11E4B18881D
:1024F80000F07DFAB0F5967F28D2AE4205F12004AF
:1025080015D006F12003DBB2072B06D806F0070624
:102518000120B040C0B2FEF747FBE3B2072B06D854
:1025280005F0070301209840C0B2FEF734FB384697
:10253800E4B2FEF72AFB072C12D805F007050120A4
:10254800A840BDE8F840C0B2FEF72EBB04F1200356
:10255800DBB2072B04D804F007040120A040F0E701
:10256800F8BD00BF000D0020020D002013B545F690
:10257800F74304469C4208460FD845F6F3439C426D
:1025880012D845F6D9439C421DD045F6DA439C4201
:102598003ED045F6D8439C420FD0807800283BD0E7
:1025A8001E4B00221A701CE0A4F5B944753C022C9D
:1025B8000ED8DFE804F0181F260026230093E12335
:1025C8001A4621460AE027230093E523E522F8E787
:1025D80026230093E022E12345F6F441FFF768FF44
:1025E800002002B010BD27230093E422E52345F61E
:1025F800F541F3E726230093E222E12345F6F6416D
:10260800ECE727230093E622E52345F6F741E5E7C3
:10261800282300930123D9E70120E2E7000D0020D9
:1026280038B505468878002800F0E38045F603535E
:102638009D421BD845F6FA439D4204D8A5F5B843F8
:10264800023B132B16D8FFF722FA6B4C45F61543BD
:102658009D42208020D845F601439D420BD8208812
:10266800FFF721FAFEF7B6FC002003E045F66253B7
:102678009D42E8D038BDA5F5B845033D122D2AD8AE
:10268800DFE805F02E323643474B4F556165696DDB
:10269800797D81858BA7930045F603539D420ED81B
:1026A80045F6FA439D42DAD9A5F5B9457C3D072D93
:1026B80022D8DFE805F026585C427685989C45F6D6
:1026C80062539D42CBD12378C3F3001282F00102FA
:1026D80062F3041302E0237843F001032370BEE79A
:1026E800237843F00203F9E7237843F00403F5E77E
:1026F800237843F00803F1E7637843F0010363703C
:10270800ADE7637843F00203F9E7237843F0100359
:10271800E4E7237843F02003E0E7237843F040031D
:10272800DCE7FEF757FC237843F08003D6E72378ED
:1027380023F00C0343F00C03D0E7637823F0030382
:1027480043F00303DBE723786FF30003C6E723783E
:102758006FF34103C2E723786FF38203BEE7237860
:102768006FF3C303BAE763786FF30003C7E76378CF
:102778006FF34103C3E723786FF30413AEE72378BD
:102788006FF34513AAE723786FF38613A6E7FEF7DE
:1027980021FC23786FF3C713A0E7237823F00C03F9
:1027A8009CE7637823F00303A9E72378C3F3800247
:1027B80082F00102D2B262F3820362F3C3038DE7AF
:1027C8006378DA4302F0010262F3000362F3410323
:1027D80095E7FEF7FFFB2378C3F3C01282F00102EE
:1027E80062F3C7137AE70120FFF7C4F937E700203F
:1027F800FAE701203EE700BF100E002045F6164319
:10280800984210B50C461BD1FFF748F8A2780D4B3B
:1028180072B100F0AA00002815BF0122002235205D
:1028280029201A70FEF7E8FFFFF7AAF8002010BD6C
:102838001B78002B14BF35202920FEF7E5FFF3E7AE
:102848000120F4E7040D0020014B1860704700BF19
:10285800080D0020024B186808B103681847704734
:10286800080D0020024B1B680BB15B6818477047C6
:10287800080D0020054A1188814205D0044B1080BC
:102888001B680BB1DB681847704700BF0E0D0020AE
:10289800080D0020054A1188814205D0044B10809C
:1028A8001B680BB11B691847704700BF0C0D00204F
:1028B800080D0020821C00F1080300209A4200D174
:1028C800704712F8011B0029F8D00130C0B2F5E7B3
:1028D80039B1831C083013F8012B8A4203D0834294
:1028E800F9D1002070470120704730B54FF0FF3212
:1028F800841C002314F8015B8D420ED0B2F1FF3F17
:1029080002D1002D08BF1A460133DDB2062D5BB295
:10291800F0D1531C01D01044817030BD10B5831C18
:102928000022083013F8014B8C4208BF03F8012C31
:102938008342F7D110BDFFF7D8BFFFF7EFBF0023E1
:10294800C0F80230C380704708B500F013FEBDE838
:10295800084000F07DBB704708B5FFF7FCFF08BDD5
:1029680008B5FEF7B1FFFEF7C5FFFEF755FF0020DB
:10297800FFF780FF0020FFF78DFFFFF76BFFFEF7E3
:1029880051F8FFF7E9FF08BD08B5202383F3118844
:1029980000F014FE002383F31188014B186008BD72
:1029A800100D0020FFF7F0BF38B5202383F31188FE
:1029B80000F004FE002383F31188094B196842F2E2
:1029C8000F74411A00254FF47A70E0FB014542F27A
:1029D8001072002320462946FDF73AFD38BD00BF96
:1029E800100D002008B5FFF7DFFF80B208BD10B555
:1029F8000446FFF7D9FF001B80B210BD10B504468E
:102A0800FFF7D2FF001B10BD074B084A1A60BFF33F
:102A18004F8F0749074BCA6802F4E0621343CB6043
:102A2800BFF34F8F00BFFDE7FCFF0020EFBEADDE18
:102A380000ED00E00400FA050A4A08B552F8041C43
:102A4800094B99420DD1002342F8043C83F31488C2
:102A5800064B1B6883F3088862B6054B1B689847CA
:102A6800FEE708BD00000120EFBEADDE0000FF1F3D
:102A78000400FF1F10B5084A084C117824784B1C35
:102A880003F00F039C421DBF054C137060540020D7
:102A980018BF012010BD00BF320E0020330E0020E9
:102AA800220E0020202383F31188002383F311884A
:102AB8007047704738B5094C104622460D4600212C
:102AC80042F8041F40EA0520194600F047FA206042
:102AD8006068002818BF204638BD00BF140D0020CC
:102AE80090F84A10074A0229137807D103F0FB032C
:102AF800012B05D1044B52781A707047024A1370A3
:102B0800704700BF580D0020480D0020042938B533
:102B180005460C461AD0052913D0022918D12023BE
:102B280083F311880B4A012100F07EFD0A4A2146F1
:102B3800284600F079FD002383F31188074B1B78A2
:102B480033B10520BDE83840FFF794BF0846F9E7E0
:102B580038BD00BF1051000834510008510D002045
:102B680013B504460748C2680B461AB1019100F034
:102B780001FB019B044A0348214602B0BDE810400E
:102B880000F0A2BA340D0020952B000870B5202360
:102B9800064683F311880378042B03D0002383F3BC
:102BA800118870BD134C2278002AF7D0124B1B787D
:102BB800002BF3D003899B0704D4104A0823012172
:102BC80000F084FD247842F21073A4FB034540F220
:102BD800E73020184FF000014FF47A724FF00003ED
:102BE80045EB0101FDF734FC31468000FFF7B8FFE3
:102BF800D4E700BF300D0020080C0020490D00204C
:102C0800F8B590F8443003F07F02212A044640F0DA
:102C1800888013F0800F90F8450021D0022819D041
:102C280003280ED001287CD194F848302BB94C4A9F
:102C3800A2630822E2632364F8BD0023C4E90E33CB
:102C4800F9E7B4F84830002B6BD1464AA26301205B
:102C5800E063F0E7444BA3630120E0630023EAE765
:102C68000A283BD00B280DD009285AD194F84830AF
:102C7800012B56D83D4BA3630223E3633C4B2364EB
:102C88000120D9E7B4F8485025BB94F84630354AB6
:102C9800003B18BF01231370334B1A78D2B120229E
:102CA80082F311881E7842F21073A6FB036740F284
:102CB800E73030184FF000014FF47A724FF00003FC
:102CC80047EB0101FDF7C4FB21468000FFF748FFF1
:102CD80085F311880023C4E90E33D0E794F8472020
:102CE800214B1A70002AF5D0202282F311881E7811
:102CF80042F21073A6FB036740F2E73030184FF03A
:102D080000014FF47A724FF0000347EB0101FDF721
:102D18009FFB21468000FFF723FF002383F31188E0
:102D2800D8E7B4F8442040F281639A4201D00020E9
:102D380082E794F84920616894F848304D6894F81F
:102D4800471043EA0223204694F84620A847002863
:102D5800EDD04368A3630368E36300238FE700BFF4
:102D6800490D0020080C0020300D0020580D0020CF
:102D7800E92A00087047000008B51022044800211D
:102D8800FDF712FD034A00231370034A137008BDB0
:102D9800220E0020320E0020330E0020F8B5114D0F
:102DA800114E2C4632782B78104F00219A4207D1C9
:102DB80001B12270F8BD23700D4B01221A70F1E7A2
:102DC800F85C0133042803F00F03F4D005284FF012
:102DD8000101EBD12370064B00221A70FFF7C0FDEA
:102DE800E0E700BF330E0020320E0020220E002044
:102DF800510D0020426D936B23F4002310B59363AB
:102E0800044643F6982000F02EFB0649204600F0C1
:102E1800F9FB626D936B43F400239363024B00222A
:102E2800DA6010BD58510008340D0020014B1878A5
:102E3800704700BF480D002038B50446202383F3AF
:102E48001188104D2B78042B0DD12B899B070ED49C
:102E5800082322460B48012100F038FC0A4A23685F
:102E6800136063685360002383F3118838BD2B69AE
:102E780058694FF0FF310C3000F002FB2B78042B1F
:102E8800E6D0F0E704100020490D0020704700004C
:102E980010B5202383F31188084C2378042B03D022
:102EA800002383F3118810BD054A0323A2F801000B
:102EB80002212046137000F009FCF1E704100020FD
:102EC800520D002010B5202383F31188084C237875
:102ED800042B03D0002383F3118810BD054A022177
:102EE8001370A2F801000323204600F0EFFBF1E77E
:102EF80004100020520D0020FFF79EBD704708B552
:102F0800FFF7FAFF01F0A6FFFFF7F8FF08BD08B5C5
:102F180001F0E6FFFDF798FC08BDFEF747BE00008C
:102F280008B5FFF729FF0748FFF764FF4FF4FA7069
:102F380000F099FAFEF754FEBDE808400248FFF792
:102F480083BC00BF041000200C0C002008B5FFF75C
:102F580025FFBDE80840FEF74BBE000010B5040A87
:102F6800032C0FD007D8012C21D0022C07D1144BE9
:102F78003B20136010BD212C0DD0222C11D0002035
:102F88000346F6E7C0B20228F9D80E4B0E4953F8AB
:102F98002030085CEDE769B10129F0D10B4B09201D
:102FA800E7E751B10129EAD1094B3220E1E7094BA2
:102FB8001220DEE7084B0920DBE7084B4020D8E762
:102FC800775100086851000874510008A2510008A0
:102FD80032520008B251000889510008C451000853
:102FE800024B034A1A60034A5A607047340E0020A5
:102FF800801000200000012070477047FEE70000A5
:103008001149F0B508200026D1E901340A681D46A7
:10301800043AAC4210D8E21CD21ADD1E22F0030298
:10302800AC4238BF00221344CA689A4209D8013812
:1030380001F11001E8D1F0BD52F8047F45F8047B96
:10304800E7E743F8046BF0E764520008FEE7000086
:1030580010B50D4C00F00EF900F028F8FFF7C0FF8E
:103068000A498022204600F0B9F9012344F8180CD7
:10307800037400F031FA002383F3118862B6044820
:10308800BDE8104000F0D2B9A80F0020E4520008B3
:10309800F052000800F0A8B8034B59685A68521A51
:1030A8009042FBD8704700BF001000E0054B03F1C9
:1030B8001402C3E905224FF0FF310022C3E90712C9
:1030C800704700BF800F0020F8B5C0E903230D4604
:1030D800044600F073FA264A022D2946154638BFE1
:1030E800022155F8143FAB421646AC460AD1C2E954
:1030F80005441062C4E90033A1600844BDE8F84003
:1031080000F04BBAD2F820E0A0EB0E0289180D4669
:1031180023D300259F68BA421BD8356A63451544F6
:10312800AEEB000018BFBA1A356218BF9A600D18C6
:1031380073699A68AA4218D35A6823606260146057
:103148005C60A5609A68551B9D604FF0FF33F36182
:10315800F8BD9D60D21B1B68DCE79B689942E7D2EB
:103168000EEB010000F026FAE2E71B68AD1AE0E773
:10317800800F002038B51B4B01685A6990421D46E4
:1031880003F114020CD044682160036800219342C3
:103198005C60C16003D09A6881680A449A6038BD4F
:1031A80059614A605B6900219342C16003D1BDE85F
:1031B800384000F0FAB99A6881680A449A602C6A23
:1031C80000F0FCF96B699B68021B9342E7D91C4429
:1031D800201A0128286A98BF931C1844BDE8384073
:1031E80000F0E8B9800F00202DE9F84F204C0027A7
:1031F800656904F11406B84600F0E0F9226AAB6884
:10320800A0EB020A53451DD84FF02009236AAA688B
:10321800D5F80CB013442362AB68AAEB030A2B68F9
:10322800B3425E606361EF6001D100F0BEF988F3DC
:1032380011882869D84789F311886569AB685345AF
:10324800E4D9D9E76369B34210D0206299680A4487
:10325800121A9A60AB68226A1B1A1344022B2CBFFD
:10326800C0180230BDE8F84F00F0A4B9BDE8F88FE7
:10327800800F0020024B0022C3E900339A60704798
:10328800800F0020002303748268054B1B6899682F
:103298009142FBD25A6803604260106058607047E0
:1032A800800F002008B5202383F31188027C0023B7
:1032B800052A06D8DFE802F00B050503120E42695D
:1032C80013604FF0FF334361FFF7DCFF002383F304
:1032D800118808BD4269936801339360D0E90032D0
:1032E80013605A60EDE70000002303748268054B01
:1032F8001B6899689142FBD85A6803604260106065
:1033080058607047800F0020054B196908741868C9
:1033180002681A605360186101230374FDF738B816
:10332800800F002030B54B1C0B4D87B0044610D0E1
:103338002B690A4A01A8FFF7C7FE2046FFF7E4FFFA
:10334800049B13B101A8FFF715FF2B69586907B053
:1033580030BDFFF7D9FFF8E7800F0020AD32000835
:1033680038B50C4D41612B6981689A6891420446D1
:1033780003D8BDE83840FFF785BF1846FFF7B4FF0C
:1033880001232C61014623742046BDE83840FCF730
:10339800FFBF00BF800F0020044B1A681B699068AC
:1033A8009B68984294BF002001207047800F00203E
:1033B80010B5084C236820691A68226054600122FD
:1033C80023611A74FFF790FF01462069BDE8104099
:1033D800FCF7DEBF800F0020FFF7EABF8260022102
:1033E80002620022C0E90622018270478368C16830
:1033F800A3F18C0243F81C2C026943F84C2C426957
:1034080043F8482C084A43F82C2C022203F8182CBD
:10341800002243E9032143F8201C03F8172C43F842
:10342800102CA3F128007047B103000810B5202321
:1034380083F31188FFF7DAFF00210446FFF790FFB6
:10344800002383F31188204610BD0000024B1B693E
:1034580058610F20FFF758BF800F0020202383F307
:103468001188FFF7F3BF08B50146202383F31188BD
:103478000820FFF757FF002383F3118808BD0000D9
:10348800054B1B6921B1036058610320FFF74ABF50
:103498004FF0FF30704700BF800F002003682BB14A
:1034A8000022026059611846FFF7ECBE70470023FE
:1034B800C0E9000083607047EFF3098305494A6853
:1034C80022F001024A60683383F30988002383F3FA
:1034D8001188704730EF00E0202080F3118862B631
:1034E8000B4B0C4AD96821F4E0610904090C0A4322
:1034F8000949DA60CA6842F08072CA6007490A68F6
:1035080042F001020A601022DA7783F8220070473D
:1035180000ED00E00003FA05F0ED00E0001000E027
:1035280010B5202383F311880E4B5B6813F40063F6
:1035380014D0F1EE103AEFF30984683C4FF0807331
:10354800E361094BDB68236684F30988FFF724FFEE
:1035580010B1064BA36110BD054BFBE783F311883F
:10356800F9E700BF00ED00E030EF00E0C30300081A
:10357800C603000808B500F05BFB00F099FD00F0F9
:1035880021F800F028F800F02FF8FFF7C0FCBDE89C
:10359800084000F000B801F0C3BB4FF080430022A0
:1035A80058631A610222DA6070474FF080430022A4
:1035B800DA6070474FF08043586370474FF080439C
:1035C800586A704700F0D8BE012303700023436097
:1035D8000C30FFF76CBF01F0E7BB01230370002339
:1035E8004360C3600374704700F04EBF012303704B
:1035F8000023C0E90133C36183620362C36243628B
:103608000363704738B50446202383F311880025E7
:10361800C0E90355C0E90555416000F045FF0223A4
:10362800237085F3118838BD70B500EB810305461A
:103638005069DA600E46144618B114220021FDF7CD
:10364800B3F8A06918B114220021FDF7ADF831468E
:103658002846BDE8704000F0F1BFF8B5836803F074
:1036680001130446836000F1100500F11C060027D1
:1036780055F8043B7BB1586920B16FF001010C305B
:10368800FFF70CFF55F8043C986920B16FF0010171
:103698000C30FFF703FFB54245F8047CE8D120461B
:1036A800BDE8F84001F058B8F0B400EB8104478950
:1036B800E4680125A4698D403D43458123600023CA
:1036C800A2606360E360F0BC01F06EB8F0B400EB98
:1036D80081040789E468012564698D403D430581BB
:1036E80023600023A2606360E360F0BC01F0F2B8DD
:1036F8002DE9F0410223002504460370C564856066
:1037080000F10C0600F11C074FF0200856F8043BA6
:10371800ABB188F3118856F8043C586920B16FF0B2
:1037280001010C30FFF7BAFE56F8043C986920B145
:103738006FF001010C30FFF7B1FE85F31188BE422E
:1037480046F8045CE2D184F83450204600F012FFB9
:1037580063681B6823B120460021BDE8F041184783
:10376800BDE8F081F8B5037880F850300523037080
:1037780043681B6804460BB1042198470026A660DD
:1037880004F10C0520271C3455F8043BABB187F332
:10379800118855F8043C586920B16FF001010C30CC
:1037A800FFF77CFE55F8043C986920B16FF00101E1
:1037B8000C30FFF773FE86F31188A542E4D1F8BDFB
:1037C80090F85020436802701B680BB10521184718
:1037D8007047000070B590F83430044613B10023E8
:1037E80080F8343004F14402204600F0D4FF6368C6
:1037F8009B68B3B994F8443013F0600539D00021C0
:10380800204601F06FFA0021204601F061FA636852
:103818001B6813B1062120469847062384F83430E4
:1038280070BD204698470028E4D094F84B2094F8BF
:103838004A3043EA0223E26B9A4288BFE36394F971
:103848004430E56B002B4FF0200380F20881002DF7
:1038580000F0F780092284F8342083F311880021CE
:10386800D4E90E232046FFF731FF002383F31188A4
:10387800D6E794F8452003F07F0343EA022340F299
:103888000232934200F0CA8021D8B3F5807F4DD030
:103898000DD8012B44D0022B00F09880002BAED11C
:1038A80004F14C02A2630222E2632364BDE7B3F58C
:1038B800817F00F0A080B3F5407FA0D194F8463016
:1038C800012B9CD1B4F84C3043F0020337E0B3F538
:1038D800006F52D01CD8B3F5A06F36D0A3F5C063E3
:1038E800012B8CD894F84920616894F848304E68C8
:1038F80094F8471043EA0223204694F84620B0473C
:1039080000283FF47CAF4368A3630368E3631AE0CD
:10391800B3F5106F36D040F6024293427FF46FAF92
:103928005B4BA3630223E3630023BEE794F84630AE
:10393800012B7FF464AFB4F84C3023F00203C4E9E0
:103948000E55A4F84C3025646FE7B4F84430B3F54D
:10395800A06F0ED194F8463084F84E30204600F01F
:1039680061FE63681B6813B1012120469847032351
:1039780023700023C4E90E3397E704F14F03A363D0
:103988000123C3E72378042B10D1202383F3118864
:103998002046FFF762FE85F311880321636884F8E7
:1039A8004F5021701B680BB12046984794F8463059
:1039B800002BDED084F84F300423237063681B6823
:1039C800002BD6D0022120469847D2E794F84830F9
:1039D8001D0603F00F0120460AD500F0CFFE01288E
:1039E80004D002287FF40BAF2A4B9AE72A4B98E7BA
:1039F80000F0B7FEF3E794F84630002B7FF4FFAEF3
:103A080094F8483013F00F01B3D01A06204602D5B7
:103A180001F07CF9ADE701F06FF9AAE794F84630B8
:103A2800002B7FF4ECAE94F8483013F00F01A0D0CF
:103A38001B06204602D501F055F99AE701F048F92E
:103A480097E7142284F8342083F311882B462A46FA
:103A580029462046FFF728FE85F31188E0E65DB188
:103A6800152284F8342083F311880021D4E90E2329
:103A78002046FFF719FEF8E60B2284F8342083F37A
:103A880011882B462A4629462046FFF71FFEE3E702
:103A98000C530008085300080A53000838B590F87A
:103AA80034300446002B42D0063BDAB20F2A38D80D
:103AB8000F2B36D8DFE803F03B3535082636353589
:103AC8003535353535353B3B90F84B1090F84A2065
:103AD800C36B42EA0122934214D2C268128AB3FB32
:103AE800F2F502FB15356DB9202383F311882B46B7
:103AF8002A462946FFF7EAFD85F311880A2384F848
:103B080034300EE0142384F83430202383F31188F2
:103B180000231A4619462046FFF7C6FD002383F303
:103B2800118838BD036C03B198470023E7E70021EB
:103B3800204601F0D7F80021204601F0C9F8636853
:103B48001B6813B10621204698470623D7E710B50E
:103B580090F83430142B044629D017D8062B05D0FA
:103B680001D81BB110BD093B022BFBD80021204610
:103B780001F0B8F80021204601F0AAF863681B6834
:103B880013B1062120469847062319E0152BE9D1E1
:103B98000B2380F83430202383F3118800231A463E
:103BA8001946FFF793FD002383F31188DAE7C3680A
:103BB8009B695B68002BD5D1036C03B19847002340
:103BC80084F83430CEE700F1604303F5614309011E
:103BD800C9B283F80013012200F01F039A40430979
:103BE8009B0003F1604303F56143C3F880211A6029
:103BF8007047062108B50846FFF7E5FF06210720AC
:103C0800FFF7E1FF06210820FFF7DDFF0621092065
:103C1800FFF7D9FF06210A20FFF7D5FF0621172055
:103C2800FFF7D1FFBDE8084006212820FFF7CBBFEA
:103C380008B5214B1A6962F01F021A611A6902F06D
:103C48001F021A614FF0FF301A695A695861002142
:103C58005A6959615A691A6A62F080521A621A6A74
:103C680002F080521A621A6A5A6A58625A6A59628B
:103C78005A6A1A6C42F080521A641A6E42F08052E4
:103C88001A661A6E0D4A106840F480701060186F3A
:103C980000F44070B0F5007F1EBF4FF48030186705
:103CA8001967536823F40073536000F0DFF9BDE827
:103CB8000840FFF79EBF00BF003802400070004078
:103CC800354B4FF080521A64344A4FF4004111606A
:103CD8001A6842F001021A601A689207FCD59A68BD
:103CE80022F003029A602C4B19469A6812F00C02D3
:103CF800FBD1186800F0F90018609A601A6842F45D
:103D080080321A600B689B03FCD54B6F43F00103AC
:103D18004B67214B5A6F9007FCD5214A5A601A68A5
:103D280042F080721A601D4A53685904FCD51A4B38
:103D38001A689201FCD51B4A9A600322C3F88C20AA
:103D4800194B1A68194B9A42194B21D1194A116813
:103D5800194A91421CD14FF481721A60144A1368AF
:103D680003F00F03022BFAD10B4B9A6842F00202C0
:103D78009A609A6802F00C02082AFAD15A6C42F446
:103D880080425A645A6E42F480425A665B6E7047AB
:103D980040F20272E1E700BF0038024000700040C4
:103DA8001954410700948838002004E01164002069
:103DB800003C024000ED00E041C20F4108B5074B4E
:103DC800074A196801F03D01996053680BB1906882
:103DD8009847BDE80840FFF7A3BB00BF006002405A
:103DE800700D002008B5084B1968890901F03D01DC
:103DF8008A019A60054AD3680BB110699847BDE8F3
:103E08000840FFF78DBB00BF00600240700D002026
:103E180008B5084B1968090C01F03D010A049A60BD
:103E2800054A53690BB190699847BDE80840FFF708
:103E380077BB00BF00600240700D002008B5084B3A
:103E48001968890D01F03D018A059A60054AD36910
:103E58000BB1106A9847BDE80840FFF761BB00BF87
:103E680000600240700D002008B5074B074A5968EA
:103E780001F03D01D960536A0BB1906A9847BDE8DB
:103E88000840FFF74DBB00BF00600240700D0020E6
:103E980008B5084B5968890901F03D018A01DA60C3
:103EA800054AD36A0BB1106B9847BDE80840FFF785
:103EB80037BB00BF00600240700D002008B5084BFA
:103EC8005968090C01F03D010A04DA60054A536B90
:103ED8000BB1906B9847BDE80840FFF721BB00BFC6
:103EE80000600240700D002008B5084B5968890D24
:103EF80001F03D018A05DA60054AD36B0BB1106CFD
:103F08009847BDE80840FFF70BBB00BF00600240C0
:103F1800700D002008B5074B074A196801F03D01EC
:103F28009960536C0BB1906C9847BDE80840FFF757
:103F3800F7BA00BF00640240700D002008B5084BB6
:103F48001968890901F03D018A019A60054AD36C14
:103F58000BB1106D9847BDE80840FFF7E1BA00BF04
:103F680000640240700D002008B5084B1968090C60
:103F780001F03D010A049A60054A536D0BB1906D3A
:103F88009847BDE80840FFF7CBBA00BF006402407D
:103F9800700D002008B5084B1968890D01F03D0126
:103FA8008A059A60054AD36D0BB1106E9847BDE833
:103FB8000840FFF7B5BA00BF00640240700D00204A
:103FC80008B5074B074A596801F03D01D960536E9F
:103FD8000BB1906E9847BDE80840FFF7A1BA00BF43
:103FE80000640240700D002008B5084B5968890923
:103FF80001F03D018A01DA60054AD36E0BB1106FFA
:104008009847BDE80840FFF78BBA00BF006402403C
:10401800700D002008B5084B5968090C01F03D01E6
:104028000A04DA60054A536F0BB1906F9847BDE8F0
:104038000840FFF775BA00BF00640240700D002009
:1040480008B5084B5968890D01F03D018A05DA6009
:10405800054AD36F13B1D2F880009847BDE80840ED
:10406800FFF75EBA00640240700D00200D4A30B5BB
:1040780000230D4C13600C25194605FB03F000596D
:10408800016002EBC3000133102B4160F5D1074AF0
:104098004FF0FF339360D360C2F80834C2F80C3491
:1040A80030BD00BF700D00201053000800600240B2
:1040B80070472DE9F74FC2F3C31302F0030AC2F3A6
:1040C8008009C2F3C108C2F3411E0193574600227A
:1040D8004FF00F0BCB0737D5019C02F007039B006D
:1040E80004FA03FC01254468954024EA050444EADF
:1040F8000904446085680324560004FA06F625EA94
:10410800060545EA08058560C56825EA060545EA05
:104118000E050BFA03F3BAF1020F6FEA0604C56045
:104128006FEA03031BD1072A95BF056A456A2B402E
:104138002B4095BF43EA0C0343EA0C030362436236
:1041480003681C403C43046049081AD04FEA4909F7
:104158004FEA88084FEA8E0EBF000132BAE70568B9
:104168002C403C43072A046095BF046A446A2340F4
:10417800234095BF43EA0C0343EA0C0303624362FE
:10418800E2E703B0BDE8F08F3E483F4A70B5446BA4
:10419800A369656945EA034323F07F4393420246D6
:1041A80028D014D839498B4205D001318B4225D00B
:1041B800B3F1011F11D1128C130A19D003F00603B1
:1041C80002F00102134343F0F003236105E0304A93
:1041D800934229D00232934231D015F00A0F18BF0A
:1041E800A369EB0542BF636923F48073636133E01D
:1041F8002261F2E7038CC3F34703E6E7636823F41D
:1042080000736360C36A1B681A6842F001021A608F
:10421800626842F4805262605B68012BDDD82368D3
:1042280023F480632360D8E7636823F40073636032
:10423800036B1A68136843F001031360CDE7236921
:10424800C36A1B685E685EB1038C43F00103038494
:10425800236843F4A0632360BDE87040FFF760B9AA
:10426800636823F400736360236843F40073236076
:10427800202383F3118831461C30FFF70FF986F3AA
:104288001188AAE7CC0F00200800030001000300F2
:1042980082000700364B5A6B506970B500F45F44D2
:1042A800E44354611C6B25682E6826F01F0681B212
:1042B8002E602E68F607FCD4667A65683D24B44003
:1042C8002C60DC6A25682E6826F01F062E602E6892
:1042D800F607FCD4667A65683D24B4402C6011F476
:1042E80080741DBF01249C6054699C601CBF24F429
:1042F800807454618D0542BF9C6844F002049C6040
:104308004C050BD555689C6825F4007555601568F3
:1043180044F0040445F4007515609C600E0542BF26
:104328009A6842F008029A604D0442BF9A6842F0C7
:1043380020029A60CC0442BF9A6842F010029A6048
:1043480001049A680ED542F040029A60202383F354
:10435800118808486FF00101FFF7A0F8002383F3E4
:10436800118801E0002AF1D1BDE87040FFF7D8B804
:10437800CC0F0020E80F002010B5054C2046FFF7B1
:1043880023F90023034AE361C4E90B33626310BDD8
:10439800CC0F00200054004070B5D0E915439E684A
:1043A80000224FF0FF3504EB42135101D3F8000906
:1043B8000028BEBFD3F8000940F08040C3F80009C8
:1043C800D3F8000B0028BEBFD3F8000B40F08040A4
:1043D800C3F8000B013263189642C3F80859C3F8B2
:1043E800085BE0D24FF00113C4F81C3870BD890196
:1043F80041F02001016103699B06FCD41220FEF7FD
:104408004BBE00001F4B03EB80022DE9F043D2F8AE
:104418000CC05D6DDCF81420461CD2F800E005EBFA
:10442800063605EB4018516871450BD3D5F834288A
:10443800012303FA00F022EA0000C5F83408184600
:10444800BDE8F083BCF81040AEEB0103A34228BFDF
:104458002346D8F81849A4B2B3EB840F0FD8946850
:10446800A4F1040959F8047F3760A4EB09071F4435
:10447800042FF7D81C440B4494605360D3E7002002
:10448800DEE700BF0410002010B5054C2046FFF7FA
:10449800ADF84FF0A0436365024BA36510BD00BFA4
:1044A80004100020F453000870B50378012B05466A
:1044B80050D12A4B446D98421BD1294B5A6B42F07C
:1044C80080025A635A6D42F080025A655A6D5A69E1
:1044D80042F080025A615A6922F080025A610E2124
:1044E80043205B69FFF76FFB1E4BE3601E4BC4F86C
:1044F80000380023C4F8003EC02323606E6D4FF4DB
:104508003413A3633369002BFCDA012333610C20D5
:10451800FEF7C2FD3369DB07FCD41220FEF7BCFDB1
:104528003369002BFCDA0026A6602846FFF734FF23
:104538006B68C4F81068DB68C4F81468C4F81C68B1
:104548004BB90A4BA3614FF0FF336361A36843F093
:104558000103A36070BD064BF4E700BF0410002000
:10456800003802404014004003002002003C30C0E4
:10457800083C30C0F8B5446D054600212046FFF7D9
:1045880036FFA96D00234FF001128F68C4F8343844
:104598004FF00066C4F81C284FF0FF3004EB4312BC
:1045A80001339F42C2F80069C2F8006BC2F80809DB
:1045B800C2F8080BF2D20B686A6DEB6563621023D0
:1045C8001361166916F01006FBD11220FEF764FD80
:1045D800D4F8003823F4FE63C4F80038A36943F420
:1045E800402343F01003A3610923C4F81038C4F82A
:1045F80014380A4BEB604FF0C043C4F8103B084B2B
:10460800C4F8003BC4F81069C4F80039EB6D03F135
:10461800100243F48013EA65A362F8BDD053000882
:1046280040800010426D90F84E10D2F8003823F404
:10463800FE6343EA0113C2F8003870472DE9F843D6
:1046480000EB8108456DD8F80C20166806F00306C3
:10465800731E022B05EB41130C460FFA81F94FEA42
:1046680041174FF00001C3F8101B04F110034FF07D
:10467800010198BFB60401FA03F193698EBF344E65
:1046880006F1805606F50046002B3CD0B2F812C061
:1046980004F158035B014CEA060C45F803C0D5F851
:1046A8001C381943EB19C5F81C180021C3F8101958
:1046B80053690127611EA74093B3138A928B9B0805
:1046C800012A88BF5343C26D03EB020C42EA03433D
:1046D80001F1400205EB8202C0F85CC0214653603C
:1046E8002846FFF784FED8F80C301B8A43EA845327
:1046F800483464011E432E51D5F81C381F43C5F8B1
:104708001C78BDE8F88305EB491CDCF8003B23F472
:104718000043CCF8003BD5F81C3823EA0101C1E777
:1047280004F13F0305EB83030A4A5A6005EB491974
:1047380021462846FFF75BFED9F8003923F40043E9
:10474800C9F80039D5F81C3823EA0707D7E700BFAE
:104758000080001000040002826D1268C265FFF735
:104768001BBE5831436D49015B5813F4004004D017
:1047780013F4001F0CBF0220012070474831436D1D
:1047880049015B5813F4004004D013F4001F0CBF18
:1047980002200120704700EB8101CB68196A0B6881
:1047A80013604B685360704700EB810330B5DD68D8
:1047B800AA691368136119B9402B84BF4023136099
:1047C8006B8A1468426D1C44013CB4FBF3F46343E8
:1047D800033323F0030302EB411043EAC44343F0DD
:1047E800C043C0F8103B2B6803F00303012B09B248
:1047F8000ED1D2F8083802EB411013F4807FD0F8BC
:10480800003B14BF43F0805343F00053C0F8003B13
:1048180002EB4112D2F8003B43F00443C2F8003BDC
:1048280030BD0000F8B52A4D6E6D06EB4013044606
:10483800D3F8087BC3F8087B38070AD5D6F81438AC
:10484800190706D505EB84032146DB6828465B6813
:104858009847FA0720D5D6F81438DB071CD5A61CCC
:1048680005EB86035968C4B98B69488A5F68B7FB4A
:10487800F0F200FB127282B918681A6990420CD2E1
:10488800121AC3E90024202383F311881048214613
:10489800FFF78AFF84F31188F8BD012303FA04F2B5
:1048A8006B8923EA02036B81CB6813B10848214660
:1048B8009847202383F3118805EB86056B68986970
:1048C80041680C30FEF7EAFD002383F31188E3E723
:1048D8000410002000EB810370B5DD68436D6C693E
:1048E800266826614A0156BB1A444FF40020C2F8D4
:1048F80010092A6802F00302012A0AB20ED1D3F87D
:10490800080803EB421410F4807FD4F8000914BFA0
:1049180040F0805040F00050C4F8000903EB421208
:10492800D2F8000940F00440C2F80009D3F834086E
:10493800012202FA01F10143C3F8341870BD19B914
:10494800402E84BF4020206020682E8A8419013CB4
:10495800B4FBF6F440EAC44040F000501A44C6E7FD
:104968002DE9F04104462848466D06EB44130546F8
:10497800D3F80879C3F8087917F0010F1BD0D6F8D7
:104988001038DA0717D504F1020800EB88035968D4
:104998004B69D3F800C01A69944519D2A2EB0C02EE
:1049A80000251A605D60202383F311882146FFF7F4
:1049B80091FF85F311883B0624D5D6F834280123C6
:1049C800A34013421ED02046BDE8F041FFF71ABDB0
:1049D800012303FA04F2038923EA020303818B68A3
:1049E8000BB121469847202383F3118805EB8805EE
:1049F80000216B6858690C30FEF750FD002383F3E3
:104A08001188D8E7BDE8F081041000202DE9F74FA0
:104A1800AE48466D7569B3691D4015F480577561D8
:104A2800044606D0FEF764FE03B0BDE8F04FFEF77B
:104A380077BD002D12DAD6F8003EA4489A071EBFAB
:104A4800D6F8003E23F00303C6F8003ED6F8043833
:104A580023F00103C6F80438FEF7B2FE2B0505D58E
:104A68009A48FFF799FC9948FEF77CFEA8040CD5F4
:104A7800D6F8083813F0060FF36823F470530CBF08
:104A880043F4105343F4A053F360290704D5636833
:104A9800DB680BB18D489847EA0200F18F80AB02C2
:104AA8003ED5636DDFF824B200934FF000084FF055
:104AB80001094FF0200A009B03EB4812D2F8003B93
:104AC80003F44023B3F5802F22D1D2F8003B002B0A
:104AD8001EDA628909FA08F322EA0303638108F1FE
:104AE800020304EB83025268D26822B14146584659
:104AF80001939047019B8AF3118804EB83035B6859
:104B0800986941680C30FEF7C9FC002383F31188CB
:104B1800A36D08F101089B685FFA88F89845CAD91F
:104B2800E8061AD5D4F854C0DCF82020C2F30A10DD
:104B380002F00F0302F4F012B2F5802F00F09C800F
:104B4800B2F5402F09D104EB83030022DB681B6A0E
:104B58000CF5805C904240F082802903D6F8184812
:104B680013D5E20302D50020FFF75CFEA30302D5AC
:104B78000120FFF757FE670302D50220FFF752FE18
:104B8800260302D50320FFF74DFE6D037FF54CAFDA
:104B9800E00702D50020FFF7E3FEA10702D50120B8
:104BA800FFF7DEFE620702D50220FFF7D9FE2307D2
:104BB8007FF53AAF0320FFF7D3FE35E7636DDFF8E3
:104BC8000CB100934FF000094FF0200AA36D9B68C9
:104BD8005FFA89F84345FFF462AF009B03EB481383
:104BE800D3F8002902F44022B2F5802F34D1D3F84B
:104BF8000029002A30DAD3F8002942F09042C3F89D
:104C08000029D3F80029002AFBDB606D4146FFF735
:104C1800EEFB2289012303FA08F322EA0303238126
:104C280008F1020304EB83025268926822B14146FC
:104C3800584601939047019B8AF3118804EB83033C
:104C480000215B6858690C30FEF728FC002383F3C9
:104C580011884046FFF7D6FB09F10109B6E791072D
:104C680008BFDCF80070072A98BF03F8017B02F13F
:104C7800010298BF3F0A6DE7023304EB83020CF58B
:104C8800805C5268D2F818E0DEF80820DEE9001EE1
:104C9800A1EB0E0E002188420AD104EB830463685D
:104CA8009B699A6802449A605A681044586054E7AD
:104CB80011F0030F08BFDCF800708E4588BF02F8BA
:104CC800017B01F1010188BF3F0AE4E704100020DD
:104CD800436D03EB4111D1F8003B43F40013C1F8D5
:104CE800003B7047436D03EB4111D1F8003943F4A1
:104CF8000013C1F800397047436D03EB4111D1F837
:104D0800003B23F40013C1F8003B7047436D03EBED
:104D18004111D1F8003923F40013C1F80039704764
:104D2800114B1A6C42F001021A641A6E42F0010229
:104D38001A660E4A1B6E936843F0010393604FF0A6
:104D4800804341F267029A624FF0FF32DA62002232
:104D58009A615A63DA605A6001225A6108211A601E
:104D68001C20FEF730BF00BF00380240002004E0DE
:104D78004FF0804208B51169D3680B40D9B2C943D6
:104D88009B07116107D5202383F31188FEF782F969
:104D9800002383F3118808BD08B5FFF7E9FFBDE8D4
:104DA8000840FEF7BDBB000010B5044C2046FEF7D6
:104DB80014FC04232374024BA36110BD641000206B
:104DC800000C0040836970B51A69DD681540EAB2C5
:104DD800D243AE0704461A6103D543681B6903B181
:104DE8009847680704D563689B690BB120469847C4
:104DF800290704D563681B6A0BB120469847EA0661
:104E080004D563689B6A0BB120469847EB0706D523
:104E180063689B681BB12046BDE87040184770BDA9
:104E280008B50348FFF7CEFFBDE80840FEF778BB9A
:104E3800641000204B6843608B688360CB68C36054
:104E48000B6943614B6903628B6943620B680360BA
:104E58007047000008B51A4B1A481A6942F01F0239
:104E68001A611A6922F01F021A611A691A6B42F054
:104E78001F021A631A6D42F01F021A65124A1B6D4F
:104E88001146FFF7D7FF114802F11C01FFF7D2FFC7
:104E98000F4802F13801FFF7CDFF0E4802F1540127
:104EA800FFF7C8FF0C4802F17001FFF7C3FF0B487A
:104EB80002F18C01FFF7BEFFBDE80840FEF700BF16
:104EC800003802400000024000540008000402407C
:104ED80000080240000C024000100240001C024082
:024EE800704711
:044EEC00F8B500BF56
:044EF000F8B500BF52
:104EF4002B0014001A000800150017001C001800ED
:104F04000C00120013002A002900040016000700F8
:104F140009000A000B000D000E000F0033003400DE
:104F2400E1001D001B00060019000500110010001F
:104F34003600370038002800E000E300E2004600B5
:104F440001512C002C0002515000510052004F001E
:104F540035021E021F022002210222022302240221
:104F64002502260227024C004C003A003B003C007C
:104F74003D003E003F002D022E022F02300231027E
:104F84000100400041004200430044004500320259
:104F940064024A004D00010001000100010001000B
:104FA4000100010001000100AB00AA00A900AE004D
:104FB40035001E001F0020002100220023002400D1
:104FC4002500260027004C004C003A003B003C0022
:104FD4003D003E003F002D002E002F003000310028
:104FE40001004000410042004300440045003200FB
:104FF40064004B004E0001000100010001000100AB
:105004000100010001000100AB00AA00A900AE00EC
:105014000100005C015C01000100010001000100CD
:105024000100010001004C00010001000100010029
:105034000100135C0A5C635D0100010001000100D2
:10504400010001000100010001002C5C2D5C000046
:105054000000010001000100010001000100010045
:105064000100010001000100010001000100010034
:10507400E200E900EA00B500B600B700CD00830104
:10508400CC008A0192019401210223022402250208
:10509400260227022A02B300B4006F007000E20067
:1050A400E900EA00B500B600B700CD008301CC00EA
:1050B4008A0192019401210223022402250226027C
:1050C40027022A02B300B4006F00700009040240F2
:1050D400080402400C0402400E040240050402408D
:1050E4000404024003040240080002400F0402408A
:1050F40000040240010402400A0402400500024088
:1051040004000240030002400200024003000000C9
:1051140000000000BB2A0008000000000800000096
:105124001C0D002000000000020000000000000030
:1051340003000000000000007D2D000800000000B6
:10514400200000005C0D00200000000002000000B0
:1051540000000000152B0008BD2A0008092C0008D7
:10516400AD2A000804520008085200081A52000828
:1051740004101609023B00020100A0FA0904000011
:10518400010301010009211101000122400007056A
:105194008103080001090401000103000000092142
:1051A40011010001223200070582032000011201CF
:1051B400000200000040EDFE2A000100010200018F
:1051C40005010906A101050719E029E715002501D4
:1051D400950875018102950175088101050719007B
:1051E40029FF150026FF009506750881000508199A
:1051F400012905950575019102950175039101C079
:1052040004030904100343006900700075006C0076
:105214006F007400000016034F006C00650064000A
:1052240020004D006100630072006F000000050162
:105234000980A101850319012AB700150126B700C9
:10524400950175108100C0050C0901A1018504199F
:10525400012AA002150126A002950175108100C043
:10526400D0540008801000208010002080100020FE
:10527400D0540008000000000000000000000000FE
:10528400D0540008000000000000000000000000EE
:10529400D0540008000000000000000000000000DE
:1052A400D0540008000000000000000000000000CE
:1052B400D0540008000000000000000000000000BE
:1052C400D0540008000000000000000000000000AE
:1052D400D05400080000000000000000000000009E
:1052E4006D61696E0069646C65000000E952000834
:1052F400400E0020800F00200100000055300008FF
:1053040000000000000001000000000010600240E6
:10531400086002400000000B286002400860024060
:105324000006010C40600240086002400010020DBB
:1053340058600240086002400016030E706002408C
:105344000C6002400000040F886002400C600240C0
:1053540000060510A06002400C6002400010061117
:10536400B86002400C6002400016072F106402402F
:1053740008640240000008382864024008640240BF
:1053840000060939406402400864024000100A3AE9
:10539400586402400864024000160B3B70640240EB
:1053A4000C64024000000C3C886402400C6402401F
:1053B40000060D44A06402400C64024000100E4537
:1053C400B86402400C64024000160F46000000005E
:1053D400DD370008A53A0008573B000840004000AC
:1053E400F40D0020F40D002001000000080E002040
:1053F40080000000400100000300000000AAA02A71
:1054040000000000FFFFFFFF54500140FFFF0000B9
:105414000000565500AA0A00802028000000000061
:10542400FFFFFFFF55454155FFFF0000000000044A
:10543400400500008180200200000000FFFFFFFF04
:1054440015555505FFFF00000050006000060600DA
:105454000001005500000000FFFFFFFF55515500FB
:10546400FF0F0000000000000000000040050000E5
:1054740000000000FFFFFFFF45555555FFFF0000EA
:105484000000000000000000000000000000000018
:10549400FFFFFFFF50555555FFFF000000000000BF
:0454A4000000000004
:0854A800E0AFFF7F01000000EE
:1054B000B00C00207920000801000000352E000803
:1054C000412E0008952E0008992E0008CD2E0008C8
:04000005080003915B
:00000001FF
