:020000040800F2
:10000000000400203D0300083F0300083F030008F0
:100010003F0300083F0300083F0300083F030008B8
:100020003F0300083F0300083F030008857B0008EA
:100030003F0300083F0300083F0300083F03000898
:100040003F0300083F0300083F0300083F03000888
:100050003F0300083F030008218500086185000870
:10006000A5850008E98500082D860008FD8D00089B
:10007000118E0008258E0008398E00084D8E00086C
:10008000618E0008758E00083F0300083F030008DA
:100090003F0300083F0300083F0300087186000883
:1000A00075880008898800088D88000891880008F4
:1000B0002D980008499400084198000859900008BC
:1000C000699100083F0300083F0300083F03000850
:1000D0003F0300083F0300083F0300083F030008F8
:1000E000598700083F0300083F0300083F0300084A
:1000F0003D9600083F0300083F0300083F03000847
:100100003F0300083F0300083F0300083F030008C7
:100110003F0300083F0300081596000829960008D1
:10012000898E00089D8E0008B18E0008C58E0008DB
:10013000D98E00083F0300083F0300083F03000872
:100140003F0300083F0300083F0300083F03000887
:100150003F0300083F0300083F0300083F03000877
:100160003F0300083F0300083F0300089198000880
:100170003F0300083F0300083F0300083F03000857
:100180003F0300083F0300083F0300083F03000847
:100190003F0300083F0300083F0300083F03000837
:0801A000D5010008B1010008BF
:1001B00010B5054C237833B9044B13B10448AFF3A1
:1001C00000800123237010BD1814002000000000DF
:1001D00010C100080C4B43B10C480D4910B5AFF3EA
:1001E00000800C48036823B910BD0A48036833B97E
:1001F0007047094B002BF7D0BDE810401847064B5D
:10020000002BF5D0184700BF0000000010C1000807
:100210001C140020181400200000000072B6394899
:1002200080F30888384880F3098838484EF608512A
:10023000CEF20001086040F20000CCF200004EF661
:100240003471CEF200010860BFF34F8FBFF36F8FA0
:1002500040F20000C0F2F0004EF68851CEF20001EC
:100260000860BFF34F8FBFF36F8F4FF00000E1EED8
:10027000100A4EF63C71CEF200010860062080F3B1
:100280001488BFF36F8F07F03DF907F05BF84FF06C
:1002900055301F491B4A91423CBF41F8040BFAE715
:1002A0001C49194A91423CBF41F8040BFAE71A492C
:1002B0001A4A1B4B9A423EBF51F8040B42F8040BFA
:1002C000F8E700201749184A91423CBF41F8040B57
:1002D000FAE707F01BF907F016F9144C144DAC427D
:1002E00003DA54F8041B8847F9E703F09DF9114C31
:1002F000114DAC4203DA54F8041B8847F9E707F0C4
:1003000003B9000000040020000C002000000008D9
:10031000000000200004002010C10008000C002094
:10032000181400201814002094330020A0010008A5
:10033000A4010008A4010008A80100086EE700F06D
:1003400000F8FEE72DE9F04F2DED108AC1F80CD032
:10035000C3689D46BDEC108ABDE8F08F002383F38F
:1003600011882846A047002007F07CFBFEE707F035
:10037000E1FA00DFFEE7000081F0004102E000BF8B
:1003800083F0004330B54FEA41044FEA430594EA55
:10039000050F08BF90EA020F1FBF54EA000C55EA90
:1003A000020C7FEA645C7FEA655C00F0E2804FEA61
:1003B0005454D4EB5555B8BF6D420CDD2C4480EA43
:1003C000020281EA030382EA000083EA010180EA73
:1003D000020281EA0303362D88BF30BD11F0004FC1
:1003E0004FEA01314FF4801C4CEA113102D04042F7
:1003F00061EB410113F0004F4FEA03334CEA133332
:1004000002D0524263EB430394EA050F00F0A78049
:10041000A4F10104D5F1200E0DDB02FA0EFC22FA44
:1004200005F2801841F1000103FA0EF2801843FA38
:1004300005F359410EE0A5F120050EF1200E012A29
:1004400003FA0EFC28BF4CF0020C43FA05F3C01867
:1004500051EBE37101F0004507D54FF0000EDCF1E0
:10046000000C7EEB00006EEB0101B1F5801F1BD389
:10047000B1F5001F0CD349085FEA30004FEA3C0C8D
:1004800004F101044FEA445212F5800F80F09A8083
:10049000BCF1004F08BF5FEA500C50F1000041EB87
:1004A000045141EA050130BD5FEA4C0C404141EB8B
:1004B000010111F4801FA4F10104E9D191F0000FB2
:1004C00004BF01460020B1FA81F308BF2033A3F135
:1004D0000B03B3F120020CDA0C3208DD02F1140C2C
:1004E000C2F10C0201FA0CF021FA02F10CE002F167
:1004F0001402D8BFC2F1200C01FA02F120FA0CFC60
:10050000DCBF41EA0C019040E41AA2BF01EB0451A8
:10051000294330BD6FEA04041F3C1CDA0C340EDCA6
:1005200004F11404C4F1200220FA04F001FA02F3E9
:1005300040EA030021FA04F345EA030130BDC4F1A7
:100540000C04C4F1200220FA02F001FA04F340EA9C
:100550000300294630BD21FA04F0294630BD94F04D
:10056000000F83F4801306BF81F480110134013D34
:100570004EE77FEA645C18BF7FEA655C29D094EAA5
:10058000050F08BF90EA020F05D054EA000C04BF23
:100590001946104630BD91EA030F1EBF002100200E
:1005A00030BD5FEA545C05D14000494128BF41F0AD
:1005B000004130BD14F580043CBF01F5801130BD11
:1005C00001F0004545F0FE4141F470014FF000009C
:1005D00030BD7FEA645C1ABF194610467FEA655C4D
:1005E0001CBF0B46024650EA013406BF52EA0335EF
:1005F00091EA030F41F4002130BD00BF90F0000FDD
:1006000004BF0021704730B54FF4806404F1320418
:100610004FF000054FF0000150E700BF90F0000FD1
:1006200004BF0021704730B54FF4806404F13204F8
:1006300010F0004548BF40424FF000013EE700BFC8
:1006400042004FEAE2014FEA31014FEA02701FBF58
:1006500012F07F4393F07F4F81F06051704792F02A
:10066000000F14BF93F07F4F704730B54FF46074A4
:1006700001F0004521F0004120E700BF50EA0102EF
:1006800008BF704730B54FF000050AE050EA01029C
:1006900008BF704730B511F0004502D5404261EB0C
:1006A00041014FF4806404F132045FEA915C3FF44D
:1006B000DCAE4FF003025FEADC0C18BF03325FEAE6
:1006C000DC0C18BF033202EBDC02C2F1200300FA9B
:1006D00003FC20FA02F001FA03FE40EA0E0021FAC0
:1006E00002F11444C1E600BF70B54FF0FF0C4CF4AA
:1006F000E06C1CEA11541DBF1CEA135594EA0C0F60
:1007000095EA0C0F00F0DEF82C4481EA030621EA9A
:100710004C5123EA4C5350EA013518BF52EA0335D5
:1007200041F4801143F4801338D0A0FB02CE4FF087
:100730000005E1FB02E506F00042E0FB03E54FF0B7
:100740000006E1FB03569CF0000F18BF4EF0010EAF
:10075000A4F1FF04B6F5007F64F5407404D25FEAAB
:100760004E0E6D4146EB060642EAC62141EA55515E
:100770004FEAC52040EA5E504FEACE2EB4F1FD0CA0
:1007800088BFBCF5E06F1ED8BEF1004F08BF5FEA1E
:10079000500E50F1000041EB045170BD06F00046D0
:1007A00046EA010140EA020081EA0301B4EB5C047D
:1007B000C2BFD4EB0C0541EA045170BD41F4801175
:1007C0004FF0000E013C00F3AB8014F1360FDEBF9A
:1007D000002001F0004170BDC4F10004203C35DA76
:1007E0000C341BDC04F11404C4F1200500FA05F3F9
:1007F00020FA04F001FA05F240EA020001F000429A
:1008000021F0004110EBD37021FA04F642EB06010F
:100810005EEA430E08BF20EAD37070BDC4F10C0439
:10082000C4F1200500FA04F320FA05F001FA04F2FD
:1008300040EA020001F0004110EBD37041F10001E9
:100840005EEA430E08BF20EAD37070BDC4F12005F4
:1008500000FA05F24EEA020E20FA04F301FA05F25C
:1008600043EA020321FA04F001F0004121FA04F204
:1008700020EA020000EBD3705EEA430E08BF20EAD4
:10088000D37070BD94F0000F0FD101F0004640000E
:1008900041EB010111F4801F08BF013CF7D041EA90
:1008A000060195F0000F18BF704703F00046520094
:1008B00043EB030313F4801F08BF013DF7D043EA65
:1008C0000603704794EA0C0F0CEA135518BF95EA1B
:1008D0000C0F0CD050EA410618BF52EA4306D1D1A2
:1008E00081EA030101F000414FF0000070BD50EAC1
:1008F000410606BF1046194652EA430619D094EA4B
:100900000C0F02D150EA013613D195EA0C0F05D134
:1009100052EA03361CBF104619460AD181EA030188
:1009200001F0004141F0FE4141F470014FF0000040
:1009300070BD41F0FE4141F4780170BD70B54FF0DB
:10094000FF0C4CF4E06C1CEA11541DBF1CEA13555B
:1009500094EA0C0F95EA0C0F00F0A7F8A4EB05043D
:1009600081EA030E52EA03354FEA013100F0888034
:100970004FEA03334FF0805545EA131343EA1263FD
:100980004FEA022245EA111545EA10654FEA0026B2
:100990000EF000419D4208BF964244F1FD0404F56B
:1009A000407402D25B084FEA3202B61A65EB0305C7
:1009B0005B084FEA32024FF480104FF4002CB6EB84
:1009C000020E75EB030E22BFB61A754640EA0C0004
:1009D0005B084FEA3202B6EB020E75EB030E22BF44
:1009E000B61A754640EA5C005B084FEA3202B6EB85
:1009F000020E75EB030E22BFB61A754640EA9C0044
:100A00005B084FEA3202B6EB020E75EB030E22BF13
:100A1000B61A754640EADC0055EA060E18D04FEAD1
:100A2000051545EA16754FEA06164FEAC30343EA71
:100A300052734FEAC2025FEA1C1CC0D111F4801F3E
:100A40000BD141EA00014FF000004FF0004CB6E737
:100A500011F4801F04BF01430020B4F1FD0C88BFD6
:100A6000BCF5E06F3FF6AFAEB5EB030C04BFB6EBE1
:100A7000020C5FEA500C50F1000041EB045170BDD4
:100A80000EF0004E4EEA113114EB5C04C2BFD4EB01
:100A90000C0541EA045170BD41F480114FF0000E85
:100AA000013C90E645EA060E8DE60CEA135594EA01
:100AB0000C0F08BF95EA0C0F3FF43BAF94EA0C0F04
:100AC0000AD150EA01347FF434AF95EA0C0F7FF479
:100AD00025AF104619462CE795EA0C0F06D152EACD
:100AE00003353FF4FDAE1046194622E750EA4106B1
:100AF00018BF52EA43067FF4C5AE50EA41047FF4C2
:100B00000DAF52EA43057FF4EBAE12E74FF0FF3C26
:100B100006E000BF4FF0010C02E000BF4FF0010CF7
:100B20004DF804CD4FEA410C7FEA6C5C4FEA430C70
:100B300018BF7FEA6C5C1BD001B050EA410C0CBFBF
:100B400052EA430C91EA030F02BF90EA020F002021
:100B5000704710F1000F91EA030F58BF994208BF88
:100B600090422CBFD8176FEAE37040F00100704745
:100B70004FEA410C7FEA6C5C02D150EA013C07D19C
:100B80004FEA430C7FEA6C5CD6D152EA033CD3D0E7
:100B90005DF8040B704700BF8446104662468C46E1
:100BA0001946634600E000BF01B5FFF7B7FF002814
:100BB00048BF10F1000F01BD4DF808EDFFF7F4FF3D
:100BC0000CBF012000205DF808FB00BF4DF808EDC8
:100BD000FFF7EAFF34BF012000205DF808FB00BFEB
:100BE0004DF808EDFFF7E0FF94BF012000205DF80D
:100BF00008FB00BF4DF808EDFFF7CEFF94BF0120C2
:100C000000205DF808FB00BF4DF808EDFFF7C4FFBA
:100C100034BF012000205DF808FB00BF4FEA410C03
:100C20007FEA6C5C02D150EA013C0AD14FEA430CE6
:100C30007FEA6C5C02D152EA033C02D14FF0000023
:100C400070474FF0010070474FEA4102B2F1E043B4
:100C500024BFB3F5001CDCF1FE5C0DD901F0004CA3
:100C60004FEAC0024CEA5070B2F1004F40EB8300F3
:100C700008BF20F00100704711F0804F21D113F11F
:100C80003872BCBF01F00040704741F480114FEA58
:100C90005252C2F11802C2F1200C10FA0CF320FAE1
:100CA00002F018BF40F001004FEAC1234FEAD323FE
:100CB00003FA0CFC40EA0C0023FA02F34FEA430368
:100CC000CCE77FEA625307D150EA01331EBF4FF0F1
:100CD000FE4040F44000704701F0004040F0FE400C
:100CE00040F40000704700BF53B94AB9002908BF5B
:100CF00000281CBF4FF0FF314FF0FF3000F07AB9F1
:100D0000ADF1080C6DE904CE00F006F8DDF804E062
:100D1000DDE9022304B070472DE9F0478C460D460B
:100D20000446089E002B51D18A4217466DD9B2FA6B
:100D300082FEBEF1000F0BD0CEF1200C01FA0EF5B1
:100D400020FA0CFC02FA0EF74CEA050C00FA0EF43D
:100D50004FEA174A250CBCFBFAF81FFA87F90AFB81
:100D600018CC45EA0C4508FB09F3AB420AD9ED194A
:100D700008F1FF3280F02381AB4240F22081A8F1DC
:100D800002083D44ED1AA4B2B5FBFAF00AFB105577
:100D900044EA054400FB09F9A14509D9E41900F129
:100DA000FF3380F00A81A14540F2078102383C44BC
:100DB000A4EB090440EA08400021002E61D024FA87
:100DC0000EF4002334607360BDE8F0878B4207D9CE
:100DD000002E54D0002186E821000846BDE8F087A7
:100DE000B3FA83F1002940F08E80AB4202D38242F5
:100DF00000F2FA80841A65EB03050120AC46002E50
:100E00003FD086E81010BDE8F08712B90127B7FB84
:100E1000F2F7B7FA87FEBEF1000F34D1EB1B3A0CA4
:100E20001FFA87FC0121B3FBF2F8250C02FB1833F3
:100E300045EA03450CFB08F3AB4207D9ED1908F16D
:100E4000FF3002D2AB4200F2D1808046ED1AA3B24D
:100E5000B5FBF2F002FB105543EA05440CFB00FC25
:100E6000A44507D9E41900F1FF3302D2A44500F2EA
:100E7000B8801846A4EB0C0440EA08409DE73146D0
:100E80003046BDE8F087CEF1200405FA0EF307FAEC
:100E90000EF720FA04F83A0C25FA04F448EA03089D
:100EA000B4FBF2F14FEA184502FB11441FFA87FC2C
:100EB00045EA044501FB0CF3AB4200FA0EF409D9F4
:100EC000ED1901F1FF3080F08A80AB4240F287805B
:100ED00002393D44EB1A1FFA88F5B3FBF2F002FB2E
:100EE000103345EA034500FB0CF3AB4207D9ED197B
:100EF00000F1FF386FD2AB426DD902383D44EB1A96
:100F000040EA01418FE7C1F1200722FA07F88B4040
:100F100005FA01F448EA030320FA07FE4FEA134CEE
:100F2000FD404EEA040EB5FBFCF94FEA1E440CFBF3
:100F300019551FFA83F844EA054509FB08F4AC4249
:100F400002FA01F200FA01FA08D9ED1809F1FF30AE
:100F500043D2AC4241D9A9F102091D442D1B1FFA0D
:100F60008EFEB5FBFCF00CFB10554EEA054400FB71
:100F700008F8A04507D9E41800F1FF3529D2A045AB
:100F800027D902381C4440EA0940A4EB0804A0FB1E
:100F900002894C45C6464D4615D312D056B1BAEB20
:100FA0000E0364EB050404FA07F7CB401F43CC4063
:100FB000376074600021BDE8F0871846F8E6904677
:100FC000E0E6C245EAD2B8EB020E69EB0305013850
:100FD000E4E72846D7E7404691E78146BEE7014669
:100FE00078E702383C4445E7084608E7A8F10208DC
:100FF0003D442BE7704700BF0000000000000000E8
:1010000001F0FF01102A2BDB10F0070F08D010F8B9
:10101000013B013A8B422DD010F0070F42B3F6D1BD
:10102000F0B441EA012141EA014122F007047FF0D6
:1010300000070023F0E80256083C85EA010586EA2D
:10104000010685FA47F5A3FA87F586FA47F6A5FA69
:1010500087F68EB9EED1F0BC01F0FF0102F0070275
:1010600032B110F8013B013A83EA010313B1F8D120
:101070000020704701387047002D06BF3546033801
:10108000073815F0010F07D1013015F4807F02BF3A
:10109000013015F4C03F0130F0BC0138704700BF8B
:1010A000082823D8DFE800F02D05070A0F14191EC1
:1010B000200001207047144B18787047134B1878A4
:1010C00000F001007047114B1878C0F340007047E2
:1010D0000E4B1878C0F3800070470C4B1878C0F3A3
:1010E000C00070470A4BEAE7094BEDE701230938D6
:1010F00003FA00F0074B1B68184214BF01200020C0
:1011000070470020704700BF341400203C140020BA
:10111000351400203814002070B5294A294C107865
:10112000FFF7BEFF06465078FFF7BAFF05469078F6
:10113000FFF7B6FF0146D078FFF7B2FF22781ABB5F
:10114000214B334403EB450303EB81031F4D13F89D
:1011500030002B782BB91E4E3178013101F003019C
:1011600031700133032193FBF1F101EB41015B1A73
:1011700018492B700B78013303F00F030B70164BDB
:10118000196800EB4100186014490132087802F038
:1011900001022270FFF784FF02464878FFF780FFC4
:1011A00004468878FFF77CFF800000EB440002448F
:1011B000C878D2B2FFF774FF02EBC000C0B270BDB6
:1011C000040C002034140020080C002036140020E9
:1011D000351400203C14002038140020000C00209E
:1011E00005F044BB1FB504AA002302F8043D6423A4
:1011F0000093F9210123142005F0D6FB9DF80C0083
:1012000000F0010005B05DF804FB13B500248DF873
:1012100001008DF802108DF803208DF804300522AE
:101220006423694614208DF8004005F045FB02B0A8
:1012300010BD07B56423009302460B461420042119
:1012400005F0B2FB03B05DF804FB13B500230446C0
:101250000521684600938DF80430FFF7EAFF9DF8FA
:1012600003309DF802209DF801009DF80010D21A6D
:101270009DF804306280091ADA09204603F0010360
:1012800021802271637102B010BD7FB504AD0024CE
:1012900045F8044D64230093064604232A4621465C
:1012A000142005F081FB2346EA5C02B1EE540133C1
:1012B000042BF9D16422009200212A46142005F063
:1012C0002BFB04B070BD13B58DF805108DF806200A
:1012D0008DF80400019803F0FDFEC0F30722C1B2AF
:1012E000C0F3074081420B4628BF03469342A8BF84
:1012F0001346C01AD41AC91AC2B2C9B2E0B202B0B7
:10130000BDE81040FFF781BF00F02AB808B501F032
:101310005CFD094B1860094B0246C0B21870084BBF
:10132000C2F307411970074BC2F307221A70BDE8D8
:101330000840FFF7C8BF00BF202E0020E80E0020A5
:10134000E90E0020EA0E0020044B00221A60502211
:101350001A709A705A70186801F03ABD202E002059
:10136000FFF73EBF0020FFF790BF0000034B0022B5
:101370001B7811461046FFF748BF00BFEA0E002059
:10138000B1F900307F2B05DD7F2303700B887F3B95
:101390000B80704713F17F0FBDBF812303700B8853
:1013A0000370B4BF7F330023F2E700002DE9FF4153
:1013B000684603F087FBFFF715FF6E46604F002875
:1013C0005BD0604CB4F90000002851D105F0D4FC8A
:1013D00040F00100208002A8FFF737FF9DF80D3094
:1013E000002B61D1584BBDF908501B78BDF90A405C
:1013F000002B6CD0554B1A7802EB4402D2B21A7013
:10140000534B197842F00102524B1878FFF75BFFFB
:10141000514BB3F90020984632B9032000F0A2FFE7
:1014200010B9052000F0ACFF05F0A6FCEB0F002D75
:10143000D4BF5B42C3F101036D4305EB450513FBCC
:1014400005F53B88454A1D44E30F002CD4BF5B42A1
:10145000C3F10103644304EB440413FB04F4138855
:101460003D8040F001001C44A8F80000148004E016
:1014700080B205F086FC0528A8D8384DDFF8EC804E
:10148000374CB7F90030002B3FD1B5F90030002BB5
:101490003BD1B8F90030002B37D1B4F90030002B24
:1014A00033D104B0BDE8F0819DF80C209DF80130E7
:1014B00052B143F001038DF8013096E8030003F0C8
:1014C00009FB03F0DDFAD8E723F00103F3E7254B2E
:1014D0001B7853B11E4B197801EB4401C9B2197046
:1014E0001A4B41F001011A788EE71F4B1B78002B35
:1014F0008ED0184B18782044C0B21870134B1A784D
:10150000134B40F00100197880E70DF102000C49FF
:10151000FFF736FF29460DF10300FFF731FF2146A3
:1015200001A8FFF72DFF41460DF10500FFF728FF49
:1015300096E8030003F0CEFA03F0A2FAA1E700BF99
:10154000521400204C14002050140020EA0E0020F9
:10155000E90E0020E80E002044140020541400205E
:101560004E1400204A140020401400203E14002095
:101570002DE9F047074600F0A0FA431E0646294D24
:10158000294CDFF8B080042B4AD8DFE803F0034988
:101590000F12440028781430C0B298F80020217847
:1015A0001E2AC6BF1E3AD2B200220BE02878143899
:1015B000F2E72178287898F80020EA29DABF143178
:1015C000C9B2FF21FFF77FFE184B1A78042A99460B
:1015D00017D1042E15D0164B98F800205978914257
:1015E00007D118782978884203D1987821788842E1
:1015F00007D05A702A781A7022789A70186801F009
:10160000E7FB89F800603846042302220121BDE887
:10161000F04700F0ABB998F8002021782878D1E79E
:101620002878BAE7E80E0020E90E002041140020D7
:10163000202E0020EA0E002008B545F66653984299
:1016400053D01ED845F6635398423CD008D8B0F525
:10165000804F5CD044F2010398426FD0012008BD56
:1016600045F66453984235D045F665539842F5D116
:101670008B78002BF2D002F059F900222C213A4845
:1016800030E045F66A5398426AD00ED845F6675363
:10169000984233D045F668539842DFD18B78F220D8
:1016A000002B52D100F006FBD8E745F66B53984269
:1016B00053D045F66C539842D0D18A782B4B02B167
:1016C00001221A70CAE78B78002BC7D0002000F0E7
:1016D00037F9C3E78B78002BC0D002F027F92448F4
:1016E00000221C2102F094F9B8E78B78002BB5D0CA
:1016F00002F01CF9002209211E48F3E78B78002B29
:10170000ACD002F013F9002207211B48EAE78B79DD
:1017100013F0F00F8B780CD073B1032000F022FE91
:1017200018B1032000F036FE98E7032000F028FEF1
:1017300094E70BB10120F9E70120F3E78B7913F06F
:10174000F00F8B7804D033B1F12000F027FA85E751
:101750000BB10220EAE70220E4E78A78074BAEE704
:101760008A78074BABE700BF280C0020401400200C
:10177000880D0020A00E0020680E00204A140020D2
:1017800050140020A0F5A2400138012894BF002089
:101790000120704770B52B4CB4F900008AB080B1BD
:1017A00080B205F0EEFAB0F57A7F0AD901A803F00D
:1017B00089F99DF80550002D3BD1052000F0EAFD88
:1017C0002580214B214D1C782B88002C33D03BBB2E
:1017D0001F4B01AA03F1200618685968144603C478
:1017E0000833B3422246F7D119889B78A370218031
:1017F000FFF792FC0AAB1844164B10F8244C1B78E8
:10180000154E1C443078E4B2844209D001F018FF30
:1018100002F0A2F9204601F013FF02F085FA3470BD
:101820000E4A2B881188013393FBF1F201FB12332E
:101830002B800AB070BD002BFBD002F077F82C8013
:10184000F7E700BF4414002048140020461400208D
:10185000D0B20008240C002042140020260C0020E6
:1018600038B50546642006F002F902F089F80A4C02
:1018700050B915F0020209D0227812F0020203D109
:101880000648192102F0C4F8257038BD23789B075B
:10189000FAD50A210248F5E7491400203C0F002040
:1018A000EC0E00200120704708B5FFF7C5FE08BD0B
:1018B000704708B5FFF7FCFF08BD000013B502AB89
:1018C00003E903000F4B1B78B3B99DF80230009871
:1018D00073B16AB100F0D4FD04460146009800F0EF
:1018E00089FD0099204602B0BDE8104001F088BB98
:1018F00000F0A6FD0446F4E7009800F0C1FD009951
:10190000F1E700BF56140020034600890A4618B9C3
:1019100018689988FFF7D2BF704710B501210446B7
:10192000FFF7F2FF2146BDE8104004F02BBE10B5D2
:1019300000210446FFF7E8FF2146FFF7BAFF10BD7C
:1019400038B505460848012400EBC510AC4000221C
:10195000102102F05DF8E0B201F010FA2046BDE877
:10196000384000F0C8BC00BF0410002010B50124AE
:1019700004FA02F204FA01F1114304FA03F331EA22
:1019800000020CBF1843984310BD08B501F028FDB4
:1019900000F0B7F802F0B2F8BDE80840FFF7B4BCB9
:1019A00008B502F085FC04F09FFD002004F01CFA4D
:1019B000BDE8084001F034BD7047000010B500F0EC
:1019C0003FFC02F035FC05F0D7F900220446032164
:1019D000094802F01DF8FFF7EFFF204605F0D1F9A6
:1019E000F92805D901F0A2FFBDE8104005F0D6B9ED
:1019F0000A2006F03CF8F0E78410002038B50121F9
:101A00000546FFF781FF2946044601F035FF08B976
:101A1000002038BD29462046FFF746FF0028F7D0B2
:101A20002946204601F032FE0028F1D02946204602
:101A300002F0A0FC0028EBD02946204604F088FAEA
:101A40000028E5D02946204604F0D2FA0028DFD04D
:101A50002946204604F0FEFB0028D9D0294620461E
:101A600004F070F80028D3D0AB785BB145F65B5337
:101A70009C421CD00AD8B4F5B84F12D045F6DF43CB
:101A80009C4211D02846FFF70DFF38BD45F65C5348
:101A90009C420FD045F65D539C42F3D101F064F8AF
:101AA000F0E7FFF78BFFB3E701F0E6F9B0E701F0ED
:101AB00065F8E7E701F065F8E4E7030C002B16BFD3
:101AC000184600231023020A1CBF104608330209DF
:101AD0001EBF04331046DBB282081EBF023310461D
:101AE000DBB242081CBF0133DBB21846704708B5B1
:101AF000FFF7B6FE08BD0120704708B5FFF7FBFFF2
:101B000008BD704710B50446FFF7F1FF2046FFF708
:101B1000F4FF10BD30B587B08DE803009DF80230AA
:101B20006D460BB101F05CF803AC002363602381C8
:101B300095E80300ADF8101089B20390ADF80800E5
:101B400021B182B24FF6FF739A4205D194E80700A3
:101B500000F068FF07B030BD2046FFF7DEFE00282A
:101B6000F4D1F7E708B5008800F0ACFC08BD73B508
:101B7000064668460D466C4602F0A4FF9DF801300B
:101B80004EB145EA03018DF8011094E8030002F01C
:101B9000A1FF02B070BD23EA0501F4E738B50446A1
:101BA00000287FD0822816D104F038FF810779D42D
:101BB0003D4C3921206805F001F801F057F84FF449
:101BC0007A7005F054FF3921206805F011F8BDE85E
:101BD000384001F04BB8832810D104F01FFFC20732
:101BE00060D4314C5321206804F0E8FF01F03EF846
:101BF0004FF47A7005F03BFF5321E5E7842810D1BC
:101C000004F00CFF43074DD4274C4721206804F013
:101C1000D5FF01F02BF84FF47A7005F028FF47212B
:101C2000D2E7031FDBB2A02B10D81F4D0146286856
:101C300004F05CFF28B12146286804F0D9FF01F0C8
:101C400015F82146286804F0B9FFC0E700F1200329
:101C5000DBB2072B07D800F007040120A040C0B278
:101C600000F098FFB3E700F15B03DBB2022B05D86D
:101C70000E4AD05CBDE8384004F0FABE00F15803CB
:101C8000DBB2162B06D80A4A32F81300BDE83840FA
:101C900004F0FEBEEC2805D902F0EEFCBDE83840A9
:101CA00002F0C4BD38BD00BF9C1000202EB5000856
:101CB00032B5000810B50146002862D0822812D142
:101CC00004F0ACFE81075CD52E4C3921206804F06D
:101CD00075FF00F0CBFF3921206804F089FFBDE8D3
:101CE000104000F0C3BF83280CD104F097FEC20758
:101CF00047D5244C5321206804F060FF00F0B6FF64
:101D00005321E9E784280CD104F088FE430738D535
:101D10001C4C4721206804F051FF00F0A7FF472129
:101D2000DAE7031FDBB2A02B02D8164B1868D4E702
:101D300000F12003DBB2072B07D800F007010120D8
:101D40008840C0B200F02EFFC9E700F15B03DBB2B0
:101D5000022B04D80020BDE8104004F089BE00F139
:101D60005803DBB2162B04D80020BDE8104004F065
:101D70008FBEEC2805D902F0DDFCBDE8104002F072
:101D800055BD10BD9C10002038B505460C46FFF728
:101D900005FF24B92846BDE83840FFF78BBF0A206D
:101DA000013C05F064FEA4B2F3E739280CBF5021D2
:101DB0000021FFF7E9BF08B528B100F0EBFEBDE850
:101DC000084000F053BF08BD08B528B100F0EAFE96
:101DD000BDE8084000F04ABF08BD2DE9F04790F883
:101DE00006A0857807460C4600F0A4FE4FEA1A1AB2
:101DF0008046A8B1A8469DB1C4F3072303F0F003C1
:101E0000402B04D004F12003DBB2072B1FD90220A2
:101E100000F07CFF00F08EFE80F001005FFA80F899
:101E2000C4F30339B9F10F0F42D8DFE819F01300FA
:101E300013004A004A009F00CB0041004100E0002F
:101E400038014A014A019F0141004100A8014FF0B9
:101E50000008E5E7C4F3072313F0F00F16BF2609C7
:101E6000C4F3032606F0F006E4B295B156B104F1CE
:101E70002003DBB2072B304600D93CB900F08AFEC4
:101E800000F0F4FE2046FFF789FE11E000F098FE16
:101E9000F6E72046FFF70EFF56B104F12003DBB250
:101EA000072B304600D94CB900F07CFE00F0DEFE76
:101EB000A9F10809B9F1030F68D8B6E000F088FE6F
:101EC000F4E7C4F3072303F0F003202B14BF260923
:101ED000C4F30326E4B218BF06F0F00664B1012C87
:101EE0002CD0ADB3BAF1000F2CD0BB79D907C9D52E
:101EF0006FF30713BB7125E09DB1BAF1000F06D156
:101F000000F08AFE3043C0B2FFF755FFD0E7BAF1C8
:101F1000010FF5D100F080FE3043C0B200F088FE22
:101F2000C6E7BAF1000F05D100F094FE3046FFF786
:101F30004BFFBDE7BAF1010FF6D1B9E725B1BAF110
:101F4000050FB5D83046DFE7BAF1040FB0D8EDE79A
:101F5000BAF1000FEAD0392C0CBF4FF448700120C1
:101F600005F085FD2046FFF7A5FEA1E7C4F3812318
:101F70003BB1012B9CD11DB3C4F3090004F088FDD3
:101F800004E0DDB1C4F3090004F072FDB8F1000F04
:101F900000F0FC8000F0C6FD10F0010040F0F6807B
:101FA000B87000F0B7FD00F0EBF9384600F005F925
:101FB00000F0B0FDBDE8F04700F0ECB92846E3E7DB
:101FC0002846DBE7E4B220465DB102F055FBF13C68
:101FD000072C09D80121A140C9B22846FFF7C7FD47
:101FE000D4E702F0A7FBF2E702F020FCCEE714F4FE
:101FF000407F28D1CDB9C4F34210E2064FEA8000F9
:1020000048BF0F25C0B248BF854004F00F03C4F39A
:10201000812448BFED438340022C45EA03000CD0E5
:102020000ED8012C06D000F071F904F0F7FCFFF790
:1020300069FDABE700F062F9F7E700F06FF9F4E74C
:1020400000F059F9F1E7F5B1C4F30023002BECD00F
:10205000C4F342108000C3B204F00F0000FA03F290
:1020600014F010001CBF0F209840C4F3812418BF47
:10207000C043022C40EA02000BD00DD8012C05D041
:1020800000F0A6F9D1E7C4F34023DFE700F098F9A8
:10209000CBE700F0A5F9C8E700F04CF9C5E7E6B2D8
:1020A0003DB1C4F3032000F06BF93046FFF783FE27
:1020B000BBE73046FFF788FEC4F3032000F06AF95F
:1020C000B3E7E6B2A6F1F003042B3DD8DFE803F056
:1020D0000310161D260045B1BAF1040F3FF6E8AE15
:1020E000C4F3042000F062F9E2E6BAF1050FF5E767
:1020F00035B1C4F3042000F043F9D9E6002DF8D03F
:10210000C4F3042000F046F9D2E625B1C4F304205C
:1021100000F030F9CCE600F019F9C9E64DB1C4F38E
:102120000424204600F02CF90321204600F0CAFDCB
:10213000BEE6012000F0EAFDBAF1010F7FF6B8AE6D
:10214000022000F0E3FDB3E625B1BAF1000FD0D0D4
:10215000304698E6BAF1000FD2D0392E0CBF4FF4BA
:102160004870012005F083FC3046FCE6C4F30322EE
:10217000E1B2384600F040FF00F0D0F906E7C4F3C2
:102180000322E1B2384600F039FFFFE6BDE8F087F0
:1021900038B50446008958B100F04AFF054600F002
:1021A00027F900F0A7F829462046FFF716FE38BDAC
:1021B0002188A07800F092F9F0E713B583880288AF
:1021C000ADF804200446CBB1BDF804204FF6FF73F0
:1021D0009A4213D0FFF712FC50B900F0ABFC68B183
:1021E000A3785BB1022002B0BDE8104000F08EBDC4
:1021F0002046FFF7CDFF2046FFF799FB02B010BD48
:1022000008B5002004F034FC002004F041FC00F08C
:10221000E7FC00F0FBFC00F029FD02F0EDFBBDE85F
:10222000084002F003BB000008B5044B186804F036
:10223000F9FCBDE80840FFF7E3BF00BF9C10002099
:1022400008B500F0B7FCBDE80840FFF7EDBFC0F3EC
:1022500003330E3303F00F020D2A0CD801239340F1
:1022600013F4105FC1B217D140F20330184004D10B
:1022700013F010030BD100207047F02902D003D8CF
:10228000E729F8D801207047F429F4D1FAE7E729C3
:10229000F8D9F129F6D07047C0F3C020704708B5CF
:1022A0000346008920B100F0C3FEFFF7D0FF08BD50
:1022B000188800F007F9F8E782B002AB03E90300E1
:1022C00002B0704784B004AB03E9070004B0704764
:1022D000704708B5FFF7FCFF08BD000008B5FFF721
:1022E000F8FF034B1860BDE80840FFF789BF00BF47
:1022F000581400207047FFF7F1BF0000024B1B6825
:102300001843FFF7EBBF00BF58140020024B1B68B7
:102310001840FFF7E3BF00BF58140020024B1B68B2
:102320005840FFF7DBBF00BF5814002008B5FFF787
:102330001FF908BD08B5FFF7F9FF034B1860BDE8AA
:102340000840FFF75DBF00BF5C1400200020FFF7CE
:10235000F1BF18B9B1FA81F040097047C84000F0E8
:1023600001007047024B01461868FFF7F2BF00BF3B
:102370005C140020012303FA00F0FFF7DBBF00002C
:10238000012303FA00F0024B1B681843FFF7D2BF8A
:102390005C140020012303FA00F0034B1B6823EABE
:1023A0000000FFF7C7BF00BF5C140020012303FA41
:1023B00000F0024B1B685840FFF7BCBF5C140020C4
:1023C000024B1B681843FFF7B5BF00BF5C14002029
:1023D000024B1B681840FFF7ADBF00BF5C14002024
:1023E000024B1B685840FFF7A5BF00BF5C140020DC
:1023F00070470000C0F3072303EB430300EB4303E4
:1024000003F0FF0337B503F0070201209040DB081B
:102410000A4A03EB8303C0B2134400245D7821FA17
:1024200004F242F300026A40024001346A40052C83
:1024300003F8012FF2D103B030BD00BF5F140020BC
:10244000C0F3072303EB430313B500EB430000F095
:10245000FF0000F007040949C00800EB80000022DB
:10246000014410468B5CE34003F0010393400132CA
:102470001843052AC0B2F5D102B010BD6014002087
:102480000E4B73B51E680E4BADF804001B681F247D
:102490001E4326FA04F3DB0706D414F1FF34F8D206
:1024A0000025284602B070BDE5B20199284600F02B
:1024B0008FFE80B20128F0D0F3E700BF5C1400204B
:1024C0005814002007B5ADF804000198FFF7D8FFB5
:1024D000019900F07DFE03B05DF804FB13B50E4BCF
:1024E000ADF804101B7823B10198FFF7EBFF02B0A1
:1024F00010BD60B10198FFF7C3FF04460146019883
:10250000FFF778FF0199204600F062FEEFE701989F
:10251000FFF796FF0446F5E756140020F8B503468A
:10252000002853D0002501261878732803F10104F0
:1025300006D8042820D201280AD002281FD0F8BDCE
:10254000752835D02AD3A0F184036F2B33D9F8BD79
:102550009C1C5B7803F12002D2B2072A0BD803F04F
:1025600007039840C0B200F041FB00F07FFB2F460C
:1025700037BB2346D8E71846FFF710FBF7E7587834
:102580009C1C00F12003DBB2072B16D800F00700DB
:1025900006FA00F0C0B200F031FBE6E75F789C1C61
:1025A000002FE4D00A20013F05F061FAFFB2F7E7FF
:1025B0009C1C5D78DBE700F07F00FFF77BFBD6E734
:1025C0000A20013F05F053FAFFB2D1E7F8BD000041
:1025D000F8B50A4B0A4D1C780A4E0A272B78A342FD
:1025E00000D1F8BD07FB04630134186859681A89E3
:1025F000FFF768FE04F00704F0E700BFD9140020DD
:10260000D814002088140020024B186859681A89D1
:10261000FFF758BE7E140020244B2DE9F7439A792A
:1026200012090ED19A7862B1214ADFF88CE0127853
:1026300020484FF6FF7C4FF00A089EF800109142A8
:1026400002D103B0BDE8F0839C885CB319785E7852
:102650008DF804108DF80560BDF80450654521D053
:1026600008FB02F5471997F80190B1451AD1455D6D
:102670008D4217D1B978A9B9B988091B89B2C72980
:1026800010D899790948012262F307119971BB7931
:1026900062F30713BB71FFF790FD03B0BDE8F04391
:1026A000FFF796BF013202F00702C6E77E14002052
:1026B000D914002088140020D81400202DE9F047F8
:1026C000B84F90B00446BB880068089038882178DD
:1026D000627894F80280B4F804A0ADF804000DF11B
:1026E000200E3D46002B00F01D8186B24FF6FF7C88
:1026F000664500F0178197F80290B9F1000F00F0DD
:102700001181AAEB03039BB2C72BBB7900F2BF80F8
:1027100013F0F00F76D166451AD03E8820888642A5
:1027200016D13E892089864212D14646B8F1000F63
:102730000ED1012262F30713BB71FFF765FF384624
:10274000FFF73BFDBB79A371304610B0BDE8F087C1
:102750004646BAF1000F4CD08DF81C108DF81D20A4
:10276000BDF81C004FF6FF73984242D0002E43D1B3
:102770008D4B8E481B7890F800E08D4F4FF00A0C7F
:1027800073450FD18DF821208DF820100898FFF7A0
:1027900099FEC0F30332C3B2032A1DD8DFE802F06A
:1027A000131321210CFB03F5781990F80180904553
:1027B00005D17D5D8D4202D180780028C4D10133DE
:1027C00003F00703DCE710F4706F01D0002BBBD0DF
:1027D0002033DBB2072BB7D92046FFF7EEFC4E467D
:1027E000B2E710F4706FF3D0A27912F0F00FEFD1CE
:1027F000AAE7B8F1000FA7D0AB7943F00103AB71A2
:102800000026A1E780B2604517D03988228891421E
:1028100013D13989228991420FD1B8F1000F0CD11F
:10282000A3712046FFF7C9FC23683B6063687B60A7
:1028300023893B81FFF7E8FED1E72046FFF72FFD14
:1028400008B3B8F1000F1ED0AB791F2B0FD92A881F
:10285000ADF828208DF82E3000222B898DF82A2003
:10286000ADF82CA0ADF830300AA8FFF7A6FC23681D
:102870002B6063686B6023892B81FFF7CDFEFFF728
:10288000C3FE012660E72046FFF797FCF9E713F047
:10289000F00614D18DF821208DF82280ADF824A007
:1028A0008DF820109EE80300FFF706FD3846FFF77D
:1028B00084FC3E607E603E81FFF7A6FE44E780B266
:1028C000604515D039882288914211D139892289F1
:1028D00091420DD1B8F1000F0AD1A3712046FFF744
:1028E0006CFCC7F80080C7F80480A7F8088076E77A
:1028F0002046FFF7D4FC0028C5D0B8F1000FC2D0A5
:10290000AB791F2BB3D92A88ADF834208DF83A3033
:1029100000222B898DF83620ADF838A0ADF83C3078
:102920000DA8A2E72888ADF81400002B60D086B26D
:102930004FF6FF77BE425BD0AE78002E58D1AAEB9F
:1029400003039BB2C72B43D84646002E9BD080B2D0
:10295000B8422FD02A8823889A422BD12A892389EA
:102960009A4227D1AB79DA0714D41B0912D0AB797C
:10297000A3711A090F2A1EBF013262F30713A37154
:102980002046FFF71AFC23682B6063686B6023897D
:102990002B8191E723682B6063686B6023892B810F
:1029A000D2E600BF7E140020D9140020D8140020E5
:1029B000881400202046FFF772FC00287FF457AFF0
:1029C000AB79204643F00103AB71FFF7F6FBBBE6A2
:1029D0008DF82280ADF824A08DF820108DF82120EC
:1029E0009EE80300FFF768FC2E606E602E8163E7AF
:1029F000B8F1000F3FF447AF2046FFF750FC064602
:102A000000283FF440AF23682B6063686B60238924
:102A100003482B81FFF7A6F8FFF7FEFD4CE700BF48
:102A20007E140020F0B58BB001AC84E8070020468E
:102A3000FFF744FE334F344E0546B8B1BDF80830B9
:102A4000BDF80420ADF8142043B192B24FF6FF73E5
:102A50009A4203D094E80700FFF734FC2B4C0A2578
:102A600030783B7883422DD10BB0F0BD94E807005D
:102A700007AB03C3BDF808101A80BDF81C30ADF8D1
:102A800018300029EAD09AB24FF6FF739A42E5D087
:102A90003B7830785A1C02F00702824228D00A2480
:102AA0005C43ADF8201007AB03CBDFF860E01B8878
:102AB0004EF804000EEB04053A7069602B81FFF7B5
:102AC00087FDCBE700EB800004EB4000FFF7F6FD4D
:102AD0000028C9D0337805FB0343186859681A8960
:102AE000FFF7F0FB3378013303F007033370B7E7E8
:102AF000FFF7A6FB064B3D7035701D605D601D81C4
:102B0000B2E700BFD8140020D91400208814002098
:102B10007E140020024B93F90000C0F3C7007047F9
:102B2000FB140020024B187800F00700704700BF2C
:102B3000FB140020034B187810F0070018BF012089
:102B4000704700BFFB140020064A5378C3F380018E
:102B5000814205D060F382035370108800F01EB9E3
:102B6000704700BF242E0020034B587880F00400EB
:102B7000C0F38000FFF7E8BF242E00200120FFF7FC
:102B8000E3BF0020FFF7E0BF014B1878704700BF9C
:102B9000FD140020024A137818431070704700BFDC
:102BA000FD140020024A137823EA000010707047D9
:102BB000FD140020014B00221A707047FD14002004
:102BC000024A137818431070704700BFFE140020AB
:102BD000024A137823EA000010707047FE140020A8
:102BE000014B00221A707047FE140020024A13782D
:102BF00018431070704700BFFA140020024A13787F
:102C000023EA000010707047FA140020014B0022E4
:102C10001A707047FA140020014B1878704700BFF3
:102C2000FC140020704708B5FFF7FCFF08BD00004A
:102C300008B5064B5B785B0706D4054B19788142D3
:102C400002D01870FFF7EFFF08BD00BF242E002050
:102C5000FC14002008B5044B1A781AB10020187033
:102C6000FFF7E1FF08BD00BFFC14002010B50D4BBD
:102C70000D491B7809780D4C0B430D4920680978E4
:102C80000B430C490370097831B10B43037003F017
:102C90000FFF08B1FFF7DEFF2068BDE8104003F02A
:102CA000C5BE00BFFD140020FE1400209C100020B3
:102CB000FA140020FC140020704708B5FFF7FCFF51
:102CC00008BD00000A4A5278520710B50CD4094CCE
:102CD00041EAC0012170FFF753FB94F90000C0F3F3
:102CE000C700FFF7EAFF10BDBDE81040FFF748BB83
:102CF000242E0020FB14002008B5034B0020187080
:102D0000FFF7DBFF08BD00BFFB14002008B50C4A2D
:102D100092F9003023EA000040B21070420702D15D
:102D2000DBB2834203D1074B5B785B0707D5C0F367
:102D3000C700FFF72FFBBDE80840FFF7DDBF08BD68
:102D4000FB140020242E002008B501F0E9FF4FF607
:102D5000FF710020BDE8084002F073B808B50020FC
:102D600002F06CF84FF6E963C31A5842584108BDA7
:102D7000022002F05DB8032002F05AB80146032099
:102D800002F059B810B5042002F052F8044622208F
:102D900002F04EF844EA002080B210BD10B5C1B276
:102DA0000446042002F047F8210A2220BDE8104022
:102DB00002F041B8072002F03BB80146072002F0BC
:102DC0003AB801460F2002F080B8132002F03CB858
:102DD0000146132002F079B808B50020FFF7F1FF93
:102DE000FEF7B2FA08BD000010B501F099FF4FF6EA
:102DF000E961002002F025F80021022002F01BF812
:102E000000210320002402F016F81A4B214604206A
:102E10001C6002F010F82146222002F00CF8214636
:102E2000052002F008F82146062002F004F8FF21F0
:102E3000072002F000F82146082002F046F821465B
:102E40000D2001F0F8FF2146182002F03EF821463F
:102E5000172001F0F0FF21461C2002F036F8214631
:102E6000202001F0EEFF2146182002F02EF8FFF797
:102E7000B3FF10BD58140020FFF7B6BF01460E2067
:102E800001F0D9BF08B503F049FF024B1860024BAF
:102E9000186008BD00150020041500207047704719
:102EA00008B5FFF7FCFF08BD08B5FEF72FFA08BD0F
:102EB00008B5054800F074FA01F0E2FEFFF7EEFFF6
:102EC000FFF7EEFF08BD00BF9933000801207047EF
:102ED00008B5FFF7FBFF08BD7047704708B5FFF75F
:102EE000FBFFFFF7FAFF08BD08B503F015FF00F080
:102EF00037FB02F063FDFEF739FA02F0ADFFFFF792
:102F0000D3FF08BD2DE9F04F85B000F03FFB08B1BD
:102F1000FFF7B8FF354F0024B8465FFA84F94846FA
:102F200000F082FAE65DB042834616D10134082CE7
:102F3000F3D1FF238DF808308DF8093000238DF888
:102F40000A3003F019FF40F00100ADF80C0004ABAB
:102F500013E90300FEF7DEFD2AE0254B1B789B07F3
:102F600001D500F067FA002301258BEA06063542F9
:102F70005FFA83FA30D0FFF7ABFFA0B11BEA050F71
:102F800014BF012300238DF800A08DF801908DF867
:102F9000023003F0F1FE40F00100ADF804009DE8BE
:102FA0000300FEF7B7FD18F804305D4008F8045040
:102FB000104C02F02FFD01F059FCFEF7F7F903F079
:102FC0002DFD237883420DD003F028FD207005B03D
:102FD000BDE8F04FFEF796BD01336D00062BEDB254
:102FE000C5D1A3E705B0BDE8F08F00BF09150020EB
:102FF00011150020081500200020704770470000C0
:1030000030225043C1F30723062202FB030353FA85
:1030100081F3034A32F8130082B002B0704700BF58
:1030200048B30008014B33F81000704792B5000810
:1030300010B500F0D9F8B0F5A04F04462DD2B0F588
:10304000804F80F08C80E72816D8E02870D2A7281F
:1030500008D8A52866D201286AD001D3042867D2EF
:10306000002465E0BE2865D9C028F9D3C03880B2F5
:10307000FFF7D8FF04465BE0B0F5005F07D2B0F57C
:10308000807F60D2ED28EBD340F4A04459E0B0F546
:10309000405F5BD2C0F30B00EAE7B0F5AA4F1BD24A
:1030A000B0F5A84FC3B279D2B0F5A44F07D2B0F5AE
:1030B000A24F59D34AF2F10040EA032438E0B0F5B8
:1030C000A64F61D29808012403F003039C4044EA10
:1030D000401444F40C4434E0B0F5B24F0ED2B0F5D5
:1030E000B04F60D2B0F5AC4FBAD2C0B200F0FEF82B
:1030F000040204F4F85444F4005419E0B0F5B44F59
:1031000056D3A0F5C043B3F5005FA9D2C0F30420A5
:1031100000F0ECF8E4B2000244F4005400F4F8507B
:10312000044305E05B34E4B2274B1C5D44F4804467
:10313000204610BD5834E4B2244B33F8144044F414
:103140008844A4B2F4E7C0F30C04F1E710F4006F74
:10315000C4B214BF44F4484444F44044E8E7C0F324
:103160000B0444F42044E3E703F0030201249440F9
:10317000C0F3011044F40C4444EA0024C3F3810377
:1031800044EA43139CB2D3E79808012403F00303F5
:103190009C4044EA401444F40A44D2E74AF2F4045E
:1031A00044EA0324C4E74AF2F00040EA0424C8E7F2
:1031B00000F00F0000F09AF8C4F3031440EA04246E
:1031C00044F41044BDE700BF60B5000864B50008D2
:1031D00007B5ADF804100199FFF712FFFFF728FFBC
:1031E00003B05DF804FB0000822825D00CD83128FC
:1031F00063D004D8292859D02A2865D070473528AB
:103200004DD0392818D07047E32830D004D8E028B2
:1032100019D0E22826D07047E62832D0E72835D0EA
:10322000E42832D1304B5A7891072ED51B7813F011
:10323000100F08BFE72012E02B4B1B7813F0030F91
:1032400018BFE0207047284A1378D90743D4527832
:1032500012F0010F19D013F0100F08BFE32018BFB0
:1032600000207047204B1B7813F0040FF2E71E4A32
:103270001378590731D45278D20730D413F0100F95
:10328000EDE7194B1B781A07D1D47047164A13780B
:10329000190726D452789207F0D5E420F5E7124BAF
:1032A0001B7813F0200F18BF292070470E4B1B7896
:1032B00013F0200F18BF352070470B4B1B7813F00D
:1032C000400F18BF2A207047074B1B7813F0400FA0
:1032D00018BF3120704739207047E2207047E02046
:1032E0007047E620704700BF242E0020294B1A7833
:1032F000510707D500F01801082927D100F0F70081
:1033000040F00400110707D500F01801182926D154
:1033100000F0E70040F014005B78D90707D500F013
:103320001801082924D100F0F70040F001009907A6
:1033300007D500F01803182B23D100F0E70040F068
:103340001100D30648BF00F0E700704700F01401F9
:10335000042904BF00F0FB0040F00800D2E700F0B1
:103360001401142904BF00F0EB0040F01800D3E76B
:1033700000F01101012904BF00F0FE0040F0080038
:10338000D5E700F01103112B04BF00F0EE0040F070
:103390001800D6E7242E0020002070470020704738
:1033A000014B1860704700BFA0100020FFF7CCBC95
:1033B00008B500F0EBF8642004F059FB00F0E6F8E3
:1033C000002000F031F8C30705D5FFF7EFFFBDE897
:1033D000084003F0E3BC08BD08B5FFF7E9FF08BDEE
:1033E00008B5FFF7BBFC08B9FFF746FDFFF7C0FCC7
:1033F000084B1870FFF7C6FC074B1880FFF7ECFF6F
:10340000FFF7B9FCFEF777FF044B1868BDE80840EA
:10341000FEF78CBF11150020242E00205C14002024
:1034200008B5FEF7B7F908BD014B185C704700BF3F
:103430002E2E00207047012004F019BB00BF00BFF2
:1034400000BF00BF00BF00BF00BF00BF00BF00BF84
:1034500000BF00BF00BF00BF00BF00BF00BF00BF74
:10346000704708B5FFF7E7FF08BD08B5202282F3D3
:103470001188012100F00F03994020F00F0005F0A2
:1034800043FD002383F3118808BD000038B50B4DC0
:10349000002455F82400421C01D0FFF7E6FF013458
:1034A000082CF6D1064D002455F82400431C01D009
:1034B000FFF7DBFF0134062CF6D138BDACB50008B0
:1034C00094B500082DE9F843234F0D4657F8211015
:1034D0000646481C3BD0202383F311884FF0010897
:1034E00021F00F0901F00F0108FA01F421464246CC
:1034F0004846A4B205F008FDA9F81A40002484F358
:103500001188FFF79BFF1548234650F82320511CD4
:103510001FD022F00F0102F00F02096921FA02F216
:10352000D20716D408FA03F149B201332143062B1E
:10353000CCB2EAD157F82500431C01D0FFF795FF24
:10354000211C18BF01212846FFF78BFF7455BDE8E9
:10355000F8830021E9E700BFACB5000894B5000886
:1035600008B5FFF793FF00200649074A0346435476
:10357000835401300828FAD100F032F8BDE8084041
:10358000FEF703BA262E00202E2E002037B5002489
:1035900000940194E1B268460134FFF793FF082CD0
:1035A000F8D10D4D22466946284607F0D3FD002884
:1035B0001DBF6B4603CB012400241CBF286069603B
:1035C000234608220549044800F00CF8FEF7E8F904
:1035D000204603B030BD00BF262E00202E2E002036
:1035E00070470000F8B506460F4615460C4C2BB147
:1035F0000123237003F092FB0A4B1860237853B128
:10360000084B186803F0C4FB042804D90023AB421C
:1036100002DB00232370F8BDF25CFA540133F6E7B5
:10362000121500201415002008B503F013FB03F059
:1036300097FE03F097FE03F0ABFEFFF74FFCFAE7AF
:10364000453807EE900AF8EEE77AB2EE087AC7EE50
:10365000876A08B516EE900AFCF7F2FF9FED080B9B
:1036600041EC110B06F060FC002251EC100B064BF4
:10367000FDF73AF8FDF7E8FA00EE100A08BD00BFC2
:10368000000000000000004000807B4008B545F6C7
:103690001D43984205D18B7873B300F049FB00209D
:1036A00008BD45F61E43984204D18B7823B300F041
:1036B00055FBF4E745F61F43984206D18B78DBB102
:1036C00000F02CF90028F2D1E7E745F62A439842AA
:1036D00009D18B7883B100F095FD002204210748C1
:1036E00000F096F9DBE745F62B43984204D18B783E
:1036F00013B100F08DFDF0E7012008BDA4100020FB
:1037000008B5FFF79DFFBDE8084000F00DBB08B508
:10371000FFF796FFBDE8084000F01EBA00F006B9BA
:1037200070470000F8B5244B1B782DED048B002B5F
:103730003FD1224B1D78002D3BD1214B1B78DB075D
:1037400037D5204E9FED209AD6ED007A1F4F204CA2
:1037500077EEA78A07F016FD07EE900AB8EEE77A33
:10376000B7EE008A27EE097AD7ED007AF0EE486AC4
:10377000E7EE276A66EEA87AC4ED027A07F002FD4A
:1037800007EE900AF8EEE77A97ED007A67EE897A0D
:103790002A46A7EE878A20460321D6ED007A28EE36
:1037A000278A84ED048ABDEC048BBDE8F84000F064
:1037B0002FB9BDEC048BF8BD331500203215002065
:1037C000B02E0020C410002000000030C8100020DF
:1037D000CC100020084B9FED097AD3ED007A67EEFC
:1037E000877A9FED077AF4EEC77AF1EE10FA48BFB8
:1037F000C3ED007A704700BFC41000200938983F1D
:103800000080BB44084B9FED097AD3ED006AC6EEF9
:10381000877A9FED077AF4EEC77AF1EE10FAC8BF07
:10382000C3ED007A704700BFC41000200938983FEC
:1038300000008242054A1078C0F3400383F0010380
:1038400063F341001070C0B2FFF7B7BAB02E00208A
:10385000034B187840F002001870FFF7AEBA00BFB3
:10386000B02E0020034B18786FF341001870C0B2DF
:10387000FFF7A3BAB02E002038B545F62043984292
:1038800004460D460CD18B780BB1FFF7D3FF45F6FC
:1038900024439C4216D1AB78A3B1FFF7B3FF11E0EC
:1038A00045F62143984205D18B78002BEFD0FFF7E6
:1038B000CFFFECE745F6224398421BD18B780BB142
:1038C000FFF7D0FF124B1B7803F00303032B08D143
:1038D000AB7833B1A4F5B8441E3C012C01D9FFF7F5
:1038E00021FF012038BDAB78002BEBD0094B0A4AF1
:1038F0001A60E7E745F625439842F4D045F623439E
:103900009842C4D1AB78002BDCD0FFF763FFD9E736
:10391000B02E0020C41000200000DC43024B1878B9
:1039200000F00100704700BFB02E002038B50D4DEB
:103930002C78ACB90C4B1C7000F016FC0B4B0C49EE
:103940001C700C4B1C700C4B1C800C4B03F1600268
:103950001C8059601C810C339342F9D101232B70D8
:1039600038BD00BFE41000201815002021150020EC
:10397000000080BF221500201E150020502E0020C0
:10398000014B1878704700BF211500200B4B1B78A6
:1039900083420FD9013B1B1A09485BB20C2202FB80
:1039A000030393ED010AB5EEC00AF1EE10FA01D956
:1039B00000F034BC9FED030A704700BF18150020CB
:1039C000502E0020000000000E4B07EE900A1B78DE
:1039D000F8EE676ADFED0C7A9B0166EEA76A07EEE8
:1039E000903AF8EEE77A82B086EEA77ADFED077AB2
:1039F00067EE277AFCEEE77ACDED017ABDF8040098
:103A000002B07047081100200000704200007A44A4
:103A1000244B1B78DB07F7B504460F46154604D444
:103A200003B0BDE8F040FFF781BF1F4B1B780BB917
:103A300000F064F81D4B1B780BB1FFF777FF1C4BB0
:103A4000D4ED017A1B4E01221A701B4A3460002308
:103A500013701A4AFCEEE77A1780194ACDED017A05
:103A60001570184DBDF804002B80FFF7ADFF94EDE5
:103A7000000A00F0D1F803F07FF9134B2A88188070
:103A8000336803EBC203D3ED017AFCEEE77ACDEDA8
:103A9000017ABDF80400FFF797FF0C4B188003B0C4
:103AA000F0BD00BFB02E0020191500202215002007
:103AB000211500204C2E002020150020382E00203B
:103AC000B12E00201A1500201C1500201E15002004
:103AD00008B5074B1B78DB0704D5002206210548F3
:103AE000FFF796FF03F048F9034B188008BD00BFAD
:103AF000B02E00200C1100201C15002010B5124C17
:103B00002378FBB9FFF72AF908B9FFF7B5F9FFF7F2
:103B100051F90E4B18700E4B0E4803F16001002254
:103B20001A8058601A810C338B42F9D123781BB963
:103B300000F0D4FA01232370FFF7F8FEBDE810402F
:103B4000FFF7C6BF10BD00BF19150020B02E002022
:103B5000502E0020000080BFF8B5274DB5EEC00AFA
:103B60002B78F1EE10FA2DED028BB0EE408A48BFB3
:103B7000B1EE408A002B3BD0204B1B780BB9FFF7EE
:103B8000BDFF1F4A07231046D2ED167AB4EE678AAE
:103B9000F1EE10FA27D10C2159430022431842526A
:103BA0001849DFF870E059601A810E4614467345D3
:103BB0000ED1154B01261E70144B1C78013CE4B24B
:103BC0001C70ACB900F0D0FA114B2C701E700FE0D5
:103BD00003F10C0797E807009C8183E807001E614A
:103BE0009C823B46E3E7013B591CA2F10C02CBD17E
:103BF000BDEC028BF8BD00BF221500201915002076
:103C0000502E0020000080BF231500201815002032
:103C1000E4100020A42E00202DE9F0413A4B1B783F
:103C2000DB072DED028B0746B0EE408A47D5374BB8
:103C30001B780BB9FFF762FF354D364E2B78B5EE8A
:103C4000C08AF1EE10FA03EB430248BFB1EE488A96
:103C500003F1FF3806EB8202B8F1FF3F20D10133B8
:103C6000DBB2082B42D82B702B4A012313702B4A4E
:103C700013702B785C1E03F07FF80C236343F2185B
:103C8000F05282ED018A178103F076F8244C254B1F
:103C9000188023789BB100F091FA002323700EE086
:103CA0000C3AD2ED017AF4EE487AF1EE10FA1AD11C
:103CB0000C2404FB08642B78013B984503DBBDEC26
:103CC000028BBDE8F08104F10C0696E8070084E859
:103CD000070003F051F808F10108A08184ED048A7F
:103CE000A7823446E7E708F1FF38B5E708232B70D1
:103CF0000023F41804F10C0207CA0C33542B84E897
:103D00000700F6D1B0E700BFB02E00201915002043
:103D100018150020502E0020231500202215002009
:103D2000E4100020301500204FF6FF70FFF774BF3D
:103D300008B5084B187840F001001870FFF73DF8FF
:103D4000FFF7EEFC002202210348BDE80840FFF720
:103D50005FBE00BFB02E0020F810002008B5002282
:103D600002210948FFF754FE4FF47A7003F07FFEFA
:103D7000FFF7DCFD054B18786FF300001870BDE805
:103D80000840C0B2FFF719B8E8100020B02E00209C
:103D9000674B1A782DE9F3479846664C12B9257897
:103DA000002D70D002F0E8FF27788146F7B9002790
:103DB00098F80030002B00F0B8805F4B1D7825B9D3
:103DC0005E4B1D78002D08BF3D465D4C5D4F0026C3
:103DD0004FF6FD783B789E42C0F295805A4A1378A0
:103DE000002B50D0002111701D464CE0574D584E0D
:103DF000288802F0C6FF33888342D8D8288802F08A
:103E0000C0FFA5F80090534D3488B5F800A00AF122
:103E10000103041B2B8002F0AFFF4F4B18804F4B68
:103E200019882B888B42A4B2A94605D34C4B1D7828
:103E30003DB30023A9F800304A4A4B481378154691
:103E40002BBB0368B9F800C003EBCA0E03EBCC032D
:103E50009EED007AD3ED007AB4EE677AF1EE10FAB7
:103E600015D1012302201370FFF7AEFD9FED3F0A2D
:103E7000FFF7D2FE0220A9F800A0FFF7A5FD3080D1
:103E800096E7FFF753FD284602B0BDE8F087002310
:103E900002682B70B9F8003002EBC303D3ED017A4E
:103EA000FCEEE77ACDED017ABDF80400FFF78CFD5A
:103EB000013984420DD8844222D30124B9F800305C
:103EC00002EBC302204692ED000AFFF7A5FE348004
:103ED0006EE7B9F800308B42EDDA01339BB2A9F8F6
:103EE000003002EBC303D3ED017AFCEEE77A201A2F
:103EF000CDED017A84B2BDF80400FFF765FDD8E787
:103F0000001B84B2DAE72389013B9BB2434509D801
:103F1000208802F036FF2389834203D894ED010AFA
:103F2000FFF71AFE01360C3454E73D4656E700BF52
:103F300022150020211500202D1500202C15002011
:103F4000502E002018150020231500201C150020DD
:103F50001E1500201A15002030150020382E0020D4
:103F6000B12E0020201500204C2E00200000000063
:103F700010B5084C0849204603F0E2FE2046022115
:103F800003F0F0FE032210214FF09040BDE81040F6
:103F900004F0BABF943200203C11002008B5074855
:103FA00003F0EEFE012210214FF0904004F0ACFF30
:103FB0004FF0904310221A8308BD00BF94320020B6
:103FC00008B5114B2DED028BB0EE408A83ED000A4F
:103FD000FFF7E4FFB5EEC08AF1EE10FA10D938EE23
:103FE000088A9FED0A0A0A4B28EE008ABCEEC88AAE
:103FF00083ED008ABDEC028BBDE80840FFF7B8BF37
:10400000BDEC028B08BD00BF2415002000008043DA
:104010003C11002010B5084C0849204603F090FEE2
:104020002046022103F09EFE032220214FF0904003
:10403000BDE8104004F068BFC43200204C110020DD
:1040400008B5074803F09CFE012220214FF0904064
:1040500004F05AFF4FF0904320221A8308BD00BF9E
:10406000C432002008B5114B2DED028BB0EE408A12
:1040700083ED000AFFF7E4FFB5EEC08AF1EE10FA17
:1040800010D938EE088A9FED0A0A0A4B28EE008AFA
:10409000BCEEC88A83ED008ABDEC028BBDE8084007
:1040A000FFF7B8BFBDEC028B08BD00BF281500208C
:1040B000000080434C11002008B5FFF769FE58B19D
:1040C0000020FFF763FCFFF77BFF0020FFF75EFC9B
:1040D000BDE80840FFF7C6BF08BD000038B5184D61
:1040E000184C032210214FF0904004F00DFF284699
:1040F000154903F0E7FD1549154803F021FE032299
:1041000020214FF0904004F0FFFE2046114903F0BB
:10411000D9FD1149114803F013FEAB6A10491A6822
:104120001048136823F002031360A36A1A68136827
:1041300023F400331360BDE8384003F001BE00BF34
:10414000D030002000310020CCB900083C11002004
:1041500094320020D4B900084C110020C432002051
:104160005C110020A432002010B50F4C0F4803F062
:1041700007FE204603F0C5FD40F2FF7200212046F5
:104180000B4C03F0ADFD0B4803F0FAFD204603F0A5
:10419000B8FD204640F2FF72002103F0A1FD064861
:1041A000BDE8104003F0ECBDD03000209432002078
:1041B00000310020C4320020A432002008B50A4A91
:1041C0000A490B484FF4807303F08CFD4FF4807361
:1041D00008490948094A03F085FD02210848BDE85D
:1041E000084003F0BFBD00BFCCB50008DCB9000833
:1041F000D0300020ECB9000800310020CCB7000816
:10420000A4320020014B00221A7070472E150020A6
:10421000014B00221A7070472E150020024B1B78AC
:104220000BB9024A137070472E1500202C15002080
:10423000024B1B780BB1FFF771BA704733150020A2
:1042400008B5FDF79FFA08BD08B5FFF7F1FF044B6D
:10425000044800221A700821BDE80840FFF7D8BBC7
:104260003315002090120020034B0448002208213F
:104270001A70FFF7CDBB00BF321500206C11002073
:1042800010B5FFF7D5FF084A08481378013303F04B
:1042900003031370282404FB030000220521BDE85A
:1042A0001040FFF7B5BB00BFEC110020F01100205B
:1042B000F8B5174B1B7803B3164C2088F0B902F001
:1042C0005BFD2080144C154E2378F3B93278013A07
:1042D000134D14492878CF5C10B1885CFFF717FAAA
:1042E0002B7813B13846FFF70BFA23783178013376
:1042F00093FBF1F201FB12332370F8BD02F041FD94
:10430000094B1B888342DAD3F8BD5A1EE0E700BF91
:10431000451500204A1500204615002044150020B0
:1043200033150020341500201413002070470000BE
:1043300008B5054B054801221A7008210022FFF735
:1043400067FBFFF7F3FF08BD33150020D4120020F0
:104350007047000008B5054B054801221A70082176
:104360000022FFF755FBFFF7F3FF08BD32150020D1
:10437000AC1100202DE9F04345F6264398428BB05E
:10438000054606D18B78002B3ED0FFF7D1FF0020E9
:1043900053E045F62743984205D18B78002B33D064
:1043A000FFF752FFF3E745F62843984206D18B7892
:1043B00053B36B4B1B78002BF2D1E6E745F62C4349
:1043C000984204D18B78FBB1FFF7C4FFDFE745F6D5
:1043D0002D43984204D18B78B3B1FFF745FFD6E760
:1043E00045F62E43984206D18B786BB15D4B1B7816
:1043F000002BF2D1E8E745F62943984204D18B78A7
:1044000013B1FFF73DFFC2E7554B1A7822B9554B60
:104410001B78002B00F0A1808E78002E3DD0E02D7F
:104420000ED1FFF705FF504B01221A704F4B0020B1
:1044300018704F4B18704F4B18700BB0BDE8F083DD
:10444000E22D0BD1FFF7F4FE474B1A7812B1474A21
:104450000121117000201870454BEDE7E32D0FD1BD
:10446000424B1B78CBB1FFF7E3FE3F4B00201870A7
:104470003F4B01221A70404B1870404B1880DCE70C
:10448000522D04D13E4A13880A3B13807FE7512DF9
:1044900003D13B4A13880A33F7E73A4B3A481C7872
:1044A0003A4FDFF8F4C04B7891F800E004BB047891
:1044B000396824340C44062101FB03C313F80E3081
:1044C0001C44E4B2002E42D012B12046FFF718F986
:1044D000254B1B782BB1274A2D491378CC54013337
:1044E00013702846FFF7ACFE80F00100C0B2A4E7CD
:1044F000062101FB03C3047813F80EE03B78254F37
:104500002434E4B20DF1040C07F12009386879680D
:10451000E046A8E8030008374F45C446F6D138887E
:10452000B978A8F8000088F802100721BEFBF1F165
:1045300001EB4100C1EBC1011C44AEEB01010AAB30
:1045400053FA81F104EB800411F8243CB8E7002A07
:10455000C7D02046FFF7DBF8C3E701206DE700BFB7
:104560003315002032150020481500204715002083
:104570004515002044150020461500204A1500204E
:1045800014130020EC11002016130020D01200207C
:1045900034150020F3B2000818B30008194B1B783B
:1045A000D9070AD5184B187800EB8000C0F38F00AC
:1045B0007F2825D810BB012070479A0706D5124BDB
:1045C000187800EB8000C0F34F00F1E75B0704D5DB
:1045D0000D4B187800EB8000EAE70C4B1B7863B1B9
:1045E0000B4A12789342F3D20749087800EB800017
:1045F000584390FBF2F080B2DAE70520C0B2704772
:104600007F207047561500201913002057150020F1
:104610001A130020144B1B78D90705D5134B1878B3
:104620008008F0B9012070479A0703D50F4B18781E
:104630004008F6E75B0705D50C4B18787F28F0D9C2
:104640007F2070470A4B1B7853B10A4A1278934275
:10465000F2D20649087810FB03F090FBF2F0EDE788
:104660000120C0B2704700BF561500201D13002066
:10467000581500201E130020ED2808B505D1FFF7BE
:104680008DFF4042294BD87008BDEE2802D1FFF7BC
:1046900085FFF7E7EF2805D1FFF780FF4042234B66
:1046A000987008BDF02802D1FFF778FFF7E7F928E6
:1046B00004D1FFF7AFFF1D4B187108BDFA2803D1D5
:1046C000FFF7A8FF4042F6E7FB2805D1FFF7A2FF5E
:1046D0004042164B587108BDFC2802D1FFF79AFFE3
:1046E000F7E700F10F03DBB2072B08D80F4A0123CD
:1046F000F13803FA00F053781843507008BDFD28D4
:1047000005D10B4A137843F00103137008BDFE284E
:1047100004D1074A137843F00203F6E7FF28F5D1E6
:10472000034A137843F00403EFE700BF501500205D
:1047300056150020ED28394B16D193F90320002A95
:1047400018DA0022DA7093F9022022B993F90320D3
:104750000AB933490A7093F9042022B993F9053054
:104760000BB9304A13707047EE2810D193F903202B
:10477000002AE6DC00F10F02D2B2072A37D8F1385E
:1047800001228240587820EA02005870DBE7EF28C7
:1047900006D193F90220002AECDA00229A70D2E7BF
:1047A000F02804D193F90220002AF6DCE2E7F92888
:1047B00006D193F90420002ADCDD00221A71C2E739
:1047C000FA2804D193F90420002AD3DAF5E7FB286C
:1047D00006D193F90520002ACCDA00225A71B2E7FB
:1047E000FC28C7D193F90520002AF6DCC2E7FD2892
:1047F00005D10D490A7822F001020A70A3E7FE28CC
:1048000004D109490A7822F00202F6E7FF289AD17A
:1048100005490A7822F00402EFE700BF5015002096
:1048200057150020581500205615002008B502F035
:10483000A3FA0B4B93F9022012B993F903200AB1A2
:10484000084A108093F9042012B993F905300BB18E
:10485000054B18800248BDE8084002F0FFB800BFD1
:10486000501500204C1500204E1500202DE9F04772
:10487000584C94F9028094F9037094F9046094F907
:10488000055094F800A094F801900023A370E37001
:1048900023716371B8F1000F00D157B14E4B1888E6
:1048A00002F06FFA4D490B7853B34D4A127890429B
:1048B00030DC06B95DB14B4B188802F062FA4A4908
:1048C0000B78002B52D0494A1278904258DC94F968
:1048D000023043B994F903302BB994F9043013B979
:1048E00094F905300BB1FFF7A1FF84F800A084F81C
:1048F000019084F80280E77026716571BDE8F08749
:104900003B4A127802EB8202B0EB420FD1DD013359
:104910000B7001E0FF2BFAD1B8F1000F08D0FFF7C0
:104920003DFEB8F1000FCCBF0123FF235843A07018
:104930003FB1FFF733FE002FCCBF0123FF235843C5
:10494000E07094F90220002AB3D094F903100029F2
:10495000AFD0B5235A43121203FB01F308BF012263
:104960001B1208BF0123A270E370A2E7214A12784C
:1049700002EB8202B0EB420FA9DD01330B7001E0C4
:10498000FF2BFAD13EB1FFF745FE002ECCBF01232D
:10499000FF23584320713DB1FFF73CFE002DCCBFF3
:1049A0000123FF235843607194F90420002A8ED01C
:1049B00094F9051000298AD0B5235A43121203FB3B
:1049C00001F308BF01221B1208BF0123227163718A
:1049D0007DE700BF501500204C1500205715002022
:1049E000181300204E150020581500201C1300201D
:1049F000171300201B130020054A00231360938027
:104A0000044A1370044A1370044A1370704700BFBD
:104A1000501500205715002058150020561500206D
:104A20001FB50DF1100E0EE903008DE80C009DF886
:104A300009209DF801309A421FD19DF90A301BB11F
:104A40009DF902209A4218D19DF90B301BB19DF9B6
:104A500003209A4211D19DF90D301BB19DF905201B
:104A60009A420AD19DF90C0020B19DF90430181A20
:104A700018BF012005B05DF804FB0120FAE7000033
:104A800070B50E4D0E4C687966792B7921792A68BC
:104A900043EA002341EA06212068FFF7C1FF002610
:104AA00010B1204601F0DAFFA670E6702368267187
:104AB00066712B60A388AB8070BD00BF5F150020BE
:104AC00059150020024A116892880160828070475F
:104AD0005915002082B08DE80300034ABDF8043068
:104AE0001060938002B070475915002010B500F097
:104AF0006DFA094C094800F021FA094800F01EFA45
:104B0000204600F01BFA074800F018FA00F06CFA93
:104B1000054B1C6010BD00BF00F0030800E0030857
:104B200000E8030800F803086825002038B54FF6B0
:104B3000FE73034003F1006505F578354FF6FF710C
:104B40002A888A4210D10A49CC5AE443A4B294423A
:104B50000CD000F03BFA2146284600F011FA04463A
:104B600000F042FA204638BD002038BD052038BD8F
:104B700066150020F8B5FFF7B9FF00F027FA0C4CD6
:104B80000C4F0D4E052504F17843A3F57833F95AFF
:104B900039B1C94389B2204600F0F2F9052818BF9F
:104BA00005460234B442EED100F01EFA2846F8BDA4
:104BB00000E003086615002000F00308F8B51C4B60
:104BC0001C4F1E5A3A68012E9ABF1B4D0223042324
:104BD000C3F1006394BF45EA4635803803F580236E
:104BE00092BFADB280B24FF460459A4203D9BDE89E
:104BF000F840FFF7BFBF45EA500400F0E7F9386816
:104C00002146831C3B6000F0BBF9B5F5604F0446BC
:104C100009D13868F143831C89B23B6000F0B0F9D8
:104C2000052818BF044600F0DFF92046F8BD00BF94
:104C300066150020682500200080FFFF38B50D4C68
:104C40000D4B22689A42054603D9BDE83840FFF76C
:104C500091BF00F0BBF9094B2068595D41EA05217D
:104C6000831C89B2236000F08BF9044600F0BCF984
:104C7000204638BD68250020FFFF03086615002088
:104C80002049214B2148F0B5214E0D465A889C19E8
:104C90000233D24383420A53F8D11E4A1E4C4FF6C8
:104CA000FF7743F6FE761388BB4206D0180409D47A
:104CB000190A6B540232A242F5D9184B4FF48050B6
:104CC0001A60F0BD03F4C041B1F5C04F0FD1901C84
:104CD000A04215D85188C94389B279B106EA430385
:104CE00080330246B3F5805FE4D2E952E2E759042B
:104CF000E0D4C3F3403106EA4303F3E70246D9E7C1
:104D00000246DAE766150020FEDF0308FEEF03081F
:104D10000220FCF700F00308FFFF030868250020CD
:104D200008B5FFF7E3FEBDE80840FFF7A9BF0000A4
:104D3000B0F5805F10B5044614D20C4B1A5C8A4261
:104D400012D01954FFF7F2FE78B97F2C04D8204610
:104D5000BDE81040FFF772BF24F00100BDE810402D
:104D6000FFF72CBF072010BD002010BD66150020E6
:104D7000B0F5805FF8B505460E4631D210F001035C
:104D80000CD0C9B2FFF7D4FF0446681C310A80B2C8
:104D9000FFF7CEFF052808BF2046F8BD134A175A73
:104DA000B9421FD05153FFF7C1FEF0B97F2D12D881
:104DB000FBB2F2B293420CD02846FFF73FFF044605
:104DC000360AB6EB172F0FD0681C80B2FFF736FFFC
:104DD000E0E70524F4E72846BDE8F840FFF7EEBE1B
:104DE0000720F8BD1846F8BD2046F8BD661500201E
:104DF000B0F5805F3ABF024B185CFF20704700BFE0
:104E00006615002040F6FE7398420BD8074B10F051
:104E1000010F1FBF1A18185C527840EA022008BF21
:104E2000185A70474FF6FF70704700BF6615002094
:104E300080B2FFF7DDBF80B2FFF77ABF80B2FFF725
:104E4000E1BF80B2FFF794BF81B2CB0710B508462F
:104E500010D5FFF7CDFF0446481C80B2FFF7D2FF04
:104E60000246C81C80B2FFF7C3FF000640EA0220DA
:104E7000204310BDFFF7C6FF0446881C80B2FFF731
:104E8000C1FF44EA004010BD38B584B2E3070D46C7
:104E900010D5C9B22046FFF74BFF601CC5F30F21A8
:104EA00080B2FFF765FFE01C290E80B2BDE83840F4
:104EB000FFF73EBF89B22046FFF75AFFA01C290C1E
:104EC00080B2BDE83840FFF753BFFFF7DDBF0000F9
:104ED0000B4BDA68D2070CD4DA6851070BD4DA68C6
:104EE000D2060AD4DB6813F0010F14BF042005209A
:104EF000704701207047022070470320704700BFB1
:104F00000020024073B50446FFF7E2FF0025FF26AC
:104F100001280FD114B9062002B070BD0195019689
:104F2000019B1BB9FFF7D4FF013CF1E7019B013B5B
:104F30000193F5E7002C08BF0620EDE738B50546DC
:104F400040F6FF70FFF7DEFF052815D10B4C2369F3
:104F500043F0020323616561236943F04003236149
:104F600040F6FF70FFF7CEFF06281EBF236923F02F
:104F7000020323613423E36038BD00BF00200240F8
:104F8000104B00F178429A4270B505460E4616D88D
:104F90001F20FFF7B7FF052812D10B4C236943F000
:104FA000010323611F202E80FFF7ACFF06281EBFE0
:104FB000236923F0010323613423E36070BD0720DC
:104FC00070BD00BFFEFF070000200240044B1A69BD
:104FD000120641BF034A5A6002F188325A60704794
:104FE0000020024023016745024A136943F0800311
:104FF000136170470020024030B585B0C0F307232D
:105000000190C0F30740BBB909B1314B185C8DF872
:105010000C008DF80D008DF80E009DF80C3000206E
:1050200063F307009DF80D3063F30F209DF80E30F9
:1050300063F3174005B030BD9DF8042059B32449EF
:10504000085C02EB420402EB4202FF21640094FB85
:10505000F1F404EB4201C9B213FB01F2C1F1FF010B
:10506000C3F1FF054B4312121B12C2F1FF02C3F141
:10507000FF03454342434343C5F30725C2F30722D9
:10508000C3F30723C0B2062C1FD8DFE804F00611D3
:1050900014161B1E060080B2D3E7294602461D46A1
:1050A0000B468DF80C508DF80D208DF80E30B4E7BE
:1050B0002B460546F5E72A46FBE7294603461546F3
:1050C0000A46EEE71A460346EBE713460246E8E7D0
:1050D0007CBB00081FB50121FFF78EFF0346DAB243
:1050E000002062F30700C3F3072262F30F20C3F32B
:1050F000074363F3174005B05DF804FB70471FB525
:10510000FFF7E8FF0346DAB2002062F30700C3F3BB
:10511000072262F30F20C3F3074363F3174005B080
:105120005DF804FB13B58DF802208DF800008DF8B2
:10513000011000981C46FFF7E2FFC0F30743C0F3DD
:10514000072262702070A37002B010BD064A137867
:10515000590804D1012161F34703137070472429D2
:10516000FCDD2421F7E700BFB42E00200820FFF764
:105170006BBE08B5FFF7EAFFBDE80840014608200E
:10518000FFF7A3BE014B1868FFF7F3BFB42E002052
:10519000084B1A78012142F0010261F347021A70AC
:1051A000FF2100225A709970D97018681A71FFF7A0
:1051B000E0BF00BFB42E0020034B1B7813F00100AA
:1051C00018BF5808704700BFB42E0020044A137956
:1051D000022B9CBF0133137108B1FFF7D3BF704797
:1051E000B42E00200120FFF7F1BF0000044A13791C
:1051F0000BB1013B137108B1FFF7C4BF704700BF8B
:10520000B42E00200120FFF7F1BF00F0C3BD000065
:1052100070B5104B104D1B786978104813F00103DE
:1052200006D02B7803EB43031844FFF7EEFF70BD65
:10523000AA78EE7802EB42040444B24204F103047B
:10524000EFD2013204F8023C04F8033C04F8013CBC
:10525000D2B2F2E7B42E002022130020BC2E002090
:105260000E4B1B78DB0770B416D50D4C0D4EA37892
:10527000E57803EB43043444AB4204F1030402D366
:1052800070BCFFF7C5BF013304F8020C04F8031C1F
:1052900004F8012CDBB2EFE770BC7047B42E00209D
:1052A00022130020BC2E0020094B1B78DB0707B51A
:1052B0000AD501ABFFF736FF9DF806209DF80410D4
:1052C0009DF80500FFF7CCFF03B05DF804FB00BFBD
:1052D000B42E002010B5064B0279064904468A5CBC
:1052E00058789978FFF7E0FF23790133237110BDD7
:1052F000B42E002038BA000810B5054B0446DA7801
:1053000099780079FFF7D0FF23790133237110BD1D
:10531000B42E002037B5164C0546207838B9FF2248
:1053200001AB1146FFF7FEFE9DF8053023702B7987
:10533000012B09D004D3022B16D00022104601E025
:1053400020780022114602E0002221781046FFF763
:1053500087FF2B790322013393FBF2F202EB420227
:105360009B1A2B7103B030BD002022780146EEE776
:10537000742500202DE9F04F334C94F800E085B0FF
:105380001EF0010F054688461646019320D04FEACD
:105390005E032E4FDFF8C0C0FF5C8CF800700EF08B
:1053A000FE0EBEF1020F16D103ABFFF7BBFE9DF858
:1053B0000E209DF80C109DF80D00FFF751FF019B8A
:1053C000657084F80280E67013B12068FFF7D1FEA3
:1053D00005B0BDE8F08F022F01D1E678EFE7062F88
:1053E00001D16578EBE7092FFBD0192FE7D1193BE5
:1053F000DBB203F0010200925B08154ADFF85C9013
:1054000012F803A00027CB4699F80420FBB2934280
:1054100002D3FFF7FDFED2E703FB0AF090FBF2F0A8
:10542000009AC0B272B928449BF802201344094A7A
:1054300003EB43031344C0B232464146FFF772FE0A
:105440000137E1E7281AEFE7B42E002013BA00086D
:1054500000BA0008BC2E0020762500202213002070
:1054600010B405494C78CA78897808340346E0B20C
:105470005DF8044BFFF77EBFB42E00200120FFF73C
:10548000EFBF000010B405494C78CA788978083C11
:105490000346E0B25DF8044BFFF76CBFB42E00206A
:1054A0000120FFF7EFBF000010B4074CA178E278AD
:1054B0001131FF2928BFFF210346C9B260785DF88A
:1054C000044BFFF757BF00BFB42E00200120FFF7A9
:1054D000EBBF000010B4064CA178E278113921EA44
:1054E000E1710346C9B260785DF8044BFFF742BF33
:1054F000B42E00200120FFF7EDBF000010B4074CD0
:10550000E278A1781132FF2A28BFFF220346D2B2E7
:1055100060785DF8044BFFF72DBF00BFB42E00206C
:105520000120FFF7EBBF000010B4064CE278A17831
:10553000113A22EAE2720346D2B260785DF8044B77
:10554000FFF718BFB42E00200120FFF7EDBF0023A6
:10555000FFF710BF2DE9F041144EDFF85880144FCB
:10556000044600253179E8B2884205F101050CD3E3
:10557000FFF74EFEA37813F0010F237914BF013318
:1055800003F1FF332371BDE8F081B378FF2292FB72
:10559000F1F22179034403EB430302FB001043447F
:1055A000FA78B978C0B2FFF7BDFDDBE7221300201F
:1055B000B42E0020BC2E00202DE9F74F8378304E0A
:1055C000304D13F0010F0CBF01234FF0FF33009358
:1055D0004FF0000933795FFA89F843450CD8FFF79B
:1055E00017FE009B012B2B7842D103B93379013B85
:1055F0002B7003B0BDE8F08FB378234ADFF88CB08E
:10560000434403EB430303EB020A00248AF80140FE
:105610009C549DF800308AF80240019304272A78B0
:105620002244D2B253B2092B1CDD092293FBF2F2C1
:1056300002EBC2029B1A5BB298450BD19BF8032088
:105640009BF802109BF801007A435346C2F387028D
:10565000FFF768FD019B013F1C44E4B2DFD109F173
:105660000109B7E7002BE7DA054B1B791344E2E7A2
:105670003179013393FBF1F201FB1233B8E700BF3C
:105680002213002075250020BC2E0020B42E0020FF
:105690002DE9F8432B4C2C4DA378E07803EB430223
:1056A0002A440021834202F1030220D3274EDFF86F
:1056B000A090DFF8A48000272179FAB28A421FD394
:1056C000FFF7A6FD224D23482A78017833780A4453
:1056D00052B20B445BB2002A33702A7003DD227988
:1056E000013A934201DB49420170BDE8F88301337E
:1056F00002F8021C02F8031C02F8011CDBB2D1E71D
:1057000092FBF1F301FB1323A1780B4496F90010EF
:10571000DBB28A4203EB43030EDB99F900108A42A5
:105720000ADC2B4498F8032098F8021098F801003E
:10573000FFF7F8FC0137BFE7E91800224A70EA5486
:105740008A70F7E722130020BC2E0020732500206A
:105750001F13002020130020B42E00202DE9F04755
:105760000379DFF8A080DFF8A0A013FB03F25A430F
:10577000C3F12003552503FB03F103FB012355432C
:10578000B5FBF3F5EDB2292D88BFC5F155044FF0F7
:10579000020394BFA5EB8504A4EB840494FBF3F40B
:1057A000013C0646E4B20027C14698F80420FBB24B
:1057B0009A420BD8FFF72CFD3379104AD3B9012157
:1057C0001170127813443371BDE8F0879A0799F885
:1057D00002200B49134458BFC5F1550003EB4303A6
:1057E00054BFC0B22846534422468978FFF79AFC3A
:1057F0000137DAE7202BE4D1FF21E1E72113002074
:10580000B42E002022130020BC2E00202DE9F041F0
:10581000134FDFF85480134C064600253A79954221
:1058200008DBFFF7F5FC3379013303F00103337133
:10583000BDE8F081BB782B4403EB4303B5EB520F7B
:105840004344327907DA42B1E278A1786078FFF711
:1058500069FC0135E2E7002AF6D00022F5E700BF37
:1058600022130020B42E0020BC2E002008B5094BC6
:105870001A786FF300021A701868FFF77AFC064B6B
:1058800000224FF4FA705A7002F0F1F8BDE80840B7
:10589000FFF7BEBCB42E00207625002008B5084BCB
:1058A000084819780B224908FBF7AAFB10B9064BE8
:1058B00001225A7001F060FA044B188008BD00BF45
:1058C000B42E002027130020762500206C25002010
:1058D00010B5164C2378DA0726D5D8B9012262F321
:1058E0004703237011B12068FFF743FC217810486B
:1058F0000B224908FBF784FB98B10E4B00225A702B
:105900000D4BA17860780122DA70E278BDE8104092
:10591000FFF71DBE242801D92422E0E760F34703E6
:10592000DFE7FFF7BBFFEBE710BD00BFB42E0020A1
:1059300027130020762500206C250020054B1B78BE
:105940005B080133252B014634BF18460120FFF7C1
:10595000BFBF00BFB42E00200120FFF7EFBF000043
:10596000064B1B78C3F34603013B13F0FF030146CC
:1059700014BF18462420FFF7ABBF00BFB42E002091
:105980000120FFF7EDBF0121FFF7A2BF034B1878FD
:1059900040F0010018704008FFF7F5BFB42E00205A
:1059A000034B1B78DB0701D5FFF760BFFFF7EEBFA6
:1059B000B42E00200021FFF78BBF000038B5124D38
:1059C0002A78FAB9FDF7CAF918B9FDF755FAFFF7C1
:1059D000DFFBFFF7CBFB0D4C10F0FE0F206004D176
:1059E000FFF7D6FBFFF7C2FB2060FFF7AFFB084BCA
:1059F000207800225A70C30702D54008FFF7DAFF6B
:105A000001232B7038BD00BF72250020B42E00206A
:105A1000762500202D4B5A782DE9F041002A53D0ED
:105A20001A782B4B2B4E1B78C2EB5303DBB2022AA6
:105A3000B3701AD1284A294CD55CF3782BB10027D2
:105A4000F77001F099F9B780308001F095F933884B
:105A5000C01A80B247F6FE72904235D81D44358098
:105A600023461C48BDE8F0411847062A03D11C4ACA
:105A70001C4CD55CE1E7092A04D15B081A4A1B4C8F
:105A8000D55CDAE70F2A04D15B08194A194CD55CBA
:105A9000D3E7152A03D1184A184CD55CCDE7182A4C
:105AA0000FD0232A03D1164B164C1D88C5E7164B81
:105AB000164C242A12BF4FF4FA654FF4FA751C46AF
:105AC000BBE72825124CB8E7BDE8F0817625002019
:105AD000B42E00206C250020FCB90008D552000827
