:020000040800F2
:10000000000400203D0300083F0300083F030008F0
:100010003F0300083F0300083F0300083F030008B8
:100020003F0300083F0300083F030008657B00080A
:100030003F0300083F0300083F0300083F03000898
:100040003F0300083F0300083F0300083F03000888
:100050003F0300083F0300080185000841850008B0
:1000600085850008C98500080D860008DD8D00081B
:10007000F18D0008058E0008198E00082D8E0008ED
:10008000418E0008558E00083F0300083F0300081A
:100090003F0300083F0300083F03000851860008A3
:1000A00055880008698800086D8800087188000874
:1000B0000D9800082994000821980008399000083C
:1000C000499100083F0300083F0300083F03000870
:1000D0003F0300083F0300083F0300083F030008F8
:1000E000398700083F0300083F0300083F0300086A
:1000F0001D9600083F0300083F0300083F03000867
:100100003F0300083F0300083F0300083F030008C7
:100110003F0300083F030008F59500080996000812
:10012000698E00087D8E0008918E0008A58E00085B
:10013000B98E00083F0300083F0300083F03000892
:100140003F0300083F0300083F0300083F03000887
:100150003F0300083F0300083F0300083F03000877
:100160003F0300083F0300083F03000871980008A0
:100170003F0300083F0300083F0300083F03000857
:100180003F0300083F0300083F0300083F03000847
:100190003F0300083F0300083F0300083F03000837
:0801A000D5010008B1010008BF
:1001B00010B5054C237833B9044B13B10448AFF3A1
:1001C00000800123237010BD5811002000000000A2
:1001D00050C100080C4B43B10C480D4910B5AFF3AA
:1001E00000800C48036823B910BD0A48036833B97E
:1001F0007047094B002BF7D0BDE810401847064B5D
:10020000002BF5D0184700BF0000000050C10008C7
:100210005C110020581100200000000072B639481F
:1002200080F30888384880F3098838484EF608512A
:10023000CEF20001086040F20000CCF200004EF661
:100240003471CEF200010860BFF34F8FBFF36F8FA0
:1002500040F20000C0F2F0004EF68851CEF20001EC
:100260000860BFF34F8FBFF36F8F4FF00000E1EED8
:10027000100A4EF63C71CEF200010860062080F3B1
:100280001488BFF36F8F07F02DF907F04BF84FF08C
:1002900055301F491B4A91423CBF41F8040BFAE715
:1002A0001C49194A91423CBF41F8040BFAE71A492C
:1002B0001A4A1B4B9A423EBF51F8040B42F8040BFA
:1002C000F8E700201749184A91423CBF41F8040B57
:1002D000FAE707F00BF907F006F9144C144DAC429D
:1002E00003DA54F8041B8847F9E703F08BF9114C43
:1002F000114DAC4203DA54F8041B8847F9E707F0C4
:10030000F3B8000000040020000C002000000008EA
:10031000000000200004002050C10008000C002054
:100320005811002058110020D4300020A0010008EE
:10033000A4010008A4010008A80100086EE700F06D
:1003400000F8FEE72DE9F04F2DED108AC1F80CD032
:10035000C3689D46BDEC108ABDE8F08F002383F38F
:1003600011882846A047002007F06CFBFEE707F045
:10037000D1FA00DFFEE7000081F0004102E000BF9B
:1003800083F0004330B54FEA41044FEA430594EA55
:10039000050F08BF90EA020F1FBF54EA000C55EA90
:1003A000020C7FEA645C7FEA655C00F0E2804FEA61
:1003B0005454D4EB5555B8BF6D420CDD2C4480EA43
:1003C000020281EA030382EA000083EA010180EA73
:1003D000020281EA0303362D88BF30BD11F0004FC1
:1003E0004FEA01314FF4801C4CEA113102D04042F7
:1003F00061EB410113F0004F4FEA03334CEA133332
:1004000002D0524263EB430394EA050F00F0A78049
:10041000A4F10104D5F1200E0DDB02FA0EFC22FA44
:1004200005F2801841F1000103FA0EF2801843FA38
:1004300005F359410EE0A5F120050EF1200E012A29
:1004400003FA0EFC28BF4CF0020C43FA05F3C01867
:1004500051EBE37101F0004507D54FF0000EDCF1E0
:10046000000C7EEB00006EEB0101B1F5801F1BD389
:10047000B1F5001F0CD349085FEA30004FEA3C0C8D
:1004800004F101044FEA445212F5800F80F09A8083
:10049000BCF1004F08BF5FEA500C50F1000041EB87
:1004A000045141EA050130BD5FEA4C0C404141EB8B
:1004B000010111F4801FA4F10104E9D191F0000FB2
:1004C00004BF01460020B1FA81F308BF2033A3F135
:1004D0000B03B3F120020CDA0C3208DD02F1140C2C
:1004E000C2F10C0201FA0CF021FA02F10CE002F167
:1004F0001402D8BFC2F1200C01FA02F120FA0CFC60
:10050000DCBF41EA0C019040E41AA2BF01EB0451A8
:10051000294330BD6FEA04041F3C1CDA0C340EDCA6
:1005200004F11404C4F1200220FA04F001FA02F3E9
:1005300040EA030021FA04F345EA030130BDC4F1A7
:100540000C04C4F1200220FA02F001FA04F340EA9C
:100550000300294630BD21FA04F0294630BD94F04D
:10056000000F83F4801306BF81F480110134013D34
:100570004EE77FEA645C18BF7FEA655C29D094EAA5
:10058000050F08BF90EA020F05D054EA000C04BF23
:100590001946104630BD91EA030F1EBF002100200E
:1005A00030BD5FEA545C05D14000494128BF41F0AD
:1005B000004130BD14F580043CBF01F5801130BD11
:1005C00001F0004545F0FE4141F470014FF000009C
:1005D00030BD7FEA645C1ABF194610467FEA655C4D
:1005E0001CBF0B46024650EA013406BF52EA0335EF
:1005F00091EA030F41F4002130BD00BF90F0000FDD
:1006000004BF0021704730B54FF4806404F1320418
:100610004FF000054FF0000150E700BF90F0000FD1
:1006200004BF0021704730B54FF4806404F13204F8
:1006300010F0004548BF40424FF000013EE700BFC8
:1006400042004FEAE2014FEA31014FEA02701FBF58
:1006500012F07F4393F07F4F81F06051704792F02A
:10066000000F14BF93F07F4F704730B54FF46074A4
:1006700001F0004521F0004120E700BF50EA0102EF
:1006800008BF704730B54FF000050AE050EA01029C
:1006900008BF704730B511F0004502D5404261EB0C
:1006A00041014FF4806404F132045FEA915C3FF44D
:1006B000DCAE4FF003025FEADC0C18BF03325FEAE6
:1006C000DC0C18BF033202EBDC02C2F1200300FA9B
:1006D00003FC20FA02F001FA03FE40EA0E0021FAC0
:1006E00002F11444C1E600BF70B54FF0FF0C4CF4AA
:1006F000E06C1CEA11541DBF1CEA135594EA0C0F60
:1007000095EA0C0F00F0DEF82C4481EA030621EA9A
:100710004C5123EA4C5350EA013518BF52EA0335D5
:1007200041F4801143F4801338D0A0FB02CE4FF087
:100730000005E1FB02E506F00042E0FB03E54FF0B7
:100740000006E1FB03569CF0000F18BF4EF0010EAF
:10075000A4F1FF04B6F5007F64F5407404D25FEAAB
:100760004E0E6D4146EB060642EAC62141EA55515E
:100770004FEAC52040EA5E504FEACE2EB4F1FD0CA0
:1007800088BFBCF5E06F1ED8BEF1004F08BF5FEA1E
:10079000500E50F1000041EB045170BD06F00046D0
:1007A00046EA010140EA020081EA0301B4EB5C047D
:1007B000C2BFD4EB0C0541EA045170BD41F4801175
:1007C0004FF0000E013C00F3AB8014F1360FDEBF9A
:1007D000002001F0004170BDC4F10004203C35DA76
:1007E0000C341BDC04F11404C4F1200500FA05F3F9
:1007F00020FA04F001FA05F240EA020001F000429A
:1008000021F0004110EBD37021FA04F642EB06010F
:100810005EEA430E08BF20EAD37070BDC4F10C0439
:10082000C4F1200500FA04F320FA05F001FA04F2FD
:1008300040EA020001F0004110EBD37041F10001E9
:100840005EEA430E08BF20EAD37070BDC4F12005F4
:1008500000FA05F24EEA020E20FA04F301FA05F25C
:1008600043EA020321FA04F001F0004121FA04F204
:1008700020EA020000EBD3705EEA430E08BF20EAD4
:10088000D37070BD94F0000F0FD101F0004640000E
:1008900041EB010111F4801F08BF013CF7D041EA90
:1008A000060195F0000F18BF704703F00046520094
:1008B00043EB030313F4801F08BF013DF7D043EA65
:1008C0000603704794EA0C0F0CEA135518BF95EA1B
:1008D0000C0F0CD050EA410618BF52EA4306D1D1A2
:1008E00081EA030101F000414FF0000070BD50EAC1
:1008F000410606BF1046194652EA430619D094EA4B
:100900000C0F02D150EA013613D195EA0C0F05D134
:1009100052EA03361CBF104619460AD181EA030188
:1009200001F0004141F0FE4141F470014FF0000040
:1009300070BD41F0FE4141F4780170BD70B54FF0DB
:10094000FF0C4CF4E06C1CEA11541DBF1CEA13555B
:1009500094EA0C0F95EA0C0F00F0A7F8A4EB05043D
:1009600081EA030E52EA03354FEA013100F0888034
:100970004FEA03334FF0805545EA131343EA1263FD
:100980004FEA022245EA111545EA10654FEA0026B2
:100990000EF000419D4208BF964244F1FD0404F56B
:1009A000407402D25B084FEA3202B61A65EB0305C7
:1009B0005B084FEA32024FF480104FF4002CB6EB84
:1009C000020E75EB030E22BFB61A754640EA0C0004
:1009D0005B084FEA3202B6EB020E75EB030E22BF44
:1009E000B61A754640EA5C005B084FEA3202B6EB85
:1009F000020E75EB030E22BFB61A754640EA9C0044
:100A00005B084FEA3202B6EB020E75EB030E22BF13
:100A1000B61A754640EADC0055EA060E18D04FEAD1
:100A2000051545EA16754FEA06164FEAC30343EA71
:100A300052734FEAC2025FEA1C1CC0D111F4801F3E
:100A40000BD141EA00014FF000004FF0004CB6E737
:100A500011F4801F04BF01430020B4F1FD0C88BFD6
:100A6000BCF5E06F3FF6AFAEB5EB030C04BFB6EBE1
:100A7000020C5FEA500C50F1000041EB045170BDD4
:100A80000EF0004E4EEA113114EB5C04C2BFD4EB01
:100A90000C0541EA045170BD41F480114FF0000E85
:100AA000013C90E645EA060E8DE60CEA135594EA01
:100AB0000C0F08BF95EA0C0F3FF43BAF94EA0C0F04
:100AC0000AD150EA01347FF434AF95EA0C0F7FF479
:100AD00025AF104619462CE795EA0C0F06D152EACD
:100AE00003353FF4FDAE1046194622E750EA4106B1
:100AF00018BF52EA43067FF4C5AE50EA41047FF4C2
:100B00000DAF52EA43057FF4EBAE12E74FF0FF3C26
:100B100006E000BF4FF0010C02E000BF4FF0010CF7
:100B20004DF804CD4FEA410C7FEA6C5C4FEA430C70
:100B300018BF7FEA6C5C1BD001B050EA410C0CBFBF
:100B400052EA430C91EA030F02BF90EA020F002021
:100B5000704710F1000F91EA030F58BF994208BF88
:100B600090422CBFD8176FEAE37040F00100704745
:100B70004FEA410C7FEA6C5C02D150EA013C07D19C
:100B80004FEA430C7FEA6C5CD6D152EA033CD3D0E7
:100B90005DF8040B704700BF8446104662468C46E1
:100BA0001946634600E000BF01B5FFF7B7FF002814
:100BB00048BF10F1000F01BD4DF808EDFFF7F4FF3D
:100BC0000CBF012000205DF808FB00BF4DF808EDC8
:100BD000FFF7EAFF34BF012000205DF808FB00BFEB
:100BE0004DF808EDFFF7E0FF94BF012000205DF80D
:100BF00008FB00BF4DF808EDFFF7CEFF94BF0120C2
:100C000000205DF808FB00BF4DF808EDFFF7C4FFBA
:100C100034BF012000205DF808FB00BF4FEA410C03
:100C20007FEA6C5C02D150EA013C0AD14FEA430CE6
:100C30007FEA6C5C02D152EA033C02D14FF0000023
:100C400070474FF0010070474FEA4102B2F1E043B4
:100C500024BFB3F5001CDCF1FE5C0DD901F0004CA3
:100C60004FEAC0024CEA5070B2F1004F40EB8300F3
:100C700008BF20F00100704711F0804F21D113F11F
:100C80003872BCBF01F00040704741F480114FEA58
:100C90005252C2F11802C2F1200C10FA0CF320FAE1
:100CA00002F018BF40F001004FEAC1234FEAD323FE
:100CB00003FA0CFC40EA0C0023FA02F34FEA430368
:100CC000CCE77FEA625307D150EA01331EBF4FF0F1
:100CD000FE4040F44000704701F0004040F0FE400C
:100CE00040F40000704700BF53B94AB9002908BF5B
:100CF00000281CBF4FF0FF314FF0FF3000F07AB9F1
:100D0000ADF1080C6DE904CE00F006F8DDF804E062
:100D1000DDE9022304B070472DE9F0478C460D460B
:100D20000446089E002B51D18A4217466DD9B2FA6B
:100D300082FEBEF1000F0BD0CEF1200C01FA0EF5B1
:100D400020FA0CFC02FA0EF74CEA050C00FA0EF43D
:100D50004FEA174A250CBCFBFAF81FFA87F90AFB81
:100D600018CC45EA0C4508FB09F3AB420AD9ED194A
:100D700008F1FF3280F02381AB4240F22081A8F1DC
:100D800002083D44ED1AA4B2B5FBFAF00AFB105577
:100D900044EA054400FB09F9A14509D9E41900F129
:100DA000FF3380F00A81A14540F2078102383C44BC
:100DB000A4EB090440EA08400021002E61D024FA87
:100DC0000EF4002334607360BDE8F0878B4207D9CE
:100DD000002E54D0002186E821000846BDE8F087A7
:100DE000B3FA83F1002940F08E80AB4202D38242F5
:100DF00000F2FA80841A65EB03050120AC46002E50
:100E00003FD086E81010BDE8F08712B90127B7FB84
:100E1000F2F7B7FA87FEBEF1000F34D1EB1B3A0CA4
:100E20001FFA87FC0121B3FBF2F8250C02FB1833F3
:100E300045EA03450CFB08F3AB4207D9ED1908F16D
:100E4000FF3002D2AB4200F2D1808046ED1AA3B24D
:100E5000B5FBF2F002FB105543EA05440CFB00FC25
:100E6000A44507D9E41900F1FF3302D2A44500F2EA
:100E7000B8801846A4EB0C0440EA08409DE73146D0
:100E80003046BDE8F087CEF1200405FA0EF307FAEC
:100E90000EF720FA04F83A0C25FA04F448EA03089D
:100EA000B4FBF2F14FEA184502FB11441FFA87FC2C
:100EB00045EA044501FB0CF3AB4200FA0EF409D9F4
:100EC000ED1901F1FF3080F08A80AB4240F287805B
:100ED00002393D44EB1A1FFA88F5B3FBF2F002FB2E
:100EE000103345EA034500FB0CF3AB4207D9ED197B
:100EF00000F1FF386FD2AB426DD902383D44EB1A96
:100F000040EA01418FE7C1F1200722FA07F88B4040
:100F100005FA01F448EA030320FA07FE4FEA134CEE
:100F2000FD404EEA040EB5FBFCF94FEA1E440CFBF3
:100F300019551FFA83F844EA054509FB08F4AC4249
:100F400002FA01F200FA01FA08D9ED1809F1FF30AE
:100F500043D2AC4241D9A9F102091D442D1B1FFA0D
:100F60008EFEB5FBFCF00CFB10554EEA054400FB71
:100F700008F8A04507D9E41800F1FF3529D2A045AB
:100F800027D902381C4440EA0940A4EB0804A0FB1E
:100F900002894C45C6464D4615D312D056B1BAEB20
:100FA0000E0364EB050404FA07F7CB401F43CC4063
:100FB000376074600021BDE8F0871846F8E6904677
:100FC000E0E6C245EAD2B8EB020E69EB0305013850
:100FD000E4E72846D7E7404691E78146BEE7014669
:100FE00078E702383C4445E7084608E7A8F10208DC
:100FF0003D442BE7704700BF0000000000000000E8
:1010000001F0FF01102A2BDB10F0070F08D010F8B9
:10101000013B013A8B422DD010F0070F42B3F6D1BD
:10102000F0B441EA012141EA014122F007047FF0D6
:1010300000070023F0E80256083C85EA010586EA2D
:10104000010685FA47F5A3FA87F586FA47F6A5FA69
:1010500087F68EB9EED1F0BC01F0FF0102F0070275
:1010600032B110F8013B013A83EA010313B1F8D120
:101070000020704701387047002D06BF3546033801
:10108000073815F0010F07D1013015F4807F02BF3A
:10109000013015F4C03F0130F0BC0138704700BF8B
:1010A000082823D8DFE800F02D05070A0F14191EC1
:1010B000200001207047144B18787047134B1878A4
:1010C00000F001007047114B1878C0F340007047E2
:1010D0000E4B1878C0F3800070470C4B1878C0F3A3
:1010E000C00070470A4BEAE7094BEDE701230938D6
:1010F00003FA00F0074B1B68184214BF01200020C0
:1011000070470020704700BF741100207C11002040
:10111000751100207811002070B5294A294C1078EB
:10112000FFF7BEFF06465078FFF7BAFF05469078F6
:10113000FFF7B6FF0146D078FFF7B2FF22781ABB5F
:10114000214B334403EB450303EB81031F4D13F89D
:1011500030002B782BB91E4E3178013101F003019C
:1011600031700133032193FBF1F101EB41015B1A73
:1011700018492B700B78013303F00F030B70164BDB
:10118000196800EB4100186014490132087802F038
:1011900001022270FFF784FF02464878FFF780FFC4
:1011A00004468878FFF77CFF800000EB440002448F
:1011B000C878D2B2FFF774FF02EBC000C0B270BDB6
:1011C000040C002074110020080C0020761100206F
:1011D000751100207C11002078110020000C0020E7
:1011E00005F034BB1FB504AA002302F8043D6423B4
:1011F0000093F9210123142005F0C6FB9DF80C0093
:1012000000F0010005B05DF804FB13B500248DF873
:1012100001008DF802108DF803208DF804300522AE
:101220006423694614208DF8004005F035FB02B0B8
:1012300010BD07B56423009302460B461420042119
:1012400005F0A2FB03B05DF804FB13B500230446D0
:101250000521684600938DF80430FFF7EAFF9DF8FA
:1012600003309DF802209DF801009DF80010D21A6D
:101270009DF804306280091ADA09204603F0010360
:1012800021802271637102B010BD7FB504AD0024CE
:1012900045F8044D64230093064604232A4621465C
:1012A000142005F071FB2346EA5C02B1EE540133D1
:1012B000042BF9D16422009200212A46142005F063
:1012C0001BFB04B070BD13B58DF805108DF806201A
:1012D0008DF80400019803F0EDFEC0F30722C1B2BF
:1012E000C0F3074081420B4628BF03469342A8BF84
:1012F0001346C01AD41AC91AC2B2C9B2E0B202B0B7
:10130000BDE81040FFF781BF00F02CB8054B00226C
:101310001A60CC221A70DC229A70C2225A701868A5
:1013200001F044BD602B002008B501F03CFD094BE5
:101330001860094B0246C0B21870084BC2F307414F
:101340001970074BC2F307221A70BDE80840FFF777
:10135000BABF00BF602B0020280C0020290C002001
:101360002A0C0020FFF73CBF0020FFF78EBF0000D3
:10137000034B00221B7811461046FFF746BF00BF03
:101380002A0C0020B1F900307F2B05DD7F2303708C
:101390000B887F3B0B80704713F17F0FBDBF81230C
:1013A00003700B880370B4BF7F330023F2E70000A3
:1013B0002DE9FF41684603F075FBFFF713FF6E460A
:1013C000664F58B3664CB4F9000010BB05F0C4FC7E
:1013D00040F00100208002A8FFF737FF9DF80D3094
:1013E0009DF80C20002B30D15E4BBDF90A401B78D4
:1013F000002B3BD05C4B1A7802EB4402D2B21A703D
:101400005A4B197842F00102594B1878FFF75BFFED
:1014100004E080B205F0A5FC0528D7D8554DDFF8CB
:101420006881554CB7F90030002B7DD1B5F90030FB
:10143000002B79D1B8F90030002B75D1B4F9003008
:10144000002B71D104B0BDE8F0819DF8013052B19C
:1014500043F001038DF8013096E8030003F02AFB06
:1014600003F0FEFADAE723F00103F3E7434B1B78BE
:1014700053B13E4B197801EB4401C9B219703A4B94
:1014800041F001011A78BFE73D4B1B785BB1384B47
:1014900018782044C0B21870334B1A78334B40F0A0
:1014A00001001978B2E7374BBDF908501B7843B1FA
:1014B000354A13881D44304B15801A88141B1C8034
:1014C000ACE70DB9002CA9D0002AA7D12F4BB3F956
:1014D0000020984632B9032000F032FF10B90520F1
:1014E00000F03CFF05F038FCEB0F002DD4BF5B4251
:1014F000C3F101036D43AD0013FB05F53B881D4AA5
:101500001D44E30F002CD4BF5B42C3F101036443CD
:10151000A40013FB04F413883D8040F001001C4438
:10152000A8F80000148079E70DF102000B49FFF7DD
:1015300029FF29460DF10300FFF724FF214601A8EA
:10154000FFF720FF41460DF10500FFF71BFF96E86E
:10155000030003F0AFFA03F083FA63E7921100206F
:101560008C110020901100202A0C0020290C002052
:10157000280C0020941100208E1100208A110020D8
:10158000801100208B1100207E110020841100208A
:101590002DE9F041064600F07EFA431E0546274C31
:1015A000042B3FD8DFE803F00303303438002278FF
:1015B000FF218020224FFFF786FE3A78042A1AD1B5
:1015C000042D18D01F4B20785A781F4982421F4A99
:1015D00009D193F800E00C78A64504D193F802E015
:1015E0001478A64507D009781278587019709A7047
:1015F000186801F0DBFB3D70304604230222012114
:10160000BDE8F04100F0A0B92278FF211C20D1E70D
:101610002278FF21AA20CDE70C4B227819780A4BBB
:101620001878C7E72278084B1E2A1878074BC8BFDE
:101630001E3A1978CCBFD2B20022BBE72A0C002098
:1016400081110020602B0020280C0020290C002094
:1016500008B545F66553984254D018D844F20103B2
:10166000984242D004D8B0F5804F27D0012008BD61
:1016700045F6635398421AD045F664539842F5D123
:101680008B78F120002B40D000F076FAEEE745F69B
:101690006753984245D03BD345F6685398423DD0B6
:1016A00045F669539842E1D18A781F4B32E08B7836
:1016B000002BDBD0002000F031F9D7E78B7913F055
:1016C000F00F8B780CD073B1032000F039FE18B105
:1016D000032000F04DFEC9E7032000F03FFEC5E700
:1016E0000BB10120F9E70120F3E78B7913F0F00F3C
:1016F0008B7803D0002BE7D10220EAE7002BFBD048
:101700000220EAE78B78F220BCE700F0C1FAADE7EF
:101710008A78064B02B101221A70A7E78A78044B37
:10172000F8E78A78034BF5E7801100208B11002041
:101730008A11002090110020A0F5A2400138012854
:1017400094BF00200120704770B52B4CB4F9000005
:101750008AB080B180B205F004FBB0F57A7F0AD977
:1017600001A803F09FF99DF80550002D3BD10520FD
:1017700000F0FEFD2580214B214D1C782B88002C8C
:1017800033D03BBB1F4B01AA03F1200618685968F0
:10179000144603C40833B3422246F7D119889B7814
:1017A000A3702180FFF7B8FC0AAB1844164B10F861
:1017B000244C1B78154E1C443078E4B2844209D086
:1017C00001F02EFF02F0B8F9204601F029FF02F0E7
:1017D0009BFA34700E4A2B881188013393FBF1F287
:1017E00001FB12332B800AB070BD002BFBD002F03E
:1017F0008DF82C80F7E700BF8411002088110020AD
:1018000086110020B0B20008240C002082110020B4
:10181000260C002038B50546642006F018F902F0C1
:101820009FF8114C80B915F002020FD0227812F007
:10183000020209D119210D4802F0DAF80C4B1A788E
:10184000FF215520FFF73FFD257038BD23789B070A
:10185000FAD50A21074802F0CBF8054B1A78064B57
:101860001978064B1878EDE7891100207C0C0020D0
:101870002A0C00202C0C0020290C0020280C002011
:101880000120704708B5FFF7E3FE08BD704708B5B3
:10189000FFF7FCFF08BD000013B502AB03E903002E
:1018A0000F4B1B78B3B99DF80230009873B16AB141
:1018B00000F0D4FD04460146009800F089FD00992F
:1018C000204602B0BDE8104001F088BB00F0A6FD44
:1018D0000446F4E7009800F0C1FD0099F1E700BF6D
:1018E00096110020034600890A4618B9186899889D
:1018F000FFF7D2BF704710B501210446FFF7F2FF92
:101900002146BDE8104004F02DBE10B5002104466C
:10191000FFF7E8FF2146FFF7BAFF10BD38B50546CF
:101920000848012400EBC510AC400022102102F051
:101930005FF8E0B201F010FA2046BDE8384000F050
:10194000C8BC00BF440D002010B5012404FA02F207
:1019500004FA01F1114304FA03F331EA00020CBF67
:101960001843984310BD08B501F028FD00F0B7F802
:1019700002F0B4F8BDE80840FFF7C6BC08B502F0B5
:1019800087FC04F0A1FD002004F01EFABDE8084029
:1019900001F034BD7047000010B500F03FFC02F0CC
:1019A00037FC05F0D9F9002204460321094802F06A
:1019B0001FF8FFF7EFFF204605F0D3F9F92805D906
:1019C00001F0A4FFBDE8104005F0D8B90A2006F0E8
:1019D0003EF8F0E7C40D002038B501210546FFF7B9
:1019E00081FF2946044601F037FF08B9002038BDC1
:1019F00029462046FFF746FF0028F7D02946204613
:101A000001F034FE0028F1D02946204602F0A2FC65
:101A10000028EBD02946204604F08AFA0028E5D0B9
:101A20002946204604F0D4FA0028DFD02946204673
:101A300004F000FC0028D9D02946204604F072F8B2
:101A40000028D3D0AB785BB145F65B539C421CD0E9
:101A50000AD8B4F5B84F12D045F6DF439C4211D0F6
:101A60002846FFF70DFF38BD45F65C539C420FD06A
:101A700045F65D539C42F3D101F064F8F0E7FFF7BF
:101A80008BFFB3E701F0E6F9B0E701F065F8E7E7AF
:101A900001F065F8E4E7030C002B16BF184600239D
:101AA0001023020A1CBF1046083302091EBF04336C
:101AB0001046DBB282081EBF02331046DBB242087A
:101AC0001CBF0133DBB21846704708B5FFF7A2FE12
:101AD00008BD0120704708B5FFF7FBFF08BD704740
:101AE00010B50446FFF7F1FF2046FFF7F4FF10BDE5
:101AF00030B587B08DE803009DF802306D460BB11C
:101B000001F05CF803AC00236360238195E80300D7
:101B1000ADF8101089B20390ADF8080021B182B27F
:101B20004FF6FF739A4205D194E8070000F068FF72
:101B300007B030BD2046FFF7DEFE0028F4D1F7E7FE
:101B400008B5008800F0ACFC08BD73B506466846D1
:101B50000D466C4602F0A6FF9DF801304EB145EAF5
:101B600003018DF8011094E8030002F0A3FF02B016
:101B700070BD23EA0501F4E738B5044600287FD09C
:101B8000822816D104F03AFF810779D43D4C3921DF
:101B9000206805F003F801F057F84FF47A7005F06B
:101BA00056FF3921206805F013F8BDE8384001F0F0
:101BB0004BB8832810D104F021FFC20760D4314C08
:101BC0005321206804F0EAFF01F03EF84FF47A70E8
:101BD00005F03DFF5321E5E7842810D104F00EFF06
:101BE00043074DD4274C4721206804F0D7FF01F06C
:101BF0002BF84FF47A7005F02AFF4721D2E7031F34
:101C0000DBB2A02B10D81F4D0146286804F05EFF00
:101C100028B12146286804F0DBFF01F015F82146C1
:101C2000286804F0BBFFC0E700F12003DBB2072BFC
:101C300007D800F007040120A040C0B200F098FFD0
:101C4000B3E700F15B03DBB2022B05D80E4AD05C90
:101C5000BDE8384004F0FCBE00F15803DBB2162B9F
:101C600006D80A4A32F81300BDE8384004F000BF35
:101C7000EC2805D902F0F0FCBDE8384002F0C6BD02
:101C800038BD00BFDC0D00206EB5000872B500083D
:101C900010B50146002862D0822812D104F0AEFEB1
:101CA00081075CD52E4C3921206804F077FF00F0C5
:101CB000CBFF3921206804F08BFFBDE8104000F015
:101CC000C3BF83280CD104F099FEC20747D5244C2A
:101CD0005321206804F062FF00F0B6FF5321E9E7CA
:101CE00084280CD104F08AFE430738D51C4C4721C8
:101CF000206804F053FF00F0A7FF4721DAE7031F35
:101D0000DBB2A02B02D8164B1868D4E700F12003F1
:101D1000DBB2072B07D800F0070101208840C0B2D2
:101D200000F02EFFC9E700F15B03DBB2022B04D801
:101D30000020BDE8104004F08BBE00F15803DBB278
:101D4000162B04D80020BDE8104004F091BEEC280A
:101D500005D902F0DFFCBDE8104002F057BD10BD10
:101D6000DC0D002038B505460C46FFF705FF24B909
:101D70002846BDE83840FFF78BBF0A20013C05F03C
:101D800066FEA4B2F3E739280CBF50210021FFF70B
:101D9000E9BF08B528B100F0EBFEBDE8084000F04F
:101DA00053BF08BD08B528B100F0EAFEBDE8084001
:101DB00000F04ABF08BD2DE9F04790F806A08578ED
:101DC00007460C4600F0A4FE4FEA1A1A8046A8B156
:101DD000A8469DB1C4F3072303F0F003402B04D0C1
:101DE00004F12003DBB2072B1FD9022000F07CFF97
:101DF00000F08EFE80F001005FFA80F8C4F3033932
:101E0000B9F10F0F42D8DFE819F0130013004A00B0
:101E10004A009F00CB0041004100E00038014A0128
:101E20004A019F0141004100A8014FF00008E5E789
:101E3000C4F3072313F0F00F16BF2609C4F30326DB
:101E400006F0F006E4B295B156B104F12003DBB21E
:101E5000072B304600D93CB900F08AFE00F0F4FEB2
:101E60002046FFF789FE11E000F098FEF6E72046D5
:101E7000FFF70EFF56B104F12003DBB2072B30460B
:101E800000D94CB900F07CFE00F0DEFEA9F1080993
:101E9000B9F1030F68D8B6E000F088FEF4E7C4F3A8
:101EA000072303F0F003202B14BF2609C4F30326F5
:101EB000E4B218BF06F0F00664B1012C2CD0ADB32B
:101EC000BAF1000F2CD0BB79D907C9D56FF307132E
:101ED000BB7125E09DB1BAF1000F06D100F08AFE7A
:101EE0003043C0B2FFF755FFD0E7BAF1010FF5D18B
:101EF00000F080FE3043C0B200F088FEC6E7BAF1C1
:101F0000000F05D100F094FE3046FFF74BFFBDE710
:101F1000BAF1010FF6D1B9E725B1BAF1050FB5D87D
:101F20003046DFE7BAF1040FB0D8EDE7BAF1000FA1
:101F3000EAD0392C0CBF4FF44870012005F087FD22
:101F40002046FFF7A5FEA1E7C4F381233BB1012B97
:101F50009CD11DB3C4F3090004F08AFD04E0DDB197
:101F6000C4F3090004F074FDB8F1000F00F0FC8028
:101F700000F0C6FD10F0010040F0F680B87000F0EF
:101F8000B7FD00F0EBF9384600F005F900F0B0FDC0
:101F9000BDE8F04700F0ECB92846E3E72846DBE768
:101FA000E4B220465DB102F057FBF13C072C09D8A2
:101FB0000121A140C9B22846FFF7C7FDD4E702F0CE
:101FC000A9FBF2E702F022FCCEE714F4407F28D10F
:101FD000CDB9C4F34210E2064FEA800048BF0F2596
:101FE000C0B248BF854004F00F03C4F3812448BF4A
:101FF000ED438340022C45EA03000CD00ED8012C9F
:1020000006D000F071F904F0F9FCFFF769FDABE7C9
:1020100000F062F9F7E700F06FF9F4E700F059F922
:10202000F1E7F5B1C4F30023002BECD0C4F3421068
:102030008000C3B204F00F0000FA03F214F01000A5
:102040001CBF0F209840C4F3812418BFC043022C4A
:1020500040EA02000BD00DD8012C05D000F0A6F903
:10206000D1E7C4F34023DFE700F098F9CBE700F0B5
:10207000A5F9C8E700F04CF9C5E7E6B23DB1C4F3F5
:10208000032000F06BF93046FFF783FEBBE73046D4
:10209000FFF788FEC4F3032000F06AF9B3E7E6B265
:1020A000A6F1F003042B3DD8DFE803F00310161D62
:1020B000260045B1BAF1040F3FF6E8AEC4F30420A0
:1020C00000F062F9E2E6BAF1050FF5E735B1C4F3C5
:1020D000042000F043F9D9E6002DF8D0C4F3042021
:1020E00000F046F9D2E625B1C4F3042000F030F93F
:1020F000CCE600F019F9C9E64DB1C4F3042420463A
:1021000000F02CF90321204600F0CAFDBEE60120B4
:1021100000F0EAFDBAF1010F7FF6B8AE022000F040
:10212000E3FDB3E625B1BAF1000FD0D0304698E612
:10213000BAF1000FD2D0392E0CBF4FF448700120F5
:1021400005F085FC3046FCE6C4F30322E1B23846D4
:1021500000F040FF00F0D0F906E7C4F30322E1B23B
:10216000384600F039FFFFE6BDE8F08738B5044691
:10217000008958B100F04AFF054600F027F900F049
:10218000A7F829462046FFF716FE38BD2188A0781B
:1021900000F092F9F0E713B583880288ADF80420C7
:1021A0000446CBB1BDF804204FF6FF739A4213D01A
:1021B000FFF712FC50B900F0ABFC68B1A3785BB13B
:1021C000022002B0BDE8104000F08EBD2046FFF7AF
:1021D000CDFF2046FFF799FB02B010BD08B50020E7
:1021E00004F036FC002004F043FC00F0E7FC00F0B3
:1021F000FBFC00F029FD02F0EFFBBDE8084002F017
:1022000005BB000008B5044B186804F0FBFCBDE8F2
:102210000840FFF7E3BF00BFDC0D002008B500F069
:10222000B7FCBDE80840FFF7EDBFC0F303330E3342
:1022300003F00F020D2A0CD80123934013F4105F12
:10224000C1B217D140F20330184004D113F010038B
:102250000BD100207047F02902D003D8E729F8D825
:1022600001207047F429F4D1FAE7E729F8D9F129D8
:10227000F6D07047C0F3C020704708B50346008908
:1022800020B100F0C3FEFFF7D0FF08BD188800F0B2
:1022900007F9F8E782B002AB03E9030002B0704728
:1022A00084B004AB03E9070004B07047704708B579
:1022B000FFF7FCFF08BD000008B5FFF7F8FF034B70
:1022C0001860BDE80840FFF789BF00BF98110020E3
:1022D0007047FFF7F1BF0000024B1B681843FFF780
:1022E000EBBF00BF98110020024B1B681840FFF79E
:1022F000E3BF00BF98110020024B1B685840FFF756
:10230000DBBF00BF9811002008B5FFF741F908BDF9
:1023100008B5FFF7F9FF034B1860BDE80840FFF769
:102320005DBF00BF9C1100200020FFF7F1BF18B96E
:10233000B1FA81F040097047C84000F001007047D1
:10234000024B01461868FFF7F2BF00BF9C11002046
:10235000012303FA00F0FFF7DBBF0000012303FABB
:1023600000F0024B1B681843FFF7D2BF9C110020FE
:10237000012303FA00F0034B1B6823EA0000FFF778
:10238000C7BF00BF9C110020012303FA00F0024BDD
:102390001B685840FFF7BCBF9C110020024B1B6814
:1023A0001843FFF7B5BF00BF9C110020024B1B680C
:1023B0001840FFF7ADBF00BF9C110020024B1B6807
:1023C0005840FFF7A5BF00BF9C11002070470000D8
:1023D000C0F3072303EB430300EB430303F0FF03C6
:1023E00037B503F0070201209040DB080A4A03EBEF
:1023F0008303C0B2134400245D7821FA04F242F34F
:1024000000026A40024001346A40052C03F8012FA3
:10241000F2D103B030BD00BF9F110020C0F30723ED
:1024200003EB430313B500EB430000F0FF0000F0A3
:1024300007040949C00800EB80000022014410464F
:102440008B5CE34003F00103934001321843052AFB
:10245000C0B2F5D102B010BDA01100200E4B73B573
:102460001E680E4BADF804001B681F241E4326FA9D
:1024700004F3DB0706D414F1FF34F8D20025284614
:1024800002B070BDE5B20199284600F08FFE80B21F
:102490000128F0D0F3E700BF9C1100209811002024
:1024A00007B5ADF804000198FFF7D8FF019900F0D7
:1024B0007DFE03B05DF804FB13B50E4BADF80410C0
:1024C0001B7823B10198FFF7EBFF02B010BD60B19C
:1024D0000198FFF7C3FF044601460198FFF778FF14
:1024E0000199204600F062FEEFE70198FFF796FFA2
:1024F0000446F5E796110020F8B50346002853D0AE
:10250000002501261878732803F1010406D8042851
:1025100020D201280AD002281FD0F8BD752835D056
:102520002AD3A0F184036F2B33D9F8BD9C1C5B78B0
:1025300003F12002D2B2072A0BD803F00703984018
:10254000C0B200F041FB00F07FFB2F4637BB2346B3
:10255000D8E71846FFF710FBF7E758789C1C00F106
:102560002003DBB2072B16D800F0070006FA00F0B4
:10257000C0B200F031FBE6E75F789C1C002FE4D08E
:102580000A20013F05F063FAFFB2F7E79C1C5D7873
:10259000DBE700F07F00FFF77BFBD6E70A20013F77
:1025A00005F055FAFFB2D1E7F8BD0000F8B50A4BC7
:1025B0000A4D1C780A4E0A272B78A34200D1F8BD99
:1025C00007FB04630134186859681A89FFF768FE2D
:1025D00004F00704F0E700BF1912002018120020D1
:1025E000C8110020024B186859681A89FFF758BEB5
:1025F000BE110020244B2DE9F7439A7912090ED120
:102600009A7862B1214ADFF88CE0127820484FF6C0
:10261000FF7C4FF00A089EF80010914202D103B0EF
:10262000BDE8F0839C885CB319785E788DF804105F
:102630008DF80560BDF80450654521D008FB02F512
:10264000471997F80190B1451AD1455D8D4217D1D0
:10265000B978A9B9B988091B89B2C72910D899795D
:102660000948012262F307119971BB7962F30713DC
:10267000BB71FFF790FD03B0BDE8F043FFF796BFD5
:10268000013202F00702C6E7BE1100201912002035
:10269000C8110020181200202DE9F047B84F90B063
:1026A0000446BB880068089038882178627894F8DE
:1026B0000280B4F804A0ADF804000DF1200E3D46F0
:1026C000002B00F01D8186B24FF6FF7C664500F0BE
:1026D000178197F80290B9F1000F00F01181AAEB71
:1026E00003039BB2C72BBB7900F2BF8013F0F00F3E
:1026F00076D166451AD03E882088864216D13E891A
:102700002089864212D14646B8F1000F0ED101222F
:1027100062F30713BB71FFF765FF3846FFF73BFD18
:10272000BB79A371304610B0BDE8F0874646BAF1D8
:10273000000F4CD08DF81C108DF81D20BDF81C002A
:102740004FF6FF73984242D0002E43D18D4B8E48F6
:102750001B7890F800E08D4F4FF00A0C73450FD1B5
:102760008DF821208DF820100898FFF799FEC0F30E
:102770000332C3B2032A1DD8DFE802F0131321216C
:102780000CFB03F5781990F80180904505D17D5D2B
:102790008D4202D180780028C4D1013303F00703B1
:1027A000DCE710F4706F01D0002BBBD02033DBB21C
:1027B000072BB7D92046FFF7EEFC4E46B2E710F4E0
:1027C000706FF3D0A27912F0F00FEFD1AAE7B8F151
:1027D000000FA7D0AB7943F00103AB710026A1E74E
:1027E00080B2604517D039882288914213D1398947
:1027F000228991420FD1B8F1000F0CD1A37120466C
:10280000FFF7C9FC23683B6063687B6023893B81D9
:10281000FFF7E8FED1E72046FFF72FFD08B3B8F138
:10282000000F1ED0AB791F2B0FD92A88ADF82820B6
:102830008DF82E3000222B898DF82A20ADF82CA09F
:10284000ADF830300AA8FFF7A6FC23682B60636858
:102850006B6023892B81FFF7CDFEFFF7C3FE0126B6
:1028600060E72046FFF797FCF9E713F0F00614D174
:102870008DF821208DF82280ADF824A08DF820104D
:102880009EE80300FFF706FD3846FFF784FC3E6034
:102890007E603E81FFF7A6FE44E780B2604515D01A
:1028A00039882288914211D13989228991420DD1EA
:1028B000B8F1000F0AD1A3712046FFF76CFCC7F8EE
:1028C0000080C7F80480A7F8088076E72046FFF765
:1028D000D4FC0028C5D0B8F1000FC2D0AB791F2BB3
:1028E000B3D92A88ADF834208DF83A3000222B89EC
:1028F0008DF83620ADF838A0ADF83C300DA8A2E731
:102900002888ADF81400002B60D086B24FF6FF7710
:10291000BE425BD0AE78002E58D1AAEB03039BB227
:10292000C72B43D84646002E9BD080B2B8422FD04A
:102930002A8823889A422BD12A8923899A4227D12F
:10294000AB79DA0714D41B0912D0AB79A3711A0939
:102950000F2A1EBF013262F30713A3712046FFF74F
:102960001AFC23682B6063686B6023892B8191E7D5
:1029700023682B6063686B6023892B81D2E600BFDC
:10298000BE1100201912002018120020C8110020CA
:102990002046FFF772FC00287FF457AFAB79204642
:1029A00043F00103AB71FFF7F6FBBBE68DF8228025
:1029B000ADF824A08DF820108DF821209EE80300AA
:1029C000FFF768FC2E606E602E8163E7B8F1000FA0
:1029D0003FF447AF2046FFF750FC064600283FF47F
:1029E00040AF23682B6063686B60238903482B81A9
:1029F000FFF7A6F8FFF7FEFD4CE700BFBE11002071
:102A0000F0B58BB001AC84E807002046FFF744FE28
:102A1000334F344E0546B8B1BDF80830BDF8042038
:102A2000ADF8142043B192B24FF6FF739A4203D02F
:102A300094E80700FFF734FC2B4C0A2530783B78EC
:102A400083422DD10BB0F0BD94E8070007AB03C360
:102A5000BDF808101A80BDF81C30ADF818300029F8
:102A6000EAD09AB24FF6FF739A42E5D03B783078BD
:102A70005A1C02F00702824228D00A245C43ADF8B7
:102A8000201007AB03CBDFF860E01B884EF8040092
:102A90000EEB04053A7069602B81FFF787FDCBE7E9
:102AA00000EB800004EB4000FFF7F6FD0028C9D0E2
:102AB000337805FB0343186859681A89FFF7F0FB60
:102AC0003378013303F007033370B7E7FFF7A6FB52
:102AD000064B3D7035701D605D601D81B2E700BF23
:102AE0001812002019120020C8110020BE11002069
:102AF000024B93F90000C0F3C70070473B1200205F
:102B0000024B187800F00700704700BF3B1200200E
:102B1000034B187810F0070018BF0120704700BF62
:102B20003B120020064A5378C3F38001814205D04E
:102B300060F382035370108800F01EB9704700BF25
:102B4000642B0020034B587880F00400C0F3800011
:102B5000FFF7E8BF642B00200120FFF7E3BF002050
:102B6000FFF7E0BF014B1878704700BF3D1200200F
:102B7000024A137818431070704700BF3D120020BE
:102B8000024A137823EA0000107070473D120020BB
:102B9000014B00221A7070473D120020024A137840
:102BA00018431070704700BF3E120020024A13788D
:102BB00023EA0000107070473E120020014B0022F3
:102BC0001A7070473E120020024A137818431070A2
:102BD000704700BF3A120020024A137823EA00002F
:102BE000107070473A120020014B00221A70704793
:102BF0003A120020014B1878704700BF3C120020A9
:102C0000704708B5FFF7FCFF08BD000008B5064B8C
:102C10005B785B0706D4054B1978814202D01870A7
:102C2000FFF7EFFF08BD00BF642B00203C1200201F
:102C300008B5044B1A781AB100201870FFF7E1FFAD
:102C400008BD00BF3C12002010B50D4B0D491B788C
:102C500009780D4C0B430D49206809780B430C494A
:102C60000370097831B10B43037003F011FF08B111
:102C7000FFF7DEFF2068BDE8104003F0C7BE00BFCD
:102C80003D1200203E120020DC0D00203A120020F0
:102C90003C120020704708B5FFF7FCFF08BD00009C
:102CA0000A4A5278520710B50CD4094C41EAC001C7
:102CB0002170FFF753FB94F90000C0F3C700FFF742
:102CC000EAFF10BDBDE81040FFF748BB642B0020B1
:102CD0003B12002008B5034B00201870FFF7DBFF04
:102CE00008BD00BF3B12002008B50C4A92F9003025
:102CF00023EA000040B21070420702D1DBB28342E7
:102D000003D1074B5B785B0707D5C0F3C700FFF71C
:102D10002FFBBDE80840FFF7DDBF08BD3B120020D8
:102D2000642B002008B501F0EBFF4FF6FF71002087
:102D3000BDE8084002F075B808B5002002F06EF852
:102D40004FF6E963C31A5842584108BD022002F009
:102D50005FB8032002F05CB80146032002F05BB8C4
:102D600010B5042002F054F80446222002F050F876
:102D700044EA002080B210BD10B5C1B20446042060
:102D800002F049F8210A2220BDE8104002F043B8C1
:102D9000072002F03DB80146072002F03CB801468A
:102DA0000F2002F082B8132002F03EB80146132033
:102DB00002F07BB808B50020FFF7F1FFFEF7A6FA96
:102DC00008BD000010B501F09BFF4FF6E96100203F
:102DD00002F027F80021022002F01DF80021032054
:102DE000002402F018F81A4B214604201C6002F05F
:102DF00012F82146222002F00EF82146052002F0AA
:102E00000AF82146062002F006F8FF21072002F00A
:102E100002F82146082002F048F821460D2001F072
:102E2000FAFF2146182002F040F82146172001F051
:102E3000F2FF21461C2002F038F82146202001F044
:102E4000F0FF2146182002F030F8FFF7B3FF10BD65
:102E500098110020FFF7B6BF01460E2001F0DBBF3E
:102E600008B503F04BFF024B1860024B186008BD19
:102E700040120020441200207047704708B5FFF749
:102E8000FCFF08BD08B5FEF74FFA08BD08B50548B8
:102E900000F074FA01F0E4FEFFF7EEFFFFF7EEFF3B
:102EA00008BD00BF753300080120704708B5FFF763
:102EB000FBFF08BD7047704708B5FFF7FBFFFFF742
:102EC000FAFF08BD08B503F017FF00F037FB02F06A
:102ED00065FDFEF74DFA02F0AFFFFFF7D3FF08BD27
:102EE0002DE9F04F85B000F03FFB08B1FFF7B8FFC8
:102EF000354F0024B8465FFA84F9484600F082FA5C
:102F0000E65DB042834616D10134082CF3D1FF238D
:102F10008DF808308DF8093000238DF80A3003F061
:102F20001BFF40F00100ADF80C0004AB13E90300F7
:102F3000FEF7DEFD2AE0254B1B789B0701D500F04C
:102F400067FA002301258BEA060635425FFA83FA09
:102F500030D0FFF7ABFFA0B11BEA050F14BF012370
:102F600000238DF800A08DF801908DF8023003F059
:102F7000F3FE40F00100ADF804009DE80300FEF709
:102F8000B7FD18F804305D4008F80450104C02F00A
:102F900031FD01F05BFCFEF70BFA03F02FFD237807
:102FA00083420DD003F02AFD207005B0BDE8F04F3C
:102FB000FEF796BD01336D00062BEDB2C5D1A3E738
:102FC00005B0BDE8F08F00BF49120020511200206B
:102FD0004812002000207047704700003022504304
:102FE000C1F30723062202FB030353FA81F3034ACA
:102FF00032F8130082B002B0704700BF28B3000857
:10300000014B33F810007047D2B5000810B500F03E
:10301000D9F8B0F5A04F04462DD2B0F5804F80F01E
:103020008C80E72816D8E02870D2A72808D8A528D1
:1030300066D201286AD001D3042867D2002465E053
:10304000BE2865D9C028F9D3C03880B2FFF7D8FFB1
:1030500004465BE0B0F5005F07D2B0F5807F60D238
:10306000ED28EBD340F4A04459E0B0F5405F5BD2CB
:10307000C0F30B00EAE7B0F5AA4F1BD2B0F5A84F9A
:10308000C3B279D2B0F5A44F07D2B0F5A24F59D34D
:103090004AF2F10040EA032438E0B0F5A64F61D2CD
:1030A0009808012403F003039C4044EA401444F4CC
:1030B0000C4434E0B0F5B24F0ED2B0F5B04F60D250
:1030C000B0F5AC4FBAD2C0B200F0FEF8040204F47E
:1030D000F85444F4005419E0B0F5B44F56D3A0F5B9
:1030E000C043B3F5005FA9D2C0F3042000F0ECF8B0
:1030F000E4B2000244F4005400F4F850044305E044
:103100005B34E4B2274B1C5D44F48044204610BD80
:103110005834E4B2244B33F8144044F48844A4B245
:10312000F4E7C0F30C04F1E710F4006FC4B214BF6D
:1031300044F4484444F44044E8E7C0F30B0444F446
:103140002044E3E703F0030201249440C0F301109C
:1031500044F40C4444EA0024C3F3810344EA4313D7
:103160009CB2D3E79808012403F003039C4044EA8F
:10317000401444F40A44D2E74AF2F40444EA032433
:10318000C4E74AF2F00040EA0424C8E700F00F0068
:1031900000F09AF8C4F3031440EA042444F4104401
:1031A000BDE700BFA0B50008A4B5000807B5ADF89D
:1031B00004100199FFF712FFFFF728FF03B05DF835
:1031C00004FB0000822825D00CD8312863D004D815
:1031D000292859D02A2865D0704735284DD039285C
:1031E00018D07047E32830D004D8E02819D0E2285E
:1031F00026D07047E62832D0E72835D0E42832D1EF
:10320000304B5A7891072ED51B7813F0100F08BF5A
:10321000E72012E02B4B1B7813F0030F18BFE020C0
:103220007047284A1378D90743D4527812F0010F17
:1032300019D013F0100F08BFE32018BF002070470B
:10324000204B1B7813F0040FF2E71E4A137859073E
:1032500031D45278D20730D413F0100FEDE7194B68
:103260001B781A07D1D47047164A1378190726D449
:1032700052789207F0D5E420F5E7124B1B7813F053
:10328000200F18BF292070470E4B1B7813F0200F1A
:1032900018BF352070470B4B1B7813F0400F18BF39
:1032A0002A207047074B1B7813F0400F18BF3120BE
:1032B000704739207047E2207047E0207047E620D1
:1032C000704700BF642B0020294B1A78510707D59F
:1032D00000F01801082927D100F0F70040F00400A1
:1032E000110707D500F01801182926D100F0E700D2
:1032F00040F014005B78D90707D500F018010829C1
:1033000024D100F0F70040F00100990707D500F044
:103310001803182B23D100F0E70040F01100D3066A
:1033200048BF00F0E700704700F01401042904BF13
:1033300000F0FB0040F00800D2E700F0140114296F
:1033400004BF00F0EB0040F01800D3E700F01101DB
:10335000012904BF00F0FE0040F00800D5E700F0AE
:103360001103112B04BF00F0EE0040F01800D6E767
:10337000642B00200020704700207047014B18602C
:10338000704700BFE00D0020FFF7CCBC08B500F08F
:10339000EBF8642004F05BFB00F0E6F8002000F09E
:1033A00031F8C30705D5FFF7EFFFBDE8084003F08C
:1033B000E5BC08BD08B5FFF7E9FF08BD08B5FFF794
:1033C000BBFC08B9FFF746FDFFF7C0FC084B1870BF
:1033D000FFF7C6FC074B1880FFF7ECFFFFF7B9FCBF
:1033E000FEF777FF044B1868BDE80840FEF78CBF76
:1033F00051120020642B00209C11002008B5FEF71C
:10340000A3F908BD014B185C704700BF6E2B00206C
:103410007047012004F01BBB00BF00BF00BF00BF0E
:1034200000BF00BF00BF00BF00BF00BF00BF00BFA4
:1034300000BF00BF00BF00BF00BF00BF704708B59E
:10344000FFF7E7FF08BD08B5202282F311880121AC
:1034500000F00F03994020F00F0005F045FD002318
:1034600083F3118808BD000038B50B4D002455F8D2
:103470002400421C01D0FFF7E6FF0134082CF6D1EE
:10348000064D002455F82400431C01D0FFF7DBFF54
:103490000134062CF6D138BDECB50008D4B50008CF
:1034A0002DE9F843234F0D4657F821100646481CD6
:1034B0003BD0202383F311884FF0010821F00F093E
:1034C00001F00F0108FA01F4214642464846A4B231
:1034D00005F00AFDA9F81A40002484F31188FFF7CB
:1034E0009BFF1548234650F82320511C1FD022F083
:1034F0000F0102F00F02096921FA02F2D20716D475
:1035000008FA03F149B201332143062BCCB2EAD1C8
:1035100057F82500431C01D0FFF795FF211C18BF69
:1035200001212846FFF78BFF7455BDE8F883002181
:10353000E9E700BFECB50008D4B5000808B5FFF70F
:1035400093FF00200649074A034643548354013041
:103550000828FAD100F032F8BDE80840FEF703BAB7
:10356000662B00206E2B002037B5002400940194B8
:10357000E1B268460134FFF793FF082CF8D10D4DF6
:1035800022466946284607F0D5FD00281DBF6B4638
:1035900003CB012400241CBF286069602346082255
:1035A0000549044800F00CF8FEF7E8F9204603B09E
:1035B00030BD00BF662B00206E2B0020704700003E
:1035C000F8B506460F4615460C4C2BB10123237067
:1035D00003F094FB0A4B1860237853B1084B18682A
:1035E00003F0C6FB042804D90023AB4202DB00230E
:1035F0002370F8BDF25CFA540133F6E75212002052
:103600005412002008B503F015FB03F099FE03F0F7
:1036100099FE03F0ADFEFFF74FFCFAE70000000053
:10362000453807EE900AF8EEE77AB2EE087AC7EE70
:10363000876A08B516EE900AFDF702F89FED080BB1
:1036400041EC110B06F060FC002251EC100B064B14
:10365000FDF74AF8FDF7F8FA00EE100A08BD00BFC2
:10366000000000000000004000807B4008B545F6E7
:103670001D43984205D18B7873B300F049FB0020BD
:1036800008BD45F61E43984204D18B7823B300F061
:1036900055FBF4E745F61F43984206D18B78DBB122
:1036A00000F02CF90028F2D1E7E745F62A439842CA
:1036B00009D18B7883B100F095FD002204210748E1
:1036C00000F096F9DBE745F62B43984204D18B785E
:1036D00013B100F08DFDF0E7012008BDE40D0020DE
:1036E00008B5FFF79DFFBDE8084000F00DBB08B529
:1036F000FFF796FFBDE8084000F01EBA00F006B9DB
:1037000070470000F8B5244B1B782DED048B002B7F
:103710003FD1224B1D78002D3BD1214B1B78DB077D
:1037200037D5204E9FED209AD6ED007A1F4F204CC2
:1037300077EEA78A07F016FD07EE900AB8EEE77A53
:10374000B7EE008A27EE097AD7ED007AF0EE486AE4
:10375000E7EE276A66EEA87AC4ED027A07F002FD6A
:1037600007EE900AF8EEE77A97ED007A67EE897A2D
:103770002A46A7EE878A20460321D6ED007A28EE56
:10378000278A84ED048ABDEC048BBDE8F84000F084
:103790002FB9BDEC048BF8BD73120020721200200B
:1037A000F02B0020040E002000000030080E002046
:1037B0000C0E0020084B9FED097AD3ED007A67EEDE
:1037C000877A9FED077AF4EEC77AF1EE10FA48BFD8
:1037D000C3ED007A704700BF040E00200938983FFF
:1037E0000080BB44084B9FED097AD3ED006AC6EE1A
:1037F000877A9FED077AF4EEC77AF1EE10FAC8BF28
:10380000C3ED007A704700BF040E00200938983FCE
:1038100000008242054A1078C0F3400383F00103A0
:1038200063F341001070C0B2FFF7B5BAF02B00206F
:10383000034B187840F002001870FFF7ACBA00BFD5
:10384000F02B0020034B18786FF341001870C0B2C2
:10385000FFF7A1BAF02B002038B545F62043984277
:1038600004460D460CD18B780BB1FFF7D3FF45F61C
:1038700024439C4216D1AB78A3B1FFF7B3FF11E00C
:1038800045F62143984205D18B78002BEFD0FFF706
:10389000CFFFECE745F6224398421BD18B780BB162
:1038A000FFF7D0FF124B1B7803F00303032B08D163
:1038B000AB7833B1A4F5B8441E3C012C01D9FFF715
:1038C00021FF012038BDAB78002BEBD0094B0A4A11
:1038D0001A60E7E745F625439842F4D045F62343BE
:1038E0009842C4D1AB78002BDCD0FFF763FFD9E757
:1038F000F02B0020040E00200000DC43024B18785F
:1039000000F00100704700BFF02B002038B50D4DCE
:103910002C78ACB90C4B1C7000F016FC0B4B0C490E
:103920001C700C4B1C700C4B1C800C4B03F1600288
:103930001C8059601C810C339342F9D101232B70F8
:1039400038BD00BF240E0020581200206112002054
:10395000000080BF621200205E120020902B002029
:10396000014B1878704700BF611200200B4B1B7889
:1039700083420FD9013B1B1A09485BB20C2202FBA0
:10398000030393ED010AB5EEC00AF1EE10FA01D976
:1039900000F034BC9FED030A704700BF58120020AE
:1039A000902B0020000000000E4B07EE900A1B78C1
:1039B000F8EE676ADFED0C7A9B0166EEA76A07EE08
:1039C000903AF8EEE77A82B086EEA77ADFED077AD2
:1039D00067EE277AFCEEE77ACDED017ABDF80400B8
:1039E00002B07047480E00200000704200007A4488
:1039F000244B1B78DB07F7B504460F46154604D465
:103A000003B0BDE8F040FFF781BF1F4B1B780BB937
:103A100000F064F81D4B1B780BB1FFF777FF1C4BD0
:103A2000D4ED017A1B4E01221A701B4A3460002328
:103A300013701A4AFCEEE77A1780194ACDED017A25
:103A40001570184DBDF804002B80FFF7ADFF94ED05
:103A5000000A00F0D1F803F07FF9134B2A88188090
:103A6000336803EBC203D3ED017AFCEEE77ACDEDC8
:103A7000017ABDF80400FFF797FF0C4B188003B0E4
:103A8000F0BD00BFF02B0020591200206212002070
:103A9000611200208C2B002060120020782B002067
:103AA000F12B00205A1200205C1200205E12002030
:103AB00008B5074B1B78DB0704D500220621054813
:103AC000FFF796FF03F048F9034B188008BD00BFCD
:103AD000F02B00204C0E00205C12002010B5124C80
:103AE0002378FBB9FFF728F908B9FFF7B3F9FFF717
:103AF0004FF90E4B18700E4B0E4803F16001002277
:103B00001A8058601A810C338B42F9D123781BB983
:103B100000F0D4FA01232370FFF7F8FEBDE810404F
:103B2000FFF7C6BF10BD00BF59120020F02B0020C8
:103B3000902B0020000080BFF8B5274DB5EEC00ADD
:103B40002B78F1EE10FA2DED028BB0EE408A48BFD3
:103B5000B1EE408A002B3BD0204B1B780BB9FFF70E
:103B6000BDFF1F4A07231046D2ED167AB4EE678ACE
:103B7000F1EE10FA27D10C2159430022431842528A
:103B80001849DFF870E059601A810E4614467345F3
:103B90000ED1154B01261E70144B1C78013CE4B26B
:103BA0001C70ACB900F0D0FA114B2C701E700FE0F5
:103BB00003F10C0797E807009C8183E807001E616A
:103BC0009C823B46E3E7013B591CA2F10C02CBD19E
:103BD000BDEC028BF8BD00BF62120020591200201C
:103BE000902B0020000080BF63120020581200209C
:103BF000240E0020E42B00202DE9F0413A4B1B78E5
:103C0000DB072DED028B0746B0EE408A47D5374BD8
:103C10001B780BB9FFF762FF354D364E2B78B5EEAA
:103C2000C08AF1EE10FA03EB430248BFB1EE488AB6
:103C300003F1FF3806EB8202B8F1FF3F20D10133D8
:103C4000DBB2082B42D82B702B4A012313702B4A6E
:103C500013702B785C1E03F07FF80C236343F2187B
:103C6000F05282ED018A178103F076F8244C254B3F
:103C7000188023789BB100F091FA002323700EE0A6
:103C80000C3AD2ED017AF4EE487AF1EE10FA1AD13C
:103C90000C2404FB08642B78013B984503DBBDEC46
:103CA000028BBDE8F08104F10C0696E8070084E879
:103CB000070003F051F808F10108A08184ED048A9F
:103CC000A7823446E7E708F1FF38B5E708232B70F1
:103CD0000023F41804F10C0207CA0C33542B84E8B7
:103CE0000700F6D1B0E700BFF02B002059120020EA
:103CF00058120020902B0020631200206212002036
:103D0000240E0020701200204FF6FF70FFF774BFE2
:103D100008B5084B187840F001001870FFF73BF821
:103D2000FFF7EEFC002202210348BDE80840FFF740
:103D30005FBE00BFF02B0020380E002008B5002227
:103D400002210948FFF754FE4FF47A7003F07FFE1A
:103D5000FFF7DCFD054B18786FF300001870BDE825
:103D60000840C0B2FFF717B8280E0020F02B002043
:103D7000674B1A782DE9F3479846664C12B92578B7
:103D8000002D70D002F0E8FF27788146F7B90027B0
:103D900098F80030002B00F0B8805F4B1D7825B9F3
:103DA0005E4B1D78002D08BF3D465D4C5D4F0026E3
:103DB0004FF6FD783B789E42C0F295805A4A1378C0
:103DC000002B50D0002111701D464CE0574D584E2D
:103DD000288802F0C6FF33888342D8D8288802F0AA
:103DE000C0FFA5F80090534D3488B5F800A00AF143
:103DF0000103041B2B8002F0AFFF4F4B18804F4B89
:103E000019882B888B42A4B2A94605D34C4B1D7848
:103E10003DB30023A9F800304A4A4B4813781546B1
:103E20002BBB0368B9F800C003EBCA0E03EBCC034D
:103E30009EED007AD3ED007AB4EE677AF1EE10FAD7
:103E400015D1012302201370FFF7AEFD9FED3F0A4D
:103E5000FFF7D2FE0220A9F800A0FFF7A5FD3080F1
:103E600096E7FFF753FD284602B0BDE8F087002330
:103E700002682B70B9F8003002EBC303D3ED017A6E
:103E8000FCEEE77ACDED017ABDF80400FFF78CFD7A
:103E9000013984420DD8844222D30124B9F800307C
:103EA00002EBC302204692ED000AFFF7A5FE348024
:103EB0006EE7B9F800308B42EDDA01339BB2A9F816
:103EC000003002EBC303D3ED017AFCEEE77A201A4F
:103ED000CDED017A84B2BDF80400FFF765FDD8E7A7
:103EE000001B84B2DAE72389013B9BB2434509D822
:103EF000208802F036FF2389834203D894ED010A1B
:103F0000FFF71AFE01360C3454E73D4656E700BF72
:103F100062120020611200206D1200206C1200203D
:103F2000902B002058120020631200205C12002009
:103F30005E1200205A12002070120020782B002000
:103F4000F12B0020601200208C2B002000000000CC
:103F500010B5084C0849204603F0E2FE2046022135
:103F600003F0F0FE032210214FF09040BDE8104016
:103F700004F0BABFD42F00207C0E002008B50748FB
:103F800003F0EEFE012210214FF0904004F0ACFF50
:103F90004FF0904310221A8308BD00BFD42F002099
:103FA00008B5114B2DED028BB0EE408A83ED000A6F
:103FB000FFF7E4FFB5EEC08AF1EE10FA10D938EE43
:103FC000088A9FED0A0A0A4B28EE008ABCEEC88ACE
:103FD00083ED008ABDEC028BBDE80840FFF7B8BF57
:103FE000BDEC028B08BD00BF6412002000008043BE
:103FF0007C0E002010B5084C0849204603F090FEC6
:104000002046022103F09EFE032220214FF0904023
:10401000BDE8104004F068BF043000208C0E002082
:1040200008B5074803F09CFE012220214FF0904084
:1040300004F05AFF4FF0904320221A8308BD00BFBE
:104040000430002008B5114B2DED028BB0EE408AF4
:1040500083ED000AFFF7E4FFB5EEC08AF1EE10FA37
:1040600010D938EE088A9FED0A0A0A4B28EE008A1A
:10407000BCEEC88A83ED008ABDEC028BBDE8084027
:10408000FFF7B8BFBDEC028B08BD00BF681200206F
:10409000000080438C0E002008B5FFF769FE58B180
:1040A0000020FFF763FCFFF77BFF0020FFF75EFCBB
:1040B000BDE80840FFF7C6BF08BD000038B5184D81
:1040C000184C032210214FF0904004F00DFF2846B9
:1040D000154903F0E7FD1549154803F021FE0322B9
:1040E00020214FF0904004F0FFFE2046114903F0DC
:1040F000D9FD1149114803F013FEAB6A10491A6843
:104100001048136823F002031360A36A1A68136847
:1041100023F400331360BDE8384003F001BE00BF54
:10412000102E0020402E00200CBA00087C0E00202B
:10413000D42F002014BA00088C0E00200430002078
:104140009C0E0020E42F002010B50F4C0F4803F008
:1041500007FE204603F0C5FD40F2FF720021204615
:104160000B4C03F0ADFD0B4803F0FAFD204603F0C5
:10417000B8FD204640F2FF72002103F0A1FD064881
:10418000BDE8104003F0ECBD102E0020D42F00201D
:10419000402E002004300020E42F002008B50A4AF9
:1041A0000A490B484FF4807303F08CFD4FF4807381
:1041B00008490948094A03F085FD02210848BDE87D
:1041C000084003F0BFBD00BF0CB600081CBA0008D1
:1041D000102E00202CBA0008402E00200CB8000839
:1041E000E42F0020014B00221A7070476E1200204D
:1041F000014B00221A7070476E120020024B1B7890
:104200000BB9024A137070476E1200206C12002026
:10421000024B1B780BB1FFF771BA70477312002085
:1042200008B5FDF789FA08BD08B5FFF7F1FF044BA3
:10423000044800221A700821BDE80840FFF7D8BBE7
:1042400073120020D00F0020034B044800220821E5
:104250001A70FFF7CDBB00BF72120020AC0E002019
:1042600010B5FFF7D5FF084A08481378013303F06B
:1042700003031370282404FB030000220521BDE87A
:104280001040FFF7B5BB00BF2C0F0020300F0020FF
:10429000F8B5174B1B7803B3164C2088F0B902F021
:1042A0005BFD2080144C154E2378F3B93278013A27
:1042B000134D14492878CF5C10B1885CFFF717FACA
:1042C0002B7813B13846FFF70BFA23783178013396
:1042D00093FBF1F201FB12332370F8BD02F041FDB4
:1042E000094B1B888342DAD3F8BD5A1EE0E700BFB2
:1042F000851200208A1200208612002084120020DD
:104300007312002074120020541000207047000027
:1043100008B5054B054801221A7008210022FFF755
:1043200067FBFFF7F3FF08BD731200201410002095
:104330007047000008B5054B054801221A70082196
:104340000022FFF755FBFFF7F3FF08BD72120020B4
:10435000EC0E00202DE9F04345F6264398428BB041
:10436000054606D18B78002B3ED0FFF7D1FF002009
:1043700053E045F62743984205D18B78002B33D084
:10438000FFF752FFF3E745F62843984206D18B78B2
:1043900053B36B4B1B78002BF2D1E6E745F62C4369
:1043A000984204D18B78FBB1FFF7C4FFDFE745F6F5
:1043B0002D43984204D18B78B3B1FFF745FFD6E780
:1043C00045F62E43984206D18B786BB15D4B1B7836
:1043D000002BF2D1E8E745F62943984204D18B78C7
:1043E00013B1FFF73DFFC2E7554B1A7822B9554B81
:1043F0001B78002B00F0A1808E78002E3DD0E02DA0
:104400000ED1FFF705FF504B01221A704F4B0020D1
:1044100018704F4B18704F4B18700BB0BDE8F083FD
:10442000E22D0BD1FFF7F4FE474B1A7812B1474A41
:104430000121117000201870454BEDE7E32D0FD1DD
:10444000424B1B78CBB1FFF7E3FE3F4B00201870C7
:104450003F4B01221A70404B1870404B1880DCE72C
:10446000522D04D13E4A13880A3B13807FE7512D19
:1044700003D13B4A13880A33F7E73A4B3A481C7892
:104480003A4FDFF8F4C04B7891F800E004BB0478B1
:10449000396824340C44062101FB03C313F80E30A1
:1044A0001C44E4B2002E42D012B12046FFF718F9A6
:1044B000254B1B782BB1274A2D491378CC54013357
:1044C00013702846FFF7ACFE80F00100C0B2A4E7ED
:1044D000062101FB03C3047813F80EE03B78254F57
:1044E0002434E4B20DF1040C07F12009386879682E
:1044F000E046A8E8030008374F45C446F6D138889F
:10450000B978A8F8000088F802100721BEFBF1F185
:1045100001EB4100C1EBC1011C44AEEB01010AAB50
:1045200053FA81F104EB800411F8243CB8E7002A27
:10453000C7D02046FFF7DBF8C3E701206DE700BFD7
:1045400073120020721200208812002087120020AF
:104550008512002084120020861200208A1200207A
:10456000541000202C0F00205610002010100020A6
:1045700074120020D3B20008F8B20008194B1B785F
:10458000D9070AD5184B187800EB8000C0F38F00CC
:104590007F2825D810BB012070479A0706D5124BFB
:1045A000187800EB8000C0F34F00F1E75B0704D5FB
:1045B0000D4B187800EB8000EAE70C4B1B7863B1D9
:1045C0000B4A12789342F3D20749087800EB800037
:1045D000584390FBF2F080B2DAE70520C0B2704792
:1045E0007F2070479612002059100020971200205B
:1045F0005A100020144B1B78D90705D5134B187897
:104600008008F0B9012070479A0703D50F4B18783E
:104610004008F6E75B0705D50C4B18787F28F0D9E2
:104620007F2070470A4B1B7853B10A4A1278934295
:10463000F2D20649087810FB03F090FBF2F0EDE7A8
:104640000120C0B2704700BF961200205D1000200C
:10465000981200205E100020ED2808B505D1FFF764
:104660008DFF4042294BD87008BDEE2802D1FFF7DC
:1046700085FFF7E7EF2805D1FFF780FF4042234B86
:10468000987008BDF02802D1FFF778FFF7E7F92806
:1046900004D1FFF7AFFF1D4B187108BDFA2803D1F5
:1046A000FFF7A8FF4042F6E7FB2805D1FFF7A2FF7E
:1046B0004042164B587108BDFC2802D1FFF79AFF03
:1046C000F7E700F10F03DBB2072B08D80F4A0123ED
:1046D000F13803FA00F053781843507008BDFD28F4
:1046E00005D10B4A137843F00103137008BDFE286F
:1046F00004D1074A137843F00203F6E7FF28F5D107
:10470000034A137843F00403EFE700BF9012002040
:1047100096120020ED28394B16D193F90320002A78
:1047200018DA0022DA7093F9022022B993F90320F3
:104730000AB933490A7093F9042022B993F9053074
:104740000BB9304A13707047EE2810D193F903204B
:10475000002AE6DC00F10F02D2B2072A37D8F1387E
:1047600001228240587820EA02005870DBE7EF28E7
:1047700006D193F90220002AECDA00229A70D2E7DF
:10478000F02804D193F90220002AF6DCE2E7F928A8
:1047900006D193F90420002ADCDD00221A71C2E759
:1047A000FA2804D193F90420002AD3DAF5E7FB288C
:1047B00006D193F90520002ACCDA00225A71B2E71B
:1047C000FC28C7D193F90520002AF6DCC2E7FD28B2
:1047D00005D10D490A7822F001020A70A3E7FE28EC
:1047E00004D109490A7822F00202F6E7FF289AD19B
:1047F00005490A7822F00402EFE700BF901200207A
:1048000097120020981200209612002008B502F09E
:10481000A3FA0B4B93F9022012B993F903200AB1C2
:10482000084A108093F9042012B993F905300BB1AE
:10483000054B18800248BDE8084002F0FFB800BFF1
:10484000901200208C1200208E1200202DE9F047DB
:10485000584C94F9028094F9037094F9046094F927
:10486000055094F800A094F801900023A370E37021
:1048700023716371B8F1000F00D157B14E4B188806
:1048800002F06FFA4D490B7853B34D4A12789042BB
:1048900030DC06B95DB14B4B188802F062FA4A4928
:1048A0000B78002B52D0494A1278904258DC94F988
:1048B000023043B994F903302BB994F9043013B999
:1048C00094F905300BB1FFF7A1FF84F800A084F83C
:1048D000019084F80280E77026716571BDE8F08769
:1048E0003B4A127802EB8202B0EB420FD1DD01337A
:1048F0000B7001E0FF2BFAD1B8F1000F08D0FFF7E1
:104900003DFEB8F1000FCCBF0123FF235843A07038
:104910003FB1FFF733FE002FCCBF0123FF235843E5
:10492000E07094F90220002AB3D094F90310002912
:10493000AFD0B5235A43121203FB01F308BF012283
:104940001B1208BF0123A270E370A2E7214A12786C
:1049500002EB8202B0EB420FA9DD01330B7001E0E4
:10496000FF2BFAD13EB1FFF745FE002ECCBF01234D
:10497000FF23584320713DB1FFF73CFE002DCCBF13
:104980000123FF235843607194F90420002A8ED03C
:1049900094F9051000298AD0B5235A43121203FB5B
:1049A00001F308BF01221B1208BF012322716371AA
:1049B0007DE700BF901200208C120020971200208B
:1049C000581000208E120020981200205C10002049
:1049D000571000205B100020054A002313609380CD
:1049E000044A1370044A1370044A1370704700BFDE
:1049F000901200209712002098120020961200209A
:104A00001FB50DF1100E0EE903008DE80C009DF8A6
:104A100009209DF801309A421FD19DF90A301BB13F
:104A20009DF902209A4218D19DF90B301BB19DF9D6
:104A300003209A4211D19DF90D301BB19DF905203B
:104A40009A420AD19DF90C0020B19DF90430181A40
:104A500018BF012005B05DF804FB0120FAE7000053
:104A600070B50E4D0E4C687966792B7921792A68DC
:104A700043EA002341EA06212068FFF7C1FF002630
:104A800010B1204601F0DAFFA670E67023682671A7
:104A900066712B60A388AB8070BD00BF9F120020A1
:104AA00099120020024A1168928801608280704742
:104AB0009912002082B08DE80300034ABDF804304B
:104AC0001060938002B070479912002010B500F07A
:104AD0006DFA094C094800F021FA094800F01EFA65
:104AE000204600F01BFA074800F018FA00F06CFAB4
:104AF000054B1C6010BD00BF00F0030800E0030878
:104B000000E8030800F80308A822002038B54FF693
:104B1000FE73034003F1006505F578354FF6FF712C
:104B20002A888A4210D10A49CC5AE443A4B294425A
:104B30000CD000F03BFA2146284600F011FA04465A
:104B400000F042FA204638BD002038BD052038BDAF
:104B5000A6120020F8B5FFF7B9FF00F027FA0C4CB9
:104B60000C4F0D4E052504F17843A3F57833F95A1F
:104B700039B1C94389B2204600F0F2F9052818BFBF
:104B800005460234B442EED100F01EFA2846F8BDC4
:104B900000E00308A612002000F00308F8B51C4B43
:104BA0001C4F1E5A3A68012E9ABF1B4D0223042344
:104BB000C3F1006394BF45EA4635803803F580238E
:104BC00092BFADB280B24FF460459A4203D9BDE8BE
:104BD000F840FFF7BFBF45EA500400F0E7F9386836
:104BE0002146831C3B6000F0BBF9B5F5604F0446DD
:104BF00009D13868F143831C89B23B6000F0B0F9F9
:104C0000052818BF044600F0DFF92046F8BD00BFB4
:104C1000A6120020A82200200080FFFF38B50D4C0E
:104C20000D4B22689A42054603D9BDE83840FFF78C
:104C300091BF00F0BBF9094B2068595D41EA05219D
:104C4000831C89B2236000F08BF9044600F0BCF9A4
:104C5000204638BDA8220020FFFF0308A61200202E
:104C60002049214B2148F0B5214E0D465A889C1908
:104C70000233D24383420A53F8D11E4A1E4C4FF6E8
:104C8000FF7743F6FE761388BB4206D0180409D49A
:104C9000190A6B540232A242F5D9184B4FF48050D6
:104CA0001A60F0BD03F4C041B1F5C04F0FD1901CA4
:104CB000A04215D85188C94389B279B106EA4303A5
:104CC00080330246B3F5805FE4D2E952E2E759044B
:104CD000E0D4C3F3403106EA4303F3E70246D9E7E1
:104CE0000246DAE7A6120020FEDF0308FEEF030803
:104CF0000220FCF700F00308FFFF0308A8220020B1
:104D000008B5FFF7E3FEBDE80840FFF7A9BF0000C4
:104D1000B0F5805F10B5044614D20C4B1A5C8A4281
:104D200012D01954FFF7F2FE78B97F2C04D8204630
:104D3000BDE81040FFF772BF24F00100BDE810404D
:104D4000FFF72CBF072010BD002010BDA6120020C9
:104D5000B0F5805FF8B505460E4631D210F001037C
:104D60000CD0C9B2FFF7D4FF0446681C310A80B2E8
:104D7000FFF7CEFF052808BF2046F8BD134A175A93
:104D8000B9421FD05153FFF7C1FEF0B97F2D12D8A1
:104D9000FBB2F2B293420CD02846FFF73FFF044625
:104DA000360AB6EB172F0FD0681C80B2FFF736FF1C
:104DB000E0E70524F4E72846BDE8F840FFF7EEBE3B
:104DC0000720F8BD1846F8BD2046F8BDA612002001
:104DD000B0F5805F3ABF024B185CFF20704700BF00
:104DE000A612002040F6FE7398420BD8074B10F035
:104DF000010F1FBF1A18185C527840EA022008BF42
:104E0000185A70474FF6FF70704700BFA612002077
:104E100080B2FFF7DDBF80B2FFF77ABF80B2FFF745
:104E2000E1BF80B2FFF794BF81B2CB0710B508464F
:104E300010D5FFF7CDFF0446481C80B2FFF7D2FF24
:104E40000246C81C80B2FFF7C3FF000640EA0220FA
:104E5000204310BDFFF7C6FF0446881C80B2FFF751
:104E6000C1FF44EA004010BD38B584B2E3070D46E7
:104E700010D5C9B22046FFF74BFF601CC5F30F21C8
:104E800080B2FFF765FFE01C290E80B2BDE8384014
:104E9000FFF73EBF89B22046FFF75AFFA01C290C3E
:104EA00080B2BDE83840FFF753BFFFF7DDBF000019
:104EB0000B4BDA68D2070CD4DA6851070BD4DA68E6
:104EC000D2060AD4DB6813F0010F14BF04200520BA
:104ED000704701207047022070470320704700BFD1
:104EE0000020024073B50446FFF7E2FF0025FF26CD
:104EF00001280FD114B9062002B070BD01950196AA
:104F0000019B1BB9FFF7D4FF013CF1E7019B013B7B
:104F10000193F5E7002C08BF0620EDE738B50546FC
:104F200040F6FF70FFF7DEFF052815D10B4C236913
:104F300043F0020323616561236943F04003236169
:104F400040F6FF70FFF7CEFF06281EBF236923F04F
:104F5000020323613423E36038BD00BF0020024018
:104F6000104B00F178429A4270B505460E4616D8AD
:104F70001F20FFF7B7FF052812D10B4C236943F020
:104F8000010323611F202E80FFF7ACFF06281EBF00
:104F9000236923F0010323613423E36070BD0720FC
:104FA00070BD00BFFEFF070000200240044B1A69DD
:104FB000120641BF034A5A6002F188325A607047B4
:104FC0000020024023016745024A136943F0800331
:104FD000136170470020024030B585B0C0F307234D
:104FE0000190C0F30740BBB909B1314B185C8DF893
:104FF0000C008DF80D008DF80E009DF80C3000208F
:1050000063F307009DF80D3063F30F209DF80E3019
:1050100063F3174005B030BD9DF8042059B324490F
:10502000085C02EB420402EB4202FF21640094FBA5
:10503000F1F404EB4201C9B213FB01F2C1F1FF012B
:10504000C3F1FF054B4312121B12C2F1FF02C3F161
:10505000FF03454342434343C5F30725C2F30722F9
:10506000C3F30723C0B2062C1FD8DFE804F00611F3
:1050700014161B1E060080B2D3E7294602461D46C1
:105080000B468DF80C508DF80D208DF80E30B4E7DE
:105090002B460546F5E72A46FBE729460346154613
:1050A0000A46EEE71A460346EBE713460246E8E7F0
:1050B000BCBB00081FB50121FFF78EFF0346DAB223
:1050C000002062F30700C3F3072262F30F20C3F34B
:1050D000074363F3174005B05DF804FB70471FB545
:1050E000FFF7E8FF0346DAB2002062F30700C3F3DC
:1050F000072262F30F20C3F3074363F3174005B0A1
:105100005DF804FB13B58DF802208DF800008DF8D2
:10511000011000981C46FFF7E2FFC0F30743C0F3FD
:10512000072262702070A37002B010BD064A137887
:10513000590804D1012161F34703137070472429F2
:10514000FCDD2421F7E700BFF42B00200820FFF747
:105150006BBE08B5FFF7EAFFBDE80840014608202E
:10516000FFF7A3BE014B1868FFF7F3BFF42B002035
:10517000084B1A78012142F0010261F347021A70CC
:10518000FF2100225A709970D97018681A71FFF7C0
:10519000E0BF00BFF42B0020034B1B7813F001008D
:1051A00018BF5808704700BFF42B0020044A137939
:1051B000022B9CBF0133137108B1FFF7D3BF7047B7
:1051C000F42B00200120FFF7F1BF0000044A1379FF
:1051D0000BB1013B137108B1FFF7C4BF704700BFAB
:1051E000F42B00200120FFF7F1BF00F0C3BD000049
:1051F00070B5104B104D1B786978104813F00103FF
:1052000006D02B7803EB43031844FFF7EEFF70BD85
:10521000AA78EE7802EB42040444B24204F103049B
:10522000EFD2013204F8023C04F8033C04F8013CDC
:10523000D2B2F2E7F42B002062100020FC2B0020F9
:105240000E4B1B78DB0770B416D50D4C0D4EA378B2
:10525000E57803EB43043444AB4204F1030402D386
:1052600070BCFFF7C5BF013304F8020C04F8031C3F
:1052700004F8012CDBB2EFE770BC7047F42B002080
:1052800062100020FC2B0020094B1B78DB0707B5C0
:105290000AD501ABFFF736FF9DF806209DF80410F4
:1052A0009DF80500FFF7CCFF03B05DF804FB00BFDD
:1052B000F42B002010B5064B0279064904468A5C9F
:1052C00058789978FFF7E0FF23790133237110BDF7
:1052D000F42B002078BA000810B5054B0446DA78A4
:1052E00099780079FFF7D0FF23790133237110BD3E
:1052F000F42B002037B5164C0546207838B9FF222C
:1053000001AB1146FFF7FEFE9DF8053023702B79A7
:10531000012B09D004D3022B16D00022104601E045
:1053200020780022114602E0002221781046FFF783
:1053300087FF2B790322013393FBF2F202EB420247
:105340009B1A2B7103B030BD002022780146EEE796
:10535000B42200202DE9F04F334C94F800E085B0E2
:105360001EF0010F054688461646019320D04FEAED
:105370005E032E4FDFF8C0C0FF5C8CF800700EF0AB
:10538000FE0EBEF1020F16D103ABFFF7BBFE9DF878
:105390000E209DF80C109DF80D00FFF751FF019BAA
:1053A000657084F80280E67013B12068FFF7D1FEC3
:1053B00005B0BDE8F08F022F01D1E678EFE7062FA8
:1053C00001D16578EBE7092FFBD0192FE7D1193B05
:1053D000DBB203F0010200925B08154ADFF85C9033
:1053E00012F803A00027CB4699F80420FBB29342A1
:1053F00002D3FFF7FDFED2E703FB0AF090FBF2F0C9
:10540000009AC0B272B928449BF802201344094A9A
:1054100003EB43031344C0B232464146FFF772FE2A
:105420000137E1E7281AEFE7F42B002053BA000810
:1054300040BA0008FC2B0020B62200206210002099
:1054400010B405494C78CA78897808340346E0B22C
:105450005DF8044BFFF77EBFF42B00200120FFF71F
:10546000EFBF000010B405494C78CA788978083C31
:105470000346E0B25DF8044BFFF76CBFF42B00204D
:105480000120FFF7EFBF000010B4074CA178E278CD
:105490001131FF2928BFFF210346C9B260785DF8AA
:1054A000044BFFF757BF00BFF42B00200120FFF78C
:1054B000EBBF000010B4064CA178E278113921EA64
:1054C000E1710346C9B260785DF8044BFFF742BF53
:1054D000F42B00200120FFF7EDBF000010B4074CB3
:1054E000E278A1781132FF2A28BFFF220346D2B208
:1054F00060785DF8044BFFF72DBF00BFF42B002050
:105500000120FFF7EBBF000010B4064CE278A17851
:10551000113A22EAE2720346D2B260785DF8044B97
:10552000FFF718BFF42B00200120FFF7EDBF002389
:10553000FFF710BF2DE9F041144EDFF85880144FEB
:10554000044600253179E8B2884205F101050CD303
:10555000FFF74EFEA37813F0010F237914BF013338
:1055600003F1FF332371BDE8F081B378FF2292FB92
:10557000F1F22179034403EB430302FB001043449F
:10558000FA78B978C0B2FFF7BDFDDBE76210002002
:10559000F42B0020FC2B00202DE9F74F8378304EB0
:1055A000304D13F0010F0CBF01234FF0FF33009378
:1055B0004FF0000933795FFA89F843450CD8FFF7BB
:1055C00017FE009B012B2B7842D103B93379013BA5
:1055D0002B7003B0BDE8F08FB378234ADFF88CB0AE
:1055E000434403EB430303EB020A00248AF801401F
:1055F0009C549DF800308AF80240019304272A78D1
:105600002244D2B253B2092B1CDD092293FBF2F2E1
:1056100002EBC2029B1A5BB298450BD19BF80320A8
:105620009BF802109BF801007A435346C2F38702AD
:10563000FFF768FD019B013F1C44E4B2DFD109F193
:105640000109B7E7002BE7DA054B1B791344E2E7C2
:105650003179013393FBF1F201FB1233B8E700BF5C
:1056600062100020B5220020FC2B0020F42B00202B
:105670002DE9F8432B4C2C4DA378E07803EB430243
:105680002A440021834202F1030220D3274EDFF88F
:10569000A090DFF8A48000272179FAB28A421FD3B4
:1056A000FFF7A6FD224D23482A78017833780A4473
:1056B00052B20B445BB2002A33702A7003DD2279A8
:1056C000013A934201DB49420170BDE8F88301339E
:1056D00002F8021C02F8031C02F8011CDBB2D1E73D
:1056E00092FBF1F301FB1323A1780B4496F9001010
:1056F000DBB28A4203EB43030EDB99F900108A42C6
:105700000ADC2B4498F8032098F8021098F801005E
:10571000FFF7F8FC0137BFE7E91800224A70EA54A6
:105720008A70F7E762100020FC2B0020B3220020D3
:105730005F10002060100020F42B00202DE9F047BE
:105740000379DFF8A080DFF8A0A013FB03F25A432F
:10575000C3F12003552503FB03F103FB012355434C
:10576000B5FBF3F5EDB2292D88BFC5F155044FF017
:10577000020394BFA5EB8504A4EB840494FBF3F42B
:10578000013C0646E4B20027C14698F80420FBB26B
:105790009A420BD8FFF72CFD3379104AD3B9012177
:1057A0001170127813443371BDE8F0879A0799F8A5
:1057B00002200B49134458BFC5F1550003EB4303C6
:1057C00054BFC0B22846534422468978FFF79AFC5A
:1057D0000137DAE7202BE4D1FF21E1E76110002057
:1057E000F42B002062100020FC2B00202DE9F0415A
:1057F000134FDFF85480134C064600253A79954242
:1058000008DBFFF7F5FC3379013303F00103337153
:10581000BDE8F081BB782B4403EB4303B5EB520F9B
:105820004344327907DA42B1E278A1786078FFF731
:1058300069FC0135E2E7002AF6D00022F5E700BF57
:1058400062100020F42B0020FC2B002008B5094B2F
:105850001A786FF300021A701868FFF77AFC064B8B
:1058600000224FF4FA705A7002F0F1F8BDE80840D7
:10587000FFF7BEBCF42B0020B622002008B5084B71
:10588000084819780B224908FBF7BAFB10B9064BF8
:1058900001225A7001F060FA044B188008BD00BF65
:1058A000F42B002067100020B6220020AC2200203C
:1058B00010B5164C2378DA0726D5D8B9012262F341
:1058C0004703237011B12068FFF743FC217810488B
:1058D0000B224908FBF794FB98B10E4B00225A703B
:1058E0000D4BA17860780122DA70E278BDE81040B3
:1058F000FFF71DBE242801D92422E0E760F3470307
:10590000DFE7FFF7BBFFEBE710BD00BFF42B002084
:1059100067100020B6220020AC220020054B1B7827
:105920005B080133252B014634BF18460120FFF7E1
:10593000BFBF00BFF42B00200120FFF7EFBF000026
:10594000064B1B78C3F34603013B13F0FF030146EC
:1059500014BF18462420FFF7ABBF00BFF42B002074
:105960000120FFF7EDBF0121FFF7A2BF034B18781D
:1059700040F0010018704008FFF7F5BFF42B00203D
:10598000034B1B78DB0701D5FFF760BFFFF7EEBFC6
:10599000F42B00200021FFF78BBF000038B5124D1B
:1059A0002A78FAB9FDF7C8F918B9FDF753FAFFF7E5
:1059B000DFFBFFF7CBFB0D4C10F0FE0F206004D196
:1059C000FFF7D6FBFFF7C2FB2060FFF7AFFB084BEA
:1059D000207800225A70C30702D54008FFF7DAFF8B
:1059E00001232B7038BD00BFB2220020F42B002011
:1059F000B62200202D4B5A782DE9F041002A53D0D1
:105A00001A782B4B2B4E1B78C2EB5303DBB2022AC6
:105A1000B3701AD1284A294CD55CF3782BB10027F2
:105A2000F77001F099F9B780308001F095F933886B
:105A3000C01A80B247F6FE72904235D81D443580B8
:105A400023461C48BDE8F0411847062A03D11C4AEA
:105A50001C4CD55CE1E7092A04D15B081A4A1B4CAF
:105A6000D55CDAE70F2A04D15B08194A194CD55CDA
:105A7000D3E7152A03D1184A184CD55CCDE7182A6C
:105A80000FD0232A03D1164B164C1D88C5E7164BA1
:105A9000164C242A12BF4FF4FA654FF4FA751C46CF
:105AA000BBE72825124CB8E7BDE8F081B6220020FC
:105AB000F42B0020AC2200203CBA0008B5520008AC
:105AC00048BA0008D95200084BBA000835550008FA
:105AD00050BA00089955000845BA000871560008E8
