:020000040800F2
:1000000000040020590300085B0300085B0300089C
:100010005B0300085B0300085B0300085B03000848
:100020005B0300085B0300085B03000885A500086C
:100030005B0300085B0300085B0300085B03000828
:100040005B0300085B0300085B0300085B03000818
:100050005B0300085B03000819AF000859AF0008F4
:100060009DAF0008E1AF000825B00008F5B7000813
:1000700009B800081DB8000831B8000845B80008E4
:1000800059B800086DB800085B0300085B0300085E
:100090005B0300085B0300085B03000869B000080D
:1000A0006DB2000881B2000885B2000889B200086C
:1000B00011C200082DBE000825C2000845BA00087C
:1000C0004DBB00085B0300085B0300085B030008EE
:1000D0005B0300085B0300085B0300085B03000888
:1000E00051B100085B0300085B0300085B030008D4
:1000F00021C000085B0300085B0300085B030008E5
:100100005B0300085B0300085B0300085B03000857
:100110005B0300085B030008F9BF00080DC000087E
:1001200081B8000895B80008A9B80008BDB8000853
:10013000D1B800085B0300085B0300085B030008FC
:100140005B0300085B0300085B0300085B03000817
:100150005B0300085B0300085B0300085B03000807
:100160005B0300085B0300085B03000871C2000822
:100170005B0300085B0300085B0300085B030008E7
:100180005B0300085B0300085B0300085B030008D7
:100190005B0300085B0300085B0300085B030008C7
:0801A00019020008F10100083A
:1001B0000348044B834202D0034B03B118477047F6
:1001C0001010002010100020000000000548064913
:1001D0000B1AD90F01EBA301491002D0034B03B155
:1001E0001847704710100020101000200000000079
:1001F00010B5064C237843B9FFF7DAFF044B13B16F
:100200000448AFF300800123237010BD10100020BC
:100210000000000008D9000808B5044B1BB10449D0
:100220000448AFF30080BDE80840CFE700000000BD
:100230001410002008D9000872B6394880F30888E5
:10024000384880F3098838484EF60851CEF200014C
:10025000086040F20000CCF200004EF63471CEF29D
:1002600000010860BFF34F8FBFF36F8F40F20000B3
:10027000C0F2F0004EF68851CEF200010860BFF3E4
:100280004F8FBFF36F8F4FF00000E1EE100A4EF674
:100290003C71CEF200010860062080F31488BFF3A1
:1002A0006F8F09F02BFE09F049FD4FF055301F49C3
:1002B0001B4A91423CBF41F8040BFAE71C49194A1A
:1002C00091423CBF41F8040BFAE71A491A4A1B4B0A
:1002D0009A423EBF51F8040B42F8040BF8E70020A5
:1002E0001749184A91423CBF41F8040BFAE709F05C
:1002F00009FE09F004FE144C144DAC4203DA54F824
:10030000041B8847F9E705F01BFF114C114DAC4267
:1003100003DA54F8041B8847F9E709F0F1BD00003F
:1003200000040020000C0020000000080000002055
:100330000004002008D90008000C00201010002044
:1003400010100020902F0020A0010008A401000838
:10035000A4010008A80100086EE700F000F8FEE71D
:100360002DE9F04F2DED108AC1F80CD0C3689D46E1
:10037000BDEC108ABDE8F08F002383F31188284676
:10038000A04700200AF06EF8FEE70AF002F800DF4E
:10039000FEE7000000000000F8B52DED028B57ECE1
:1003A000106B55EC114B00F0CBF8634BB0EE408A6C
:1003B000F0EE608A93F9003001332AD022462B46B2
:1003C0002046294601F0F4FC18BB32463B46304635
:1003D000394601F0EDFC002844D1002200233046CC
:1003E000394601F0B3FCD8B100220023204629464B
:1003F00001F0ACFC00283DD145EC104B00F048FF6B
:1004000038B1204629460022002301F0A9FC00282B
:100410005CD1B0EE480AF0EE680ABDEC028BF8BD84
:10042000B0EE480AF0EE680A00F032FF58B351EC23
:10043000180B0022002301F089FC0028E9D047ECCA
:10044000106B00F025FF0028E3D045EC104B00F0C6
:100450001FFF0028DDD001F095FE22239FED2E8B9B
:100460000360D6E7204629460022002301F06EFCF7
:100470000028CED09FED2A8BB0EE480AF0EE680A35
:10048000BDEC028BF8BD47EC106B00F001FF0028BB
:10049000CDD045EC104B00F0FBFE0028C7D053EC4C
:1004A000182B18EE100A194601F082FC20BB01F04F
:1004B00069FE034622221A60304639460022002394
:1004C00001F04EFC48B99FED188BA2E701F05AFEEF
:1004D00021239FED178B03609BE745EC104B00F049
:1004E000EBFE224651EC100B2B4601F02FFC0028AE
:1004F000E9D19FED0F8B8CE701F044FE0022002331
:10050000212101601046194601F0E2FA41EC180B76
:100510007FE700BFAFF30080000000000000000094
:10052000000000000000F03F000000000000F07F2D
:10053000000000000000F0FF000C002000000000A0
:100540002DE9F04F57EC116B2DED0A8B27F0004A87
:100550005AEA060289B03DD055EC104B764925F099
:100560000048884510EE102AA9462CDC11EE103AFE
:10057000BB463AD08A4526DC6F498A4521D0B9F17D
:10058000000F3DDB00210391002B55D16A4B9A45AA
:1005900000F0A880694B9A4500F0B680BBF1804F0F
:1005A00000F00185664B9B4546D1B9F1000F43DB56
:1005B00045EC104B09B0BDEC0A8BBDE8F04F00F0E4
:1005C00099BD002BDBD008F1404808F5801858EAA7
:1005D00002030DD19FED547B8DED007B9DED000B53
:1005E00009B0BDEC0A8BBDE8F08F0CB9C245C3DD84
:1005F000544809B0BDEC0A8BBDE8F04F00F054BE82
:1006000051498A4500F38780A1F154718A450FDD75
:100610004FEA2A51A1F2FF31142940F3CE84C1F1EF
:10062000340123FA01F000FA01F1994200F020852B
:1006300000210391002BADD045EC104B069200F049
:100640001DFE069A8DED000B5ABBB8F1000F04D0C9
:100650003A4B29F040429A4223D1BBF1000F07DA0E
:10066000DDE900233549002001F032FACDE900012F
:10067000B9F1000FB2DA039B08F1404808F5801881
:1006800058EA030340F0BE84DDE900231046194612
:1006900000F03CFF02460B4601F01AFACDE90001DA
:1006A0009CE7039A4FEAD973013B0693134335D075
:1006B000264B9A454EDD03F104739A45244B40F3D3
:1006C000ED83984540F36B83BBF1000F40F36B83E0
:1006D00017A3D3E900231046194601F0CFF8CDE95E
:1006E00000017BE708F1404303F5801313433FF417
:1006F00071AF174B984540F38883BBF1000FC0F2F0
:100700005283CDE9006769E7BBF1000FC0F2418475
:10071000CDE9004562E70221039135E722462B46E9
:10072000B4E700BFAFF30080000000000000F03F1E
:100730009C7500883CE4377E0000F07F0000F03FAD
:100740000000E03F90D80008FFFF3F430000E04179
:10075000FFFFEF3FE44B09EA0303002B40F0168450
:10076000DDE90001E14B002201F088F8CDE900014C
:10077000DDF804806FF034004FEA2853DC49C8F3F9
:100780001302A3F2FF3342F07F5818188A420790F1
:1007900048F4401840F3E983D64B9A4240F33E8434
:1007A0009FEDBB7BB0EE47BAF0EE67BAB0EE47CA3A
:1007B000F0EE67CA9FEDB87B013054EC173B079011
:1007C000A8F580184FF00009DDE900AB44EC183BB8
:1007D0001A4650462346414600F098FE53EC182B2B
:1007E00004460D465046414600F092FE02460B4636
:1007F0000020C14901F06CF945EC1A4B41EC190B92
:1008000051EC1A0B53EC192B01F038F8C3464FEAA0
:10081000680848F0005808F5002303EB09050A466C
:1008200000230146CDE900120093DDE90089002490
:10083000CDE904122B4622464046494601F01EF8F7
:1008400002460B4651EC1A0B00F060FE41EC170B10
:1008500053EC182B2046294655EC174B00F056FE5A
:1008600002460B465046594600F050FE42464B4663
:1008700001F004F802460B462046294600F046FEE9
:1008800053EC192B00F0FAFFDDE904AB04460D46EA
:1008900052465B465046594600F0F0FF80A3D3E92C
:1008A000002345EC1A4B04460D4600F0E7FF7EA3FB
:1008B000D3E9002300F02CFE22462B4600F0DEFF99
:1008C0007BA3D3E9002300F023FE22462B4600F051
:1008D000D5FF79A3D3E9002300F01AFE22462B4668
:1008E00000F0CCFF76A3D3E9002300F011FE2246EE
:1008F0002B4600F0C3FF74A3D3E9002300F008FEE9
:1009000022462B4604460D461046194600F0B6FF17
:1009100002460B462046294600F0B0FF42460446F8
:100920000D464B4650465946CDE904AB00F0F0FD6C
:1009300053EC1A2B00F0A2FF22462B4600F0E8FDF4
:10094000424604460D464B464046494600F096FF57
:1009500045EC194B694B002282468B4600F0D8FDCE
:1009600053EC192B00F0D4FD009C0D4622462B467B
:100970004046494600F082FF604B8046894600228F
:100980002046294600F0C2FD52465B4600F0BEFDFF
:1009900002460B4651EC190B00F0B8FDDDE90423CB
:1009A00000F06CFF49EC188B2246804689462B46A6
:1009B00051EC1A0B00F062FF02460B4640464946D6
:1009C00000F0A6FD82468B4652465B4651EC180B62
:1009D00000F09EFD009C3EA3D3E9002320460D4677
:1009E00000F04CFF53EC182B8046894620462946E0
:1009F00000F08CFD02460B465046594600F086FD3D
:100A000035A3D3E9002300F039FF49EC198B34A357
:100A1000D3E90023804689462046294600F02EFF70
:100A200002460B464046494600F072FD53EC1C2B33
:100A300000F06EFD824607988B4600F0B5FE5246E8
:100A4000804689465B4651EC190B00F061FD53EC82
:100A50001B2B00F05DFD42464B4600F059FD009C0B
:100A600042464B4620460D4600F050FD53EC1B2BF2
:100A700000F04CFD53EC192B00F048FD02460B46EC
:100A80005046594600F042FD82468B4638E000BF92
:100A90000000000000000000000000000000F03F27
:100AA000EF4E454A287ECA3F65DBC9934A86CD3F53
:100AB00001411DA96074D13F4D268F515555D53F39
:100AC000FFAB6FDBB66DDB3F033333333333E33FD1
:100AD000000000E009C7EE3FFD033ADC09C7EE3F26
:100AE000F5015B14E02F3EBE0000F07F00004043A4
:100AF0008E98030079B60B000000F03F000008401C
:100B0000039B069A013B134340F078819FEDC47B21
:100B1000B0EE479AF0EE679A0023CDE900670093A4
:100B2000DDE900893046424639464B4600F0EEFC8E
:100B300022462B4600F0A2FE32463B4606460F46B2
:100B40005046594600F09AFE02460B46304639465A
:100B500000F0DEFC424682468B464B462046294644
:100B600000F08CFE06460F463B465046594632463C
:100B700000F0CEFCC44B994204460D46884640F333
:100B8000178101F13F4303F5E003034340F02A825C
:100B9000A5A3D3E900235046594600F0B9FC3246DC
:100BA00041EC180B3B462046294600F0AFFC0246BC
:100BB0000B4651EC180B01F0F1F8002840F01282BE
:100BC000C8F30A534FF48012A3F2FE3342FA03F340
:100BD0004344AE49C3F30A52A2F2FF3241FA02FC87
:100BE000C3F3130523EA0C01C2F1140445F4801584
:100BF000B8F1000F0B4645FA04F103914FF00000E5
:100C0000B8BF49420246B8BF03913046394600F0AA
:100C10007DFC06460F463B4650465946324600F09C
:100C200077FC039B1B0500930D46002480A3D3E9AA
:100C300000232046294600F021FE324680468946A0
:100C40003B462046294600F061FC02460B465046D2
:100C5000594600F05BFC78A3D3E9002300F00EFEB8
:100C600077A3D3E9002306460F462046294600F025
:100C700005FE02460B463046394600F049FC064662
:100C80000F4632463B464046494600F041FC42464C
:100C90004B4604460D4600F039FC02460B463046F2
:100CA000394600F033FC224682468B462B462046CE
:100CB000294600F0E3FD64A3D3E9002306460F466E
:100CC00000F0DCFD62A3D3E9002300F01FFC3246F4
:100CD0003B4600F0D3FD60A3D3E9002300F018FCED
:100CE00032463B4600F0CAFD5DA3D3E9002300F085
:100CF0000DFC32463B4600F0C1FD5BA3D3E9002367
:100D000000F006FC32463B4600F0B8FD02460B46BA
:100D10002046294600F0FAFB06460F4632463B467F
:100D20002046294600F0AAFD0022804689464FF061
:100D300080433046394600F0E9FB02460B46404608
:100D4000494600F0C5FE524606460F465B46204621
:100D5000294600F093FD52465B4600F0D9FB02465F
:100D60000B463046394600F0D1FB22462B4600F0B8
:100D7000CDFB02460B460020454900F0C7FB0B4661
:100D800000991944B1F5801F0246C0F269811046EE
:100D900053EC192B00F072FDCDE900011EE4BBF10C
:100DA000000FFFF695AC9FED327B8DED007B15E4D7
:100DB000DFF8E4C021F00043634540F30B81354B7D
:100DC0000B4403430AD132463B4600F09FFB524698
:100DD0005B4600F0D9FF00283FF4F2AE26A3D3E92A
:100DE000002351EC190B00F049FD23A3D3E90023A4
:100DF00000F044FDCDE90001FFF7F0BB9FED207B43
:100E0000B0EE479AF0EE679A86E6BBF1000FCADAB9
:100E100007F1004300960193FFF7E0BBAFF30080BA
:100E2000000000000000F0BFFE822B654715973CD4
:100E300000000000432EE63FEF39FAFE422EE63F67
:100E4000396CA80C615C20BED0A4BE726937663EC6
:100E5000F16BD2C541BDBB3E2CDE25AF6A56113FBA
:100E600093BDBE166CC1663F3E5555555555C53FA1
:100E7000000000000000000059F3F8C21F6EA50139
:100E8000000000000000F03FFFFF8F40FFFF0F0059
:100E90000000F03F00346F3FFFCB90409845FFF6D5
:100EA0007EAF914B98453FF70FAC8F4B0022DDE9A9
:100EB000000100F02BFB78A3D3E9002304460D4684
:100EC00000F0DCFC76A3D3E9002382468B46204663
:100ED000294600F0D3FC854B8046894600222046F7
:100EE000294600F0CBFC02460B466FA1D1E9000178
:100EF00000F00CFB22462B4600F0C0FC02460B46DD
:100F000000207B4900F002FB22462B4604460D469A
:100F10001046194600F0B2FC02460B462046294610
:100F200000F0ACFC62A3D3E9002300F0A7FC02466A
:100F30000B464046494600F0E9FA8046894650464D
:100F4000594642464B4600F0E3FA002452465B46BF
:100F500020460D4600F0DAFA02460B464046494666
:100F600000F0D4FA82468B46CAE59FED537BB0EE83
:100F700047BAF0EE67BAB0EE47CAF0EE67CA9FED27
:100F8000507B4FF0000954EC173B1DE40020FFF7A5
:100F9000F3BB554922462B46002000F099FDCDE9D0
:100FA0000001FFF71BBB22462B462046294600F0D6
:100FB00065FCCDE90001FFF711BB002B42D1C1F167
:100FC00014014AFA01F000FA01F151455AD0039395
:100FD000FFF7E0BA464A93425BDCDDE9001200917C
:100FE000039122E638A3D3E9002351EC190B00F05A
:100FF00045FC35A3D3E9002300F040FCCDE9000116
:10100000FFF7ECBA039B012B7FF4E8AADDE900218E
:1010100001F10043CDE90023FFF7E0BA9FED2C7BFF
:10102000B0EE47BAF0EE67BA9FED2B7BB0EE47CA41
:10103000F0EE67CA9FED2A7B4FF4802954EC173BF2
:10104000FFF7C2BB45EC104B039200F017F9039A6F
:101050008DED000B002A7FF461AB0392FFF7F5BA28
:10106000039843EC102B00F0BBF951EC100B8FE60A
:1010700000F00100C0F102010391002B3FF48AAAA5
:10108000FFF7DABA00F00100C0F102030393FFF7A3
:1010900081BA1B1596E500BF000000604715F73FB9
:1010A00044DF5DF80BAE543E555555555555D53F6B
:1010B000FE822B654715F73F00000000000000008E
:1010C000000000000000F03F9C7500883CE4377E83
:1010D0000000004003B8E23F06D0CF43EBFD4C3E9A
:1010E000000000000000F83F0000F03F0000D03F8B
:1010F0000000E03F2DE9F0415F4A57EC106BBA4326
:1011000000F09880002F10EE104A3B464EDD391556
:101110005BD0C3F31303CA0743F48013A1F2FF3E6D
:1011200003D45B0003EBD4736400E20F4FF0000CB8
:1011300002EB43034FEA6E0E6400664616254FF439
:101140000012B118994202DC5B1A8E1894445B00BD
:10115000013D03EBD4734FEA52024FEA4404F0D14D
:101160002F4620204FF0004209E03ED0E10F013829
:101170004FEA520201EB43034FEA44043ED0B3422C
:1011800002EB0501F1DD002901EB020509DBB046A8
:101190009B1BA14288BF03F1FF33641A17444646E4
:1011A000E4E7002DF3DB06F10108F1E727F0004248
:1011B000324336D0002F4DD13946E20A1539640545
:1011C0001346002AF9D0D70251D400205B00DE027A
:1011D000054600F10100F9D51A4623468440C0F1C6
:1011E0002000C3401343491B93E7A142BED8002906
:1011F00001EB0205D5DB98460023CEE7234312D14D
:1012000078084FEA6C0101F17F511CF0010F01F5E4
:10121000001118BF40F0004001EB0E53024643ECB2
:10122000102BBDE8F0817B1C16BF781C0CF1010C63
:101230004008E6E710EE102A10EE100A3B46394649
:1012400000F01CFB32463B4600F062F941EC100B0B
:10125000BDE8F08110EE102A3046394600F056F90C
:1012600002460B4600F034FC41EC100BD9E7234654
:1012700020204FF0FF35B4E70000F07F51EC100B59
:1012800010EE102A21F0004343EC102B704700BFF2
:1012900082B08DED000B019840F0004000F5801009
:1012A000C00F02B0704700BF9FED010B704700BF39
:1012B000000000000000F87FF0B553EC102BC3F3E2
:1012C0000A56A6F2FF30132810EE105A83B01946C2
:1012D0004FEAD37431DC00284CDB3E4E064103EA72
:1012E000060717432ED003EA56031D434FEA56065E
:1012F0000CD04FF48023132821EA060643FA00F1AC
:1013000041EA06010CBF4FF000450025324800EBD2
:10131000C4042A46D4E900450B462046294600F07D
:10132000F7F8CDE90001DDE9000122462B4600F087
:10133000EDF841EC100B03B0F0BD332806DDB0F53D
:10134000806F40D043EC102B03B0F0BDA6F21346E3
:101350004FF0FF30F0400242F4D015EA50024FEA5D
:101360005003D3D04FF0804225EA030542FA06F637
:101370003543CBE723F000401043E3D0C3F3130021
:10138000104345420543144800EBC400D0E9006710
:10139000590C2D0B490405F4002545EA010330469C
:1013A000394600F0B5F8CDE900013B46DDE9000122
:1013B000324600F0ABF821F0004343EAC47141EC3F
:1013C000100B03B0F0BD10EE100A00F0A1F841ECD4
:1013D000100BB9E7FFFF0F0088C9000800000000EC
:1013E00038B553EC102BC3F30A511C46054681BB9C
:1013F00010EE101A23F00044214329D01946002290
:101400003D4B3E4C10EE100A00F038FAA542024661
:101410000B4616DB0C46C1F30A513639294440F21B
:10142000FE70814221DC002947DC11F1350F34DAEE
:101430004CF250318D4218DC002B27A1D1E900017C
:1014400044DB25A3D3E9002300F018FA41EC100B8C
:1014500038BD40F2FF708142E0D110EE100A19460B
:1014600000F056F841EC100B38BD002B1CA1D1E95F
:10147000000107DB1AA3D3E9002300F0FFF941ECD8
:10148000100B38BD18A1D1E9000115A3D3E9002341
:1014900000F0F4F941EC100BF3E724F0FF4424F4DE
:1014A000E004363144EA0153104619460022144B39
:1014B00000F0E4F941EC100B38BD24F0FF4424F4B3
:1014C000E00444EA015343EC102B38BD08A1D1E9F4
:1014D0000001B6E7AFF3008059F3F8C21F6EA50113
:1014E0009C7500883CE4377E9C7500883CE437FEA0
:1014F00059F3F8C21F6EA58100005043B03CFFFFB6
:101500000000903C81F0004102E000BF83F0004306
:1015100030B54FEA41044FEA430594EA050F08BF8E
:1015200090EA020F1FBF54EA000C55EA020C7FEA52
:10153000645C7FEA655C00F0E2804FEA5454D4EBCF
:101540005555B8BF6D420CDD2C4480EA020281EA99
:10155000030382EA000083EA010180EA020281EAD1
:101560000303362D88BF30BD11F0004F4FEA013123
:101570004FF4801C4CEA113102D0404261EB410132
:1015800013F0004F4FEA03334CEA133302D05242B8
:1015900063EB430394EA050F00F0A780A4F1010474
:1015A000D5F1200E0DDB02FA0EFC22FA05F28018AE
:1015B00041F1000103FA0EF2801843FA05F3594194
:1015C0000EE0A5F120050EF1200E012A03FA0EFC13
:1015D00028BF4CF0020C43FA05F3C01851EBE3713D
:1015E00001F0004507D54FF0000EDCF1000C7EEB5A
:1015F00000006EEB0101B1F5801F1BD3B1F5001F98
:101600000CD349085FEA30004FEA3C0C04F10104B6
:101610004FEA445212F5800F80F09A80BCF1004FDF
:1016200008BF5FEA500C50F1000041EB045141EA61
:10163000050130BD5FEA4C0C404141EB0101013C2A
:1016400028BFB1F5801FE9D291F0000F04BF014619
:101650000020B1FA81F308BF2033A3F10B03B3F1EB
:1016600020020CDA0C3208DD02F1140CC2F10C027B
:1016700001FA0CF021FA02F10CE002F11402D8BFD9
:10168000C2F1200C01FA02F120FA0CFCDCBF41EAA5
:101690000C019040E41AA2BF01EB0451294330BD74
:1016A0006FEA04041F3C1CDA0C340EDC04F1140451
:1016B000C4F1200220FA04F001FA02F340EA030028
:1016C00021FA04F345EA030130BDC4F10C04C4F16E
:1016D000200220FA02F001FA04F340EA030029464E
:1016E00030BD21FA04F0294630BD94F0000F83F498
:1016F000801306BF81F480110134013D4EE77FEA7B
:10170000645C18BF7FEA655C29D094EA050F08BFC6
:1017100090EA020F05D054EA000C04BF19461046A7
:1017200030BD91EA030F1EBF0021002030BD5FEAEB
:10173000545C05D14000494128BF41F0004130BD13
:1017400014F580043CBF01F5801130BD01F0004567
:1017500045F0FE4141F470014FF0000030BD7FEADA
:10176000645C1ABF194610467FEA655C1CBF0B46D5
:10177000024650EA013406BF52EA033591EA030FEC
:1017800041F4002130BD00BF90F0000F04BF0021E4
:10179000704730B54FF4806404F132044FF0000517
:1017A0004FF0000150E700BF90F0000F04BF002190
:1017B000704730B54FF4806404F1320410F00045F6
:1017C00048BF40424FF000013EE700BF42004FEAF1
:1017D000E2014FEA31014FEA02701FBF12F07F436E
:1017E00093F07F4F81F06051704732F07F4208BF25
:1017F000704793F07F4F04BF41F40021704730B52C
:101800004FF4607401F0004521F000411CE700BF77
:1018100050EA010208BF704730B54FF000050AE0FA
:1018200050EA010208BF704730B511F0004502D5FB
:10183000404261EB41014FF4806404F132045FEAFD
:10184000915C3FF4D8AE4FF003025FEADC0C18BFA6
:1018500003325FEADC0C18BF033202EBDC02C2F198
:10186000200300FA03FC20FA02F001FA03FE40EA2A
:101870000E0021FA02F11444BDE600BF70B54FF02E
:10188000FF0C4CF4E06C1CEA11541DBF1CEA13550C
:1018900094EA0C0F95EA0C0F00F0DEF82C4481EA74
:1018A000030621EA4C5123EA4C5350EA013518BF94
:1018B00052EA033541F4801143F4801338D0A0FB81
:1018C00002CE4FF00005E1FB02E506F00042E0FB2E
:1018D00003E54FF00006E1FB03569CF0000F18BF34
:1018E0004EF0010EA4F1FF04B6F5007F64F54074DC
:1018F00004D25FEA4E0E6D4146EB060642EAC6216F
:1019000041EA55514FEAC52040EA5E504FEACE2EDB
:10191000B4F1FD0C88BFBCF5E06F1ED8BEF1004FDE
:1019200008BF5FEA500E50F1000041EB045170BD5A
:1019300006F0004646EA010140EA020081EA03019E
:10194000B4EB5C04C2BFD4EB0C0541EA045170BD9A
:1019500041F480114FF0000E013C00F3AB8014F114
:10196000360FDEBF002001F0004170BDC4F100045D
:10197000203C35DA0C341BDC04F11404C4F12005DE
:1019800000FA05F320FA04F001FA05F240EA020039
:1019900001F0004221F0004110EBD37021FA04F66F
:1019A00042EB06015EEA430E08BF20EAD37070BD29
:1019B000C4F10C04C4F1200500FA04F320FA05F088
:1019C00001FA04F240EA020001F0004110EBD3708A
:1019D00041F100015EEA430E08BF20EAD37070BDFA
:1019E000C4F1200500FA05F24EEA020E20FA04F3D3
:1019F00001FA05F243EA020321FA04F001F0004182
:101A000021FA04F220EA020000EBD3705EEA430EF2
:101A100008BF20EAD37070BD94F0000F0FD101F021
:101A20000046400041EB010111F4801F08BF013C5A
:101A3000F7D041EA060195F0000F18BF704703F098
:101A40000046520043EB030313F4801F08BF013D1F
:101A5000F7D043EA0603704794EA0C0F0CEA1355DB
:101A600018BF95EA0C0F0CD050EA410618BF52EA95
:101A70004306D1D181EA030101F000414FF000009B
:101A800070BD50EA410606BF1046194652EA4306A9
:101A900019D094EA0C0F02D150EA013613D195EA1D
:101AA0000C0F05D152EA03361CBF104619460AD165
:101AB00081EA030101F0004141F0FE4141F470016F
:101AC0004FF0000070BD41F0FE4141F4780170BD5F
:101AD00070B54FF0FF0C4CF4E06C1CEA11541DBFC4
:101AE0001CEA135594EA0C0F95EA0C0F00F0A7F8C6
:101AF000A4EB050481EA030E52EA03354FEA0131F3
:101B000000F088804FEA03334FF0805545EA131305
:101B100043EA12634FEA022245EA111545EA1065CD
:101B20004FEA00260EF000419D4208BF964244F164
:101B3000FD0404F5407402D25B084FEA3202B61A83
:101B400065EB03055B084FEA32024FF480104FF457
:101B5000002CB6EB020E75EB030E22BFB61A7546CB
:101B600040EA0C005B084FEA3202B6EB020E75EB5E
:101B7000030E22BFB61A754640EA5C005B084FEAC6
:101B80003202B6EB020E75EB030E22BFB61A754693
:101B900040EA9C005B084FEA3202B6EB020E75EB9E
:101BA000030E22BFB61A754640EADC0055EA060E5F
:101BB00018D04FEA051545EA16754FEA06164FEAA2
:101BC000C30343EA52734FEAC2025FEA1C1CC0D14E
:101BD00011F4801F0BD141EA00014FF000004FF0DB
:101BE000004CB6E711F4801F04BF01430020B4F19C
:101BF000FD0C88BFBCF5E06F3FF6AFAEB5EB030C54
:101C000004BFB6EB020C5FEA500C50F1000041EB50
:101C1000045170BD0EF0004E4EEA113114EB5C041D
:101C2000C2BFD4EB0C0541EA045170BD41F48011F0
:101C30004FF0000E013C90E645EA060E8DE60CEAF8
:101C4000135594EA0C0F08BF95EA0C0F3FF43BAF15
:101C500094EA0C0F0AD150EA01347FF434AF95EACC
:101C60000C0F7FF425AF104619462CE795EA0C0FB0
:101C700006D152EA03353FF4FDAE1046194622E77D
:101C800050EA410618BF52EA43067FF4C5AE50EA57
:101C900041047FF40DAF52EA43057FF4EBAE12E747
:101CA0004FF0FF3C06E000BF4FF0010C02E000BF28
:101CB0004FF0010C4DF804CD4FEA410C7FEA6C5C0B
:101CC0004FEA430C18BF7FEA6C5C1BD001B050EAAE
:101CD000410C0CBF52EA430C91EA030F02BF90EA99
:101CE000020F0020704710F1000F91EA030F58BF58
:101CF000994208BF90422CBFD8176FEAE37040F0BA
:101D0000010070474FEA410C7FEA6C5C02D150EA57
:101D1000013C07D14FEA430C7FEA6C5CD6D152EA12
:101D2000033CD3D05DF8040B704700BF84461046D7
:101D300062468C461946634600E000BF01B5FFF7D6
:101D4000B7FF002848BF10F1000F01BD4DF808EDA6
:101D5000FFF7F4FF0CBF012000205DF808FB00BF77
:101D60004DF808EDFFF7EAFF34BF012000205DF8D1
:101D700008FB00BF4DF808EDFFF7E0FF94BF01201E
:101D800000205DF808FB00BF4DF808EDFFF7CEFF1F
:101D900094BF012000205DF808FB00BF4DF808ED5E
:101DA000FFF7C4FF34BF012000205DF808FB00BF2F
:101DB0004FEA410C7FEA6C5C02D150EA013C0AD147
:101DC0004FEA430C7FEA6C5C02D152EA033C02D139
:101DD0004FF0000070474FF0010070474FEA41029A
:101DE000B2F1E04324BFB3F5001CDCF1FE5C0DD979
:101DF00001F0004C4FEAC0024CEA5070B2F1004FC3
:101E000040EB830008BF20F00100704711F0804FC5
:101E100021D113F13872BCBF01F00040704741F48A
:101E200080114FEA5252C2F11802C2F1200C10FA8E
:101E30000CF320FA02F018BF40F001004FEAC12372
:101E40004FEAD32303FA0CFC40EA0C0023FA02F316
:101E50004FEA4303CCE77FEA625307D150EA0133EC
:101E60001EBF4FF0FE4040F44000704701F00040BC
:101E700040F0FE4040F40000704700BF53B94AB93B
:101E8000002908BF00281CBF4FF0FF314FF0FF3082
:101E900000F06EB9ADF1080C6DE904CE00F006F863
:101EA000DDF804E0DDE9022304B070472DE9F047D6
:101EB000089D04468C46002B40F083808A421746DA
:101EC00047D9B2FA82F242B1C2F1200024FA00F0FE
:101ED0009140974040EA010C94404FEA1748230C88
:101EE000BCFBF8F61FFA87FE08FB16C143EA014364
:101EF00006FB0EF1994209D9FB1806F1FF3080F07C
:101F00001981994240F21681023E3B445B1AA4B209
:101F1000B3FBF8F008FB103344EA034400FB0EFE69
:101F2000A64509D93C1900F1FF3380F00581A6458B
:101F300040F2028102383C4440EA0640A4EB0E0421
:101F400000261DB1D4400023C5E900433146BDE859
:101F5000F08702B9FFDEB2FA82F2002A50D1CB1B21
:101F60004FEA174E1FFA87F80126B3FBFEFC210C3F
:101F70000EFB1C3341EA034108FB0CF38B4207D9EB
:101F800079180CF1FF3002D28B4200F2E9808446CE
:101F9000C91AA3B2B1FBFEF00EFB101143EA0144D3
:101FA00008FB00F8A04507D93C1900F1FF3302D225
:101FB000A04500F2D9801846A4EB080440EA0C4082
:101FC000BFE78B4209D9002D00F0B1800026C5E99A
:101FD000000130463146BDE8F087B3FA83F6002EA3
:101FE0004AD18B4202D3824200F2B880841A61EB5C
:101FF000030101208C46002DA8D0C5E9004CA5E7BF
:10200000C2F1200320FA03F6974001FA02F04FEAEA
:10201000174ED9403043030CB1FBFEF61FFA87F888
:102020000EFB161143EA014306FB08F1994204FA3C
:1020300002F409D9FB1806F1FF3C80F08D8099422B
:1020400040F28A80023E3B445B1A81B2B3FBFEF051
:102050000EFB103341EA034100FB08F38B4207D922
:10206000791800F1FF3C73D28B4271D902383944A0
:10207000CB1A40EA064678E7C6F1200C03FA06F4CC
:1020800022FA0CF31C4320FA0CF701FA06F34FEA8C
:10209000144E21FA0CF11F433B0CB1FBFEF91FFA61
:1020A00084F80EFB191143EA014109FB08FA8A453D
:1020B00002FA06F200FA06F308D9611809F1FF30B6
:1020C00048D28A4546D9A9F102092144A1EB0A0167
:1020D000BFB2B1FBFEF00EFB101147EA014700FB57
:1020E00008F8B84507D9E71900F1FF312ED2B845F5
:1020F0002CD90238274440EA0940A7EB0807A0FB87
:1021000002894F45C64649461AD317D05DB1B3EB95
:102110000E0267EB010707FA0CFCF2404CEA0202E0
:10212000F740C5E9002700263146BDE8F0872E4676
:1021300028460BE70646E9E61846FDE64345E5D2A4
:10214000B8EB020E69EB04010138DFE70846D2E77D
:1021500060468DE78146B9E7664675E730464AE74F
:10216000ACF1020C394413E702383C4424E700BFC9
:10217000704700BF08B5062000F074FA01200AF08D
:10218000CDFB00BF014B1868704700BF040C002056
:1021900001F0FF01102A2BDB10F0070F08D010F818
:1021A000013B013A8B422DD010F0070F42B3F6D11C
:1021B000F0B441EA012141EA014122F007047FF035
:1021C00000070023F0E80256083C85EA010586EA8C
:1021D000010685FA47F5A3FA87F586FA47F6A5FAC8
:1021E00087F68EB9EED1F0BC01F0FF0102F00702D4
:1021F00032B110F8013B013A83EA010313B1F8D17F
:102200000020704701387047002D06BF354603385F
:10221000073815F0010F07D1013015F4807F02BF98
:10222000013015F4C03F0130F0BC0138704700BFE9
:10223000032A70B412D940EA0105AD0704460B46E3
:102240001ED11946204653F8045B54F8046BAE4285
:1022500016D1043A032A20461946F2D8561EA2B1D6
:102260000139441E01E0C3180CD014F8015F11F8C5
:10227000012F9542A6EB0403F5D0A81A70BC704755
:10228000561EEDE7184670BC70471046F6E700BFD3
:10229000844641EA000313F003036DD1403A41D371
:1022A00051F8043B40F8043B51F8043B40F8043B30
:1022B00051F8043B40F8043B51F8043B40F8043B20
:1022C00051F8043B40F8043B51F8043B40F8043B10
:1022D00051F8043B40F8043B51F8043B40F8043B00
:1022E00051F8043B40F8043B51F8043B40F8043BF0
:1022F00051F8043B40F8043B51F8043B40F8043BE0
:1023000051F8043B40F8043B51F8043B40F8043BCF
:1023100051F8043B40F8043B51F8043B40F8043BBF
:10232000403ABDD2303211D351F8043B40F8043B5F
:1023300051F8043B40F8043B51F8043B40F8043B9F
:1023400051F8043B40F8043B103AEDD20C3205D36F
:1023500051F8043B40F8043B043AF9D2043208D067
:10236000D2071CBF11F8013B00F8013B01D30B88D9
:1023700003806046704700BF082A13D38B078DD0B7
:1023800010F003038AD0C3F10403D21ADB071CBF89
:1023900011F8013B00F8013B80D331F8023B20F8F3
:1023A000023B7BE7043AD9D3013A11F8013B00F82C
:1023B000013BF9D20B7803704B7843708B788370B4
:1023C00060467047F0B4860746D0541E002A3CD0C1
:1023D000CAB2034601E0013C37D303F8012B9D0745
:1023E000F9D1032C2AD9CDB245EA05250F2C45EAAF
:1023F000054534D9A4F1100222F00F0C03F1200797
:102400001609674403F1100242E9045542E90255F6
:102410001032BA42F8D1721C14F00C0F03EB021206
:1024200004F00F0613D0331F23F0030304331344C7
:1024300042F8045B9342FBD106F003042CB1CAB20C
:102440001C4403F8012B9C42FBD1F0BC704734467E
:102450001346002CF3D1F8E714460346C1E71A46A9
:102460002646E0E738B5124B1D68AA6B04461AB140
:102470000023C2E9044338BD182000F073F9024676
:10248000A86378B10B4B136001200021C2E904015D
:102490000B230948094993810023C2E90101C2E9DC
:1024A000044338BD064B0748422100F015F900BF30
:1024B000040C00200E33CDAB34126DE6ECDE0500CB
:1024C00038D8000850D8000838B51A4B1C68A26BE1
:1024D00092B1146918495369184801FB04F100FBD3
:1024E0000313A4FB0045611C1D4445F10003C2E930
:1024F000041323F0004038BD182000F033F90246E1
:10250000A06388B101200021C2E904010A480C4CF3
:102510000C4B0D490D4D146053600B240346C2E96A
:1025200004139560948138BD094B0A484E2100F090
:10253000D3F800BF040C00202DF451582D7F954C8A
:102540000E33CDAB34126DE62E7F954CECDE0500DC
:1025500038D8000850D8000810B58021044600F093
:102560006FF9606448B1031F00F17C02002143F859
:10257000041F9342FBD1002010BD4FF0FF3010BD6F
:10258000436C0BB100207047E6E700BF1F2970B510
:10259000044608D8436C0D4616464BB153F8250047
:1025A00043F8256070BD162303604FF0FF3070BD07
:1025B000FFF7D2FF08B9636CF0E74FF0FF3070BD52
:1025C0001F2938B5054620D8426C0C466AB152F82E
:1025D000213053B1012B16D0591C10D000252046B4
:1025E00042F824509847284638BD284600F072F833
:1025F000224601462846BDE8384000F055B816236B
:102600000360012038BD002038BD162303604FF061
:10261000FF3038BD1F2921D838B5436C0D4604461C
:1026200083B153F8252003EB85034AB1511C10D028
:10263000012A0CD0002428461C609047204638BD53
:10264000012038BDFFF788FF28B9636CE9E7032054
:1026500038BD022038BD4FF0FF3038BD4FF0FF309D
:10266000704700BF024B01461868FFF7A9BF00BFC3
:10267000040C0020024B0A4601461868FFF786BF8B
:10268000040C0020034B1868436C0BB1002070470A
:1026900062E700BF040C0020024B01461868FFF7F8
:1026A000B9BF00BF040C002038B50C46084D0346E6
:1026B0001146204600221C462A600AF037F9431CC6
:1026C00000D038BD2B68002BFBD0236038BD00BF85
:1026D0008C2F00200AF02DB900B50A4C256814464D
:1026E00085B01A460346E86844B1074D0091CDE92C
:1026F0000154064900F022F8FFF73CFD044D2C463A
:10270000F4E700BF040C002084D8000894D8000827
:1027100090D8000808B513460022FFF7DDFF00BF80
:102720000CB400B583B004AB53F8042B019300F054
:1027300025F903B05DF804EB02B070470EB410B594
:1027400083B005AB064C53F8042B01930146206877
:1027500000F014F903B0BDE8104003B0704700BFAB
:10276000040C0020024B0146186800F069B800BF55
:10277000040C0020024B0146186800F003B800BFAB
:10278000040C0020002954D030B551F8043C83B02B
:10279000002BA1F10404B8BFE418019001F09AF9EC
:1027A000264A019813682BB1A3420CD921686518F9
:1027B000AB422CD06360146003B0BDE8304001F040
:1027C0008BB9A3420FD81A465B68002BF9D1116868
:1027D0005518AC4217D02DD36360546003B0BDE8E8
:1027E000304001F079B911685518A54215D021D8AB
:1027F00021686518AB42EFD1D3E9005329446360E7
:1028000021605460D8E7236819441160D4E7D3E904
:102810000053294463602160CDE7246821445418A3
:10282000A3421160C8D1D3E9004321445360116031
:10283000C2E770470C230360BEE700BF2C100020E6
:10284000F8B5CD1C25F0030508350C2D38BF0C2537
:10285000002D064623DBA94221D8254F01F03AF985
:102860003A6822B3144603E063682246FBB11C4673
:1028700023685B1BF8D40B2B15D8636894420CBFFC
:102880003B605360304601F027F904F10B0020F063
:102890000700231DC21A01D01B1AA350F8BD0C2338
:1028A00033600020F8BD23601C442560EAE77968A6
:1028B000C9B1294630460AF015F8431C0CD0C41C97
:1028C00024F00304A04205D0211A30460AF00AF889
:1028D000013001D02560D5E70C233046336001F08C
:1028E000FBF80020F8BD304609F0FCFF7860E0E717
:1028F0002C1000209368013B002B936011DA10B478
:102900009469A34209DB0A2907D01368581C106098
:10291000197008465DF8044B70475DF8044B00F0F1
:102920008FBB1368581C106019700846704700BFB1
:102930009BB1F8B5134406460F465D1E541E01E0D8
:10294000AC4208D014F8011F3A463046FFF7D2FFD8
:10295000431CF5D1F8BD0020F8BD0020704700BF32
:10296000936810B5144613B95360184610BD00F0B3
:1029700017FE0023C4E9013310BD00BF2DE9F04F5D
:1029800088469DB092461C46814618B18369002B4B
:1029900000F0A780924B984500F0A980914B984594
:1029A00000F0B680904B984508BFD9F80C80B8F875
:1029B0000C301D0740F1A280D8F81030002B00F039
:1029C0009D8030238DF82A309AF80030874D03948B
:1029D0000021202209918DF829200126002B78D092
:1029E000544604E014F8013F002B00F09480252B9E
:1029F000F8D1B4EB0A0B40F091802278002A68D01D
:102A000000234FF0FF32CDE90633013404938DF8F3
:102A100053301A93059204E0049A06FA03F3134321
:102A20000493A246052214F8011B2846FFF7B0FBC9
:102A3000431B0028F0D1049BD80644BF20228DF808
:102A4000532019079AF8001044BF2B228DF8532009
:102A50002A2970D1039A1168043200290392C0F226
:102A6000998007919AF801102E290AF1010475D076
:102A7000DFF888A103225046FFF78AFB48B1049B88
:102A8000A0EB0A004FF0400A0AFA00F003430134B9
:102A90000493A24656481AF8011B8DF82810062206
:102AA000FFF776FB00287BD0524B002B6BD003AB9B
:102AB00000934246504B04A94846AFF300800746B6
:102AC0007A1C06D0099B3B4409939AF80030002BEE
:102AD00086D1B8F80C305B0617D409981DB0BDE854
:102AE000F08F00F03DFD3E4B98457FF457AFD9F88D
:102AF0000480B8F80C301D073FF55EAF41464846EC
:102B000000F0FEFA00283FF45CAF4FF0FF30E5E73D
:102B1000D9F808804BE7B4EB0A0BDAD052465B4693
:102B200041464846FFF704FF0130D2D0099B227886
:102B30005B44099362E7A1F13002092A0BD8079B95
:102B40001AF8011F03EB830302EB4303A1F13002E8
:102B5000092AF5D907932E29544689D161782A2963
:102B600028D1039B1A680592002A03F104030393FA
:102B7000B8BF4FF0FF3204F10203AEBFA178A178D5
:102B800005921C4674E7039B073323F007030833C1
:102B9000039397E7494243F002030791049361E7E7
:102BA00003AB00934246144B04A9484600F0CAF810
:102BB000074685E7A1F130020023092A04F1010448
:102BC00005933FF655AF14F8011F03EB830302EBA7
:102BD0004303A1F13002092AF5D9059348E700BF64
:102BE000DCC90008BCC900089CC90008C4D800089A
:102BF000D0D800080000000031290008CCD8000817
:102C000030B4044C0D46134601462A46206830BCB9
:102C1000FFF7B4BE040C00202DE9F84F0C460969FB
:102C2000A568DDF82890A942B8BF2946116094F83C
:102C30004350924606461F4615B14A1CCAF800206A
:102C4000236899065DD5DAF800200232CAF8002020
:102C5000236813F0060F19461ED1E1688A1A002A6C
:102C6000D8BF194618DD04F1190B4FF0000805E034
:102C7000E568DAF80030ED1A45450CDD01235A46C7
:102C800039463046C847013008F10108F0D14FF00D
:102C9000FF30BDE8F88F216894F84330003B18BF3F
:102CA00001238A060AD5E1185A1C302081F8430016
:102CB000224494F8451082F84310023304F1430291
:102CC00039463046C8470130E1D0236803F0060397
:102CD000042B1FD0A3682269934227DD4FF0000820
:102CE0009B1A98441A34002501E045451EDA012359
:102CF000224639463046C847013005F10105F4D176
:102D0000C5E713F0060F14D094F84330003B18BF0A
:102D10000123D3E7D4E90231DAF800002269091A65
:102D2000934221EAE178DBDC0029DBDC0020BDE80E
:102D3000F88FE168DAF800208A1A002AD8BF19460D
:102D400091DCA9E72DE9F04385B00D7EDDF830C0B8
:102D50000C4606461746984601F1430E002D37D023
:102D6000A5F15801CBB2202B00F29F80202900F260
:102D70009C80DFE811F0A4009A009A009A009A0063
:102D80009A009A009A009A009A009A00DE00EB00DE
:102D90009A009A009A009A00EB009A009A009A0012
:102DA0009A002100B600C7009A009A00CC009A0051
:102DB000B6009A009A00660023681A0640F1158151
:102DC000DCF800306269191DCCF800101B681A602D
:102DD000002375462361CDF800803B4603AA2146B7
:102DE0003046FFF719FF013020D023692A463946C3
:102DF0003046C047013019D02368E16803989B072B
:102E000019D50B1A002B16DD04F11909002504E071
:102E1000E16803980B1AAB420DDD01234A4639469F
:102E20003046C047013005F10105F1D14FF0FF30C8
:102E300005B0BDE8F0838842B8BF084605B0BDE8DC
:102E4000F0832368DFF8F091782284F84520190692
:102E5000DCF800203DD5111DCCF800101168D80712
:102E600044BF43F020032360002940F0B78023686B
:102E700023F0200323601023002284F8432060689D
:102E8000A0600028C0F2A180226822F00402226023
:102E900000297CD1002840F09A807546082B00F06C
:102EA0008680AEEB0503236195E7012384F8425049
:102EB000236104F14205002384F843308BE7582353
:102EC00084F845302368DFF87491DCF80020190697
:102ED000C1D45D0640F18480111DCCF8001011882A
:102EE000BDE72368180640F18E80DCF800301A1D1B
:102EF0001968CCF800206F2DDFF840910CBF082333
:102F00000A23B9E7236843F0200323609AE7DCF83B
:102F100000306268191DCCF800101D680021284699
:102F2000FFF736F9002800F08580401B60602061C3
:102F3000C1E7DCF800301A68191D0123CCF8001035
:102F400004F1420584F842202361B4E723681A069D
:102F500001D45D0665D4DCF800100A680431CCF8B1
:102F600000101146002A03DBDFF8D0900A2386E721
:102F70006268A2602D20002AC1F1000184F843009C
:102F800002DB23F004032360DFF8B0900A237546C8
:102F9000B1FBF3F203FB121C0846984219F80C101F
:102FA00005F8011D1146F3D2082B7FF47AAF236890
:102FB000D9077FF576AF626823699A423FF771AF10
:102FC000302305F8013C013D6BE70029DFD199F87A
:102FD000002084F8422004F142055FE710234BE70C
:102FE000101D1168CCF8000039E713F0400FDCF831
:102FF0000030626903F10401CCF800101B6814BFB3
:103000001A801A60E4E613F0400FDCF8003003F198
:1030100004020DBF19681988CCF80020CCF80020F4
:1030200069E7DCF80020B2F900100432CCF8002087
:103030000A4697E760687AE7ECD80008D8D8000815
:10304000F8B50D461446064608B1836943B3254BCF
:103050009C422AD0244B9C4229D0244B9C4208BF3E
:10306000F468A389A269A2601A0722D5236903B371
:1030700022686169D31AEDB299422F4629DD0133E6
:10308000A168501C0139A1602060157062699A42E4
:1030900016D0A389DB0701D50A2D11D03846F8BD1B
:1030A00000F05EFA0F4B9C42D4D17468D9E7B46843
:1030B000D7E72146304600F023F838B92369D7E72F
:1030C0002146304600F028F90028E7D04FF0FF37BE
:1030D000E4E72146304600F01FF90028F6D12268C7
:1030E0000123CDE7DCC90008BCC900089CC9000861
:1030F000024B0A4601461868FFF7A2BF040C0020E5
:103100003C4B70B51D6806460C460DB1AB69E3B18A
:10311000394B9C421FD0394B9C424DD0384B9C427E
:1031200008BFEC68B4F90C3018079AB219D52169B8
:1031300011B312F001002FD0606900254042A06158
:10314000A56000292ED0002070BD284600F008FAA6
:10315000294B9C42DFD16C68B4F90C3018079AB245
:10316000E5D4D1063ED5520728D4216943F008039F
:10317000A3819AB20029DCD102F42070B0F5007F5F
:10318000D7D03046214600F0EDFBB4F90C30216970
:103190009AB212F00100CFD1950758BF6069A060C4
:1031A0000029D0D1120658BF0846CDD543F04003C0
:1031B000A3814FF0FF3070BDAC68B3E7616B51B1D4
:1031C00004F14402914204D03046FFF7DBFAB4F92F
:1031D0000C3000226263216921600022626023F0CA
:1031E0002403C3E743F04003092232604FF0FF306D
:1031F000A38170BD040C0020DCC90008BCC9000814
:103200009CC900088B891A072DE9F0410D468046BC
:103210003FD44A68002A57DDEE6A002E51D00022C2
:10322000D8F80040C8F8002013F4805250D1012390
:10323000296A4046B047431C5ED0AB89EE6A5F07FF
:1032400005D56A686B6B801A0BB12B6CC01A296AA2
:10325000024600234046B047411C3BD1D8F800301D
:10326000002B37D01D2B01D0162B4DD12B690022FE
:10327000C5E90032696BC8F8004011B305F1440399
:10328000994202D04046FFF77DFA00206863BDE80E
:10329000F0810F69AFB10E680F609A070CBF4B69E0
:1032A0000023F61B8B600AE0AC6A296A33463A4673
:1032B0004046A047041EA6EB0406274414DD002E5A
:1032C000F2DC0020BDE8F0810A6C002AA4DCF8E7FB
:1032D000686DB4E7AB892A692A60DB044FF000020D
:1032E0006A60C7D56865C5E7AB8943F04003AB8129
:1032F0004FF0FF30BDE8F081D8F80030002B9CD0B3
:103300001D2B06D0162B04D0AB8943F04003AB81B4
:10331000D8E7C8F80040D4E738B50B69BBB10D4613
:10332000044608B18369B3B10D4B9D4211D00D4BDA
:103330009D4213D00C4B9D4208BFE568B5F90C3097
:103340002BB129462046BDE83840FFF75BBF00207F
:1033500038BD6568F2E700F003F9E5E7A568EDE739
:10336000DCC90008BCC900089CC90008014618B1A6
:10337000044B1868FFF7D0BF034B0449186800F0EE
:103380009FBA00BF040C002098C900081933000838
:1033900000207047014900F093BA00BF19330008BC
:1033A0000020704770B54A1E682505FB02F50E46E1
:1033B00005F17401FFF744FA044640B100210C30D6
:1033C000666005F168022160A060FEF7FBFF204601
:1033D00070BD00BFF8B51E4B1E68B36907463BB30E
:1033E0004836D6E90134013B04D51DE05A1C04F1EE
:1033F000680419D0B4F90C50013B002DF6D1154BDF
:103400006566C4E90055C4E90455A560A561E3609B
:103410000822294604F15C00FEF7D4FFC4E90D55EB
:10342000C4E912552046F8BD34682CB12646D8E7C9
:10343000304600F011F8D3E704213846FFF7B2FF19
:10344000044630600028F1D10C233B60EAE700BF5E
:1034500098C900080100FFFF2DE9F84F334B3449AC
:103460001A68816290424FF00003C0E9123303658D
:1034700004BF012383610546FFF7ACFF686028465F
:10348000FFF7A8FFA8602846FFF7A4FF6E68E86072
:1034900000240423F360C6E90044C6E904447466CA
:1034A000B460B461214606F15C000822FEF78AFF91
:1034B000DFF888B0AF68DFF888A0DFF88890DFF821
:1034C00088801C4BC6F83080C6E9086BC6E90AA99B
:1034D0002146FB600822C7E90044C7E904447C6632
:1034E000BC60BC6107F15C00FEF76CFFEE68124B3C
:1034F000C7F83080C7E9087BC7E90AA92146F3600D
:10350000C6E90044C6E904447466B460B46106F1D7
:103510005C000822FEF756FF0123C6E9086BC6E9E6
:103520000AA9C6F83080AB61BDE8F88F98C90008D9
:103530009533000809000100120002002D3B00082D
:10354000553B0008953B0008B53B0008024B03497A
:10355000186800F0B5B900BF98C900081933000811
:10356000836903B978E77047704700BF704700BFB1
:10357000704700BF704700BF024B0349186800F056
:103580007FB900BF040C002091330008024B0349AF
:10359000186800F075B900BF040C0020A1330008C2
:1035A0009368002B00F08A802DE9F04F9046B1F926
:1035B0000C200C46110783B0814693B225D52269B1
:1035C0001AB313F00207D8F800502DD00026DFF808
:1035D000ACB23746AA465F453B46324628BF5B46FB
:1035E0004846002F4FD0216AA56AA84700285BDD16
:1035F000D8F808301B1A06443F1AC8F80830002BC8
:10360000E9D1002003B0BDE8F08F21464846FFF71E
:1036100077FD002840F02F81B4F90C20D8F8005035
:1036200093B213F00207D1D113F0010A48D15646E4
:103630002EB39A05A76840F18C80B742BB4600F2D2
:10364000B78013F4906F40F0CB80206851465A4603
:1036500000F0D4F9A1682368C91B5B443746A16018
:1036600023600026D8F80830DB1BBA44C8F80830BD
:10367000002BC6D0B4F90C309BB2002ED9D1D5E9BD
:1036800000A60835D4E7DAE900670AF1080AA2E7DC
:1036900029465A4600F0B2F923685B44236021466C
:1036A0004846FFF739FE58B3B4F90C3043F04003F5
:1036B0004FF0FF30A38103B0BDE8F08F00207047CA
:1036C0003E46AA4638463D4600976EB3002833D0A2
:1036D000009A2068D4E90413B24228BF32468842D7
:1036E00004D9A16803EB010B5A45D1DC93426ADC93
:1036F000216AA76A2A464846B847B0F1000BD3DDD5
:10370000009BB3EB0B03009356D00120D8F8083090
:10371000A3EB0B035D44A6EB0B06C8F80830002BA7
:103720003FF46FAF002ED1D10AF1080353E90256DE
:103730009A460833002EF9D032460A212846FEF771
:1037400027FD002800F08E800130431B00931A46AD
:10375000BFE720682369984214D86169B14211D843
:103760006FF00043B34228BF3346A76A93FBF1F3DF
:10377000524601FB03F34846216AB847071E93DD12
:10378000F61B6FE7B74228BF37463A46514600F06E
:1037900035F9A3682268DB1B3A44A3602260002B42
:1037A000EED121464846FFF7B7FD0028E8D07BE779
:1037B00020683746B34649E721464846FFF7ACFD47
:1037C0000028A3D070E72946019200F017F9019A6A
:1037D000A1682368891A1344A160236093468FE788
:1037E000D4E90417226807EB4707A2EB010B07EBAC
:1037F000D7770BF101007F103044B8423A4684BFBE
:1038000007463A465B051BD511464846FFF718F8B0
:1038100058B35A4621690090FEF73AFDA289009BF1
:1038200022F4906242F08002A281A7EB0B0203EB2C
:103830000B00676123612060A2603746B34605E74D
:10384000484600F04BF903460028EED1216948466E
:10385000FEF798FFB4F90C300C2223F08003C9F86E
:10386000002023E7721C009233E70C23C9F80030D4
:10387000B4F90C301AE74FF0FF30C3E600FCFF7FCD
:103880002DE9F04100F1480788460026D7E90154A8
:10389000013D0FD4A389012B05F1FF3506D9B4F9F9
:1038A0000E30013302D02046C04706436B1C04F1A2
:1038B0006804EFD13F68002FE8D13046BDE8F081C1
:1038C0002DE9F8430746884600F148064FF0000905
:1038D000D6E90154013D11D4A389012B05F1FF352F
:1038E00008D9B4F90E30013304D021463846C04718
:1038F00049EA00096B1C04F16804EDD13668002E1A
:10390000E6D14846BDE8F88370B50C46B1F90E1013
:10391000002996B016461D4613DB6A4608F0EFFFF5
:1039200000280EDB019901F47041A1F50051B1FAB4
:1039300081F149094FF4806300202960336016B09B
:1039400070BDA38900221B062A6004D540230020F5
:10395000336016B070BD4FF480630020336016B042
:1039600070BD00BF70B58B899D0782B00C4607D52E
:1039700001F147030122C1E904320B6002B070BDBE
:1039800001AB6A460646FFF7BFFF00990546304681
:10399000FEF756FF80B1B4F90C20174BB3620199C2
:1039A000206042F08003009AA381C4E9040299B91F
:1039B0002B43A38102B070BDB4F90C309A05DDD45D
:1039C00023F0030304F1470243F002030121C4E999
:1039D0000421A3812260D1E7B4F90E10304608F02B
:1039E0009AFF10B9B4F90C30E2E7A28922F0030281
:1039F00042F0010213B2DBE7953300088842F0B4CD
:103A00000DD98B1883420AD9841832B1224613F893
:103A1000014D02F8014D9942F9D1F0BC70470F2ACF
:103A20000ED80346541E002AF7D001340C44013B43
:103A300011F8012B03F8012FA142F9D1F0BC704716
:103A400040EA01039B073FD1A2F1100323F00F04CA
:103A500001F1200727441B0901F1100400F11005B2
:103A600054F8106C45F8106C54F80C6C45F80C6C5C
:103A700054F8086C45F8086C54F8046C45F8046C6C
:103A80001034BC4205F11005EAD1013312F00C0FDD
:103A900001EB031102F00F0400EB031317D0043CF9
:103AA00024F0030CA5089C441C1F0E4656F8047B0A
:103AB00044F8047F6445F9D16C1C03EB840301EBEB
:103AC000840102F00302ADE7541E0346ADE722462F
:103AD000A8E700BF704700BF704700BFF8B51446A5
:103AE000F9B1CAB106460D4600F068F8A04202D30B
:103AF0002F463846F8BD21463046FEF7A1FE074660
:103B00000028F6D022462946FEF7C2FB3046294659
:103B1000FEF738FE3846F8BD2746FEF733FE384636
:103B2000F8BDBDE8F8401146FEF78ABE10B50C4658
:103B3000B1F90E1008F0CBFE002803DB636D0344DF
:103B4000636510BDA38923F48053A38110BD00BF1A
:103B5000002070472DE9F041B1F90C509846EB0573
:103B60000C46174606460BD425F48055B4F90E10C2
:103B7000A58143463A463046BDE8F04108F0AEBE66
:103B8000B1F90E100223002208F0A6FEB4F90C5081
:103B9000EAE700BF10B50C46B1F90E1008F09CFE24
:103BA000A389421C0EBF23F4805343F48053606505
:103BB000A38110BDB1F90E1008F092BE51F8040CAB
:103BC0000028A0F10400BCBF0B58C018704700BF0C
:103BD000082823D8DFE800F02D05070A0F14191E66
:103BE000200001207047144B18787047134B187849
:103BF00000F001007047114B1878C0F34000704787
:103C00000E4B1878C0F3800070470C4B1878C0F347
:103C1000C00070470A4BEAE7094BEDE7012309387A
:103C200003FA00F0074B1B68184214BF0120002064
:103C300070470020704700BF341000203C10002067
:103C40003510002038100020F8B52A4E3578002DA8
:103C500033D1294C2078FFF7BBFF01466078FFF78E
:103C6000B7FF0246A078FFF7B3FF0746E078234C82
:103C7000FFF7AEFF214401EB420202EB870313F88A
:103C800030101F4803782BB91E4C2278013202F005
:103C90000302227001330322B3FBF2F202EB420271
:103CA0009B1A194A03701378013303F00F03137042
:103CB000164B1A6801EB4201196015490135087865
:103CC00005F001053570FFF783FF02464878FFF7DE
:103CD0007FFF04468878FFF77BFF830003EB4400F7
:103CE0000244C878D2B2FFF773FF02EBC000C0B243
:103CF000F8BD00BF341000206C0C0020700C0020B8
:103D000036100020351000203C1000203810002014
:103D1000680C002005F09ABA1FB500238DF80C300E
:103D20006423009303AA0123F921142005F032FB38
:103D30009DF80C0000F0010005B05DF804FB13B520
:103D400000248DF801008DF802108DF803208DF805
:103D5000043005226423694614208DF8004005F0E4
:103D60009FFA02B010BD07B50B46642102460091D0
:103D70001420042105F00EFB03B05DF804FB13B51D
:103D8000002304460521684600938DF80430FFF7B0
:103D9000EAFF9DF803309DF802209DF801009DF890
:103DA0000010D21A9DF804306280091ADA09204600
:103DB00003F0010321802271637102B010BD1FB5B1
:103DC0006423002100930446042303AA14200391D2
:103DD00005F0E0FA03AB042113F8012B0AB103F854
:103DE000014C0139F8D16423009303AA0423142061
:103DF00005F086FA04B010BD13B58DF805108DF8E6
:103E000006208DF80400019803F0BEFEC0F30722DF
:103E1000C1B291420B46C0F3074028BF134683420C
:103E200028BF0346C01AD41AC91AC2B2C9B2E0B236
:103E300002B0BDE81040FFF782BF00F02BB80000D1
:103E4000024B0348186001F047BD00BF1C2A002048
:103E5000CCC2DC0008B501F03CFD0A4B18600A4BEF
:103E60000146C0B21870094BC1F307421A70084BE3
:103E7000C1F307221A70BDE80840C1F30741FFF7FC
:103E8000BBBF00BF1C2A0020900C0020910C00201A
:103E9000920C0020FFF73EBF0020FFF790BF00000C
:103EA000034B00221B7811461046FFF748BF00BFA6
:103EB000920C0020B1F900307F2B05DD7F230370C9
:103EC0000B887F3B0B80704713F17F0FBDBF8123B1
:103ED00003700B880370B4BF7F330023F2E7000048
:103EE0002DE9F04F85B06D46284603F049FBFFF7FA
:103EF00013FF6A4F6A4EDFF8D491DFF8BC8158B3E4
:103F0000684CB4F9000010BB05F02AFC40F0010039
:103F1000208002A8FFF733FF9DF80D309DF80C209C
:103F2000002B2DD1604BBDF90A401B78002B38D0F7
:103F30005E4B1A7802EB4402D2B21A705C4B1978CD
:103F400042F001025B4B1878FFF756FF04E080B2A5
:103F500005F00BFC0528D7D8DFF870B1564CDFF818
:103F600040A1B8F80020B9F8003013433A88134351
:103F7000328813431BB2002B76D105B0BDE8F08F19
:103F80009DF8013052B143F001038DF8013095E8FE
:103F9000030003F0FDFA03F0D1FADDE703F0FE03BE
:103FA000F3E7464B1B7853B1414B197801EB4401C1
:103FB000C9B219703D4B41F001011A78C2E7404B7C
:103FC0001B785BB13B4B18782044C0B21870374B5C
:103FD0001A78374B40F001001978B5E7394BBDF935
:103FE00008A01B783BB13B8832889A44141BA7F881
:103FF00000A03480B0E754EA0A03ADD0002AABD168
:10400000314BB3F900209B4632B9032000F01AFF70
:1040100010B9052000F02AFF05F0A2FB4FEADA7381
:10402000BAF1000FD4BF5B42C3F101030AFB0AFAE5
:104030001AFB03FAB9F8003003EB8A0AE30F002CED
:10404000D4BF5B42C3F10103644314FB03F4B8F82B
:104050000030A9F800A040F0010003EB8404ABF8A5
:104060000000A8F8004077E759460DF10200FFF77D
:1040700021FF21460DF10300FFF71CFF514601A867
:10408000FFF718FF0DF105000449FFF713FF95E84E
:10409000030003F07DFA03F051FA62E73E100020BE
:1040A0004E1000204C10002050100020920C0020D8
:1040B000910C0020900C0020541000204A10002089
:1040C000401000204B10002044100020521000200F
:1040D0002DE9F041054600F08EFA431E294F2A4E85
:1040E0000446042B3ED8DFE803F003032B2F3300F4
:1040F0003A78FF218020FFF77FFE3378042B16D11A
:10410000042C14D0214B38781978214B1A78214B84
:104110005F78874205D11F788F4202D19F789742FE
:1041200005D0587019709A70186801F0D5FB34707A
:1041300028460423BDE8F0410222012100F0B4B971
:104140003A78FF211C20D6E73A78FF21AA20D2E74F
:10415000114B3A781B78022B0ED1337863B9FF21CB
:104160005520C8E73A780C4B1E2A1B7838BF1E2210
:104170001E3A022BD2B2F2D0054B1978034B1878B5
:10418000B9E700BF920C002041100020900C0020E5
:10419000910C00201C2A00204910002008B545F68B
:1041A0006B5398420AD845F66253984208D8B0F546
:1041B000804F36D044F20103984249D0012008BD17
:1041C000A0F5BA4064388B78072805D8DFE800F0FE
:1041D0000A1C4D53555E5C5A002BEFD0002000F0B6
:1041E0004DF9EBE7002BE9D0E22000F073FA5920FB
:1041F00000F05EFB5E2000F05BFB5F2000F058FBF0
:10420000E22000F0E7FAD9E7002BD7D0E22000F057
:1042100061FA592000F04CFB5A2000F049FB602065
:10422000ECE78A798B7812F0F00F0CD073B1032091
:1042300000F008FE18B1032000F022FEBEE70320C4
:1042400000F014FEBAE70BB10120F9E70120F3E713
:104250008A798B7812F0F00F03D0002BE7D102207F
:10426000EAE7002BFBD00220EAE7F120002BC8D0C0
:1042700000F030FAA2E7F220F8E7054A03B1012383
:1042800013709BE7034AF9E7034AF7E7034AF5E7A8
:104290004B100020401000204A1000205010002039
:1042A000A0F5A2400138012894BF002001207047EA
:1042B00070B52B4CB4F900008AB080B180B205F023
:1042C00054FAB0F57A7F0AD901A803F059F99DF89C
:1042D0000550002D3CD1052000F0D2FD2580214A5B
:1042E000214C167823882546002E33D03BBB1F4B2C
:1042F00001AA03F1200618685968144603C408335C
:10430000B3422246F7D119889B78A3702180FFF72A
:104310009BFC0AAB1844164B10F8244C1B78154E26
:104320001C443078E4B2A04209D001F015FF02F03D
:1043300099F9204601F010FF02F074FA34700E4A29
:104340002B8811880133B3FBF1F201FB12332B8070
:104350000AB070BD002BFBD002F074F82680F7E79E
:1043600044100020481000204610002040C90008DA
:104370008C0C0020421000208E0C002038B5044622
:10438000642006F074F802F087F8104D78B92B78A5
:10439000A20703F002030CD54BB90D4B1B78032B7E
:1043A00005D00C4B1A78FF215520FFF725FD2C7006
:1043B00038BD002BFBD0064B1B78032BF7D0054BE9
:1043C0001A78054B1978054B1878EEE7491000204C
:1043D00041100020920C0020910C0020900C002035
:1043E0000120704708B5FFF7D9FE08BD704708B532
:1043F000FFF7FCFF08BD000013B502AB03E90300A3
:104400000F4B1B78B3B99DF80230009873B16AB1B5
:1044100000F0AAFD04460146009800F061FD0099F5
:10442000204602B0BDE8104001F06EBB00F07CFDFC
:104430000446F4E7009800F097FD0099F1E700BF0B
:1044400056100020034600890A4618B91868998852
:10445000FFF7D2BF704710B501210446FFF7F2FF06
:104460002146BDE8104004F06FBD10B500210446A0
:10447000FFF7E8FF2146FFF7BAFF10BD10B504466D
:104480000848002200EBC410102102F04BF8012371
:1044900003FA04F4E0B201F0F5F92046BDE810405B
:1044A00000F0A1BC940C002010B5012404FA02F223
:1044B00004FA01F1114304FA03F331EA00020CBFDC
:1044C0001843984310BD08B501F00AFD00F0B8F894
:1044D00002F09AF8BDE80840FFF7AFBC08B502F05B
:1044E0005DFC04F0E3FC002004F086F9BDE8084020
:1044F00001F016BD7047000010B500F01AFC02F084
:104500000DFC05F02DF9002204460321094802F0B4
:1045100009F8FFF7EFFF204605F027F9F92805D93C
:1045200001F090FFBDE8104005F02CB90A2005F01D
:104530009EFFF0E7140D002038B501210546FFF776
:1045400081FF2946044601F023FF08B9002038BD49
:1045500029462046FFF746FF0028F7D02946204687
:1045600001F020FE0028F1D02946204602F078FC18
:104570000028EBD02946204604F0EEF90028E5D0CB
:104580002946204604F042FA0028DFD0294620467A
:1045900004F04CFB0028D9D02946204604F016F838
:1045A0000028D3D0AB785BB145F65B539C421CD05E
:1045B0000AD8B4F5B84F12D045F6DF439C4211D06B
:1045C0002846FFF70DFFC2E745F65C539C420FD02B
:1045D00045F65D539C42F3D101F048F8F0E7FFF750
:1045E0008BFFB3E701F0CCF9B0E701F04BF8E7E758
:1045F00001F04BF8E4E7020C002A03460BBF034628
:104600001346002010201A0A1CBF134608301A094E
:104610001EBF04301346C0B29A081EBF02301346B4
:10462000C0B25B081CBF0130C0B2704708B5FFF7CD
:10463000A5FE08BD0120704708B5FFF7FBFF08BDC8
:10464000704710B50446FFF7F1FF2046FFF7F4FF6F
:1046500010BD10B586B06C4684E803009DF80230AA
:104660000BB101F041F80023CDF8123094E80300BB
:10467000ADF8101089B20390ADF8080003AC41B159
:1046800082B24FF6FF739A4203D02046FFF7E3FE53
:1046900018B194E8070000F031FF06B010BD0088A3
:1046A00000F082BC73B56D46064628460C4602F003
:1046B00067FF9DF8013056B144EA03018DF80110FF
:1046C00095E8030002B0BDE8704002F061BF23EA44
:1046D0000401F3E710B50446002876D0822813D1F0
:1046E00004F090FE810770D4392000F07FFF01F0C4
:1046F00041F84FF47A7005F0BAFE392000F07EFFE1
:10470000BDE8104001F036B883280ED104F07AFEDF
:10471000C2075AD4532000F069FF01F02BF84FF480
:104720007A7005F0A4FE5320E8E784280ED104F047
:1047300069FE430749D4472000F058FF01F01AF8FA
:104740004FF47A7005F093FE4720D7E7031FDBB2E2
:10475000A02B0ED81D4B0146186804F0BBFE20B1FB
:10476000204600F04BFF01F005F8204600F03EFF28
:10477000C6E700F12003DBB2072B07D800F00704DF
:104780000120A040C0B200F089FFB9E700F15B034F
:10479000DBB2022B05D82438BDE8104080B204F00B
:1047A0005BBE00F15803DBB2162B06D8084ABDE801
:1047B000104032F8130004F05FBEEC2805D902F077
:1047C000C7FCBDE8104002F097BD10BD2C0D0020C5
:1047D00072CC000808B5002858D082280FD104F008
:1047E00011FE810752D5392000F000FF00F0C2FF12
:1047F000392000F003FFBDE8084000F0BBBF83286C
:104800000AD104F0FFFDC20740D5532000F0EEFEB0
:1048100000F0B0FF5320ECE784280AD104F0F2FD49
:10482000430733D5472000F0E1FE00F0A3FF472007
:10483000DFE7021FD2B2A02ADBD900F12002D2B2F8
:10484000072A07D800F0070301209840C0B200F003
:104850002DFFD0E700F15B02D2B2022A04D8BDE8F6
:104860000840002004F0F8BD00F15802D2B2162A28
:1048700004D8BDE80840002004F0FEBDEC2805D9AE
:1048800002F0C4FCBDE8084002F036BD08BD38B5F2
:1048900005460C46FFF71EFF24B92846BDE8384000
:1048A000FFF798BF0A20013C05F0E1FDA4B2F3E751
:1048B00039280CBF50210021FFF7E9BF08B528B106
:1048C00000F0ECFEBDE8084000F054BF08BD08B59C
:1048D00028B100F0EBFEBDE8084000F04BBF08BD7A
:1048E0002DE9F3478679857880460C4600F0A4FED2
:1048F00036090746A0B12F4695B1C4F3072303F04C
:10490000F003402B04D004F12003DBB2072B1ED9A7
:10491000022000F07FFF00F08FFE80F00100C7B2A0
:10492000C4F30339B9F10F0F3FD8DFE819F01200D3
:10493000120063006300AF00C6003E003E00DB00D3
:104940003701470147019C013E003E00A5010027B9
:10495000E6E7C4F30723C4F3032613F0F00F18BFF0
:104960003601E4B295B156B104F12003DBB2072B56
:10497000304600D93CB900F091FE00F0FBFE204625
:10498000FFF7A8FE11E000F09FFEF6E72046FFF7D4
:1049900021FF56B104F12003DBB2072B304600D9CA
:1049A0002CBB00F083FE00F0E5FEA9F10809B9F187
:1049B000030F03D804F026FDFFF743FE002F00F09D
:1049C000628100F031FE10F0010040F05C8188F857
:1049D000020000F021FE00F049FA404600F06CF9B8
:1049E00000F01AFE02B0BDE8F04700F049BA00F04E
:1049F00073FED8E7C4F3072303F0F003C4F3032ADC
:104A0000202BE4B218BF4FEA0A1A64B1012C28D057
:104A10007DB34EB398F80630D907B0D56FF30713BE
:104A200088F8063020E095B13EB900F079FE40EA02
:104A30000A00C0B2FFF742FFB7E7012EF5D100F040
:104A40006FFE40EA0A00C0B200F076FEADE72EB974
:104A500000F084FE5046FFF73AFFA6E7012EA4D0EF
:104A6000F6E71DB1052EA0D85046E3E7042E9CD8EA
:104A7000F0E7002EEED0392C0CBF4FF44870012027
:104A800005F0F5FC2046FFF7A5FE8EE714F4406F15
:104A9000C4F3812307D0012B87D165B1C4F309008A
:104AA00004F0EAFC81E725B1C4F3090004F0D4FC6A
:104AB0007BE72846FAE72846F2E7E4B220465DB1F4
:104AC00002F046FBF13C072C09D80121A140C9B2F4
:104AD0002846FFF7E7FD68E702F098FBF2E702F0EF
:104AE0000BFC62E714F4407F27D1002D7FF45DAF0B
:104AF000C4F34210E2064FEA800048BF0F25C0B25F
:104B000048BF854004F00F03C4F3812448BFED4340
:104B10008340022C45EA030009D0032C0AD0012C63
:104B200002D000F06BF940E700F060F93DE700F0DB
:104B30006DF93AE700F057F937E7C4F3012215B3EE
:104B400002F00103002B3FF430AFC4F342108000A9
:104B5000C2B204F00F0000FA02F114F010001CBF02
:104B60000F2303FA02F0C4F3812414BFC3430346A6
:104B7000022C43EA01000BD0032C0CD0012C04D0F2
:104B800000F09CF911E75308DCE700F08FF90CE71F
:104B900000F09CF909E700F045F906E7E6B2C4F336
:104BA000032425B1204600F061F9304642E7304643
:104BB000FFF78DFE204600F063F9F6E65FFA84FA0F
:104BC000AAF1F003042B39D8DFE803F0030E151A1D
:104BD00023003DB1042E3FF6E8AEC4F3042000F0FC
:104BE0005BF9E2E6052EF6E7C4F30420002DE2D0DF
:104BF00000F03CF9D9E6C4F30420002DF8D0DAE740
:104C000025B1C4F3042000F02BF9CEE600F016F92C
:104C1000CBE64DB1C4F30420019000F027F90198D0
:104C2000032100F0D3FDC0E6012000F0F3FD012ECA
:104C30007FF6BBAE022000F0EDFDB6E62DB10EB161
:104C400050469DE6C4F30420D2E74EB1BAF1390FC5
:104C50000CBF4FF44870012005F009FC504612E7E4
:104C6000C4F30420A7E7C4F30322E1B2404600F0F6
:104C700047FF00F0C9F998E6C4F30322E1B24046C9
:104C800000F040FF91E602B0BDE8F08738B5044679
:104C9000008960B100F050FF054600F01FF900F0F8
:104CA000A1F829462046BDE83840FFF719BE218803
:104CB000A07800F085F9EFE713B583880288ADF896
:104CC00004200446CBB1BDF804204FF6FF739A428E
:104CD00013D0FFF731FC50B900F0AEFC68B1A378F7
:104CE0005BB1022002B0BDE8104000F093BD204649
:104CF000FFF7CCFF2046FFF7B8FB02B010BD08B5A8
:104D0000002004F0A9FB002004F0B6FB00F0ECFC4E
:104D100000F000FD00F02EFD02F0CCFBBDE80840E5
:104D200002F0EABA08B500F071FCBDE80840FFF7F0
:104D3000E6BF08B500F0C2FCBDE80840FFF7F2BFCF
:104D4000C0F30332023AC3B20D2A1CD8DFE802F0E6
:104D500007071B1B141B1B1B0707181B1B18F02B1B
:104D600013D004D8E72B8CBF002001207047F42B10
:104D700014BF002001207047E72B06D9F12BF7E77D
:104D8000C0F3C0207047002070470120704708B56D
:104D9000038933B1184600F0CFFEBDE80840FFF7A5
:104DA000CFBF008800F000F9F7E782B002AB03E95B
:104DB000030002B0704784B004AB03E9070004B0FD
:104DC0007047704708B5FFF7FCFF08BD08B5FFF74F
:104DD000F9FF034B1860BDE80840FFF790BF00BF24
:104DE000581000207047FFF7F1BF0000024B1B680E
:104DF0001843FFF7EBBF00BF58100020024B1B68A1
:104E00001840FFF7E3BF00BF58100020024B1B689B
:104E10005840FFF7DBBF00BF5810002008B5FFF770
:104E200057F908BD08B5FFF7F9FF034B1860BDE857
:104E30000840FFF764BF00BF5C1000200020FFF7B0
:104E4000F1BF0000054B1B681BB9B0FA80F04009A8
:104E5000704723FA00F000F0010070475C1000205A
:104E6000012303FA00F0FFF7DDBF0000012303FA7E
:104E700000F0024B1B681843FFF7D4BF5C10002002
:104E8000012303FA00F0034B1B6823EA0000FFF73D
:104E9000C9BF00BF5C100020012303FA00F0024BE1
:104EA0001B685840FFF7BEBF5C100020024B1B6818
:104EB0001843FFF7B7BF00BF5C100020024B1B6810
:104EC0001840FFF7AFBF00BF5C100020024B1B680B
:104ED0005840FFF7A7BF00BF5C10002070470000DC
:104EE000C0F3072303EB430337B500EB430000F0A7
:104EF000070301229A40C0F3C4000A4B00EB800074
:104F0000D2B218440024057821FA04F343F30003D5
:104F10006B40134001346B40052C00F8013BF2D18B
:104F200003B030BD60100020C0F3072303EB430340
:104F300013B500EB43000B4900F00704C0F3C400B5
:104F400000EB800000220144104611F8013BE340D1
:104F500003F00103934001321843052AC0B2F4D193
:104F600002B010BD601000200D4B73B51E680D4BD4
:104F7000ADF804001B681F241E4326FA04F3DB0768
:104F8000E5B205D4013CF8D20025284602B070BD38
:104F90000199284600F09EFE80B20128F2D0F4E785
:104FA0005C1000205810002007B5ADF804000198EF
:104FB000FFF7DAFF019903B05DF804EB00F08ABE59
:104FC00013B5104BADF804101B782BB1019802B04B
:104FD000BDE81040FFF7E8BF70B10198FFF7C4FFCC
:104FE000044601460198FFF77BFF0199204602B075
:104FF000BDE8104000F06EBE0198FFF795FF044633
:10500000F3E700BF56100020F8B5034660B1002555
:1050100001261C4614F8010B74283FD00BD8022837
:105020002DD002D8012812D0F8BD031F6F2BFBD85A
:10503000FFF750FB1AE075283AD000F17C03DBB291
:105040006F2BF1D800F07F00FFF7C4FB0EE09C1C33
:105050005B7803F12002D2B2072A0ED803F00703CF
:105060009840C0B200F046FB00F084FB2F46013FA1
:10507000FFB2FF2F1FD12346CBE71846D8E7587859
:105080009C1C00F12003DBB2072BDDD800F00700E9
:1050900006FA00F0C0B200F035FBE5E75F789C1C33
:1050A000013FFFB2FF2FE1D00A2005F0E0F9F7E75A
:1050B0005D789C1CDAE70A2005F0D9F9D7E70000F3
:1050C000F8B50A4B0A4D1C780A4E0A272B78A342E2
:1050D00000D1F8BD07FB04630134186859681A89C8
:1050E000FFF769FE04F00704F0E700BFD9100020C5
:1050F000D810002088100020024B186859681A89BF
:10510000FFF759BE7E100020244B9A7912F0F00F61
:105110002DE9F3410CD19A7852B1214A214E1278EF
:10512000214D4FF6FF774FF00A0C3178914202D1B2
:1051300002B0BDE8F08198881988ADF8041040B33A
:1051400089B2B94225D00CFB02F16C1893F80180AA
:1051500094F801E0F0451CD193F800E0695C8E45BD
:1051600017D1A178A9B9A188091A89B2C72910D87D
:1051700099790A48012262F307119971A37962F3C0
:105180000713A371FFF798FD02B0BDE8F041FFF7E8
:1051900097BF013202F00702C7E700BF7E10002070
:1051A000D9100020D8100020881000202DE9F047E9
:1051B000B04E86B00446B3880068019030882178EC
:1051C000627894F80280B4F804A0ADF80C000DF1F8
:1051D000040C3546002B00F0DA8080B24FF6FF7EDB
:1051E000704500F0D480B778002F00F0D080AAEB93
:1051F0000303B0799BB2C72B00F0F00900F2968050
:105200003388ADF80C30B9F1000F4CD17345C1466D
:105210001CD0B4F800C09C4518D1B6F808C023894A
:105220009C4513D1B8F1000F40F02681012363F3B0
:105230000710B071FFF760FF3046FFF73DFDB3790F
:10524000A3710027384606B0BDE8F087BAF1000F19
:1052500040F01681B8F1000FF3D0AB7943F00103B1
:10526000AB71EEE70EFB03F5701990F801809045E5
:1052700005D1755D8D4202D180780028E1D10133DE
:1052800003F0070313E110F4706F02D0002B00F05D
:105290002D812033DBB2072B40F228812046FFF717
:1052A0000BFDB94622E1734516D022889A4213D1EC
:1052B000328923899A420FD1B8F1000F0CD1A07125
:1052C0002046FFF7F9FC2368336063687360238925
:1052D0003381FFF711FFB5E72046FFF758FD08B30C
:1052E000B8F1000F1ED0AB791F2B0FD92A88ADF86B
:1052F00010A0ADF80C208DF8123000222B898DF80B
:105300000E2003A8ADF81430FFF7D6FC23682B60FD
:1053100063686B6023892B81FFF7F6FEFFF7ECFED5
:1053200001278FE72046FFF7C7FCF9E7B9F1000F27
:1053300017D18DF805208DF80680ADF808A08DF8FE
:1053400004109CE80300FFF730FD3046FFF7B4FC83
:10535000C6F80090C6F80490A6F80890FFF7CCFEB7
:10536000C4E0228833889A42B6D1328923899A428E
:10537000B2D1B8F1000FAFD1A0712046FFF79CFC6D
:10538000C6F80080C6F80480A6F808805AE7288886
:10539000ADF80C00002B56D086B24FF6FF70864257
:1053A00051D0AF78002F4ED1AAEB03039BB2C72B8D
:1053B00039D84746002FB5D022882B889A4224D16D
:1053C0002A8923899A4220D1AB79DA0716D413F0BF
:1053D000F00213D0F02AA37106D0DBB2C3F303129C
:1053E000013262F30713A3712046FFF765FC2368BF
:1053F0002B6063686B6023892B816AE723682B60CD
:1054000063686B6023892B811CE72046FFF7BFFC94
:1054100000287FF47BAFAB79204643F00103AB71EA
:10542000FFF74AFC0EE78DF80680ADF808A08DF86E
:1054300004108DF805209CE80300FFF7B6FC2F60F0
:105440006F602F8145E7B8F1000F3FF46BAF204646
:10545000FFF79DFC074600283FF464AF23682B60EC
:1054600063686B60238903482B81FFF718F9FFF706
:105470004BFE2EE77E100020BAF1000F3FF4EDAE98
:105480008DF80C108DF80D20BDF80C004FF6FF7351
:1054900098423FF4DFAEB8F1000F7FF4DEAE144B5C
:1054A00014481B7890F800C0134E4FF00A0E634565
:1054B0007FF4D8AE8DF805208DF804100198FFF721
:1054C00073FDC0F30332012AC3B27FF6DCAE0E32A5
:1054D00002F00F02012A3FF6E1AE10F4706F3FF4C4
:1054E000D8AEA27912F0F00F7FF4D3AE4F46A9E602
:1054F000D9100020D810002088100020F0B589B005
:1055000001AC84E807002046FFF750FE334F344ECD
:10551000054690B1BDF80830BDF80420ADF8142060
:1055200043B192B24FF6FF739A4203D094E807005A
:10553000FFF741FC2B4C0A2549E094E8070005AB36
:1055400003C3BDF808101A80BDF81430ADF8103050
:105550000029EFD0BDF810403B7830784FF6FF724D
:105560009442E7D05A1C02F00702824212D00A2469
:105570005C43ADF8181005AB03CBDFF868C01B889F
:105580004CF804000CEB04053A7069602B81FFF7BE
:1055900097FDCFE7FFF7CDFB134B3D7035701D60D6
:1055A0005D601D81C6E700EB800004EB4000FFF763
:1055B000FDFD80B1337805FB0343186859681A89EB
:1055C000FFF7F9FB3378013303F0070333703078CA
:1055D0003B788342E7D109B0F0BD00BFD81000206E
:1055E000D9100020881000207E100020024B0146B8
:1055F000186803F0DBBF00BF2C0D0020024B0146F2
:10560000186803F0EDBF00BF2C0D0020014B186897
:1056100004F000B82C0D0020024B93F90000C0F3F9
:10562000C7007047FB100020024B187800F00700FD
:10563000704700BFFB100020034B187810F00700E4
:1056400018BF0120704700BFFB100020064A5378A6
:10565000C3F38001814205D060F382035370108848
:1056600000F020B9704700BF202A0020044B587872
:10567000C0F3800080F0010000F00100FFF7E6BFFA
:10568000202A00200120FFF7E1BF0020FFF7DEBF46
:10569000014B1878704700BFFD100020024B1A78AC
:1056A00010431870704700BFFD100020024A1378A5
:1056B00023EA000010707047FD100020014B00220B
:1056C0001A707047FD100020024B1A7810431870B2
:1056D000704700BFFE100020024A137823EA000042
:1056E00010707047FE100020014B00221A707047A6
:1056F000FE100020024B1A7810431870704700BF4C
:10570000FA100020024A137823EA00001070704754
:10571000FA100020014B00221A707047FA10002086
:10572000014B1878704700BFFC100020704708B587
:10573000FFF7FCFF08BD0000064A5278520708B583
:1057400006D4054A1178814202D01070FFF7EFFFAE
:1057500008BD00BF202A0020FC10002008B5044B23
:105760001A781AB100201870FFF7E1FF08BD00BFDA
:10577000FC10002010B50D4B0D491B7809780D4C1D
:105780000B430D49206809780B430C4903700978D5
:1057900031B10B43037003F07FFE08B1FFF7DEFF6A
:1057A0002068BDE8104003F035BE00BFFD100020AA
:1057B000FE1000202C0D0020FA100020FC1000200C
:1057C000704708B5FFF7FCFF08BD00000A4A527891
:1057D000520710B50CD4094C41EAC0012170FFF703
:1057E00045FB94F90000C0F3C700FFF7EAFF10BDC6
:1057F000BDE81040FFF73ABB202A0020FB10002034
:1058000008B5034B00201870FFF7DBFF08BD00BF91
:10581000FB10002008B50C4A92F9003023EA000082
:1058200040B21070420702D1DBB2834203D1074B72
:105830005B785B0707D5C0F3C700FFF721FBBDE826
:105840000840FFF7DDBF08BDFB100020202A002024
:1058500008B501F0C1FFBDE808404FF6FF71002018
:1058600002F049B808B5002002F042F84FF6E963AB
:10587000C31A5842584108BD022002F033B8032031
:1058800002F030B80146032002F02FB810B5042012
:1058900002F028F80446222002F024F844EA00200E
:1058A00080B210BD10B5C1B20446042002F01DF84C
:1058B000210A2220BDE8104002F017B8072002F0AC
:1058C00011B80146072002F010B801460F2002F07F
:1058D00058B8132002F012B80146132002F051B854
:1058E00008B50020FFF7F1FFFEF7AAFA08BD000097
:1058F00010B501F071FF4FF6E961002001F0FBFFE8
:105900000021022001F0F1FF00210320002401F01A
:10591000ECFF1A4B214604201C6001F0E6FF2146F3
:10592000222001F0E2FF2146052001F0DEFF2146A2
:10593000062001F0DAFFFF21072001F0D6FF214603
:10594000082002F01EF821460D2001F0CEFF21466E
:10595000182002F016F82146172001F0C6FF214654
:105960001C2002F00EF82146202001F0C4FF214641
:10597000182002F006F8FFF7B3FF10BD5810002002
:10598000FFF7B6BF01460E2001F0AFBF08B503F028
:10599000B9FE024B1860024B186008BD00110020D0
:1059A000041100207047704708B5FFF7FCFF08BDE1
:1059B00008B5FEF74FFA08BD08B5054800F070FAC3
:1059C00001F0C0FEFFF7EEFFFFF7EEFF08BD00BFDE
:1059D000995E00080120704708B5FFF7FBFF08BD7E
:1059E0007047704708B5FFF7FBFFFFF7FAFF08BDE8
:1059F00008B503F085FE00F039FB02F023FDFEF749
:105A00004FFA02F033FFFFF7D3FF08BD2DE9F74F40
:105A100000F046FB08B1FFF7B9FFDFF8DCA0DFF8C4
:105A2000DC8000255646EFB2384600F07DFA1AF8C1
:105A3000014B8442814643D098F800309B0701D542
:105A400000F078FA84EA0904E3B200220124234238
:105A50005FFA82FB2FD0FFF7BFFFA8B119EA040F4E
:105A600014BF012300238DF802308DF800B08DF8AB
:105A7000017003F075FE40F00100ADF8040002ABC8
:105A800013E90300FEF7E5FD735D5C407455194CA6
:105A900002F004FD01F04CFCFEF722FA03F0B2FC28
:105AA0002378834222D003F0ADFC207003B0BDE820
:105AB000F04FFEF7C6BD01326400062AE4B2C6D13B
:105AC0000135082DAFD14FF6FF73ADF8003000233C
:105AD0008DF8023003F044FE40F00100ADF8040000
