:020000040800F2
:10000000000400203D0300083F0300083F030008F0
:100010003F0300083F0300083F0300083F030008B8
:100020003F0300083F0300083F03000879780008F9
:100030003F0300083F0300083F0300083F03000898
:100040003F0300083F0300083F0300083F03000888
:100050003F0300083F03000815820008558200088E
:1000600099820008DD82000821830008F18A0008D7
:10007000058B0008198B00082D8B0008418B0008A8
:10008000558B0008698B00083F0300083F030008F8
:100090003F0300083F0300083F0300086583000892
:1000A000698500087D850008818500088585000830
:1000B000219500083D910008359500084D8D0008F8
:1000C0005D8E00083F0300083F0300083F0300085F
:1000D0003F0300083F0300083F0300083F030008F8
:1000E0004D8400083F0300083F0300083F03000859
:1000F000319300083F0300083F0300083F03000856
:100100003F0300083F0300083F0300083F030008C7
:100110003F0300083F030008099300081D930008EF
:100120007D8B0008918B0008A58B0008B98B000817
:10013000CD8B00083F0300083F0300083F03000881
:100140003F0300083F0300083F0300083F03000887
:100150003F0300083F0300083F0300083F03000877
:100160003F0300083F0300083F030008859500088F
:100170003F0300083F0300083F0300083F03000857
:100180003F0300083F0300083F0300083F03000847
:100190003F0300083F0300083F0300083F03000837
:0801A000D5010008B1010008BF
:1001B00010B5054C237833B9044B13B10448AFF3A1
:1001C00000800123237010BD1814002000000000DF
:1001D00000BE00080C4B43B10C480D4910B5AFF3FD
:1001E00000800C48036823B910BD0A48036833B97E
:1001F0007047094B002BF7D0BDE810401847064B5D
:10020000002BF5D0184700BF0000000000BE00081A
:100210001C140020181400200000000072B6394899
:1002200080F30888384880F3098838484EF608512A
:10023000CEF20001086040F20000CCF200004EF661
:100240003471CEF200010860BFF34F8FBFF36F8FA0
:1002500040F20000C0F2F0004EF68851CEF20001EC
:100260000860BFF34F8FBFF36F8F4FF00000E1EED8
:10027000100A4EF63C71CEF200010860062080F3B1
:100280001488BFF36F8F06F0B7FF06F0D5FE4FF06E
:1002900055301F491B4A91423CBF41F8040BFAE715
:1002A0001C49194A91423CBF41F8040BFAE71A492C
:1002B0001A4A1B4B9A423EBF51F8040B42F8040BFA
:1002C000F8E700201749184A91423CBF41F8040B57
:1002D000FAE706F095FF06F090FF144C144DAC427F
:1002E00003DA54F8041B8847F9E703F037F8114C98
:1002F000114DAC4203DA54F8041B8847F9E706F0C5
:100300007DBF000000040020000C00200000000859
:10031000000000200004002000BE0008000C0020A7
:1003200018140020181400209C330020A00100089D
:10033000A4010008A4010008A80100086EE700F06D
:1003400000F8FEE72DE9F04F2DED108AC1F80CD032
:10035000C3689D46BDEC108ABDE8F08F002383F38F
:1003600011882846A047002007F0F6F9FEE707F0BD
:100370005BF900DFFEE7000081F0004102E000BF12
:1003800083F0004330B54FEA41044FEA430594EA55
:10039000050F08BF90EA020F1FBF54EA000C55EA90
:1003A000020C7FEA645C7FEA655C00F0E2804FEA61
:1003B0005454D4EB5555B8BF6D420CDD2C4480EA43
:1003C000020281EA030382EA000083EA010180EA73
:1003D000020281EA0303362D88BF30BD11F0004FC1
:1003E0004FEA01314FF4801C4CEA113102D04042F7
:1003F00061EB410113F0004F4FEA03334CEA133332
:1004000002D0524263EB430394EA050F00F0A78049
:10041000A4F10104D5F1200E0DDB02FA0EFC22FA44
:1004200005F2801841F1000103FA0EF2801843FA38
:1004300005F359410EE0A5F120050EF1200E012A29
:1004400003FA0EFC28BF4CF0020C43FA05F3C01867
:1004500051EBE37101F0004507D54FF0000EDCF1E0
:10046000000C7EEB00006EEB0101B1F5801F1BD389
:10047000B1F5001F0CD349085FEA30004FEA3C0C8D
:1004800004F101044FEA445212F5800F80F09A8083
:10049000BCF1004F08BF5FEA500C50F1000041EB87
:1004A000045141EA050130BD5FEA4C0C404141EB8B
:1004B000010111F4801FA4F10104E9D191F0000FB2
:1004C00004BF01460020B1FA81F308BF2033A3F135
:1004D0000B03B3F120020CDA0C3208DD02F1140C2C
:1004E000C2F10C0201FA0CF021FA02F10CE002F167
:1004F0001402D8BFC2F1200C01FA02F120FA0CFC60
:10050000DCBF41EA0C019040E41AA2BF01EB0451A8
:10051000294330BD6FEA04041F3C1CDA0C340EDCA6
:1005200004F11404C4F1200220FA04F001FA02F3E9
:1005300040EA030021FA04F345EA030130BDC4F1A7
:100540000C04C4F1200220FA02F001FA04F340EA9C
:100550000300294630BD21FA04F0294630BD94F04D
:10056000000F83F4801306BF81F480110134013D34
:100570004EE77FEA645C18BF7FEA655C29D094EAA5
:10058000050F08BF90EA020F05D054EA000C04BF23
:100590001946104630BD91EA030F1EBF002100200E
:1005A00030BD5FEA545C05D14000494128BF41F0AD
:1005B000004130BD14F580043CBF01F5801130BD11
:1005C00001F0004545F0FE4141F470014FF000009C
:1005D00030BD7FEA645C1ABF194610467FEA655C4D
:1005E0001CBF0B46024650EA013406BF52EA0335EF
:1005F00091EA030F41F4002130BD00BF90F0000FDD
:1006000004BF0021704730B54FF4806404F1320418
:100610004FF000054FF0000150E700BF90F0000FD1
:1006200004BF0021704730B54FF4806404F13204F8
:1006300010F0004548BF40424FF000013EE700BFC8
:1006400042004FEAE2014FEA31014FEA02701FBF58
:1006500012F07F4393F07F4F81F06051704792F02A
:10066000000F14BF93F07F4F704730B54FF46074A4
:1006700001F0004521F0004120E700BF50EA0102EF
:1006800008BF704730B54FF000050AE050EA01029C
:1006900008BF704730B511F0004502D5404261EB0C
:1006A00041014FF4806404F132045FEA915C3FF44D
:1006B000DCAE4FF003025FEADC0C18BF03325FEAE6
:1006C000DC0C18BF033202EBDC02C2F1200300FA9B
:1006D00003FC20FA02F001FA03FE40EA0E0021FAC0
:1006E00002F11444C1E600BF70B54FF0FF0C4CF4AA
:1006F000E06C1CEA11541DBF1CEA135594EA0C0F60
:1007000095EA0C0F00F0DEF82C4481EA030621EA9A
:100710004C5123EA4C5350EA013518BF52EA0335D5
:1007200041F4801143F4801338D0A0FB02CE4FF087
:100730000005E1FB02E506F00042E0FB03E54FF0B7
:100740000006E1FB03569CF0000F18BF4EF0010EAF
:10075000A4F1FF04B6F5007F64F5407404D25FEAAB
:100760004E0E6D4146EB060642EAC62141EA55515E
:100770004FEAC52040EA5E504FEACE2EB4F1FD0CA0
:1007800088BFBCF5E06F1ED8BEF1004F08BF5FEA1E
:10079000500E50F1000041EB045170BD06F00046D0
:1007A00046EA010140EA020081EA0301B4EB5C047D
:1007B000C2BFD4EB0C0541EA045170BD41F4801175
:1007C0004FF0000E013C00F3AB8014F1360FDEBF9A
:1007D000002001F0004170BDC4F10004203C35DA76
:1007E0000C341BDC04F11404C4F1200500FA05F3F9
:1007F00020FA04F001FA05F240EA020001F000429A
:1008000021F0004110EBD37021FA04F642EB06010F
:100810005EEA430E08BF20EAD37070BDC4F10C0439
:10082000C4F1200500FA04F320FA05F001FA04F2FD
:1008300040EA020001F0004110EBD37041F10001E9
:100840005EEA430E08BF20EAD37070BDC4F12005F4
:1008500000FA05F24EEA020E20FA04F301FA05F25C
:1008600043EA020321FA04F001F0004121FA04F204
:1008700020EA020000EBD3705EEA430E08BF20EAD4
:10088000D37070BD94F0000F0FD101F0004640000E
:1008900041EB010111F4801F08BF013CF7D041EA90
:1008A000060195F0000F18BF704703F00046520094
:1008B00043EB030313F4801F08BF013DF7D043EA65
:1008C0000603704794EA0C0F0CEA135518BF95EA1B
:1008D0000C0F0CD050EA410618BF52EA4306D1D1A2
:1008E00081EA030101F000414FF0000070BD50EAC1
:1008F000410606BF1046194652EA430619D094EA4B
:100900000C0F02D150EA013613D195EA0C0F05D134
:1009100052EA03361CBF104619460AD181EA030188
:1009200001F0004141F0FE4141F470014FF0000040
:1009300070BD41F0FE4141F4780170BD70B54FF0DB
:10094000FF0C4CF4E06C1CEA11541DBF1CEA13555B
:1009500094EA0C0F95EA0C0F00F0A7F8A4EB05043D
:1009600081EA030E52EA03354FEA013100F0888034
:100970004FEA03334FF0805545EA131343EA1263FD
:100980004FEA022245EA111545EA10654FEA0026B2
:100990000EF000419D4208BF964244F1FD0404F56B
:1009A000407402D25B084FEA3202B61A65EB0305C7
:1009B0005B084FEA32024FF480104FF4002CB6EB84
:1009C000020E75EB030E22BFB61A754640EA0C0004
:1009D0005B084FEA3202B6EB020E75EB030E22BF44
:1009E000B61A754640EA5C005B084FEA3202B6EB85
:1009F000020E75EB030E22BFB61A754640EA9C0044
:100A00005B084FEA3202B6EB020E75EB030E22BF13
:100A1000B61A754640EADC0055EA060E18D04FEAD1
:100A2000051545EA16754FEA06164FEAC30343EA71
:100A300052734FEAC2025FEA1C1CC0D111F4801F3E
:100A40000BD141EA00014FF000004FF0004CB6E737
:100A500011F4801F04BF01430020B4F1FD0C88BFD6
:100A6000BCF5E06F3FF6AFAEB5EB030C04BFB6EBE1
:100A7000020C5FEA500C50F1000041EB045170BDD4
:100A80000EF0004E4EEA113114EB5C04C2BFD4EB01
:100A90000C0541EA045170BD41F480114FF0000E85
:100AA000013C90E645EA060E8DE60CEA135594EA01
:100AB0000C0F08BF95EA0C0F3FF43BAF94EA0C0F04
:100AC0000AD150EA01347FF434AF95EA0C0F7FF479
:100AD00025AF104619462CE795EA0C0F06D152EACD
:100AE00003353FF4FDAE1046194622E750EA4106B1
:100AF00018BF52EA43067FF4C5AE50EA41047FF4C2
:100B00000DAF52EA43057FF4EBAE12E74FF0FF3C26
:100B100006E000BF4FF0010C02E000BF4FF0010CF7
:100B20004DF804CD4FEA410C7FEA6C5C4FEA430C70
:100B300018BF7FEA6C5C1BD001B050EA410C0CBFBF
:100B400052EA430C91EA030F02BF90EA020F002021
:100B5000704710F1000F91EA030F58BF994208BF88
:100B600090422CBFD8176FEAE37040F00100704745
:100B70004FEA410C7FEA6C5C02D150EA013C07D19C
:100B80004FEA430C7FEA6C5CD6D152EA033CD3D0E7
:100B90005DF8040B704700BF8446104662468C46E1
:100BA0001946634600E000BF01B5FFF7B7FF002814
:100BB00048BF10F1000F01BD4DF808EDFFF7F4FF3D
:100BC0000CBF012000205DF808FB00BF4DF808EDC8
:100BD000FFF7EAFF34BF012000205DF808FB00BFEB
:100BE0004DF808EDFFF7E0FF94BF012000205DF80D
:100BF00008FB00BF4DF808EDFFF7CEFF94BF0120C2
:100C000000205DF808FB00BF4DF808EDFFF7C4FFBA
:100C100034BF012000205DF808FB00BF4FEA410C03
:100C20007FEA6C5C02D150EA013C0AD14FEA430CE6
:100C30007FEA6C5C02D152EA033C02D14FF0000023
:100C400070474FF0010070474FEA4102B2F1E043B4
:100C500024BFB3F5001CDCF1FE5C0DD901F0004CA3
:100C60004FEAC0024CEA5070B2F1004F40EB8300F3
:100C700008BF20F00100704711F0804F21D113F11F
:100C80003872BCBF01F00040704741F480114FEA58
:100C90005252C2F11802C2F1200C10FA0CF320FAE1
:100CA00002F018BF40F001004FEAC1234FEAD323FE
:100CB00003FA0CFC40EA0C0023FA02F34FEA430368
:100CC000CCE77FEA625307D150EA01331EBF4FF0F1
:100CD000FE4040F44000704701F0004040F0FE400C
:100CE00040F40000704700BF53B94AB9002908BF5B
:100CF00000281CBF4FF0FF314FF0FF3000F07AB9F1
:100D0000ADF1080C6DE904CE00F006F8DDF804E062
:100D1000DDE9022304B070472DE9F0478C460D460B
:100D20000446089E002B51D18A4217466DD9B2FA6B
:100D300082FEBEF1000F0BD0CEF1200C01FA0EF5B1
:100D400020FA0CFC02FA0EF74CEA050C00FA0EF43D
:100D50004FEA174A250CBCFBFAF81FFA87F90AFB81
:100D600018CC45EA0C4508FB09F3AB420AD9ED194A
:100D700008F1FF3280F02381AB4240F22081A8F1DC
:100D800002083D44ED1AA4B2B5FBFAF00AFB105577
:100D900044EA054400FB09F9A14509D9E41900F129
:100DA000FF3380F00A81A14540F2078102383C44BC
:100DB000A4EB090440EA08400021002E61D024FA87
:100DC0000EF4002334607360BDE8F0878B4207D9CE
:100DD000002E54D0002186E821000846BDE8F087A7
:100DE000B3FA83F1002940F08E80AB4202D38242F5
:100DF00000F2FA80841A65EB03050120AC46002E50
:100E00003FD086E81010BDE8F08712B90127B7FB84
:100E1000F2F7B7FA87FEBEF1000F34D1EB1B3A0CA4
:100E20001FFA87FC0121B3FBF2F8250C02FB1833F3
:100E300045EA03450CFB08F3AB4207D9ED1908F16D
:100E4000FF3002D2AB4200F2D1808046ED1AA3B24D
:100E5000B5FBF2F002FB105543EA05440CFB00FC25
:100E6000A44507D9E41900F1FF3302D2A44500F2EA
:100E7000B8801846A4EB0C0440EA08409DE73146D0
:100E80003046BDE8F087CEF1200405FA0EF307FAEC
:100E90000EF720FA04F83A0C25FA04F448EA03089D
:100EA000B4FBF2F14FEA184502FB11441FFA87FC2C
:100EB00045EA044501FB0CF3AB4200FA0EF409D9F4
:100EC000ED1901F1FF3080F08A80AB4240F287805B
:100ED00002393D44EB1A1FFA88F5B3FBF2F002FB2E
:100EE000103345EA034500FB0CF3AB4207D9ED197B
:100EF00000F1FF386FD2AB426DD902383D44EB1A96
:100F000040EA01418FE7C1F1200722FA07F88B4040
:100F100005FA01F448EA030320FA07FE4FEA134CEE
:100F2000FD404EEA040EB5FBFCF94FEA1E440CFBF3
:100F300019551FFA83F844EA054509FB08F4AC4249
:100F400002FA01F200FA01FA08D9ED1809F1FF30AE
:100F500043D2AC4241D9A9F102091D442D1B1FFA0D
:100F60008EFEB5FBFCF00CFB10554EEA054400FB71
:100F700008F8A04507D9E41800F1FF3529D2A045AB
:100F800027D902381C4440EA0940A4EB0804A0FB1E
:100F900002894C45C6464D4615D312D056B1BAEB20
:100FA0000E0364EB050404FA07F7CB401F43CC4063
:100FB000376074600021BDE8F0871846F8E6904677
:100FC000E0E6C245EAD2B8EB020E69EB0305013850
:100FD000E4E72846D7E7404691E78146BEE7014669
:100FE00078E702383C4445E7084608E7A8F10208DC
:100FF0003D442BE7704700BF0000000000000000E8
:1010000001F0FF01102A2BDB10F0070F08D010F8B9
:10101000013B013A8B422DD010F0070F42B3F6D1BD
:10102000F0B441EA012141EA014122F007047FF0D6
:1010300000070023F0E80256083C85EA010586EA2D
:10104000010685FA47F5A3FA87F586FA47F6A5FA69
:1010500087F68EB9EED1F0BC01F0FF0102F0070275
:1010600032B110F8013B013A83EA010313B1F8D120
:101070000020704701387047002D06BF3546033801
:10108000073815F0010F07D1013015F4807F02BF3A
:10109000013015F4C03F0130F0BC0138704700BF8B
:1010A000082823D8DFE800F02D05070A0F14191EC1
:1010B000200001207047144B18787047134B1878A4
:1010C00000F001007047114B1878C0F340007047E2
:1010D0000E4B1878C0F3800070470C4B1878C0F3A3
:1010E000C00070470A4BEAE7094BEDE701230938D6
:1010F00003FA00F0074B1B68184214BF01200020C0
:1011000070470020704700BF341400203C140020BA
:10111000351400203814002070B5294A294C107865
:10112000FFF7BEFF06465078FFF7BAFF05469078F6
:10113000FFF7B6FF0146D078FFF7B2FF22781ABB5F
:10114000214B334403EB450303EB81031F4D13F89D
:1011500030002B782BB91E4E3178013101F003019C
:1011600031700133032193FBF1F101EB41015B1A73
:1011700018492B700B78013303F00F030B70164BDB
:10118000196800EB4100186014490132087802F038
:1011900001022270FFF784FF02464878FFF780FFC4
:1011A00004468878FFF77CFF800000EB440002448F
:1011B000C878D2B2FFF774FF02EBC000C0B270BDB6
:1011C000040C002034140020080C002036140020E9
:1011D000351400203C14002038140020000C00209E
:1011E0001FB58DF80F3064238DF80C008DF80D10AD
:1011F0008DF80E20009303AA04230021142005F08B
:1012000005FA05B05DF804FB07B5642300930246B8
:1012100005230421142005F041FA03B05DF804FB16
:1012200010B505F0CDF900231A4619461846BDE859
:101230001040FFF7D5BF000088428BBF411A091A42
:10124000C9B2C9B212FB01F0074A01FB00F11088D4
:1012500088BF012300FB01F098BF0023C01103B138
:10126000404200B2704700BF180C0020B1F90030B6
:101270007F2B05DD7F2303700B887F3B0B8070473E
:1012800013F17F0FBDBF812303700B880370B4BFC0
:101290007F330023F2E74B7818B143F001034B7022
:1012A000704723F00103FAE72DE9F743484E3378FE
:1012B000092B5DD8474F386805F0E4FB072857D95C
:1012C000454D464C2846FFF79FFF814600287AD1BE
:1012D0003070284600F078F900283DD0684603F0C9
:1012E0008DFA009B2360BDF80430A38095F904308B
:1012F000DFF80481002B21465EDB4846FFF7CBFF79
:10130000B8F80060002E53D1354B297893F800804F
:10131000687895F80290ED78B8F1000F2BD0DFF8DF
:10132000DC800122FFF788FFB8F80030181AA8F80F
:101330000000012249462846FFF77EFF294A13880C
:10134000181A10804146601DFFF790FF201D1146BE
:10135000FFF78CFFA670E67023796179206843EA75
:10136000012103F053FA03F027FA05F051FB38602E
:1013700003B0BDE8F0830522FFF75EFF1A4A138829
:1013800018441080494605222846FFF755FF174AA2
:1013900015491388184410801548FFF767FF134953
:1013A0001448FFF763FF84F8058084F80480D3E7CE
:1013B000013EA8F80060CFE70120FFF76CFF14237F
:1013C000A8F80030C8E7337801333370C4E700BFB2
:1013D00044140020501400203D1400204814002024
:1013E0004E140020541400205614002058140020DD
:1013F0004A1400204B140020421400204614002000
:1014000001F0A6BE04230222012100F065B900000C
:10141000A0F5BA40633810B5072852D8DFE800F0CD
:10142000040B16222B363F488C78CCB1002000F0FC
:101430003DF9002414E08C78012054B100F038FE0E
:1014400004220221012000F057F9F2E78C780220F3
:10145000F3E700F037FE04220221012000F04CF9EE
:10146000204610BD8C78032014B100F021FEE0E787
:1014700000F028FEF4E78C78002CF1D002F0F2F8AE
:10148000114800221C2102F05FF9D2E78C78002C71
:10149000E6D002F0E7F800222C210C48F3E78C7824
:1014A000002CDDD002F0DEF8002209210848EAE72E
:1014B0008C78002CD4D002F0D5F800220721054802
:1014C000E1E70124CCE700BF8C0D00202C0C0020AC
:1014D000A40E00206C0E002070B5204B204D1C780F
:1014E0002B888AB0002C33D03BBB1E4B01AA03F1E2
:1014F000200618685968144603C40833B3422246CC
:10150000F7D119889B78A3702180FFF705FE0AABFD
:101510001844154B10F8244C1B78144E1C4430789A
:10152000E4B2844209D001F027FF02F0B1F920466D
:1015300001F022FF02F094FA34700D4A2B881188D2
:10154000013393FBF1F201FB12332B800AB070BD23
:10155000002BFBD002F086F82C80F7E75E14002009
:101560005C140020C0AF0008280C00205A14002092
:101570002A0C002038B50546642006F0F2F802F087
:101580009BF80A4C50B915F0020209D0227812F0EB
:10159000020203D10648192102F0D6F8257038BDA1
:1015A00023789B07FAD50A210248F5E75F1400204B
:1015B0003C0F0020EC0E0020A0F5BA406438012852
:1015C00094BF00200120704708B503783BB1002389
:1015D0001A461946FF20FFF703FE012008BD427896
:1015E0001AB11A46FF211846F5E783781BB1134656
:1015F0001946FF22F7E7C278002AEED0FF221946EB
:101600001046E8E70023FF2219461046FFF7E8BD21
:101610000120704708B5FFF7FBFE08BD704708B50D
:10162000FFF7FCFF08BD000013B502AB03E90300A0
:101630000F4B1B78B3B99DF80230009873B16AB1B3
:1016400000F0B6FD04460146009800F06BFD0099DD
:10165000204602B0BDE8104001F06ABB00F088FDF2
:101660000446F4E7009800F0A3FD0099F1E700BFFD
:1016700060140020034600890A4618B91868998842
:10168000FFF7D2BF704710B501210446FFF7F2FF04
:101690002146BDE8104004F01FBE10B500210446ED
:1016A000FFF7E8FF2146FFF7BAFF10BD38B5054642
:1016B0000848012400EBC510AC400022102102F0C4
:1016C00043F8E0B201F0F2F92046BDE8384000F0FE
:1016D000BCBC00BF0410002010B5012404FA02F2C3
:1016E00004FA01F1114304FA03F331EA00020CBFDA
:1016F0001843984310BD000008B513460A4601463A
:1017000003480068FFF7E8FFBDE8084000F0BCBCF4
:101710006814002008B501F0FBFC00F09CF802F012
:1017200089F8BDE80840FFF76BBE08B502F05CFC25
:1017300004F084FD002004F001FABDE8084001F047
:1017400008BD704710B500F025FC02F00DFC05F057
:101750008DF9002204460321094801F0F5FFFFF747
:10176000F0FF204605F087F9F92805D901F07AFF46
:10177000BDE8104005F08CB90A2005F0F2FFF0E753
:101780008410002038B501210546FFF773FF294674
:10179000044601F00DFF08B9002038BD2946204657
:1017A000FFF738FF0028F7D02946204601F00AFE4F
:1017B0000028F1D02946204602F078FC0028EBD022
:1017C0002946204604F06EFA0028E5D02946204636
:1017D00004F0B8FA0028DFD02946204604F0E4FBE4
:1017E0000028D9D02946204604F056F80028D3D046
:1017F000AB785BB145F65B539C421CD00AD8B4F57C
:10180000B84F12D045F6DF439C4211D02846FFF76F
:10181000FFFE38BD45F65C539C420FD045F65D5344
:101820009C42F3D101F038F8F0E7FFF78BFFB3E704
:1018300001F0BAF9B0E701F039F8E7E701F039F85B
:10184000E4E708B5FFF796FE08BD0120704708B52C
:10185000FFF7FBFF08BD704710B50446FFF7F1FF27
:101860002046FFF7F4FF10BD30B587B08DE80300C8
:101870009DF802306D460BB101F04AF803AC00232D
:101880006360238195E80300ADF8101089B20390DE
:10189000ADF8080021B182B24FF6FF739A4205D12C
:1018A00094E8070000F056FF07B030BD2046FFF770
:1018B000EAFE0028F4D1F7E708B5008800F09AFCAA
:1018C00008BD73B5064668460D466C4602F096FFA5
:1018D0009DF801304EB145EA03018DF8011094E8FE
:1018E000030002F093FF02B070BD23EA0501F4E7A4
:1018F00038B5044600287FD0822816D104F008FFAE
:10190000810779D43D4C3921206804F0D1FF01F0E2
:1019100045F84FF47A7005F024FF3921206804F06F
:10192000E1FFBDE8384001F039B8832810D104F058
:10193000EFFEC20760D4314C5321206804F0B8FF99
:1019400001F02CF84FF47A7005F00BFF5321E5E716
:10195000842810D104F0DCFE43074DD4274C4721E6
:10196000206804F0A5FF01F019F84FF47A7005F033
:10197000F8FE4721D2E7031FDBB2A02B10D81F4D82
:101980000146286804F02CFF28B12146286804F09D
:10199000A9FF01F003F82146286804F089FFC0E799
:1019A00000F12003DBB2072B07D800F00704012069
:1019B000A040C0B200F086FFB3E700F15B03DBB2EA
:1019C000022B05D80E4AD05CBDE8384004F0CABEF0
:1019D00000F15803DBB2162B06D80A4A32F813007E
:1019E000BDE8384004F0CEBEEC2805D902F0E0FC9A
:1019F000BDE8384002F0B6BD38BD00BF9C100020E5
:101A00001EB2000822B2000810B50146002862D0BC
:101A1000822812D104F07CFE81075CD52E4C39213E
:101A2000206804F045FF00F0B9FF3921206804F078
:101A300059FFBDE8104000F0B1BF83280CD104F07D
:101A400067FEC20747D5244C5321206804F030FFBD
:101A500000F0A4FF5321E9E784280CD104F058FEDC
:101A6000430738D51C4C4721206804F021FF00F0C3
:101A700095FF4721DAE7031FDBB2A02B02D8164BF4
:101A80001868D4E700F12003DBB2072B07D800F079
:101A9000070101208840C0B200F01CFFC9E700F137
:101AA0005B03DBB2022B04D80020BDE8104004F039
:101AB00059BE00F15803DBB2162B04D80020BDE854
:101AC000104004F05FBEEC2805D902F0CFFCBDE861
:101AD000104002F047BD10BD9C10002038B50546EF
:101AE0000C46FFF705FF24B92846BDE83840FFF74C
:101AF0008BBF0A20013C05F034FEA4B2F3E739287D
:101B00000CBF50210021FFF7E9BF08B528B100F054
:101B1000D9FEBDE8084000F041BF08BD08B528B1B6
:101B200000F0D8FEBDE8084000F038BF08BD2DE940
:101B3000F04790F806A0857807460C4600F092FE24
:101B40004FEA1A1A8046A8B1A8469DB1C4F30723EC
:101B500003F0F003402B04D004F12003DBB2072B89
:101B60001FD9022000F06AFF00F07CFE80F0010027
:101B70005FFA80F8C4F30339B9F10F0F42D8DFE8F8
:101B800019F0130013004A004A009F00CB004100E7
:101B90004100E00038014A014A019F014100410033
:101BA000A8014FF00008E5E7C4F3072313F0F00F96
:101BB00016BF2609C4F3032606F0F006E4B295B179
:101BC00056B104F12003DBB2072B304600D93CB9F3
:101BD00000F078FE00F0E2FE2046FFF789FE11E0FB
:101BE00000F086FEF6E72046FFF70EFF56B104F13F
:101BF0002003DBB2072B304600D94CB900F06AFE57
:101C000000F0CCFEA9F10809B9F1030F68D8B6E0DD
:101C100000F076FEF4E7C4F3072303F0F003202B73
:101C200014BF2609C4F30326E4B218BF06F0F00679
:101C300064B1012C2CD0ADB3BAF1000F2CD0BB791C
:101C4000D907C9D56FF30713BB7125E09DB1BAF170
:101C5000000F06D100F078FE3043C0B2FFF755FF09
:101C6000D0E7BAF1010FF5D100F06EFE3043C0B2FB
:101C700000F076FEC6E7BAF1000F05D100F082FE53
:101C80003046FFF74BFFBDE7BAF1010FF6D1B9E7D8
:101C900025B1BAF1050FB5D83046DFE7BAF1040F28
:101CA000B0D8EDE7BAF1000FEAD0392C0CBF4FF4F1
:101CB0004870012005F055FD2046FFF7A5FEA1E77D
:101CC000C4F381233BB1012B9CD11DB3C4F30900A4
:101CD00004F058FD04E0DDB1C4F3090004F042FD56
:101CE000B8F1000F00F0FC8000F0B4FD10F001002E
:101CF00040F0F680B87000F0A5FD00F0D9F9384644
:101D000000F005F900F09EFDBDE8F04700F0DAB9FB
:101D10002846E3E72846DBE7E4B220465DB102F05F
:101D200047FBF13C072C09D80121A140C9B2284644
:101D3000FFF7C7FDD4E702F099FBF2E702F012FCCF
:101D4000CEE714F4407F28D1CDB9C4F34210E206A7
:101D50004FEA800048BF0F25C0B248BF854004F05D
:101D60000F03C4F3812448BFED438340022C45EAAE
:101D700003000CD00ED8012C06D000F071F904F04D
:101D8000C7FCFFF769FDABE700F062F9F7E700F089
:101D90006FF9F4E700F059F9F1E7F5B1C4F3002366
:101DA000002BECD0C4F342108000C3B204F00F004B
:101DB00000FA03F214F010001CBF0F209840C4F387
:101DC000812418BFC043022C40EA02000BD00DD87A
:101DD000012C05D000F094F9D1E7C4F34023DFE7EC
:101DE00000F086F9CBE700F093F9C8E700F04CF972
:101DF000C5E7E6B23DB1C4F3032000F059F930461F
:101E0000FFF783FEBBE73046FFF788FEC4F30320ED
:101E100000F058F9B3E7E6B2A6F1F003042B3DD881
:101E2000DFE803F00310161D260045B1BAF1040FD8
:101E30003FF6E8AEC4F3042000F050F9E2E6BAF150
:101E4000050FF5E735B1C4F3042000F031F9D9E608
:101E5000002DF8D0C4F3042000F034F9D2E625B107
:101E6000C4F3042000F01FF9CCE600F019F9C9E62C
:101E70004DB1C4F30424204600F01AF90321204692
:101E800000F0B8FDBEE6012000F0D8FDBAF1010F68
:101E90007FF6B8AE022000F0D1FDB3E625B1BAF16D
:101EA000000FD0D0304698E6BAF1000FD2D0392ECC
:101EB0000CBF4FF44870012005F053FC3046FCE69F
:101EC000C4F30322E1B2384600F02EFF00F0BEF961
:101ED00006E7C4F30322E1B2384600F027FFFFE62D
:101EE000BDE8F08738B50446008958B100F038FFE6
:101EF000054600F015F900F0A7F829462046FFF73F
:101F000016FE38BD2188A07800F080F9F0E713B5FF
:101F100083880288ADF804200446CBB1BDF80420C4
:101F20004FF6FF739A4213D0FFF72CFC50B900F024
:101F300099FC68B1A3785BB1022002B0BDE8104003
:101F400000F07CBD2046FFF7CDFF2046FFF7A5FB44
:101F500002B010BD08B5002004F004FC002004F01D
:101F600011FC00F0D5FC00F0E9FC00F017FD02F0D8
:101F7000DFFBBDE8084002F0F5BA000008B5044BED
:101F8000186804F0C9FCBDE80840FFF7E3BF00BFD4
:101F90009C10002008B500F0A5FCBDE80840FFF744
:101FA000EDBFC0F303330E3303F00F020D2A0CD83C
:101FB0000123934013F4105FC1B217D140F20330F4
:101FC000184004D113F010030BD100207047F02902
:101FD00002D003D8E729F8D801207047F429F4D1BA
:101FE000FAE7E729F8D9F129F6D07047C0F3C02005
:101FF000704708B50346008920B100F0B1FEFFF735
:10200000D0FF08BD188800F0F5F8F8E782B002AB01
:1020100003E9030002B0704784B004AB03E9070092
:1020200004B07047704708B5FFF7FCFF08BD00001B
:1020300008B5FFF7F8FF034B1860BDE80840FFF74D
:1020400089BF00BF641400207047FFF7F1BF000094
:10205000024B1B681843FFF7EBBF00BF641400205E
:10206000024B1B681840FFF7E3BF00BF6414002059
:10207000024B1B685840FFF7DBBF00BF6414002011
:1020800008B5FFF7BFF908BD08B5FFF7F9FF034B27
:102090001860BDE80840FFF75DBF00BF681400206E
:1020A0000020FFF7F1BF012303FA00F0FFF7ECBFB8
:1020B000012303FA00F0024B1B681843FFF7E4BF4B
:1020C00068140020012303FA00F0034B1B6823EA85
:1020D0000000FFF7D9BF00BF68140020012303FAF6
:1020E00000F0024B1B685840FFF7CEBF6814002079
:1020F000024B1B681843FFF7C7BF00BF68140020DE
:10210000024B1B681840FFF7BFBF00BF68140020D8
:10211000024B1B685840FFF7B7BF00BF6814002090
:1021200070470000C0F3072303EB430300EB4303B6
:1021300003F0FF0337B503F0070201209040DB08EE
:102140000A4A03EB8303C0B2134400245D7821FAEA
:1021500004F242F300026A40024001346A40052C56
:1021600003F8012FF2D103B030BD00BF6B14002083
:10217000C0F3072303EB430313B500EB430000F068
:10218000FF0000F007040949C00800EB80000022AE
:10219000014410468B5CE34003F00103934001329D
:1021A0001843052AC0B2F5D102B010BD6C1400204E
:1021B0000E4B73B51E680E4BADF804001B681F2450
:1021C0001E4326FA04F3DB0706D414F1FF34F8D2D9
:1021D0000025284602B070BDE5B20199284600F0FE
:1021E0008FFE80B20128F0D0F3E700BF6814002012
:1021F0006414002007B5ADF804000198FFF7D8FF7C
:10220000019900F07DFE03B05DF804FB13B50E4BA1
:10221000ADF804101B7823B10198FFF7EBFF02B073
:1022200010BD60B10198FFF7C3FF04460146019855
:10223000FFF778FF0199204600F062FEEFE7019872
:10224000FFF796FF0446F5E760140020F8B5034653
:10225000002853D0002501261878732803F10104C3
:1022600006D8042820D201280AD002281FD0F8BDA1
:10227000752835D02AD3A0F184036F2B33D9F8BD4C
:102280009C1C5B7803F12002D2B2072A0BD803F022
:1022900007039840C0B200F041FB00F07FFB2F46DF
:1022A00037BB2346D8E71846FFF722FBF7E75878F5
:1022B0009C1C00F12003DBB2072B16D800F00700AE
:1022C00006FA00F0C0B200F031FBE6E75F789C1C34
:1022D000002FE4D00A20013F05F043FAFFB2F7E7F0
:1022E0009C1C5D78DBE700F07F00FFF78DFBD6E7F5
:1022F0000A20013F05F035FAFFB2D1E7F8BD000032
:10230000F8B50A4B0A4D1C780A4E0A272B78A342CF
:1023100000D1F8BD07FB04630134186859681A89B5
:10232000FFF77AFE04F00704F0E700BFE514002091
:10233000E414002094140020024B186859681A898C
:10234000FFF76ABE8A140020244B2DE9F7439A79DF
:1023500012090ED19A7862B1214ADFF88CE0127826
:1023600020484FF6FF7C4FF00A089EF8001091427B
:1023700002D103B0BDE8F0839C885CB319785E7825
:102380008DF804108DF80560BDF80450654521D026
:1023900008FB02F5471997F80190B1451AD1455D40
:1023A0008D4217D1B978A9B9B988091B89B2C72953
:1023B00010D899790948012262F307119971BB7904
:1023C00062F30713BB71FFF7A2FD03B0BDE8F04352
:1023D000FFF796BF013202F00702C6E78A14002019
:1023E000E514002094140020E41400202DE9F047A7
:1023F000B84F90B00446BB880068089038882178B0
:10240000627894F80280B4F804A0ADF804000DF1ED
:10241000200E3D46002B00F01D8186B24FF6FF7C5A
:10242000664500F0178197F80290B9F1000F00F0AF
:102430001181AAEB03039BB2C72BBB7900F2BF80CB
:1024400013F0F00F76D166451AD03E882088864278
:1024500016D13E892089864212D14646B8F1000F36
:102460000ED1012262F30713BB71FFF765FF3846F7
:10247000FFF74DFDBB79A371304610B0BDE8F08782
:102480004646BAF1000F4CD08DF81C108DF81D2077
:10249000BDF81C004FF6FF73984242D0002E43D186
:1024A0008D4B8E481B7890F800E08D4F4FF00A0C52
:1024B00073450FD18DF821208DF820100898FFF773
:1024C00099FEC0F30332C3B2032A1DD8DFE802F03D
:1024D000131321210CFB03F5781990F80180904526
:1024E00005D17D5D8D4202D180780028C4D10133B1
:1024F00003F00703DCE710F4706F01D0002BBBD0B2
:102500002033DBB2072BB7D92046FFF700FD4E463C
:10251000B2E710F4706FF3D0A27912F0F00FEFD1A0
:10252000AAE7B8F1000FA7D0AB7943F00103AB7174
:102530000026A1E780B2604517D0398822889142F1
:1025400013D13989228991420FD1B8F1000F0CD1F2
:10255000A3712046FFF7DBFC23683B6063687B6068
:1025600023893B81FFF7E8FED1E72046FFF741FDD5
:1025700008B3B8F1000F1ED0AB791F2B0FD92A88F2
:10258000ADF828208DF82E3000222B898DF82A20D6
:10259000ADF82CA0ADF830300AA8FFF7B8FC2368DE
:1025A0002B6063686B6023892B81FFF7CDFEFFF7FB
:1025B000C3FE012660E72046FFF7A9FCF9E713F008
:1025C000F00614D18DF821208DF82280ADF824A0DA
:1025D0008DF820109EE80300FFF718FD3846FFF73E
:1025E00096FC3E607E603E81FFF7A6FE44E780B227
:1025F000604515D039882288914211D139892289C4
:1026000091420DD1B8F1000F0AD1A3712046FFF716
:102610007EFCC7F80080C7F80480A7F8088076E73A
:102620002046FFF7E6FC0028C5D0B8F1000FC2D065
:10263000AB791F2BB3D92A88ADF834208DF83A3006
:1026400000222B898DF83620ADF838A0ADF83C304B
:102650000DA8A2E72888ADF81400002B60D086B240
:102660004FF6FF77BE425BD0AE78002E58D1AAEB72
:1026700003039BB2C72B43D84646002E9BD080B2A3
:10268000B8422FD02A8823889A422BD12A892389BD
:102690009A4227D1AB79DA0714D41B0912D0AB794F
:1026A000A3711A090F2A1EBF013262F30713A37127
:1026B0002046FFF72CFC23682B6063686B6023893E
:1026C0002B8191E723682B6063686B6023892B81E2
:1026D000D2E600BF8A140020E5140020E414002094
:1026E000941400202046FFF784FC00287FF457AFA5
:1026F000AB79204643F00103AB71FFF708FCBBE662
:102700008DF82280ADF824A08DF820108DF82120BE
:102710009EE80300FFF77AFC2E606E602E8163E76F
:10272000B8F1000F3FF447AF2046FFF762FC0646C2
:1027300000283FF440AF23682B6063686B602389F7
:1027400003482B81FFF7B8F8FFF7FEFD4CE700BF09
:102750008A140020F0B58BB001AC84E80700204655
:10276000FFF744FE334F344E0546B8B1BDF808308C
:10277000BDF80420ADF8142043B192B24FF6FF73B8
:102780009A4203D094E80700FFF746FC2B4C0A2539
:1027900030783B7883422DD10BB0F0BD94E8070030
:1027A00007AB03C3BDF808101A80BDF81C30ADF8A4
:1027B00018300029EAD09AB24FF6FF739A42E5D05A
:1027C0003B7830785A1C02F00702824228D00A2453
:1027D0005C43ADF8201007AB03CBDFF860E01B884B
:1027E0004EF804000EEB04053A7069602B81FFF788
:1027F00087FDCBE700EB800004EB4000FFF7F6FD20
:102800000028C9D0337805FB0343186859681A8932
:10281000FFF702FC3378013303F007033370B7E7A7
:10282000FFF7B8FB064B3D7035701D605D601D8184
:10283000B2E700BFE4140020E51400209414002047
:102840008A140020024B93F90000C0F3C7007047C0
:1028500007150020024B187800F00700704700BFF2
:1028600007150020034B187810F0070018BF01204F
:10287000704700BF07150020064A5378C3F3800154
:10288000814205D060F382035370108800F01EB9B6
:10289000704700BF2C2E0020034B587880F00400B6
:1028A000C0F38000FFF7E8BF2C2E00200120FFF7C7
:1028B000E3BF0020FFF7E0BF014B1878704700BF6F
:1028C00009150020024A137818431070704700BFA2
:1028D00009150020024A137823EA0000107070479F
:1028E00009150020014B00221A70704709150020BD
:1028F000024A137818431070704700BF0A15002071
:10290000024A137823EA0000107070470A1500206D
:10291000014B00221A7070470A150020024A1378F2
:1029200018431070704700BF06150020024A137844
:1029300023EA00001070704706150020014B0022AA
:102940001A70704706150020014B1878704700BFB9
:1029500008150020704708B5FFF7FCFF08BD000010
:1029600008B5064B5B785B0706D4054B19788142A6
:1029700002D01870FFF7EFFF08BD00BF2C2E00201B
:102980000815002008B5044B1A781AB100201870F9
:10299000FFF7E1FF08BD00BF0815002010B50D4B83
:1029A0000D491B7809780D4C0B430D4920680978B7
:1029B0000B430C490370097831B10B43037003F0EA
:1029C000F1FE08B1FFF7DEFF2068BDE8104003F01C
:1029D000A7BE00BF091500200A1500209C1000208A
:1029E0000615002008150020704708B5FFF7FCFF0A
:1029F00008BD00000A4A5278520710B50CD4094CA1
:102A000041EAC0012170FFF753FB94F90000C0F3C5
:102A1000C700FFF7EAFF10BDBDE81040FFF748BB55
:102A20002C2E00200715002008B5034B002018703D
:102A3000FFF7DBFF08BD00BF0715002008B50C4AF3
:102A400092F9003023EA000040B21070420702D130
:102A5000DBB2834203D1074B5B785B0707D5C0F33A
:102A6000C700FFF72FFBBDE80840FFF7DDBF08BD3B
:102A7000071500202C2E002008B501F0EDFF4FF6C1
:102A8000FF710020BDE8084002F077B808B50020CB
:102A900002F070F84FF6E963C31A5842584108BD76
:102AA000022002F061B8032002F05EB80146032064
:102AB00002F05DB810B5042002F056F8044622205A
:102AC00002F052F844EA002080B210BD10B5C1B245
:102AD0000446042002F04BF8210A2220BDE81040F1
:102AE00002F045B8072002F03FB80146072002F087
:102AF0003EB801460F2002F084B80146132002F0D0
:102B000080B80020FFF7F9BF08B50020FFF7F1FFFC
:102B1000FFF7F7FF08BD000010B501F09DFF4FF66D
:102B2000E961002002F029F80021022002F01FF8DC
:102B300000210320002402F01AF81A4B2146042039
:102B40001C6002F014F82146222002F010F8214601
:102B5000052002F00CF82146062002F008F8FF21BB
:102B6000072002F004F82146082002F04AF8214626
:102B70000D2001F0FCFF2146182002F042F821460A
:102B8000172001F0F4FF21461C2002F03AF82146FC
:102B9000202001F0F2FF2146182002F032F8FFF762
:102BA000B3FF10BD64140020FFF7B6BF01460E202E
:102BB00001F0DDBF08B503F02BFF024B1860024B9C
:102BC000186008BD0C1500201015002070477047D4
:102BD00008B5FFF7FCFF08BD08B5FEF713FD08BDFB
:102BE00008B5054800F074FA01F0E6FEFFF7EEFFC5
:102BF000FFF7EEFF08BD00BFC93000080120704795
:102C000008B5FFF7FBFF08BD7047704708B5FFF731
:102C1000FBFFFFF7FAFF08BD08B503F0F7FE00F071
:102C200039FB02F075FDFEF7FBFA02F0BFFFFFF77C
:102C3000D3FF08BD2DE9F04F85B000F041FB08B18E
:102C4000FFF7B8FF354F0024B8465FFA84F94846CD
:102C500000F084FAE65DB042834616D10134082CB8
:102C6000F3D1FF238DF808308DF8093000238DF85B
:102C70000A3003F0FBFE40F00100ADF80C0004AB9D
:102C800013E90300FEF7F0FD2AE0254B1B789B07B4
:102C900001D500F069FA002301258BEA06063542CA
:102CA0005FFA83FA30D0FFF7ABFFA0B11BEA050F44
:102CB00014BF012300238DF800A08DF801908DF83A
:102CC000023003F0D3FE40F00100ADF804009DE8AF
:102CD0000300FEF7C9FD18F804305D4008F8045001
:102CE000104C02F041FD01F05DFCFEF7DDFA03F04F
:102CF0000FFD237883420DD003F00AFD207005B04C
:102D0000BDE8F04FFEF7A8BD01336D00062BEDB214
:102D1000C5D1A3E705B0BDE8F08F00BF15150020B1
:102D20001D1500201415002000207047704700007A
:102D300030225043C1F30723062202FB030353FA58
:102D400081F3034A32F8130082B002B0704700BF2B
:102D500038B00008014B33F81000704782B2000809
:102D600010B500F0D9F8B0F5A04F04462DD2B0F55B
:102D7000804F80F08C80E72816D8E02870D2A728F2
:102D800008D8A52866D201286AD001D3042867D2C2
:102D9000002465E0BE2865D9C028F9D3C03880B2C8
:102DA000FFF7D8FF04465BE0B0F5005F07D2B0F54F
:102DB000807F60D2ED28EBD340F4A04459E0B0F519
:102DC000405F5BD2C0F30B00EAE7B0F5AA4F1BD21D
:102DD000B0F5A84FC3B279D2B0F5A44F07D2B0F581
:102DE000A24F59D34AF2F10040EA032438E0B0F58B
:102DF000A64F61D29808012403F003039C4044EAE3
:102E0000401444F40C4434E0B0F5B24F0ED2B0F5A7
:102E1000B04F60D2B0F5AC4FBAD2C0B200F0FEF8FD
:102E2000040204F4F85444F4005419E0B0F5B44F2B
:102E300056D3A0F5C043B3F5005FA9D2C0F3042078
:102E400000F0ECF8E4B2000244F4005400F4F8504E
:102E5000044305E05B34E4B2274B1C5D44F480443A
:102E6000204610BD5834E4B2244B33F8144044F4E7
:102E70008844A4B2F4E7C0F30C04F1E710F4006F47
:102E8000C4B214BF44F4484444F44044E8E7C0F3F7
:102E90000B0444F42044E3E703F0030201249440CC
:102EA000C0F3011044F40C4444EA0024C3F381034A
:102EB00044EA43139CB2D3E79808012403F00303C8
:102EC0009C4044EA401444F40A44D2E74AF2F40431
:102ED00044EA0324C4E74AF2F00040EA0424C8E7C5
:102EE00000F00F0000F09AF8C4F3031440EA042441
:102EF00044F41044BDE700BF50B2000854B20008CB
:102F000007B5ADF804100199FFF712FFFFF728FF8E
:102F100003B05DF804FB0000822825D00CD83128CE
:102F200063D004D8292859D02A2865D0704735287D
:102F30004DD0392818D07047E32830D004D8E02885
:102F400019D0E22826D07047E62832D0E72835D0BD
:102F5000E42832D1304B5A7891072ED51B7813F0E4
:102F6000100F08BFE72012E02B4B1B7813F0030F64
:102F700018BFE0207047284A1378D90743D4527805
:102F800012F0010F19D013F0100F08BFE32018BF83
:102F900000207047204B1B7813F0040FF2E71E4A05
:102FA0001378590731D45278D20730D413F0100F68
:102FB000EDE7194B1B781A07D1D47047164A1378DE
:102FC000190726D452789207F0D5E420F5E7124B82
:102FD0001B7813F0200F18BF292070470E4B1B7869
:102FE00013F0200F18BF352070470B4B1B7813F0E0
:102FF000400F18BF2A207047074B1B7813F0400F73
:1030000018BF3120704739207047E2207047E02018
:103010007047E620704700BF2C2E0020294B1A78FD
:10302000510707D500F01801082927D100F0F70053
:1030300040F00400110707D500F01801182926D127
:1030400000F0E70040F014005B78D90707D500F0E6
:103050001801082924D100F0F70040F00100990779
:1030600007D500F01803182B23D100F0E70040F03B
:103070001100D30648BF00F0E700704700F01401CC
:10308000042904BF00F0FB0040F00800D2E700F084
:103090001401142904BF00F0EB0040F01800D3E73E
:1030A00000F01101012904BF00F0FE0040F008000B
:1030B000D5E700F01103112B04BF00F0EE0040F043
:1030C0001800D6E72C2E0020002070470020704703
:1030D000014B1860704700BFA0100020FFF7CCBC68
:1030E00008B500F0EDF8642004F03BFB00F0E8F8D0
:1030F000002000F033F8C30705D5FFF7EFFFBDE868
:10310000084003F0C5BC08BD08B5FFF7E9FF08BDDE
:1031100008B5FFF7BBFC08B9FFF746FDFFF7C0FC99
:10312000084B1870FFF7C6FC074B1880FFF7ECFF41
:10313000FFF7B9FCFEF789FF044B1868BDE80840AB
:10314000FEF79EBF1D1500202C2E002068140020C5
:10315000704708B5FEF7C0F908BD0000014B185CC8
:10316000704700BF362E00207047012004F0F9BAE6
:1031700000BF00BF00BF00BF00BF00BF00BF00BF57
:1031800000BF00BF00BF00BF00BF00BF00BF00BF47
:1031900000BF00BF704708B5FFF7E7FF08BD08B5DF
:1031A000202282F31188012100F00F03994020F0C2
:1031B0000F0005F023FD002383F3118808BD0000F4
:1031C00038B50B4D002455F82400421C01D0FFF700
:1031D000E6FF0134082CF6D1064D002455F82400F2
:1031E000431C01D0FFF7DBFF0134062CF6D138BDBC
:1031F0009CB2000884B200082DE9F843234F0D4625
:1032000057F821100646481C3BD0202383F3118831
:103210004FF0010821F00F0901F00F0108FA01F445
:10322000214642464846A4B205F0E8FCA9F81A40F7
:10323000002484F31188FFF79BFF1548234650F8BC
:103240002320511C1FD022F00F0102F00F02096948
:1032500021FA02F2D20716D408FA03F149B2013377
:103260002143062BCCB2EAD157F82500431C01D0EC
:10327000FFF795FF211C18BF01212846FFF78BFFA0
:103280007455BDE8F8830021E9E700BF9CB200084F
:1032900084B2000808B5FFF793FF00200649074AEB
:1032A00003464354835401300828FAD100F032F821
:1032B000BDE80840FEF72EBA2E2E0020362E002044
:1032C00037B5002400940194E1B268460134FFF759
:1032D00093FF082CF8D10D4D22466946284607F089
:1032E000B1FD00281DBF6B4603CB012400241CBF89
:1032F00028606960234608220549044800F00CF85C
:10330000FEF713FA204603B030BD00BF2E2E00207A
:10331000362E002070470000F8B506460F461546C9
:103320000C4C2BB10123237003F072FB0A4B186085
:10333000237853B1084B186803F0A4FB042804D980
:103340000023AB4202DB00232370F8BDF25CFA5489
:103350000133F6E71E1500202015002008B503F004
:10336000F3FA03F077FE03F077FE03F08BFEFFF72E
:103370004DFCFAE700000000453807EE900AF8EE31
:10338000E77AB2EE087AC7EE876A08B516EE900AB9
:10339000FDF756F99FED080B41EC110B06F03CFCD4
:1033A000002251EC100B064BFDF79EF9FDF74CFC8B
:1033B00000EE100A08BD00BF000000000000004041
:1033C00000807B4008B545F61D43984205D18B78B7
:1033D00073B300F049FB002008BD45F61E43984238
:1033E00004D18B7823B300F055FBF4E745F61F4377
:1033F000984206D18B78DBB100F02CF90028F2D18D
:10340000E7E745F62A43984209D18B7883B100F06B
:1034100095FD00220421074800F096F9DBE745F608
:103420002B43984204D18B7813B100F08DFDF0E767
:10343000012008BDA410002008B5FFF79DFFBDE8DE
:10344000084000F00DBB08B5FFF796FFBDE8084047
:1034500000F01EBA00F006B970470000F8B5244B22
:103460001B782DED048B002B3FD1224B1D78002DB6
:103470003BD1214B1B78DB0737D5204E9FED209A9F
:10348000D6ED007A1F4F204C77EEA78A07F0F2FCAA
:1034900007EE900AB8EEE77AB7EE008A27EE097ACF
:1034A000D7ED007AF0EE486AE7EE276A66EEA87A72
:1034B000C4ED027A07F0DEFC07EE900AF8EEE77A38
:1034C00097ED007A67EE897A2A46A7EE878A20462A
:1034D0000321D6ED007A28EE278A84ED048ABDEC1C
:1034E000048BBDE8F84000F02FB9BDEC048BF8BDAB
:1034F0003F1500203E150020B82E0020C4100020EB
:1035000000000030C8100020CC100020084B9FEDB8
:10351000097AD3ED007A67EE877A9FED077AF4EEA9
:10352000C77AF1EE10FA48BFC3ED007A704700BFCA
:10353000C41000200938983F0080BB44084B9FED21
:10354000097AD3ED006AC6EE877A9FED077AF4EE2A
:10355000C77AF1EE10FAC8BFC3ED007A704700BF1A
:10356000C41000200938983F00008242054A1078B4
:10357000C0F3400383F0010363F341001070C0B255
:10358000FFF7B3BAB82E0020034B187840F00200C2
:103590001870FFF7AABA00BFB82E0020034B1878A6
:1035A0006FF341001870C0B2FFF79FBAB82E002029
:1035B00038B545F62043984204460D460CD18B7829
:1035C0000BB1FFF7D3FF45F624439C4216D1AB78ED
:1035D000A3B1FFF7B3FF11E045F62143984205D1AF
:1035E0008B78002BEFD0FFF7CFFFECE745F62243B7
:1035F00098421BD18B780BB1FFF7D0FF124B1B7891
:1036000003F00303032B08D1AB7833B1A4F5B8441E
:103610001E3C012C01D9FFF721FF012038BDAB78FA
:10362000002BEBD0094B0A4A1A60E7E745F6254321
:103630009842F4D045F623439842C4D1AB78002B8E
:10364000DCD0FFF763FFD9E7B82E0020C4100020BC
:103650000000DC43024B187800F00100704700BF07
:10366000B82E002038B50D4D2C78ACB90C4B1C7021
:1036700000F016FC0B4B0C491C700C4B1C700C4BD7
:103680001C800C4B03F160021C8059601C810C33C0
:103690009342F9D101232B7038BD00BFE410002004
:1036A000241500202D150020000080BF2E150020BD
:1036B0002A150020582E0020014B1878704700BFB3
:1036C0002D1500200B4B1B7883420FD9013B1B1A91
:1036D00009485BB20C2202FB030393ED010AB5EE2D
:1036E000C00AF1EE10FA01D900F034BC9FED030AD4
:1036F000704700BF24150020582E00200000000055
:103700000E4B07EE900A1B78F8EE676ADFED0C7A35
:103710009B0166EEA76A07EE903AF8EEE77A82B070
:1037200086EEA77ADFED077A67EE277AFCEEE77A76
:10373000CDED017ABDF8040002B0704708110020F9
:103740000000704200007A44244B1B78DB07F7B579
:1037500004460F46154604D403B0BDE8F040FFF719
:1037600081BF1F4B1B780BB900F064F81D4B1B7811
:103770000BB1FFF777FF1C4BD4ED017A1B4E0122F2
:103780001A701B4A3460002313701A4AFCEEE77A61
:103790001780194ACDED017A1570184DBDF8040057
:1037A0002B80FFF7ADFF94ED000A00F0D1F803F095
:1037B0005DF9134B2A881880336803EBC203D3EDFD
:1037C000017AFCEEE77ACDED017ABDF80400FFF74F
:1037D00097FF0C4B188003B0F0BD00BFB82E00203F
:1037E000251500202E1500202D150020542E002018
:1037F0002C150020402E0020B92E00202615002078
:10380000281500202A15002008B5074B1B78DB0778
:1038100004D5002206210548FFF796FF03F026F99C
:10382000034B188008BD00BFB82E00200C110020EB
:103830002815002010B5124C2378FBB9FFF726F9A4
:1038400008B9FFF7B1F9FFF74DF90E4B18700E4BA1
:103850000E4803F1600100221A8058601A810C336F
:103860008B42F9D123781BB900F0D4FA01232370DD
:10387000FFF7F8FEBDE81040FFF7C6BF10BD00BF60
:1038800025150020B82E0020582E0020000080BFF3
:10389000F8B5274DB5EEC00A2B78F1EE10FA2DEDF4
:1038A000028BB0EE408A48BFB1EE408A002B3BD07D
:1038B000204B1B780BB9FFF7BDFF1F4A07231046AB
:1038C000D2ED167AB4EE678AF1EE10FA27D10C2108
:1038D00059430022431842521849DFF870E05960FA
:1038E0001A810E46144673450ED1154B01261E70E3
:1038F000144B1C78013CE4B21C70ACB900F0D0FA57
:10390000114B2C701E700FE003F10C0797E80700B5
:103910009C8183E807001E619C823B46E3E7013BF4
:10392000591CA2F10C02CBD1BDEC028BF8BD00BF3B
:103930002E15002025150020582E0020000080BFE5
:103940002F15002024150020E4100020AC2E0020AC
:103950002DE9F0413A4B1B78DB072DED028B074632
:10396000B0EE408A47D5374B1B780BB9FFF762FFA3
:10397000354D364E2B78B5EEC08AF1EE10FA03EBDA
:10398000430248BFB1EE488A03F1FF3806EB8202DA
:10399000B8F1FF3F20D10133DBB2082B42D82B70A6
:1039A0002B4A012313702B4A13702B785C1E03F0F3
:1039B0005DF80C236343F218F05282ED018A1781FF
:1039C00003F054F8244C254B188023789BB100F069
:1039D00091FA002323700EE00C3AD2ED017AF4EE56
:1039E000487AF1EE10FA1AD10C2404FB08642B7803
:1039F000013B984503DBBDEC028BBDE8F08104F18F
:103A00000C0696E8070084E8070003F02FF808F199
:103A10000108A08184ED048AA7823446E7E708F113
:103A2000FF38B5E708232B700023F41804F10C02CB
:103A300007CA0C33542B84E80700F6D1B0E700BF67
:103A4000B82E00202515002024150020582E002017
:103A50002F1500202E150020E41000203C1500201A
:103A60004FF6FF70FFF774BF08B5084B187840F0A9
:103A700001001870FFF739F8FFF7EEFC0022022171
:103A80000348BDE80840FFF75FBE00BFB82E002026
:103A9000F810002008B5002202210948FFF754FE63
:103AA0004FF47A7003F05DFEFFF7DCFD054B1878EC
:103AB0006FF300001870BDE80840C0B2FFF715B8FA
:103AC000E8100020B82E0020674B1A782DE9F34744
:103AD0009846664C12B92578002D70D002F0C6FFCA
:103AE00027788146F7B9002798F80030002B00F0BE
:103AF000B8805F4B1D7825B95E4B1D78002D08BF3F
:103B00003D465D4C5D4F00264FF6FD783B789E426A
:103B1000C0F295805A4A1378002B50D000211170C2
:103B20001D464CE0574D584E288802F0A4FF3388BC
:103B30008342D8D8288802F09EFFA5F80090534D04
:103B40003488B5F800A00AF10103041B2B8002F0B1
:103B50008DFF4F4B18804F4B19882B888B42A4B296
:103B6000A94605D34C4B1D783DB30023A9F800307E
:103B70004A4A4B48137815462BBB0368B9F800C076
:103B800003EBCA0E03EBCC039EED007AD3ED007A73
:103B9000B4EE677AF1EE10FA15D10123022013700A
:103BA000FFF7AEFD9FED3F0AFFF7D2FE0220A9F816
:103BB00000A0FFF7A5FD308096E7FFF753FD2846EC
:103BC00002B0BDE8F087002302682B70B9F800301E
:103BD00002EBC303D3ED017AFCEEE77ACDED017A77
:103BE000BDF80400FFF78CFD013984420DD88442F2
:103BF00022D30124B9F8003002EBC302204692ED33
:103C0000000AFFF7A5FE34806EE7B9F800308B425A
:103C1000EDDA01339BB2A9F8003002EBC303D3ED18
:103C2000017AFCEEE77A201ACDED017A84B2BDF874
:103C30000400FFF765FDD8E7001B84B2DAE72389AB
:103C4000013B9BB2434509D8208802F014FF238929
:103C5000834203D894ED010AFFF71AFE01360C34B3
:103C600054E73D4656E700BF2E1500202D150020D5
:103C70003915002038150020582E0020241500206A
:103C80002F150020281500202A15002026150020B9
:103C90003C150020402E0020B92E00202C150020BD
:103CA000542E00200000000010B5084C08492046A2
:103CB00003F0C0FE2046022103F0CEFE03221021B5
:103CC0004FF09040BDE8104004F098BF9C320020B7
:103CD0003C11002008B5074803F0CCFE012210215A
:103CE0004FF0904004F08AFF4FF0904310221A8367
:103CF00008BD00BF9C32002008B5114B2DED028B92
:103D0000B0EE408A83ED000AFFF7E4FFB5EEC08A0B
:103D1000F1EE10FA10D938EE088A9FED0A0A0A4B24
:103D200028EE008ABCEEC88A83ED008ABDEC028BC7
:103D3000BDE80840FFF7B8BFBDEC028B08BD00BF6F
:103D400030150020000080433C11002010B5084CC5
:103D50000849204603F06EFE2046022103F07CFE57
:103D6000032220214FF09040BDE8104004F046BFF0
:103D7000CC3200204C11002008B5074803F07AFE31
:103D8000012220214FF0904004F038FF4FF0904383
:103D900020221A8308BD00BFCC32002008B5114B89
:103DA0002DED028BB0EE408A83ED000AFFF7E4FFB1
:103DB000B5EEC08AF1EE10FA10D938EE088A9FED00
:103DC0000A0A0A4B28EE008ABCEEC88A83ED008AF4
:103DD000BDEC028BBDE80840FFF7B8BFBDEC028B1D
:103DE00008BD00BF34150020000080434C110020A6
:103DF00008B5FFF769FE58B10020FFF763FCFFF735
:103E00007BFF0020FFF75EFCBDE80840FFF7C6BF60
:103E100008BD000038B5184D184C032210214FF092
:103E2000904004F0EBFE2846154903F0C5FD154906
:103E3000154803F0FFFD032220214FF0904004F0CD
:103E4000DDFE2046114903F0B7FD1149114803F08A
:103E5000F1FDAB6A10491A681048136823F0020399
:103E60001360A36A1A68136823F400331360BDE873
:103E7000384003F0DFBD00BFD830002008310020FB
:103E8000BCB600083C1100209C320020C4B60008DB
:103E90004C110020CC3200205C110020AC320020FC
:103EA00010B50F4C0F4803F0E5FD204603F0A3FDCD
:103EB00040F2FF72002120460B4C03F08BFD0B48B3
:103EC00003F0D8FD204603F096FD204640F2FF7235
:103ED000002103F07FFD0648BDE8104003F0CABD95
:103EE000D83000209C32002008310020CC32002045
:103EF000AC32002008B50A4A0A490B484FF48073D7
:103F000003F06AFD4FF4807308490948094A03F039
:103F100063FD02210848BDE8084003F09DBD00BFD5
:103F2000BCB20008CCB60008D8300020DCB60008CF
:103F300008310020BCB40008AC320020014B002244
:103F40001A7070473A150020014B00221A70704712
:103F50003A150020024B1B780BB9024A13707047C8
:103F60003A15002038150020024B1B780BB1FFF7E3
:103F700071BA70473F15002008B5FDF71DFB08BD5D
:103F800008B5FFF7F1FF044B044800221A7008211E
:103F9000BDE80840FFF7D8BB3F1500209012002075
:103FA000034B0448002208211A70FFF7CDBB00BF65
:103FB0003E1500206C11002010B5FFF7D5FF084A10
:103FC00008481378013303F003031370282404FB1B
:103FD000030000220521BDE81040FFF7B5BB00BF7C
:103FE000EC110020F0110020F8B5174B1B7803B33B
:103FF000164C2088F0B902F039FD2080144C154E83
:104000002378F3B93278013A134D14492878CF5CFC
:1040100010B1885CFFF717FA2B7813B13846FFF719
:104020000BFA23783178013393FBF1F201FB123361
:104030002370F8BD02F01FFD094B1B888342DAD3C1
:10404000F8BD5A1EE0E700BF5115002056150020AC
:1040500052150020501500203F150020401500206B
:10406000141300207047000008B5054B05480122D5
:104070001A7008210022FFF767FBFFF7F3FF08BD66
:104080003F150020D41200207047000008B5054BF2
:10409000054801221A7008210022FFF755FBFFF79F
:1040A000F3FF08BD3E150020AC1100202DE9F043C0
:1040B00045F6264398428BB0054606D18B78002BF7
:1040C0003ED0FFF7D1FF002053E045F6274398424A
:1040D00005D18B78002B33D0FFF752FFF3E745F67D
:1040E0002843984206D18B7853B36B4B1B78002B37
:1040F000F2D1E6E745F62C43984204D18B78FBB128
:10410000FFF7C4FFDFE745F62D43984204D18B78D3
:10411000B3B1FFF745FFD6E745F62E43984206D1E7
:104120008B786BB15D4B1B78002BF2D1E8E745F63D
:104130002943984204D18B7813B1FFF73DFFC2E7C2
:10414000554B1A7822B9554B1B78002B00F0A180F3
:104150008E78002E3DD0E02D0ED1FFF705FF504B9D
:1041600001221A704F4B002018704F4B18704F4BA4
:1041700018700BB0BDE8F083E22D0BD1FFF7F4FE11
:10418000474B1A7812B1474A01211170002018706C
:10419000454BEDE7E32D0FD1424B1B78CBB1FFF739
:1041A000E3FE3F4B002018703F4B01221A70404B3A
:1041B0001870404B1880DCE7522D04D13E4A13881A
:1041C0000A3B13807FE7512D03D13B4A13880A3302
:1041D000F7E73A4B3A481C783A4FDFF8F4C04B788F
:1041E00091F800E004BB0478396824340C440621BB
:1041F00001FB03C313F80E301C44E4B2002E42D07E
:1042000012B12046FFF718F9254B1B782BB1274A2E
:104210002D491378CC54013313702846FFF7ACFEB8
:1042200080F00100C0B2A4E7062101FB03C30478BB
:1042300013F80EE03B78254F2434E4B20DF1040C62
:1042400007F1200938687968E046A8E803000837D4
:104250004F45C446F6D13888B978A8F8000088F8E8
:1042600002100721BEFBF1F101EB4100C1EBC101DE
:104270001C44AEEB01010AAB53FA81F104EB80045C
:1042800011F8243CB8E7002AC7D02046FFF7DBF836
:10429000C3E701206DE700BF3F1500203E15002059
:1042A00054150020531500205115002050150020F2
:1042B000521500205615002014130020EC11002088
:1042C00016130020D012002040150020E3AF000894
:1042D00008B00008194B1B78D9070AD5184B187875
:1042E00000EB8000C0F38F007F2825D810BB012091
:1042F00070479A0706D5124B187800EB8000C0F380
:104300004F00F1E75B0704D50D4B187800EB8000F8
:10431000EAE70C4B1B7863B10B4A12789342F3D255
:104320000749087800EB8000584390FBF2F080B218
:10433000DAE70520C0B270477F2070476215002081
:1043400019130020631500201A130020144B1B784A
:10435000D90705D5134B18788008F0B901207047AC
:104360009A0703D50F4B18784008F6E75B0705D589
:104370000C4B18787F28F0D97F2070470A4B1B78A8
:1043800053B10A4A12789342F2D20649087810FBD8
:1043900003F090FBF2F0EDE70120C0B2704700BFE0
:1043A000621500201D130020641500201E1300203C
:1043B000ED2808B505D1FFF78DFF4042294BD87095
:1043C00008BDEE2802D1FFF785FFF7E7EF2805D1FA
:1043D000FFF780FF4042234B987008BDF02802D1C0
:1043E000FFF778FFF7E7F92804D1FFF7AFFF1D4B80
:1043F000187108BDFA2803D1FFF7A8FF4042F6E77D
:10440000FB2805D1FFF7A2FF4042164B587108BDAB
:10441000FC2802D1FFF79AFFF7E700F10F03DBB2A8
:10442000072B08D80F4A0123F13803FA00F053781C
:104430001843507008BDFD2805D10B4A137843F08E
:104440000103137008BDFE2804D1074A137843F016
:104450000203F6E7FF28F5D1034A137843F004037B
:10446000EFE700BF5C15002062150020ED28394BF6
:1044700016D193F90320002A18DA0022DA7093F992
:10448000022022B993F903200AB933490A7093F93B
:10449000042022B993F905300BB9304A13707047E4
:1044A000EE2810D193F90320002AE6DC00F10F0278
:1044B000D2B2072A37D8F13801228240587820EA50
:1044C00002005870DBE7EF2806D193F90220002A9A
:1044D000ECDA00229A70D2E7F02804D193F9022096
:1044E000002AF6DCE2E7F92806D193F90420002A35
:1044F000DCDD00221A71C2E7FA2804D193F9042006
:10450000002AD3DAF5E7FB2806D193F90520002A23
:10451000CCDA00225A71B2E7FC28C7D193F9052002
:10452000002AF6DCC2E7FD2805D10D490A7822F001
:1045300001020A70A3E7FE2804D109490A7822F093
:104540000202F6E7FF289AD105490A7822F0040210
:10455000EFE700BF5C150020631500206415002004
:104560006215002008B502F081FA0B4B93F9022086
:1045700012B993F903200AB1084A108093F9042074
:1045800012B993F905300BB1054B18800248BDE80C
:10459000084002F0DDB800BF5C150020581500206F
:1045A0005A1500202DE9F047584C94F9028094F9EF
:1045B000037094F9046094F9055094F800A094F8FD
:1045C00001900023A370E37023716371B8F1000FB1
:1045D00000D157B14E4B188802F04DFA4D490B7877
:1045E00053B34D4A1278904230DC06B95DB14B4B63
:1045F000188802F040FA4A490B78002B52D0494AF9
:104600001278904258DC94F9023043B994F903309F
:104610002BB994F9043013B994F905300BB1FFF7B5
:10462000A1FF84F800A084F8019084F80280E7706C
:1046300026716571BDE8F0873B4A127802EB820271
:10464000B0EB420FD1DD01330B7001E0FF2BFAD14B
:10465000B8F1000F08D0FFF73DFEB8F1000FCCBF56
:104660000123FF235843A0703FB1FFF733FE002F13
:10467000CCBF0123FF235843E07094F90220002AA5
:10468000B3D094F903100029AFD0B5235A431212C6
:1046900003FB01F308BF01221B1208BF0123A27014
:1046A000E370A2E7214A127802EB8202B0EB420FDC
:1046B000A9DD01330B7001E0FF2BFAD13EB1FFF70A
:1046C00045FE002ECCBF0123FF23584320713DB18E
:1046D000FFF73CFE002DCCBF0123FF235843607140
:1046E00094F90420002A8ED094F9051000298AD06C
:1046F000B5235A43121203FB01F308BF01221B1218
:1047000008BF0123227163717DE700BF5C150020A3
:104710005815002063150020181300205A1500209A
:10472000641500201C130020171300201B13002009
:10473000054A002313609380044A1370044A1370DF
:10474000044A1370704700BF5C15002063150020F9
:1047500064150020621500201FB50DF1100E0EE942
:1047600003008DE80C009DF809209DF801309A4265
:104770001FD19DF90A301BB19DF902209A4218D130
:104780009DF90B301BB19DF903209A4211D19DF97F
:104790000D301BB19DF905209A420AD19DF90C00FC
:1047A00020B19DF90430181A18BF012005B05DF83A
:1047B00004FB0120FAE7000070B50E4D0E4C68793D
:1047C00066792B7921792A6843EA002341EA062198
:1047D0002068FFF7C1FF002610B1204601F0B8FFA6
:1047E000A670E6702368267166712B60A388AB8083
:1047F00070BD00BF6B15002065150020024A1168CE
:1048000092880160828070476515002082B08DE833
:104810000300034ABDF804301060938002B0704773
:104820006515002010B500F06DFA094C094800F03C
:1048300021FA094800F01EFA204600F01BFA07484A
:1048400000F018FA00F06CFA054B1C6010BD00BFB8
:1048500000F0030800E0030800E8030800F803087C
:104860007425002038B54FF6FE73034003F1006550
:1048700005F578354FF6FF712A888A4210D10A492A
:10488000CC5AE443A4B294420CD000F03BFA214647
:10489000284600F011FA044600F042FA204638BDDE
:1048A000002038BD052038BD72150020F8B5FFF78F
:1048B000B9FF00F027FA0C4C0C4F0D4E052504F102
:1048C0007843A3F57833F95A39B1C94389B2204600
:1048D00000F0F2F9052818BF05460234B442EED1C3
:1048E00000F01EFA2846F8BD00E00308721500200B
:1048F00000F00308F8B51C4B1C4F1E5A3A68012EF5
:104900009ABF1B4D02230423C3F1006394BF45EA01
:104910004635803803F5802392BFADB280B24FF4A4
:1049200060459A4203D9BDE8F840FFF7BFBF45EAAA
:10493000500400F0E7F938682146831C3B6000F022
:10494000BBF9B5F5604F044609D13868F143831CC3
:1049500089B23B6000F0B0F9052818BF044600F0AA
:10496000DFF92046F8BD00BF721500207425002035
:104970000080FFFF38B50D4C0D4B22689A4205466A
:1049800003D9BDE83840FFF791BF00F0BBF9094BF0
:104990002068595D41EA0521831C89B2236000F03B
:1049A0008BF9044600F0BCF9204638BD7425002080
:1049B000FFFF0308721500202049214B2148F0B564
:1049C000214E0D465A889C190233D24383420A5322
:1049D000F8D11E4A1E4C4FF6FF7743F6FE76138839
:1049E000BB4206D0180409D4190A6B540232A24201
:1049F000F5D9184B4FF480501A60F0BD03F4C04154
:104A0000B1F5C04F0FD1901CA04215D85188C943B1
:104A100089B279B106EA430380330246B3F5805F79
:104A2000E4D2E952E2E75904E0D4C3F3403106EAA4
:104A30004303F3E70246D9E70246DAE7721500209E
:104A4000FEDF0308FEEF03080220FCF700F0030876
:104A5000FFFF03087425002008B5FFF7E3FEBDE85B
:104A60000840FFF7A9BF0000B0F5805F10B504460D
:104A700014D20C4B1A5C8A4212D01954FFF7F2FE82
:104A800078B97F2C04D82046BDE81040FFF772BFEC
:104A900024F00100BDE81040FFF72CBF072010BD37
:104AA000002010BD72150020B0F5805FF8B50546F6
:104AB0000E4631D210F001030CD0C9B2FFF7D4FF7B
:104AC0000446681C310A80B2FFF7CEFF052808BFF4
:104AD0002046F8BD134A175AB9421FD05153FFF769
:104AE000C1FEF0B97F2D12D8FBB2F2B293420CD0C6
:104AF0002846FFF73FFF0446360AB6EB172F0FD0C4
:104B0000681C80B2FFF736FFE0E70524F4E728468B
:104B1000BDE8F840FFF7EEBE0720F8BD1846F8BD27
:104B20002046F8BD72150020B0F5805F3ABF024BF9
:104B3000185CFF20704700BF7215002040F6FE731E
:104B400098420BD8074B10F0010F1FBF1A18185CC2
:104B5000527840EA022008BF185A70474FF6FF709B
:104B6000704700BF7215002080B2FFF7DDBF80B232
:104B7000FFF77ABF80B2FFF7E1BF80B2FFF794BFC3
:104B800081B2CB0710B5084610D5FFF7CDFF04461C
:104B9000481C80B2FFF7D2FF0246C81C80B2FFF764
:104BA000C3FF000640EA0220204310BDFFF7C6FF06
:104BB0000446881C80B2FFF7C1FF44EA004010BDE4
:104BC00038B584B2E3070D4610D5C9B22046FFF7C9
:104BD0004BFF601CC5F30F2180B2FFF765FFE01C9F
:104BE000290E80B2BDE83840FFF73EBF89B22046AB
:104BF000FFF75AFFA01C290C80B2BDE83840FFF730
:104C000053BFFFF7DDBF00000B4BDA68D2070CD4AF
:104C1000DA6851070BD4DA68D2060AD4DB6813F0DD
:104C2000010F14BF042005207047012070470220A7
:104C300070470320704700BF0020024073B5044650
:104C4000FFF7E2FF0025FF2601280FD114B9062047
:104C500002B070BD01950196019B1BB9FFF7D4FF0F
:104C6000013CF1E7019B013B0193F5E7002C08BFF4
:104C70000620EDE738B5054640F6FF70FFF7DEFF8A
:104C8000052815D10B4C236943F0020323616561AC
:104C9000236943F04003236140F6FF70FFF7CEFF26
:104CA00006281EBF236923F0020323613423E36037
:104CB00038BD00BF00200240104B00F178429A42FC
:104CC00070B505460E4616D81F20FFF7B7FF05281A
:104CD00012D10B4C236943F0010323611F202E8066
:104CE000FFF7ACFF06281EBF236923F001032361F1
:104CF0003423E36070BD072070BD00BFFEFF0700D6
:104D000000200240044B1A69120641BF034A5A6050
:104D100002F188325A607047002002402301674543
:104D2000024A136943F08003136170470020024078
:104D300030B585B0C0F307230190C0F30740BBB97D
:104D400009B1314B185C8DF80C008DF80D008DF811
:104D50000E009DF80C30002063F307009DF80D3025
:104D600063F30F209DF80E3063F3174005B030BD9C
:104D70009DF8042059B32449085C02EB420402EB7D
:104D80004202FF21640094FBF1F404EB4201C9B23A
:104D900013FB01F2C1F1FF01C3F1FF054B431212F6
:104DA0001B12C2F1FF02C3F1FF03454342434343D9
:104DB000C5F30725C2F30722C3F30723C0B2062CAD
:104DC0001FD8DFE804F0061114161B1E060080B27F
:104DD000D3E7294602461D460B468DF80C508DF848
:104DE0000D208DF80E30B4E72B460546F5E72A4630
:104DF000FBE72946034615460A46EEE71A460346F0
:104E0000EBE713460246E8E76CB800081FB501213E
:104E1000FFF78EFF0346DAB2002062F30700C3F308
:104E2000072262F30F20C3F3074363F3174005B073
:104E30005DF804FB70471FB5FFF7E8FF0346DAB2E1
:104E4000002062F30700C3F3072262F30F20C3F3CD
:104E5000074363F3174005B05DF804FB13B58DF805
:104E600002208DF800008DF8011000981C46FFF715
:104E7000E2FFC0F30743C0F3072262702070A37003
:104E800002B010BD962A28BF9622FFF7E7BF0000A8
:104E9000084A1378590809D1012161F347031370B7
:104EA000D378962B84BF9623D37070472429F7DDDF
:104EB0002421F2E7BC2E00200820FFF761BE08B5D0
:104EC000FFF7E6FFBDE8084001460820FFF799BE5E
:104ED000014B1868FFF7F3BFBC2E0020084B1A786F
:104EE000012142F0010261F34702FF211A7099701B
:104EF000002296215A70D97018681A71FFF7DFBF27
:104F0000BC2E0020034B1B7813F0010018BF58087B
:104F1000704700BFBC2E0020044A1379022B9CBFAF
:104F20000133137108B1FFF7D3BF7047BC2E0020C7
:104F30000120FFF7F1BF0000044A13790BB1013BD8
:104F4000137108B1FFF7C4BF704700BFBC2E00202B
:104F50000120FFF7F1BF00F0C7BD000070B5104B96
:104F6000104D1B786978104813F0010306D02B7898
:104F700003EB43031844FFF7EEFF70BDAA78EE7809
:104F800002EB42040444B24204F10304EFD20132C2
:104F900004F8023C04F8033C04F8013CD2B2F2E706
:104FA000BC2E002022130020C42E00200E4B1B78A4
:104FB000DB0770B416D50D4C0D4EA378E57803EBE6
:104FC00043043444AB4204F1030402D370BCFFF742
:104FD000C5BF013304F8020C04F8031C04F8012CCB
:104FE000DBB2EFE770BC7047BC2E0020221300201C
:104FF000C42E0020094B1B78DB0707B50AD501AB8F
:10500000FFF740FF9DF806209DF804109DF805006D
:10501000FFF7CCFF03B05DF804FB00BFBC2E0020FF
:1050200010B5064B0279064904468A5C587899788F
:10503000FFF7E0FF23790133237110BDBC2E002060
:1050400028B7000810B5054B0446DA78997800793E
:10505000FFF7D0FF23790133237110BDBC2E002050
:1050600037B5164C0546207838B901AB9622FF219A
:10507000FFF7F4FE9DF8053023702B79012B09D042
:1050800004D3022B16D00022104601E02078002223
:10509000114602E0002221781046FFF787FF2B79A6
:1050A0000322013393FBF2F202EB42029B1A2B71B3
:1050B00003B030BD002022780146EEE780250020B5
:1050C0002DE9F04F334C94F800E085B01EF0010F4D
:1050D000054688461646019320D04FEA5E032E4FC0
:1050E000DFF8C0C0FF5C8CF800700EF0FE0EBEF161
:1050F000020F16D103ABFFF7C5FE9DF80E209DF8F9
:105100000C109DF80D00FFF751FF019B657084F8AE
:105110000280E67013B12068FFF7D1FE05B0BDE84C
:10512000F08F022F01D1E678EFE7062F01D16578E5
:10513000EBE7092FFBD0192FE7D1193BDBB203F0C6
:10514000010200925B08154ADFF85C9012F803A098
:105150000027CB4699F80420FBB2934202D3FFF715
:10516000FDFED2E703FB0AF090FBF2F0009AC0B21A
:1051700072B928449BF802201344094A03EB430305
:105180001344C0B232464146FFF77CFE0137E1E7E7
:10519000281AEFE7BC2E002003B70008F0B600087D
:1051A000C42E0020822500202213002010B40549BF
:1051B0004C78CA78897808340346E0B25DF8044B2D
:1051C000FFF77EBFBC2E00200120FFF7EFBF0000DD
:1051D00010B405494C78CA788978083C0346E0B297
:1051E0005DF8044BFFF76CBFBC2E00200120FFF7D9
:1051F000EFBF000010B4074CA178E2780831FF2916
:1052000028BFFF210346C9B260785DF8044BFFF761
:1052100057BF00BFBC2E00200120FFF7EBBF0000EE
:1052200010B4064CA178E278083921EAE17103460E
:10523000C9B260785DF8044BFFF742BFBC2E002076
:105240000120FFF7EDBF000010B4074CE278A17811
:105250000832FF2A28BFFF220346D2B260785DF8E9
:10526000044BFFF72DBF00BFBC2E00200120FFF72D
:10527000EBBF000010B4064CE278A178083A22EAAD
:10528000E2720346D2B260785DF8044BFFF718BFB4
:10529000BC2E00200120FFF7EDBF0023FFF710BF59
:1052A0002DE9F041144EDFF85880144F04460025D4
:1052B0003179E8B2884205F101050CD3FFF74EFEC3
:1052C000A37813F0010F237914BF013303F1FF33E7
:1052D0002371BDE8F081B378FF2292FBF1F22179CE
:1052E000034403EB430302FB00104344FA78B9780C
:1052F000C0B2FFF7C7FDDBE722130020BC2E002061
:10530000C42E00202DE9F74F8378304E304D13F036
:10531000010F0CBF01234FF0FF3300934FF0000942
:1053200033795FFA89F843450CD8FFF717FE009BE5
:10533000012B2B7842D103B93379013B2B7003B099
:10534000BDE8F08FB378234ADFF88CB0434403EB19
:10535000430303EB020A00248AF801409C549DF8A1
:1053600000308AF80240019304272A782244D2B2FE
:1053700053B2092B1CDD092293FBF2F202EBC202AD
:105380009B1A5BB298450BD19BF803209BF8021047
:105390009BF801007A435346C2F38702FFF772FD80
:1053A000019B013F1C44E4B2DFD109F10109B7E7D9
:1053B000002BE7DA054B1B791344E2E7317901331F
:1053C00093FBF1F201FB1233B8E700BF2213002078
:1053D00081250020C42E0020BC2E00202DE9F8439A
:1053E0002B4C2C4DA378E07803EB43022A44002198
:1053F000834202F1030220D3274EDFF8A090DFF8AA
:10540000A48000272179FAB28A421FD3FFF7A6FDB4
:10541000224D23482A78017833780A4452B20B444B
:105420005BB2002A33702A7003DD2279013A93427D
:1054300001DB49420170BDE8F883013302F8021C28
:1054400002F8031C02F8011CDBB2D1E792FBF1F376
:1054500001FB1323A1780B4496F90010DBB28A42BA
:1054600003EB43030EDB99F900108A420ADC2B445C
:1054700098F8032098F8021098F80100FFF702FD51
:105480000137BFE7E91800224A70EA548A70F7E74B
:1054900022130020C42E00207F2500201F1300208F
:1054A00020130020BC2E00202DE9F0470379DFF8FF
:1054B000A080DFF8A0A013FB03F25A43C3F120033E
:1054C000552503FB03F103FB01235543B5FBF3F51E
:1054D000EDB2292D88BFC5F155044FF0020394BFEA
:1054E000A5EB8504A4EB840494FBF3F4013C06468D
:1054F000E4B20027C14698F80420FBB29A420BD8C8
:10550000FFF72CFD3379104AD3B9012111701278BD
:1055100013443371BDE8F0879A0799F802200B49CC
:10552000134458BFC5F1550003EB430354BFC0B249
:105530002846534422468978FFF7A4FC0137DAE76E
:10554000202BE4D1FF21E1E721130020BC2E002015
:1055500022130020C42E00202DE9F041154FDFF862
:105560005C80154C064600253A79954208DBFFF72A
:10557000F5FC3379013303F001033371BDE8F081A9
:10558000BB782B4403EB4303B5EB520F4344327912
:1055900007DA42B1E278A1786078FFF773FC013551
:1055A000E2E7002AF6D00022A1786078FFF756FCE7
:1055B000F5E700BF22130020BC2E0020C42E0020DF
:1055C00008B5094B1A786FF300021A701868FFF7D4
:1055D00076FC064B00224FF4FA705A7002F0C1F8C4
:1055E000BDE80840FFF7BABCBC2E00208225002091
:1055F00008B5084B084819780B224908FBF700FD4D
:1056000010B9064B01225A7001F030FA044B188091
:1056100008BD00BFBC2E00202713002082250020DB
:105620007825002010B5164C2378DA0726D5D8B98E
:10563000012262F34703237011B12068FFF73FFC9A
:10564000217810480B224908FBF7DAFC98B10E4B81
:1056500000225A700D4BA17860780122DA70E2784E
:10566000BDE81040FFF719BE242801D92422E0E745
:1056700060F34703DFE7FFF7BBFFEBE710BD00BFB9
:10568000BC2E002027130020822500207825002032
:10569000054B1B785B080133252B014634BF1846A8
:1056A0000120FFF7BFBF00BFBC2E00200120FFF785
:1056B000EFBF0000064B1B78C3F34603013B13F01A
:1056C000FF03014614BF18462420FFF7ABBF00BFFD
:1056D000BC2E00200120FFF7EDBF0121FFF7A2BF84
:1056E000034B187840F0010018704008FFF7F5BF31
:1056F000BC2E0020034B1B78DB0701D5FFF760BFF2
:10570000FFF7EEBFBC2E00200021FFF78BBF00008B
:1057100038B5124D2A78FAB9FDF7B8F918B9FDF77E
:1057200043FAFFF7DBFBFFF7C7FB0D4C10F0FE0F52
:10573000206004D1FFF7D2FBFFF7BEFB2060FFF72C
:10574000A7FB084B207800225A70C30702D54008F7
:10575000FFF7DAFF01232B7038BD00BF7E25002044
:10576000BC2E0020822500202D4B5A782DE9F041D7
:10577000002A53D01A782B4B2B4E1B78C2EB5303C5
:10578000DBB2022AB3701AD1284A294CD55CF378CF
:105790002BB10027F77001F069F9B780308001F074
:1057A00065F93388C01A80B247F6FE72904235D848
:1057B0001D44358023461C48BDE8F0411847062AA1
:1057C00003D11C4A1C4CD55CE1E7092A04D15B08D3
:1057D0001A4A1B4CD55CDAE70F2A04D15B08194A38
:1057E000194CD55CD3E7152A03D1184A184CD55C5F
:1057F000CDE7182A0FD0232A03D1164B164C1D884B
:10580000C5E7164B164C242A12BF4FF4FA654FF425
:10581000FA751C46BBE72825124CB8E7BDE8F081B5
:1058200082250020BC2E002078250020ECB6000840
:1058300021500008F8B6000845500008FBB60008E3
:10584000A152000800B7000805530008F5B600088B
:10585000DD530008FEB600086150000859550008E5
:10586000354E0008A954000800B11047084738B564
:1058700004460D46FFF746FBA04207D3FFF742FB65
:10588000A84203D2BDE83840FFF710BF2046BDE86C
:105890003840FFF722BF000038B58C780546002C51
:1058A00000F09F80FDF708F845F6CD439D4200F0DB
:1058B00022007CD035D845F6C7439D426BD015D821
:1058C00045F6C4439D425ED005D845F6C3439D428C
:1058D00055D0204638BD45F6C5439D4258D045F6C3
:1058E000C6439D42F5D1404A40494EE045F6CA4381
:1058F0009D4256D00AD845F6C8439D424ED045F643
:10590000C9439D42E5D13A4A3A493EE045F6CB4388
:105910009D4249D045F6CC439D42DAD1364A3749BB
:1059200033E045F6D2439D4250D00FD845F6CF43E1
:105930009D4243D03ED345F6D0439D4243D045F6E9
:10594000D1439D42C5D10E21092039E045F6D5430A
:105950009D4241D009D845F6D3439D4239D045F602
:10596000D4439D42B5D1182025E045F6D6439D424B
:1059700035D045F65E539D4208BF0024A9E7FFF7E6
:10598000B9FE0024A5E71E4A1E49FFF76DFFF8E7A0
:105990001C4A1B49F9E7154A1349F6E7154A144909
:1059A000F3E7194A1949F0E7184A1749EDE7134A8E
:1059B0001149EAE70120FFF790FEE2E70521022006
:1059C000FFF755FFDDE708210620F9E714210F2036
:1059D000F6E717211520F3E722211920F0E723200D
:1059E000E9E7012475E700BFED510008C95100083F
:1059F0001952000841520008514F0008314F000869
:105A0000D5560008AD560008955200086D520008A2
:105A10001D4A38B50C210023154642F823100133E6
:105A2000D82BFAD100231946EA180433B3F5607F66
:105A3000C2F86013F8D19A2202214FF0904003F08F
:105A4000DDF80023114C1A460A21012002F0F2FF72
:105A50000F4BA2695B690F4938329A604FF4DC72D0
:105A6000DD605A6043F6B0221A601A6842F0010203
:105A70001A60204602F042F8204600220121BDE8CB
:105A8000384002F04CB800BF88250020DC320020EE
:105A900054BC000828B8000830B518244443114805
:105AA00000EB84002030002441FA04F515F0010FCA
:105AB00014BF1C250C25C56142FA04F515F0010F31
:105AC00014BF1C250C2540F8045D43FA04F515F0BD
:105AD000010F04F1010414BF1C250C25082C0564DA
