:020000040800F2
:10000000000400203D0300083F0300083F030008F0
:100010003F0300083F0300083F0300083F030008B8
:100020003F0300083F0300083F030008B56F0008C6
:100030003F0300083F0300083F0300083F03000898
:100040003F0300083F0300083F0300083F03000888
:100050003F0300083F0300080179000841790008C8
:1000600085790008C97900080D7A0008DD8100084B
:10007000F181000805820008198200082D8200081D
:1000800041820008558200083F0300083F03000832
:100090003F0300083F0300083F030008517A0008AF
:1000A000557C0008697C00086D7C0008717C0008A4
:1000B000818A00089D860008958A00083984000816
:1000C000498500083F0300083F0300083F0300087C
:1000D0003F0300083F0300083F0300083F030008F8
:1000E000397B00083F0300083F0300083F03000876
:1000F000918800083F0300083F0300083F03000801
:100100003F0300083F0300083F0300083F030008C7
:100110003F0300083F030008698800087D88000845
:10012000698200087D82000891820008A58200088B
:10013000B98200083F0300083F0300083F0300089E
:100140003F0300083F0300083F0300083F03000887
:100150003F0300083F0300083F0300083F03000877
:100160003F0300083F0300083F030008E58A00083A
:100170003F0300083F0300083F0300083F03000857
:100180003F0300083F0300083F0300083F03000847
:100190003F0300083F0300083F0300083F03000837
:0801A000D5010008B1010008BF
:1001B00010B5054C237833B9044B13B10448AFF3A1
:1001C00000800123237010BD1014002000000000E7
:1001D00030B300080C4B43B10C480D4910B5AFF3D8
:1001E00000800C48036823B910BD0A48036833B97E
:1001F0007047094B002BF7D0BDE810401847064B5D
:10020000002BF5D0184700BF0000000030B30008F5
:10021000141400200C1400200000000072B63948AD
:1002200080F30888384880F3098838484EF608512A
:10023000CEF20001086040F20000CCF200004EF661
:100240003471CEF200010860BFF34F8FBFF36F8FA0
:1002500040F20000C0F2F0004EF68851CEF20001EC
:100260000860BFF34F8FBFF36F8F4FF00000E1EED8
:10027000100A4EF63C71CEF200010860062080F3B1
:100280001488BFF36F8F06F055FB06F074FA4FF039
:1002900055301F491B4A91423CBF41F8040BFAE715
:1002A0001C49194A91423CBF41F8040BFAE71A492C
:1002B0001A4A1B4B9A423EBF51F8040B42F8040BFA
:1002C000F8E700201749184A91423CBF41F8040B57
:1002D000FAE706F033FB06F02EFB144C144DAC424B
:1002E00003DA54F8041B8847F9E702F0F5FE114CD5
:1002F000114DAC4203DA54F8041B8847F9E706F0C5
:100300001BBB000000040020000C002000000008BF
:10031000000000200004002030B30008000C002082
:100320000C1400201014002074330020A0010008D9
:10033000A4010008A4010008A80100086EE700F06D
:1003400000F8FEE72DE9F04F2DED108AC1F80CD032
:10035000C3689D46BDEC108ABDE8F08F002383F38F
:1003600011882846A047002006F094FDFEE706F01D
:10037000F9FC00DFFEE7000081F0004102E000BF71
:1003800083F0004330B54FEA41044FEA430594EA55
:10039000050F08BF90EA020F1FBF54EA000C55EA90
:1003A000020C7FEA645C7FEA655C00F0E2804FEA61
:1003B0005454D4EB5555B8BF6D420CDD2C4480EA43
:1003C000020281EA030382EA000083EA010180EA73
:1003D000020281EA0303362D88BF30BD11F0004FC1
:1003E0004FEA01314FF4801C4CEA113102D04042F7
:1003F00061EB410113F0004F4FEA03334CEA133332
:1004000002D0524263EB430394EA050F00F0A78049
:10041000A4F10104D5F1200E0DDB02FA0EFC22FA44
:1004200005F2801841F1000103FA0EF2801843FA38
:1004300005F359410EE0A5F120050EF1200E012A29
:1004400003FA0EFC28BF4CF0020C43FA05F3C01867
:1004500051EBE37101F0004507D54FF0000EDCF1E0
:10046000000C7EEB00006EEB0101B1F5801F1BD389
:10047000B1F5001F0CD349085FEA30004FEA3C0C8D
:1004800004F101044FEA445212F5800F80F09A8083
:10049000BCF1004F08BF5FEA500C50F1000041EB87
:1004A000045141EA050130BD5FEA4C0C404141EB8B
:1004B000010111F4801FA4F10104E9D191F0000FB2
:1004C00004BF01460020B1FA81F308BF2033A3F135
:1004D0000B03B3F120020CDA0C3208DD02F1140C2C
:1004E000C2F10C0201FA0CF021FA02F10CE002F167
:1004F0001402D8BFC2F1200C01FA02F120FA0CFC60
:10050000DCBF41EA0C019040E41AA2BF01EB0451A8
:10051000294330BD6FEA04041F3C1CDA0C340EDCA6
:1005200004F11404C4F1200220FA04F001FA02F3E9
:1005300040EA030021FA04F345EA030130BDC4F1A7
:100540000C04C4F1200220FA02F001FA04F340EA9C
:100550000300294630BD21FA04F0294630BD94F04D
:10056000000F83F4801306BF81F480110134013D34
:100570004EE77FEA645C18BF7FEA655C29D094EAA5
:10058000050F08BF90EA020F05D054EA000C04BF23
:100590001946104630BD91EA030F1EBF002100200E
:1005A00030BD5FEA545C05D14000494128BF41F0AD
:1005B000004130BD14F580043CBF01F5801130BD11
:1005C00001F0004545F0FE4141F470014FF000009C
:1005D00030BD7FEA645C1ABF194610467FEA655C4D
:1005E0001CBF0B46024650EA013406BF52EA0335EF
:1005F00091EA030F41F4002130BD00BF90F0000FDD
:1006000004BF0021704730B54FF4806404F1320418
:100610004FF000054FF0000150E700BF90F0000FD1
:1006200004BF0021704730B54FF4806404F13204F8
:1006300010F0004548BF40424FF000013EE700BFC8
:1006400042004FEAE2014FEA31014FEA02701FBF58
:1006500012F07F4393F07F4F81F06051704792F02A
:10066000000F14BF93F07F4F704730B54FF46074A4
:1006700001F0004521F0004120E700BF50EA0102EF
:1006800008BF704730B54FF000050AE050EA01029C
:1006900008BF704730B511F0004502D5404261EB0C
:1006A00041014FF4806404F132045FEA915C3FF44D
:1006B000DCAE4FF003025FEADC0C18BF03325FEAE6
:1006C000DC0C18BF033202EBDC02C2F1200300FA9B
:1006D00003FC20FA02F001FA03FE40EA0E0021FAC0
:1006E00002F11444C1E600BF70B54FF0FF0C4CF4AA
:1006F000E06C1CEA11541DBF1CEA135594EA0C0F60
:1007000095EA0C0F00F0DEF82C4481EA030621EA9A
:100710004C5123EA4C5350EA013518BF52EA0335D5
:1007200041F4801143F4801338D0A0FB02CE4FF087
:100730000005E1FB02E506F00042E0FB03E54FF0B7
:100740000006E1FB03569CF0000F18BF4EF0010EAF
:10075000A4F1FF04B6F5007F64F5407404D25FEAAB
:100760004E0E6D4146EB060642EAC62141EA55515E
:100770004FEAC52040EA5E504FEACE2EB4F1FD0CA0
:1007800088BFBCF5E06F1ED8BEF1004F08BF5FEA1E
:10079000500E50F1000041EB045170BD06F00046D0
:1007A00046EA010140EA020081EA0301B4EB5C047D
:1007B000C2BFD4EB0C0541EA045170BD41F4801175
:1007C0004FF0000E013C00F3AB8014F1360FDEBF9A
:1007D000002001F0004170BDC4F10004203C35DA76
:1007E0000C341BDC04F11404C4F1200500FA05F3F9
:1007F00020FA04F001FA05F240EA020001F000429A
:1008000021F0004110EBD37021FA04F642EB06010F
:100810005EEA430E08BF20EAD37070BDC4F10C0439
:10082000C4F1200500FA04F320FA05F001FA04F2FD
:1008300040EA020001F0004110EBD37041F10001E9
:100840005EEA430E08BF20EAD37070BDC4F12005F4
:1008500000FA05F24EEA020E20FA04F301FA05F25C
:1008600043EA020321FA04F001F0004121FA04F204
:1008700020EA020000EBD3705EEA430E08BF20EAD4
:10088000D37070BD94F0000F0FD101F0004640000E
:1008900041EB010111F4801F08BF013CF7D041EA90
:1008A000060195F0000F18BF704703F00046520094
:1008B00043EB030313F4801F08BF013DF7D043EA65
:1008C0000603704794EA0C0F0CEA135518BF95EA1B
:1008D0000C0F0CD050EA410618BF52EA4306D1D1A2
:1008E00081EA030101F000414FF0000070BD50EAC1
:1008F000410606BF1046194652EA430619D094EA4B
:100900000C0F02D150EA013613D195EA0C0F05D134
:1009100052EA03361CBF104619460AD181EA030188
:1009200001F0004141F0FE4141F470014FF0000040
:1009300070BD41F0FE4141F4780170BD70B54FF0DB
:10094000FF0C4CF4E06C1CEA11541DBF1CEA13555B
:1009500094EA0C0F95EA0C0F00F0A7F8A4EB05043D
:1009600081EA030E52EA03354FEA013100F0888034
:100970004FEA03334FF0805545EA131343EA1263FD
:100980004FEA022245EA111545EA10654FEA0026B2
:100990000EF000419D4208BF964244F1FD0404F56B
:1009A000407402D25B084FEA3202B61A65EB0305C7
:1009B0005B084FEA32024FF480104FF4002CB6EB84
:1009C000020E75EB030E22BFB61A754640EA0C0004
:1009D0005B084FEA3202B6EB020E75EB030E22BF44
:1009E000B61A754640EA5C005B084FEA3202B6EB85
:1009F000020E75EB030E22BFB61A754640EA9C0044
:100A00005B084FEA3202B6EB020E75EB030E22BF13
:100A1000B61A754640EADC0055EA060E18D04FEAD1
:100A2000051545EA16754FEA06164FEAC30343EA71
:100A300052734FEAC2025FEA1C1CC0D111F4801F3E
:100A40000BD141EA00014FF000004FF0004CB6E737
:100A500011F4801F04BF01430020B4F1FD0C88BFD6
:100A6000BCF5E06F3FF6AFAEB5EB030C04BFB6EBE1
:100A7000020C5FEA500C50F1000041EB045170BDD4
:100A80000EF0004E4EEA113114EB5C04C2BFD4EB01
:100A90000C0541EA045170BD41F480114FF0000E85
:100AA000013C90E645EA060E8DE60CEA135594EA01
:100AB0000C0F08BF95EA0C0F3FF43BAF94EA0C0F04
:100AC0000AD150EA01347FF434AF95EA0C0F7FF479
:100AD00025AF104619462CE795EA0C0F06D152EACD
:100AE00003353FF4FDAE1046194622E750EA4106B1
:100AF00018BF52EA43067FF4C5AE50EA41047FF4C2
:100B00000DAF52EA43057FF4EBAE12E74FF0FF3C26
:100B100006E000BF4FF0010C02E000BF4FF0010CF7
:100B20004DF804CD4FEA410C7FEA6C5C4FEA430C70
:100B300018BF7FEA6C5C1BD001B050EA410C0CBFBF
:100B400052EA430C91EA030F02BF90EA020F002021
:100B5000704710F1000F91EA030F58BF994208BF88
:100B600090422CBFD8176FEAE37040F00100704745
:100B70004FEA410C7FEA6C5C02D150EA013C07D19C
:100B80004FEA430C7FEA6C5CD6D152EA033CD3D0E7
:100B90005DF8040B704700BF8446104662468C46E1
:100BA0001946634600E000BF01B5FFF7B7FF002814
:100BB00048BF10F1000F01BD4DF808EDFFF7F4FF3D
:100BC0000CBF012000205DF808FB00BF4DF808EDC8
:100BD000FFF7EAFF34BF012000205DF808FB00BFEB
:100BE0004DF808EDFFF7E0FF94BF012000205DF80D
:100BF00008FB00BF4DF808EDFFF7CEFF94BF0120C2
:100C000000205DF808FB00BF4DF808EDFFF7C4FFBA
:100C100034BF012000205DF808FB00BF4FEA410C03
:100C20007FEA6C5C02D150EA013C0AD14FEA430CE6
:100C30007FEA6C5C02D152EA033C02D14FF0000023
:100C400070474FF0010070474FEA4102B2F1E043B4
:100C500024BFB3F5001CDCF1FE5C0DD901F0004CA3
:100C60004FEAC0024CEA5070B2F1004F40EB8300F3
:100C700008BF20F00100704711F0804F21D113F11F
:100C80003872BCBF01F00040704741F480114FEA58
:100C90005252C2F11802C2F1200C10FA0CF320FAE1
:100CA00002F018BF40F001004FEAC1234FEAD323FE
:100CB00003FA0CFC40EA0C0023FA02F34FEA430368
:100CC000CCE77FEA625307D150EA01331EBF4FF0F1
:100CD000FE4040F44000704701F0004040F0FE400C
:100CE00040F40000704700BF53B94AB9002908BF5B
:100CF00000281CBF4FF0FF314FF0FF3000F07AB9F1
:100D0000ADF1080C6DE904CE00F006F8DDF804E062
:100D1000DDE9022304B070472DE9F0478C460D460B
:100D20000446089E002B51D18A4217466DD9B2FA6B
:100D300082FEBEF1000F0BD0CEF1200C01FA0EF5B1
:100D400020FA0CFC02FA0EF74CEA050C00FA0EF43D
:100D50004FEA174A250CBCFBFAF81FFA87F90AFB81
:100D600018CC45EA0C4508FB09F3AB420AD9ED194A
:100D700008F1FF3280F02381AB4240F22081A8F1DC
:100D800002083D44ED1AA4B2B5FBFAF00AFB105577
:100D900044EA054400FB09F9A14509D9E41900F129
:100DA000FF3380F00A81A14540F2078102383C44BC
:100DB000A4EB090440EA08400021002E61D024FA87
:100DC0000EF4002334607360BDE8F0878B4207D9CE
:100DD000002E54D0002186E821000846BDE8F087A7
:100DE000B3FA83F1002940F08E80AB4202D38242F5
:100DF00000F2FA80841A65EB03050120AC46002E50
:100E00003FD086E81010BDE8F08712B90127B7FB84
:100E1000F2F7B7FA87FEBEF1000F34D1EB1B3A0CA4
:100E20001FFA87FC0121B3FBF2F8250C02FB1833F3
:100E300045EA03450CFB08F3AB4207D9ED1908F16D
:100E4000FF3002D2AB4200F2D1808046ED1AA3B24D
:100E5000B5FBF2F002FB105543EA05440CFB00FC25
:100E6000A44507D9E41900F1FF3302D2A44500F2EA
:100E7000B8801846A4EB0C0440EA08409DE73146D0
:100E80003046BDE8F087CEF1200405FA0EF307FAEC
:100E90000EF720FA04F83A0C25FA04F448EA03089D
:100EA000B4FBF2F14FEA184502FB11441FFA87FC2C
:100EB00045EA044501FB0CF3AB4200FA0EF409D9F4
:100EC000ED1901F1FF3080F08A80AB4240F287805B
:100ED00002393D44EB1A1FFA88F5B3FBF2F002FB2E
:100EE000103345EA034500FB0CF3AB4207D9ED197B
:100EF00000F1FF386FD2AB426DD902383D44EB1A96
:100F000040EA01418FE7C1F1200722FA07F88B4040
:100F100005FA01F448EA030320FA07FE4FEA134CEE
:100F2000FD404EEA040EB5FBFCF94FEA1E440CFBF3
:100F300019551FFA83F844EA054509FB08F4AC4249
:100F400002FA01F200FA01FA08D9ED1809F1FF30AE
:100F500043D2AC4241D9A9F102091D442D1B1FFA0D
:100F60008EFEB5FBFCF00CFB10554EEA054400FB71
:100F700008F8A04507D9E41800F1FF3529D2A045AB
:100F800027D902381C4440EA0940A4EB0804A0FB1E
:100F900002894C45C6464D4615D312D056B1BAEB20
:100FA0000E0364EB050404FA07F7CB401F43CC4063
:100FB000376074600021BDE8F0871846F8E6904677
:100FC000E0E6C245EAD2B8EB020E69EB0305013850
:100FD000E4E72846D7E7404691E78146BEE7014669
:100FE00078E702383C4445E7084608E7A8F10208DC
:100FF0003D442BE7704700BF0000000000000000E8
:1010000001F0FF01102A2BDB10F0070F08D010F8B9
:10101000013B013A8B422DD010F0070F42B3F6D1BD
:10102000F0B441EA012141EA014122F007047FF0D6
:1010300000070023F0E80256083C85EA010586EA2D
:10104000010685FA47F5A3FA87F586FA47F6A5FA69
:1010500087F68EB9EED1F0BC01F0FF0102F0070275
:1010600032B110F8013B013A83EA010313B1F8D120
:101070000020704701387047002D06BF3546033801
:10108000073815F0010F07D1013015F4807F02BF3A
:10109000013015F4C03F0130F0BC0138704700BF8B
:1010A000082823D8DFE800F02D05070A0F14191EC1
:1010B000200001207047144B18787047134B1878A4
:1010C00000F001007047114B1878C0F340007047E2
:1010D0000E4B1878C0F3800070470C4B1878C0F3A3
:1010E000C00070470A4BEAE7094BEDE701230938D6
:1010F00003FA00F0074B1B68184214BF01200020C0
:1011000070470020704700BF2C14002034140020CA
:101110002D1400203014002070B5294A294C107875
:10112000FFF7BEFF06465078FFF7BAFF05469078F6
:10113000FFF7B6FF0146D078FFF7B2FF22781ABB5F
:10114000214B334403EB450303EB81031F4D13F89D
:1011500030002B782BB91E4E3178013101F003019C
:1011600031700133032193FBF1F101EB41015B1A73
:1011700018492B700B78013303F00F030B70164BDB
:10118000196800EB4100186014490132087802F038
:1011900001022270FFF784FF02464878FFF780FFC4
:1011A00004468878FFF77CFF800000EB440002448F
:1011B000C878D2B2FFF774FF02EBC000C0B270BDB6
:1011C000040C00202C140020080C00202E140020F9
:1011D0002D1400203414002030140020000C0020B6
:1011E00003230222012100F041B90000A0F5BA401A
:1011F000633808B504282DD8DFE800F0030A141C72
:101200002400887838B3002000F01AF9002008BDC7
:10121000887800B302F0E2F80F4800221C2102F0A7
:1012200067FAF3E78878B0B102F0D8F800222C21F1
:101230000A48F4E7887870B102F0D0F8002209215A
:101240000748ECE7887830B102F0C8F8002207219F
:101250000448E4E7012008BD880D0020280C002088
:10126000A00E0020680E00200A4B10B518680C462E
:1012700000F0BBF920B1022806D84CB1AB2001E048
:1012800024B1A92000F001FB012010BDAA20F9E73C
:10129000AC20F7E74414002070B5204B204D1C789B
:1012A0002B888AB0002C33D03BBB1E4B01AA03F124
:1012B000200618685968144603C40833B34222460E
:1012C000F7D119889B78A3702180FFF725FF0AAB1F
:1012D0001844154B10F8244C1B78144E1C443078DD
:1012E000E4B2844209D001F003FF02F0CDF82046B9
:1012F00001F0FEFE02F0B0F934700D4A2B8811881F
:10130000013393FBF1F201FB12332B800AB070BD65
:10131000002BFBD002F062F82C80F7E73814002095
:101320003614002020A50008240C002035140020CD
:10133000260C002008B518B1012809D0012008BDED
:10134000032011B100F060FDF8E700F067FDF5E75C
:101350000029024B18BF01461970EFE7381400202E
:1013600038B50546642005F09AFD02F079F90A4C7B
:1013700050B915F0020209D0227812F0020203D10E
:101380000648192102F0B4F9257038BD23789B076F
:10139000FAD50A210248F5E739140020380F002059
:1013A000E80E00200120704708B5FFF71FFF08BDB9
:1013B000704708B5FFF7FCFF08BD000013B502AB8E
:1013C00003E903000F4B1B78B3B99DF80230009876
:1013D00073B16AB100F098FD04460146009800F030
:1013E0004DFD0099204602B0BDE8104001F05ABB07
:1013F00000F06AFD0446F4E7009800F085FD0099CE
:10140000F1E700BF3D140020034600890A4618B9E1
:1014100018689988FFF7D2BF704710B501210446BC
:10142000FFF7F2FF2146BDE8104004F0CFBB10B536
:1014300000210446FFF7E8FF2146FFF7BAFF10BD81
:1014400038B505460848012400EBC510AC40002221
:10145000102102F04DF9E0B201F0D4F92046BDE8C8
:10146000384000F09EBC00BF0010002010B50124E1
:1014700004FA02F204FA01F1114304FA03F331EA27
:1014800000020CBF1843984310BD08B501F0F6FCEC
:1014900000F0CFF801F0CCFFBDE8084001F00FBD2F
:1014A00038B50F4C23782BB90E4D288868B904F055
:1014B000A1FE288002F04EFC04F03AFB002003F06D
:1014C000A1FFBDE8384001F0FEBC04F098FEB0F585
:1014D000967FEFD902F06CF901232370EAE700BF91
:1014E0003C1400203A1400207047000010B500F0B2
:1014F000FDFB02F0F3FB04F07DFE00220446032115
:10150000094802F0F5F8FFF7EFFF204604F077FEF8
:10151000F92805D901F062FFBDE8104004F07CBE57
:101520000A2005F0BCFCF0E78010002038B501214E
:101530000546FFF769FF2946044601F0F5FE08B9A4
:10154000002038BD29462046FFF72EFF0028F7D09F
:101550002946204601F0F2FD0028F1D02946204618
:1015600002F05AFC0028EBD02946204603F0FEFF8B
:101570000028E5D02946204604F048F80028DFD0AE
:101580002946204604F08AF90028D9D02946204669
:1015900003F07EFD0028D3D0AB785BB145F65B53FA
:1015A0009C421CD00AD8B4F5B84F12D045F6DF43A0
:1015B0009C4211D02846FFF7F5FE38BD45F65C5336
:1015C0009C420FD045F65D539C42F3D101F010F8D8
:1015D000F0E7FFF78BFFB3E701F092F9B0E701F016
:1015E00011F8E7E701F011F8E4E7030C002B16BF50
:1015F000184600231023020A1CBF104608330209B4
:101600001EBF04331046DBB282081EBF02331046F1
:10161000DBB242081CBF0133DBB21846704708B585
:10162000FFF79EFE08BD0120704708B5FFF7FBFFDE
:1016300008BD704710B50446FFF7F1FF2046FFF7DD
:10164000F4FF10BD30B587B08DE803009DF802307F
:101650006D460BB101F008F803AC002363602381F1
:1016600095E80300ADF8101089B20390ADF80800BA
:1016700021B182B24FF6FF739A4205D194E8070078
:1016800000F014FF07B030BD2046FFF7C6FE00286B
:10169000F4D1F7E708B5008800F058FC08BD000059
:1016A00038B50446002876D0822816D104F000FC14
:1016B000810770D4384C3921206804F0BFFC01F058
:1016C00019F84FF47A7005F0EAFB3921206804F02C
:1016D000CFFCBDE8384001F00DB8832810D104F0EC
:1016E000E7FBC20757D42C4C5321206804F0A6FC1A
:1016F00001F000F84FF47A7005F0D1FB5321E5E7D3
:10170000842810D104F0D4FB430744D4224C472151
:10171000206804F093FC00F0EDFF4FF47A7005F0C0
:10172000BEFB4721D2E7031FDBB2A02B10D81A4D16
:101730000146286804F01AFC28B12146286804F004
:1017400097FC00F0D7FF2146286804F077FCC0E73B
:1017500000F12003DBB2072B07D800F007040120BB
:10176000A040C0B200F05AFFB3E700F15B03DBB268
:10177000022B05D8094AD05CBDE8384004F0B8BB5C
:101780005834E4B2162C06D8054B33F81400BDE8E3
:10179000384004F0BDBB38BD981000208AA700086F
:1017A0008EA7000810B500285BD0822812D104F063
:1017B0007FFB810755D52B4C3921206804F03EFC76
:1017C00000F098FF3921206804F052FCBDE8104079
:1017D00000F090BF83280CD104F06AFBC20740D50B
:1017E000204C5321206804F029FC00F083FF532192
:1017F000E9E784280CD104F05BFB430731D5194C91
:101800004721206804F01AFC00F074FF4721DAE752
:10181000031FDBB2A02B03D8124B01461868D3E795
:1018200000F12003DBB2072B08D8012300F00700EA
:1018300003FA00F0C0B200F0F9FEC7E700F15B0365
:10184000DBB2022B04D80020BDE8104004F050BBEE
:101850005830C0B2162804D80020BDE8104004F06B
:1018600057BB10BD9810002038B505460C46FFF751
:1018700017FF24B92846BDE83840FFF793BF0A2078
:10188000013C05F00CFBA4B2F3E739280CBF502152
:101890000A21FFF7E9BF08B528B100F0BFFEBDE897
:1018A000084000F027BF08BD08B528B100F0BEFE13
:1018B000BDE8084000F01EBF08BD2DE9F04790F8D4
:1018C00006A0857807460C4600F078FE4FEA1A1A03
:1018D0008046A8B1A8469DB1C4F3072303F0F003E6
:1018E000402B04D004F12003DBB2072B1FD90220C8
:1018F00000F050FF00F062FE80F001005FFA80F817
:10190000C4F30339B9F10F0F42D8DFE819F013001F
:1019100013004A004A009F00410041004100CB00F3
:101920002301350135018A014100410093014FF047
:101930000008E5E7C4F3072313F0F00F16BF2609EC
:10194000C4F3032606F0F006E4B295B156B104F1F3
:101950002003DBB2072B304600D93CB900F05EFE15
:1019600000F0C8FE2046FFF79BFE11E000F06CFE81
:10197000F6E72046FFF716FF56B104F12003DBB26D
:10198000072B304600D94CB900F050FE00F0B2FEF3
:10199000A9F10809B9F1030F68D8A1E000F05CFED5
:1019A000F4E7C4F3072303F0F003202B14BF260948
:1019B000C4F30326E4B218BF06F0F00664B1012CAC
:1019C0002CD0ADB3BAF1000F2CD0BB79D907C9D553
:1019D0006FF30713BB7125E09DB1BAF1000F06D17B
:1019E00000F05EFE3043C0B2FFF755FFD0E7BAF11A
:1019F000010FF5D100F054FE3043C0B200F05CFEA0
:101A0000C6E7BAF1000F05D100F068FE3046FFF7D7
:101A10004BFFBDE7BAF1010FF6D1B9E725B1BAF135
:101A2000050FB5D83046DFE7BAF1040FB0D8EDE7BF
:101A3000BAF1000FEAD0392C0CBF4FF44870642083
:101A400005F02DFA2046FFF7ADFEA1E7C4F3812390
:101A50003BB1012B9CD11DB3C4F3090004F058FA2B
:101A600004E0DDB1C4F3090004F042FAB8F1000F5C
:101A700000F0E78000F09AFD10F0010040F0E180F6
:101A8000B87000F08BFD00F0BFF9384600F0F0F8B8
:101A900000F084FDBDE8F04700F0C0B92846E3E758
:101AA0002846DBE714F4407F28D1CDB9C4F34210B7
:101AB000E2064FEA800048BF0F25C0B248BF85400C
:101AC00004F00F03C4F3812448BFED438340022C8C
:101AD00045EA03000CD00ED8012C06D000F06CF9BA
:101AE00004F0E6F9FFF7A6FDC0E700F05DF9F7E7BF
:101AF00000F06AF9F4E700F054F9F1E7F5B1C4F346
:101B00000023002BECD0C4F342108000C3B204F0D9
:101B10000F0000FA03F214F010001CBF0F209840D1
:101B2000C4F3812418BFC043022C40EA02000BD04A
:101B30000DD8012C05D000F08FF9D1E7C4F3402374
:101B4000DFE700F081F9CBE700F08EF9C8E700F09D
:101B500047F9C5E7E6B23DB1C4F3032000F054F9FC
:101B60003046FFF798FEBBE73046FFF79DFEC4F313
:101B7000032000F053F9B3E7E6B2A6F1F003042B1B
:101B80003DD8DFE803F00310161D260045B1BAF179
:101B9000040F3FF6FDAEC4F3042000F04BF9F7E666
:101BA000BAF1050FF5E735B1C4F3042000F02CF9C4
:101BB000EEE6002DF8D0C4F3042000F02FF9E7E69C
:101BC00025B1C4F3042000F01AF9E1E600F014F99D
:101BD000DEE64DB1C4F30424204600F015F90321DC
:101BE000204600F0B3FDD3E6012000F0D3FDBAF1AA
:101BF000010F7FF6CDAE022000F0CCFDC8E625B186
:101C0000BAF1000FD0D03046ADE6BAF1000FD2D015
:101C1000392E0CBF4FF44870642005F040F930466F
:101C200011E7C4F30322E1B2384600F037FF00F0B9
:101C3000B9F91BE7C4F30322E1B2384600F030FFE4
:101C400014E7BDE8F08738B50446008958B100F0C4
:101C500041FF054600F010F900F0A2F829462046A1
:101C6000FFF72BFE38BD2188A07800F07BF9F0E764
:101C700013B583880288ADF804200446CBB1BDF8C3
:101C800004204FF6FF739A4213D0FFF74FFC50B970
:101C900000F094FC68B1A3785BB1022002B0BDE80B
:101CA000104000F077BD2046FFF7CDFF2046FFF73C
:101CB000BEFB02B010BD08B5002004F019F90020E9
:101CC00004F026F900F0D0FC00F0E4FCBDE8084088
:101CD00000F010BD08B5044B186804F0E3F9BDE846
:101CE0000840FFF7E8BF00BF9810002008B500F0DB
:101CF000A5FCBDE80840FFF7EDBFC0F303330E338A
:101D000003F00F020D2A0CD80123934013F4105F47
:101D1000C1B217D140F20330184004D113F01003C0
:101D20000BD100207047F02902D003D8E729F8D85A
:101D300001207047F429F4D1FAE7E729F8D9F1290D
:101D4000F6D07047C0F3C020704708B5034600893D
:101D500020B100F0BFFEFFF7D0FF08BD188800F0EB
:101D6000F5F8F8E782B002AB03E9030002B0704770
:101D700084B004AB03E9070004B07047704708B5AE
:101D8000FFF7FCFF08BD000008B5FFF7F8FF034BA5
:101D90001860BDE80840FFF78EBF00BF4014002068
:101DA0007047FFF7F1BF0000024B1B681843FFF7B5
:101DB000EBBF00BF40140020024B1B681840FFF728
:101DC000E3BF00BF40140020024B1B685840FFF7E0
:101DD000DBBF00BF4014002008B5FFF701FA08BDC3
:101DE00008B5FFF7F9FF034B1860BDE80840FFF79F
:101DF00062BF00BF441400200020FFF7F1BF0123A1
:101E000003FA00F0FFF7ECBF012303FA00F0024BE6
:101E10001B681843FFF7E4BF44140020012303FAB2
:101E200000F0034B1B6823EA0000FFF7D9BF00BF97
:101E300044140020012303FA00F0024B1B685840B1
:101E4000FFF7CEBF44140020024B1B681843FFF776
:101E5000C7BF00BF44140020024B1B681840FFF7A7
:101E6000BFBF00BF44140020024B1B685840FFF75F
:101E7000B7BF00BF4414002070470000C0F3072321
:101E800003EB430300EB430303F0FF0337B503F019
:101E9000070201209040DB080A4A03EB8303C0B22B
:101EA000134400245D7821FA04F242F300026A40F0
:101EB000024001346A40052C03F8012FF2D103B02F
:101EC00030BD00BF47140020C0F3072303EB4303DA
:101ED00013B500EB430000F0FF0000F007040949D0
:101EE000C00800EB80000022014410468B5CE340F8
:101EF00003F00103934001321843052AC0B2F5D123
:101F000002B010BD481400200E4B73B51E680E4B76
:101F1000ADF804001B681F241E4326FA04F3DB07F8
:101F200006D414F1FF34F8D20025284602B070BD63
:101F3000E5B20199284600F099FE80B20128F0D060
:101F4000F3E700BF441400204014002007B5ADF8AB
:101F500004000198FFF7D8FF019900F087FE03B055
:101F60005DF804FB13B50E4BADF804101B7823B1DC
:101F70000198FFF7EBFF02B010BD60B10198FFF7C9
:101F8000C3FF044601460198FFF778FF01992046F8
:101F900000F06CFEEFE70198FFF796FF0446F5E7C7
:101FA0003D140020F8B50346002853D00025012633
:101FB0001878732803F1010406D8042820D20128D8
:101FC0000AD002281FD0F8BD752835D02AD3A0F139
:101FD00084036F2B33D9F8BD9C1C5B7803F120027E
:101FE000D2B2072A0BD803F007039840C0B200F022
:101FF00041FB00F07FFB2F4637BB2346D8E718464E
:10200000FFF74EFBF7E758789C1C00F12003DBB28A
:10201000072B16D800F0070006FA00F0C0B200F057
:1020200031FBE6E75F789C1C002FE4D00A20013FDB
:1020300004F035FFFFB2F7E79C1C5D78DBE700F0AA
:102040007F00FFF7AFFBD6E70A20013F04F027FF30
:10205000FFB2D1E7F8BD0000F8B50A4B0A4D1C7875
:102060000A4E0A272B78A34200D1F8BD07FB046370
:102070000134186859681A89FFF77AFE04F00704DA
:10208000F0E700BFCB140020CA1400207A1400200F
:10209000024B186859681A89FFF76ABE701400204D
:1020A000244B2DE9F7439A7912090ED19A7862B13F
:1020B000214ADFF88CE0127820484FF6FF7C4FF081
:1020C0000A089EF80010914202D103B0BDE8F083E7
:1020D0009C885CB319785E788DF804108DF80560E3
:1020E000BDF80450654521D008FB02F5471997F863
:1020F0000190B1451AD1455D8D4217D1B978A9B982
:10210000B988091B89B2C72910D8997909480122D1
:1021100062F307119971BB7962F30713BB71FFF783
:10212000A7FD03B0BDE8F043FFF796BF013202F010
:102130000702C6E770140020CB1400207A14002098
:10214000CA1400202DE9F047B84F90B00446BB8870
:102150000068089038882178627894F80280B4F892
:1021600004A0ADF804000DF1200E3D46002B00F058
:102170001D8186B24FF6FF7C664500F0178197F807
:102180000290B9F1000F00F01181AAEB03039BB29A
:10219000C72BBB7900F2BF8013F0F00F76D16645F4
:1021A0001AD03E882088864216D13E8920898642F0
:1021B00012D14646B8F1000F0ED1012262F3071387
:1021C000BB71FFF765FF3846FFF752FDBB79A3717E
:1021D000304610B0BDE8F0874646BAF1000F4CD04B
:1021E0008DF81C108DF81D20BDF81C004FF6FF73F4
:1021F000984242D0002E43D18D4B8E481B7890F8E8
:1022000000E08D4F4FF00A0C73450FD18DF821205F
:102210008DF820100898FFF799FEC0F30332C3B27F
:10222000032A1DD8DFE802F0131321210CFB03F56C
:10223000781990F80180904505D17D5D8D4202D1DD
:1022400080780028C4D1013303F00703DCE710F4E1
:10225000706F01D0002BBBD02033DBB2072BB7D976
:102260002046FFF705FD4E46B2E710F4706FF3D03D
:10227000A27912F0F00FEFD1AAE7B8F1000FA7D0C2
:10228000AB7943F00103AB710026A1E780B2604552
:1022900017D039882288914213D1398922899142F5
:1022A0000FD1B8F1000F0CD1A3712046FFF7E0FC6D
:1022B00023683B6063687B6023893B81FFF7E8FE0E
:1022C000D1E72046FFF741FD08B3B8F1000F1ED05B
:1022D000AB791F2B0FD92A88ADF828208DF82E3026
:1022E00000222B898DF82A20ADF82CA0ADF83030D3
:1022F0000AA8FFF7BDFC23682B6063686B60238925
:102300002B81FFF7CDFEFFF7C3FE012660E72046D5
:10231000FFF7AEFCF9E713F0F00614D18DF8212099
:102320008DF82280ADF824A08DF820109EE80300DF
:10233000FFF718FD3846FFF79BFC3E607E603E814C
:10234000FFF7A6FE44E780B2604515D039882288A1
:10235000914211D13989228991420DD1B8F1000FF2
:102360000AD1A3712046FFF783FCC7F80080C7F8A5
:102370000480A7F8088076E72046FFF7E6FC0028EF
:10238000C5D0B8F1000FC2D0AB791F2BB3D92A88C2
:10239000ADF834208DF83A3000222B898DF83620A4
:1023A000ADF838A0ADF83C300DA8A2E72888ADF80C
:1023B0001400002B60D086B24FF6FF77BE425BD090
:1023C000AE78002E58D1AAEB03039BB2C72B43D89B
:1023D0004646002E9BD080B2B8422FD02A88238850
:1023E0009A422BD12A8923899A4227D1AB79DA07DD
:1023F00014D41B0912D0AB79A3711A090F2A1EBF7E
:10240000013262F30713A3712046FFF731FC236802
:102410002B6063686B6023892B8191E723682B60B5
:1024200063686B6023892B81D2E600BF70140020A3
:10243000CB140020CA1400207A1400202046FFF795
:1024400084FC00287FF457AFAB79204643F00103AA
:10245000AB71FFF70DFCBBE68DF82280ADF824A030
:102460008DF820108DF821209EE80300FFF77AFCFC
:102470002E606E602E8163E7B8F1000F3FF447AF26
:102480002046FFF762FC064600283FF440AF236871
:102490002B6063686B60238903482B81FFF7FAF890
:1024A000FFF7FEFD4CE700BF70140020F0B58BB0C5
:1024B00001AC84E807002046FFF744FE334F344E5A
:1024C0000546B8B1BDF80830BDF80420ADF81420B9
:1024D00043B192B24FF6FF739A4203D094E80700DB
:1024E000FFF746FC2B4C0A2530783B7883422DD1F0
:1024F0000BB0F0BD94E8070007AB03C3BDF80810AC
:102500001A80BDF81C30ADF818300029EAD09AB214
:102510004FF6FF739A42E5D03B7830785A1C02F0B0
:102520000702824228D00A245C43ADF8201007AB92
:1025300003CBDFF860E01B884EF804000EEB0405C7
:102540003A7069602B81FFF787FDCBE700EB8000D5
:1025500004EB4000FFF7F6FD0028C9D0337805FBF7
:102560000343186859681A89FFF702FC337801336E
:1025700003F007033370B7E7FFF7B8FB064B3D7076
:1025800035701D605D601D81B2E700BFCA14002078
:10259000CB1400207A14002070140020024B93F911
:1025A0000000C0F3C7007047ED140020024B1878FC
:1025B00000F00700704700BFED140020034B1878AF
:1025C00010F0070018BF0120704700BFED14002075
:1025D000064A5378C3F38001814205D060F3820339
:1025E0005370108800F01EB9704700BF002E002005
:1025F000034B587880F00400C0F38000FFF7E8BF79
:10260000002E00200120FFF7E3BF0020FFF7E0BF0E
:10261000014B1878704700BFEF140020024A13786E
:1026200018431070704700BFEF140020024A13785F
:1026300023EA000010707047EF140020014B0022C5
:102640001A707047EF140020024A13781843107074
:10265000704700BFF0140020024A137823EA0000FC
:1026600010707047F0140020014B00221A70704760
:10267000F0140020024A137818431070704700BF0E
:10268000EC140020024A137823EA0000107070470F
:10269000EC140020014B00221A707047EC1400204B
:1026A000014B1878704700BFEE140020704708B542
:1026B000FFF7FCFF08BD000008B5064B5B785B0721
:1026C00006D4054B1978814202D01870FFF7EFFF4E
:1026D00008BD00BF002E0020EE14002008B5044BFA
:1026E0001A781AB100201870FFF7E1FF08BD00BF8B
:1026F000EE14002010B50D4B0D491B7809780D4CD8
:102700000B430D49206809780B430C490370097885
:1027100031B10B43037003F00BFC08B1FFF7DEFF90
:102720002068BDE8104003F0CBBB00BFEF140020D1
:10273000F014002098100020EC140020EE1400206B
:10274000704708B5FFF7FCFF08BD00000A4A527841
:10275000520710B50CD4094C41EAC0012170FFF7B3
:1027600053FB94F90000C0F3C700FFF7EAFF10BD68
:10277000BDE81040FFF748BB002E0020ED140020FC
:1027800008B5034B00201870FFF7DBFF08BD00BF42
:10279000ED14002008B50C4A92F9003023EA00003D
:1027A00040B21070420702D1DBB2834203D1074B23
:1027B0005B785B0707D5C0F3C700FFF72FFBBDE8C9
:1027C0000840FFF7DDBF08BDED140020002E0020FB
:1027D00008B501F04BFD4FF6FF710020BDE8084041
:1027E00001F0D5BD08B5002001F0CEFD4FF6E9633C
:1027F000C31A5842584108BD022001F0BFBD032052
:1028000001F0BCBD0146032001F0BBBD10B50420A2
:1028100001F0B4FD0446222001F0B0FD44EA00209E
:1028200080B210BD10B5C1B20446042001F0A9FD6C
:10283000210A2220BDE8104001F0A3BD072001F0CD
:102840009DBD0146072001F09CBD01460F2001F00F
:10285000E2BD0146132001F0DEBD0020FFF7F9BF05
:1028600008B50020FFF7F1FFFFF7F7FF08BD0000F4
:1028700010B501F0FBFC4FF6E961002001F087FD87
:102880000021022001F07DFD00210320002401F041
:1028900078FD1A4B214604201C6001F072FD214690
:1028A000222001F06EFD2146052001F06AFD21463F
:1028B000062001F066FDFF21072001F062FD2146A0
:1028C000082001F0A8FD21460D2001F05AFD214607
:1028D000182001F0A0FD2146172001F052FD2146ED
:1028E0001C2001F098FD2146202001F050FD2146DA
:1028F000182001F090FDFFF7B3FF10BD4014002039
:10290000FFF7B6BF01460E2001F03BBD08B503F04E
:1029100043FC024B1860024B186008BDF8140020FD
:10292000FC14002008B503F037FC024B1860024B82
:10293000186008BDF8140020F41400207047704798
:1029400008B5FFF7FCFF08BD704708B5FFF7FCFFAF
:1029500008BD000008B5054800F070FA01F036FC2B
:10296000FFF7ECFFFFF7ECFF08BD00BF352E0008B6
:102970000120704708B5FFF7FBFF08BD704770479F
:1029800008B5FFF7FBFFFFF7FAFF08BD08B503F036
:1029900001FC00F039FB02F0B7FA02F0C3FC02F0D0
:1029A00069FDFFF7D2FF08BD2DE9F04F85B000F0BB
:1029B00041FB08B1FFF7AAFF354F0024B8465FFA84
:1029C00084F9484600F084FAE65DB042834616D1A9
:1029D00001340A2CF3D1FF238DF808308DF809302B
:1029E00000238DF80A3003F005FC40F00100ADF83B
:1029F0000C0004AB13E90300FEF724FE2AE0254B8C
:102A00001B789B0701D500F069FA002301258BEAAA
:102A1000060635425FFA83FA31D0FFF7ABFFA0B16B
:102A20001BEA050F14BF012300238DF800A08DF8C9
:102A300001908DF8023003F0DDFB40F00100ADF8AD
:102A400004009DE80300FEF7FDFD18F804305D402A
:102A500008F8045002F084FA02F082FC08B1FFF793
:102A600061FF0D4C03F024FA237883420DD003F06C
:102A70001FFA207005B0BDE8F04FFEF7DBBD013353
:102A80006D00062BEDB2C4D1A2E705B0BDE8F08F12
:102A9000011500200B1500200015002000207047B4
:102AA000704700003C225043C1F30723062202FB7B
:102AB000030353FA81F3034A32F8130082B002B0E1
:102AC000704700BFA4A50008014B33F81000704701
:102AD000EEA7000810B500F0D5F8B0F5A04F0446F9
:102AE0002DD2B0F5804F80F08880DF2817D8C0281D
:102AF00074D2A72808D8A52866D2012817D001D3F8
:102B0000042814D2002412E0BE28FBD85834E4B2C2
:102B1000544B33F8144044F48844A4B207E0B0F5B1
:102B2000005F06D2B0F5807F55D2E728EAD820466C
:102B300010BDB0F5405F57D2C0F30B0050E0B0F5C8
:102B4000AA4F1BD2B0F5A84FC3B275D2B0F5A44FAF
:102B500007D2B0F5A24F55D34AF2F10040EA032460
:102B6000E5E7B0F5A64F5DD29808012403F0030312
:102B70009C4044EA401444F40C44CEE7B0F5B24F14
:102B80000ED2B0F5B04F5CD2B0F5AC4FBAD2C0B2F5
:102B900000F0FAF8040204F4F85444F40054C6E7D0
:102BA000B0F5B44F52D3A0F5C043B3F5005FA9D23E
:102BB000C0F3042000F0E8F8E4B2000244F400544A
:102BC00000F4F8500443B2E75B34E4B2264B1C5DDA
:102BD00044F48044ABE7C0F30C04A8E7C03880B2EB
:102BE000FFF772FF0446A2E710F4006FC4B214BFEF
:102BF00044F4484444F4404499E7C0F30B0444F4DB
:102C0000204494E703F0030201249440C0F3011030
:102C100044F40C4444EA0024C3F3810344EA43131C
:102C20009CB284E79808012403F003039C4044EA23
:102C3000401444F40A4470E74AF2F40444EA0324DA
:102C400075E74AF2F00040EA042466E700F00F005E
:102C500000F09AF8C4F3031440EA042444F4104446
:102C60005BE700BFC0A70008BCA7000807B5ADF828
:102C700004100199FFF716FFFFF72CFF03B05DF872
:102C800004FB0000822825D00CD8312863D004D85A
:102C9000292859D02A2865D0704735284DD03928A1
:102CA00018D07047E32830D004D8E02819D0E228A3
:102CB00026D07047E62832D0E72835D0E42832D134
:102CC000304B5A7891072ED51B7813F0100F08BFA0
:102CD000E72012E02B4B1B7813F0030F18BFE02006
:102CE0007047284A1378D90743D4527812F0010F5D
:102CF00019D013F0100F08BFE32018BF0020704751
:102D0000204B1B7813F0040FF2E71E4A1378590783
:102D100031D45278D20730D413F0100FEDE7194BAD
:102D20001B781A07D1D47047164A1378190726D48E
:102D300052789207F0D5E420F5E7124B1B7813F098
:102D4000200F18BF292070470E4B1B7813F0200F5F
:102D500018BF352070470B4B1B7813F0400F18BF7E
:102D60002A207047074B1B7813F0400F18BF312003
:102D7000704739207047E2207047E0207047E62016
:102D8000704700BF002E0020294B1A78510707D545
:102D900000F01801082927D100F0F70040F00400E6
:102DA000110707D500F01801182926D100F0E70017
:102DB00040F014005B78D90707D500F01801082906
:102DC00024D100F0F70040F00100990707D500F08A
:102DD0001803182B23D100F0E70040F01100D306B0
:102DE00048BF00F0E700704700F01401042904BF59
:102DF00000F0FB0040F00800D2E700F014011429B5
:102E000004BF00F0EB0040F01800D3E700F0110120
:102E1000012904BF00F0FE0040F00800D5E700F0F3
:102E20001103112B04BF00F0EE0040F01800D6E7AC
:102E3000002E00200020704700207047014B1860D2
:102E4000704700BF9C100020FFF7C2BC08B500F01F
:102E5000F1F8642004F023F800F0ECF8002000F012
:102E600037F8C30705D5FFF7EFFFBDE8084003F0CB
:102E7000D3B908BD08B5FFF7E9FF08BD08B5FFF7EE
:102E8000B1FC08B9FFF73CFDFFF7B6FC084B187022
:102E9000FFF7BCFC074B1880FFF7ECFFFFF7AFFC18
:102EA000FEF77FFF044B1868BDE80840FEF794BFAB
:102EB0000B150020002E002044140020704708B598
:102EC000FFF7FCFF08BD08B5FEF7E6F908BD0000F6
:102ED000014B185C704700BF0C2E0020704701208A
:102EE00003F0DDBF00BF00BF00BF00BF00BF00BFD9
:102EF00000BF00BF00BF00BF00BF00BF00BF00BFDA
:102F000000BF00BF00BF00BF704708B5FFF7E7FF75
:102F100008BD08B5202282F31188012100F00F03BB
:102F2000994020F00F0005F0DFF9002383F31188AA
:102F300008BD000038B50B4D002455F82400421C94
:102F400001D0FFF7E6FF01340A2CF6D1064D00242C
:102F500055F82400431C01D0FFF7DBFF0134062C99
:102F6000F6D138BD08A80008F0A700082DE9F843FD
:102F7000234F0D4657F821100646481C3BD020230E
:102F800083F311884FF0010821F00F0901F00F01C0
:102F900008FA01F4214642464846A4B205F0A4F9D5
:102FA000A9F81A40002484F31188FFF79BFF154805
:102FB000234650F82320511C1FD022F00F0102F0AD
:102FC0000F02096921FA02F2D20716D408FA03F1B6
:102FD00049B201332143062BCCB2EAD157F8250080
:102FE000431C01D0FFF795FF211C18BF0121284683
:102FF000FFF78BFF7455BDE8F8830021E9E700BFB8
:1030000008A80008F0A7000808B5FFF793FF002004
:103010000649074A03464354835401300A28FAD12B
:1030200000F036F8BDE80840FEF72FBA022E002067
:103030000C2E002030B585B0002401940294ADF828
:103040000C40E1B201A80134FFF790FF0A2CF8D13F
:103050000D4D224601A9284607F0A4F9002814BF07
:103060000124002405D001AB03CB1B8828606960D4
:103070002B8123460A220549034800F00BF8FEF78E
:103080000FFA204605B030BD022E00200C2E002085
:1030900070470000F8B506460F4615460C4C2BB19C
:1030A0000123237003F078F80A4B1860237853B19A
:1030B000084B186803F0AAF8042804D90023AB428F
:1030C00002DB00232370F8BDF25CFA540133F6E70B
:1030D0000C1500201015002008B502F0FBFF03F0CE
:1030E00058FB03F059FB03F06DFBFFF749FCFAE7CF
:1030F000453807EE900AF8EEE77AB2EE087AC7EEA6
:10310000876A08B516EE900AFDF79AFA9FED080B4C
:1031100041EC110B06F030F8002251EC100B064B7D
:10312000FDF7E2FAFDF790FD00EE100A08BD00BFC2
:10313000000000000000004000807B4008B545F61C
:103140001D43984205D18B7873B300F047FB0020F4
:1031500008BD45F61E43984204D18B7823B300F096
:1031600053FBF4E745F61F43984206D18B78DBB159
:1031700000F02CF90028F2D1E7E745F62A439842FF
:1031800009D18B7883B100F093FD00220421074818
:1031900000F0AEFADBE745F62B43984204D18B787A
:1031A00013B100F08BFDF0E7012008BDA010002056
:1031B00008B5FFF79DFFBDE8084000F04DBA08B51F
:1031C000FFF796FFBDE8084000F05EB900F006B9D1
:1031D00070470000F8B5244B1B782DED048B002BB5
:1031E0003FD1224B1D78002D3BD1214B1B78DB07B3
:1031F00037D5204E9FED209AD6ED007A1F4F204CF8
:1032000077EEA78A07F0E6F807EE900AB8EEE77ABD
:10321000B7EE008A27EE097AD7ED007AF0EE486A19
:10322000E7EE276A66EEA87AC4ED027A07F0D2F8D4
:1032300007EE900AF8EEE77A97ED007A67EE897A62
:103240002A46A7EE878A20460321D6ED007A28EE8B
:10325000278A84ED048ABDEC048BBDE8F84000F0B9
:1032600047BABDEC048BF8BD2F1500202E150020A9
:10327000902E0020C010002000000030C41000205C
:10328000C8100020084B9FED097AD3ED007A67EE55
:10329000877A9FED077AF4EEC77AF1EE10FA48BF0D
:1032A000C3ED007A704700BFC01000200938983F76
:1032B0000080BB44084B9FED097AD3ED006AC6EE4F
:1032C000877A9FED077AF4EEC77AF1EE10FAC8BF5D
:1032D000C3ED007A704700BFC01000200938983F46
:1032E00000008242054A1078C0F3400383F00103D6
:1032F00063F341001070C0B2FFF7A3BA902E002014
:10330000034B187840F002001870FFF79ABA00BF1C
:10331000902E0020034B18786FF341001870C0B254
:10332000FFF78FBA902E002038B545F6204398421B
:1033300004460D460CD18B780BB1FFF7D3FF45F651
:1033400024439C4216D1AB78A3B1FFF7B3FF11E041
:1033500045F62143984205D18B78002BEFD0FFF73B
:10336000CFFFECE745F6224398421BD18B780BB197
:10337000FFF7D0FF124B1B7803F00303032B08D198
:10338000AB7833B1A4F5B8441E3C012C01D9FFF74A
:1033900021FF012038BDAB78002BEBD0094B0A4A46
:1033A0001A60E7E745F625439842F4D045F62343F3
:1033B0009842C4D1AB78002BDCD0FFF763FFD9E78C
:1033C000902E0020C01000200000DC43024B187833
:1033D00000F00100704700BF902E002038B50D4D61
:1033E0002C78ACB90C4B1C7000F014FC0B4B0C4946
:1033F0001C700C4B1C700C4B1C800C4B03F16002BE
:103400001C8059601C810C339342F9D101232B702D
:1034100038BD00BFE0100020141500201D1500204D
:10342000000080BF1E1500201A150020302E00203D
:1034300010B5114C2378EBB9FFF7D4F908B9FFF7B1
:103440005FFAFFF7FBF90D4B18700D4B0D4803F1B8
:10345000600100221A8058601A810C338B42F9D126
:1034600023781BB900F090FB01232370BDE81040C6
:10347000FFF7B4BF10BD00BF15150020902E00202F
:10348000302E0020000080BFF8B5274DB5EEC00AF1
:103490002B78F1EE10FA2DED028BB0EE408A48BF8A
:1034A000B1EE408A002B3BD0204B1B780BB9FFF7C5
:1034B000BFFF1F4A07231046D2ED167AB4EE678A83
:1034C000F1EE10FA27D10C21594300224318425241
:1034D0001849DFF870E059601A810E4614467345AA
:1034E0000ED1154B01261E70144B1C78013CE4B222
:1034F0001C70ACB900F08EFB114B2C701E700FE0ED
:1035000003F10C0797E807009C8183E807001E6120
:103510009C823B46E3E7013B591CA2F10C02CBD154
:10352000BDEC028BF8BD00BF1E1500201515002054
:10353000302E0020000080BF1F1500201415002031
:10354000E0100020842E00202DE9F0413A4B1B783A
:10355000DB072DED028B0746B0EE408A47D5374B8F
:103560001B780BB9FFF764FF354D364E2B78B5EE5F
:10357000C08AF1EE10FA03EB430248BFB1EE488A6D
:1035800003F1FF3806EB8202B8F1FF3F20D101338F
:10359000DBB2082B42D82B702B4A012313702B4A25
:1035A00013702B785C1E02F025FE0C236343F21887
:1035B000F05282ED018A178102F01CFE244C254B4B
:1035C000188023789BB100F04FFB002323700EE09E
:1035D0000C3AD2ED017AF4EE487AF1EE10FA1AD1F3
:1035E0000C2404FB08642B78013B984503DBBDECFD
:1035F000028BBDE8F08104F10C0696E8070084E830
:10360000070002F0F7FD08F10108A08184ED048AAB
:10361000A7823446E7E708F1FF38B5E708232B70A7
:103620000023F41804F10C0207CA0C33542B84E86D
:103630000700F6D1B0E700BF902E0020151500203E
:1036400014150020302E00201F1500201E1500200C
:10365000E01000202C1500204FF6FF70FFF774BF1C
:10366000014B1878704700BF1D1500200B4B1B78CD
:1036700083420FD9013B1B1A09485BB20C2202FBA3
:10368000030393ED010AB5EEC00AF1EE10FA01D979
:1036900000F01ABB9FED030A704700BF141500200D
:1036A000302E0020000000000E4B07EE900A1B7821
:1036B000F8EE676ADFED0C7A9B0166EEA76A07EE0B
:1036C000903AF8EEE77A82B086EEA77ADFED077AD5
:1036D00067EE277AFCEEE77ACDED017ABDF80400BB
:1036E00002B07047041100200000704200007A44CC
:1036F000244B1B78DB07F7B504460F46154604D468
:1037000003B0BDE8F040FFF769BE1F4B1B780BB953
:10371000FFF78EFE1D4B1B780BB1FFF75FFE1C4BB6
:10372000D4ED017A1B4E01221A701B4A346000232B
:1037300013701A4AFCEEE77A1780194ACDED017A28
:103740001570184DBDF804002B80FFF7ADFF94ED08
:10375000000AFFF7F9FE02F04DFD134B2A8818808E
:10376000336803EBC203D3ED017AFCEEE77ACDEDCB
:10377000017ABDF80400FFF797FF0C4B188003B0E7
:10378000F0BD00BF902E0020151500201E15002052
:103790001D1500202C2E00201C150020182E0020A6
:1037A000912E002016150020181500201A15002053
:1037B00008B5074B1B78DB0704D500220621054816
:1037C000FFF796FF02F016FD034B188008BD00BFFF
:1037D000902E0020081100201815002008B5084B75
:1037E000187840F001001870FFF72BF8FFF7F0FC95
:1037F000002202210348BDE80840FFF779BF00BF5F
:10380000902E0020F410002008B500220221094863
:10381000FFF76EFF4FF47A7003F041FBFFF7DEFD18
:10382000054B18786FF300001870BDE80840C0B26F
:10383000FFF707B8E4100020902E0020674B1A789D
:103840002DE9F3479846664C12B92578002D70D0C3
:1038500002F0D0FC27788146F7B9002798F80030AD
:10386000002B00F0B8805F4B1D7825B95E4B1D78AA
:10387000002D08BF3D465D4C5D4F00264FF6FD789C
:103880003B789E42C0F295805A4A1378002B50D064
:10389000002111701D464CE0574D584E288802F00B
:1038A000AEFC33888342D8D8288802F0A8FCA5F85B
:1038B0000090534D3488B5F800A00AF10103041BB1
:1038C0002B8002F097FC4F4B18804F4B19882B88A8
:1038D0008B42A4B2A94605D34C4B1D783DB30023BF
:1038E000A9F800304A4A4B48137815462BBB0368A9
:1038F000B9F800C003EBCA0E03EBCC039EED007ACF
:10390000D3ED007AB4EE677AF1EE10FA15D1012307
:1039100002201370FFF7C8FE9FED3F0AFFF714FE69
:103920000220A9F800A0FFF7BFFE308096E7FFF75E
:1039300055FD284602B0BDE8F087002302682B70D1
:10394000B9F8003002EBC303D3ED017AFCEEE77A5D
:10395000CDED017ABDF80400FFF7A6FE01398442DF
:103960000DD8844222D30124B9F8003002EBC302FF
:10397000204692ED000AFFF7E7FD34806EE7B9F8C4
:1039800000308B42EDDA01339BB2A9F8003002EB34
:10399000C303D3ED017AFCEEE77A201ACDED017A6C
:1039A00084B2BDF80400FFF77FFED8E7001B84B2A5
:1039B000DAE72389013B9BB2434509D8208802F00E
:1039C0001EFC2389834203D894ED010AFFF75CFDB6
:1039D00001360C3454E73D4656E700BF1E15002063
:1039E0001D1500202915002028150020302E00204C
:1039F000141500201F150020181500201A1500208E
:103A0000161500202C150020182E0020912E0020C5
:103A10001C1500202C2E00200000000010B5084CC2
:103A20000849204603F0A4FB2046022103F0B2FB24
:103A3000032210214FF09040BDE8104004F054BC28
:103A4000743200203811002008B5074803F0B0FB9D
:103A5000012210214FF0904004F046FC4FF09043BB
:103A600010221A8308BD00BF7432002008B5114B24
:103A70002DED028BB0EE408A83ED000AFFF7E4FFE4
:103A8000B5EEC08AF1EE10FA10D938EE088A9FED33
:103A90000A0A0A4B28EE008ABCEEC88A83ED008A27
:103AA000BDEC028BBDE80840FFF7B8BFBDEC028B50
:103AB00008BD00BF20150020000080433811002001
:103AC00010B5084C0849204603F052FB204602215D
:103AD00003F060FB032220214FF09040BDE810402E
:103AE00004F002BCA43200204811002008B50748A9
:103AF00003F05EFB012220214FF0904004F0F4FB24
:103B00004FF0904320221A8308BD00BFA43200204A
:103B100008B5114B2DED028BB0EE408A83ED000A03
:103B2000FFF7E4FFB5EEC08AF1EE10FA10D938EED7
:103B3000088A9FED0A0A0A4B28EE008ABCEEC88A62
:103B400083ED008ABDEC028BBDE80840FFF7B8BFEB
:103B5000BDEC028B08BD00BF24150020000080438F
:103B60004811002008B5FFF769FE58B10020FFF7A3
:103B70007DFDFFF77BFF0020FFF778FDBDE80840E3
:103B8000FFF7C6BF08BD000038B5184D184C03221A
:103B900010214FF0904004F0A7FB2846154903F090
:103BA000A9FA1549154803F0E3FA032220214FF042
:103BB000904004F099FB2046114903F09BFA11490B
:103BC000114803F0D5FAAB6A10491A681048136817
:103BD00023F002031360A36A1A68136823F4003306
:103BE0001360BDE8384003F0C3BA00BFB030002016
:103BF000E030002030AC0008381100207432002082
:103C000038AC000848110020A432002058110020D0
:103C10008432002010B50F4C0F4803F0C9FA20463B
:103C200003F087FA40F2FF72002120460B4C03F0AC
:103C30006FFA0B4803F0BCFA204603F07AFA2046EC
:103C400040F2FF72002103F063FA0648BDE810401D
:103C500003F0AEBAB030002074320020E030002013
:103C6000A43200208432002008B50A4A0A490B48D1
:103C70004FF4807303F04EFA4FF4807308490948FB
:103C8000094A03F047FA02210848BDE8084003F05A
:103C900081BA00BF30A8000840AC0008B030002056
:103CA00050AC0008E030002030AA00088432002028
:103CB000014B00221A7070472A150020014B002288
:103CC0001A7070472A150020024B1B780BB9024A64
:103CD000137070472A15002028150020024B1B780E
:103CE0000BB1FFF773BA70472F15002008B5FFF727
:103CF000F5FF044B044800221A700821BDE8084073
:103D0000FFF7F6BC2F1500208C120020034B04484F
:103D1000002208211A70FFF7EBBC00BF2E1500200F
:103D20006811002010B5FFF7D9FF084A084813783A
:103D3000013303F003031370282404FB0300002263
:103D40000521BDE81040FFF7D3BC00BFE8110020FB
:103D5000EC110020F8B5174B1B7803B3164C2088E4
:103D6000F0B902F047FA2080144C154E2378F3B9CD
:103D70003278013A134D14492878CF5C10B1885C31
:103D8000FFF71DFA2B7813B13846FFF711FA2378A5
:103D90003178013393FBF1F201FB12332370F8BD4C
:103DA00002F02DFA094B1B888342DAD3F8BD5A1E64
:103DB000E0E700BF41150020461500204215002015
:103DC000401500202F150020301500201013002072
:103DD0007047000008B5054B054801221A700821FC
:103DE0000022FFF785FCFFF7F3FF08BD2F15002029
:103DF000D01200207047000008B5054B054801228D
:103E00001A7008210022FFF773FCFFF7F3FF08BDCB
:103E10002E150020A81100202DE9F04345F6264379
:103E200098428BB0044606D18B78002B3ED0FFF72A
:103E3000D1FF002053E045F62743984205D18B7807
:103E4000002B33D0FFF752FFF3E745F628439842A3
:103E500006D18B7853B3694B1B78002BF2D1E6E780
:103E600045F62C43984204D18B78FBB1FFF7C4FF91
:103E7000DFE745F62D43984204D18B78B3B1FFF7C5
:103E800045FFD6E745F62E43984206D18B786BB1B5
:103E90005B4B1B78002BF2D1E8E745F629439842AB
:103EA00004D18B7813B1FFF73DFFC2E7534B1A786B
:103EB00022B9534B1B78002B00F09E808E78002E89
:103EC0003DD0E02C0ED1FFF709FF4E4B01221A70B6
:103ED0004D4B002018704D4B18704D4B18700BB0A7
:103EE000BDE8F083E22C0BD1FFF7F8FE454B1A78C2
:103EF00012B1454A0121117000201870434BEDE7C3
:103F0000E32C0FD1404B1B78CBB1FFF7E7FE3D4BC5
:103F1000002018703D4B01221A703E4B18703E4B2A
:103F20001880DCE7522C04D13C4A13880A3B1380EA
:103F30007FE7512C03D1394A13880A33F7E7384B0E
:103F400038481D78384FDFF8ECC04B7891F800E026
:103F5000EDB90578396824350D44062101FB03C30A
:103F600013F80E301D44EDB2002E3FD012B128469A
:103F7000FFF71EF9234B1B782BB1254A2B491378E9
:103F8000CD5401331370B4FA84F04009A7E7062139
:103F900001FB03C3057813F80EE03B78244F24356A
:103FA000EDB20DF1040C07F1200938687968E0469C
:103FB000A8E8030008374F45C446F6D13888B978D9
:103FC000A8F8000088F802100721BEFBF1F101EB10
:103FD0004100C1EBC1011D44AEEB01010AAB53FA34
:103FE00081F105EB800511F8243CBBE7002ACAD01B
:103FF0002846FFF7E4F8C6E7012070E72F150020F8
:104000002E150020441500204315002041150020E6
:1040100040150020421500204615002010130020F6
:10402000E811002012130020CC12002030150020CF
:1040300043A5000868A5000810B500F06DFA094C0A
:10404000094800F021FA094800F01EFA204600F065
:104050001BFA074800F018FA00F06CFA054B1C60D8
:1040600010BD00BF00F0030800E0030800E80308EB
:1040700000F803084825002038B54FF6FE730340CA
:1040800003F1006505F578354FF6FF712A888A42FD
:1040900010D10A49CC5AE443A4B294420CD000F0A7
:1040A0003BFA2146284600F011FA044600F042FA95
:1040B000204638BD002038BD052038BD48150020F9
:1040C000F8B5FFF7B9FF00F027FA0C4C0C4F0D4E76
:1040D000052504F17843A3F57833F95A39B1C9437A
:1040E00089B2204600F0F2F9052818BF05460234CF
:1040F000B442EED100F01EFA2846F8BD00E00308F5
:104100004815002000F00308F8B51C4B1C4F1E5A40
:104110003A68012E9ABF1B4D02230423C3F10063AA
:1041200094BF45EA4635803803F5802392BFADB28F
:1041300080B24FF460459A4203D9BDE8F840FFF7DA
:10414000BFBF45EA500400F0E7F938682146831CF8
:104150003B6000F0BBF9B5F5604F044609D1386803
:10416000F143831C89B23B6000F0B0F9052818BF09
:10417000044600F0DFF92046F8BD00BF48150020D6
:10418000482500200080FFFF38B50D4C0D4B2268FC
:104190009A42054603D9BDE83840FFF791BF00F0C9
:1041A000BBF9094B2068595D41EA0521831C89B29E
:1041B000236000F08BF9044600F0BCF9204638BDBE
:1041C00048250020FFFF0308481500202049214B07
:1041D0002148F0B5214E0D465A889C190233D2432E
:1041E00083420A53F8D11E4A1E4C4FF6FF7743F61E
:1041F000FE761388BB4206D0180409D4190A6B5402
:104200000232A242F5D9184B4FF480501A60F0BD2B
:1042100003F4C041B1F5C04F0FD1901CA04215D896
:104220005188C94389B279B106EA43038033024613
:10423000B3F5805FE4D2E952E2E75904E0D4C3F376
:10424000403106EA4303F3E70246D9E70246DAE7DC
:1042500048150020FEDF0308FEEF03080220FCF7EC
:1042600000F00308FFFF03084825002008B5FFF70A
:10427000E3FEBDE80840FFF7A9BF0000B0F5805F8E
:1042800010B5044614D20C4B1A5C8A4212D0195451
:10429000FFF7F2FE78B97F2C04D82046BDE8104025
:1042A000FFF772BF24F00100BDE81040FFF72CBFFC
:1042B000072010BD002010BD48150020B0F5805F1C
:1042C000F8B505460E4631D210F001030CD0C9B244
:1042D000FFF7D4FF0446681C310A80B2FFF7CEFF17
:1042E000052808BF2046F8BD134A175AB9421FD007
:1042F0005153FFF7C1FEF0B97F2D12D8FBB2F2B2D5
:1043000093420CD02846FFF73FFF0446360AB6EB2F
:10431000172F0FD0681C80B2FFF736FFE0E70524A7
:10432000F4E72846BDE8F840FFF7EEBE0720F8BDE9
:104330001846F8BD2046F8BD48150020B0F5805F4E
:104340003ABF024B185CFF20704700BF48150020A1
:1043500040F6FE7398420BD8074B10F0010F1FBFB9
:104360001A18185C527840EA022008BF185A7047A1
:104370004FF6FF70704700BF4815002080B2FFF76E
:10438000DDBF80B2FFF77ABF80B2FFF7E1BF80B236
:10439000FFF794BF81B2CB0710B5084610D5FFF7E1
:1043A000CDFF0446481C80B2FFF7D2FF0246C81C6E
:1043B00080B2FFF7C3FF000640EA0220204310BD91
:1043C000FFF7C6FF0446881C80B2FFF7C1FF44EA2E
:1043D000004010BD38B584B2E3070D4610D5C9B210
:1043E0002046FFF74BFF601CC5F30F2180B2FFF79B
:1043F00065FFE01C290E80B2BDE83840FFF73EBFE4
:1044000089B22046FFF75AFFA01C290C80B2BDE8F4
:104410003840FFF753BFFFF7DDBF00000B4BDA68F2
:10442000D2070CD4DA6851070BD4DA68D2060AD462
:10443000DB6813F0010F14BF042005207047012032
:104440007047022070470320704700BF00200240E1
:1044500073B50446FFF7E2FF0025FF2601280FD1C0
:1044600014B9062002B070BD01950196019B1BB9DD
:10447000FFF7D4FF013CF1E7019B013B0193F5E716
:10448000002C08BF0620EDE738B5054640F6FF7062
:10449000FFF7DEFF052815D10B4C236943F002031B
:1044A00023616561236943F04003236140F6FF7097
:1044B000FFF7CEFF06281EBF236923F00203236106
:1044C0003423E36038BD00BF00200240104B00F1F0
:1044D00078429A4270B505460E4616D81F20FFF75F
:1044E000B7FF052812D10B4C236943F00103236168
:1044F0001F202E80FFF7ACFF06281EBF236923F084
:10450000010323613423E36070BD072070BD00BF49
:10451000FEFF070000200240044B1A69120641BF4B
:10452000034A5A6002F188325A6070470020024004
:1045300023016745024A136943F080031361704702
:104540000020024030B585B0C0F307230190C0F3CE
:104550000740BBB909B1314B185C8DF80C008DF8E0
:104560000D008DF80E009DF80C30002063F307005D
:104570009DF80D3063F30F209DF80E3063F3174064
:1045800005B030BD9DF8042059B32449085C02EB06
:10459000420402EB4202FF21640094FBF1F404EBBD
:1045A0004201C9B213FB01F2C1F1FF01C3F1FF05E2
:1045B0004B4312121B12C2F1FF02C3F1FF0345432A
:1045C00042434343C5F30725C2F30722C3F307233E
:1045D000C0B2062C1FD8DFE804F0061114161B1E0B
:1045E000060080B2D3E7294602461D460B468DF8E9
:1045F0000C508DF80D208DF80E30B4E72B46054693
:10460000F5E72A46FBE72946034615460A46EEE744
:104610001A460346EBE713460246E8E7E0AD00081A
:104620001FB50121FFF78EFF0346DAB2002062F3C7
:104630000700C3F3072262F30F20C3F3074363F3BA
:10464000174005B05DF804FB70471FB5FFF7E8FFA2
:104650000346DAB2002062F30700C3F3072262F3D5
:104660000F20C3F3074363F3174005B05DF804FB65
:1046700013B58DF802208DF800008DF80110009818
:104680001C46FFF7E2FFC0F30743C0F30722627046
:104690002070A37002B010BD064A1378590804D1E7
:1046A000012161F34703137070472429FCDD2421A5
:1046B000F7E700BF942E00200820FFF76BBE08B577
:1046C000FFF7EAFFBDE8084001460820FFF7A3BE58
:1046D000014B1868FFF7F3BF942E0020084B1A789F
:1046E000012142F0010261F347021A70FF2100220A
:1046F0005A709970D97018681A71FFF7E0BF00BF3F
:10470000942E0020034B1B7813F0010018BF5808AB
:10471000704700BF942E0020044A1379022B9CBFDF
:104720000133137108B1FFF7D3BF7047942E0020F7
:104730000120FFF7F1BF0000044A13790BB1013BE0
:10474000137108B1FFF7C4BF704700BF942E00205B
:104750000120FFF7F1BF00F0C3BD000070B5104BA2
:10476000104D1B786978104813F0010306D02B78A0
:1047700003EB43031844FFF7EEFF70BDAA78EE7811
:1047800002EB42040444B24204F10304EFD20132CA
:1047900004F8023C04F8033C04F8013CD2B2F2E70E
:1047A000942E0020161300209C2E00200E4B1B7808
:1047B000DB0770B416D50D4C0D4EA378E57803EBEE
:1047C00043043444AB4204F1030402D370BCFFF74A
:1047D000C5BF013304F8020C04F8031C04F8012CD3
:1047E000DBB2EFE770BC7047942E00201613002058
:1047F0009C2E0020094B1B78DB0707B50AD501ABBF
:10480000FFF736FF9DF806209DF804109DF805007F
:10481000FFF7CCFF03B05DF804FB00BF942E00202F
:1048200010B5064B0279064904468A5C5878997897
:10483000FFF7E0FF23790133237110BD942E002090
:104840009CAC000810B5054B0446DA7899780079DD
:10485000FFF7D0FF23790133237110BD942E002080
:1048600037B5164C0546207838B9FF2201AB114602
:10487000FFF7FEFE9DF8053023702B79012B09D040
:1048800004D3022B16D00022104601E0207800222B
:10489000114602E0002221781046FFF787FF2B79AE
:1048A0000322013393FBF2F202EB42029B1A2B71BB
:1048B00003B030BD002022780146EEE754250020E9
:1048C0002DE9F04F334C94F800E085B01EF0010F55
:1048D000054688461646019320D04FEA5E032E4FC8
:1048E000DFF8C0C0FF5C8CF800700EF0FE0EBEF169
:1048F000020F16D103ABFFF7BBFE9DF80E209DF80B
:104900000C109DF80D00FFF751FF019B657084F8B6
:104910000280E67013B12068FFF7D1FE05B0BDE854
:10492000F08F022F01D1E678EFE7062F01D16578ED
:10493000EBE7092FFBD0192FE7D1193BDBB203F0CE
:10494000010200925B08154ADFF85C9012F803A0A0
:104950000027CB4699F80420FBB2934202D3FFF71D
:10496000FDFED2E703FB0AF090FBF2F0009AC0B222
:1049700072B928449BF802201344094A03EB43030D
:104980001344C0B232464146FFF772FE0137E1E7F9
:10499000281AEFE7942E002077AC000864AC0008DA
:1049A0009C2E0020562500201613002010B4054927
:1049B0004C78CA78897808340346E0B25DF8044B35
:1049C000FFF77EBF942E00200120FFF7EFBF00000D
:1049D00010B405494C78CA788978083C0346E0B29F
:1049E0005DF8044BFFF76CBF942E00200120FFF709
:1049F000EFBF000010B4074CA178E2781131FF2915
:104A000028BFFF210346C9B260785DF8044BFFF769
:104A100057BF00BF942E00200120FFF7EBBF00001E
:104A200010B4064CA178E278113921EAE17103460D
:104A3000C9B260785DF8044BFFF742BF942E0020A6
:104A40000120FFF7EDBF000010B4074CE278A17819
:104A50001132FF2A28BFFF220346D2B260785DF8E8
:104A6000044BFFF72DBF00BF942E00200120FFF75D
:104A7000EBBF000010B4064CE278A178113A22EAAC
:104A8000E2720346D2B260785DF8044BFFF718BFBC
:104A9000942E00200120FFF7EDBF0023FFF710BF89
:104AA0002DE9F041144EDFF85880144F04460025DC
:104AB0003179E8B2884205F101050CD3FFF74EFECB
:104AC000A37813F0010F237914BF013303F1FF33EF
:104AD0002371BDE8F081B378FF2292FBF1F22179D6
:104AE000034403EB430302FB00104344FA78B97814
:104AF000C0B2FFF7BDFDDBE716130020942E0020A7
:104B00009C2E00202DE9F74F8378304E304D13F066
:104B1000010F0CBF01234FF0FF3300934FF000094A
:104B200033795FFA89F843450CD8FFF717FE009BED
:104B3000012B2B7842D103B93379013B2B7003B0A1
:104B4000BDE8F08FB378234ADFF88CB0434403EB21
:104B5000430303EB020A00248AF801409C549DF8A9
:104B600000308AF80240019304272A782244D2B206
:104B700053B2092B1CDD092293FBF2F202EBC202B5
:104B80009B1A5BB298450BD19BF803209BF802104F
:104B90009BF801007A435346C2F38702FFF768FD92
:104BA000019B013F1C44E4B2DFD109F10109B7E7E1
:104BB000002BE7DA054B1B791344E2E73179013327
:104BC00093FBF1F201FB1233B8E700BF161300208C
:104BD000552500209C2E0020942E00202DE9F8431E
:104BE0002B4C2C4DA378E07803EB43022A440021A0
:104BF000834202F1030220D3274EDFF8A090DFF8B2
:104C0000A48000272179FAB28A421FD3FFF7A6FDBC
:104C1000224D23482A78017833780A4452B20B4453
:104C20005BB2002A33702A7003DD2279013A934285
:104C300001DB49420170BDE8F883013302F8021C30
:104C400002F8031C02F8011CDBB2D1E792FBF1F37E
:104C500001FB1323A1780B4496F90010DBB28A42C2
:104C600003EB43030EDB99F900108A420ADC2B4464
:104C700098F8032098F8021098F80100FFF7F8FC64
:104C80000137BFE7E91800224A70EA548A70F7E753
:104C9000161300209C2E0020532500201313002003
:104CA00014130020942E00202DE9F0470379DFF83B
:104CB000A080DFF8A0A013FB03F25A43C3F1200346
:104CC000552503FB03F103FB01235543B5FBF3F526
:104CD000EDB2292D88BFC5F155044FF0020394BFF2
:104CE000A5EB8504A4EB840494FBF3F4013C064695
:104CF000E4B20027C14698F80420FBB29A420BD8D0
:104D0000FFF72CFD3379104AD3B9012111701278C5
:104D100013443371BDE8F0879A0799F802200B49D4
:104D2000134458BFC5F1550003EB430354BFC0B251
:104D30002846534422468978FFF79AFC0137DAE780
:104D4000202BE4D1FF21E1E715130020942E002051
:104D5000161300209C2E00202DE9F041134FDFF8A0
:104D60005480134C064600253A79954208DBFFF73C
:104D7000F5FC3379013303F001033371BDE8F081B1
:104D8000BB782B4403EB4303B5EB520F434432791A
:104D900007DA42B1E278A1786078FFF769FC013563
:104DA000E2E7002AF6D00022F5E700BF1613002044
:104DB000942E00209C2E002008B5094B1A786FF322
:104DC00000021A701868FFF77AFC064B00224FF4B5
:104DD000FA705A7002F063F8BDE80840FFF7BEBCF5
:104DE000942E00205625002008B5084B0848197855
:104DF0000B224908FCF704F910B9064B01225A703E
:104E000001F0F8F9044B188008BD00BF942E002073
:104E10001B130020562500204C25002010B5164CF1
:104E20002378DA0726D5D8B9012262F34703237025
:104E300011B12068FFF743FC217810480B22490884
:104E4000FCF7DEF898B10E4B00225A700D4BA1789A
:104E500060780122DA70E278BDE81040FFF71DBEED
:104E6000242801D92422E0E760F34703DFE7FFF7B6
:104E7000BBFFEBE710BD00BF942E00201B130020EA
:104E8000562500204C250020054B1B785B0801337C
:104E9000252B014634BF18460120FFF7BFBF00BFD6
:104EA000942E00200120FFF7EFBF0000064B1B7877
:104EB000C3F34603013B13F0FF03014614BF18463A
:104EC0002420FFF7ABBF00BF942E00200120FFF786
:104ED000EDBF0121FFF7A2BF034B187840F001009E
:104EE00018704008FFF7F5BF942E0020034B1B7885
:104EF000DB0701D5FFF760BFFFF7EEBF942E002060
:104F00000021FFF78BBF000038B5124D2A78FAB99F
:104F1000FDF768FC18B9FDF7F3FCFFF7DFFBFFF7BF
:104F2000CBFB0D4C10F0FE0F206004D1FFF7D6FB39
:104F3000FFF7C2FB2060FFF7AFFB084B2078002291
:104F40005A70C30702D54008FFF7DAFF01232B7020
:104F500038BD00BF52250020942E00205625002089
:104F60002D4B5A782DE9F041002A53D01A782B4B5B
:104F70002B4E1B78C2EB5303DBB2022AB3701AD15B
:104F8000284A294CD55CF3782BB10027F77001F043
:104F900031F9B780308001F02DF93388C01A80B222
:104FA00047F6FE72904235D81D44358023461C4892
:104FB000BDE8F0411847062A03D11C4A1C4CD55CB9
:104FC000E1E7092A04D15B081A4A1B4CD55CDAE7F1
:104FD0000F2A04D15B08194A194CD55CD3E7152A6E
:104FE00003D1184A184CD55CCDE7182A0FD0232AD4
:104FF00003D1164B164C1D88C5E7164B164C242AB8
:1050000012BF4FF4FA654FF4FA751C46BBE728252A
:10501000124CB8E7BDE8F08156250020942E002000
:105020004C25002060AC0008214800086CAC00084A
:10503000454800086FAC0008A14A000874AC00089D
:10504000054B000869AC0008DD4B000872AC000895
:1050500061480008594D000849460008A94C00085D
:1050600000B11047084738B504460D46FFF74AFB24
:10507000A04207D3FFF746FBA84203D2BDE8384061
:10508000FFF710BF2046BDE83840FFF722BF000001
:1050900038B58C780546002C00F09F80FDF7B8FAF3
:1050A00045F6CD439D4200F022007CD035D845F630
:1050B000C7439D426BD015D845F6C4439D425ED090
:1050C00005D845F6C3439D4255D0204638BD45F628
:1050D000C5439D4258D045F6C6439D42F5D1404A4E
:1050E00040494EE045F6CA439D4256D00AD845F69F
:1050F000C8439D424ED045F6C9439D42E5D13A4A48
:105100003A493EE045F6CB439D4249D045F6CC4373
:105110009D42DAD1364A374933E045F6D2439D42C3
:1051200050D00FD845F6CF439D4243D03ED345F6ED
:10513000D0439D4243D045F6D1439D42C5D10E2177
:10514000092039E045F6D5439D4241D009D845F6BE
:10515000D3439D4239D045F6D4439D42B5D1182062
:1051600025E045F6D6439D4235D045F65E539D4237
:1051700008BF0024A9E7FFF7B9FE0024A5E71E4AEF
:105180001E49FFF76DFFF8E71C4A1B49F9E7154A6E
:105190001349F6E7154A1449F3E7194A1949F0E7A4
:1051A000184A1749EDE7134A1149EAE70120FFF7CA
:1051B00090FEE2E705210220FFF755FFDDE7082119
:1051C0000620F9E714210F20F6E717211520F3E751
:1051D00022211920F0E72320E9E7012475E700BF29
:1051E000ED490008C9490008194A0008414A000869
:1051F0005147000831470008CD4E0008A54E000871
:10520000954A00086D4A00081D4A38B50C21002354
:10521000154642F823100133D82BFAD10023194642
:10522000EA180433B3F5607FC2F86013F8D19A220C
:1052300002214FF0904003F057F80023114C1A461A
:105240000A21012002F06CFF0F4BA2695B690F4934
:1052500038329A604FF4DC72DD605A6043F6B02257
:105260001A601A6842F001021A60204601F0BCFF81
:10527000204600220121BDE8384001F0C6BF00BF32
:105280005C250020B432002084B100089CAD0008E9
:1052900030B518244443114800EB8400203000242A
:1052A00041FA04F515F0010F14BF1C250C25C5614A
:1052B00042FA04F515F0010F14BF1C250C2540F827
:1052C000045D43FA04F515F0010F04F1010414BF65
:1052D0001C250C25082C0564E2D130BD5C2500207E
:1052E00070B50D4D2B7804460E461BB9FFF78CFFA9
:1052F00001232B700025B542A8B204F1030400D1AC
:1053000070BD14F8013C14F8032C14F8021CFFF7CC
:10531000BFFF0135EFE700BF5825002008B5FBF7B8
:10532000A3FF08BD10B50C4C20224FF4805120463D
:1053300002F0DAFF20224FF40051204602F0D4FFA1
:10534000226923691B0BC2F3003203F002031343EB
:10535000024A137010BD00BF00040048412C002019
:105360001E4B1A691B6910B51B0BC2F3003203F008
:10537000020313431A4A1B4C117843EA8103DBB240
:105380001370194A03F00F03D35C227813445BB205
:10539000032B237020DD154A1378012101330020EF
:1053A0001370FFF7BBFF012094F90030033308DAD4
:1053B0000E4A13780021013B08461370FFF7AEFF39
:1053C000012094F900305A4202F0030203F0030373
:1053D00058BF5342237010BD0020E5E70004004889
:1053E000412C0020402C0020E0AE0008422C002080
:1053F00008B5FBF79FFF08BD0120704708B5FFF710
:10540000FBFF08BD2DE9F047174EDFF8649000243C
:10541000804625462246374659F8241021F00F03CE
:1054200001F00F011B69CB40DB4303F00103D9B24C
:10543000A3401D430D4BA15514F803E08E45E0B287
:105440009A4602D1B8F1000F02D0FFF7D1FF012236
:105450000134042CE0D12AB12846FFF7CFFF3B6886
:10546000CAF80030BDE8F087432C0020472C00200C
:10547000F0AE000870B50B4E0024012556F824004C
:1054800000F00F01202205FA01F120F00F00013495
:1054900002F02AFF042CF1D10120BDE87040FFF793
:1054A000B1BF00BFF0AE0008F8B5144682789DF891
:1054B00018701D462B4B92B11C7000F09BFE2A4BBE
:1054C000188004F12003DBB2072B49D804F007044D
:1054D0000120A040C0B2BDE8F840FCF7DCB91E785E
:1054E000A6422ED1204B188800F089FEC72828D864
:1054F000AE4205F1200415D006F12003DBB2072BE4
:1055000006D806F007060120B040C0B2FCF7CCF97F
:10551000E3B2072B1FD805F0070301209840C0B263
:10552000FCF7B9F93846E4B2FCF7AFF9072C17D805
:1055300005F007050120A840C0B2BDE8F840FCF71F
:10554000B3B904F12003DBB2072B09D804F0070438
:105550000120A040F0E73846BDE8F840FCF795B9D7
:10556000F8BD00BF4B2C00204C2C002013B545F695
:10557000F44304469C42084626D011D845F6D94348
:105580009C421CD045F6DA439C4237D045F6D843BE
:105590009C420ED126230093E1231A4621461EE0A9
:1055A00045F6F6439C421FD013D345F6F7439C4281
:1055B0001FD0807830B3144B00221A7012E02723DA
:1055C0000093E523E522E9E726230093E022E12387
:1055D000E4E727230093E422E52345F6F541FFF7AE
:1055E00063FF002002B010BD26230093E222E123D6
:1055F000D4E727230093E622E523CFE7282300936F
:105600000123DFE70120EDE74B2C002038B50546EC
:105610008878002800F0358145F603539D422FD845
:1056200045F6FB439D4204D2A5F5B843023B132B3C
:105630002AD8FDF7EBF8944C45F610439D422080A4
:1056400000F0F48048D845F608439D4200F0C08041
:1056500026D845F604439D4200F0A58015D845F6AE
:1056600002439D4200F0968045F603439D4200F0C0
:1056700096802088FDF7D6F8FCF738FB002038BD6F
:1056800045F662539D42D4D038BD45F606439D424F
:1056900000F09A8040F28B80237843F020037CE076
:1056A00045F60C439D4200F0AE800AD845F60A4309
:1056B0009D4200F0978040F28F8023786FF30003C3
:1056C0006BE045F60E439D4200F0A58040F29F80BE
:1056D00023786FF3041360E045F6FD439D4200F02C
:1056E0009E802ED845F614439D4200F0BA8010D813
:1056F00045F612439D4200F0A18040F29B80237842
:1057000003F0F7036FF382032370002202215F4846
:105710006FE045F6FB439D424DD051D845F6154309
:105720009D42A6D1237883F00402C2F3800262F383
:10573000820362F3C30323701B074FF00002E5D519
:1057400055E045F601539D427ED010D845F6FF4303
:105750009D42637850D0B5F5BA4F64D303F0FD0392
:105760006FF30003637000220221494841E045F6CF
:1057700003539D4200F083807DD345F662539D42E2
:105780007FF477AF2378C3F3001282F0010262F353
:10579000041302E0237843F00103237069E72378C0
:1057A00043F00203F9E7237843F00403F5E7237895
:1057B00043F00803F1E7637843F00103637058E7AF
:1057C000637843F00203F9E7237843F01003E4E73A
:1057D000237843F04003E0E7FCF788FA237843F0AE
:1057E0008003DAE7237843F00C0323700022294872
:1057F0000421FDF77DFF3CE743F0030363700022C3
:1058000004212548F5E723786FF34103C5E72378A2
:105810006FF38203C1E723786FF3C303BDE76378B7
:105820006FF30003CAE76FF34103C7E723786FF311
:105830004513B2E723786FF38613AEE7FCF756FA09
:1058400023786FF3C713A8E76278D34303F001030B
:1058500063F3000263F34102627012F0020283D02C
:10586000CDE7FCF743FA2378C3F3C01282F00102BC
:1058700062F3C71391E70120FDF744F8F9E6002031
:10588000FAE7012000E700BF002E002028130020C7
:1058900058130020381300206813002045F61643E3
:1058A000984210B50C461FD1FCF7B2FEA1780F4A02
:1058B0000F4B81B100F0AA00002814BF0121002184
:1058C0001170186814BF3521292100F0B7FBFCF7CF
:1058D00011FF002010BD12781868002A14BF35216E
:1058E000292100F0C5FBF2E7012010BD4E2C00205D
:1058F00098100020704700002DE9F7431D4E3378C3
:1059000053B11D4D1D4F2C784FF6FF793378A342CC
:1059100005D8002333702B7003B0BDE8F083C4EBCF
:10592000C40207EB420304F10108998837F81220FA
:10593000ADF804205FFA88F885F8008091B192B242
:105940004A450FD00E2202FB0472118961B95089B9
:10595000484509D00121FFF7CDFF0E2303FB047456
:105960000023A3804446D1E7186859681A89FCF7D8
:105970009DFDF2E7CB2C0020CA2C00205A2C0020E1
:10598000084B00221A80084A084B12880C2101FBA0
:105990000232934200D17047D97909B999711972CD
:1059A0000C33F6E7CC2C002088130020180C0020C4
:1059B00070B50F4A0F4B11780F4D1C780B46A34260
:1059C00000D170BD35F8136086420DD10B4C0C250B
:1059D00005FB00408B424FF001048471F1D1234458
:1059E00003F00303137070BD013303F00303E6E714
:1059F000582C0020592C0020502C0020180C00207E
:105A00002DE9F74F8B790090002B43D1234A244D89
:105A100092F800B01F46A8464FF6FF794FF0010EEE
:105A2000DAB293452BD90A68B5F80CA0019200268A
:105A30004FF6FF74F2B2019830F812C0E24508BF89
:105A400094B20136BCF1000FF4D14C451FD00EFAD0
:105A500004F427430EFA02F2FFB2013ABA4214D11B
:105A60000E22534308EB03028C8814810D4C2488CA
:105A700028F80340BDF80030538181F807E0009812
:105A800003B0BDE8F04FFFF793BFA5F804C00133A2
:105A90000E35C5E703B0BDE8F08F00BFCB2C00206A
:105AA0005A2C002066A50008F8B50C4B0C4D1C784C
:105AB0000C4E0D4F2B78A34205D1FFF71DFFBDE81B
:105AC000F840FFF75DBF36F814000C2101FB0071B0
:105AD0000134FFF795FF04F00304EBE7582C002096
