:020000040800F2
:10000000000400203D0300083F0300083F030008F0
:100010003F0300083F0300083F0300083F030008B8
:100020003F0300083F0300083F030008E9420008BF
:100030003F0300083F0300083F0300083F03000898
:100040003F0300083F0300083F0300083F03000888
:100050003F0300083F0300083D810008F9800008C5
:10006000B5800008718000082D8000088D7B000895
:10007000797B0008657B0008517B00083D7B000808
:10008000297B0008157B00083F0300083F03000898
:100090003F0300083F0300083F030008457F0008B6
:1000A000157E00080D7E0008117E0008097E0008FC
:1000B00065740008E9740008517400082D76000882
:1000C000997500083F0300083F0300083F0300083C
:1000D0003F0300083F0300083F0300083F030008F8
:1000E000297E00083F0300083F0300083F03000883
:1000F000AD7400083F0300083F0300083F030008F9
:100100003F0300083F0300083F0300083F030008C7
:100110003F0300083F030008D5740008C1740008BD
:10012000017B0008ED7A0008D97A0008C57A00083A
:10013000B17A00083F0300083F0300083F030008AE
:100140003F0300083F0300083F0300083F03000887
:100150003F0300083F0300083F0300083F03000877
:100160003F0300083F0300083F030008297100080F
:100170003F0300083F0300083F0300083F03000857
:100180003F0300083F0300083F0300083F03000847
:100190003F0300083F0300083F0300083F03000837
:0801A000D5010008B1010008BF
:1001B00010B5054C237833B9044B13B10448AFF3A1
:1001C00000800123237010BDA01600200000000055
:1001D00098AF00080C4B43B10C480D4910B5AFF374
:1001E00000800C48036823B910BD0A48036833B97E
:1001F0007047094B002BF7D0BDE810401847064B5D
:10020000002BF5D0184700BF0000000098AF000891
:10021000A4160020A01600200000000072B6394885
:1002200080F30888384880F3098838484EF608512A
:10023000CEF20001086040F20000CCF200004EF661
:100240003471CEF200010860BFF34F8FBFF36F8FA0
:1002500040F20000C0F2F0004EF68851CEF20001EC
:100260000860BFF34F8FBFF36F8F4FF00000E1EED8
:10027000100A4EF63C71CEF200010860062080F3B1
:100280001488BFF36F8F08F0B3F904F0CDFD4FF081
:1002900055301F491B4A91423CBF41F8040BFAE715
:1002A0001C49194A91423CBF41F8040BFAE71A492C
:1002B0001A4A1B4B9A423EBF51F8040B42F8040BFA
:1002C000F8E700201749184A91423CBF41F8040B57
:1002D000FAE708F06DF908F08AF9144C144DAC42B5
:1002E00003DA54F8041B8847F9E702F02FF8114CA1
:1002F000114DAC4203DA54F8041B8847F9E708F0C3
:1003000075B9000000040020000C00200000000867
:10031000000000200004002098AF0008000C00201E
:10032000A0160020A0160020A82E0020A001000882
:10033000A4010008A4010008A80100086EE700F06D
:1003400000F8FEE72DE9F04F2DED108AC1F80CD032
:10035000C3689D46BDEC108ABDE8F08F002383F38F
:1003600011882846A047002004F022FAFEE707F093
:1003700061FF00DFFEE7000081F0004102E000BF06
:1003800083F0004330B54FEA41044FEA430594EA55
:10039000050F08BF90EA020F1FBF54EA000C55EA90
:1003A000020C7FEA645C7FEA655C00F0E2804FEA61
:1003B0005454D4EB5555B8BF6D420CDD2C4480EA43
:1003C000020281EA030382EA000083EA010180EA73
:1003D000020281EA0303362D88BF30BD11F0004FC1
:1003E0004FEA01314FF4801C4CEA113102D04042F7
:1003F00061EB410113F0004F4FEA03334CEA133332
:1004000002D0524263EB430394EA050F00F0A78049
:10041000A4F10104D5F1200E0DDB02FA0EFC22FA44
:1004200005F2801841F1000103FA0EF2801843FA38
:1004300005F359410EE0A5F120050EF1200E012A29
:1004400003FA0EFC28BF4CF0020C43FA05F3C01867
:1004500051EBE37101F0004507D54FF0000EDCF1E0
:10046000000C7EEB00006EEB0101B1F5801F1BD389
:10047000B1F5001F0CD349085FEA30004FEA3C0C8D
:1004800004F101044FEA445212F5800F80F09A8083
:10049000BCF1004F08BF5FEA500C50F1000041EB87
:1004A000045141EA050130BD5FEA4C0C404141EB8B
:1004B000010111F4801FA4F10104E9D191F0000FB2
:1004C00004BF01460020B1FA81F308BF2033A3F135
:1004D0000B03B3F120020CDA0C3208DD02F1140C2C
:1004E000C2F10C0201FA0CF021FA02F10CE002F167
:1004F0001402D8BFC2F1200C01FA02F120FA0CFC60
:10050000DCBF41EA0C019040E41AA2BF01EB0451A8
:10051000294330BD6FEA04041F3C1CDA0C340EDCA6
:1005200004F11404C4F1200220FA04F001FA02F3E9
:1005300040EA030021FA04F345EA030130BDC4F1A7
:100540000C04C4F1200220FA02F001FA04F340EA9C
:100550000300294630BD21FA04F0294630BD94F04D
:10056000000F83F4801306BF81F480110134013D34
:100570004EE77FEA645C18BF7FEA655C29D094EAA5
:10058000050F08BF90EA020F05D054EA000C04BF23
:100590001946104630BD91EA030F1EBF002100200E
:1005A00030BD5FEA545C05D14000494128BF41F0AD
:1005B000004130BD14F580043CBF01F5801130BD11
:1005C00001F0004545F0FE4141F470014FF000009C
:1005D00030BD7FEA645C1ABF194610467FEA655C4D
:1005E0001CBF0B46024650EA013406BF52EA0335EF
:1005F00091EA030F41F4002130BD00BF90F0000FDD
:1006000004BF0021704730B54FF4806404F1320418
:100610004FF000054FF0000150E700BF90F0000FD1
:1006200004BF0021704730B54FF4806404F13204F8
:1006300010F0004548BF40424FF000013EE700BFC8
:1006400042004FEAE2014FEA31014FEA02701FBF58
:1006500012F07F4393F07F4F81F06051704792F02A
:10066000000F14BF93F07F4F704730B54FF46074A4
:1006700001F0004521F0004120E700BF50EA0102EF
:1006800008BF704730B54FF000050AE050EA01029C
:1006900008BF704730B511F0004502D5404261EB0C
:1006A00041014FF4806404F132045FEA915C3FF44D
:1006B000DCAE4FF003025FEADC0C18BF03325FEAE6
:1006C000DC0C18BF033202EBDC02C2F1200300FA9B
:1006D00003FC20FA02F001FA03FE40EA0E0021FAC0
:1006E00002F11444C1E600BF70B54FF0FF0C4CF4AA
:1006F000E06C1CEA11541DBF1CEA135594EA0C0F60
:1007000095EA0C0F00F0DEF82C4481EA030621EA9A
:100710004C5123EA4C5350EA013518BF52EA0335D5
:1007200041F4801143F4801338D0A0FB02CE4FF087
:100730000005E1FB02E506F00042E0FB03E54FF0B7
:100740000006E1FB03569CF0000F18BF4EF0010EAF
:10075000A4F1FF04B6F5007F64F5407404D25FEAAB
:100760004E0E6D4146EB060642EAC62141EA55515E
:100770004FEAC52040EA5E504FEACE2EB4F1FD0CA0
:1007800088BFBCF5E06F1ED8BEF1004F08BF5FEA1E
:10079000500E50F1000041EB045170BD06F00046D0
:1007A00046EA010140EA020081EA0301B4EB5C047D
:1007B000C2BFD4EB0C0541EA045170BD41F4801175
:1007C0004FF0000E013C00F3AB8014F1360FDEBF9A
:1007D000002001F0004170BDC4F10004203C35DA76
:1007E0000C341BDC04F11404C4F1200500FA05F3F9
:1007F00020FA04F001FA05F240EA020001F000429A
:1008000021F0004110EBD37021FA04F642EB06010F
:100810005EEA430E08BF20EAD37070BDC4F10C0439
:10082000C4F1200500FA04F320FA05F001FA04F2FD
:1008300040EA020001F0004110EBD37041F10001E9
:100840005EEA430E08BF20EAD37070BDC4F12005F4
:1008500000FA05F24EEA020E20FA04F301FA05F25C
:1008600043EA020321FA04F001F0004121FA04F204
:1008700020EA020000EBD3705EEA430E08BF20EAD4
:10088000D37070BD94F0000F0FD101F0004640000E
:1008900041EB010111F4801F08BF013CF7D041EA90
:1008A000060195F0000F18BF704703F00046520094
:1008B00043EB030313F4801F08BF013DF7D043EA65
:1008C0000603704794EA0C0F0CEA135518BF95EA1B
:1008D0000C0F0CD050EA410618BF52EA4306D1D1A2
:1008E00081EA030101F000414FF0000070BD50EAC1
:1008F000410606BF1046194652EA430619D094EA4B
:100900000C0F02D150EA013613D195EA0C0F05D134
:1009100052EA03361CBF104619460AD181EA030188
:1009200001F0004141F0FE4141F470014FF0000040
:1009300070BD41F0FE4141F4780170BD70B54FF0DB
:10094000FF0C4CF4E06C1CEA11541DBF1CEA13555B
:1009500094EA0C0F95EA0C0F00F0A7F8A4EB05043D
:1009600081EA030E52EA03354FEA013100F0888034
:100970004FEA03334FF0805545EA131343EA1263FD
:100980004FEA022245EA111545EA10654FEA0026B2
:100990000EF000419D4208BF964244F1FD0404F56B
:1009A000407402D25B084FEA3202B61A65EB0305C7
:1009B0005B084FEA32024FF480104FF4002CB6EB84
:1009C000020E75EB030E22BFB61A754640EA0C0004
:1009D0005B084FEA3202B6EB020E75EB030E22BF44
:1009E000B61A754640EA5C005B084FEA3202B6EB85
:1009F000020E75EB030E22BFB61A754640EA9C0044
:100A00005B084FEA3202B6EB020E75EB030E22BF13
:100A1000B61A754640EADC0055EA060E18D04FEAD1
:100A2000051545EA16754FEA06164FEAC30343EA71
:100A300052734FEAC2025FEA1C1CC0D111F4801F3E
:100A40000BD141EA00014FF000004FF0004CB6E737
:100A500011F4801F04BF01430020B4F1FD0C88BFD6
:100A6000BCF5E06F3FF6AFAEB5EB030C04BFB6EBE1
:100A7000020C5FEA500C50F1000041EB045170BDD4
:100A80000EF0004E4EEA113114EB5C04C2BFD4EB01
:100A90000C0541EA045170BD41F480114FF0000E85
:100AA000013C90E645EA060E8DE60CEA135594EA01
:100AB0000C0F08BF95EA0C0F3FF43BAF94EA0C0F04
:100AC0000AD150EA01347FF434AF95EA0C0F7FF479
:100AD00025AF104619462CE795EA0C0F06D152EACD
:100AE00003353FF4FDAE1046194622E750EA4106B1
:100AF00018BF52EA43067FF4C5AE50EA41047FF4C2
:100B00000DAF52EA43057FF4EBAE12E74FF0FF3C26
:100B100006E000BF4FF0010C02E000BF4FF0010CF7
:100B20004DF804CD4FEA410C7FEA6C5C4FEA430C70
:100B300018BF7FEA6C5C1BD001B050EA410C0CBFBF
:100B400052EA430C91EA030F02BF90EA020F002021
:100B5000704710F1000F91EA030F58BF994208BF88
:100B600090422CBFD8176FEAE37040F00100704745
:100B70004FEA410C7FEA6C5C02D150EA013C07D19C
:100B80004FEA430C7FEA6C5CD6D152EA033CD3D0E7
:100B90005DF8040B704700BF8446104662468C46E1
:100BA0001946634600E000BF01B5FFF7B7FF002814
:100BB00048BF10F1000F01BD4DF808EDFFF7F4FF3D
:100BC0000CBF012000205DF808FB00BF4DF808EDC8
:100BD000FFF7EAFF34BF012000205DF808FB00BFEB
:100BE0004DF808EDFFF7E0FF94BF012000205DF80D
:100BF00008FB00BF4DF808EDFFF7CEFF94BF0120C2
:100C000000205DF808FB00BF4DF808EDFFF7C4FFBA
:100C100034BF012000205DF808FB00BF4FEA410C03
:100C20007FEA6C5C02D150EA013C0AD14FEA430CE6
:100C30007FEA6C5C02D152EA033C02D14FF0000023
:100C400070474FF0010070474FEA4102B2F1E043B4
:100C500024BFB3F5001CDCF1FE5C0DD901F0004CA3
:100C60004FEAC0024CEA5070B2F1004F40EB8300F3
:100C700008BF20F00100704711F0804F21D113F11F
:100C80003872BCBF01F00040704741F480114FEA58
:100C90005252C2F11802C2F1200C10FA0CF320FAE1
:100CA00002F018BF40F001004FEAC1234FEAD323FE
:100CB00003FA0CFC40EA0C0023FA02F34FEA430368
:100CC000CCE77FEA625307D150EA01331EBF4FF0F1
:100CD000FE4040F44000704701F0004040F0FE400C
:100CE00040F40000704700BF53B94AB9002908BF5B
:100CF00000281CBF4FF0FF314FF0FF3000F07AB9F1
:100D0000ADF1080C6DE904CE00F006F8DDF804E062
:100D1000DDE9022304B070472DE9F0478C460D460B
:100D20000446089E002B51D18A4217466DD9B2FA6B
:100D300082FEBEF1000F0BD0CEF1200C01FA0EF5B1
:100D400020FA0CFC02FA0EF74CEA050C00FA0EF43D
:100D50004FEA174A250CBCFBFAF81FFA87F90AFB81
:100D600018CC45EA0C4508FB09F3AB420AD9ED194A
:100D700008F1FF3280F02381AB4240F22081A8F1DC
:100D800002083D44ED1AA4B2B5FBFAF00AFB105577
:100D900044EA054400FB09F9A14509D9E41900F129
:100DA000FF3380F00A81A14540F2078102383C44BC
:100DB000A4EB090440EA08400021002E61D024FA87
:100DC0000EF4002334607360BDE8F0878B4207D9CE
:100DD000002E54D0002186E821000846BDE8F087A7
:100DE000B3FA83F1002940F08E80AB4202D38242F5
:100DF00000F2FA80841A65EB03050120AC46002E50
:100E00003FD086E81010BDE8F08712B90127B7FB84
:100E1000F2F7B7FA87FEBEF1000F34D1EB1B3A0CA4
:100E20001FFA87FC0121B3FBF2F8250C02FB1833F3
:100E300045EA03450CFB08F3AB4207D9ED1908F16D
:100E4000FF3002D2AB4200F2D1808046ED1AA3B24D
:100E5000B5FBF2F002FB105543EA05440CFB00FC25
:100E6000A44507D9E41900F1FF3302D2A44500F2EA
:100E7000B8801846A4EB0C0440EA08409DE73146D0
:100E80003046BDE8F087CEF1200405FA0EF307FAEC
:100E90000EF720FA04F83A0C25FA04F448EA03089D
:100EA000B4FBF2F14FEA184502FB11441FFA87FC2C
:100EB00045EA044501FB0CF3AB4200FA0EF409D9F4
:100EC000ED1901F1FF3080F08A80AB4240F287805B
:100ED00002393D44EB1A1FFA88F5B3FBF2F002FB2E
:100EE000103345EA034500FB0CF3AB4207D9ED197B
:100EF00000F1FF386FD2AB426DD902383D44EB1A96
:100F000040EA01418FE7C1F1200722FA07F88B4040
:100F100005FA01F448EA030320FA07FE4FEA134CEE
:100F2000FD404EEA040EB5FBFCF94FEA1E440CFBF3
:100F300019551FFA83F844EA054509FB08F4AC4249
:100F400002FA01F200FA01FA08D9ED1809F1FF30AE
:100F500043D2AC4241D9A9F102091D442D1B1FFA0D
:100F60008EFEB5FBFCF00CFB10554EEA054400FB71
:100F700008F8A04507D9E41800F1FF3529D2A045AB
:100F800027D902381C4440EA0940A4EB0804A0FB1E
:100F900002894C45C6464D4615D312D056B1BAEB20
:100FA0000E0364EB050404FA07F7CB401F43CC4063
:100FB000376074600021BDE8F0871846F8E6904677
:100FC000E0E6C245EAD2B8EB020E69EB0305013850
:100FD000E4E72846D7E7404691E78146BEE7014669
:100FE00078E702383C4445E7084608E7A8F10208DC
:100FF0003D442BE7704700BF0000000000000000E8
:1010000001F0FF01102A2BDB10F0070F08D010F8B9
:10101000013B013A8B422DD010F0070F42B3F6D1BD
:10102000F0B441EA012141EA014122F007047FF0D6
:1010300000070023F0E80256083C85EA010586EA2D
:10104000010685FA47F5A3FA87F586FA47F6A5FA69
:1010500087F68EB9EED1F0BC01F0FF0102F0070275
:1010600032B110F8013B013A83EA010313B1F8D120
:101070000020704701387047002D06BF3546033801
:10108000073815F0010F07D1013015F4807F02BF3A
:10109000013015F4C03F0130F0BC0138704700BF8B
:1010A0002DE9F04F2DED048B818803888FB0044625
:1010B000ADF80C30002901F034819AB24FF6FF737D
:1010C0009A4201F02E8101220068BC4E05F0F0F931
:1010D00045F6204398420546A37822D15BB131788A
:1010E000C1F3400383F0010363F341013170C9B2DE
:1010F000072005F0C1FB45F624439D422AD1A37881
:1011000043B3AF4B9FEDAF7AD3ED006AC6EE877A5B
:101110009FEDAD7AF4EEC77AF1EE10FA01F3C080DC
:1011200018E045F62142904206D1002BE3D03178F9
:1011300041F002013170DBE745F62242904241F076
:1011400093803BB131786FF3410131700720C9B210
:1011500005F092FB327802F00308B8F1030F41D199
:10116000A378002B3ED0A5F5B8431E3B9BB2012BC4
:1011700038D9964B1B78ABBB954B1B7893BBD707E5
:1011800030D5DFF83C92DFED939AD9ED007A9FEDF0
:10119000929A924F77EEA78A07F026FD07EE900A03
:1011A000B8EEE77AB7EE008A27EE297AF0EE487AB1
:1011B000E7EE097A67EEA87AC7ED027A07F014FD28
:1011C00007EE900AF8EEE77A414667EEA97A3846CC
:1011D000A7EE898AD9ED007A28EE278A87ED048A5E
:1011E00007F072FAA378002B01F05E80A5F5BE42ED
:1011F000123A92B20F2A01F27780794B1B7803BB27
:10120000123DEEB240F207259EBBDFF8F4A1059631
:10121000284605F029FB00236E1C8DF814008DF87C
:10122000153070B1431E022B2ED88DF81500012306
:1012300030468DF8143005F017FB02358DF8160096
:1012400018BB684B1B785E0701F06B80A378002BFE
:1012500001F0678002200FB0BDEC048BBDE8F04FB9
:1012600002F0E0BC002B3FF475AF554B5E4A1A60AC
:1012700070E7B5F5806FE4D0284605F0F5FA08B9B7
:10128000013EF6B20135BFE735460DF1140999F874
:101290000020002ABCD0012A3ED199F80120012A61
:1012A00009D199F8020009F1020602F047FDB146A2
:1012B00009F10109EBE7022A06D199F8020009F1C8
:1012C000020607F041FCF2E7032A06D199F8020072
:1012D00009F1020607F01AFCE9E7042A02D009F135
:1012E0000109E5E799F80270002609F102094FF0BB
:1012F0000A0807F051FC38444278500706D4002E03
:10130000D6D00A2003F048FA013EF8E7303F08FB48
:10131000067619F8017FECE7344B354813F802B034
:10132000344BD10802F007021AF8016010F801806E
:101330005F5C1641174116F0010648FA02F207F009
:10134000010702F0010802D0E12002F0C3FB17B14F
:10135000E62002F0BFFB584602F0F0FC17B1E62091
:1013600002F068FB16B1E12002F064FBB8F1000F57
:101370009ED02C2002F0E2FC9AE7012002F046FC0D
:1013800007F000FA5DE7002B3FF45BAF10211A482D
:1013900007F09AF90121032005F06EFA174B01229C
:1013A0001A6002F01FFC4CE7002BE6D0012000F091
:1013B000A5BF002B40F0A1870220DFE7DD2D002034
:1013C000640C00200938983F00008242D5160020A6
:1013D000D416002000000030CDCC4C3D680C00201D
:1013E000FEE70308441A00200000DC43DE9F0008EB
:1013F000CE9F0008CE9F0008800C0020E819002036
:101400005EA00008002B3FF41CAF05F089FCAC483F
:101410001C2107F059F914E7002B3FF412AF05F037
:101420007FFC2C21A748F4E7002B3FF40AAF05F01E
:1014300077FC0A21A448ECE7002B3FF402AF05F04B
:101440006FFC0721A148E4E745F61E42954204D10E
:10145000002B70D004F026FCF3E645F61F429542BF
:1014600006D1002B67D03378D907F3D400F0E0BE63
:1014700045F62A42954207D1002B5CD0944B954803
:1014800000221A700421C4E745F62B429542F3D09E
:1014900045F62642954207D1002B4CD08E4B8F4803
:1014A00001221A700821B4E745F62742954204D17B
:1014B000002B40D005F066FCC3E645F62842954275
:1014C00006D1002B37D0844B1B78002BF2D1E5E7F7
:1014D00045F62C42954206D16BB3814B81480122DF
:1014E0001A70082195E745F62D42954206D113B3AF
:1014F0007B4B7D4800221A7008218AE745F62E4270
:10150000954205D1BBB1764B1B78002BF0D1E4E7B7
:1015100045F6294295420ED16BB105F02BFC734A7A
:101520001378013303F003031370714A2820052157
:1015300000FB03206DE7684A17781FB9684A1278E4
:10154000002A64D0002B3BD0E02D0CD105F012FC1A
:10155000684B01221A70684A00231370674A13709F
:10156000674A13706DE6E22D0CD105F003FC614B68
:101570001A7812B1604A0121117000221A705F4B73
:101580001A705EE6E32D0FD15B4A1278C2B105F006
:10159000F1FB584A00231370584A01211170594A2F
:1015A0001370594A13804CE6522D03D1574A1388C1
:1015B0000A3BF7E7512D03D1544A13880A33F1E768
:1015C0004A4A534892F800E062782178062606FBE2
:1015D0000202BEF1000F40F0AB80565C3736F6B227
:1015E000002B00F0CC8037B1304604F011FC4FF6F0
:1015F000FF7005F07DFA3F4B1B782BB1404A4549FF
:101600001378CE5401331370002D7FF41AAE424A82
:1016100000920023137045F6F7439D423F4B40F084
:10162000B780A278002A00F0CE8001221A70A37839
:10163000002B00F067863A4B00221A7045F60243F1
:101640009D42C0F0F98545F615439D4205D9A5F5A3
:10165000B9437A3B082B00F2EF85324B324A1B78B4
:101660001278324E43EA0223338045F610439D42FE
:1016700000F0548200F2B18145F608439D4200F02B
:10168000268200F28E8145F604439D4200F00F82CF
:1016900000F27C8145F602439D4200F0FF8145F651
:1016A00003439D4200F0FF8135880420E9B205F034
:1016B000E3F8290A222005F0DFF802F0DBFAC0E5A2
:1016C000E80F0020880E002000110020C810002024
:1016D0009C2E002050110020D5160020440E002022
:1016E000D4160020600D0020200D0020A00D002049
:1016F000A40D0020EA160020E9160020E7160020BD
:10170000E6160020E8160020EC160020840E0020CB
:101710006EA00008D6160020C0160020300C002055
:10172000372E002008E0030844E00308061A0020D2
:10173000C04E12F801E006F1200805AA3068716871
:101740009446ACE80300083646456246F6D1B178C7
:1017500030888CF802100722BEFBF2F202EB420640
:10176000C2EBC202AEEB02020EA951FA82F2ACF851
:101770000000B60012F8242C373616442FE7002F4D
:101780003FF442AF304604F043FB05F069FA3BE713
:1017900045F6F84295420BD1A278A2B100221A7008
:1017A000A549A64B0A7001201A8003F04BFD3EE7C5
:1017B00045F6F942954206D1A27822B11A78002A5C
:1017C0003FF433AFEAE71E785EBB45F6F3439D4234
:1017D00000F0CD8015D845F6D8439D4200F0C38077
:1017E00045F6D9439D4200F0CE8045F6D7439D4251
:1017F0007FF41DAFE12226231146204606F0D2FFDA
:101800001FE545F6F5439D4200F0B980C0F0B38076
:1018100045F6F6439D427FF40AAF2723E522E621F1
:10182000EBE7874BDFF82CA200271F809846B8F81B
:10183000001071B1009B1B78002B6FD003F0B2FB3E
:101840007E4B1880002003F0FDFC002F7FF4F9ACE4
:10185000BBE7DAF800204FF6FF79C8B2013132F861
:1018600010309D4208BF1FFA80F9002BF5D14FFAC6
:1018700089F201320FD14FF0000B47EA0B0726B176
:101880009AF80660B6FA86F67609B8F800200132B2
:10189000A8F80020CBE7684AA17892F800B00122AE
:1018A000C9B102FA09F19AF8069049EA01095FFA0A
:1018B00089F98AF80690BBF1000FDCD08240013A2A
:1018C0004A45DAD1BAF8040008B104F03DFE009BA5
:1018D00001221A70D1E782409AF80610013A8A4232
:1018E0001AD1BAF804206AB1D0B2019207F00EF909
:1018F000019AA2F1E001072994BF524952491046CA
:1019000004F0F1FD012202FA09F29AF8069029EAA0
:1019100002098AF80690B0E79B46F3E75FB9012019
:1019200003F090FC002E3FF450AF444B1F80424B1D
:1019300001221A7049E7A378002B3FF482AC3E4B9A
:101940001B78002B3FF47DAC03F02CFB3B4B3F4A54
:1019500018801378072B3FF674AC591C11703C4A61
:1019600022F813506DE42723E522E52145E72623DD
:10197000E122E02141E72723E522E4213DE7262378
:10198000E122E22139E728230122EEE745F606436A
:101990009D4200F0988040F28E80337843F020031F
:1019A0007FE045F60C439D4200F0A4800AD845F63E
:1019B0000A439D4200F0958040F28D8033786FF3AA
:1019C00000036EE045F60E439D4200F09B8040F21E
:1019D000958033786FF3041363E045F6FB439D4233
:1019E0006DD039D845F613439D4200F09F800FD843
:1019F00045F611439D4200F0958045F612439D4205
:101A00007FF452AE02F036F933786FF3C71348E033
:101A100045F615439D4200F09B80C0F0B28045F62C
:101A2000FA439D427FF440AE737843F00103737034
:101A30003AE600BF889F0008C2160020EE1600207C
:101A4000BE160020793500084D350008BC16002070
:101A5000C4160020180D002045F6FF439D426ED0AD
:101A6000B5F5BA4F0BD245F6FD439D4252D04DD944
:101A7000737843F0030373700421BE4837E045F6E2
:101A800001539D4200F08780B5F5BA4F6DD945F6F8
:101A900002539D427FF408AE00217DE0337843F08D
:101AA0000103337000E6337843F00203F9E733783B
:101AB00043F00403F5E7337843F00803F1E7737864
:101AC00043F00203B3E7337843F01003E9E73378D8
:101AD00043F04003E5E702F0CDF8337843F08003AC
:101AE000DFE7337843F00C033370A348042106F09A
:101AF000EBFDD9E533786FF34103D2E733786FF329
:101B00008203CEE733786FF3C303CAE773786FF3CA
:101B100000038CE773786FF3410388E733786FF342
:101B20004513BEE733786FF38613BAE7337803F0D3
:101B3000F7036FF38203337002219048D7E773787D
:101B400003F0FD036FF30003737002218C48CEE7AE
:101B5000337883F00402C2F3800262F3820362F3FB
:101B6000C3031A073370E7D5BFE77378DA4302F08F
:101B7000010262F3000362F3410373709B07E4D533
:101B80007AE702F077F83378C3F3C01282F00102EB
:101B900062F3C71385E701210E2004F06DFE83E593
:101BA000187845F6CC439D4200F0220000F01A81DF
:101BB00000F2978045F6C6439D4200F0078171D838
:101BC00045F6C3439D4200F0F8805FD845F6C24316
:101BD0009D4200F0BA8045F65A539D4200F04E8176
:101BE00000F21B81B5F5B84F00F0298145F6DE43C0
:101BF0009D4200F03F81A3782288ADF81020002B91
:101C000000F04081049801F0E5FC05460146049887
:101C100001F0EAFE2846049904F0EEFA594B94F8D4
:101C200006A01F78A67817F0070705464FEA1A1A8C
:101C3000984617D03746AEB1C5F3072303F0F0033B
:101C4000402B05D005F12003DBB2072B40F21F81AA
:101C5000022001F0E7FF98F8003013F0070F0CBFE7
:101C600001270027C5F3033BBBF10B0F00F24B81AB
:101C7000DFE81BF00F010F0151015101AD014901D6
:101C800049014901DF015E027102710245F6C44358
:101C90009D4200F0988045F6C5439D429BD13A4A4B
:101CA0003A498CE045F6C9439D4200F095800BD837
:101CB00045F6C7439D4200F08C8045F6C8439D42DF
:101CC00089D1334A33497AE045F6CA439D4200F050
:101CD000868045F6CB439D427FF47DAF2E4A2F4947
:101CE0006DE045F6D1439D4200F08B8010D845F65B
:101CF000CE439D427CD078D345F6CF439D427DD0E4
:101D000045F6D0439D427FF466AF0E21092071E075
:101D100045F6D4439D427AD00BD845F6D2439D4236
:101D200072D045F6D3439D427FF455AF0121182070
:101D30003FE045F6D5439D426CD045F65D539D424C
:101D40007FF449AF2A21252054E0154B1878C707A6
:101D50002AD56FF300001870186804F01DFE114BAF
:101D600000224FF4FA705A7002F016FD03F058FB8F
:101D7000FFF767BA440C0020100C0020000C002074
:101D8000340C0020441A0020156700082D67000855
:101D9000F9660008DD660008E1510008C951000835
:101DA000381A0020401A002040F00100012118706C
:101DB000C84004F0FBFDFFF744BAB34AB34903F04F
:101DC0002BFBFFF73EBAB14AAF49F8E7B04AB14939
:101DD000F5E7B14AB149F2E7B14AB249EFE7B14A92
:101DE000AF49ECE7B04AB149E9E701210846E0E72D
:101DF0000521022003F0FEFAFFF723BA082106208E
:101E0000F8E714210F20F5E717211520F2E722212A
:101E10001920EFE701212320CBE745F65B539D42D4
:101E20002ED045F65C539D427FF4E5AEA04B58782A
:101E300080F00400C0F3800001F0B4FBDBE601F0A9
:101E400019FF04F097FF03F0ADF8032185B299481C
:101E500006F03AFC03F0A6F8401B80B2F92805D939
:101E600004F05EFF03F086F8FFF7EBB90A2002F0FA
:101E700093FCEFE703F048F9FFF7E3B90120DBE754
:101E80000020D9E7049801F08FFD0546C2E600273F
:101E9000E8E6C5F3072313F0F00F16BF4FEA151954
:101EA000C5F3032909F0F009EDB2B6B1B9F1000F9D
:101EB0000DD005F12003DBB2072B00D95DB97E4AB6
:101EC000137849EA030982F8009001F0EBFA2846FA
:101ED00006F03AFE17E0794AF2E7284606F016FEC9
:101EE000B9F1000F0FD005F12003DBB2072B6FEA29
:101EF000090900D96DB9704B1A7809EA020983F80B
:101F0000009001F0CFFAABF1080BBBF1030F6ED8D4
:101F1000B0E06A4BF0E7C5F3072303F0F003202B92
:101F200014BF4FEA1519C5F30329EDB218BF09F024
:101F3000F0096DB1012D32D0002E3AD0BAF1000F68
:101F400031D0A379D807C2D56FF30713A3712AE064
:101F5000C6B15B4BBAF1000F05D1187849EA000011
:101F600001F016FBCFE7BAF1010FF6D150491A780C
:101F700049784D0749EA0209C5D49145C3D083F891
:101F80000090C0E7BAF1000F05D103F013F94846FD
:101F900001F0F2FAB7E7BAF1010FF6D1B3E726B1D3
:101FA000BAF1050FAFD84846DAE7BAF1040FAAD85C
:101FB000EDE7BAF1000FEAD0392D0CBF4FF44870AD
:101FC000642002F0E9FB284606F0A0FD9BE7C5F37C
:101FD00081233BB1012B96D14EB3C5F3090003F029
:101FE00009F904E00EB3C5F3090003F013F997B142
:101FF00098F9000010F001030DD1A370C0F3C700E1
:1020000001F02CFE2046FFF74BF898F90000C0F3D2
:10201000C70001F0FBFD2068A18800220FB0BDECD5
:10202000048BBDE8F04F04F043BA3046DDE730469C
:10203000D5E715F4407F4BD1E6B9C5F34212E90666
:102040004FEA8202D2B244BF0F26964005F00F033A
:10205000C5F3812548BFF643022D03FA02F3194A5E
:1020600032D00ED8012D0AD03343166833401360A6
:1020700001F0B8FD03F0DEF804F07CFAB7E7116870
:102080000B433343F3E700BF216A0008416A0008AD
:102090002D67000815670008DD660008F96600086E
:1020A000A5660008C1660008C9510008E151000892
:1020B000061A0020000D0020321A0020421A0020CB
:1020C000F61A0020E8190020334316687340CEE763
:1020D00006B3C5F30023002BCCD0C5F34211890011
:1020E000CAB215F0100118BF0F2105F00F0318BF79
:1020F0009140C5F3812518BFC943022D03FA02F3AD
:102100008A480FD012D8012D07D002680B43134024
:102110000360ADE7C5F34023DDE702681A430A43D5
:102120000260A5E702680B435340F1E70B43EFE77A
:102130005FFA85F93EB1C5F3032001F08FFD4846F3
:1021400001F026FA96E7484601F016FAC5F3032097
:1021500001F05CFD8EE75FFA85F9A9F1F003042B2D
:102160004BD8DFE803F003161C232E0076B1BAF13A
:10217000040F3FF6C8AE6D4BC5F304220125954010
:102180001A6855401D6001F02DFDBCE6BAF1050F3F
:10219000EFE736B1C5F3042001F060FDB3E6002E91
:1021A000F8D0C5F3042001F031FDACE65F4A36B14A
:1021B000C5F30425012303FA05F51560E3E716606E
:1021C000E1E77EB1C5F30425284601F047FD584BF1
:1021D0005B785B075EBFEB0043F0030388F80030D9
:1021E0002846D9E7012001F01DFDBAF1010F7FF665
:1021F0008AAE022001F016FD85E626B1BAF1000F85
:10220000C8D0484664E6BAF1000FCAD0B9F1390F18
:102210000CBF4FF44870642002F0BEFA4846D3E683
:1022200045F61D4295427FF40FA9002B3FF483A988
:1022300003F052FDFFF705B845F616439D423D4BAE
:102240007FF4AEAC1B783C4803F0AA03002B3B4B59
:1022500013BF01220022292135211A7002F012FF3A
:1022600001F020F9FEF7EDBF45F6254290423EF41D
:10227000F9AF45F6234290427EF43DAF002B3EF489
:1022800069AF2F4B9FED2F7AD3ED007A67EE877AF7
:102290009FED2D7AF4EEC77AF1EE10FA7EF55AAF83
:1022A000C3ED007AFEF756BF45F6107295423FF433
:1022B00064A845F6117295423FF47EA8A5F5BA428E
:1022C0005E3A062AACD801A151F822F08713000823
:1022D000A9130008B3130008051400081914000816
:1022E000291400083914000845F6107295423FF48D
:1022F0005DA845F611729542E0D1022001F0AEFCD6
:10230000FFF73EB845F616439D427FF474AC0B4B85
:1023100009481B78002B0CBF2921352102F08CFEC7
:102320009EE70FB0BDEC048BBDE8F08F242E00209B
:10233000061A0020321A002020170020C1160020A3
:10234000640C00200938983F0080BB44AB4B9A6A6C
:1023500062F4FC022DE980489A629A6A02F4FC0257
:102360009A629A6A1A694FF0FF321A61196900215C
:1023700019611869D868DA60DA68D960DA68DA69E8
:102380009F4842F08052DA61DA69026842F4807252
:1023900002601A6A02F44072B2F5007F1A461EBF4C
:1023A0004FF4803313621162136A19048FB007D49B
:1023B000136A43F400731362136A43F40043136215
:1023C0009048914D002303604360012105EB011407
:1023D00054F80C4C236040F8313001310D29F5D10F
:1023E0008A494FF0FF334B60C1F80434884B6021B9
:1023F000402083F80613C3F880011860802083F81A
:1024000007134FF40074C3F8800118604FF4807014
:1024100083F80813C3F88001186083F80913C3F820
:1024200080411C604FF4806483F80A13C3F8804134
:102430001C604FF4000483F81713C3F880411C603C
:1024400083F82813C3F88401702158604FF080701E
:1024500083F81813C3F8800118604FF0007083F8F8
:102460001913C3F8800118604FF0806083F81A13C5
:10247000C3F88001186083F81B134FF00061C3F8A4
:10248000801119609369634943F001039361936973
:102490000B6843F020030B605F49002301F5807057
:1024A0008B60CB600960496010318142F8D15B4993
:1024B00001F1180401208C61CC61594C08700B614A
:1024C0004B610B628C62CB62564901F118048C613E
:1024D000CC61554C08700B614B610B628C62CB6216
:1024E0005249534CCC6008704B60524904F58064EB
:1024F000CC6008704B60504904F59034CC60087093
:102500004B604E4904F54064CC6008704B604C4908
:1025100001F10C04CC600C614A4C08704B604B61BB
:10252000CB618B62CB620C63474904244FF080453A
:1025300008704B60CB600C748D614449444D0C7441
:10254000444C08704B60CB608C614349287001F1AA
:102550000C04CC600C61414CCC6141F20A048C62E9
:1025600041F2180408704B608B604B610B624B6248
:10257000CC626B6005F1440005F12803002143F8AB
:10258000041F8342D961FAD1D369298143F0020340
:102590006981D361D369324A324C9368324843F03F
:1025A00002039360314B41F61F429A624FF6FF726D
:1025B000DA62012299615963D96059605A611A60DF
:1025C000134B802283F81D234FF00052C3F8802163
:1025D0001A6004F11C03E3612362254B2460186038
:1025E00024485860244B254899604FF0FF3283E817
:1025F000030003F10C00626242E000BF00100240E1
:1026000000700040482B0020F4AC0008000002409D
:1026100000E100E000000140202C0020B02B002051
:10262000F0A00008E02B00200CA10008682A002080
:1026300000100040782A0020882A0020102C00205A
:10264000202D002000540040982A0020B42A0020A9
:10265000542D002000080040F016002000380040F3
:10266000002004E0D02A0020A82E00200004004012
:10267000E02D002000A00020CC190020818100085E
:102680006460A160246164612185D860186159612A
:10269000069200230022CDE90A2361670791089181
:1026A0000991042706AE304601F076FE304601F06F
:1026B00053FE013FF7D1069B63678023A363E36664
:1026C000CA4B6169A364CA4B6164012284F85170EA
:1026D000A766676684F8522024640B6103F1280121
:1026E0006361A165A36103F12C01C24BE165216621
:1026F000E36484F85020202181F3118862B6BE4B38
:10270000D8684FF6FF0E00EA0E0EBC484EEA0000F5
:10271000DFF854E3D860DEF80C0040F08070CEF8AB
:102720000C00DFF848E3DEF800001043CEF80000AC
:102730001020D87783F8221087F3118862B681F3CE
:102740001188AF4B03F1B401C3F82411C3F8202161
:10275000C3F8542183F83A21AA49AB4AC3F8F410CC
:10276000C3F83021A9496269C3F8141103F58C70CC
:10277000022183F83811C3F82C21C3F83431C3F88F
:10278000F87083F83971C3F85071C3F84C71C3F80D
:102790002841106103F5A072C3F8402103F5A2722D
:1027A000C3F84421C3F848213946606105F0A0FD13
:1027B00087F31188964B974C1A699748974F1206E2
:1027C00041BF974A5A6002F188325A6000211022B4
:1027D00006F002FA04F10803A36504F11C03C4F82F
:1027E000803004F1300304F1E002C4F8A0308D4BD6
:1027F000C4F8D430C4F8E02004F1D803C4F8E420CD
:10280000D4F8C420D4F8BC00C4F8D830D4F8D03000
:10281000C4F8F430043202FB003CC4F8F030C4F8D1
:102820000431DFF84CE2804BC4F8F8C00021D4F842
:10283000B8C0C4F8FC204FF0010804F58C72C4F84D
:102840000001C4F8103104F1D400D4F8CC3084F87D
:10285000DC8084F8E880C4F8EC10C4F81821C4F8CF
:102860001C2184F82081C4F82C318EF800103970B6
:10287000C4F80811C4F80C11C4F81401C4F824C138
:10288000C4F82831D4F8C020C4F83C31043202FB2B
:102890000C38664BC4F83421C4F84831C4F8308190
:1028A000C4F838C1C4F84011C4F84411C4F84C014C
:1028B000D4F8B030202282F3118894F8B420CDF8F7
:1028C0000CE003EB82020097906294F8B52011327D
:1028D00043F8220094F8B62012B103EB8203986209
:1028E000534BC4F85031022384F8DC30002787F3BF
:1028F00011884FF4805101224FF0904004F034FFD2
:102900004FF090434FF480525A8343F6982001F0E1
:1029100043FF202383F31188464B6B6039463B46C7
:10292000EA180433202BD160FAD12B78012B01D186
:1029300006F0C8F802232B70002787F3118840F2B5
:1029400002724FF480514FF0904004F00DFF3A4B6B
:102950004FF4FA70DF6001F01FFF202383F311882A
:10296000364B5B6A87F31188354ADFF808819BB2E2
:102970001360344A1360344B1F6058F82700013746
:1029800003F06CFA0A2FF8D1DFF8EC80002758F832
:102990002700013703F062FA062FF8D12B4A2C48A2
:1029A0000023194690461954995401330A2BFAD141
:1029B00002F09AFB08B902F0A7FB264B1A78264BC7
:1029C0001A70264B264A1B78127843EA0223254ABE
:1029D000138003F053FA642001F0DEFE03F04EFA98
:1029E00098F80030DB0761D548E000BFC0A00008C0
:1029F000002B00200004002000ED00E00003FA0599
:102A0000681800207D81000840A100085D030008CF
:102A10000020024084110020F3190020041A002035
:102A20002301674580A10008A1860008B78100083E
:102A30003412002070A100080C2E00200004004079
:102A4000341A0020081A0020241A00200D1A002031
:102A5000281A002004E00308C819002008E0030831
:102A600044E00308061A0020F0ED00E0001000E04A
:102A7000031A002048A10008D8A00008FF21232045
:102A800003F0FAFEFF21242003F0F6FEFF212520AB
:102A900003F0F2FE03F0F6FFFF21002003F0ECFE4E
:102AA000FF21012003F0E8FE02F064FAC24B1A781D
:102AB000C24B1A6001F096F803F022F9C04B1B7864
:102AC000212B07D1BF4B1B78082B03D1BE4B1B78A2
:102AD000242B12D0002002F089FC02F023FC02F02B
:102AE00015FC2121232003F0C7FE0821242003F038
:102AF000C3FE2421252003F0BFFEB44B1A7899466B
:102B000002BB02F0F1FA18B902F0FEFA03F0A6FFD8
:102B100005F0D0FEAE4F10F0FE0F386004D103F088
:102B20009DFF05F0C7FE386003F036FE3878A94BEC
:102B30000021C707597002D5400803F037FF012371
:102B400089F80030A44FDFF8CCA2384620224FF499
:102B5000805104F009FE20224FF40051384604F061
:102B600003FE3A693B699D4901911B0B03F0020387
:102B7000C2F3003213430B7000274FF001095AF8DB
:102B8000270000F00F01202209FA01F120F00F00C8
:102B9000013704F0E9FD042FF1D1012002F06EFBB2
:102BA0008F4B904A1A60039B1A78009B1B78002178
:102BB0009A4200F06B8318468B4F385C013305282E
:102BC00003F00F034FF00101F2D1009A8748137010
:102BD000874B00271F70874B1F7002F015FA38468D
:102BE00002F018FB384602F005FB02F023FB03F06D
:102BF000C1FCD8E7002003F0BDFC04F091F8AA2046
:102C000001F0CAFD03F03AF9002318F80320002A66
:102C100040F0478301330A2BF7D12B78052BE9D0FD
:102C200000F040FC03F02AF908B102F0BBF9724849
:102C3000002718F807A0395C51455FFA87FB00F0C0
:102C40009C8000234FF0010981EA0A0119EA010F73
:102C5000DAB200F08A8019EA0A030492029314BFE0
:102C60004FF0010A4FF0000A02F09CF9029B049A0F
:102C700040F0010080B223B15E494FF0000E81F8B0
:102C800000E00021316071608DF818208DF819B0D6
:102C90008DF81AA0ADF81C0096E8030000F0FAFFCA
:102CA000554AD35D89EA030902F80790494F7B78BA
:102CB0006BB3474B3A781B78DFF844B1C2EB530350
:102CC000DBB2022A8BF802306ED14C4ADFF8489111
:102CD00012F803A09BF8033053B100238BF80330A4
:102CE000029302F05FF9029BABF80000ABF80430EE
:102CF00002F058F9BBF80030C01A80B247F6FE72F5
:102D0000904204D89A44ABF800A03D48C847324BE3
:102D100001991A6909781B69C2F3403242EA4102FB
:102D2000C3F3003343EA4203019ADBB213701A077C
:102D300048BFDB4303F00F03324A12F80390324AD4
:102D400013784B44DBB259B2032940F3B780043BFC
:102D500013702E4B186803F091FB002800F0A3803D
:102D6000022800F2A380AB209EE001334FEA49091C
:102D7000062B5FFA89F97FF469AF01370A2F7FF4D8
:102D800058AF02F00FF900233360736040F0010088
:102D9000FF238DF818308DF81930ADF81C0096E837
:102DA000030000F077FF81E7062A39D1184ADFF8DF
:102DB0006C9012F803A08DE706E00308E8190020E4
:102DC00046E0030848E003084AE00308051A00202B
:102DD000381A0020401A002000040048F119002091
:102DE000EC19002070110020F3190020201700209A
:102DF000321A0020421A0020171A0020B0A0000842
:102E00006018002038A10008F0190020242E0020AE
:102E1000B7A0000828A10008715600089D560008B8
:102E2000092A06D15B08B84ADFF8009312F803A01C
:102E300050E70F2A06D15B08B44ADFF8F49212F883
:102E400003A047E7152A05D1B14ADFF8E89212F846
:102E500003A03FE7182A12D0232A15D0242A18D01D
:102E6000252A1BD10322B3FBF2F202EB42029B1A8A
:102E7000DBB2A84ADFF8C09212F803A02AE74FF0AD
:102E8000280ADFF8B89225E74FF4806ADFF8B0929D
:102E900020E74FF4FA7ADFF8AC921BE74FF4FA6AB6
:102EA000DFF8A49216E7A92000F048FF9A4B1A78A1
:102EB000914483F8009002F075F802E0C81C38DBFA
:102EC0001170DFF8889202F0B5F999F8003083426A
:102ED00005D002F0AFF989F8000003F04BFBD4F8FD
:102EE000D4308E48D3F820902022002306A9C8476A
:102EF000814600283FF457AEC3B202939DF81830C4
:102F0000013B122B00F2BE81DFE813F02000270006
:102F100057006D00760099009C00D900F900BC01B3
:102F2000BC01220126012C015201710174017601BC
:102F30009C01043313707A4B186803F09FFA18B1A0
:102F40000228B3D8AC20AFE7AA20ADE700238DF864
:102F5000193009238DF81A3022E09DF81930022B20
:102F60004FF0000700F02A82032B10D0012B40F015
:102F7000898102F017F8030E8DF81A30030C8DF8D2
:102F80001B30030A8DF81C308DF81D0008E03B460D
:102F900006AA1A4418F80310917001330A2BF7D1CE
:102FA000029B202B7FF4FFAD5E4850F8D43F5FFAC0
:102FB00089F25B6806A99847F5E59DF81930022B60
:102FC00040F060819DF81B309DF81A001B0443EA15
:102FD00000639DF81D0003439DF81C0043EA002098
:102FE00002F004FADCE79DF81B209DF81A109DF80A
:102FF000190002F0D3F9C4E79DF81C309DF81D704C
:103000009DF819209DF81B0047EA03279DF81A3008
:1030100003EB430378219B0011FB023303EB400ACF
:103020003FB20AF12700C7F3072180B203F024FC66
:103030000AF12800F9B280B203F01EFCB0E702F0FA
:1030400071F9ADE79DF81930803B032BA8D8DFE874
:1030500003F0020B292E34489DF81A20817840781D
:10306000002302F01DFD9BE700219DF81A0003F0EC
:103070009DFC9DF81A202C4B5AB919787A7062F38E
:1030800000014FF4FA70197001F086FB02F0C8F9E4
:1030900086E7187840F0010018700021400803F01E
:1030A00085FC7DE7204B9DF81A201A7178E71E4AAF
:1030B0009DF81B10D2789DF81A000023D1E79DF8E7
:1030C0001930803B032B3FF66BAFDFE803F00205BE
:1030D0000D10154BDB783DE7134B1A7812F0010306
:1030E0003FF438AF530835E70F4B1B7932E70E4BEF
:1030F0005A789B788DF81A208DF81B3050E70A4BD0
:10310000186803F049FC4BE7BAA00008BAA0000811
:10311000B4A00008BDA00008F21900205812002039
:10312000242E002084110020381A0020595A00084B
:1031300091590008FD5800082D57000861580008F3
:10314000C156000819580008C55100080C1A002083
:1031500010238DF8193023E74FF001038DF8193053
:10316000F923F7E69DF819309DF81AA09DF81BB0D9
:103170004AEA032A00270AF207233A46B9B28B45E6
:1031800003EB07007FF60CAF0AEB0701B1F5FC7FFC
:103190000AD80592049303F067FB06ABD919059A88
:1031A000049B08710137E9E706A939440A71F9E778
:1031B0009DF819309DF81AA09DF81BB04AEA032A21
:1031C0000AF207230027B8B283457FF6E9AE0AEB7F
:1031D0000702B2F5FC7F08D81844049306ABDA194D
:1031E00080B2117903F048FB049B0137EBE702F052
:1031F0008DF8D5E60423ACE79DF819309DF81AA0A8
:103200009DF81BB04AEA032A00270AF127033A4631
:10321000B9B2594503EB0700BFF4C2AE0AEB070190
:10322000B1F5F07F0AD20592049303F01DFB06ABC3
:10323000D919059A049B08710137E9E706A93944B1
:103240000A71F9E79DF819309DF81AB09DF81BA096
:103250004BEA032B0AF1270A0BF12707DA44BA4598
:103260003FF49EAEA7F12703B3F5F07F08DAA7EB92
:103270000B0306AA1344B8B213F8231C03F0FCFA9C
:103280000137ECE7FF238DF8183089E609B1009B80
:103290001A702B78052B7FF4C5AC4D4FDFF844A195
:1032A000BBE43B78052B10D1DFF82C91D9F84030E6
:1032B00043F01003C9F84030142001F06DFAD9F83A
:1032C000403023F01003C9F84030202383F31188E5
:1032D0003B78012B18D03F4B4FF48062C3F8882015
:1032E0004FF40061002283F84A23C3F8881083F862
:1032F0004B23394B03221A64DAF81C3023F4000301
:10330000CAF81C30DAF81C30DFF8DC9000224FF0ED
:1033100001037A603B7009F1200B0292D9F800207A
:103320007AB1506920B16FF001010C3001F048F81A
:10333000D9F80020906920B16FF001010C3001F044
:103340003FF8029B49F8043BCB45E7D1234B1A6871
:103350009B6992689B689A4201D904F06BFF4FF019
:10336000000989F3118801224FF480514FF09040F9
:1033700004F0FAF94FF090434FF480525A8320231F
:1033800083F31188164B7B6049464B46FA18043389
:10339000202BD160FAD13B78012B01D105F092FBB3
:1033A00002233B70002383F3118840F202724FF432
:1033B00080514FF0904004F0D7F92EE4262003F01E
:1033C00053FA8DF81A708DF81B708DF81C70DBE5C0
:1033D000542D002000E100E0005C0040D02A0020D5
:1033E00070A1000800100240602D0020054B064A25
:1033F0001B781278934200D17047013303F0070322
:10340000F8E700BFB71A0020B61A0020214BF7B525
:103410009A7912090AD19A7842B11F4A1F4F12783D
:103420001F4E4FF6FF7E3978914201D103B0F0BDB7
:10343000988858B319785C788DF804108DF8054099
:10344000BDF80450754521D006EBC20595F801C0C2
:10345000A4451BD116F832408C4217D1A978A9B9DE
:10346000A988091A89B2C72910D89979094801226F
:1034700062F307119971AB7962F30713AB71FDF732
:103480000FFE03B0BDE8F040FFF7B0BF013202F01D
:103490000702C8E76E1A0020B71A0020B61A0020EB
:1034A000761A002010B5204B204A1B781278204C49
:1034B0001343204A127813431F4A23701278A2B193
:1034C000134323701D4B1B781BB31D4B93F9003026
:1034D000002BACBF06231E2302331A4923440022CB
:1034E0008B4218D10AB101F065FE174B1B68CBB1B6
:1034F000124A127842B1124A92F90020002ABFBF44
:1035000022786270052222705B680948BDE810408D
:1035100018470623E0E711F8010B0028E0D001323C
:10352000D2B2DDE710BD00BF321A0020421A0020DF
:1035300020170020431A0020F61A0020D81200207D
:10354000061A002022170020EC19002030B1044A8E
:10355000137823EA00001070FFF7A4BF704700BF84
:10356000421A002028B1034B1A7810431870FFF755
:1035700099BF7047421A002030B1044A137823EAF9
:1035800000001070FFF78EBF704700BF321A002096
:1035900028B1034B1A7810431870FFF783BF7047A8
:1035A000321A00200A4A5378C3F38001814210B5D1
:1035B0000DD060F38203537014880420E1B203F04D
:1035C0005BF9210A2220BDE8104003F055B910BD77
:1035D000061A00200E4B73B51E680E4BADF80400A2
:1035E0001B681F241E4326FA04F3DB0706D414F1DC
:1035F000FF34F8D20025284602B070BDE5B201992B
:10360000284602F0F9FD80B20128F0D0F3E700BFB0
:10361000242E0020E819002007B5ADF80400019819
:10362000FFF7D8FF019902F0E7FD03B05DF804FB56
:1036300007B5ADF804000198FFF7EEFFC1B2C0F383
:103640000323C0F303300E3000F00F000D280BD819
:103650000122824012F4105F19D140F20330104071
:1036600004D112F010020BD100200DE0F02902D09D
:1036700003D8E729F8D8012006E0F429F4D1FAE7C5
:10368000E729F8D9F129F6D003B05DF804FBD80892
:10369000FAE700002DE9F047B24F8EB0044600680B
:1036A0000890B88839882278637894F80280B4F852
:1036B00004A0ADF804103D46002800F004818EB24D
:1036C0004FF6FF7E764500F0FE8097F80290B9F144
:1036D000000F00F0F880AAEB000080B2C728B8798C
:1036E00000F2B58010F0F00F72D1764519D08DF848
:1036F00020208DF821303988BDF820608E4210D10D
:103700004646B8F1000F0CD1012363F30710B871DE
:103710003846FDF7C5FCBB79A37130460EB0BDE855
:10372000F0874646BAF1000F49D08DF81C208DF87D
:103730001D30BDF81C004FF6FF7188423FD0002EAF
:1037400040D189488949077809788948B9420FD119
:103750008DF820208DF821300898FFF75DFFC0F329
:103760000332C3B2032A1DD8DFE802F0131321216C
:1037700000EBC10595F801E09E4506D110F831E057
:10378000964502D1AD78002DC7D1013101F0070176
:10379000DCE710F4706F01D0002BBED02033DBB219
:1037A000072BBAD92046FDF77BFC4E46B5E710F44F
:1037B000706FF3D0A27912F0F00FEFD1ADE7B8F14E
:1037C000000FAAD0AB7943F00103AB710026A4E748
:1037D00089B2714514D08DF820208DF821303988B8
:1037E000BDF820608E420BD1B8F1000F08D1A07156
:1037F0002046FDF755FC23683B6063687B60D4E797
:103800008DF820208DF821300898FFF711FFD0B1F6
:10381000B8F1000F17D0AB791F2B0CD92A88ADF85F
:10382000282000228DF82A20ADF82CA08DF82E300B
:103830000AA8FDF735FC23682B6063686B60FFF70F
:10384000E5FD012669E72046FDF72AFCF9E710F0BF
:10385000F00605D13846FDF723FC3E607E605CE74C
:1038600089B2714514D08DF820208DF82130398827
:10387000BDF820608E420BD1B8F1000F08D1A071C5
:103880002046FDF70DFCC7F80080C7F804808CE7E0
:103890008DF820208DF821300898FFF7C9FE002808
:1038A000D1D0B8F1000FCED0AB791F2BC3D92A8865
:1038B000ADF8302000228DF83220ADF834A08DF81C
:1038C00036300CA8B5E72988ADF81410002851D07F
:1038D0008EB24FF6FF77BE424CD0AE78002E49D163
:1038E000AAEB000A1FFA8AFABAF1C70F36D8464681
:1038F000002EA8D089B2B9421ED08DF820208DF8B4
:1039000021302988BDF82000884215D1AB79DA072B
:103910000DD41A090BD0A3711B090F2B1FBFA2795D
:10392000013363F30712A2712046FDF7B9FB236848
:103930002B6063686B60F0E68DF820208DF82130F5
:103940000898FFF775FE00287FF475AFAB79204625
:1039500043F00103AB71FDF7A3FBDEE62E606E6062
:10396000DBE600BF6E1A0020B61A0020B71A00204E
:10397000761A0020B8F1000F3FF465AF8DF82020D3
:103980008DF821300898FFF753FE064600283FF4D3
:103990005AAF23682B60636828886B60FFF73CFE92
:1039A000FFF734FDB9E600BFC0F3072303EB430381
:1039B00013B500EB430000F0FF0000F007040949D5
:1039C000C00800EB80000022014410468B5CE340FD
:1039D00003F00103934001321843052AC0B2F5D128
:1039E00002B010BD451A0020C0F3072303EB4303C8
:1039F00000EB430303F0FF0337B503F00702012098
:103A00009040DB080A4A03EB8303C0B2134400244E
:103A10005D7821FA04F242F300026A400240013468
:103A20006A40052C03F8012FF2D103B030BD00BF6E
:103A3000441A0020832808B5014611D101F0FAFB91
:103A4000C20741D55321214801F01CFBFFF72AFD95
:103A500053211E4801F0F0FABDE80840FFF722BDEF
:103A600084280BD101F0E6FB43072DD547211748E9
:103A700001F008FBFFF716FD4721EAE7031FDBB261
:103A8000A02BE6D900F12003DBB2072B09D8104B9D
:103A900000F0070101208840197821EA000119701F
:103AA000DAE700F15B03DBB2022B04D80020BDE8AB
:103AB000084001F0AFBB5831C9B2162904D8002024
:103AC000BDE8084001F096BB08BD00BF20170020EC
:103AD000321A0020832810B5044615D101F0AAFB44
:103AE000C20772D45321394801F0CCFAFFF7DAFC4F
:103AF0004FF47A7000F050FE5321344801F09CFAE4
:103B0000BDE81040FFF7CEBC84280FD101F092FB36
:103B100043075AD447212D4801F0B4FAFFF7C2FCFD
:103B20004FF47A7000F038FE4721E6E7031FDBB25E
:103B3000A02B26D8264B254A1B789BB1254B93F901
:103B40000030002B0DDA02EBD00200F00701927872
:103B500001238B401A420DD121461C4801F092FAF4
:103B6000CEE70023D1188978A14203D00133062B78
:103B7000F8D1F1E72146154801F05EFAFFF792FC13
:103B8000EAE700F12003DBB2072B08D8124B00F064
:103B90000702012494401A7814431C70B0E700F126
:103BA0005B03DBB2022B05D80C4ABDE81040D05CA9
:103BB00001F030BB5834E4B2162C06D8084B33F869
:103BC0001400BDE8104001F015BB10BD2017002007
:103BD000D8120020061A0020321A0020A8A10008DE
:103BE000ACA1000808B5002001F014FB002001F092
:103BF00001FB044A00231370034A1370BDE8084018
:103C0000FFF750BC421A0020431A0020044A012347
:103C100003FA00F0136823EA00031360FFF7E2BF22
:103C2000242E002010B50B4C94F9002022EA00004D
:103C300040B24107207002D1D2B2824203D1064B7A
:103C40005B785B0705D5C0F3C700FFF7DFFF0023F4
:103C5000237010BD441A0020061A0020044A0123D4
:103C600003FA00F0136818431060FFF7BBBF00BFF2
:103C7000242E002008B5054B054800221A7001F0DB
:103C8000C3F9BDE80840FFF7ADBF00BF321A0020FE
:103C900020170020F0B587B08DE803006846FFF7D5
:103CA000F9FC224E224D044630B1224C287833785C
:103CB000834226D107B0F0BD9DE8030004AB83E842
:103CC0000300BDF80420BDF81010ADF80C10002A58
:103CD000EBD089B24FF6FF729142E6D0377829785F
:103CE0007A1C02F007028A4217D0124C327003CBC2
:103CF00004EBC70E44F83700CEF80410FFF776FB4C
:103D0000D3E704EBC000FFF7C5FC0028D2D02B7826
:103D1000013303F007032B70C8E7FFF7ABFF064B37
:103D200034702C701C605C60C4E700BFB61A0020C1
:103D3000B71A0020761A00206E1A002038B53928EC
:103D400005460CBF50240A2404F0FEFE013C0A2064
:103D5000A4B200F021FD002CF8D12846BDE838407F
:103D600004F0D4BE90F87630074A80F87E3043F0F5
:103D7000800310B5D36443681B6804460BB101216E
:103D800098470323237010BD005C0040036919604D
:103D9000C268013AC260C2691344826903619342F6
:103DA00024BF436A036100238362036B03B1184796
:103DB0007047C368C269013BC360436913448269A9
:103DC0004361934224BF436A436100238362036BD0
:103DD00003B118477047000070B5114E04460D46F8
:103DE000E3683BB123691A1DA262E2691344E362EE
:103DF000002070BD237A6BB97DB1B36962681C6025
:103E00005A60294613600420636004F0B3FB002865
:103E1000E6DA70BD6FF0010070BD4FF0FF30F8E7DB
:103E2000D02A002070B5114E04460D46E3683BB120
:103E30006269131D1268A3621344E362002070BD1F
:103E4000237A6BB97DB1B36962681C605A602946F8
:103E500013600420636004F08DFB0028E6DA70BD77
:103E60006FF0010070BD4FF0FF30F8E7D02A00205E
:103E700038B50C46012511460289A5401543058138
:103E800000EB84000025C2685069128A03609A42E0
:103E900028BF1A4681604560C56002612046A400C3
:103EA00004F1804404F5B84403F020F9236823F4B6
:103EB000F04323F0400383F0300343F4004343F026
:103EC0008003236038BD70B54689012505FA01F4E9
:103ED0003443448100EB8100C468A0698260002201
:103EE00003604260C26093B90582890001F180419C
:103EF00001F5B8410B6823F4904323F0700383F479
:103F0000405343F4004343F080030B6070BD628A6A
:103F1000013B1344B3FBF2F30382E6E770B500EB19
:103F2000810305465069DA600E46144618B1142222
:103F3000002104F051FEA06918B11422002104F000
:103F40004BFE31462846BDE8704004F027BD2023D3
:103F500083F3118802230370C36800221A601A6178
:103F6000D96821F0FF01D96082F311887047000001
:103F700030B5202383F3118803784160012B6AD187
:103F8000404B984219D1404BDA6942F01002DA6195
:103F9000DA691A6942F010021A611A6922F01002F5
:103FA0001A611B69394B702283F836234FF4800263
:103FB000C3F884215A60364B8360364B984219D13E
:103FC000314BDA6942F02002DA61DA691A6942F0AB
:103FD00020021A611A6922F020021A611B692B4B18
:103FE000702283F837234FF40002C3F884215A600B
:103FF000274B8360284B984219D1234B9A6942F48E
:1040000000529A619A69DA6842F40052DA60DA681A
:1040100022F40052DA60DB681C4B702283F82C23F8
:104020004FF48052C3F884215A60194B83601B4BB4
:10403000984210D1144B9A6942F480329A619A697D
:10404000DA6842F48032DA60DA6822F48032DA60C8
:10405000DB680F4B83600A688368B3FBF2F3C268C6
:104060008D68013B00249BB2146055609362CB685D
:10407000146123F0FF03D3600223037084F31188DB
:1040800030BD00BF682A00200010024000E100E0BF
:1040900000A24A04782A0020882A0020102C002040
:1040A00010B52023044683F311880378022B0CD02B
:1040B00003F076FD6069002302226360227020B164
:1040C00063616FF0010104F013F9002383F3118899
:1040D00010BD2DE9F84F04460D4691469A464FF023
:1040E000200888F311880026B346A76A4FB95146C5
:1040F0002046FFF771FE20B187F311883046BDE8F6
:10410000F88FA06AE76AA9EB06033F1A9F4228BF0F
:104110001F46402F1BD905F1400355F8042B40F8EA
:10412000042B9D42F9D1A36A4033A3624036A26AB0
:10413000E36A9A4204D3E16920460439FFF726FE78
:104140008BF311884E45D9D288F31188CDE72946E3
:104150003A4605F009FFA36A3B443D44A3623E444E
:10416000E5E770B5202304460E4683F31188856A7F
:1041700035B91146FFF730FE10B185F3118870BDD7
:10418000A36A1E70A36AE26A01339342A36204D356
:10419000E16920460439FFF7F9FD002080F311881A
:1041A00070BD436902699A4203D1C2680AB1002016
:1041B0007047184650F8043B0B6070472DE9F84FE4
:1041C00004460E4690469946202787F3118800251D
:1041D000AA46D4F828B0BBF1000F09D149462046C1
:1041E000FFF720FE20B18BF311882846BDE8F88F39
:1041F000A16AE36AA8EB050B5B1A9B4528BF9B46A7
:10420000BBF1400F1BD9334601F1400251F8040BBA
:1042100043F8040B9142F9D1A36A40334036A362BC
:104220004035A26AE36A9A4202D32046FFF7C1FDF5
:104230008AF311884545D8D287F31188C9E73046FB
:104240005A4605F091FEA36A5B445E44A3625D4456
:10425000E7E770B52023044683F31188866A3EB9E8
:10426000FFF7E0FD054618B186F31188284670BDBA
:10427000A36AE26A13F8015BA362934202D3204669
:10428000FFF797FD002383F31188EFE7202383F3E3
:104290001188104B5B6813F4006317D0F1EE103AED
:1042A000EFF30983683B4FF08072DA610A4AD26803
:1042B0001A6683F30988094A1168926989689268C5
:1042C00091428CBF064A074A9A61704783F311886E
:1042D000704700BF00ED00E030EF00E0D02A002082
:1042E0006F03000872030008EFF3098305494A6869
:1042F00022F001024A60683383F30988002383F3C4
:104300001188704730EF00E0F8B5046806460D46A6
:104310000027B44200D1F8BDE3682B43E36015B138
:1043200023691D420BD06068A368426B134390F869
:10433000202043630A2A04D1426A134207D1246829
:10434000E7E70B2AFBD1426A32EA0303F7D147625F
:1043500003F0BCFFF3E700000D4A0E4B516FC2683B
:104360005B680132C260826830B5D0E904459B1AAF
:104370005B1A42688360E41845F1000593420268C5
:1043800088BF43609342C0E9044538BF036030BD35
:10439000D02A0020001000E0014B5B68836070476A
:1043A000001000E038B504460D462068844200D174
:1043B00038BD036823605C60456203F087FFF4E763
:1043C00003682BB1002202605962184603F07EBFD9
:1043D00070470000F8B590F86430044613B100232C
:1043E00080F86430B94B1B6D03F1804303F5C04383
:1043F00003EB011304F174029B6803F1005303F50E
:1044000040535B0003F1100153F8040B22F8020B38
:104410008B42F9D163689B68002B38D194F87430D3
:1044200013F0600514D194F8752003F07F0343EA7C
:10443000022340F20232934200F0608167D8022BDF
:1044400000F007814BD8002B7FD0012B00F0FB80C0
:104450009E490B6823F4F04323F0400383F01002DD
:1044600048F2800002430A600B6823F4904323F073
:10447000700383F4805303430B6063681B6813B1BC
:10448000062120469847062384F86430F8BD20466C
:1044900098470028C2D094F87B2094F87A3043EAF9
:1044A0000223E26E934238BFE36694F97430E56EFE
:1044B000002B4FF0200380F25181002D00F040814D
:1044C000092284F8642083F311880021E36EA26E30
:1044D0002046FFF7CDFC002383F31188F8BDB3F528
:1044E000817F00F0D180B3F5407F35D0B3F5807F78
:1044F000AED194F87630012BAAD1B4F87C3023F0F9
:104500000203A4F87C30A566E5662567C3E740F2A0
:104510000162934209D8B3F5C06F27D2B3F5A06FFB
:1045200096D1A566E5666A4B14E0B3F5106F33D0FB
:1045300040F60242934200F08680B3F5006F87D1C7
:1045400004F17F03A366012324E004F17C02A26648
:104550000222E26623679EE794F87630012B7FF40F
:1045600077AFB4F87C3043F00203CAE794F87920BF
:10457000616894F878304E6894F8771043EA022323
:10458000204694F87620B04700283FF461AF436896
:10459000A3660368E366B8E72378042B42D120239F
:1045A00083F31188238903F001032381638903F0D6
:1045B0000103638104F1100604F12C07336873B121
:1045C000586920B16FF001010C30FFF7F9FE336834
:1045D000986920B16FF001010C30FFF7F1FE46F849
:1045E000045BB742EAD14023C4F88430012248F288
:1045F0008000930003F1804303F5B843013219684A
:10460000082A41EA000119601860F2D1002383F3FF
:104610001188032184F87F30636821701B680BB117
:104620002046984794F876304BB184F87F300423C5
:10463000237063681B6813B102212046984700234A
:10464000A366E36686E7234BA3660223E3660023A3
:1046500080E794F878201D4912F0800F02F00F02D5
:10466000D2B251F8222008D012F030023FF4F0AE5E
:10467000102A00F08C80184A8AE012F440523FF46D
:10468000E7AEB2F5805FF4E794F87630002B7FF464
:10469000DFAE94F8782012F00F03D0D01BB29B004D
:1046A00003F1804303F5B84312F0800F1A6815D068
:1046B00002F03002302AC2D01A6822F4F04222F00E
:1046C000400282F0200242F4004213E0005C00400D
:1046D000653D0008DEA10008DAA1000802F440529E
:1046E000B2F5405FABD01A6822F4F04222F04002EB
:1046F00042F4204242F080021A60A0E794F876303B
:10470000002B7FF4A5AE94F8782012F00F0396D01A
:104710001BB29B0003F1804303F5B84312F0800FF6
:104720001A6815BF22F4F04222F4904222F04002AF
:1047300022F0700214BF82F0100282F48052C2E7AD
:10474000142284F8642083F311882B462A462946D4
:104750002046FFF7B8FB85F31188F8BD5DB115223F
:1047600084F8642083F311880021E36EA26E204652
:10477000FFF7A9FBAFE60B2284F8642083F31188CE
:104780002B462A4629462046FFF772FBE3E7014AFB
:10479000A266FFE6DCA1000808B50146202383F3EA
:1047A0001188082003F0E6FE002383F3118808BD7A
:1047B00038B5202383F311880E4B9C69606204F1A5
:1047C0002805A06AA84210D194F8223043B994F881
:1047D00021309B0704D1636922691A612269536100
:1047E0000F20BDE8384003F051BD0368A36203F019
:1047F0006DFDE6E7D02A0020704770477047000043
:10480000014B1878704700BFD51A002090F87A3015
:10481000022B054B1A7804D102F0FB02012A02D1C7
:104820005A78024B1A707047F81A0020D51A0020E7
:1048300010B5084A084C117824784B1C03F00F037C
:104840009C421FBF054C13706054012008BF00201C
:1048500010BD00BF031A0020041A0020F319002025
:1048600042EA012109B2C1F30722032A1ED006D869
:10487000012A0FD0022A16D000231A460CE0212A62
:104880001DD0222AF8D1022BF6D8104A104952F82E
:10489000232012E00F4A12230F48002A42600360CF
:1048A00008BF002070475B230C4AF5E7C9B2022914
:1048B000E2D80B4B53F821200A4BCB5CECE7022BE0
:1048C000DAD8094A52F823200923E5E7FCA10008B9
:1048D00008A2000866A20008B81A00200BA200086F
:1048E000E0A10008ECA10008F0A1000807B5202312
:1048F000024683F3118809480178042905D0002372
:1049000083F3118803B05DF804FB0323ADF80520A1
:1049100001AA8DF80430FFF7ABFAF0E7542D002020
:1049200007B50346202282F311880948017804293B
:1049300005D0002383F3118803B05DF804FBADF8C4
:10494000053001AA03238DF80410FFF791FAF0E770
:10495000542D002070B52023044683F31188234D85
:104960002B78042B2E4628D1214B93F90030002BB5
:1049700027DA204B1B7823B32B89DA0610D42023A7
:10498000224604211948FFF773FA1B4B224604F113
:10499000200152F8040B43F8040B8A42F9D10CE0D1
:1049A000EB69164A5B69926943F80C2F0320536246
:1049B00003F06CFC2B78042BE1D0002383F31188E7
:1049C00070BD33899B0703D4082322460121D9E710
:1049D00033690A4A5B69926943F80C2F03205362DA
:1049E00003F054FC3378042BE7D1EDE7542D00207D
:1049F000061A0020D8120020D61A0020D02A002043
:104A0000F8B50546202383F311880378042B03D0DF
:104A1000002383F31188F8BD144B1B78DB09F7D111
:104A2000134C2278002AF3D0124B1B78002BEFD0C6
:104A300003899B0704D408230F4A0121FFF718FAC2
:104A4000207842F21073A0FB030140F2E736801990
:104A50004FF000074FF47A724FF000037941FCF7F2
:104A600043F92946800003F037FFD1E7061A0020FA
:104A7000D41A0020D8120020D61A0020F8B590F8D9
:104A8000743003F07F02212A044679D113F08002AA
:104A900026D0002A74D090F8750002281AD0032876
:104AA0000ED001286CD194F878302BB9534AA26605
:104AB0002022E2662367F8BD0023A366E366F9E7D8
:104AC000B4F87820002A5BD14D4BA3660120E06644
:104AD0002267F8BD4B4BA3660120E0660023E9E79F
:104AE00090F875200A2A42D00B2A0ED0092A47D105
:104AF00090F878200AB1022A42D1434BA3660223E0
:104B0000E366424B23670120F8BDB0F8783053BB11
:104B100090F876503A4B002D14BF012100211970F6
:104B20003B4B1A7861F3C7121A701CD1354B1A78B7
:104B3000CAB1202282F31188187842F21073A0FBC8
:104B4000030140F2E73680194FF000074FF47A7204
:104B50004FF000037941FCF7C7F82146800003F0CD
:104B6000BBFE85F311880023A366E366CAE72849E4
:104B7000244B097890F877201A70CD09D8D0F2E745
:104B8000B4F8741040F28162914216D194F8792001
:104B9000616894F878304D6894F8771043EA0223FE
:104BA000204694F87620A84708B90020F8BD43684D
:104BB000A3660368E3660023A4E7164A92F8B620CA
:104BC000002AF2D003F06003202BEED194F8753068
:104BD000212B0BD0222B4FF000000BD0202B93D198
:104BE0000D4BA3660723E36620678CE70A4BA36699
:104BF0000723DFE7A066E066F6E700BFD61A0020CD
:104C0000D8120020D41A0020F81A00200D480008FD
:104C1000061A002084110020D912002073B5202329
:104C200083F311882C4CD4F850311A681178042978
:104C300012D194F8DC1002290ED1197912890123BE
:104C40008B40134208D1D4F82831D4F82C21934258
:104C500002D1D4F8242122B9002383F3118802B0B1
:104C600070BDD4F84021002AF6D0043AD21AF3D00D
:104C70001A60D4F824211948013AC4F82421D4F840
:104C800034211344D4F83021C4F82831934224BF8E
:104C9000D4F83C31C4F82831002601A9C4F8406199
:104CA000FFF77FFAD4F850311A7E054652B10198C9
:104CB0001A693146121A284403F08EFFD4F8503195
:104CC0001B690193D4F85001019B017900682A46C1
:104CD000FFF7CEF8C0E700BF841100209C1200202F
:104CE00038B50546052900F28F80DFE801F05C8DBC
:104CF000035C5979202383F31188444C444A0121F1
:104D0000FFF70CF9434A04212846FFF707F904F19D
:104D1000440294F8B4102846FFF700F994F8B5104F
:104D200004F168022846FFF7F9F894F8B61021B1AB
:104D300004F18C022846FFF7F1F80025D4F804317D
:104D4000C4F8F430C4F8F030C4F8EC50C4F808519A
:104D5000C4F80C516FF001012F48FFF723FBD4F882
:104D60003831C4F82431D4F83C31C4F82C31C4F8BB
:104D7000283184F8E850C4F84051C4F844516FF029
:104D800001012648FFF70EFB012184F82051244839
:104D9000FFF7BAFA234803F02CFC85F3118838BDDD
:104DA0000420FFF745FD202383F31188174C1C488E
:104DB00001250221FFF7A8FA04F1E00084F8E85089
:104DC0006FF00101FFF7EEFA84F820516FF0010156
:104DD00004F58C70FFF7E6FA002383F3118838BDE1
:104DE000202383F3118801210D48FFF78DFA074A2C
:104DF000002382F8E83082F8203183F311880520FF
:104E0000BDE83840FFF714BD38BD00BF8411002055
:104E100014A4000838A40008641200209C1200208A
:104E20005C12002058120020404A414B52F8041CEA
:104E3000994210B50DD1002342F8043C83F3148845
:104E40003C4B1B6883F3088862B63B4B1B68984752
:104E5000FEE73A4C3A49A36A43F4FC03A362A36A0F
:104E600023F4FC03A362A36A636943F4FC03636154
:104E70004FF09040636903F081FD3249324803F0FE
:104E80007DFD3249324803F079FD3249324803F062
:104E900075FD3249324803F071FD3249324803F062
:104EA0006DFD236843F00103236023461A689407CD
:104EB000FCD55A6822F003025A605A6812F00C02BC
:104EC000FBD1196801F0F90119605A601A6842F4BF
:104ED00080321A601A689003FCD55A6A42F00102C7
:104EE0005A625A6A9107FCD5204A5A604FF404521C
:104EF000DA6230221A631A6842F080721A601A6805
:104F00009201FCD51A4A12211160116801F00701C3
:104F10000229FAD15A6842F002025A605A6802F035
:104F20000C02082AFAD11A6B1A6310BD00A00020E7
:104F3000EFBEADDE00D8FF1F04D8FF1F00100240F7
:104F40006CA3000888A3000800040048A4A300087C
:104F500000080048C0A30008000C0048DCA30008BB
:104F600000100048F8A300080014004800241D00A9
:104F700000200240074B084A1A60BFF34F8F0749D1
:104F8000074BCA6802F4E0621343CB60BFF34F8F54
:104F900000BFFDE7FC9F0020EFBEADDE00ED00E0AE
:104FA0000400FA0538B5202383F31188124B002240
:104FB0005B6A82F31188114A114811689BB29942C9
:104FC00088BF016813600F4A84BF01F5803101601A
:104FD00011685B1A016842F20F7419444FF47A7039
:104FE0000025E0FB014542F21072002320462946CD
:104FF000FBF77AFE38BD00BF00040040081A00200D
:10500000241A0020341A0020094B1A78831C4AB154
:10501000084A92F90020002A04DA1E2200211846CC
:1050200003F0DABD0022C0F802209A80704700BF6A
:10503000D8120020061A002010B5104B1B788BB137
:105040000F4B93F90030002B0CDACB081D2B13D833
:10505000184401F0070101238B40817821EA030104
:10506000817010BD831C002208301C788C4208BF60
:105070001A7001338342F8D110BD00BFD81200204E
:10508000061A002030B5164B1B7883B1154B93F9E7
:105090000030002B0BDACB081D2B1DD8184401F073
:1050A00007030121994083781943817030BD851C25
:1050B0004FF0FF33002215F8014BA1420CD0B3F1A1
:1050C000FF3F02D1002C08BF13460132D4B2062C98
:1050D00062B2F0D15A1C00D130BD1844E5E700BFE0
:1050E000D8120020061A0020064B187802331B78CD
:1050F00040EA032000B210F58B7F14BF002001208E
:10510000704700BF00E0030810B501F0BBFCEA21C6
:10511000002001F0B1FBFE21012001F0ADFB0021D8
:10512000022001F0A9FB00210320002401F0A4FBD0
:105130001F4B214604201C6001F09EFB21462220CB
:1051400001F09AFB2146052001F096FB214606203E
:1051500001F092FBFF21072001F08EFB2146082081
:1051600001F0DCFB21460D2001F086FB21461820D2
:1051700001F0D4FB2146172001F07EFB21461C20C4
:1051800001F0CCFB2146202001F076FB21462120B6
:1051900001F072FB2146182001F0C0FB21460F20D0
:1051A00001F0BCFB21461320BDE8104001F0B6BB66
:1051B000E8190020024B1A780AB100221A707047D1
:1051C000F61A002070470000044B1A791868022A6A
:1051D0009CBF01321A7101F0DFBB00BF381A0020FA
:1051E000034B1A790AB1013A1A71186801F0D4BB5D
:1051F000381A0020054B1988814205D01880044BCD
:105200001B680BB11B691847704700BF141B0020B7
:10521000EC190020054B1988814205D01880044BF9
:105220001B680BB1DB681847704700BF1A1B0020D2
:10523000EC190020024B186808B103681847704742
:10524000EC19002070B50B4C237893B130B10A4EA5
:10525000002322785D1CDBB29A4202D8002323701F
:1052600070BD36F8130001F06FF9FEF71BF92B46FD
:10527000EFE770BDBC160020C41600202DE9F843EE
:105280001E4C1F4F4FF0000806464246254657F871
:105290002800DFF8749020F00F0300F00F001B6966
:1052A00018F809E0C34003F00100DB4303F00103F9
:1052B0009E455FFA88F108F8043000D11EB169B14B
:1052C000012914D0012208F10108B8F1040FDED140
:1052D00012B12B68C9F80030BDE8F88318B9032073
:1052E000FEF7BCFCEEE70320FEF790FCEAE7054B77
:1052F00008B91970E6E700221A70E3E7101B0020D6
:1053000028A10008661B0020161B002010B540F2E3
:105310000724A0B20021013401F0AEFAB4F5806F89
:10532000F7D110BD2DE9F04F1B4B85B000261FFAB9
:1053300086F9B71E09F127021F44002401921CE0E0
:105340003AF802BF0393A8184FEA1B2180B20292D9
:1053500001F092FA05EB080002355FFA8BF180B29A
:10536000ADB201F089FA0C2D029A039BE8D10C34FE
:10537000A4B2782C07F10C0707D0019A09F128088C
:10538000BA460025A218A044DAE77836B6F5F07FD1
:10539000CDD105B0BDE8F08F62A4000838B5520049
:1053A0000C2505FB0121782505FB001505F12700DB
:1053B00001F05AFA000284B205F1280001F054FA13
:1053C000204380B238BD82B00328ADF804100AD85B
:1053D0009DF80510092906D89DF80420052A02D851
:1053E00002B0FFF7DBBF002002B07047C1B2262039
:1053F00001F042BA074B1A7812F0010318BF5308A4
:10540000984203D8994201D901F01ABB012101F059
:10541000CDBA00BF381A002000B11047084700007D
:10542000F8B5744B1B7813F001036DD0724E734DB9
:105430003378002B40F0A3800C2245F82320013361
:10544000D82BFAD100231C46EA180433B3F5607F49
:10545000C2F86043F8D19A2202214FF0904002F046
:1054600083F9202787F3118800231A460A21012097
:1054700002F00CFA84F3118861498B6903F1380258
:10548000604B9A604FF4DC72DD605A6043F6B022E4
:105490001A601A6842F001021A6087F311885A4BA9
:1054A0004B604FF4E1738B600B78012B0A4640F0A0
:1054B0009280564BD86940F00100D861D8691869CC
:1054C00040F001001861186920F0010018611869A6
:1054D0004F48702480F81C434FF08054C0F880413E
:1054E00004604C4848614C48814217D1DA6942F067
:1054F0000402DA61DA691A6942F004021A611A696F
:1055000022F004021A611B6944481A46C1184A7005
:105510001A5403331B2B8A70F8D187E78B6946F640
:1055200068019961D96101F1807101F58031596596
:1055300053693B49B3FBF1F3591E9369996240F2F9
:10554000C111D9621020002159604FF48074186293
:10555000012058611961DC6085241C600223D16040
:10556000137081F31188202383F31188D36843F0EB
:105570000203D3609369996381F3118830702748DF
:105580000023C218591C1F5C92F801E0967805EBC5
:10559000411100224EFA02F414F0010F0CBF0C244A
:1055A0001C24CC6147FA02F414F0010F0CBF0C2448
:1055B0001C2441F8044D46FA02F414F0010F02F1E4
:1055C00001020CBF0C241C24082A0C64E2D1033312
:1055D0001B2BD6D1F8BD8B691C60097C5C63042948
:1055E0004FF000019C63DC631C6484BF9C65DC6538
:1055F00059629DE7381A0020681B00206C1B0020B0
:10560000982A00201C00024070A7000800100240E9
:1056100000E100E000A24A04B42A00201C1B002084
:105620000051250230B4064D0023EC186070595526
:1056300003331B2BA270F8D130BCFFF7F1BE00BFC3
:105640001C1B002007B501AB01F0B6F8074B1B7817
:10565000DB0707D59DF806209DF804109DF805008E
:10566000FFF7E0FF03B05DF804FB00BF381A00202D
:10567000084B1A78D20710B5044606D502790649B8
:1056800058788A5C9978FFF7DDFF2379013323711D
:1056900010BD00BF381A00206DA60008074B1A780D
:1056A000D20710B5044604D5DA7899780079FFF767
:1056B000C9FF23790133237110BD00BF381A0020C0
:1056C00037B5184C0546207838B9FF2201AB114692
:1056D00001F072F89DF8053023702B79012B09D069
:1056E00004D3022B1AD00022104601E020780022B9
:1056F000114602E00022217810460B4B1B78DB0795
:1057000001D5FFF78FFF2B790322013393FBF2F2D0
:1057100002EB42029B1A2B7103B030BD00202278AD
:105720000146EAE7651B0020381A00202DE9F04702
:10573000012390F80280344C344DDFF8D4A0DFF818
:10574000D490077903710026B8F1020F9FBF6B78E0
:105750002370AB78637087B9E770A770A27861781F
:1057600014F8050B09EB0603033601F025F81B2E90
:10577000EAD1BDE8F047FFF753BEE378BBB1013B88
:10578000DBB22279E370C3EB032393FBF2F3DBB2CA
:10579000BB221AF80330223BDBB2C3EB032393FB9B
:1057A000F2F3EA78DBB253431B12A370D6E703F09F
:1057B0001BFAEB785B0803F17F024FF4017353434C
:1057C000C3F307239842C9DAB8F1020F10D903F0E6
:1057D0000BFAFF2390FBF3F31844207003F004FA54
:1057E000AB785B0890FBF3F202FB13000344637099
:1057F0000023A370EB78C82B28BFC823142B38BF15
:1058000014232371E370A9E7371B0020381A002006
:105810006DA600081C1B0020F8B50F4F0F4C064664
:10582000002505EB4503032D3B44327910DC8AB19A
:10583000E278A1786078013500F0BEFF092DF0D143
:10584000FFF7EEFD3379013303F001033371F8BD47
:10585000002AEDD00022ECE71C1B0020381A0020A3
:105860002DE9F8430379DFF8909013FB03F25A43D4
:10587000C3F12003552503FB03F103FB012355432B
:10588000B5FBF3F5EDB2292D88BFC5F155044FF0F6
:10589000020394BFA5EB8504A4EB8404C5F155086D
:1058A00094FBF3F4013C0646E4B200275FFA88F863
:1058B0000F49BB0707EB470354BF404628464B44FC
:1058C00022468978013700F077FF092FF0D1FFF7E2
:1058D000A7FD3379074A33B90121117012781344B7
:1058E0003371BDE8F883202BF8D1FF21F5E700BF25
:1058F000381A0020E21200201C1B00202DE9F04184
:1059000000231E481A46C1184A701A5403331B2B31
:105910008A70F8D11A4F194CDFF86C8000253E468A
:1059200097F900309D4224DB98F900309D4220DC3D
:1059300014482346C2788178407800F03DFF013555
:10594000092D04F10304EBD1FFF76AFD0E4C0F485B
:105950002278017833780A4452B20B445BB2002AB1
:105960003370227001DD072B01DD49420170BDE873
:10597000F081002363702370A370E0E71C1B0020FC
:10598000641B0020381A0020E0120020E1120020E1
:105990002DE9F74F8378DFF8B8B02C4EDFF8B490DC
:1059A00013F0010F0CBF4FF0010A4FF0FF3A002433
:1059B0005F4600255FFA8AF375703570B570019304
:1059C0004FF004089BF800202A44D2B253B2092BAE
:1059D0002CDD092293FBF2F202EBC2029B1A5BB2AE
:1059E0009C420CD199F8032099F8021099F8010013
:1059F00008FB02F23346C2F3870200F0DDFE019B92
:105A0000B8F101081D44EDB2DCD10134092C06F1D6
:105A10000306CED1FFF704FDBAF1010F3B780CD19C
:105A20004BB908233B7003B0BDE8F08F002BD7DAE9
:105A300002F10903D3E7013BF4E7013393FBF4F4EC
:105A400004EBC4041C1B3C70EDE700BF1C1B0020D2
:105A5000671B0020381A0020F8B50F4E0F4F05467F
:105A600000242879FA78B97820441C343346C0B22F
:105A7000E4B200F0A1FEFC2C06F10306F1D1FFF721
:105A8000CFFCAB7813F0010F2B7914BF013303F176
:105A9000FF332B71F8BD00BF1C1B0020381A0020FB
:105AA0002DE9F04F314C267885B0F5070746894639
:105AB0009046019322D573082D4DDFF8C0E0ED5CD0
:105AC0008EF8005006F0FE06022E1AD103AB00F04D
:105AD00073FE2378DB0707D59DF80E209DF80C1088
