:020000040800F2
:10000000000400203D0300083F0300083F030008F0
:100010003F0300083F0300083F0300083F030008B8
:100020003F0300083F0300083F030008A16B0008DE
:100030003F0300083F0300083F0300083F03000898
:100040003F0300083F0300083F0300083F03000888
:100050003F0300083F030008ED7400082D750008F9
:1000600071750008B5750008F9750008C97D0008AC
:10007000DD7D0008F17D0008057E0008197E00087E
:100080002D7E0008417E00083F0300083F03000862
:100090003F0300083F0300083F0300083D760008C7
:1000A0004178000855780008597800085D78000804
:1000B0006D86000889820008818600082580000876
:1000C000358100083F0300083F0300083F03000894
:1000D0003F0300083F0300083F0300083F030008F8
:1000E000257700083F0300083F0300083F0300088E
:1000F0007D8400083F0300083F0300083F03000819
:100100003F0300083F0300083F0300083F030008C7
:100110003F0300083F030008558400086984000875
:10012000557E0008697E00087D7E0008917E0008EB
:10013000A57E00083F0300083F0300083F030008B6
:100140003F0300083F0300083F0300083F03000887
:100150003F0300083F0300083F0300083F03000877
:100160003F0300083F0300083F030008D186000852
:100170003F0300083F0300083F0300083F03000857
:100180003F0300083F0300083F0300083F03000847
:100190003F0300083F0300083F0300083F03000837
:0801A000D5010008B1010008BF
:1001B00010B5054C237833B9044B13B10448AFF3A1
:1001C00000800123237010BD1014002000000000E7
:1001D00020AF00080C4B43B10C480D4910B5AFF3EC
:1001E00000800C48036823B910BD0A48036833B97E
:1001F0007047094B002BF7D0BDE810401847064B5D
:10020000002BF5D0184700BF0000000020AF000809
:1002100014140020101400200000000072B63948A9
:1002200080F30888384880F3098838484EF608512A
:10023000CEF20001086040F20000CCF200004EF661
:100240003471CEF200010860BFF34F8FBFF36F8FA0
:1002500040F20000C0F2F0004EF68851CEF20001EC
:100260000860BFF34F8FBFF36F8F4FF00000E1EED8
:10027000100A4EF63C71CEF200010860062080F3B1
:100280001488BFF36F8F06F049F906F069F84FF054
:1002900055301F491B4A91423CBF41F8040BFAE715
:1002A0001C49194A91423CBF41F8040BFAE71A492C
:1002B0001A4A1B4B9A423EBF51F8040B42F8040BFA
:1002C000F8E700201749184A91423CBF41F8040B57
:1002D000FAE706F027F906F022F9144C144DAC4267
:1002E00003DA54F8041B8847F9E706F047F8114C85
:1002F000114DAC4203DA54F8041B8847F9E706F0C5
:100300000FB9000000040020000C002000000008CD
:10031000000000200004002020AF0008000C002096
:100320001014002010140020142B0020A00100083D
:10033000A4010008A4010008A80100086EE700F06D
:1003400000F8FEE72DE9F04F2DED108AC1F80CD032
:10035000C3689D46BDEC108ABDE8F08F002383F38F
:1003600011882846A047002006F08AFBFEE706F029
:10037000EFFA00DFFEE7000081F0004102E000BF7D
:1003800083F0004330B54FEA41044FEA430594EA55
:10039000050F08BF90EA020F1FBF54EA000C55EA90
:1003A000020C7FEA645C7FEA655C00F0E2804FEA61
:1003B0005454D4EB5555B8BF6D420CDD2C4480EA43
:1003C000020281EA030382EA000083EA010180EA73
:1003D000020281EA0303362D88BF30BD11F0004FC1
:1003E0004FEA01314FF4801C4CEA113102D04042F7
:1003F00061EB410113F0004F4FEA03334CEA133332
:1004000002D0524263EB430394EA050F00F0A78049
:10041000A4F10104D5F1200E0DDB02FA0EFC22FA44
:1004200005F2801841F1000103FA0EF2801843FA38
:1004300005F359410EE0A5F120050EF1200E012A29
:1004400003FA0EFC28BF4CF0020C43FA05F3C01867
:1004500051EBE37101F0004507D54FF0000EDCF1E0
:10046000000C7EEB00006EEB0101B1F5801F1BD389
:10047000B1F5001F0CD349085FEA30004FEA3C0C8D
:1004800004F101044FEA445212F5800F80F09A8083
:10049000BCF1004F08BF5FEA500C50F1000041EB87
:1004A000045141EA050130BD5FEA4C0C404141EB8B
:1004B000010111F4801FA4F10104E9D191F0000FB2
:1004C00004BF01460020B1FA81F308BF2033A3F135
:1004D0000B03B3F120020CDA0C3208DD02F1140C2C
:1004E000C2F10C0201FA0CF021FA02F10CE002F167
:1004F0001402D8BFC2F1200C01FA02F120FA0CFC60
:10050000DCBF41EA0C019040E41AA2BF01EB0451A8
:10051000294330BD6FEA04041F3C1CDA0C340EDCA6
:1005200004F11404C4F1200220FA04F001FA02F3E9
:1005300040EA030021FA04F345EA030130BDC4F1A7
:100540000C04C4F1200220FA02F001FA04F340EA9C
:100550000300294630BD21FA04F0294630BD94F04D
:10056000000F83F4801306BF81F480110134013D34
:100570004EE77FEA645C18BF7FEA655C29D094EAA5
:10058000050F08BF90EA020F05D054EA000C04BF23
:100590001946104630BD91EA030F1EBF002100200E
:1005A00030BD5FEA545C05D14000494128BF41F0AD
:1005B000004130BD14F580043CBF01F5801130BD11
:1005C00001F0004545F0FE4141F470014FF000009C
:1005D00030BD7FEA645C1ABF194610467FEA655C4D
:1005E0001CBF0B46024650EA013406BF52EA0335EF
:1005F00091EA030F41F4002130BD00BF90F0000FDD
:1006000004BF0021704730B54FF4806404F1320418
:100610004FF000054FF0000150E700BF90F0000FD1
:1006200004BF0021704730B54FF4806404F13204F8
:1006300010F0004548BF40424FF000013EE700BFC8
:1006400042004FEAE2014FEA31014FEA02701FBF58
:1006500012F07F4393F07F4F81F06051704792F02A
:10066000000F14BF93F07F4F704730B54FF46074A4
:1006700001F0004521F0004120E700BF50EA0102EF
:1006800008BF704730B54FF000050AE050EA01029C
:1006900008BF704730B511F0004502D5404261EB0C
:1006A00041014FF4806404F132045FEA915C3FF44D
:1006B000DCAE4FF003025FEADC0C18BF03325FEAE6
:1006C000DC0C18BF033202EBDC02C2F1200300FA9B
:1006D00003FC20FA02F001FA03FE40EA0E0021FAC0
:1006E00002F11444C1E600BF70B54FF0FF0C4CF4AA
:1006F000E06C1CEA11541DBF1CEA135594EA0C0F60
:1007000095EA0C0F00F0DEF82C4481EA030621EA9A
:100710004C5123EA4C5350EA013518BF52EA0335D5
:1007200041F4801143F4801338D0A0FB02CE4FF087
:100730000005E1FB02E506F00042E0FB03E54FF0B7
:100740000006E1FB03569CF0000F18BF4EF0010EAF
:10075000A4F1FF04B6F5007F64F5407404D25FEAAB
:100760004E0E6D4146EB060642EAC62141EA55515E
:100770004FEAC52040EA5E504FEACE2EB4F1FD0CA0
:1007800088BFBCF5E06F1ED8BEF1004F08BF5FEA1E
:10079000500E50F1000041EB045170BD06F00046D0
:1007A00046EA010140EA020081EA0301B4EB5C047D
:1007B000C2BFD4EB0C0541EA045170BD41F4801175
:1007C0004FF0000E013C00F3AB8014F1360FDEBF9A
:1007D000002001F0004170BDC4F10004203C35DA76
:1007E0000C341BDC04F11404C4F1200500FA05F3F9
:1007F00020FA04F001FA05F240EA020001F000429A
:1008000021F0004110EBD37021FA04F642EB06010F
:100810005EEA430E08BF20EAD37070BDC4F10C0439
:10082000C4F1200500FA04F320FA05F001FA04F2FD
:1008300040EA020001F0004110EBD37041F10001E9
:100840005EEA430E08BF20EAD37070BDC4F12005F4
:1008500000FA05F24EEA020E20FA04F301FA05F25C
:1008600043EA020321FA04F001F0004121FA04F204
:1008700020EA020000EBD3705EEA430E08BF20EAD4
:10088000D37070BD94F0000F0FD101F0004640000E
:1008900041EB010111F4801F08BF013CF7D041EA90
:1008A000060195F0000F18BF704703F00046520094
:1008B00043EB030313F4801F08BF013DF7D043EA65
:1008C0000603704794EA0C0F0CEA135518BF95EA1B
:1008D0000C0F0CD050EA410618BF52EA4306D1D1A2
:1008E00081EA030101F000414FF0000070BD50EAC1
:1008F000410606BF1046194652EA430619D094EA4B
:100900000C0F02D150EA013613D195EA0C0F05D134
:1009100052EA03361CBF104619460AD181EA030188
:1009200001F0004141F0FE4141F470014FF0000040
:1009300070BD41F0FE4141F4780170BD70B54FF0DB
:10094000FF0C4CF4E06C1CEA11541DBF1CEA13555B
:1009500094EA0C0F95EA0C0F00F0A7F8A4EB05043D
:1009600081EA030E52EA03354FEA013100F0888034
:100970004FEA03334FF0805545EA131343EA1263FD
:100980004FEA022245EA111545EA10654FEA0026B2
:100990000EF000419D4208BF964244F1FD0404F56B
:1009A000407402D25B084FEA3202B61A65EB0305C7
:1009B0005B084FEA32024FF480104FF4002CB6EB84
:1009C000020E75EB030E22BFB61A754640EA0C0004
:1009D0005B084FEA3202B6EB020E75EB030E22BF44
:1009E000B61A754640EA5C005B084FEA3202B6EB85
:1009F000020E75EB030E22BFB61A754640EA9C0044
:100A00005B084FEA3202B6EB020E75EB030E22BF13
:100A1000B61A754640EADC0055EA060E18D04FEAD1
:100A2000051545EA16754FEA06164FEAC30343EA71
:100A300052734FEAC2025FEA1C1CC0D111F4801F3E
:100A40000BD141EA00014FF000004FF0004CB6E737
:100A500011F4801F04BF01430020B4F1FD0C88BFD6
:100A6000BCF5E06F3FF6AFAEB5EB030C04BFB6EBE1
:100A7000020C5FEA500C50F1000041EB045170BDD4
:100A80000EF0004E4EEA113114EB5C04C2BFD4EB01
:100A90000C0541EA045170BD41F480114FF0000E85
:100AA000013C90E645EA060E8DE60CEA135594EA01
:100AB0000C0F08BF95EA0C0F3FF43BAF94EA0C0F04
:100AC0000AD150EA01347FF434AF95EA0C0F7FF479
:100AD00025AF104619462CE795EA0C0F06D152EACD
:100AE00003353FF4FDAE1046194622E750EA4106B1
:100AF00018BF52EA43067FF4C5AE50EA41047FF4C2
:100B00000DAF52EA43057FF4EBAE12E74FF0FF3C26
:100B100006E000BF4FF0010C02E000BF4FF0010CF7
:100B20004DF804CD4FEA410C7FEA6C5C4FEA430C70
:100B300018BF7FEA6C5C1BD001B050EA410C0CBFBF
:100B400052EA430C91EA030F02BF90EA020F002021
:100B5000704710F1000F91EA030F58BF994208BF88
:100B600090422CBFD8176FEAE37040F00100704745
:100B70004FEA410C7FEA6C5C02D150EA013C07D19C
:100B80004FEA430C7FEA6C5CD6D152EA033CD3D0E7
:100B90005DF8040B704700BF8446104662468C46E1
:100BA0001946634600E000BF01B5FFF7B7FF002814
:100BB00048BF10F1000F01BD4DF808EDFFF7F4FF3D
:100BC0000CBF012000205DF808FB00BF4DF808EDC8
:100BD000FFF7EAFF34BF012000205DF808FB00BFEB
:100BE0004DF808EDFFF7E0FF94BF012000205DF80D
:100BF00008FB00BF4DF808EDFFF7CEFF94BF0120C2
:100C000000205DF808FB00BF4DF808EDFFF7C4FFBA
:100C100034BF012000205DF808FB00BF4FEA410C03
:100C20007FEA6C5C02D150EA013C0AD14FEA430CE6
:100C30007FEA6C5C02D152EA033C02D14FF0000023
:100C400070474FF0010070474FEA4102B2F1E043B4
:100C500024BFB3F5001CDCF1FE5C0DD901F0004CA3
:100C60004FEAC0024CEA5070B2F1004F40EB8300F3
:100C700008BF20F00100704711F0804F21D113F11F
:100C80003872BCBF01F00040704741F480114FEA58
:100C90005252C2F11802C2F1200C10FA0CF320FAE1
:100CA00002F018BF40F001004FEAC1234FEAD323FE
:100CB00003FA0CFC40EA0C0023FA02F34FEA430368
:100CC000CCE77FEA625307D150EA01331EBF4FF0F1
:100CD000FE4040F44000704701F0004040F0FE400C
:100CE00040F40000704700BF53B94AB9002908BF5B
:100CF00000281CBF4FF0FF314FF0FF3000F07AB9F1
:100D0000ADF1080C6DE904CE00F006F8DDF804E062
:100D1000DDE9022304B070472DE9F0478C460D460B
:100D20000446089E002B51D18A4217466DD9B2FA6B
:100D300082FEBEF1000F0BD0CEF1200C01FA0EF5B1
:100D400020FA0CFC02FA0EF74CEA050C00FA0EF43D
:100D50004FEA174A250CBCFBFAF81FFA87F90AFB81
:100D600018CC45EA0C4508FB09F3AB420AD9ED194A
:100D700008F1FF3280F02381AB4240F22081A8F1DC
:100D800002083D44ED1AA4B2B5FBFAF00AFB105577
:100D900044EA054400FB09F9A14509D9E41900F129
:100DA000FF3380F00A81A14540F2078102383C44BC
:100DB000A4EB090440EA08400021002E61D024FA87
:100DC0000EF4002334607360BDE8F0878B4207D9CE
:100DD000002E54D0002186E821000846BDE8F087A7
:100DE000B3FA83F1002940F08E80AB4202D38242F5
:100DF00000F2FA80841A65EB03050120AC46002E50
:100E00003FD086E81010BDE8F08712B90127B7FB84
:100E1000F2F7B7FA87FEBEF1000F34D1EB1B3A0CA4
:100E20001FFA87FC0121B3FBF2F8250C02FB1833F3
:100E300045EA03450CFB08F3AB4207D9ED1908F16D
:100E4000FF3002D2AB4200F2D1808046ED1AA3B24D
:100E5000B5FBF2F002FB105543EA05440CFB00FC25
:100E6000A44507D9E41900F1FF3302D2A44500F2EA
:100E7000B8801846A4EB0C0440EA08409DE73146D0
:100E80003046BDE8F087CEF1200405FA0EF307FAEC
:100E90000EF720FA04F83A0C25FA04F448EA03089D
:100EA000B4FBF2F14FEA184502FB11441FFA87FC2C
:100EB00045EA044501FB0CF3AB4200FA0EF409D9F4
:100EC000ED1901F1FF3080F08A80AB4240F287805B
:100ED00002393D44EB1A1FFA88F5B3FBF2F002FB2E
:100EE000103345EA034500FB0CF3AB4207D9ED197B
:100EF00000F1FF386FD2AB426DD902383D44EB1A96
:100F000040EA01418FE7C1F1200722FA07F88B4040
:100F100005FA01F448EA030320FA07FE4FEA134CEE
:100F2000FD404EEA040EB5FBFCF94FEA1E440CFBF3
:100F300019551FFA83F844EA054509FB08F4AC4249
:100F400002FA01F200FA01FA08D9ED1809F1FF30AE
:100F500043D2AC4241D9A9F102091D442D1B1FFA0D
:100F60008EFEB5FBFCF00CFB10554EEA054400FB71
:100F700008F8A04507D9E41800F1FF3529D2A045AB
:100F800027D902381C4440EA0940A4EB0804A0FB1E
:100F900002894C45C6464D4615D312D056B1BAEB20
:100FA0000E0364EB050404FA07F7CB401F43CC4063
:100FB000376074600021BDE8F0871846F8E6904677
:100FC000E0E6C245EAD2B8EB020E69EB0305013850
:100FD000E4E72846D7E7404691E78146BEE7014669
:100FE00078E702383C4445E7084608E7A8F10208DC
:100FF0003D442BE7704700BF0000000000000000E8
:1010000001F0FF01102A2BDB10F0070F08D010F8B9
:10101000013B013A8B422DD010F0070F42B3F6D1BD
:10102000F0B441EA012141EA014122F007047FF0D6
:1010300000070023F0E80256083C85EA010586EA2D
:10104000010685FA47F5A3FA87F586FA47F6A5FA69
:1010500087F68EB9EED1F0BC01F0FF0102F0070275
:1010600032B110F8013B013A83EA010313B1F8D120
:101070000020704701387047002D06BF3546033801
:10108000073815F0010F07D1013015F4807F02BF3A
:10109000013015F4C03F0130F0BC0138704700BF8B
:1010A000082823D8DFE800F02D05070A0F14191EC1
:1010B000200001207047144B18787047134B1878A4
:1010C00000F001007047114B1878C0F340007047E2
:1010D0000E4B1878C0F3800070470C4B1878C0F3A3
:1010E000C00070470A4BEAE7094BEDE701230938D6
:1010F00003FA00F0074B1B68184214BF01200020C0
:1011000070470020704700BF2C14002034140020CA
:101110002D1400203014002070B5294A294C107875
:10112000FFF7BEFF06465078FFF7BAFF05469078F6
:10113000FFF7B6FF0146D078FFF7B2FF22781ABB5F
:10114000214B334403EB450303EB81031F4D13F89D
:1011500030002B782BB91E4E3178013101F003019C
:1011600031700133032193FBF1F101EB41015B1A73
:1011700018492B700B78013303F00F030B70164BDB
:10118000196800EB4100186014490132087802F038
:1011900001022270FFF784FF02464878FFF780FFC4
:1011A00004468878FFF77CFF800000EB440002448F
:1011B000C878D2B2FFF774FF02EBC000C0B270BDB6
:1011C000040C00202C140020080C00202E140020F9
:1011D0002D1400203414002030140020000C0020B6
:1011E00000F0A8BC00F072B8A0F5BA405F3810B5A6
:1011F000062849D8DFE800F0040B16222D363F0000
:101200008C78CCB1002000F081F9002414E08C78B7
:10121000012054B104F006FA03220221012000F05B
:101220009BF9F2E78C780220F3E704F005FA032239
:101230000221012000F090F9204610BD8C78002C8E
:10124000FAD000F0D3FE114800221C2101F058F81A
:10125000DBE78C78002CEFD000F0C8FE00222C21B8
:101260000B48F3E78C78002CE6D000F0BFFE00229C
:101270000A210848EAE78C78002CDDD000F0B6FEA1
:10128000002207210448E1E70124D5E7840D00206E
:10129000240C00209C0E0020640E00200A4B10B588
:1012A00018680C4600F01BFA20B1022806D84CB191
:1012B000AB2001E024B1A92003F003FC012010BD04
:1012C000AA20F9E7AC20F7E72C1C002070B5204BD2
:1012D000204D1C782B888AB0002C33D03BBB1E4B92
:1012E00001AA03F1200618685968144603C408339C
:1012F000B3422246F7D119889B78A3702180FFF76B
:101300000BFF0AAB1844154B10F8244C1B78144EF5
:101310001C443078E4B2844209D000F0F1FC00F0C3
:10132000BBFE204600F0ECFC00F09EFF34700D4A3E
:101330002B881188013393FBF1F201FB12332B80D0
:101340000AB070BD002BFBD000F050FE2C80F7E7F8
:10135000381400203614002008A10008200C0020BA
:1013600035140020220C002010B1012806D070474F
:10137000032009B104F056B904F05EB90029024B0C
:1013800018BF0146197070473814002038B505465B
:10139000642005F07AFB00F06BFF0A4C50B915F0A1
:1013A000020209D0227812F0020203D10648192164
:1013B00000F0A6FF257038BD23789B07FAD50A21D7
:1013C0000248F5E7391400203C0F0020EC0E002005
:1013D000A0F58073B3F5F85F10B426D210F4805FE7
:1013E00000F4007400F4806200F4006310D010F484
:1013F000807F0CBF002010200CB140F020000AB10B
:1014000040F040000BB140F080005DF8044B08470D
:10141000C0F300200CB140F002000AB140F004001B
:10142000002BF2D040F00800EFE75DF8044B704766
:10143000A0F1E003072B10B5044600D940B90549D7
:101440002046FFF7C5FFE0B2BDE8104003F044BA04
:101450000149F6E7CF4A0008E54E000810B50446FA
:10146000C0B203F0BBFAA4F1E003072B00D92CB9FA
:1014700003492046BDE81040FFF7AABF0149F8E73D
:10148000E14A0008F74E00080120704708B5FFF751
:10149000ABFE08BD704708B5FFF7FCFF08BD0000B4
:1014A00013B502AB03E903000F4B1B78B3B99DF8EA
:1014B0000230009873B16AB104F034F90446014671
:1014C000009804F0E9F80099204602B0BDE8104009
:1014D00000F034B904F006F90446F4E7009804F08B
:1014E00021F90099F1E700BFDB1B002003460A4603
:1014F00000689988FFF7D4BF10B500210446FFF7B4
:10150000F5FF2146FFF7C7FF10BD000038B50546BF
:101510000848012400EBC510AC400022102100F067
:10152000EFFEE0B204F082FA2046BDE8384004F055
:1015300044B800BF0410002010B5012404FA02F2E0
:1015400004FA01F1114304FA03F331EA00020CBF7B
:101550001843984310BD000008B513460A460146DB
:1015600003480068FFF7E8FFBDE8084004F046B80C
:101570002C1C002008B500F0BDFA00F061FDBDE8AC
:101580000840FFF72DBE000038B50F4C23782BB96B
:101590000E4D288868B904F029FC288001F0E2F992
:1015A00002F062FF002002F0DFFCBDE83840FFF7E8
:1015B00019BE04F020FCB0F5967FEFD900F000FFD3
:1015C00001232370EAE700BF3C1400203A140020F6
:1015D0007047000010B503F0B3FC01F087F904F088
:1015E00005FC002204460321094800F089FEFFF7AC
:1015F000EFFF204604F0FFFBF92805D900F0F6FCC8
:10160000BDE8104004F0FEBB0A2005F03EFAF0E70A
:101610008410002038B501210546FFF767FF2946F1
:10162000044600F089FC08B9002038BD2946204650
:10163000FFF72CFF0028F7D02946204600F086FB54
:101640000028F1D02946204601F0EEF90028EBD021
:101650002946204602F03EFF0028E5D029462046D4
:1016600002F036FD0028DFD02946204602F080FD3A
:101670000028D9D02946204602F0ACFE0028D3D05D
:101680002946204602F0C0FA0028CDD0AB785BB1E5
:1016900045F65B539C421CD00AD8B4F5B84F12D023
:1016A00045F6DF439C4211D02846FFF7EDFE38BDDA
:1016B00045F65C539C420FD045F65D539C42F3D1F6
:1016C00004F0A8F8F0E7FFF785FFADE704F02CFA87
:1016D000AAE704F0A9F8E7E704F0A9F8E4E7030CA7
:1016E000002B16BF184600231023020A1CBF104609
:1016F000083302091EBF04331046DBB282081EBF46
:1017000002331046DBB242081CBF0133DBB218467D
:10171000704708B5FFF73AFE08BD0120704708B5CD
:10172000FFF7FBFF08BD10B50446FFF7F2FF2046A8
:10173000FFF7F5FF10BD0020704770473C22504373
:10174000C1F30723062202FB030353FA81F3034A82
:1017500032F8130082B002B0704700BF8AA10008BF
:10176000014B33F810007047A2A3000813B5ADF881
:1017700004100199FFF7E2FF00F0CAF8B0F5A04F9E
:1017800004462ED2B0F5804F80F08980DF2817D82C
:10179000C02875D2A72808D8A52867D2012817D055
:1017A00001D3042814D2002412E0BE28FBD85834F8
:1017B000E4B2554B33F8144044F48844A4B207E033
:1017C000B0F5005F07D2B0F5807F56D2E728EAD89F
:1017D000204602B010BDB0F5405F57D2C0F30B00F9
:1017E00050E0B0F5AA4F1BD2B0F5A84FC3B275D2E6
:1017F000B0F5A44F07D2B0F5A24F55D34AF2F1008D
:1018000040EA0324E4E7B0F5A64F5DD2980801242E
:1018100003F003039C4044EA401444F40C44CDE735
:10182000B0F5B24F0ED2B0F5B04F5CD2B0F5AC4FC0
:10183000B9D2C0B200F0EEF8040204F4F85444F453
:101840000054C5E7B0F5B44F52D3A0F5C043B3F58B
:10185000005FA8D2C0F3042000F0DCF8E4B200027C
:1018600044F4005400F4F8500443B1E75B34E4B2AC
:10187000264B1C5D44F48044AAE7C0F30C04A7E7A0
:10188000C03880B2FFF76CFF0446A1E710F4006F88
:10189000C4B214BF44F4484444F4404498E7C0F34D
:1018A0000B0444F4204493E703F003020124944022
:1018B000C0F3011044F40C4444EA0024C3F3810350
:1018C00044EA43139CB283E79808012403F003031E
:1018D0009C4044EA401444F40A446FE74AF2F4049A
:1018E00044EA032474E74AF2F00040EA042465E77E
:1018F00000F00F0000F08EF8C4F3031440EA042453
:1019000044F410445AE700BF74A3000870A3000811
:10191000822825D00CD8312863D004D8292859D062
:101920002A2865D0704735284DD0392818D07047FF
:10193000E32830D004D8E02819D0E22826D0704718
:10194000E62832D0E72835D0E42832D1304B5A7817
:1019500091072ED51B7813F0100F08BFE72012E077
:101960002B4B1B7813F0030F18BFE0207047284A59
:101970001378D90743D4527812F0010F19D013F01D
:10198000100F08BFE32018BF00207047204B1B78C2
:1019900013F0040FF2E71E4A1378590731D4527836
:1019A000D20730D413F0100FEDE7194B1B781A074C
:1019B000D1D47047164A1378190726D45278920763
:1019C000F0D5E420F5E7124B1B7813F0200F18BF79
:1019D000292070470E4B1B7813F0200F18BF3520BD
:1019E00070470B4B1B7813F0400F18BF2A2070472D
:1019F000074B1B7813F0400F18BF31207047392078
:101A00007047E2207047E0207047E620704700BF33
:101A1000A01D0020294B1A78510707D500F01801A6
:101A2000082927D100F0F70040F00400110707D57E
:101A300000F01801182926D100F0E70040F014004A
:101A40005B78D90707D500F01801082924D100F0E8
:101A5000F70040F00100990707D500F01803182B94
:101A600023D100F0E70040F01100D30648BF00F09A
:101A7000E700704700F01401042904BF00F0FB00E8
:101A800040F00800D2E700F01401142904BF00F070
:101A9000EB0040F01800D3E700F01101012904BF6A
:101AA00000F0FE0040F00800D5E700F01103112B14
:101AB00004BF00F0EE0040F01800D6E7A01D0020A3
:101AC00003F09ABF08B500F093F8642004F0DDFF3E
:101AD00000F08EF8002000F02FF8C30705D5FFF7BF
:101AE000EFFFBDE8084004F08DB908BD08B5FFF769
:101AF000E9FF08BD08B503F089FF08B904F014F840
:101B000003F08EFF084B187003F094FF074B18800A
:101B1000FFF7ECFF03F087FF03F04FFD044B18685D
:101B2000BDE8084003F065BD7D1C0020A01D00201D
:101B30002C1C002070470000014B185C704700BF50
:101B4000AC1D00207047012004F09FBF00BF00BF04
:101B500000BF00BF00BF00BF00BF00BF00BF00BF8D
:101B600000BF00BF00BF00BF00BF00BF00BF00BF7D
:101B7000704708B5FFF7E7FF08BD08B5202282F3DC
:101B80001188012100F00F03994020F00F0006F0AA
:101B9000A1F9002383F3118808BD000038B5104D6A
:101BA000002455F824000134FFF7E7FF0A2CF8D190
:101BB0000C4D002455F824000134FFF7DEFF062CFD
:101BC000F8D100200849094A0346435483540130A0
:101BD0000A28FAD100F06EF8BDE83840FFF7CABC19
:101BE000BCA30008A4A30008A21D0020AC1D002077
:101BF0002DE9F74F2B4F00252E46A846B9464FEA50
:101C0000850A57F82540202383F31188012324F007
:101C10000F0B04F00F0403FA04F421461A46584649
:101C2000A4B2019306F056F9ABF81A4088F3118874
:101C3000FFF78CFF00221C48019B144650F822102D
:101C400021F00F0E01F00F01DEF810E02EFA01F185
:101C5000C90754BF03FA02F1002101320C43062ADE
:101C6000E4B2EBD159F80A00FFF787FFFFF781FFD5
:101C70000E4BEA5CA24218BFEC5405F1010514BFFB
:101C8000012300230A2D46EA0306B8D133462A462B
:101C90000749064800F010F8FFF776FC304603B01D
:101CA000BDE8F08FBCA30008A4A30008A21D00207B
:101CB000AC1D002070470000F8B506460F461546DB
:101CC0000C4C2BB10123237004F090F80A4B1880C0
:101CD000237853B1084B188804F08DF8052804D9EF
:101CE0000023AB4202DB00232370F8BDF25CFA5400
:101CF0000133F6E73D1400203E14002000000000F0
:101D0000453807EE900AF8EEE77AB2EE087AC7EEA9
:101D1000876A08B516EE900AFEF792FC9FED080B55
:101D200041EC110B07F020F8002251EC100B064B90
:101D3000FEF7DAFCFEF788FF00EE100A08BD00BFD0
:101D4000000000000000004000807B4008B545F620
:101D50001D43984205D18B7873B300F047FB0020F8
:101D600008BD45F61E43984204D18B7823B300F09A
:101D700053FBF4E745F61F43984206D18B78DBB15D
:101D800000F02CF90028F2D1E7E745F62A43984203
:101D900009D18B7883B100F093FD0022042107481C
:101DA00000F0AEFADBE745F62B43984204D18B787E
:101DB00013B100F08BFDF0E7012008BD9C1000205E
:101DC00008B5FFF79DFFBDE8084000F04DBA08B523
:101DD000FFF796FFBDE8084000F05EB900F006B9D5
:101DE00070470000F8B5244B1B782DED048B002BB9
:101DF0003FD1224B1D78002D3BD1214B1B78DB07B7
:101E000037D5204E9FED209AD6ED007A1F4F204CFB
:101E100077EEA78A08F0D2F807EE900AB8EEE77AD4
:101E2000B7EE008A27EE097AD7ED007AF0EE486A1D
:101E3000E7EE276A66EEA87AC4ED027A08F0BEF8EB
:101E400007EE900AF8EEE77A97ED007A67EE897A66
:101E50002A46A7EE878A20460321D6ED007A28EE8F
:101E6000278A84ED048ABDEC048BBDE8F84000F0BD
:101E700047BABDEC048BF8BD5B1400205A14002057
:101E8000301E0020BC10002000000030C0100020D8
:101E9000C4100020084B9FED097AD3ED007A67EE5D
:101EA000877A9FED077AF4EEC77AF1EE10FA48BF11
:101EB000C3ED007A704700BFBC1000200938983F7E
:101EC0000080BB44084B9FED097AD3ED006AC6EE53
:101ED000877A9FED077AF4EEC77AF1EE10FAC8BF61
:101EE000C3ED007A704700BFBC1000200938983F4E
:101EF00000008242054A1078C0F3400383F00103DA
:101F000063F341001070C0B203F0AFBD301E00207B
:101F1000034B187840F00200187003F0A6BD00BF14
:101F2000301E0020034B18786FF341001870C0B2C8
:101F300003F09BBD301E002038B545F62043984283
:101F400004460D460CD18B780BB1FFF7D3FF45F655
:101F500024439C4216D1AB78A3B1FFF7B3FF11E045
:101F600045F62143984205D18B78002BEFD0FFF73F
:101F7000CFFFECE745F6224398421BD18B780BB19B
:101F8000FFF7D0FF124B1B7803F00303032B08D19C
:101F9000AB7833B1A4F5B8441E3C012C01D9FFF74E
:101FA00021FF012038BDAB78002BEBD0094B0A4A4A
:101FB0001A60E7E745F625439842F4D045F62343F7
:101FC0009842C4D1AB78002BDCD0FFF763FFD9E790
:101FD000301E0020BC1000200000DC43024B1878AB
:101FE00000F00100704700BF301E002038B50D4DD5
:101FF0002C78ACB90C4B1C7000F014FC0B4B0C494A
:102000001C700C4B1C700C4B1C800C4B03F16002C1
:102010001C8059601C810C339342F9D101232B7031
:1020200038BD00BFDC1000204014002049140020FF
:10203000000080BF4A14002046140020D01D00205C
:1020400010B5114C2378EBB903F0E0FC08B903F0AC
:102050006BFD03F007FD0D4B18700D4B0D4803F1A0
:10206000600100221A8058601A810C338B42F9D12A
:1020700023781BB900F090FB01232370BDE81040CA
:10208000FFF7B4BF10BD00BF41140020301E002078
:10209000D01D0020000080BFF8B5274DB5EEC00A66
:1020A0002B78F1EE10FA2DED028BB0EE408A48BF8E
:1020B000B1EE408A002B3BD0204B1B780BB9FFF7C9
:1020C000BFFF1F4A07231046D2ED167AB4EE678A87
:1020D000F1EE10FA27D10C21594300224318425245
:1020E0001849DFF870E059601A810E4614467345AE
:1020F0000ED1154B01261E70144B1C78013CE4B226
:102100001C70ACB900F08EFB114B2C701E700FE0F0
:1021100003F10C0797E807009C8183E807001E6124
:102120009C823B46E3E7013B591CA2F10C02CBD158
:10213000BDEC028BF8BD00BF4A1400204114002002
:10214000D01D0020000080BF4B1400204014002050
:10215000DC100020241E00202DE9F0413A4B1B78B2
:10216000DB072DED028B0746B0EE408A47D5374B93
:102170001B780BB9FFF764FF354D364E2B78B5EE63
:10218000C08AF1EE10FA03EB430248BFB1EE488A71
:1021900003F1FF3806EB8202B8F1FF3F20D1013393
:1021A000DBB2082B42D82B702B4A012313702B4A29
:1021B00013702B785C1E03F019FE0C236343F21896
:1021C000F05282ED018A178103F010FE244C254B5A
:1021D000188023789BB100F04FFB002323700EE0A2
:1021E0000C3AD2ED017AF4EE487AF1EE10FA1AD1F7
:1021F0000C2404FB08642B78013B984503DBBDEC01
:10220000028BBDE8F08104F10C0696E8070084E833
:10221000070003F0EBFD08F10108A08184ED048ABA
:10222000A7823446E7E708F1FF38B5E708232B70AB
:102230000023F41804F10C0207CA0C33542B84E871
:102240000700F6D1B0E700BF301E00204114002087
:1022500040140020D01D00204B1400204A14002000
:10226000DC100020581400204FF6FF70FFF774BFF9
:10227000014B1878704700BF491400200B4B1B78A6
:1022800083420FD9013B1B1A09485BB20C2202FBA7
:10229000030393ED010AB5EEC00AF1EE10FA01D97D
:1022A00000F01ABB9FED030A704700BF40140020E6
:1022B000D01D0020000000000E4B07EE900A1B7896
:1022C000F8EE676ADFED0C7A9B0166EEA76A07EE0F
:1022D000903AF8EEE77A82B086EEA77ADFED077AD9
:1022E00067EE277AFCEEE77ACDED017ABDF80400BF
:1022F00002B07047001100200000704200007A44D4
:10230000244B1B78DB07F7B504460F46154604D46B
:1023100003B0BDE8F040FFF769BE1F4B1B780BB957
:10232000FFF78EFE1D4B1B780BB1FFF75FFE1C4BBA
:10233000D4ED017A1B4E01221A701B4A346000232F
:1023400013701A4AFCEEE77A1780194ACDED017A2C
:102350001570184DBDF804002B80FFF7ADFF94ED0C
:10236000000AFFF7F9FE03F041FD134B2A8818809D
:10237000336803EBC203D3ED017AFCEEE77ACDEDCF
:10238000017ABDF80400FFF797FF0C4B188003B0EB
:10239000F0BD00BF301E0020411400204A14002070
:1023A00049140020CC1D002048140020B81D002036
:1023B000311E002042140020441400204614002046
:1023C00008B5074B1B78DB0704D50022062105481A
:1023D000FFF796FF03F00AFD034B188008BD00BF0E
:1023E000301E0020041100204414002008B5084BC2
:1023F000187840F00100187003F037FBFFF7F0FC8D
:10240000002202210348BDE80840FFF779BF00BF62
:10241000301E0020F010002008B5002202210948DB
:10242000FFF76EFF4FF47A7004F02FFBFFF7DEFD2D
:10243000054B18786FF300001870BDE80840C0B273
:1024400003F013BBE0100020301E0020674B1A7809
:102450002DE9F3479846664C12B92578002D70D0C7
:1024600003F0C4FC27788146F7B9002798F80030BC
:10247000002B00F0B8805F4B1D7825B95E4B1D78AE
:10248000002D08BF3D465D4C5D4F00264FF6FD78A0
:102490003B789E42C0F295805A4A1378002B50D068
:1024A000002111701D464CE0574D584E288803F00E
:1024B000A2FC33888342D8D8288803F09CFCA5F876
:1024C0000090534D3488B5F800A00AF10103041BB5
:1024D0002B8003F08BFC4F4B18804F4B19882B88B7
:1024E0008B42A4B2A94605D34C4B1D783DB30023C3
:1024F000A9F800304A4A4B48137815462BBB0368AD
:10250000B9F800C003EBCA0E03EBCC039EED007AD2
:10251000D3ED007AB4EE677AF1EE10FA15D101230B
:1025200002201370FFF7C8FE9FED3F0AFFF714FE6D
:102530000220A9F800A0FFF7BFFE308096E7FFF762
:1025400055FD284602B0BDE8F087002302682B70D5
:10255000B9F8003002EBC303D3ED017AFCEEE77A61
:10256000CDED017ABDF80400FFF7A6FE01398442E3
:102570000DD8844222D30124B9F8003002EBC30203
:10258000204692ED000AFFF7E7FD34806EE7B9F8C8
:1025900000308B42EDDA01339BB2A9F8003002EB38
:1025A000C303D3ED017AFCEEE77A201ACDED017A70
:1025B00084B2BDF80400FFF77FFED8E7001B84B2A9
:1025C000DAE72389013B9BB2434509D8208803F011
:1025D00012FC2389834203D894ED010AFFF75CFDC6
:1025E00001360C3454E73D4656E700BF4A1400203C
:1025F000491400205514002054140020D01D002040
:10260000401400204B1400204414002046140020E5
:102610004214002058140020B81D0020311E002054
:1026200048140020CC1D00200000000010B5084C0C
:102630000849204604F092FB2046022104F0A0FB4A
:10264000032210214FF09040BDE8104005F042BC3D
:10265000142A00203411002008B5074804F09EFB1E
:10266000012210214FF0904005F034FC4FF09043D0
:1026700010221A8308BD00BF142A002008B5114B90
:102680002DED028BB0EE408A83ED000AFFF7E4FFE8
:10269000B5EEC08AF1EE10FA10D938EE088A9FED37
:1026A0000A0A0A4B28EE008ABCEEC88A83ED008A2B
:1026B000BDEC028BBDE80840FFF7B8BFBDEC028B54
:1026C00008BD00BF4C1400200000804334110020DE
:1026D00010B5084C0849204604F040FB2046022172
:1026E00004F04EFB032220214FF09040BDE8104043
:1026F00005F0F0BB442A00204411002008B507482B
:1027000004F04CFB012220214FF0904005F0E2FB49
:102710004FF0904320221A8308BD00BF442A0020B6
:1027200008B5114B2DED028BB0EE408A83ED000A07
:10273000FFF7E4FFB5EEC08AF1EE10FA10D938EEDB
:10274000088A9FED0A0A0A4B28EE008ABCEEC88A66
:1027500083ED008ABDEC028BBDE80840FFF7B8BFEF
:10276000BDEC028B08BD00BF501400200000804368
:102770004411002008B5FFF769FE58B10020FFF7AB
:102780007DFDFFF77BFF0020FFF778FDBDE80840E7
:10279000FFF7C6BF08BD000038B5184D184C03221E
:1027A00010214FF0904005F095FB2846154904F0A4
:1027B00097FA1549154804F0D1FA032220214FF069
:1027C000904005F087FB2046114904F089FA114931
:1027D000114804F0C3FAAB6A10491A68104813682C
:1027E00023F002031360A36A1A68136823F400330A
:1027F0001360BDE8384004F0B1BA00BF5028002093
:1028000080280020E4A7000834110020142A0020AA
:10281000ECA7000844110020442A00205411002095
:10282000242A002010B50F4C0F4804F0B7FA2046B8
:1028300004F075FA40F2FF72002120460B4C04F0C0
:102840005DFA0B4804F0AAFA204604F068FA204624
:1028500040F2FF72002104F051FA0648BDE8104032
:1028600004F09CBA50280020142A00208028002060
:10287000442A0020242A002008B50A4A0A490B48A5
:102880004FF4807304F03CFA4FF480730849094810
:10289000094A04F035FA02210848BDE8084004F06E
:1028A0006FBA00BFE4A30008F4A700085028002076
:1028B00004A8000880280020E4A50008242A00209D
:1028C000014B00221A70704756140020014B002261
:1028D0001A70704756140020024B1B780BB9024A3D
:1028E000137070475614002054140020024B1B78BC
:1028F0000BB1FFF773BA70475B14002008B5FFF700
:10290000F5FF044B044800221A700821BDE8084076
:10291000FFF7F6BC5B14002088120020034B04482C
:10292000002208211A70FFF7EBBC00BF5A140020E8
:102930006411002010B5FFF7D9FF084A0848137842
:10294000013303F003031370282404FB0300002267
:102950000521BDE81040FFF7D3BC00BFE411002003
:10296000E8110020F8B5174B1B7803B3164C2088EC
:10297000F0B903F03BFA2080144C154E2378F3B9DC
:102980003278013A134D14492878CF5C10B1885C35
:10299000FFF71DFA2B7813B13846FFF711FA2378A9
:1029A0003178013393FBF1F201FB12332370F8BD50
:1029B00003F021FA094B1B888342DAD3F8BD5A1E73
:1029C000E0E700BF6D140020721400206E14002098
:1029D0006C1400205B1400205C1400200C130020F9
:1029E0007047000008B5054B054801221A70082100
:1029F0000022FFF785FCFFF7F3FF08BD5B14002002
:102A0000CC1200207047000008B5054B0548012294
:102A10001A7008210022FFF773FCFFF7F3FF08BDCF
:102A20005A140020A41100202DE9F04345F6264356
:102A300098428BB0044606D18B78002B3ED0FFF72E
:102A4000D1FF002053E045F62743984205D18B780B
:102A5000002B33D0FFF752FFF3E745F628439842A7
:102A600006D18B7853B3694B1B78002BF2D1E6E784
:102A700045F62C43984204D18B78FBB1FFF7C4FF95
:102A8000DFE745F62D43984204D18B78B3B1FFF7C9
:102A900045FFD6E745F62E43984206D18B786BB1B9
:102AA0005B4B1B78002BF2D1E8E745F629439842AF
:102AB00004D18B7813B1FFF73DFFC2E7534B1A786F
:102AC00022B9534B1B78002B00F09E808E78002E8D
:102AD0003DD0E02C0ED1FFF709FF4E4B01221A70BA
:102AE0004D4B002018704D4B18704D4B18700BB0AB
:102AF000BDE8F083E22C0BD1FFF7F8FE454B1A78C6
:102B000012B1454A0121117000201870434BEDE7C6
:102B1000E32C0FD1404B1B78CBB1FFF7E7FE3D4BC9
:102B2000002018703D4B01221A703E4B18703E4B2E
:102B30001880DCE7522C04D13C4A13880A3B1380EE
:102B40007FE7512C03D1394A13880A33F7E7384B12
:102B500038481D78384FDFF8ECC04B7891F800E02A
:102B6000EDB90578396824350D44062101FB03C30E
:102B700013F80E301D44EDB2002E3FD012B128469E
:102B8000FFF71EF9234B1B782BB1254A2B491378ED
:102B9000CD5401331370B4FA84F04009A7E706213D
:102BA00001FB03C3057813F80EE03B78244F24356E
:102BB000EDB20DF1040C07F1200938687968E046A0
:102BC000A8E8030008374F45C446F6D13888B978DD
:102BD000A8F8000088F802100721BEFBF1F101EB14
:102BE0004100C1EBC1011D44AEEB01010AAB53FA38
:102BF00081F105EB800511F8243CBBE7002ACAD01F
:102C00002846FFF7E4F8C6E7012070E75B140020D0
:102C10005A140020701400206F1400206D1400203E
:102C20006C1400206E140020721400200C1300207D
:102C3000E41100200E130020C81200205C140020B4
:102C40002BA100084EA1000808B500F077F940F666
:102C5000FF7008BD08B5074800F028F9064800F0E5
:102C600025F9064800F022F90548BDE8084000F0C3
:102C70001DB900BF00E0030800E8030800F00308E6
:102C800000F80308B0F5805F2DE9F84F894602D3BC
:102C90000020BDE8F88F4FEA400A0AF1006B0BF5FF
:102CA000783B4FF6FF76BBF800309BB2B3424FEA59
:102CB000A02805D1584600F01BF980B2BDE8F88F76
:102CC0004FEAC828144D08F1006707F578344FF42F
:102CD00000622146284607F05DF99BF800309945CF
:102CE000D6D040F2FE700AEA000007F57A3705F800
:102CF0000090204600F0DAF8084BA3EB08031D44CF
:102D0000295D41F47F41B14202D0204600F0F0F845
:102D10000234BC42F4D1D0E7321E00200020FCF780
:102D200080B2400000F1006000F578300078704714
:102D300080B2FFF7A7BF83B25B0003F1006303F526
:102D400078331A78431C9BB25B0003F1006303F5F0
:102D50007833187842EA0020704738B584B20D46BF
:102D60002046C9B2FFF78EFF601C290A80B2BDE879
:102D70003840FFF787BF83B25A1C10B592B2580093
:102D8000520000F1006002F1006200F5783002F5B7
:102D90007832017814789A1C92B25200033302F10F
:102DA00000629BB202F578325B0003F10063127897
:102DB00003F578331878130443EA04230B4343EAFA
:102DC000006010BD80B2F8B5471CBFB243007A0066
:102DD00003F1006302F1006203F5783302F5783203
:102DE000861CB6B20C46197892F800E0720002F127
:102DF000006202F57832C51CADB213786A0002F1A8
:102E0000006202F578321B04127843EA0E230B436A
:102E100043EA0263A34212D0E1B2FFF733FFC4F3E7
:102E200007213846FFF72EFFC4F307413046FFF76E
:102E300029FF210E2846BDE8F840FFF723BFF8BD63
:102E40000B4BDA68D2070CD4DA6851070BD4DA6876
:102E5000D2060AD4DB6813F0010F14BF042005204A
:102E6000704701207047022070470320704700BF61
:102E70000020024073B50446FFF7E2FF0025FF265D
:102E800001280FD114B9062002B070BD019501963A
:102E9000019B1BB9FFF7D4FF013CF1E7019B013B0C
:102EA0000193F5E7002C08BF0620EDE738B505468D
:102EB00040F6FF70FFF7DEFF052815D10B4C2369A4
:102EC00043F0020323616561236943F040032361FA
:102ED00040F6FF70FFF7CEFF06281EBF236923F0E0
:102EE000020323613423E36038BD00BF00200240A9
:102EF000104B00F178429A4270B505460E4616D83E
:102F00001F20FFF7B7FF052812D10B4C236943F0B0
:102F1000010323611F202E80FFF7ACFF06281EBF90
:102F2000236923F0010323613423E36070BD07208C
:102F300070BD00BFFEFF070000200240044B1A696D
:102F4000120641BF034A5A6002F188325A60704744
:102F5000002002402301674530B585B0C0F3072348
:102F60000190C0F30740BBB909B1314B185C8DF833
:102F70000C008DF80D008DF80E009DF80C3000202F
:102F800063F307009DF80D3063F30F209DF80E30BA
:102F900063F3174005B030BD9DF8042059B32449B0
:102FA000085C02EB420402EB4202FF21640094FB46
:102FB000F1F404EB4201C9B213FB01F2C1F1FF01CC
:102FC000C3F1FF054B4312121B12C2F1FF02C3F102
:102FD000FF03454342434343C5F30725C2F307229A
:102FE000C3F30723C0B2062C1FD8DFE804F0061194
:102FF00014161B1E060080B2D3E7294602461D4662
:103000000B468DF80C508DF80D208DF80E30B4E77E
:103010002B460546F5E72A46FBE7294603461546B3
:103020000A46EEE71A460346EBE713460246E8E790
:10303000A0A900081FB50121FFF78EFF0346DAB2F1
:10304000002062F30700C3F3072262F30F20C3F3EB
:10305000074363F3174005B05DF804FB70471FB5E5
:10306000FFF7E8FF0346DAB2002062F30700C3F37C
:10307000072262F30F20C3F3074363F3174005B041
:103080005DF804FB13B58DF802208DF800008DF873
:10309000011000981C46FFF7E2FFC0F30743C0F39E
:1030A000072262702070A37002B010BD064A137828
:1030B000590804D1012161F34703137070472A298D
:1030C000FCDD2A21F7E700BF342600200820FFF7A7
:1030D00052BE08B5FFF7EAFFBDE8084001460820E8
:1030E000FFF770BE014B1868FFF7F3BF34260020CE
:1030F000084B1A78012142F0010261F347021A706D
:10310000FF2100225A709970D97018681A71FFF760
:10311000E0BF00BF34260020034B1B7813F00100F2
:1031200018BF5808704700BF34260020044A13799E
:10313000022B9CBF0133137108B1FFF7D3BF704757
:10314000342600200120FFF7F1BF0000044A137964
:103150000BB1013B137108B1FFF7C4BF704700BF4B
:10316000342600200120FFF7F1BF00F075BE0000FB
:1031700070B5104B104D1B786978104813F001039F
:1031800006D02B7803EB43031844FFF7EEFF70BD26
:10319000AA78EE7802EB42040444B24204F103043C
:1031A000EFD2013204F8023C04F8033C04F8013C7D
:1031B000D2B2F2E734260020121300203C26002071
:1031C0000E4B1B78DB0770B416D50D4C0D4EA37853
:1031D000E57803EB43043444AB4204F1030402D327
:1031E00070BCFFF7C5BF013304F8020C04F8031CE0
:1031F00004F8012CDBB2EFE770BC704734260020E6
:10320000121300203C260020094B1B78DB0707B572
:103210000AD501ABFFF736FF9DF806209DF8041094
:103220009DF80500FFF7CCFF03B05DF804FB00BF7D
:103230003426002010B5064B0279064904468A5C04
:1032400058789978FFF7E0FF23790133237110BD97
:103250003426002059A8000810B5054B0446DA783A
:1032600099780079FFF7D0FF23790133237110BDDE
:103270003426002037B5164C0546207838B9FF2291
:1032800001AB1146FFF7FEFE9DF8053023702B7948
:10329000012B09D004D3022B16D00022104601E0E6
:1032A00020780022114602E0002221781046FFF724
:1032B00087FF2B790322013393FBF2F202EB4202E8
:1032C0009B1A2B7103B030BD002022780146EEE737
:1032D000A91400202DE9F04F334C94F800E085B09C
:1032E0001EF0010F054688461646019320D04FEA8E
:1032F0005E032E4FDFF8C0C0FF5C8CF800700EF04C
:10330000FE0EBEF1020F16D103ABFFF7BBFE9DF818
:103310000E209DF80C109DF80D00FFF751FF019B4A
:10332000657084F80280E67013B12068FFF7D1FE63
:1033300005B0BDE8F08F022F01D1E678EFE7062F48
:1033400001D16578EBE7092FFBD0192FE7D1193BA5
:10335000DBB203F0010200925B08154ADFF85C90D3
:1033600012F803A00027CB4699F80420FBB2934241
:1033700002D3FFF7FDFED2E703FB0AF090FBF2F069
:10338000009AC0B272B928449BF802201344094A3B
:1033900003EB43031344C0B232464146FFF772FECB
:1033A0000137E1E7281AEFE7342600202EA80008AD
:1033B00018A800083C260020AB140020121300209F
:1033C00010B405494C78CA78897808340346E0B2CD
:1033D0005DF8044BFFF77EBF342600200120FFF785
:1033E000EFBF000010B405494C78CA788978083CD2
:1033F0000346E0B25DF8044BFFF76CBF34260020B3
:103400000120FFF7EFBF000010B4074CA178E2786D
:103410001131FF2928BFFF210346C9B260785DF84A
:10342000044BFFF757BF00BF342600200120FFF7F1
:10343000EBBF000010B4064CA178E278113921EA04
:10344000E1710346C9B260785DF8044BFFF742BFF3
:10345000342600200120FFF7EDBF000010B4074C18
:10346000E278A1781132FF2A28BFFF220346D2B2A8
:1034700060785DF8044BFFF72DBF00BF34260020B5
:103480000120FFF7EBBF000010B4064CE278A178F2
:10349000113A22EAE2720346D2B260785DF8044B38
:1034A000FFF718BF342600200120FFF7EDBF0023EF
:1034B000FFF710BF2DE9F041144EDFF85880144F8C
:1034C000044600253179E8B2884205F101050CD3A4
:1034D000FFF74EFEA37813F0010F237914BF0133D9
:1034E00003F1FF332371BDE8F081B378FF2292FB33
:1034F000F1F22179034403EB430302FB0010434440
:10350000FA78B978C0B2FFF7BDFDDBE712130020EF
:10351000342600203C2600202DE9F74F8378304EDA
:10352000304D13F0010F0CBF01234FF0FF33009318
:103530004FF0000933795FFA89F843450CD8FFF75B
:1035400017FE009B012B2B7842D103B93379013B45
:103550002B7003B0BDE8F08FB378234ADFF88CB04E
:10356000434403EB430303EB020A00248AF80140BF
:103570009C549DF800308AF80240019304272A7871
:103580002244D2B253B2092B1CDD092293FBF2F282
:1035900002EBC2029B1A5BB298450BD19BF8032049
:1035A0009BF802109BF801007A435346C2F387024E
:1035B000FFF768FD019B013F1C44E4B2DFD109F134
:1035C0000109B7E7002BE7DA054B1B791344E2E763
:1035D0003179013393FBF1F201FB1233B8E700BFFD
:1035E00012130020AA1400203C26002034260020BC
:1035F0002DE9F8432B4C2C4DA378E07803EB4302E4
:103600002A440021834202F1030220D3274EDFF82F
:10361000A090DFF8A48000272179FAB28A421FD354
:10362000FFF7A6FD224D23482A78017833780A4413
:1036300052B20B445BB2002A33702A7003DD227948
:10364000013A934201DB49420170BDE8F88301333E
:1036500002F8021C02F8031C02F8011CDBB2D1E7DD
:1036600092FBF1F301FB1323A1780B4496F90010B0
:10367000DBB28A4203EB43030EDB99F900108A4266
:103680000ADC2B4498F8032098F8021098F80100FF
:10369000FFF7F8FC0137BFE7E91800224A70EA5447
:1036A0008A70F7E7121300203C260020A81400209F
:1036B0000F13002010130020342600202DE9F047BE
:1036C0000379DFF8A080DFF8A0A013FB03F25A43D0
:1036D000C3F12003552503FB03F103FB01235543ED
:1036E000B5FBF3F5EDB2292D88BFC5F155044FF0B8
:1036F000020394BFA5EB8504A4EB840494FBF3F4CC
:10370000013C0646E4B20027C14698F80420FBB20B
:103710009A420BD8FFF72CFD3379104AD3B9012117
:103720001170127813443371BDE8F0879A0799F845
:1037300002200B49134458BFC5F1550003EB430366
:1037400054BFC0B22846534422468978FFF79AFCFA
:103750000137DAE7202BE4D1FF21E1E71113002044
:1037600034260020121300203C2600202DE9F041D1
:10377000134FDFF85480134C064600253A799542E2
:1037800008DBFFF7F5FC3379013303F001033371F4
:10379000BDE8F081BB782B4403EB4303B5EB520F3C
:1037A0004344327907DA42B1E278A1786078FFF7D2
:1037B00069FC0135E2E7002AF6D00022F5E700BFF8
:1037C00012130020342600203C2600202DE9F74F5C
:1037D00083780193494D0779012303710026484BF3
:1037E0001B79F4B2A34204D803B0BDE8F04FFFF751
:1037F000BFBC019B022B4FEA840B09D8414B0BEB5A
:10380000040193F801E005F801E068189B78437023
:10381000A7B90BEB04032B44DF709F70384B3A4A77
:103820009B7823445C44291903EB43031344285D2C
:103830008A784978FFF726FC0136D0E70BEB040ABB
:1038400005EB0A09DFF8BC8099F80300E0B1013804
:10385000C0B299F804E089F803002C4B98F80310E3
:10386000C0EB002090FBFEF0C0B24FF0BB0E185C26
:103870002238C0B2C0EB002090FBFEF0C0B248433B
:10388000001289F80200C9E706F098FB98F803E0F7
:103890004FEA5E0E0EF17F0C4FF4017E0EFB0CFE24
:1038A000CEF3072E7045B9DA019B022B15D906F02D
:1038B00085FB4FF0FF0E90FBFEFE704405F80A00FA
:1038C00006F07CFB98F802E04FEA5E0E90FBFEFCEF
:1038D0000CFB1E00864489F801E00BEB0400284431
:1038E0000023837098F80330C82B28BFC823142BFB
:1038F00038BF14230371C37090E700BF7B1400200E
:1039000012130020342600203C26002059A800086D
:1039100008B5094B1A786FF300021A701868FFF7A0
:10392000D8FB064B00224FF4FA705A7003F0ADF842
:10393000BDE80840FFF71CBC34260020AB14002073
:1039400008B5084B084819780B224908FDF758FBC1
:1039500010B9064B01225A7002F048FA044B188045
:1039600008BD00BF3426002017130020AB14002030
:103970007414002010B5164C2378DA0726D5D8B970
:10398000012262F34703237011B12068FFF7A1FB06
:10399000217810480B224908FDF732FB98B10E4BF5
:1039A00000225A700D4BA17860780122DA70E2781B
:1039B000BDE81040FFF77BBD2A2801D92A22E0E7A5
:1039C00060F34703DFE7FFF7BBFFEBE710BD00BF86
:1039D0003426002017130020AB140020741400209C
:1039E000054B1B785B0801332B2B014634BF18466F
:1039F0000120FFF7BFBF00BF342600200120FFF7E2
:103A0000EFBF0000064B1B78C3F34603013B13F0E6
:103A1000FF03014614BF18462A20FFF7ABBF00BFC3
:103A2000342600200120FFF7EDBF0121FFF7A2BFE0
:103A3000034B187840F0010018704008FFF7F5BFFD
:103A400034260020034B1B78DB0701D5FFF760BF4E
:103A5000FFF7EEBF342600200021FFF78BBF0000E8
:103A600038B5124D2A78FAB901F0D0FF18B902F032
:103A70005BF8FFF73DFBFFF729FB0D4C10F0FE0F45
:103A8000206004D1FFF734FBFFF720FB2060FFF735
:103A90000DFB084B207800225A70C30702D540085E
:103AA000FFF7DAFF01232B7038BD00BF7A14002026
:103AB00034260020AB140020344B5A782DE9F04115
:103AC000002A60D01A78324B324E1B78C2EB530377
:103AD000DBB2022AB3701AD12F4A304DD45CF3788E
:103AE0002BB10027F77002F081F9B780308002F027
:103AF0007DF93388C01A80B247F6FE72904242D8F0
:103B00001C4434802B462348BDE8F0411847062A60
:103B100003D1234A234DD45CE1E7092A04D15B0891
:103B2000214A224DD45CDAE70F2A04D15B08204AEF
:103B3000204DD45CD3E7152A03D11F4A1F4DD45C16
:103B4000CDE7182A14D0232A03D11D4B1D4D1C8804
:103B5000C5E7242A0FD0252A11D10322B3FBF2F2A4
:103B600002EB42029B1ADBB2174A184DD45CB6E74F
:103B70002824174DB3E74FF4FA74164DAFE74FF40E
:103B8000FA64154DABE7BDE8F08100BFAB1400202F
:103B9000342600207414002014A8000835320008D0
:103BA00020A800085932000823A80008B5340008EE
:103BB00028A80008193500081DA80008F1350008DC
:103BC00026A80008753200082BA80008CD37000889
:103BD000BD3600086D3700085D30000800B11047A1
:103BE000084738B504460D46FFF796FAA04206D3BB
:103BF000FFF792FAA84202D2FFF700FF38BD204635
:103C0000BDE83840FFF711BF38B58C780546002C69
:103C100000F0A08001F00EFE45F6CD439D4200F07D
:103C200022007DD035D845F6C7439D426CD015D8CB
:103C300045F6C4439D425FD005D845F6C3439D4237
:103C400056D0204638BD45F6C5439D4259D045F66D
:103C5000C6439D42F5D1404A40494FE045F6CA432C
:103C60009D4257D00AD845F6C8439D424FD045F6ED
:103C7000C9439D42E5D13A4A3A493FE045F6CB4334
:103C80009D424AD045F6CC439D42DAD1364A374967
:103C900034E045F6D2439D4251D00FD845F6CF438C
:103CA0009D4244D03FD345F6D0439D4244D045F693
:103CB000D1439D42C5D10E2109203AE045F6D543B6
:103CC0009D4242D009D845F6D3439D423AD045F6AD
:103CD000D4439D42B5D1182026E045F6D6439D42F7
:103CE00036D045F65E539D42ABD12A21252020E0F7
:103CF000FFF7A8FE0024A4E71D4A1E49FFF76EFF48
:103D0000F8E71C4A1A49F9E7144A1349F6E7154A35
:103D10001349F3E7184A1949F0E7184A1649EDE73D
:103D2000124A1149EAE70120FFF77FFEE2E7052189
:103D30000220FFF756FFDDE708210620F9E71421EE
:103D40000F20F6E717211520F3E722211920F0E7CD
:103D50002320E9E7012474E701340008DD3300087B
:103D60002D3400085534000865310008453100083D
:103D7000253A0008FD390008A934000881340008FC
:103D80001D4A38B50C210023154642F82310013393
:103D9000D82BFAD100231946EA180433B3F5607F13
:103DA000C2F86013F8D19A2202214FF0904004F03B
:103DB00091F80023114C1A460A21012003F0A6FFB6
:103DC0000F4BA2695B690F4938329A604FF4DC727D
:103DD000DD605A6043F6B0221A601A6842F00102B0
:103DE0001A60204602F0F6FF204600220121BDE8BD
:103DF000384003F000B800BFB0140020542A00205F
:103E000070AD00085CA9000830B51824444311487F
:103E100000EB84002030002441FA04F515F0010F76
:103E200014BF1C250C25C56142FA04F515F0010FDD
:103E300014BF1C250C2540F8045D43FA04F515F069
:103E4000010F04F1010414BF1C250C25082C056486
:103E5000E2D130BDB014002070B50D4D2B78044672
:103E60000E461BB9FFF78CFF01232B700025B542CE
:103E7000A8B204F1030400D170BD14F8013C14F899
:103E8000032C14F8021CFFF7BFFF0135EFE700BF5A
:103E9000AD14002008B5FDF701FA08BD10B50C4CB3
:103EA00020224FF48051204604F014F820224FF4D1
:103EB0000051204604F00EF8226923691B0BC2F35F
:103EC000003203F002031343024A137010BD00BF17
:103ED00000040048951B002010B5194B19491A69B8
:103EE00008781B69C2F3403242EA4002C3F3003350
:103EF00043EA4203DBB21C070B7048BFDB4303F00D
:103F00000F03114AD45C114A13782344DBB259B22F
:103F100003290BDD043B137001210020FFF7BAFFDA
:103F20000B4B1A7814441C70012010BDC81C02DB16
:103F30001170002010BD0433002113700846EDE716
:103F400000040048951B0020A0AA0008941B002034
:103F5000961B002008B5FDF707FA08BD704708B5A5
:103F6000FFF7FCFF08BD00002DE9F047174EDFF812
:103F700064900024804625462246374659F824108E
:103F800021F00F0301F00F011B69CB40DB4303F06D
:103F90000103D9B2A3401D430D4BA15514F803E012
:103FA0008E45E0B29A4602D1B8F1000F02D0FFF779
:103FB000D1FF01220134042CE0D12AB12846FFF7B9
:103FC000CEFF3B68CAF80030BDE8F087971B0020A1
:103FD0009B1B0020A8AA000870B50B4E00240125E9
:103FE00056F8240000F00F01202205FA01F120F01C
:103FF0000F00013403F06EFF042CF1D10120BDE865
:104000007040FFF7B1BF00BFA8AA0008F8B514467A
:1040100082789DF818701D462B4B92B11C7001F0F0
:10402000E5FE2A4B188004F12003DBB2072B49D8A8
:1040300004F007040120A040C0B2BDE8F84000F041
:1040400046BD1E78A6422ED1204B188801F0D3FE23
:10405000C72828D8AE4205F1200415D006F1200368
:10406000DBB2072B06D806F007060120B040C0B22D
:1040700000F036FDE3B2072B1FD805F0070301203F
:104080009840C0B200F023FD3846E4B200F019FDBC
:10409000072C17D805F007050120A840C0B2BDE8DD
:1040A000F84000F01DBD04F12003DBB2072B09D856
:1040B00004F007040120A040F0E73846BDE8F840CE
:1040C00000F0FFBCF8BD00BF9F1B0020A01B00201C
:1040D00013B545F6F44304469C42084626D011D851
:1040E00045F6D9439C421CD045F6DA439C4237D072
:1040F00045F6D8439C420ED126230093E1231A466D
:1041000021461EE045F6F6439C421FD013D345F6E8
:10411000F7439C421FD0807830B3144B00221A70B2
:1041200012E027230093E523E522E9E72623009305
:10413000E022E123E4E727230093E422E52345F688
:10414000F541FFF763FF002002B010BD2623009366
:10415000E222E123D4E727230093E622E523CFE7F9
:10416000282300930123DFE70120EDE79F1B0020B8
:1041700038B505468878002800F0208145F60243CE
:104180009D42C0F01C8145F615439D4205D9A5F519
:10419000B9437B3B082B00F2128101F04BFC884CA9
:1041A00045F610439D42208000F0C3803AD845F682
:1041B00008439D4200F095801CD845F604439D427B
:1041C0007FD00ED845F602439D4271D045F6034399
:1041D0009D4272D0208801F039FC00F0B1FE002031
:1041E00038BD45F606439D4277D06ED9237843F01B
:1041F000200360E045F60C439D4200F0868008D81D
:1042000045F60A439D4276D06FD923786FF30003B9
:1042100051E045F60E439D427FD07AD923786FF363
:10422000041348E045F6FC439D4252D023D845F69E
:1042300013439D4200F085800DD845F611439D4201
:104240007BD045F612439D42C4D100F079FE23781D
:104250006FF3C7132FE045F615439D4200F08580AC
:10426000C0F09E8045F6FB439D42B3D1637843F096
:1042700001036370AEE7B5F5BA4F6CD00CD845F6C4
:10428000FE439D4251D04CD9637843F003036370E1
:10429000002204214B4835E045F602539D4200F0D0
:1042A000898070D345F603539D4293D1002082E06C
:1042B000237843F0010323708CE7237843F0020353
:1042C000F9E7237843F00403F5E7237843F0080384
:1042D000F1E7637843F00203CBE7237843F0100360
:1042E000E9E7237843F04003E5E700F029FE23786F
:1042F00043F08003DFE7237843F00C032370324858
:1043000000220421FDF7FCFF64E723786FF34103EB
:10431000D1E723786FF38203CDE723786FF3C303EC
:10432000C9E763786FF30003A3E763786FF3410392
:104330009FE723786FF34513BDE723786FF3861368
:10434000B9E7237803F0F7036FF3820323700022A9
:1043500002211E48D6E7637803F0FD036FF30003E4
:104360006370002202211A48CCE7227882F004030D
:10437000C3F3800363F3820263F3C302227012F07B
:104380000802E5D0BBE76278D34303F0010363F38F
:10439000000263F34102627012F00202E2D077E79A
:1043A00000F0CEFD2378C3F3C01282F0010262F365
:1043B000C71380E7012001F0B9FB0BE7012038BDEE
:1043C000A01D0020641300203413002024130020BB
:1043D0005413002045F61643984210B50C461FD1E1
:1043E00001F028FAA1780F4A0F4B81B100F0AA0022
:1043F000002814BF012100211170186814BF352155
:10440000292101F01DFC01F087FA002010BD12786F
:104410001868002A14BF3521292101F02BFCF2E78E
:10442000012010BDA21B00208813002070B50B4C8A
:10443000237893B130B10A4E002322785D1CDBB2A1
:104440009A4202D80023237070BD36F81300FCF79F
:10445000EFFF01F061FA2B46EFE770BDA31B0020D0
:10446000A81B0020704700000A4B1B7810B583B1D1
:10447000094C23786BB1094B188850B101F0BBFC93
:10448000C82806D9002323700120BDE81040FFF79B
:10449000CDBF10BD84130020A71B0020B81B002037
:1044A000044A00231370044A1370044A0120138045
:1044B000FFF7BCBFA71B002084130020B81B0020FF
:1044C000034B1A780AB1FFF7EBBF01221A7070474D
:1044D000841300202DE9F74F624B019300221A70DC
:1044E00045F6F84290428046894608D18C78C4B19E
:1044F0005D4B01221A70204603B0BDE8F08F45F6EF
:10450000F943984204D18C785CB1FFF7C9FFF2E718
:1045100045F6FA43984204D18C7814B1FFF7D0FFE6
:10452000E9E7514B1D78002D00F099804F4FDFF8DF
:1045300050B100243C803E886EB1019B1B78002B5B
:104540006BD001F053FC4A4B18800020FFF76EFF40
:1045500084F00104CFE7DBF800104FF6FF7A5FFA32
:1045600086FE013631F81E30984508BF1FFA8EFAD4
:10457000002BF4D14FFA8AF101310ED100263443D9
:10458000E4B225B19BF80650B5FA85F56D093A8875
:10459000013205F001053A80CDE7364A99F802006C
:1045A00016780121E0B19BF8062001FA0AF00243D7
:1045B000D2B28BF80620002EE0D001FA0EFE0EF1EA
:1045C000FF3E9645DBD1BBF8040028B1FCF730FF75
:1045D000019B01221A70D2E71846FFF743FFF7E765
:1045E00001FA0EF19BF806E00139714505D1BBF8DF
:1045F000040068B1FCF732FF30469BF80620012129
:1046000001FA0AF122EA01028BF806200646B6E713
:1046100019461846FFF726FFEEE754B90120FFF7C9
:1046200005FF002D94D0124B1C80124B01221A70F2
:104630008EE799F80230002B8AD00E4B1B78002BA6
:1046400086D001F0D3FB0C4A094B18801378072B56
:104650009FBF591C1170094A22F8138078E7012482
:1046600049E700BFA61B002084130020A41B0020E4
:10467000B81B0020A71B0020A31B0020A81B0020A4
:10468000180C0020014B1860704700BFBC1B0020B5
:10469000024B186808B1036818477047BC1B00201C
:1046A000084B1B686BB1084A127842B1074A92F96D
:1046B0000020002ABFBF02784270052202705B68AA
:1046C00018477047BC1B002090130020A01D00203D
:1046D000054B1988814205D01880044B1B680BB12B
:1046E000DB681847704700BFC21B0020BC1B0020BE
:1046F000054B1988814205D01880044B1B680BB10B
:104700001B691847704700BFC01B0020BC1B00205E
:1047100008B501F03DFB024B1860024B186008BD64
:10472000C81B0020CC1B002008B501F031FB024B58
:104730001860024B186008BDC81B0020C41B002075
:104740007047704708B5FFF7FCFF08BD704708B514
:10475000FFF7FCFF08BD000008B5054801F08AFB23
:10476000FEF772FAFFF7ECFFFFF7ECFF08BD00BFA2
:10477000F55900080120704708B5FFF7FBFF08BD99
:104780007047704708B5FFF7FBFFFFF7FAFF08BD5A
:1047900008B501F0FBFAFDF701FAFFF761F9FFF741
:1047A0007DFBFFF719FCFFF7D2FF08BD2DE9F04FA5
:1047B00085B0FDF71DFA08B1FFF7AAFF354F0024B9
:1047C000B8465FFA84F94846FDF7B6F9E65DB042AF
:1047D000834616D101340A2CF3D1FF238DF808301B
:1047E0008DF8093000238DF80A3001F0FFFA40F00F
:1047F0000100ADF80C0004AB13E9030000F050F821
:104800002AE0254B1B789B0701D5FDF79BF9002378
:1048100001258BEA060635425FFA83FA31D0FFF7AD
:10482000ABFFA0B11BEA050F14BF012300238DF8D5
:1048300000A08DF801908DF8023001F0D7FA40F019
:104840000100ADF804009DE8030000F029F818F815
:1048500004305D4008F80450FFF72EF9FFF73CFBE9
:1048600008B1FFF761FF0D4CFFF712FF2378834279
:104870000DD0FFF70DFF207005B0BDE8F04FFCF73D
:1048800052BF01336D00062BEDB2C4D1A2E705B0D3
:10489000BDE8F08FD11B00207D1C0020D01B002024
:1048A0001FB58DE803009DF802306C460BB100F097
:1048B000EDFF0022039294E8030002AB0290ADF8F2
:1048C0000C1093E8030000F09FFD04B010BD08B584
:1048D000008800F049FF08BD38B50446002876D0AE
:1048E000822816D1FFF7D4FE810770D4384C3921C5
:1048F000206801F0A5F901F00FF84FF47A7002F08A
:10490000C4F83921206801F0B5F9BDE8384001F05C
:1049100003B8832810D1FFF7BBFEC20757D42C4C35
:104920005321206801F08CF900F0F6FF4FF47A7003
:1049300002F0ABF85321E5E7842810D1FFF7A8FE79
:10494000430744D4224C4721206801F079F900F054
:10495000E3FF4FF47A7002F098F84721D2E7031F83
:10496000DBB2A02B10D81A4D0146286801F000F9DF
:1049700028B12146286801F07DF900F0CDFF2146DD
:10498000286801F05DF9C0E700F12003DBB2072BD6
:1049900007D800F007040120A040C0B200F050FF8B
:1049A000B3E700F15B03DBB2022B05D8094AD05C08
:1049B000BDE83840FFF78CBE5834E4B2162C06D858
:1049C000054B33F81400BDE83840FFF791BE38BD01
:1049D00088130020B8AA0008BCAA000810B5002857
:1049E0005BD0822812D1FFF753FE810755D52B4C9F
:1049F0003921206801F024F900F08EFF3921206868
:104A000001F038F9BDE8104000F086BF83280CD1D2
:104A1000FFF73EFEC20740D5204C5321206801F02D
:104A20000FF900F079FF5321E9E784280CD1FFF753
:104A30002FFE430731D5194C4721206801F000F9BA
:104A400000F06AFF4721DAE7031FDBB2A02B03D88F
:104A5000124B01461868D3E700F12003DBB2072BA5
:104A600008D8012300F0070003FA00F0C0B200F0FC
:104A7000EFFEC7E700F15B03DBB2022B04D8002096
:104A8000BDE81040FFF724BE5830C0B2162804D845
:104A90000020BDE81040FFF72BBE10BD881300209A
:104AA00038B505460C46FFF717FF24B92846BDE880
:104AB0003840FFF793BF0A20013C01F0E6FFA4B2A3
:104AC000F3E739280CBF50210A21FFF7E9BF08B5E9
:104AD00028B100F0B5FEBDE8084000F01DBF08BDDC
:104AE00008B528B100F0B4FEBDE8084000F014BFDE
:104AF00008BD2DE9F04790F806A0857807460C46DA
:104B000000F06EFE4FEA1A1A8046A8B1A8469DB181
:104B1000C4F3072303F0F003402B04D004F1200377
:104B2000DBB2072B1FD9022000F046FF00F058FE31
:104B300080F001005FFA80F8C4F30339B9F10F0F78
:104B400042D8DFE819F0130013004A004A009F0022
:104B5000410041004100CB002301350135018A01AC
:104B60004100410093014FF00008E5E7C4F307233B
:104B700013F0F00F16BF2609C4F3032606F0F00663
:104B8000E4B295B156B104F12003DBB2072B3046F5
:104B900000D93CB900F054FE00F0BEFE2046FFF7FD
:104BA0009BFE11E000F062FEF6E72046FFF716FFDD
:104BB00056B104F12003DBB2072B304600D94CB9C3
:104BC00000F046FE00F0A8FEA9F10809B9F1030FB4
:104BD00068D8A1E000F052FEF4E7C4F3072303F025
:104BE000F003202B14BF2609C4F30326E4B218BF38
:104BF00006F0F00664B1012C2CD0ADB3BAF1000F71
:104C00002CD0BB79D907C9D56FF30713BB7125E049
:104C10009DB1BAF1000F06D100F054FE3043C0B28E
:104C2000FFF755FFD0E7BAF1010FF5D100F04AFECA
:104C30003043C0B200F052FEC6E7BAF1000F05D112
:104C400000F05EFE3046FFF74BFFBDE7BAF1010F03
:104C5000F6D1B9E725B1BAF1050FB5D83046DFE78F
:104C6000BAF1040FB0D8EDE7BAF1000FEAD0392C51
:104C70000CBF4FF44870642001F007FF2046FFF797
:104C8000ADFEA1E7C4F381233BB1012B9CD11DB341
:104C9000C4F30900FFF72CFD04E0DDB1C4F3090003
:104CA000FFF716FDB8F1000F00F0E78000F090FD6F
:104CB00010F0010040F0E180B87000F081FD00F0DC
:104CC000B1FC384600F0EBF800F07AFDBDE8F047A3
:104CD00000F0B2BC2846E3E72846DBE714F4407F47
:104CE00028D1CDB9C4F34210E2064FEA800048BF94
:104CF0000F25C0B248BF854004F00F03C4F38124E0
:104D000048BFED438340022C45EA03000CD00ED887
:104D1000012C06D000F05CFCFFF7BAFCFCF703FDA9
:104D2000C0E700F04DFCF7E700F05AFCF4E700F0B4
:104D300044FCF1E7F5B1C4F30023002BECD0C4F33D
:104D400042108000C3B204F00F0000FA03F214F026
:104D500010001CBF0F209840C4F3812418BFC0432B
:104D6000022C40EA02000BD00DD8012C05D000F037
:104D700081FCD1E7C4F34023DFE700F073FCCBE70D
:104D800000F080FCC8E700F039FCC5E7E6B23DB1B1
:104D9000C4F3032000F046FC3046FFF798FEBBE763
:104DA0003046FFF79DFEC4F3032000F045FCB3E757
:104DB000E6B2A6F1F003042B3DD8DFE803F00310C0
:104DC000161D260045B1BAF1040F3FF6FDAEC4F33F
:104DD000042000F03DFCF7E6BAF1050FF5E735B128
:104DE000C4F3042000F01EFCEEE6002DF8D0C4F35E
:104DF000042000F021FCE7E625B1C4F3042000F014
:104E00000CFCE1E600F006FCDEE64DB1C4F3042440
:104E1000204600F007FC0321204600F0A9FDD3E660
:104E2000012000F0C9FDBAF1010F7FF6CDAE0220DE
:104E300000F0C2FDC8E625B1BAF1000FD0D030466F
:104E4000ADE6BAF1000FD2D0392E0CBF4FF4487046
:104E5000642001F01AFE304611E7C4F30322E1B2E8
:104E60003846FCF768FC00F03DFB1BE7C4F3032267
:104E7000E1B23846FCF761FC14E7BDE8F08738B5CD
:104E800001880446807800F07BFC054600F002FCB7
:104E900000F092FB29462046FFF72BFE38BD13B5E4
:104EA00083880288ADF804200446CBB1BDF8042005
:104EB0004FF6FF739A4213D0FCF7ACFB50B900F0E9
:104EC0008FFC68B1A3785BB1022002B0BDE810404E
:104ED00000F072BD2046FFF7D2FF2046FCF70CFB26
:104EE00002B010BD08B528B100F0C0FCBDE8084014
:104EF00000F012BD08BD08B528B100F0BFFCBDE848
:104F0000084000F009BD08BD08B50020FFF7E0FB30
:104F10000020FFF7EDFB00F0B9FC00F0CDFCBDE890
:104F2000084000F0F9BC000008B5044B186800F018
:104F3000BBFEBDE80840FFF7E7BF00BF88130020B5
:104F400008B500F08DFCBDE80840FFF7EDBFC0F3E9
:104F500003330E3303F00F020D2A0CD801239340C4
:104F600013F4105FC1B217D140F20330184004D1DE
:104F700013F010030BD100207047F02902D003D8A2
:104F8000E729F8D801207047F429F4D1FAE7E72996
:104F9000F8D9F129F6D07047C0F3C020704707B5A3
:104FA000ADF80400019800F0DFFBFFF7D0FF03B07D
:104FB0005DF804FB82B002AB03E9030002B0704766
:104FC00082B002AB03E9030002B0704770B5094B31
:104FD000094E1C78094D3378A34200D170BD05EB12
:104FE000C40355F8340059680134FFF7E9FF04F0B1
:104FF0000704F0E7251C0020241C0020E41B0020EF
:10500000024B18685968FFF7DBBF00BFDC1B0020AC
:10501000214BF7B59A7912090AD19A7842B11F4A01
:105020001F4F12781F4E4FF6FF7E3978914201D103
:1050300003B0F0BD988858B319785C788DF80410E7
:105040008DF80540BDF80450754521D006EBC2052A
:1050500095F801C0A4451BD116F832408C4217D1F7
:10506000A978A9B9A988091A89B2C72910D8997944
:105070000948012262F307119971AB7962F30713B2
:10508000AB71FFF70CFF03B0BDE8F040FFF79EBF28
:10509000013202F00702C8E7DC1B0020251C0020BB
:1050A000241C0020E41B00202DE9F047BD4F8EB0EA
:1050B0000446B9880068089038882278637894F8A4
:1050C0000280B4F804A0ADF804000DF1200E3E46B5
:1050D000002900F0188185B24FF6FF7C654500F08D
:1050E000128197F80290B9F1000F00F00C81AAEB41
:1050F000010189B2C729B97900F2BB8011F0F00F24
:1051000074D165451BD08DF820208DF8213038886A
:10511000BDF82050854212D14546B8F1000F0ED19E
:10512000012363F30711B971FFF76AFF3846FFF7F0
:10513000B6FEBB79A37128460EB0BDE8F0874546A0
:10514000BAF1000F49D08DF81C208DF81D30BDF844
:105150001C004FF6FF7188423FD0002D40D192488D
:105160009249077809789248B9420FD18DF82020EA
:105170008DF82130089800F0F7FAC0F30332C3B27B
:10518000032A1DD8DFE802F01313212100EBC1062A
:1051900096F801E09E4506D110F831E0964502D11F
:1051A000B678002EC7D1013101F00701DCE710F419
:1051B000706F01D0002BBED02033DBB2072BBAD9E1
:1051C0002046FFF76CFE4D46B5E710F4706FF3D044
:1051D000A27912F0F00FEFD1ADE7B8F1000FAAD02D
:1051E000B37943F00103B3710025A4E780B26045B1
:1051F00016D08DF820208DF821303888BDF8205049
:1052000085420DD1B8F1000F0AD1A1712046FFF7F8
:1052100046FE23683B6063687B60FFF7F1FED2E7E0
:105220008DF820208DF821300898FFF7B8FEE0B106
:10523000B8F1000F19D0B3791F2B0CD93288ADF813
:10524000282000228DF82A20ADF82CA08DF82E30D1
:105250000AA8FFF724FE2368336063687360FFF7D2
:10526000D7FEFFF7CDFE012565E72046FFF717FEC5
:10527000F9E711F0F00513D18DF820208DF82130D9
:105280008DF82280ADF824A09EE80300FFF792FE7F
:105290003846FFF704FE3D607D60FFF7B1FE4AE748
:1052A00080B2604514D08DF820208DF821303888E8
:1052B000BDF8205085420BD1B8F1000F08D1A17183
:1052C0002046FFF7ECFDC7F80080C7F804807AE7B6
:1052D0008DF820208DF821300898FFF760FE002817
:1052E000C3D0B8F1000FC0D0B3791F2BB3D9328827
:1052F000ADF8302000228DF83220ADF834A08DF8C2
:1053000036300CA8A5E73088ADF81400002960D02D
:1053100085B24FF6FF77BD425BD0B578002D58D1EE
:10532000AAEB010189B2C72944D84546002D9CD07B
:1053300080B2B84223D08DF820208DF821303188FA
:10534000BDF8200088421AD1B379DA0712D41A09BD
:1053500010D0A3711B090F2B1FBFA279013363F378
:105360000712A2712046FFF79AFD23683360636835
:10537000736092E72368336063687360DBE68DF8DF
:1053800020208DF821300898FFF709FE00287FF4CF
:1053900062AFB379204643F00103B371FFF77FFD9D
:1053A000C9E600BFDC1B0020241C0020251C0020B7
:1053B000E41B00208DF82280ADF824A08DF8202079
:1053C0008DF821309EE80300FFF7F4FD356075602D
:1053D00063E7B8F1000F3FF448AF8DF820208DF857
:1053E00021300898FFF7DBFD054600283FF43DAF6C
:1053F00023683360636803487360FFF768FAFFF758
:1054000007FE4AE7DC1B0020F0B587B08DE80300FB
:105410006846FFF749FE2F4F2F4D0646B0B1BDF845
:105420000430BDF80020ADF8082043B192B24FF629
:10543000FF739A4203D09DE80300FFF7C1FD274C9C
:1054400028783B78834228D107B0F0BD9DE803005F
:1054500004AB83E80300BDF80410BDF81020ADF8DC
:105460000C200029EBD090B24FF6FF729042E6D0AC
:105470003C782878621C02F00702824221D0174E45
:10548000ADF8141003CB06EBC40E46F834003A70A6
:10549000CEF80410FFF79AFDD1E704EBC000FFF748
:1054A00003FE0028D0D02B7804EBC30254F833005D
:1054B0005168FFF785FD2B78013303F007032B704C
:1054C000BEE7FFF73DFD064B3E702E701E605E602E
:1054D000BAE700BF241C0020251C0020E41B00208C
:1054E000DC1B0020F8B50346002853D00025012618
:1054F0001878732803F1010406D8042820D2012863
:105500000AD002281FD0F8BD752835D02AD3A0F1C3
:1055100084036F2B33D9F8BD9C1C5B7803F1200208
:10552000D2B2072A0BD803F007039840C0B200F0AC
:10553000B3F900F0F1F92F4637BB2346D8E71846F8
:10554000FFF7CAF9F7E758789C1C00F12003DBB29B
:10555000072B16D800F0070006FA00F0C0B200F0E2
:10556000A3F9E6E75F789C1C002FE4D00A20013FF6
:1055700001F08BFAFFB2F7E79C1C5D78DBE700F0E7
:105580007F00FFF72BFAD6E70A20013F01F07DFAF2
:10559000FFB2D1E7F8BD704708B5FFF7FCFF08BDC3
:1055A00008B5FFF7F9FF034B1860BDE80840FFF7A7
:1055B000ABBC00BF281C00207047FFF7F1BF000004
:1055C000024B1B681843FFF7EBBF00BF281C0020ED
:1055D000024B1B681840FFF7E3BF00BF281C0020E8
:1055E000024B1B685840FFF7DBBF00BF281C0020A0
:1055F000704708B5FFF7FCFF08BD000008B5FFF7CE
:10560000F8FF034B1860BDE80840FFF77DBC00BF02
:105610002C1C00200020FFF7F1BF012303FA00F04B
:10562000FFF7ECBF012303FA00F0024B1B6818439D
:10563000FFF7E4BF2C1C0020012303FA00F0034B0A
:105640001B6823EA0000FFF7D9BF00BF2C1C002015
:10565000012303FA00F0024B1B685840FFF7CEBF4E
:105660002C1C0020024B1B681843FFF7C7BF00BF6C
:105670002C1C0020024B1B681840FFF7BFBF00BF67
:105680002C1C0020024B1B685840FFF7B7BF00BF1F
:105690002C1C002070470000C0F3072303EB4303DA
:1056A00000EB430303F0FF0337B503F007020120CB
:1056B0009040DB080A4A03EB8303C0B21344002482
:1056C0005D7821FA04F242F300026A40024001349C
:1056D0006A40052C03F8012FF2D103B030BD00BFA2
:1056E0002F1C0020C0F3072303EB430313B500EB8B
:1056F000430000F0FF0000F007040949C00800EB78
:1057000080000022014410468B5CE34003F001035B
:10571000934001321843052AC0B2F5D102B010BD42
:10572000301C00200E4B73B51E680E4BADF8040004
:105730001B681F241E4326FA04F3DB0706D414F16A
:10574000FF34F8D20025284602B070BDE5B20199B9
:105750002846FCF70BF880B20128F0D0F3E700BF31
:105760002C1C0020281C002007B5ADF8040001986F
:10577000FFF7D8FF0199FBF7F9FF03B05DF804FBD1
:1057800013B50E4BADF804101B7823B10198FFF749
:10579000EBFF02B010BD60B10198FFF7C3FF0446F4
:1057A00001460198FFF778FF01992046FBF7DEFFDD
:1057B000EFE70198FFF796FF0446F5E7DB1B0020B3
:1057C000024B93F90000C0F3C7007047791C00201A
:1057D000024B187800F00700704700BF791C0020CA
:1057E000034B187810F0070018BF0120704700BF66
:1057F000791C0020064A5378C3F38001814205D00A
:1058000060F382035370108800F020B9704700BF26
:10581000A01D0020034B587880F00400C0F38000E6
:10582000FFF7E8BFA01D00200120FFF7E3BF002025
:10583000FFF7E0BF014B1878704700BF7B1C0020CA
:10584000024A137818431070704700BF7B1C002079
:10585000024A137823EA0000107070477B1C002076
:10586000014B00221A7070477B1C0020024A1378FB
:1058700018431070704700BF7C1C0020024A137848
:1058800023EA0000107070477C1C0020014B0022AE
:105890001A7070477C1C0020024A1378184310705D
:1058A000704700BF781C0020024A137823EA0000EA
:1058B00010707047781C0020014B00221A7070474E
:1058C000781C0020014B1878704700BF7A1C00201C
:1058D000704708B5FFF7FCFF08BD000008B5064B90
:1058E0005B785B0706D4054B1978814202D01870AB
:1058F000FFF7EFFF08BD00BFA01D00207A1C0020AD
:1059000008B5044B1A781AB100201870FFF7E1FFB0
:1059100008BD00BF7A1C002010B50D4B0D491B7847
:1059200009780D4C0B430D49206809780B430C494D
:105930000370097831B10B43037000F0FBF808B134
:10594000FFF7DEFF2068BDE81040FEF7A9BE00BFEC
:105950007B1C00207C1C002088130020781C002069
:105960007A1C0020704708B5FFF7FCFF08BD000057
:105970000A4A5278520710B50CD4094C41EAC001CA
:105980002170FFF74FFE94F90000C0F3C700FFF746
:10599000EAFF10BDBDE81040FFF744BEA01D002087
:1059A000791C002008B5034B00201870FFF7DBFFBF
:1059B00008BD00BF791C002008B50C4A92F90030E0
:1059C00023EA000040B21070420702D1DBB28342EA
:1059D00003D1074B5B785B0707D5C0F3C700FFF720
:1059E0002BFEBDE80840FFF7DDBF08BD791C002095
:1059F000A01D00200020704708B5FDF72BF94FF6D9
:105A0000FF710020BDE80840FDF7A7B908B50020E8
:105A1000FDF791F94FF6EA63C31A5842584108BDA1
:105A20000220FDF77DB90320FDF77AB90146032076
:105A3000FDF77EB910B50420FDF772F90446222067
:105A4000FDF76EF944EA002080B210BD10B5C1B276
:105A500004460420FDF76CF9210A2220BDE810401D
:105A6000FDF766B90720FDF75BB901460720FDF792
:105A70005FB901460F20FDF7A5B901461320FDF7D8
:105A8000A1B90020FFF7F9BF08B50020FFF7F1FF2B
:105A9000FFF7F7FF08BD000010B5FDF7DBF84FF684
:105AA000EA610020FDF759F900210220FDF740F9D5
:105AB000002103200024FDF73BF91A4B2146042066
:105AC0001C60FDF735F921462220FDF731F921460A
:105AD0000520FDF72DF921460620FDF729F9FF21C4
