:100000000C9400070C9447070C9447070C9447077F
:100010000C9447070C9447070C9447070C94470728
:100020000C9447070C9447070C94A1200C94DD1FF7
:100030000C949D280C9447070C9447070C94470791
:100040000C9447070C9447070C9447070C944707F8
:100050000C9447070C9450280C9447070C944707BE
:100060000C9447070C9447070C9447070C944707D8
:100070000C9447070C9447070C9447070C944707C8
:100080000C9447070C9447070C9447070C944707B8
:100090000C9447070C9447070C9447070C944707A8
:1000A0000C9447070C9447070C944707F811F81174
:1000B000321232128B12A613A613A613A7121B1309
:1000C0002C132C1388188B18AE18BB18C218E21802
:1000D000E51827194919F319F319541956195A191A
:1000E0008219A719AA19AD19D119F11D181EBF1F20
:1000F000181EBF1F641E871EBF1F7C1F8C1FEB2C8A
:10010000EB2CFE2CFE2CF42CFE2CFE2CFE2CEB2CCF
:10011000EB2CF92CFE2CFE2CF92C0000000000002A
:1001200000000000000000000000000000000000CF
:1001300000000000000000000000000000007E0F32
:1001400000D4FFFFFFC7000000780000000000009F
:1001500000002A2B28000000000000000000000022
:10016000000000000029000000002C1E3420212285
:1001700024342627252E362D3738271E1F202122EE
:10018000232425263333362E37381F040506070867
:10019000090A0B0C0D0E0F10111213141516171857
:1001A000191A1B1C1D2F3130232D35040506070895
:1001B000090A0B0C0D0E0F10111213141516171837
:1001C000191A1B1C1D2F3130354C2F0A002A0A002A
:1001D0002D0A002B0A003D2020202020496D616758
:1001E000696E61727920526F6F74210A002020209D
:1001F00020202020202020202020202020202020FF
:10020000200A002020202020202020202020202024
:10021000202020202020200A002020202020202014
:10022000202020202020202020202020200A002004
:1002300020202020202020202020202020202020BE
:100240002020200A002020202020202020202020E4
:100250002020202020202020200A002020202020D4
:100260002020202020202020202020202020200AA4
:10027000002020202020202020202020202020209E
:1002800020202020200A00202020202020202020A4
:1002900020202020202020202020200A0020202094
:1002A000202020202020202020202020202020204E
:1002B000200A002020202020202020202020202074
:1002C000202020202020200A0000DA0281FFD9F11E
:1002D000DB20A4A62EAF00A0C000A1C800AED58030
:1002E000A81FD300408D14200064321400000000C9
:1002F00000000000000000000000000000000000FE
:1003000000000000000000000000000000000000ED
:10031000000000000000003FBFDFE7E76737DBCBEE
:100320000B0B0BCBCFEDF5F5F5F5F5F5F5F5F5F593
:10033000FBFB8B0D05C5454565BDC3FFFFFFFFFFFB
:10034000FFFF0000000000000000000000000000AF
:10035000000000000000000000000000000000009D
:10036000000000000000000000000000000000008D
:10037000000000000000000000000000000000007D
:10038000000000000000000000000000000000006D
:1003900000000000000000E3E6C7CFDFFEFEFDBA6C
:1003A0008AC200FFF3E3FFFFFFFFFFFFFFFFFFFF36
:1003B000F9F1FBF8040EFEFE3187FFFFFFFFFFFFA0
:1003C000FFFF00000000000000000000000000002F
:1003D000000000000000000000000000000000001D
:1003E000000000000000000000000000000000000D
:1003F00000000000000000000000000000000000FD
:1004000000000000000000000000000000000000EC
:1004100000000000000000BFDFCFCFFFFDF8F1F3C8
:10042000F3FFFFF0670F3F7FFFFFAF6F4F0F0F4FDF
:100430006FBF1FC1CCFE3F1F9EE1FFFFFFFFFFFF0D
:10044000FFFF0000000000000000000000000000AE
:10045000000000000000000000000000000000009C
:10046000000000000000000000000000000000008C
:10047000000000000000000000000000000000007C
:10048000000000000000000000000000000000006C
:1004900000000000000000FFFFFFEFCFCFDFDFDF35
:1004A000D9F9F8F8ECEEDFDFFEFCDDD9D9D9D9D9DE
:1004B000C1EEFFFFFFCF0E06E1FFFFFFFFFFFFFFD3
:1004C000FFFF00000000000000000000000000002E
:1004D000000000000000000000000000000000001C
:1004E000000000000000000000000000556E646580
:1004F00066696E6564004C617965723A200041441A
:100500004A0A004C617965723A2000202D2D2D2D6C
:100510002043616C63756C61746F72202D2D2D2DDD
:100520000A004D6163726F0A004C617965723A206E
:10053000004E756D7061640A004C617965723A20F5
:100540000000AE05010980A101850319012AB70049
:10055000150126B700950175108100C0050C090131
:10056000A101850419012AA002150126A002950106
:1005700075108100C005010906A10185050507194F
:10058000E029E71500250195087501810205071985
:100590000029EF1500250195F07501810205081964
:1005A000012905950575019102950175039101C019
:1005B0000660FF0961A1010962150026FF00952070
:1005C000750881020963150026FF009520750891C2
:1005D00002C005010906A101050719E029E7150078
:1005E00025019508750181029501750881010507AE
:1005F000190029FF150026FF0095067508810005E2
:100600000819012905950575019102950175039158
:1006100001C009025B00030100A0FA090400000107
:100620000301010009211101000122400007058199
:100630000308000A09040100020300000009211157
:1006400001000122220007058203200001070503A3
:100650000320000109040200010300000009211128
:10066000010001226D000705840320000A12010029
:100670000200000008EDFE6969010001020001149A
:100680000353006800650065007000790050006148
:100690000064000000100343006900700075006CE6
:1006A000006F00740000000403090407087F0807B6
:1006B000003E5B4F5B3E003E6B4F6B3E001C3E7C42
:1006C0003E1C00183C7E3C18001C577D571C001C2B
:1006D0005E7F5E1C0000183C180000FFE7C3E7FFC8
:1006E00000001824180000FFE7DBE7FF0030483A5D
:1006F000060E00262979292600407F0505070040BF
:100700007F05253F005A3CE73C5A007F3E1C1C08F1
:1007100000081C1C3E7F0014227F2214005F5F0033
:100720005F5F0006097F017F00006689956A0060AF
:10073000606060600094A2FFA2940008047E040838
:100740000010207E20100008082A1C0800081C2A1F
:100750000808001E10101010000C1E0C1E0C00309B
:10076000383E383000060E3E0E0600000000000045
:100770000000005F000000000700070000147F1465
:100780007F1400242A7F2A12002313086462003693
:100790004956205000000807030000001C224100B9
:1007A000000041221C00002A1C7F1C2A0008083E71
:1007B00008080000807030000008080808080000E1
:1007C00000606000002010080402003E5149453ED0
:1007D0000000427F400000724949494600214149DA
:1007E0004D33001814127F10002745454539003C51
:1007F0004A49493100412111090700364949493622
:1008000000464949291E0000001400000000403441
:1008100000000000081422410014141414140000F5
:1008200041221408000201590906003E415D594E5B
:10083000007C1211127C007F49494936003E41413B
:100840004122007F4141413E007F49494941007FAB
:1008500009090901003E41415173007F0808087FE2
:100860000000417F4100002040413F01007F08140B
:100870002241007F40404040007F021C027F007FF9
:100880000408107F003E4141413E007F09090906EE
:10089000003E4151215E007F091929460026494941
:1008A00049320003017F0103003F4040403F001FE9
:1008B0002040201F003F4038403F0063140814636D
:1008C000000304780403006159494D4300007F414F
:1008D000414100020408102000004141417F000412
:1008E00002010204004040404040000003070800AD
:1008F000002054547840007F284444380038444451
:10090000442800384444287F0038545454180000C8
:10091000087E09020018A4A49C78007F08040478CB
:100920000000447D4000002040403D00007F102832
:1009300044000000417F4000007C04780478007C83
:100940000804047800384444443800FC182424186F
:100950000018242418FC007C08040408004854549F
:1009600054240004043F4424003C4040207C001CEC
:100970002040201C003C4030403C004428102844CB
:10098000004C9090907C004464544C440000083625
:10099000410000000077000000004136080000021E
:1009A00001020402003C2623263C00000000000057
:1009B00000404040F0F8F8FF38FFF8F83FF8F8FF43
:1009C00038FFF8F8F040404000000000000080C010
:1009D000C0C0800000C0C08000000080C0C000C057
:1009E000C0000080C0C00000000000C0C0C0C0C087
:1009F00000C0C00000000000000000000000000077
:100A000000000000000000000000000000000000E6
:100A100000000000000000000000000000000000D6
:100A200000000000000000000000C0F0F8FC3E1EC6
:100A300006010000007F4141417F007F4141417F2D
:100A4000000080C0E07E5B4F5BFEC00000C000DCA9
:100A5000D7DEDEDED7DC00C00000000000000000B2
:100A60000000000000000000000000000000000086
:100A700000494949FFFFFFFFE0DFBFBF00BFBFDF05
:100A8000E0FFFFFFFF49494900000000001F3F60F1
:100A900060E0BF1F007F7F071E381E077F7F007F3B
:100AA0007F0E1F3B716000000000007F7F0C0C0C6C
:100AB000007E7E007F7E0303007F7E03037E7E0335
:100AC000037F7E000F3E703C063C703E0F00327B81
:100AD00049493F7E007F7E0303001E3F69696F2600
:100AE00000000000000000000000030F1F3F3C78E2
:100AF00070600000007F4141417F007F4141417FA4
:100B000000307B7F7830202030787F3B0003000F5F
:100B10007F0F0F0F7F0F0003000000000000000098
:100B200000000000000000000000000000000000C5
:100B300000010101070F0F7F0F7F0F0F7E0F0F7F47
:100B40000F7F0F0F070101010000000000000000EF
:100B50000000010100000000000000000000000093
:100B60000000000000000000000000000000000085
:100B70000000000000000000000000000000000075
:100B80000000000000000000000000000000000065
:100B90000000000000000000000000000000000055
:100BA0000000000000000000000000000000000045
:100BB0000000000000000000000000000000000035
:100BC0000000000000000000000000000000000025
:100BD0000000000000000000000000000000000015
:100BE0000000000000000000000000FFAA7F554048
:100BF000AE000000000000000000000000402F00D8
:100C00003000540000005800260227025500000062
:100C10005F0060006100560000005C005D005E0047
:100C20005700000059005A005B006200AE0000004F
:100C300000000000000000000100010001000100B0
:100C4000000001000100010001000000010001009E
:100C5000010001000000010001000100010000008E
:100C60000100010001000100AE00000000000000D2
:100C7000000000000100745D735D725D0000695D3D
:100C80006A5D6B5D715D0000665D675D685D705DEE
:100C90000000635D645D655D6F5D0000625D6D5DBC
:100CA0006C5D6E5DAE000000000000000000000002
:100CB0000100C25CD45CD05C0000C55CC65CC75C53
:100CC000C85C0000C95CCA5CCB5CCC5C0000000066
:100CD0000000000000000000005C00000000DE5C7E
:100CE00000AF000101010101010101010202020244
:100CF00002020202020303030303030303040404C6
:100D0000040404040505050505060606060607078E
:100D100007070708080808090909090A0A0A0B0B46
:100D20000B0C0C0C0D0D0D0E0E0E0F0F0F101011E5
:100D3000111112121313141415151616171718186B
:100D400019191A1A1B1B1C1D1D1E1E1F20202122D3
:100D500022232424252626272829292A2B2C2D2D19
:100D60002E2F30313232333435363738393A3B3C36
:100D70003D3E3F404142434445464748494A4C4D29
:100D80004E4F50515354555658595A5B5D5E5F61F2
:100D90006264656668696B6C6D6F70727375777885
:100DA0007A7B7D7E8082838587888A8C8E8F9193E3
:100DB0009596989A9C9EA0A2A3A5A7A9ABADAFB10A
:100DC000B3B5B7BABCBEC0C2C4C6C9CBCDCFD1D4EF
:100DD000D6D8DBDDDFE2E4E7E9EBEEF0F3F5F8FA95
:100DE000FDFF2020202000534352200020202020FF
:100DF00000434150200020202020004E554D20006F
:100E000011241FBECFEFDAE0DEBFCDBF04B603FE74
:100E100027C08091030590910405A0910505B0912C
:100E200006058730904BA740B04BD1F410920305D4
:100E300010920405109205051092060514BE84B7A1
:100E4000877F84BF0FB6F894A89580916000886171
:100E500080936000109260000FBEE0E0F8E3099517
:100E600011E0A0E0B1E0E8E9FAE602C005900D92D9
:100E7000A83CB107D9F725E0A8ECB1E001C01D926C
:100E8000A330B207E1F70E940D140C944A350C947C
:100E900000003F924F925F926F927F928F929F924B
:100EA000AF92BF92CF92DF92EF92FF920F931F9378
:100EB000CF93DF93CDB7DEB729970FB6F894DEBF97
:100EC0000FBECDBFFC018081918123813481232B12
:100ED00031F09F3F31F491E08F3F19F403C091E06E
:100EE00001C090E090FF02C00C94F5137F0185E0F3
:100EF000DE01119601900D928A95E1F7F7012281AA
:100F000089819A81222349F00E942F2C182F682F63
:100F100089819A810E948B2C03C00E945E2C182F1D
:100F200069817A81812F0E94BA2A8C01F70182811E
:100F3000882311F40C94DB13980122513F45203192
:100F4000310508F0EBC08FEF93E00E94E131811191
:100F5000EEC0025167E1862E99249394002379F024
:100F60008114F4E09F0609F4E2C0C4010E94E1315B
:100F7000811101C001502FEF821A920AEFCF1E8219
:100F80001F8218861986442443945AE0352E840122
:100F90000F5F1F4FC4010E94E1318E831F8288239F
:100FA00009F4C5C09FEF980F933060F48F834E8291
:100FB00032E0830E911CC8010E94E13188878111C3
:100FC00002C0B5C048018E010A5F1F4FF8012081A1
:100FD0002223E9F2213009F04CC08181813049F4AB
:100FE0006801F2E0CF0ED11CF80182810E94D12D60
:100FF0000AC0823051F46801F2E0CF0ED11CF80132
:1010000082810E945E2D860186C0833049F468018A
:10101000F2E0CF0ED11CF80182810E942C2DF3CF7B
:10102000843019F00F5F1F4F76C0F80122810E5FE8
:101030001F4F80E090E030E0205331092A30310525
:1010400068F4389EA001399E500D1124C901840F07
:10105000951F0F5F1F4FF8012081EDCF009709F416
:101060005AC0EFE9FFE03197F1F700C000000197A7
:10107000F5CFE22FF0E0E65BFE4F5490822F86958D
:101080008695869590E0FC01E65CFE4F64902770A3
:10109000712C022E02C0759467940A94E2F7F1E075
:1010A0006F227724FC01E65DFE4FA490B12C022E46
:1010B00002C0B594A7940A94E2F731E0A322BB24BE
:1010C000FC01E65EFE4FC490D12C02C0D594C794BB
:1010D0002A95E2F781E0C822DD246114710419F039
:1010E00081EE0E945E2DA114B10419F086EE0E94DB
:1010F0005E2D852D0E94D12DAB2819F086EE0E9421
:101100002C2D672819F081EE0E942C2DCD2819F086
:101110008CE20E94D12D0F5F1F4F58CF0031FFE5A9
:101120001F0759F581E00E94C72C0E94D71C8091AF
:10113000B604877011F40C94F513F70182818823AB
:1011400011F40C94F51382E029960FB6F894DEBFE3
:101150000FBECDBFDF91CF911F910F91FF90EF9008
:10116000DF90CF90BF90AF909F908F907F906F90C7
:101170005F904F903F900C94A62401312FE5120709
:1011800031F482E00E94C72C0E94D71CD0CF0936D0
:10119000FDE51F0709F064C0882349F28091D00162
:1011A0008111C5CF8091CF0181112AC060910401C6
:1011B00070910501809106019091070147E050E090
:1011C0000E945230609304017093050180930601E0
:1011D0009093070140E050E00E94831B0E943B2A4D
:1011E000EFE3F2E001900020E9F73197EF53F2408E
:1011F00062E085E18E1B0E94242A0E94BD1C97CFCD
:1012000060910001709101018091020190910301B0
:1012100047E050E00E94523060930001709301015A
:10122000809302019093030140E050E00E94831BF1
:1012300063E081E00E94242A89E192E00E94751B0C
:10124000EFE3F2E001900020E9F73197EF53F2402D
:1012500063E085E18E1B0E94242A0E94BD1C67CF9B
:101260000A362DE5120708F0B0C404363DE5130731
:1012700009F065C0882309F45ACF8091D00181110B
:1012800056CF8091CF0181112AC0609104017091E5
:101290000501809106019091070142E050E00E9413
:1012A000523060930401709305018093060190937E
:1012B000070140E050E00E94831B0E943B2AEFE3BD
:1012C000F2E001900020E9F73197EF53F24062E03D
:1012D00085E18E1B0E94242A0E94BD1C28CF6091AC
:1012E000000170910101809102019091030142E09F
:1012F00050E00E945230609300017093010180938E
:1013000002019093030140E050E00E94831B63E0E0
:1013100081E00E94242A87E892E00E94751BEFE397
:10132000F2E001900020E9F73197EF53F24063E0DB
:1013300085E18E1B0E94242A0E94BD1CF8CE053632
:101340009DE5190708F01AC10236EDE51E0709F000
:1013500065C0882309F4EBCE8091D0018111E7CEDE
:101360008091CF0181112AC0609104017091050123
:10137000809106019091070140E050E00E945230B8
:101380006093040170930501809306019093070117
:1013900040E050E00E94831B0E943B2AEFE3F2E012
:1013A00001900020E9F73197EF53F24062E085E1C8
:1013B0008E1B0E94242A0E94BD1CB9CE60910001A0
:1013C00070910101809102019091030140E050E091
:1013D0000E945230609300017093010180930201DA
:1013E0009093030140E050E00E94831B63E081E0A2
:1013F0000E94242A83EB92E00E94751BEFE3F2E047
:1014000001900020E9F73197EF53F24063E085E166
:101410008E1B0E94242A0E94BD1C89CE0336FDE546
:101420001F0708F465C0882309F481CE8091D0019C
:1014300081117DCE8091CF0181112AC0609104017C
:1014400070910501809106019091070141E050E003
:101450000E9452306093040170930501809306014D
:101460009093070140E050E00E94831B0E943B2ABA
:10147000EFE3F2E001900020E9F73197EF53F240FB
:1014800062E085E18E1B0E94242A0E94BD1C4FCE83
:10149000609100017091010180910201909103011E
:1014A00041E050E00E9452306093000170930101CE
:1014B000809302019093030140E050E00E94831B5F
:1014C00063E081E00E94242A8DE992E00E94751B6E
:1014D000EFE3F2E001900020E9F73197EF53F2409B
:1014E00063E085E18E1B0E94242A0E94BD1C1FCE52
:1014F000011520E4120709F052C0F7019581907F91
:1015000079F18823B9F180913E02882311F080FFA0
:1015100007C080E00E94BB2C81E00E94C72C07CE50
:1015200090E09C013595279520FF0BC081E00E943B
:10153000BB2C0E9433300E943B2A82E00E94C72CC1
:10154000F6CD959587959595879580FFF0CD0E946E
:101550003B2A82E00E94BB2C80E00E94C72CE7CD92
:10156000882341F00E9433300E943B2A83E00E948E
:10157000C72CDDCD83E00E94BB2CD9CD06363DE5DE
:10158000130709F492C108F4F5C10736EDE51E070B
:1015900009F455C20836FDE51F0709F4B5C2033F3B
:1015A000FCE51F0799F1B8F4083D3CE5130729F164
:1015B000093D9CE5190709F444C0073DECE51E0709
:1015C00009F048C006E221EE41EE67ED7CE5C70177
:1015D0000E945B29ACCD053FFCE51F0749F1F8F0FF
:1015E000063F3CE51307B1F507E225EE46EE66EF50
:1015F0007CE5C7010E945B299ACD07E225EE45EE06
:1016000068ED7CE5C7010E945B2991CD06E221EEE1
:1016100040EE63EF7CE5C7010E945B2988CD07E2BD
:1016200025EE44EE64EF7CE5C7010E945B297FCD87
:1016300006E221EE42EE65EF7CE5C7010E945B29E0
:1016400076CD08E221E045EE69ED7CE5C7010E9418
:101650005B296DCD882309F45CC51092E00402304B
:101660008CE5180708F43FC506319CE5190730F0F2
:10167000C8018A5F9C45099708F035C50E94BA23C6
:101680009093ED048093EC040031ECE51E0709F41F
:10169000C3C008F041C008302CE5120709F49AC015
:1016A000F0F404308CE5180709F487C068F40230C0
:1016B000ECE51E0709F477C003301C4509F0E5C0CE
:1016C0008091EC04826076C006302CE5120709F4A4
:1016D0006EC008F07BC08091EC0488606BC00C3059
:1016E0008CE5180709F485C068F40A30ECE51E079C
:1016F00009F474C008F079C00E94022D8091EC04B6
:10170000806858C00E302CE5120709F476C008F046
:101710007FC08091EC048BC00B3F8CE5180709F467
:101720004FC018F50331ECE51E0709F47DC078F4CD
:1017300001312CE5120709F473C002311C4509F090
:10174000A4C00E94022D8091EC048F7733C0053134
:101750008CE5180709F472C008F486C00A3F1C45DE
:1017600009F093C08091ED043EC00F3FFCE51F07D8
:1017700009F45FC058F40D3F3CE5130709F444C079
:1017800008F43FC08091ED0482602DC001309DE5DA
:10179000190709F475C008F45DC002301D4509F051
:1017A00074C060E06EC08091EC04816003C08091E1
:1017B000EC0480618093EC0468C08091EC0411C05B
:1017C0008091ED0482608093ED045FC08091EC0411
:1017D0008062F0CF8091EC048064ECCF8091EC04C7
:1017E00088608460E7CF8160EECF8091EC048E7FCB
:1017F000E1CF8091EC048D7FDDCF8091EC04877F79
:10180000D9CF8091ED0418C08091ED048D7FDBCF9E
:101810008091EC048F7ECECF8091EC048F7DCACF77
:101820008091EC048F7BC6CF8091EC04877F8B7F07
:10183000C1CF8091ED048D7F8E7FC5CF8091EC0468
:1018400082FB222720F991E0922790FB82F990FBFE
:1018500083F9B0CF8091ED04982F909591708E7F91
:10186000892B90FB81F9AFCF0E94022D8091EC046F
:1018700087FB222720F991E0922790FB87F99ACFE6
:1018800061E08EE090E00E94F5316091EC041091EF
:10189000ED0484E090E00E94F531612F82E290E057
:1018A0000E94F5310E94022D42CC882309F43FCCDE
:1018B0008091D00181113BCC8091CF0181112AC050
:1018C00060910401709105018091060190910701DA
:1018D00044E050E00E94523060930401709305018F
:1018E000809306019093070140E050E00E94831B23
:1018F0000E943B2AEFE3F2E001900020E9F73197E4
:10190000EF53F24062E085E18E1B0E94242A0E9480
:10191000BD1C0DCC6091000170910101809102010C
:101920009091030144E050E00E9452306093000126
:1019300070930101809302019093030140E050E015
:101940000E94831B63E081E00E94242A8BE592E0E1
:101950000E94751BEFE3F2E001900020E9F7319758
:10196000EF53F24063E085E18E1B0E94242A0E941F
:10197000BD1CDDCB882309F4DACB8091D001811125
:10198000D6CB8091CF0181112AC060910401709162
:101990000501809106019091070143E050E00E940B
:1019A0005230609304017093050180930601909377
:1019B000070140E050E00E94831B0E943B2AEFE3B6
:1019C000F2E001900020E9F73197EF53F24062E036
:1019D00085E18E1B0E94242A0E94BD1CA8CB609129
:1019E000000170910101809102019091030143E097
:1019F00050E00E9452306093000170930101809387
:101A000002019093030140E050E00E94831B63E0D9
:101A100081E00E94242A81E792E00E94751BEFE397
:101A2000F2E001900020E9F73197EF53F24063E0D4
:101A300085E18E1B0E94242A0E94BD1C78CB88233E
:101A400009F475CB8091D001811171CB8091CF01C8
:101A500081112AC0609104017091050180910601F5
:101A60009091070145E050E00E94523060930401DC
:101A700070930501809306019093070140E050E0C8
:101A80000E94831B0E943B2AEFE3F2E001900020BA
:101A9000E9F73197EF53F24062E085E18E1B0E9437
:101AA000242A0E94BD1C43CB60910001709101016A
:101AB000809102019091030145E050E00E94523074
:101AC00060930001709301018093020190930301E0
:101AD00040E050E00E94831B63E081E00E94242AE2
:101AE00085E492E00E94751BEFE3F2E00190002094
:101AF000E9F73197EF53F24063E085E18E1B0E94D6
:101B0000242A0E94BD1C13CB882309F410CB80919A
:101B1000CF0181112AC0609104017091050180916B
:101B200006019091070146E050E00E945230609318
:101B3000040170930501809306019093070140E032
:101B400050E00E94831B0E943B2AEFE3F2E00190E9
:101B50000020E9F73197EF53F24062E085E18E1BF8
:101B60000E94242A0E94BD1CE2CA6091000170916B
:101B70000101809102019091030146E050E00E9432
:101B800052306093000170930101809302019093A1
:101B9000030140E050E00E94831B63E081E00E946B
:101BA000242A8FE292E00E94751BEFE3F2E001909D
:101BB0000020E9F73197EF53F24063E085E18E1B97
:101BC0000E94242A0E94BD1CB2CA0F362DE51207BE
:101BD000B1F4882309F4ABCA8091D0018111A7CA5E
:101BE00082E08093CE0181E08093CF0163E080E0CA
:101BF0000E94242A80ED91E00E94751B98CA00374C
:101C00003DE5130708F0D3C10B369DE5190709F030
:101C100065C0882309F48BCA8091D001811187CADD
:101C20008091CF0181112AC060910401709105015A
:101C3000809106019091070149E050E00E945230E6
:101C4000609304017093050180930601909307014E
:101C500040E050E00E94831B0E943B2AEFE3F2E049
:101C600001900020E9F73197EF53F24061E085E100
:101C70008E1B0E94242A0E94BD1C59CA609100013B
:101C800070910101809102019091030149E050E0BF
:101C90000E94523060930001709301018093020111
:101CA0009093030140E050E00E94831B63E081E0D9
:101CB0000E94242A8DEE91E00E94751BEFE3F2E072
:101CC00001900020E9F73197EF53F24063E085E19E
:101CD0008E1B0E94242A0E94BD1C29CA0B36EDE5EA
:101CE0001E0708F065C0882309F421CA8091D0013D
:101CF00081111DCA8091CF0181112AC06091040118
:101D000070910501809106019091070148E050E033
:101D10000E94523060930401709305018093060184
:101D20009093070140E050E00E94831B0E943B2AF1
:101D3000EFE3F2E001900020E9F73197EF53F24032
:101D400062E085E18E1B0E94242A0E94BD1CEFC91F
:101D50006091000170910101809102019091030155
:101D600048E050E00E9452306093000170930101FE
:101D7000809302019093030140E050E00E94831B96
:101D800063E081E00E94242A83E092E00E94751BB8
:101D9000EFE3F2E001900020E9F73197EF53F240D2
:101DA00063E085E18E1B0E94242A0E94BD1CBFC9EE
:101DB0000C36FDE51F0709F0E0C0882309F4B7C918
:101DC0009091CF018091D001992309F4ACC0811189
:101DD000AAC08091CE01882309F4A7C08230E1F027
:101DE000B0F4813009F077C02091000130910101F9
:101DF000409102015091030160910401709105012D
:101E000080910601909107010E942A325CC08330C4
:101E1000B1F0843039F15FC02091000130910101AF
:101E200040910201509103016091040170910501FC
:101E300080910601909107010E94293244C02091AF
:101E40000001309101014091020150910301609124
:101E500004017091050180910601909107010E9493
:101E6000FA3331C08090040190900501A0900601E2
:101E7000B090070120E030E0A901C501B4010E9443
:101E80009632882389F040900001509001016090C3
:101E900002017090030120E030E0A901C301B2010A
:101EA0000E949632811109C01092CA011092CB0192
:101EB0001092CC011092CD010EC0A3019201C50178
:101EC000B4010E949B326093CA017093CB0180934E
:101ED000CC019093CD0181E08093D0016091CA0143
:101EE0007091CB018091CC019091CD0143E050E005
:101EF0000E94831B0E943B2A63E080E00E94242A08
:101F00008DE30E94F51AEFE3F2E001900020E9F77B
:101F10003197EF53F24063E085E18E1B0E94242A43
:101F20000E94BD1C04C9811102C981E08093D001C7
:101F30006091040170910501809106019091070163
:101F400043E050E00E94831B0E943B2A63E080E054
:101F50000E94242A8DE30E94F51AEFE3F2E001903B
:101F60000020E9F73197EF53F24063E085E18E1BE3
:101F70000E94242A0E94BD1CDAC80E362DE51207E5
:101F800009F00DCB882309F4D2C88091D0018111CA
:101F9000CEC881E08093CE018093CF0163E080E0E2
:101FA0000E94242A83ED91E00E94751BC0C801376E
:101FB0003DE51307B1F4882309F4B9C88091D00135
:101FC0008111B5C884E08093CE0181E08093CF0178
:101FD00063E080E00E94242A8AEC91E00E94751B55
:101FE000A6C801379DE51907B0F4882309F49FC8F6
:101FF0008091D00181119BC883E08093CE0181E064
:102000008093CF0163E080E00E94242A8DEC91E070
:102010000E94751B8CC80237EDE51E0741F488232A
:1020200009F485C80E9433300E943B2A80C80437D7
:10203000FDE51F0709F0B3CA882309F478C8809129
:10204000CF01811174C88091D001811170C8809135
:10205000CE0181116CC88090040190900501A09080
:102060000601B090070120E030E0A901C501B401EC
:102070000E94F53387FD29C0C501B4010E946D346B
:102080006093CA017093CB018093CC019093CD01F2
:1020900043E050E00E94831B0E943B2A63E080E003
:1020A0000E94242A8DE30E94F51AEFE3F2E00190EA
:1020B0000020E9F73197EF53F24063E085E18E1B92
:1020C0000E94242A0E94BD1C0AC00E943B2A63E091
:1020D00080E00E94242A86ED91E00E94751B81E039
:1020E0008093D00124C88091B90406312CE51207F1
:1020F00011F58A7A91E009F490E09093D101882358
:1021000011F065E301C069E28EE594E00E94EE28DB
:102110000EC006311C4509F023C18091D1018823EE
:1021200009F461C365E38EE594E00E94C6280E942D
:1021300046240C94970882720B3C2CE5120709F494
:10214000C2C0E8F5063C9CE5190709F49CC0F0F410
:10215000033CFCE51F0709F486C030F4023C3CE573
:10216000130709F457C0C9C0043C9CE5190709F4DA
:1021700082C0053CECE51E0709F0BFC04FE15EE2FE
:1021800068E27EE20E941F2B0C949708083CFCE555
:102190001F0709F488C008F47EC0093C3CE513071A
:1021A00009F489C00A3C9CE5190709F0A6C04BEF69
:1021B0005DE26FEE7DE20E941F2B0C949708003DBC
:1021C000ECE51E0709F48DC080F40D3C2CE51207E8
:1021D00009F481C010F00C94970844E058E263EFD2
:1021E00077E20E941F2B0C949708043D8CE518079A
:1021F00009F47DC010F40C949708053DECE51E072A
:1022000011F40C9497080D35FDE51F0711F40C949B
:10221000970873C08091D30480FF1CC08E7F809389
:10222000D3046091D3047091D4048091D50490912B
:10223000D6040E94442E1092C0042FEF30E782E0B3
:10224000215030408040E1F700C000000E94252B63
:102250000C94970881608093D30461E086950E9476
:10226000FB2E0C9497084DE35FE266E47FE20E9448
:102270001F2B0C94970846E45FE26DE37FE20E9417
:102280001F2B0C94970848E25EE26FE17EE20E9409
:102290001F2B0C94970847E05EE263E17EE20E9408
:1022A0001F2B0C94970843E15EE267E07EE20E94F8
:1022B0001F2B0C9497084FEE5DE26BEF7DE20E94BE
:1022C0001F2B0C94970843EF57E264E078E20E94DA
:1022D0001F2B0C94970861E081E00E94FB2E0C9468
:1022E000970867E082E00E940D2B0C94970861E14B
:1022F00088E00E940D2B0C9497080A359DE519077C
:1023000051F158F40115FCE51F07B1F00E3D1C45D5
:1023100039F50E94D6230C9497080B353DE5130739
:10232000E1F00C351D45E1F48091ED0482FB882736
:1023300080F991E0892712C00E94022D9FEFE4E30B
:10234000FCE09150E040F040E1F700C000000E9446
:102350003F280C94970881E001C080E00E948C2403
:10236000F701828100811181882349F0C8010E9410
:102370002F2CD82E682FC8010E948B2C04C0C801B6
:102380000E945E2CD82EB8018D2D0E94BA2A0E9480
:1023900031228C01982EF701B280A580A2949FE093
:1023A000A9228091B604877099F0BB2089F0812F13
:1023B000807F803421F080E2800F883048F082E016
:1023C0000E94A6248091B6048770DD24D3948111E5
:1023D000D12CC12EC2948FE0C8228C2D90E08C307D
:1023E000910508F0B3C1FC01EA5AFF4F0C94013586
:1023F000812F807F1F70882311F01295107FBB20E2
:10240000B9F0112309F48EC180E2800F883010F0FA
:10241000911006C08091B904182B1093B90405C01F
:102420008091B804182B1093B8040E9446247AC1F6
:10243000802F0E942C2D112309F488C1005E109575
:10244000083010F0911006C08091B9041823109341
:10245000B90405C08091B80418231093B8040E94F1
:10246000462474C1812F807F1F70803211F0129535
:10247000107F992021F0F1E09F1611F130C0BB20B0
:10248000B1F0AA2081F021E0A2120DC08091ED04EC
:1024900082FD5CC18091BA04182B181709F456C14B
:1024A0001093BA0453C18091BA04812B10C0AA20A2
:1024B00021F031E0A31609F449C10E94402427C04D
:1024C000BB2041F085E08A1508F440C1812F0E94AD
:1024D000222D3CC194E09A1508F438C118C0BB20E5
:1024E00049F0AA2099F3F701858180FF1BC18F7005
:1024F0008583ECCFAA2059F0093309F024C1FFEFFE
:1025000027EE33E0F15020403040E1F71AC1812F2F
:102510000E94172D1BC1812F86958695837019F017
:10252000813059F013C1BB2019F0C801937002C06B
:1025300080E090E00E9439290FC1BB2019F0C8014A
:10254000937002C080E090E00E94232905C1812F92
:102550008370A9F5B110FEC0402F42954695477093
:10256000440F440F802F8F7090E09C01042E01C017
:10257000220F0A94EAF704FF08C08FE090E001C040
:10258000880F4A95EAF7809501C080E01695169568
:102590001370123069F088F49091BB04113019F077
:1025A000822B892302C0922B892B0E94D22CD2C06D
:1025B000822B9091BB048927F8CF822BF6CFBB20CA
:1025C00019F0812F817001C08695882309F4C2C05B
:1025D000402F429546954770440F440F802F8F70CF
:1025E00090E09C01042E01C0220F0A94EAF704FF38
:1025F00008C08FE090E001C0880F4A95EAF7809507
:1026000001C080E0169516951370123059F078F4D9
:1026100090913E02113019F0822B892309C0922B30
:10262000892B06C0822B90913E02892701C0822B04
:102630000E94B72C8FC01F70BB2039F0812F0E94E1
:10264000C72C802F0E94222D85C0802F0E94172D1D
:10265000812F0E94BB2C7EC0802F92EF991659F1DA
:10266000991538F0E0EF9E1659F0F1EF9F16F1F052
:1026700055C023EF921631F134EF931681F14EC01D
:10268000BB2079F084E08A1508F460C01F7181E0F6
:1026900090E001C0880F1A95EAF790913E028927D1
:1026A0001BC095E09A1508F451C0F0CFBB2029F06B
:1026B000812F8F7126C0BB20D9F3812F8F710E948B
:1026C000BB2C44C0BB2039F01F7181E001C0880FD2
:1026D0001A95EAF701C080E00E94B72C37C0BB20F2
:1026E00099F01F71812F0E94C72C8091ED0482FD0B
:1026F00007C0E8E01E9FC001112483608093B604E8
:10270000812F0E94C72C22C081E00E94A624F1E004
:10271000FA15E0F482E00E94A62418C0BB2031F034
:10272000AA2031F2802F0E945E2D10C0AA2029F22B
:10273000893349F42FEF37EE83E021503040804059
:10274000E1F700C00000802F0E942C2D88EF8C0D37
:10275000843010F40E944F29DD2009F446C0809196
:10276000B60480FD42C0F701128285958595859556
:102770000E94C72CC7010E9449078091B604859525
:102780008595859529960FB6F894DEBF0FBECDBF0F
:10279000DF91CF911F910F91FF90EF90DF90CF903D
:1027A000BF90AF909F908F907F906F905F904F9071
:1027B0003F900C94BB2C00313FE5130739F481E0C6
:1027C0000E94BB2C0E94D71C0C94970801319FE5F6
:1027D000190711F00C94C70882E00E94BB2C0E94DC
:1027E000D71C0C94970869E29ECC29960FB6F894F2
:1027F000DEBF0FBECDBFDF91CF911F910F91FF9034
:10280000EF90DF90CF90BF90AF909F908F907F9090
:102810006F905F904F903F900895CF93DF93CDB727
:10282000DEB7AE970FB6F894DEBF0FBECDBF84B74C
:10283000877F84BF0FB6F894A89580916000886167
:1028400080936000109260000FBE90E080E80FB6A9
:10285000F89480936100909361000FBE85B7806803
:1028600085BF85B7806885BF85ED91E29093C901EA
:102870008093C8010E9421200E9440208091E200A4
:1028800084608093E2007894809134028823A1F0E0
:102890001091E9001F709091EC00892F817090FDDC
:1028A00080E8182B1092E9008091E80083FD0E94D7
:1028B0000B1D1F701093E90082E084BD93E095BD6D
:1028C0009AEF97BD80936E000E94F42A811102C096
:1028D0000E94E52A06E211E05CE2E52E51E0F52EC9
:1028E000D8018D918D018F3F11F00E941A22E016C0
:1028F000F106B1F70CE211E041E3E42E41E0F42EE1
:10290000F80181918F018F3F11F00E941A22E01689
:10291000F106B1F7E2EDF1E088ED91E0A9E0B2E077
:1029200011921D928E179F07D9F70E94CB23811118
:1029300002C00E94D62382E090E00E94E1318093A1
:1029400002020E94BA239093ED048093EC040E944B
:10295000E726FFEF06E711E0F15000401040E1F7F5
:1029600000C000000E94E7268091090280FF08C095
:102970006FEF7FEF80E090E00E9413320E943F28CB
:1029800083E090E00E94E1310E94D22C0E949128C5
:102990009093DE018093DD011092FF0180E8809327
:1029A00053020E94B5306DE070E08CED92E00E9421
:1029B000E21C892B89F58091FF0163E070E081FDC5
:1029C00028C089ED92E00E94E21C892B29F56DE078
:1029D00070E089EC92E00E94E21C892BE9F40E94ED
:1029E0008528DC01CB01805A9541AF4FBF4F8093C2
:1029F000D8049093D904A093DA04B093DB040E9426
:102A00003B2A81E08093DD048093DC041092000275
:102A100003C086ED92E0D7CF8091D801811133C0F9
:102A20000E94CB23811104C00E94D6230E94562EFF
:102A300088E090E00E94E9316093D3047093D4045D
:102A40008093D5049093D6046E7F71F40E94562E25
:102A500088E090E00E94E9316093D3047093D4043D
:102A60008093D5049093D6040E94312E1092C00416
:102A70008091D30480FF04C060E086950E94FB2E05
:102A800081E08093D80153985B9A52985A9A89B101
:102A900083FB882780F94A9B02C092E001C090E046
:102AA000892B8093DB010E943B2A88E091E0909380
:102AB000E4048093E30420E4622ECC24C394D12C5C
:102AC00080913402853009F046C000E112E1809126
:102AD0003402853009F03BC080913402843029F102
:102AE0000E943B2A1092E70468E170E00FB6F89468
:102AF000A895609360000FBE6092600083B7817FED
:102B0000846083BF83B7816083BF7894889583B7DF
:102B10008E7F83BF0FB6F894A8958091600088617E
:102B200080936000109260000FBE80913302882372
:102B300009F4CDCF0E94E726E9E0F2E0819181110E
:102B40007BC48FE092E08E179F07C1F7C0CF0E9431
:102B5000022D0E944F290E94E726A82E81110E9473
:102B60008528A3E0B2E0E9E0F2E000E010E0302FD9
:102B700021919D91922721F180E0FF24F3944F2D24
:102B80004923D1F089A33AA32F2181E009F480E001
:102B90008BA30E9491288160782F9DA38CA349A1CB
:102BA0005AA16BA18DA10E94502FF801ED5FFD4F3E
:102BB0008081F826F08219C08F5FFF0C8530F9F60E
:102BC0000F5F1F4F0630110591F68FEF8EA38FA375
:102BD00018A60E9491288160782F9AA789A74EA1F4
:102BE0005FA168A58AA50E94502F8091C004882308
:102BF00009F441C08091BF04E091D304E695E81B3D
:102C0000E093FF04823061F4E695F0E0E751FD4F78
:102C1000E4910E2F10E09BE5E92E9BE2F92E06C011
:102C200000ED17E08DEAE82E87E2F82E809100058E
:102C3000882361F0109200050E9491289093FE0471
:102C40008093FD0410920205109201050E949128C4
:102C5000E091FD04F091FE048E1B9F0B8F3F9F4778
:102C600050F40E0F1F1F1093FE040093FD048DEF10
:102C700094E0F70109958091DB01E82FEE0FEE0F4C
:102C8000E093DB0189B183FB442440F8512C4A9B3B
:102C900003C082E090E002C080E090E084299529A2
:102CA0008E2B8093DB018F70E82FF0E0EF5CFE4FFE
:102CB00090818091DA01890F8093DA0184305CF091
:102CC0008091D9018F5F8093D9018AEA0E94D12D2A
:102CD000BB24B39401C0B12C8091DA018D3F54F430
:102CE0008091D90181508093D90189EA0E94D12D28
:102CF000BB24B3948091DA01082E000C990B64E098
:102D000070E00E94CE348093DA01B1100E948528D1
:102D10008091DD04882309F4A3C160E080E00E9473
:102D2000242A8091DD019091DE010E947628883B63
:102D30009B4008F044C08091DC01811140C080912B
:102D40005C0490915D04865592409C013E5F213069
:102D5000324028F020E032E0281B390B02C020E08E
:102D600032E06091540270915502DC01AA5ABD4FC5
:102D7000AC01280F391F42175307E0F4FA01E81B92
:102D8000F90BE451FD4FE491FC91EF1779F0EC93CE
:102D9000FA0115E0F695E7951A95E1F7860102C06C
:102DA000000F111FEA95E2F7602B712B4F5F5F4F09
:102DB0001196E1CF70935502609354023FC081E0B9
:102DC0008093DC0180911201882321F00E943B2A2C
:102DD0001092120180913E020E94F82F813099F0EA
:102DE00058F08230D9F08330F1F483E095E00E940E
:102DF000751B8EEF94E00DC089E395E00E94751B72
:102E000081E395E006C089E295E00E94751B82E2AD
:102E100095E00E94751B0E940C3010C08BE095E07D
:102E20000E94751B0BC086EF94E00E94751B8CEE10
:102E300094E00E94751B81E00E94F4298091DD04DA
:102E4000882309F4E2C020915402309155022115E3
:102E5000310509F4DAC0809100028111D6C0282E14
:102E6000312C7601082E02C0EE0CFF1C0A94E2F70A
:102E7000A9014E215F21452B11F48F5FF0CF909176
:102E8000FF01910165E0220F331F6A95E1F790FD84
:102E900012C08295880F807680931501220F232F10
:102EA000221F330B319520931801815E8093160108
:102EB0001092190112C045E0369527954A95E1F721
:102EC000220F220F220F2093150110921801295F63
:102ED0002093160183E08093190124E630E047E057
:102EE00050E063E171E088E70E946C31892B09F0C2
:102EF0008CC08091FF0180FD23C0C10125E0880FB7
:102F0000991F2A95E1F7AC014A5A5D4F04E610E09B
:102F100020E230E060E488E70E949331892B09F0D9
:102F200074C00E94CE29E094F09480915402909154
:102F30005502E822F922F0925502E092540265C04F
:102F400080E2EFEDF1E0DF011D928A95E9F795E06F
:102F5000220C331C9A95E1F7E5E4F1E0FEA7EDA71A
:102F600041E451E0ADA5BEA58D91BEA7ADA7FA0184
:102F70009191AF019101290F311D89010A5A1D4F0D
:102F80001CA70BA790E081529E4FFC0107E09F0118
:102F9000281B390B8C2C01C0880C2A95EAF76BA5ED
:102FA0007CA5912CDB011D91BD011821202F291931
:102FB0002770722E022E000C330BB12F01C0BB0FF5
:102FC0007A94EAF77B2E31952195310927703327C2
:102FD00001C016952A95EAF7712A1081712A70822C
:102FE000939418E09112DECF015031960F3F79F69D
:102FF0006DA57EA56954714009F0B4CF04E610E0D8
:1030000020E230E04FED51E085CF8091DC04882351
:1030100039F10E9485280091D8041091D90420919B
:10302000DA043091DB04DC01CB01801B910BA20B95
:10303000B30B8F3F9F4FAF4FBF4790F48091DD049C
:10304000882371F08091DC04882351F062E070E005
:1030500081E495E00E94E21C892B11F41092DC04BB
:10306000A11001C0B1100E94CE290E944F29909159
:103070000102891721F00E944F298093010280915B
:103080003402843009F01CCD83E08093E900809104
:10309000E80082FF15CD8091E80085FF23C00E94E3
:1030A000762181111DC080E2E82EF12C8E010F5F88
:1030B0001F4F09C08091F100D8018D938D01B1E0BF
:1030C000EB1AF10869F08091E80085FDF3CF80915B
:1030D000E8008B778093E8000E947621882399F39B
:1030E00091E001C090E08091E8008B778093E80048
:1030F000992309F4E5CCE9818E2F90E0FC0131970A
:10310000E331F10508F06FC1EE59FF4F0C94013522
:103110001A8289E0BCC08A81823009F4A3C183305D
:1031200051F0813009F05FC10E9485289B838C8318
:103130007D836E835AC1809109028B8380910A023C
:103140008C8380910B028D8380910C028E83809101
:103150000D028F8380910E02888747C18A81823059
:1031600009F041C16B817C818D819E810E94073570
:1031700086E290E024C04C816B818A810E94942A6F
:103180009D8377C10D811E811027012710278C8117
:10319000EB809A81EAE0EE9E70011124FCE39F9F90
:1031A000E00CF11C1124E80EF11CE80EF11C612F5B
:1031B000C70187960E94F531602FC70188960E944B
:1031C000F53113C10E94602A10C18A818138B1F0A3
:1031D00050F4803809F009C120E04B816091D5049A
:1031E0008091D40431C0823859F1833809F0FDC090
:1031F00020E04091D6046C818B8126C060E08B81F9
:103200000E94FB2E9B818091D304911111C08E7F6F
:103210008093D3041092C0040FEF10E722E0015016
:1032200010402040E1F700C000000E94252BDDC0C7
:1032300081608093D30460E086950E94FB2ED5C008
:103240008B818093D704D1C00E94852BCEC08A8108
:10325000813899F030F4803809F0C7C08091D604E5
:1032600016C0823891F0833809F0BFC08091D40431
:103270008B838091D5048C83B8C08091D30480FF68
:1032800002C0869504C080E002C08091D7048B8381
:10329000ACC06091D3047091D4048091D504909116
:1032A000D6040E94442EA1C080E155C082E08A83EA
:1032B00089EEEDCF0A811B81102701271027AC80F2
:1032C000B12CBE016F5F7F4F4B017B01C801895E4E
:1032D0009E4F9701281939092A153B0508F085C02A
:1032E000093E72E0170730F40E94E131D7011496CD
:1032F0008C9302C0F70114820F5F1F4FFFEFEF1A8C
:10330000FF0AE4CF0A811B81102701271027AC8018
:10331000B12CBE016F5F7F4F4B017B01C801895EFD
:103320009E4F9701281939092A153B0508F05DC001
:10333000093E72E0170728F4D70114966C910E9499
:10334000F5310F5F1F4FBFEFEB1AFB0AE7CF0E946B
:10335000502A4BC084E08A8348C00A811B81102711
:1033600001271027AC80B12CFE0131964F017F015F
:10337000C80187969701281939092A153B05A8F530
:10338000003F110530F40E94E131D70114968C936F
:1033900002C0F70114820F5F1F4FFFEFEF1AFF0A01
:1033A000E7CF0A811B81102701271027AC80B12CA1
:1033B000BE016F5F7F4F4B017B01C801879697016C
:1033C000281939092A153B0580F4003F110528F416
:1033D000D70114966C910E94F5310F5F1F4FBFEF1C
:1033E000EB1AFB0AEACF8FEF898380913402843095
:1033F00009F066CB1091E9001F709091EC00892FC5
:10340000817090FD80E8182B82E08093E900809124
:10341000E80080FF0DC040E050E060E270E0CE01C7
:1034200001960E94A9218091E8008E778093E800A0
:103430001F701093E90044CB09BD19BD09B400FE0B
:10344000FDCF8091D8008F7D8093D8008091E000DF
:1034500082608093E0008091E00081FDFCCF0E94BB
:10346000022D35CB86E290E00E94E1311B821C8266
:103470001D828E83BACF8091360287FF11C0809162
:10348000E80082FD05C0809134028111F8CF11C09F
:103490008091E8008B770BC080913402882349F03B
:1034A0008091E80080FFF8CF8091E8008E778093CC
:1034B000E8000895982F973068F59093E9009817E1
:1034C00039F07091EC002091ED005091F00003C0B4
:1034D000242F762F50E021FD02C09F5FECCF30916A
:1034E000EB003E7F3093EB003091ED003D7F309359
:1034F000ED003091EB0031603093EB007093EC0005
:103500002093ED005093F0002091EE0027FDE5CFD1
:1035100080E008958F708093E90081E00895209104
:103520003C0230913D022617370748F061157105BE
:1035300039F42091E8002E772093E80001C0B9010A
:10354000FC0120E06115710579F180913402882336
:10355000F1F18530F1F18091E80083FD3CC080916C
:10356000E80082FD2EC08091E80080FFEBCF209123
:10357000F3008091F20090E0922B6115710551F0FB
:103580008830910538F421912093F1006150710940
:103590000196F3CF21E0089709F020E08091E80040
:1035A0008E778093E800CECF2111CFCF0AC08091D3
:1035B0003402882361F0853061F08091E80083FD5A
:1035C0000AC08091E80082FFF2CF80E0089582E097
:1035D000089583E0089581E00895BC0184E00C948F
:1035E0001528BC0183E00C941528CF93DF938A3013
:1035F00011F481E003C08D3029F480E0DF91CF9198
:103600000C94F429682F80915C0490915D0426E06D
:10361000FC01A6E5B4E001900D922A95E1F7603E29
:1036200030F026E0FC0111922A95E9F70AC0F6E095
:103630006F9FB00111246555794F46E050E00E941C
:10364000D831C0915C04D0915D0446E050E0BE01E9
:1036500086E594E00E943D35892B49F19E0126556F
:103660003240A90185E0569547958A95E1F781E0BA
:1036700090E0BC0102C0660F771F4A95E2F74091C7
:10368000540250915502462B572B2B5F3F4F65E05C
:10369000369527956A95E1F702C0880F991F2A95FC
:1036A000E2F7842B952B90935502809354029E0150
:1036B0002055324040915302642F70E0C9010E94AE
:1036C000C431481B463010F4240F311D211582E00F
:1036D000380710F020E030E02A5A3D4F30935D0467
:1036E00020935C04DF91CF910895CF93DF93EC0199
:1036F000FE018491882321F00E94F51A2196F8CFCB
:10370000DF91CF9108952F923F924F925F926F92E7
:103710007F928F929F92AF92BF92CF92DF92EF9261
:10372000FF920F931F93CF93DF9300D000D0CDB7BC
:10373000DEB76B017C015C834B834B30510524F079
:103740002AE030E03C832B8320E030E0A901C70170
:10375000B6010E94963287FF0CC0F7FAF094F7F892
:10376000F0948DE280933F0250E4252E52E0352EF6
:1037700004C04FE3242E42E0342E8B819C8197FFBE
:103780003FC020E030E040E85FE3C701B6010E949F
:10379000963287FDBFC020E030E040E251E4C7012F
:1037A000B6010E94963287FDB8C020E030E048ECB8
:1037B00052E4C701B6010E94963287FDB1C020E0F5
:1037C00030E04AE754E4C701B6010E94963287FD13
:1037D000AAC020E030E44CE156E4C701B6010E94E3
:1037E000963287FDA5C020E030E543EC57E4C701E1
:1037F000B6010E94963287FDA0C01C821B8216C0B3
:10380000EB81FC81EF2B91F0EB81FC81EE0FFF1F30
:10381000EE0FFF1FE85AFE4F208131814281538114
:10382000C701B6010E942A326B017C01C701B601B3
:103830000E940D334B015C016115710581059105F5
:1038400039F481010F5F1F4F80E3F101808326C0AF
:1038500081012AE0422E512C612C712C0F5F1F4FE9
:103860009801215031093A832983A30192010E94D2
:10387000E234605DE981FA816083B901CA016115B2
:1038800071058105910551F7F101D801EA17FB0790
:1038900028F48E9190819C938193F8CF2B813C8169
:1038A000232B09F44FC0C501B4010E9445339B018D
:1038B000AC01C701B6010E94293278013FEFE31A3B
:1038C000F30A2EE2F801208367010B811C8101506D
:1038D0001109D8F020E030E040E251E40E94FA33D0
:1038E0004B015C010E94143380E3860FF601819343
:1038F0006F0170E080E090E00E9445339B01AC01D5
:10390000C501B4010E942932E2CF0B811C810E0D4A
:103910001F1D18C026E030E008C085E090E00AC016
:10392000E4E0F0E00CC023E030E03C832B836CCF7C
:1039300082E090E09C838B8367CFE1E0F0E0FC8342
:10394000EB8362CFF80110828FE392E00F900F902B
:103950000F900F90DF91CF911F910F91FF90EF90FB
:10396000DF90CF90BF90AF909F908F907F906F909F
:103970005F904F903F902F9008950F931F93CF9398
:10398000DF93CFE3D2E009900020E9F721970FE31E
:1039900012E00C171D0730F4F80181918F010E948D
:1039A000F51AF7CFDF91CF911F910F910895809174
:1039B0003E02982F9670963011F4886001C0877F80
:1039C0000C94B72CEF92FF920F931F93CF93DF933A
:1039D000EC017B0164E670E088E70E94BB308C015B
:1039E000EC0EFD1ECE15DF0561F017FD0AC0FE01CD
:1039F000849164E670E00E943C318C012196892B11
:103A000089F30E94C031C801DF91CF911F910F91BE
:103A1000FF90EF9008951F93CF93DF93CDB7DEB75C
:103A2000AA970FB6F894DEBF0FBECDBFE6E3F2E073
:103A30008091F100819342E0EE33F407C9F7809161
:103A40003702833009F462C030F4813071F0823083
:103A500009F49CC0B3C08A3009F488C08B3009F4E3
:103A60006DC0893009F0AAC020C080913602813A29
:103A700009F0A4C08091E800877F8093E8008091DE
:103A80003A0290913B02892B21F460E282E192E0BC
:103A900003C060E080E090E070E00E948F1A8091A7
:103AA000E8008B778093E80089C0809136028132EC
:103AB00009F084C080913A0290913B02009719F07E
:103AC000029709F07BC08091E800877F8093E8002F
:103AD0008091E80082FD05C0809134028111F8CF09
:103AE0006DC02091F3008091F20090E0922B02973C
:103AF00029F48091F1008B7F813021F48091F100D5
:103B0000809311028091E8008B7754C08091360237
:103B1000813A09F053C080913A0290913B02892B7F
:103B200009F04CC08091E800877F8093E800809185
:103B3000E80080FFFCCF80911A0137C080913602E7
:103B40008132E1F580913A0290913B02892BB1F5E7
:103B50008091E800877F8093E8000E943B1A809163
:103B6000380280931A010E94022D28C080913602EB
:103B7000813221F58091E800877F8093E8000E94E0
:103B80003B1A809139028093100218C0809136024E
:103B9000813AA1F48091E800877F8093E8008091CA
:103BA000E80080FFFCCF809110028093F1008091AB
:103BB000E8008E778093E8000E943B1A8091E8002D
:103BC00083FFDDC18091360290913702492F50E08A
:103BD0004A30510508F0D3C1FA01EB58FF4F0C945D
:103BE0000135803821F0823809F0C9C108C08091C0
:103BF000320290913302992389F082600FC0809144
:103C00003A028F70873008F0BAC18093E900809142
:103C1000EB0085FB882780F91092E9009091E8007D
:103C2000977F9093E8008093F1001092F10070C1AB
:103C3000282F2D7F09F0A3C1882319F0823061F06D
:103C40009EC180913802813009F099C1933009F00A
:103C500080E0809333022EC08091380281112AC007
:103C600080913A028F702FEF280F263008F087C11D
:103C70008093E9002091EB0020FF1CC0933021F4D9
:103C80008091EB00806214C09091EB009061909362
:103C9000EB0021E030E0A90102C0440F551F8A95D6
:103CA000E2F74093EA001092EA008091EB0088600E
:103CB0008093EB001092E9008091E800877F809369
:103CC000E8000E943B1A5BC1811159C11091380272
:103CD0001F778091E3008078812B8093E3008091AF
:103CE000E800877F8093E8000E943B1A8091E800FB
:103CF00080FFFCCF8091E30080688093E300111186
:103D000002C082E001C083E08093340238C1805851
:103D1000823008F034C120913802309139022C3DB4
:103D200053E0350779F583E08A838AE289834FB7C8
:103D3000F894DE01139620E03EE051E2E32FF0E03C
:103D400050935700E49120FF03C0E295EF703F5F6E
:103D5000EF708E2F90E0EA3010F0C79601C0C09649
:103D60008D939D932F5F243149F74FBF8091E800D9
:103D7000877F8093E8006AE270E0CE0101960E949E
:103D80008F1AB4C080913A0290913B02432F55277D
:103D900043305105A9F068F44130510509F4FEC0E3
:103DA0004230510509F0EBC08BE590E0E2E1F6E02E
:103DB0004BC04132510529F14232510589F1DFC032
:103DC000C901992781309105A1F058F0029709F0B7
:103DD000D6C0EFE7F6E0E4918E2F90E0EFE7F6E053
:103DE00030C0E7EAF6E0E4918E2F90E0E7EAF6E0F3
:103DF00028C0E5E9F6E0E4918E2F90E0E5E9F6E0F1
:103E000020C08330910508F0BAC0880F991FFC01CB
:103E1000EE5AFE4F0190F081E02D89E090E014C051
:103E20008330910508F0ABC0FC01EE0FFF1FE45B8F
:103E3000FE4F0190F081E02DDC01A75BBE4F8C911D
:103E400090E0009709F49BC02091E800277F209321
:103E5000E80020913C0230913D022817390708F410
:103E6000C90140E0009789F120913402222309F42E
:103E70003DC02530D9F12091E80023FD37C02091C5
:103E8000E80022FD2FC02091E80020FFEBCF4091F9
:103E9000F3002091F20030E0342B009759F02830E5
:103EA000310540F444914093F100319601972F5F22
:103EB0003F4FF3CF41E02830310509F040E0209139
:103EC000E8002E772093E800CDCF4111CDCF0AC076
:103ED00080913402882351F0853041F08091E800D0
:103EE00083FD04C08091E80082FFF2CF8091E8005A
:103EF0008B778093E80043C0803809F040C0809100
:103F0000E800877F8093E800809135028093F1007C
:103F10008091E8008E77D3CE811131C08091380234
:103F2000909139029927029754F58091E800877F94
:103F30008093E80010913802109335020E943B1ADA
:103F4000111106C08091E30087FD02C081E001C02D
:103F500084E08093340242E061EC81E00E945A1ACE
:103F600042E261EC84E00E945A1A42E261EC82E093
:103F70000E945A1A42E260EC83E00E945A1A809131
:103F8000E80083FF10C08091E800877F8093E800FD
:103F90008091EB0080628093EB0005C082E190E0AD
:103FA000EDE6F6E051CFAA960FB6F894DEBF0FBE4D
:103FB000CDBFDF91CF911F9108951F920F920FB641
:103FC0000F9211242F933F934F935F936F937F939F
:103FD0008F939F93AF93BF93CF93DF93EF93FF9311
:103FE000C091E900CF708091EC00D82FD17080FD96
:103FF000D0E81092E9008091F000877F8093F00074
:1040000078940E940B1D1092E9008091F000886066
:104010008093F000CD2BCF70C093E900FF91EF911A
:10402000DF91CF91BF91AF919F918F917F916F91D0
:104030005F914F913F912F910F900FBE0F901F9066
:104040001895E8EDF0E080818E7F80831092E20089
:104050001092DA001092E100A0EEB0E08C91816045
:104060008C9380818F77808319BCA7EDB0E08C9111
:104070008E7F8C9380818F7E808310920F020895B3
:10408000CF92DF92EF92FF920F931F93CF93DF9324
:10409000C8EDD0E088818F7E8883E7EDF0E08081F5
:1040A0008160808384E082BF81E080930F028881F9
:1040B0008E7F888302EE10E0F80110821092DA0001
:1040C00081EEC82ED12CF601108288818F778883EB
:1040D00088818068888388818F7D888319BC10924D
:1040E000340210923502109233021092320290EE96
:1040F000E92EF12CF70180818B7F8083888181609C
:10410000888342E060E080E00E945A1AF6018081D4
:104110008E7F8083F80180818160808380818860C8
:104120008083F70180818E7F80838881806188838E
:10413000DF91CF911F910F91FF90EF90DF90CF9083
:1041400008951F920F920FB60F9211242F933F9351
:104150004F935F936F937F938F939F93AF93BF938F
:10416000EF93FF938091E10082FF09C08091E2000C
:1041700082FF05C08091E1008B7F8093E1008091F8
:10418000DA0080FF2AC08091D80080FF26C080918D
:10419000DA008E7F8093DA008091D90080FF18C00A
:1041A00080E189BD82E189BD09B400FEFDCF81E0D7
:1041B0008093340280910F0281110FC00E94212050
:1041C0000E9440208091E20084608093E20005C05C
:1041D00019BC1092340210920F028091E10080FF0E
:1041E00017C08091E20080FF13C08091E2008E7FB3
:1041F0008093E2008091E20080618093E2008091F0
:10420000D80080628093D80019BC85E08093340286
:104210008091E10084FF2EC08091E20084FF2AC0DB
:1042200080E189BD82E189BD09B400FEFDCF8091A6
:10423000D8008F7D8093D8008091E1008F7E80939D
:10424000E1008091E2008F7E8093E2008091E200A5
:1042500081608093E20080913502882311F084E030
:1042600007C08091E30087FD02C081E001C083E0C8
:10427000809334028091E10083FF27C08091E200A7
:1042800083FF23C08091E100877F8093E10082E07B
:1042900080933402109235028091E1008E7F8093EA
:1042A000E1008091E2008E7F8093E2008091E20045
:1042B00080618093E20042E060E080E00E945A1A50
:1042C0008091F00088608093F000FF91EF91BF91A2
:1042D000AF919F918F917F916F915F914F913F919E
:1042E0002F910F900FBE0F901F9018952091E40012
:1042F0003091E50095E64091EC00842F817040FFFD
:1043000023C08091E80080FD1DC080913402882385
:1043100099F0853099F08091EB0085FD11C04091B6
:10432000E4005091E5002417350729F3915011F06E
:104330009A01E1CF84E0089582E0089583E0089532
:1043400081E0089580E008954091E80042FFDDCFCC
:104350000895EF92FF920F931F93CF93DF937C0109
:104360008B010E947621811119C0E7010115110509
:10437000A1F08091E80085FD0AC08091E8008E7769
:104380008093E8000E947621882381F307C08991F9
:104390008093F10001501109E9CF80E0DF91CF91C6
:1043A0001F910F91FF90EF90089580E008959091F4
:1043B000EC0492FF0DC0282F2871283019F4877F54
:1043C000846006C0282F2471243011F48B7F88600C
:1043D00093FF0DC0282F2871283119F4877E84613E
:1043E00006C0282F2471243111F48B7E886120911E
:1043F000ED0420FF0DC0382F3871383019F4877F55
:10440000816006C0382F3171313011F48E7F8860A1
:1044100021FF0DC0282F2871283119F4877E816172
:1044200006C0282F2171213111F48E7E886194FD00
:10443000877E0895F894E82FE295EF70F0E031A1BF
:10444000282F2F7081E090E001C0880F2A95EAF7AD
:10445000982F9095932391A392A1892B82A378946E
:104460000895CF93DF938238910569F1B0F48133D9
:10447000910509F46FC048F48932910509F465C0CB
:104480008A32910509F46BC08AC08533910509F41D
:1044900057C089339105B9F082C0833E910571F10F
:1044A00038F4803E9105B1F0823E910511F177C05C
:1044B000863E9105B9F1873E9105C9F1843E91058B
:1044C00009F06DC024C02091EC0420FD53C021FDF3
:1044D00051C065C08091EC0480FD46C08091ED0420
:1044E00080FF48C08091EC0484FD3FC183EE90E0E2
:1044F0003EC18091EC0482FF3AC0F4CF8091EC047D
:1045000082FD35C08091ED0480FD34C0EBCF8091F9
:10451000ED0481FF35C08091EC0484FD26C187EE57
:1045200090E025C18091EC0483FF27C0F4CF8091F7
:10453000EC0483FD22C08091ED0481FD21C0EBCF0E
:104540008091EC0485FD1FC021C08091EC0485FDA5
:104550001DC019C08091EC0486FD1BC01DC0809158
:10456000EC0486FD19C015C089E390E000C182EE1D
:1045700090E0FDC080EE90E0FAC086EE90E0F7C0DB
:1045800084EE90E0F4C089E290E0F1C085E390E031
:10459000EEC08AE290E0EBC081E390E0E8C08115D4
:1045A00032E5930708F069C0811541E5940728F0CA
:1045B000982F8827816F906ADAC0883E910568F548
:1045C000803E910508F0D3C0883A9105B8F4853A49
:1045D000910548F0855AE82FF0E0EC57FE4F8081B6
:1045E00090E09064C4C08130910509F4BBC008F428
:1045F000BCC08430910508F4B8C0B9C08F3B9105A8
:1046000008F0B3C0885AE82FF0E0EE0FFF1FE9571B
:10461000FE4F808191819464AAC0811520E59207A4
:10462000F0F09C0174E0369527957A95E1F7922F8A
:104630009370482F437021E030E002C0220F331FF7
:104640004A95E2F73C68392B8F70982F969596958E
:1046500040E2949FC0011124822B932B88C08115C6
:1046600030E4930718F09F70906A81C09C013A95DE
:1046700021153F4108F47BC078C0EC01C11586E5E7
:10468000D807E8F5C11525E5D20748F08C2F0E9420
:10469000D7218F7190E0982F8827906268C0C1154C
:1046A00034E5D30728F09C2F8827846F906A5FC079
:1046B000AE01437055272C2F26952695C115D3455D
:1046C00078F481E090E002C0880F991F4A95E2F7E4
:1046D00040E2249F90011124822B932B9C6847C0B9
:1046E00081E090E002C0880F991F4A95E2F740E20E
:1046F000249F90011124822B932B9A6838C0C115F6
:104700002AE5D207F8F4C11539E5D30790F08C2FCC
:104710008F700E94D72194E0D695C7959A95E1F7BE
:10472000CF70D0E0DC2FCC27D0699E01282BC901A7
:104730001EC0C11548E5D407C0F09C2F8827806FA4
:10474000906A15C0CE0190568115904270F48D2F5D
:104750008F710E94D721282F2F71CE019927906247
:10476000922B05C081E090E002C080E090E0DF91F4
:10477000CF910895CF9384E090E00E94E131C82F5B
:1047800082E290E00E94E1312C2F30E0A901582B09
:10479000CA01CF91089580E090E00E94EF31893EF8
:1047A0009E4F11F40C94F42A80E0089569EE7EEF98
:1047B00080E090E00E94133260E082E090E00E948E
:1047C000F53160E083E090E00E94F5311092BB0487
:1047D00060E084E090E00E94F53160E082E290E0E9
:1047E0000E94F53160E085E090E00E94F53160E0E4
:1047F00086E090E00E94F5316FEF87E090E00E9444
:10480000F53140E050E0BA0188E090E00E940732C4
:1048100060E08DE090E00E94F53140E050E0BA01A8
:1048200088E190E00E94073260E087E190E00E941A
:10483000F53140E050E0BA018CE190E00E9407328F
:1048400060E070E080E290E00E94133240E050E0CF
:10485000BA0188E190E00E94073280E00E94C72AF6
:104860000E94E52A40E050E0BA018FE090E00E940B
:10487000073240E050E0BA0183E190E00C94073247
:104880008091BA0481111092BA0408959091B904EC
:104890008091B804892B2091B704982F922B909384
:1048A0005E048091BA048823D9F0892B80935E043A
:1048B00080911A01882331F08091EC0487FF02C0B7
:1048C0008EE101C086E0E0E6F4E090E0815028F05F
:1048D00021912223D9F39F5FF9CF91110E944024A7
:1048E000E091E304F091E4043097A9F080911A017B
:1048F000882359F08091EC0487FF07C080915E0403
:1049000080935F0485E080935E040280F381E02D54
:104910008EE594E009940895CF93C091ED04C2FB15
:10492000992790F9981781F080FBC2F9C093ED04A4
:104930006091EC0484E090E00E94F5316C2F82E2FB
:1049400090E0CF910C94F531CF9108952091B60469
:10495000809582238093B604982F977041F430E0BD
:10496000482F082E000C550B2417350721F4909181
:10497000ED0492FF07C08595859585950E94BB2C17
:104980001092B60408958091B5049091840489171B
:1049900019F08F5F8770FBCF08950F931F93CF930C
:1049A000DF938091830482958F7009F05DC08091C0
:1049B0008004882309F458C08091B50410918404C0
:1049C00060917E0470917F04C0918104D091820433
:1049D00091E06F3F09F090E0292F06E0811709F47C
:1049E00043C0209721F07F3F21F030E003C031E049
:1049F00001C0322F90E030FD34C0089FF001099FC4
:104A0000F00D1124DF01AB57BB4F11963C9111976C
:104A1000371327C03C91361324C012963C9112974D
:104A200031111FC013964D915C9114974C1B5D0B77
:104A3000483C5105B0F4809183048F70806180936D
:104A40008304E657FB4F80818F70806180838EE7FF
:104A500094E00E944907DF91CF911F910F910C9430
:104A6000C32401968770BACFDF91CF911F910F9128
:104A70000895CF93DF93EC010E942F2CBE010E947A
:104A8000BA2A0E943122DF91CF9108959F92AF926E
:104A9000BF92CF92DF92EF92FF920F931F93CF932B
:104AA000DF93CDB7DEB761970FB6F894DEBF0FBEC8
:104AB000CDBF8C0185E0F801DE011D9601900D92BD
:104AC0008A95E1F7F801E28090917E0460917F047D
:104AD00040918104509182044115510531F06F3F9E
:104AE00031F481E09F3F19F403C081E001C080E010
:104AF000F82FF1709F2E80FD1AC1F80130812181BD
:104B0000C380D4808EE7A82E84E0B82EF090800475
:104B1000F601E41BF50BFF2009F4C6C08091830465
:104B2000E83CF10508F091C0482F407F09F050C0E3
:104B3000621311C093130FC0FE2CE1100CC08F70D4
:104B4000806180938304C5010E944907809183049A
:104B5000F801858329C1CD2831F02F3F31F481E060
:104B60003F3F19F403C081E001C080E080FD03C035
:104B700081E08E2502C080E090E0F82FF170FF2EDA
:104B800080FF1CC08091B5044091840456E08417D6
:104B900009F4E8C090E0589FF001599FF00D1124EE
:104BA000EB57FB4F6181261306C06081631303C07E
:104BB0006281E61203C001968770E9CFFE2CEE20D9
:104BC00009F4F2C08091830481608093830449C01A
:104BD000621306C0931304C0E11002C0F80186C03E
:104BE000C8010E94D62C882351F1EE2041F120917A
:104BF0008304822F82958F7090E0029774F08091E9
:104C00007E0490917F0498878F831986DB86CA86FD
:104C10002C87CE0107960E94490786E0F801AEE78F
:104C2000B4E001900D928A95E1F70E94CD240AC06C
:104C30006217C9F0C8010E94D62C81111EC0C8019C
:104C40000E944907FF24F394AFC0482F407F81F7AB
:104C50008EE794E00E94490786E0F50111928A955B
:104C6000E9F7F12CA1C09313E5CFE110E3CFF801F0
:104C70008583C8010E94490754C0EE2001F32091AA
:104C80008304822F82958F7090E0029734F2809196
:104C90007E0490917F049A8389831B82DD82CC827B
:104CA0002E83CE010196B7CFE83CF105D0F5FE2C5E
:104CB000EE2029F2621327C0931325C020918304AC
:104CC00020FD18C0822F82958F70482F50E041152B
:104CD000510581F0F80125834F30510541F08F5F78
:104CE000982F9295907F822F8F70892B8583C80192
:104CF0000E94490786E0F801AEE7B4E001900D920A
:104D00008A95E1F751C0C8010E94D62C811185CF48
:104D100080918304816080938304C8010E944907C5
:104D200043C086E0F50111928A95E9F73DC0EE2077
:104D300009F485CFC8010E94D62CF82E882309F4E7
:104D40007ECF86E0F801AEE7B4E001900D928A953F
:104D5000E1F780917E0490917F040E9439250E94A2
:104D6000CD2422C03D872E878D859E850E943925C2
:104D7000292F22952F70223028F49F7039F081114D
:104D800005C00BC0243028F49F7049F4805E883041
:104D900020F0C8010E9449079F2CF92C05C0F8019A
:104DA0009581907F99F7F9CF8F2D61960FB6F89482
:104DB000DEBF0FBECDBFDF91CF911F910F91FF904E
:104DC000EF90DF90CF90BF90AF909F9008957F922B
:104DD0008F929F92AF92BF92CF92DF92EF92FF920B
:104DE0000F931F93CF93DF9300D000D000D0CDB7A7
:104DF000DEB7AE014F5F5F4F7A0186E0DA011D92A8
:104E00008A95E9F706E211E06A018CE2882E81E0DA
:104E1000982EAA24A394B12CF80180818F3F09F425
:104E200048C0F894E82FE295EF70F0E021A18F7070
:104E3000A50102C0440F551F8A95E2F7CA01922FBF
:104E4000982B91A392A18095892382A3789400C086
:104E5000ECE2F1E020E030E0712C81918F3FB9F07D
:104E6000A82FA295AF70B0E090964C9150E08F7053
:104E7000DA0102C0B595A7958A95E2F7A0FD07C0B3
:104E80008A2D022E01C0880F0A94EAF701C080E043
:104E9000782A2F5F3F4F25303105F9F6F8018081E0
:104EA0008F3F11F00E941A22F0EAFA95F1F7D6012D
:104EB0007C920F5F1F4FBFEFCB1ADB0A8016910663
:104EC00009F0AACF46E050E0B70182ED91E00E94E0
:104ED0003D3511E0009709F410E0892B89F086E058
:104EE000F701A2EDB1E001900D928A95E1F781E022
:104EF0008093BE040E9491289093BD048093BC04CB
:104F00008091BE048823A1F08091BC049091BD04DF
:104F10000E947628059760F0E2EDF1E0A9E0B2E0AA
:104F200081918D9341E0E83DF407D1F71092BE04E2
:104F3000812F26960FB6F894DEBF0FBECDBFDF914E
:104F4000CF911F910F91FF90EF90DF90CF90BF9086
:104F5000AF909F908F907F900895089508958091CD
:104F600011020895CF93DF9320911A01222339F083
:104F70002091EC0427FF03C060E224E002C068E057
:104F800021E02093E9002FEF3091E800215035FD1A
:104F900006C035ED3A95F1F700002111F5CF2091CB
:104FA000E80025FF1DC0EC0180911A01811105C0A8
:104FB00040E050E068E070E003C070E040E050E0A6
:104FC000CE010E94A9218091E8008E778093E800AD
:104FD00080E2FE01A2E1B2E001900D928A95E1F734
:104FE000DF91CF9108958091D704882319F08150E3
:104FF0008093D7046091D3047091D4048091D50438
:105000009091D6040C94442E8091D704833018F4E8
:105010008F5F8093D7046091D3047091D404809102
:10502000D5049091D6040C94442E9091340294307F
:1050300029F58093EE047093F0046093EF0490934D
:10504000E9008FEF9091E800815095FD06C095ED45
:105050009A95F1F700008111F5CF8091E80085FF66
:105060000DC040E050E063E070E08EEE94E00E94FE
:10507000A9218091E8008E778093E800089587E762
:1050800097E790930108809300089AE088E10FB6B3
:10509000F894A895809360000FBE90936000FFCFB6
:1050A00078941F920F920FB60F9211248F939F93B3
:1050B000AF93BF938091E8049091E904A091EA0432
:1050C000B091EB040196A11DB11D8093E80490936B
:1050D000E904A093EA04B093EB04BF91AF919F91D0
:1050E0008F910F900FBE0F901F9018959C014FB796
:1050F000F8948091E8049091E904A091EA04B091B9
:10510000EB044FBF821B930B08952FB7F894609167
:10511000E8047091E9048091EA049091EB042FBFB8
:1051200008952FB7F8948091E8049091E904A09134
:10513000EA04B091EB042FBF08951F920F920FB6AF
:105140000F9211248F939F93AF93BF938091E704A5
:10515000811113C08091E8049091E904A091EA04C0
:10516000B091EB044196A11DB11D8093E80490938A
:10517000E904A093EA04B093EB04BF91AF919F912F
:105180008F910F900FBE0F901F90189520911A01CC
:105190002223C9F02091EC0427FF15C0262F269565
:1051A000269526952E31C8F4FC01E20FF11D67709B
:1051B00081E090E001C0880F6A95EAF780959281BE
:1051C000892382830895FC0106962281621301C01F
:1051D00012823196E817F907C1F7089520911A0154
:1051E0002223C1F02091EC0427FF14C0262F26951E
:1051F000269526952E3130F5FC01E20FF11D6770E2
:1052000081E090E001C0880F6A95EAF79281892BCE
:1052100082830895FC0132962FEF30E041916417AC
:1052200089F02F3F19F4411101C0232F3F5F363021
:10523000A9F72F3F39F0FC01E20FF11D27FDFA9588
:105240006283089508952091E5043091E6042817BB
:10525000390771F09093E6048093E504E091E3044C
:10526000F091E404309721F00084F185E02D099459
:1052700008952091E1043091E2042817390771F074
:105280009093E2048093E104E091E304F091E4045C
:10529000309721F00680F781E02D09940895E09180
:1052A000E304F091E404309721F00190F081E02DC7
:1052B000099480E008950F931F93CF93DF93C42F39
:1052C000D22FFC0182818823C9F04093E0040E9420
:1052D00091289093DF048093DE0480E28C0F883065
:1052E00008F057C0C77081E001C0880FCA95EAF77F
:1052F000DF91CF911F910F910C94222D8091E004AA
:10530000481330C08091DE049091DF040E9476281B
:10531000883C910538F510E21D0FCD17B9F080E2F9
:105320008C0F883040F4C77081E001C0880FCA95A7
:10533000EAF70E94172D183028F581E09D2F97700D
:1053400001C0880F9A95EAF70E94222D802F0E94B3
:10535000D12D1830F0F4D77081E001C0880FDA95B4
:10536000EAF70AC080E28C0F883098F4C77081E0B9
:1053700001C0880FCA95EAF7DF91CF911F910F9175
:105380000C94172D802FDF91CF911F910F910C94CA
:10539000D12DDF91CF911F910F9108958091DD0460
:1053A0008823F9F00E948528DC01CB01805A9541C1
:1053B000AF4FBF4F8093D8049093D904A093DA04E1
:1053C000B093DB048091DC0481110BC062E070E0DB
:1053D00080EE9CE00E94E21C892B19F481E080930E
:1053E000DC048091DC040895CF93E82F20915C04C5
:1053F00030915D042655324040915302642F70E095
:10540000C9010E94C431481B842FEE2351F066E08D
:105410000E94C234C82FC150A8F080E20E94F51A41
:10542000FACFA901480F511D4115524018F080E0F4
:1054300020E030E0280F311D2A5A3D4F30935D04A3
:1054400020935C04CF9108952091530236E0839F0E
:10545000C0011124629F800D911D1124811522E04D
:10546000920714F080E090E08A5A9D4F90935D047B
:1054700080935C040895E6E5F2E080E092E0DF01CD
:105480009C011D9221503040E1F7F0935D04E093C0
:105490005C048FEF9FEF9093550280935402089520
:1054A000CF93DF93C7E1D1E060E0CE010E94F531F8
:1054B0002196C11584E0D807B9F7DF91CF910895FF
:1054C000CF92DF92EF92FF920F931F93CF93DF93D0
:1054D000C0E0D0E08E01045C1F4F6E018AE0C80E70
:1054E000D11CFE01E051F44FE590F4906F2DCE01F8
:1054F00087960E94F5316E2DCE0188960E94F53177
:105500002296CC15DD0569F70C171D0731F7E80168
:10551000003F1105F9F6DF91CF911F910F91FF9098
:10552000EF90DF90CF9008950F931F93CF93DF9369
:10553000C42FD0E0CC0FDD1F2AE0629FC00DD11D2B
:1055400011243CE3839FC00DD11D1124CE01879609
:105550000E94E131082F10E0102F0027CE0188961D
:105560000E94E1319801282BC901DF91CF911F9151
:105570000F910895462F843038F4763028F4653042
:1055800018F4672F0C94942A80E090E00895CF934C
:10559000C82F811102C06FEF01C061E283E290E089
:1055A0000E94F531C11102C06FEF01C060E184E2D9
:1055B00090E00E94F531C11102C06FEF01C063E1BC
:1055C00085E290E0CF910C94F53180E00E94C72AEB
:1055D00060E086E290E00E94F5310E94602A0E941D
:1055E000502A81E00C94C72A83E290E00E94E131C6
:1055F000813281F484E290E00E94E131803151F403
:1056000085E290E00E94E13191E0833109F090E081
:10561000892F01C080E0817008959091D30490FF9C
:1056200004C09695981740F003C0811105C090E022
:10563000961710F40C94462F61E00C94FB2E8823EF
:1056400011F0FA0101C0FB0109948091D30480FF9D
:105650000AC0869A81B38F7B91B390642FB7F89478
:10566000E1ECF4E00BC0E1ECF4E011821082128274
:10567000339634E0E33DF307C1F7EBCF34E0E33D8D
:10568000F30789F0319148E091BB000000C037FF7B
:1056900081BB330F000000C000C000C081BB00C050
:1056A0004A9591F7EBCF2FBF8FE594E00197F1F783
:1056B00000C000000895EF92FF921F93CF93DF93F5
:1056C000EC0181ECE82E84E0F82E10E08C8197014B
:1056D0004091D6046091D504810F0E94652E165D1D
:1056E00083E0E80EF11C1C3F89F70E94252B9A816C
:1056F0008C8190FF02C08F5F01C081508C83DF914D
:10570000CF911F91FF90EF9008955F926F927F92DB
:105710008F929F92AF92BF92CF92DF92EF92FF92C1
:105720000F931F93CF93DF9300D01F92CDB7DEB7B7
:10573000182F762E042F622E8091D30480FF6EC026
:10574000E82FE695AE2FB0E0AB54BE4F9C919093FE
:10575000BF048E7F8230A1F49E012F5F3F4F812FC7
:105760000E94652E8B8199812A81E1ECF4E02183EE
:1057700090838283339634E0E33DF307C1F73AC068
:10578000923019F41091D40437C09830A9F5E8503C
:105790008E2F8170582EE695F0E0E551F44FA590DC
:1057A000B49081ECC82E84E0D82EE12CF12CBB24DF
:1057B00096E0892E912CAE9CC001AF9C900DBE9CB2
:1057C000900D1124B4010E94C431812F511002C0E8
:1057D000860F01C0861B9601402F672D0E94652E03
:1057E0003FEFE31AF30A83E0C80ED11C36E0E3165C
:1057F000F10409F70E94252B1093D4047092D5046C
:105800000093D604662051F06091D3047091D404C3
:105810008091D5049091D6040E94442E0F900F9051
:105820000F90DF91CF911F910F91FF90EF90DF903C
:10583000CF90BF90AF909F908F907F906F905F9030
:10584000089580E090E00E94392980E090E00E9475
:1058500023291092B8041092B7040C944624CF92D6
:10586000DF92FF920F931F93CF93DF936C01009110
:105870003E028091BB04082BC7E0D0E010E0C801D5
:105880000C2E02C0959587950A94E2F780FD04C01E
:105890002197A8F7F12C09C0FC2EB6018C2F0E948D
:1058A000BA2A0E943122019799F38F2DDF91CF916F
:1058B0001F910F91FF90DF90CF90089524E0929F69
:1058C000900D1124890F682F669566956695982F1F
:1058D000977083E0689FB001112440E050E080E0C1
:1058E000FB01E40FF51FEF50FB4F208130E0092E44
:1058F00002C0369527950A94E2F721703327042ECB
:1059000001C0220F0A94EAF7822B4F5F5F4F4330AA
:10591000510531F7089524E0929F900D1124890FCD
:10592000E82FE695E695E695877051E001C0550FA2
:105930008A95EAF783E0E89FF0011124EF50FB4FCE
:1059400020E030E070E04081CB01022E02C096954D
:1059500087950A94E2F781708195842785238427AF
:1059600081932F5F3F4F2330310569F7089580936E
:105970003E020C94212C21E030E001C0220F8A95D8
:10598000EAF7209580913E0282230C94B72C21E007
:1059900030E001C0220F8A95EAF780913E02822B07
:1059A0000C94B72C8093BB040C94212CFC018081B7
:1059B00091810E943925292F2F70E92FE295EF70F0
:1059C0004E2F50E0FA013297EE30F105B8F4E1586D
:1059D000FF4F0C940135803F99F018F4883E70F425
:1059E0000FC0843F59F40CC0883E50F0813F31F421
:1059F00007C0822F869586958695089580E0089544
:105A000081E008951092B90480911A01882331F041
:105A10008091EC0487FF02C08EE101C086E0E0E6E1
:105A2000F4E0DF011D928A95E9F70C94212C88237C
:105A300041F080959091B90489238093B9040C9426
:105A400046240895882339F09091B904892B8093D6
:105A5000B9040C9446240895882379F19CEF980F9B
:105A6000913A30F4682F8EE594E00E94C62814C065
:105A700090E2980F983090F4877021E030E0A9010F
:105A800002C0440F551F8A95E2F7CA018095909194
:105A9000B90489238093B9040C9446249BE5980F9C
:105AA000933020F480E090E00C943929885A8731B3
:105AB00020F480E090E00C9423290895CF9388236C
:105AC00009F46DC09CEF980F913AC8F5C82F8091EA
:105AD0001A018823E1F08091EC0487FF18C0EC2FB5
