:100000000C94EE070C9435080C9435080C94353399
:100010000C9435080C9435080C9435080C9435086C
:100020000C9435080C9435080C946E280C94AA276F
:100030000C94182B0C9435080C9435080C94350846
:100040000C9435080C9435080C9435080C9435083C
:100050000C9435080C94CB2A0C9435080C94350874
:100060000C9435080C9435080C9435080C9435081C
:100070000C9435080C9435080C9435080C9435080C
:100080000C9435080C9435080C9435080C943508FC
:100090000C9435080C9435080C9435080C943508EC
:1000A0000C9435080C9435080C943508870D870D91
:1000B000C10DC10D180E340E061006107B0E590F1F
:1000C0006A0F6A0F551458145B145E14611464149B
:1000D0006714A41BA41BB71BB71BAD1BB71BB71B17
:1000E000B71BA41BA41BB21BB71BB71BB21BC52598
:1000F000EC258227EC25822734265726822746279F
:10010000592700DA1281FFD9F1DB20A4A62EAF0017
:10011000A0C000A1C800AED580A83FD300408D1478
:10012000200000000000000000000000000000802F
:1001300080C0E0F07078383C1C1E0E0E0E070707DA
:10014000070707070707070707070707070E0E0E2A
:100150001E1C3C387870F0E0C08080000000000079
:10016000000000000000000000000000000000008F
:10017000000000000000000000000000000000007F
:10018000000000000000000000000000000000006F
:10019000000000000000000000000000000000005F
:1001A000000000000000000000C0E0F07C3E1F0FD7
:1001B00007030180C0E0F078383C1C1E0E0E0707D4
:1001C00087E77F1FFFFF1F7FE78707070E0E1E1CB5
:1001D0003C3878F0E0C0800103070F1F3E7CF0E060
:1001E000C00000000000000000000000000000004F
:1001F00000000000000000000000000000000000FF
:1002000000000000000000000000000000000000EE
:1002100000000000000000000000000000000000DE
:10022000000000000000F0FCFF1F07010000C0F00C
:10023000FCFEFFF7F3B1B03030303030303078FEB4
:1002400087010000FFFF00000187FE78303030306A
:10025000303030B0B1F3F7FFFEFCF0C00000010712
:100260001FFFFCF000000000000000000000000084
:10027000000000000000000000000000000000007E
:10028000000000000000000000000000000000006E
:10029000000000000000000000000000000000005E
:1002A0000000000000FFFFFF0000000000FEFFFF55
:1002B0000101071E78E181838386868C8C9898B132
:1002C000B7FEF8E0FFFFE0F8FEB7B198988C8C8697
:1002D00086838381E1781E070101FFFFFE00000095
:1002E0000000FFFFFF00000000FFFF0000C0C03063
:1002F000300000F0F0000000000000F0F00000F01E
:10030000F0C0C030303030C0C000003030F3F300F7
:100310000000000000303030303030C0C00000003D
:100320000000000000FFFFFF00000000007FFFFF53
:100330008080E0781E8781C1C16161313119198DDA
:10034000ED7F1F07FFFF071F7FED8D191931316109
:1003500061C1C181871E78E08080FFFF7F000000BF
:100360000000FFFFFF000000003F3F03030C0C30C4
:1003700030000000003333333333330F0F00003FBE
:100380003F0000000000000000000030303F3F3020
:100390003000000C0C3333333333333F3F00000065
:1003A0000000000000000F3FFFF8E0800000030F96
:1003B0003F7FFFEFCF8D0D0C0C0C0C0C0C0C1E7F37
:1003C000E1800000FFFF000080E17F1E0C0C0C0CA0
:1003D0000C0C0C0D8DCFEFFF7F3F0F03000080E072
:1003E000F8FF3F0F000000000000000000000000C8
:1003F00000000000000000000000000000000000FD
:1004000000000000000000000000000000000000EC
:1004100000000000000000000000000000000000DC
:1004200000000000000000000003070F3E7CF8F011
:10043000E0C0800103070F1E1C3C38787070E0E0BC
:10044000E1E7FEF8FFFFF8FEE7E1E0E070707838E2
:100450003C1C1E0F07030180C0E0F0F87C3E0F0734
:100460000300000000000000000000000000000089
:10047000000000000000000000000000000000007C
:10048000000000000000000000000000000000006C
:10049000000000000000000000000000000000005C
:1004A000000000000000000000000000000000014B
:1004B0000103070F0E1E1C3C3878707070E0E0E0FE
:1004C000E0E0E0E0E0E0E0E0E0E0E0E0E07070707C
:1004D00078383C1C1E0E0F070301010000000000CD
:1004E000000000000000000000000000000000000C
:1004F00000000000000000000000000000000000FC
:1005000000000000000000000000000000000000EB
:1005100000000000000000000000000000000000DB
:10052000000020202020202020005343524C434B29
:10053000200020202020202020004341504C434B0D
:10054000200020202020202020004E554D4C434BE1
:100550002000556E646566696E65640A0041646AD0
:100560007573740A0046756E6374696F6E0A005382
:10057000796D0A004E61760A00436F6C656D616BA0
:100580002D44480A0044766F72616B0A005157454A
:100590005254590A004C617965723A20004B7972C5
:1005A000696120726576312E300A0A00808182836B
:1005B0008485868788898A8B8C8D8E8F9091929383
:1005C00094A0A1A2A3A4A5A6A7A8A9AAABACADAECE
:1005D000AFB0B1B2B3B4C0C1C2C3C4C5C6C7C8C945
:1005E000CACBCCCDCECFD0D1D2D3D4000000000026
:1005F0001700150008001A0014002942000000002E
:100600000A0009000700160004002B002F00350027
:100610000500190006001B001D00E00029412C41C7
:10062000E300E200E3000000000000000000000022
:100630001C0018000C00120013002A00000000002B
:100640000B000D000E000F003300340030002E00B0
:1006500011001000360037003800280029422C45D0
:10066000E5004600E6000000000000000000000079
:10067000310230022F021F021E02010000000000A2
:10068000350027022602210220020100010001009C
:10069000350230002F002302220201002E00330019
:1006A0000100010001000000000000000000000047
:1006B0000100010001000100010031000000000004
:1006C0002E022D0038002502220234000100010014
:1006D00024022E003600370038002D002E00330093
:1006E0000100010001000000000000000000000007
:1006F0002200210020001F001E0001000000000059
:10070000A900AB00AE00AC00010001000100010037
:10071000AA00A80001000100010001000100010081
:1007200001000100010000000000000000000000C6
:1007300023002400250026002700010000000000FF
:100740005000510052004F00010001000100010063
:10075000EF00EE00ED00F0000100010001000100DB
:100760000100010001000000000000000000000086
:100770000100010001000100010001000000000073
:100780000100010001000100010001000100010061
:100790000100010001000100010001000100010051
:1007A0000100010001000000000000000000000046
:1007B0000100010001000100010001000000000033
:1007C0000100010001000100010001000100010021
:1007D0000100010001000100010001000100010011
:1007E0000100010001000000000000000000000006
:1007F0003E003D003C003B003A00010000000000CC
:10080000C45CCA5CC65CC85CC35C0100010001003A
:10081000C55CCB5CC75CC95C010001000100010044
:1008200001000100010000000000000000000000C5
:100830003F00400041004200430001000000000072
:100840000100010001004400450001000100010019
:100850000100010001000100010001000100010090
:100860000100010001000000000000000501090274
:10087000A10185020901A100050919012908150036
:10088000250195087501810205010930093115819D
:10089000257F95027508810609381581257F950108
:1008A00075088106050C0A38021581257F950175AA
:1008B000088106C0C005010980A101850319012A2C
:1008C000B700150126B700950175108100C0050C11
:1008D0000901A101850419012AA002150126A0021F
:1008E000950175108100C005010906A101050719D0
:1008F000E029E7150025019508750181029501752C
:100900000881010507190029FF150026FF0095063B
:1009100075088100050819012905950575019102E1
:10092000950175039101C009023B00020100A0FA84
:100930000904000001030101000921110100012245
:1009400040000705810308000A09040100010300B3
:100950000000092111010001227B0007058203200C
:10096000000A12010002000000081D8D9D9D01007B
:10097000010200010C034B00790072006900610064
:1009800000001003730070006C00690074004B00DD
:10099000420000000403090407087F0807003E5BCB
:1009A0004F5B3E003E6B4F6B3E001C3E7C3E1C008E
:1009B000183C7E3C18001C577D571C001C5E7F5E57
:1009C0001C0000183C180000FFE7C3E7FF000018F8
:1009D00024180000FFE7DBE7FF0030483A060E006E
:1009E000262979292600407F05050700407F052537
:1009F0003F005A3CE73C5A007F3E1C1C0800081C84
:100A00001C3E7F0014227F2214005F5F005F5F00A6
:100A100006097F017F00006689956A00606060605A
:100A2000600094A2FFA2940008047E040800102035
:100A30007E20100008082A1C0800081C2A0808004C
:100A40001E10101010000C1E0C1E0C0030383E380A
:100A50003000060E3E0E0600000000000000000000
:100A60005F000000000700070000147F147F1400DF
:100A7000242A7F2A12002313086462003649562074
:100A80005000000807030000001C22410000004144
:100A9000221C00002A1C7F1C2A0008083E080800AF
:100AA000008070300000080808080800000060603E
:100AB00000002010080402003E5149453E0000425B
:100AC0007F4000007249494946002141494D3300A9
:100AD0001814127F10002745454539003C4A494902
:100AE000310041211109070036494949360046497C
:100AF00049291E00000014000000004034000000DE
:100B0000000814224100141414141400004122148B
:100B100008000201590906003E415D594E007C1251
:100B200011127C007F49494936003E414141220073
:100B30007F4141413E007F49494941007F09090900
:100B400001003E41415173007F0808087F000041C9
:100B50007F4100002040413F01007F0814224100F6
:100B60007F40404040007F021C027F007F0408104D
:100B70007F003E4141413E007F09090906003E4198
:100B800051215E007F091929460026494949320052
:100B900003017F0103003F4040403F001F204020F1
:100BA0001F003F4038403F006314081463000304F3
:100BB000780403006159494D4300007F41414100E1
:100BC000020408102000004141417F00040201029C
:100BD000040040404040400000030708000020544B
:100BE000547840007F284444380038444444280066
:100BF000384444287F0038545454180000087E09B3
:100C0000020018A4A49C78007F0804047800004423
:100C10007D4000002040403D00007F10284400003F
:100C200000417F4000007C04780478007C080404C4
:100C30007800384444443800FC1824241800182450
:100C40002418FC007C080404080048545454240070
:100C500004043F4424003C4040207C001C204020F1
:100C60001C003C4030403C004428102844004C907C
:100C700090907C004464544C4400000836410000CD
:100C80000000770000000041360800000201020465
:100C900002003C2623263C000000000000004040EB
:100CA00040F0F8F8FF38FFF8F83FF8F8FF38FFF8A1
:100CB000F8F040404000000000000080C0C0C0804C
:100CC0000000C0C08000000080C0C000C0C00000A4
:100CD00080C0C00000000000C0C0C0C0C000C0C0D4
:100CE0000000000000000000000000000000000004
:100CF00000000000000000000000000000000000F4
:100D000000000000000000000000000000000000E3
:100D100000000000000000C0F0F8FC3E1E060100CC
:100D200000007F4141417F007F4141417F000080C1
:100D3000C0E07E5B4F5BFEC00000C000DCD7DEDEA3
:100D4000DED7DC00C0000000000000000000000052
:100D50000000000000000000000000000000494901
:100D600049FFFFFFFFE0DFBFBF00BFBFDFE0FFFFC6
:100D7000FFFF49494900000000001F3F6060E0BFDD
:100D80001F007F7F071E381E077F7F007F7F0E1F9B
:100D90003B716000000000007F7F0C0C0C007E7E29
:100DA000007F7E0303007F7E03037E7E03037F7E3E
:100DB000000F3E703C063C703E0F00327B49493FBD
:100DC0007E007F7E0303001E3F69696F26000000DE
:100DD00000000000000000030F1F3F3C787060001F
:100DE00000007F4141417F007F4141417F00307BD6
:100DF0007F7830202030787F3B0003000F7F0F0F7B
:100E00000F7F0F0003000000000000000000000042
:100E100000000000000000000000000000000101D0
:100E200001070F0F7F0F7F0F0F7E0F0F7F0F7F0FB9
:100E30000F07010101000000000000000000000198
:100E400001000000000000000000000000000000A1
:100E50000000000000000000000000000000000092
:100E60000000000000000000000000000000000082
:100E70000000000000000000000000000000000072
:100E80000000000000000000000000000000000062
:100E90000000000000000000000000000000000052
:100EA0000000000000000000000000000000000042
:100EB0000000000000000000000000000000000032
:100EC0000000000000000000000000000000000022
:100ED000000000000000000000AF00AE00010101B2
:100EE00001010101010102020202020202020203E7
:100EF00003030303030303040404040404040505B7
:100F00000505050606060606070707070708080879
:100F100008090909090A0A0A0B0B0B0C0C0C0D0D28
:100F20000D0E0E0E0F0F0F101011111112121313C0
:100F30001414151516161717181819191A1A1B1B39
:100F40001C1D1D1E1E1F2020212222232424252695
:100F500026272829292A2B2C2D2D2E2F30313232CD
:100F6000333435363738393A3B3C3D3E3F404142D9
:100F7000434445464748494A4C4D4E4F50515354BF
:100F8000555658595A5B5D5E5F6162646566686973
:100F90006B6C6D6F7072737577787A7B7D7E8082F3
:100FA000838587888A8C8E8F91939596989A9C9E3C
:100FB000A0A2A3A5A7A9ABADAFB1B3B5B7BABCBE4C
:100FC000C0C2C4C6C9CBCDCFD1D4D6D8DBDDDFE219
:100FD000E4E7E9EBEEF0F3F5F8FAFDFF11241FBEAC
:100FE000CFEFDAE0DEBFCDBF04B603FE27C08091AD
:100FF0008F0790919007A0919107B0919207873049
:10100000904BA740B04BD1F410928F0710929007ED
:10101000109291071092920714BE84B7877F84BF05
:101020000FB6F894A8958091600088618093600065
:10103000109260000FBEE0E0F8E3099511E0A0E037
:10104000B1E0EEE0FFE602C005900D92A83CB107CA
:10105000D9F727E0A8ECB1E001C01D92AF38B20784
:10106000E1F70E94CF100C9485370C9400001F9379
:10107000CF93DF93CDB7DEB767970FB6F894DEBF97
:101080000FBECDBF4B8B5C8B6D8B7E8B8F8B6111BD
:101090001092BB0286E09E01235F3F4FD901E82FEB
:1010A0001D92EA95E9F795E0FE017396D90101904A
:1010B0000D929A95E1F79C894E895F897B897D879E
:1010C0009E876F87598B488BF901DE011796019037
:1010D0000D928A95E1F7CE0107960E94BB1B811104
:1010E0003EC086E0FE013796DE01119601900D921A
:1010F0008A95E1F7FF81E8856A857B856115710531
:1011000031F0EF3F31F481E0FF3F19F403C081E09B
:1011100001C080E080FD23C02091870230E0C9013A
:101120000196877099274091B80250E0841795077F
:1011300079F1F983EA837D836C8396E0929FD001F5
:10114000939FB00D1124A857BD4FFE013196019019
:101150000D929A95E1F7809387020E94A11A16E0FA
:101160008091B802909187028917F9F0189FC00109
:10117000112488579D4F0E94BB1B8823B1F080919A
:10118000B80290E00196877099278093B802E8CF63
:101190000E942C1E109287021092B802E1E8F2E041
:1011A00086E0DF011D928A95E9F767960FB6F894FD
:1011B000DEBF0FBECDBFDF91CF911F910895CF92BB
:1011C000DF92EF92FF926C01EE24FF24C114D10450
:1011D000E104F10421F0C701B60120E101C020E0E3
:1011E000C72ED82EE92EFF24C114D104E104F10446
:1011F00019F0285FC701B6016B017C0154E0F69439
:10120000E794D794C7945A95D1F7C114D104E10457
:10121000F10419F02C5FC701B6016B017C0142E0BB
:10122000F694E794D794C7944A95D1F7C114D104A2
:10123000E104F10419F02E5FC701B601DC01CB0116
:10124000B695A79597958795892B8A2B8B2B09F0B7
:101250002F5F822FFF90EF90DF90CF900895DC01F9
:10126000FB0180819181803891053CF08FE78C9360
:10127000808191818F5791090AC081382FEF9207A1
:101280004CF481E88C938081918181589F4F9183A8
:10129000808308958C9311821082089581110CC06F
:1012A000662329F089EA0E944C1E89EA12C08AEA64
:1012B0000E944C1E8AEA0DC0813069F4662329F031
:1012C0008BEA0E944C1E8EE404C08CEA0E944C1EE5
:1012D0008BE40E944C1E81E00895CF93DF9300D0F1
:1012E00000D01F92CDB7DEB7762F682F842F0E94D3
:1012F000DD2D972F671708F4962F891708F4982F7C
:101300001982791B7A83691B6B83891B8C839D836C
:1013100024E630E045E050E0BE016F5F7F4F84E19E
:101320000E94EE310F900F900F900F900F90DF9171
:10133000CF910895CF92DF92EF92FF92CF936B01FE
:101340007C010E94DF08C82F823069F018F48130D8
:1013500051F011C0833061F0843069F4409116017E
:101360006FEF8AEA15C0409116016FEF80E810C058
:101370004091160109C040911601842F90E04F97CB
:1013800014F04E5101C040E06091150180911401AC
:101390000E946D098091CA01843031F5C43021F179
:1013A000209116013091DF01909114018091150177
:1013B000321308C03091DE01391304C03091E001CE
:1013C000381791F02093DF019093DE018093E001C4
:1013D0004091DE015091DF016091E0017091E101E7
:1013E00083E190E00E94F734C093CA01D701C6019F
:1013F00086709927AA27BB270697A105B10521F476
:10140000C701B601606103C0C701B6016F7ECF910D
:10141000FF90EF90DF90CF9008958F929F92AF92C0
:10142000BF92CF92DF92EF92FF920F931F93CF93D1
:10143000DF93CDB7DEB767970FB6F894DEBF0FBE68
:10144000CDBFFC01D080118183819481892B39F03B
:101450001F3F39F491E00FEFD01203C003C091E0B9
:1014600001C090E090FD88C67F0185E0DE015396C3
:1014700001900D928A95E1F7F70122818B899C8971
:10148000222349F00E94171B082F682F8B899C8903
:101490000E94881D03C00E945C1D082FE12FF0E010
:1014A00018E0019FE00DF11D112463E0EE0FFF1F16
:1014B0006A95E1F7ED0DF11DEE0FFF1FE451FA4FB4
:1014C00005911491F7018281882309F463C0C80152
:1014D00090568115F0E29F0748F0905E811520E15B
:1014E000920720F0915C81159F4118F4C80199275B
:1014F00008C00F3F110509F010F4C80102C080E0D8
:1015000090E09C01245031092432310520F08B9762
:101510000E9708F05DC08091C5029091C6020097B9
:1015200099F10E94F12A9C0140E050E060EE7EE2D9
:1015300080E090E00E942837C090C4022F3F310520
:1015400019F010F02FEF30E0D12CB9016C197D09A2
:1015500080E090E00E94CC3527EA39E747E45DE37C
:101560000E949B360E9486354B015C01B601DD0C62
:10157000880B990B0E94CE35A50194010E941A3563
:101580000E949D356093C4020E940C2B9093C6026A
:101590008093C502043F8CE51807D1F178F4093D2A
:1015A000ECE51E0761F10A3DFCE51F0709F451C097
:1015B000083D2CE5120709F052C01BC0063F3CE570
:1015C0001307B9F180F1073F9CE51907E1F147C026
:1015D000043FFCE51F07E1F008F5093D3CE5130772
:1015E00071F00A3D8CE51807A1F1083D9CE519074B
:1015F000D9F506E221EE41EE68ED7CE505C007E293
:1016000025EE45EE69ED7CE5C7010E94B22B08C2CC
:1016100006E221EE40EE64EF7CE5F6CF063FECE516
:101620001E0739F060F407E225EE44EE65EF7CE535
:10163000EBCF06E221EE42EE66EF7CE5E5CF073F19
:101640002CE5120789F407E225EE46EE67EF7CE50C
:10165000DBCF08E221E045EE6AED7CE5D5CFF7016E
:101660008281882309F446C1109267070430FDE5A2
:101670001F0758F40B3F2CE5120760F4C801825095
:101680009C45449708F01FC105C002363DE513078D
:1016900009F019C10E94A6199093D1018093D0013D
:1016A00000318CE5180709F4CAC008F041C00830C1
:1016B000ECE51E0709F4A4C0F0F404302CE5120791
:1016C00009F48CC068F402308CE5180709F482C074
:1016D00003301C4509F0E7C08091D0018260E1C071
:1016E0000630ECE51E0709F483C008F085C0809140
:1016F000D0018860D6C00C302CE5120709F490C0E8
:1017000068F40A308CE5180709F47EC008F084C03C
:101710000E942C1E8091D0018068C3C00E30ECE581
:101720001E0709F481C008F086C08091D00194C0E2
:101730000D3F2CE5120709F47BC038F504318CE528
:10174000180709F49AC058F40231ECE51E0709F4B1
:101750007AC008F07EC08091D0018F7BA2C00B3F81
:101760002CE51207F1F108F03FC005311C4509F0E6
:101770009AC08091D00182FB222720F991E0922724
:1017800090FB82F990FB83F98CC001309DE519072D
:1017900009F467C050F48091D1010F3FFCE51F07A9
:1017A000C1F108F05BC08D7F65C003303DE51307D4
:1017B00009F471C008F46DC002361D4509F073C00C
:1017C0008091D00184FB222720F991E0922790FBA1
:1017D00084F967C08091D001816063C08091D0019D
:1017E00016C08091D10116C08091D101826042C0A3
:1017F0008091D001806155C08091D001806251C03C
:101800008091D00180644DC08091D0018860846057
:1018100048C0826081602EC08091D0018E7F41C01F
:101820008091D0018D7F3DC08091D001877F39C0EC
:101830008091D10114C08091D0018F7E32C08091FF
:10184000D0018F7D2EC00E942C1E8091D0018F77F9
:1018500028C08091D001877F8B7F23C08D7F8E7FB2
:1018600009C08091D101982F909591708E7F892B1E
:1018700090FB81F98093D10116C00E942C1E8091AB
:10188000D00187FB222720F991E0922790FB87F96E
:1018900008C061E001C060E08EE090E00E94E534A5
:1018A00002C08093D0016091D0011091D10184E0F9
:1018B00090E00E94E534612F82E290E00E94E534DE
:1018C0000E942C1EADC006312CE5120709F040C065
:1018D0008091BC028A7A91E009F490E09093CB0168
:1018E000882311F065E301C069E281E592E00E947E
:1018F0004E2B0EC006313CE5130769F48091CB01F5
:10190000882309F4C2C365E381E592E00E94412B7C
:101910000E943D1A85C08091BC0282720A3CECE5AF
:101920001E0709F413C408F06FC0063C2CE512072B
:1019300009F4FDC308F0ABC3043C9CE5190709F4A6
:10194000ECC308F0EFC3033CFCE51F0709F4BDC37B
:10195000F7018281882309F482C00B35FDE51F075A
:1019600009F44CC058F401153CE51307C1F00F3DD4
:101970001C4509F074C00E94B71952C00C359DE592
:10198000190709F43DC00D351D4509F068C0809167
:10199000D10182FB882780F991E0892732C00E941B
:1019A0002C1EFFEF04E31CE0F15000401040E1F773
:1019B00000C0000081E08093E00080E28093D800C6
:1019C0001092C9008FE19EE40197F1F700C000007A
:1019D00087E090EBDC0180938F0790939007A093B2
:1019E0009107B09392079CE088E10FB6F894A89510
:1019F000809360000FBE90936000FFCF81E001C034
:101A000080E00E94871A2BC00E3C9CE5190709F460
:101A1000AEC308F448C3073D3CE5130708F04FC3C5
:101A20008091B902877009F4A7C3F70182818823E6
:101A300009F4A2C382E067960FB6F894DEBF0FBE2A
:101A4000CDBFDF91CF911F910F91FF90EF90DF906D
:101A5000CF90BF90AF909F908F900C94E41DF701B2
:101A6000828100811181882349F0C8010E94171BDF
:101A7000D82E682FC8010E94881D04C0C8010E948A
:101A80005C1DD82EE12FF0E018E0D19EE00DF11D95
:101A9000112433E0EE0FFF1F3A95E1F7E00FF11D3F
:101AA000EE0FFF1FE451FA4F859194910E940A189E
:101AB0008C01982EF701D280A580A2945FE0A52228
:101AC0008091B902877099F0DD2089F0812F807FA5
:101AD000803421F080E2800F883048F082E00E945C
:101AE000E41D8091B9028770CC24C3948111C12C6C
:101AF000B12EB2942FE0B2228B2D90E08C30910564
:101B000008F084C2FC01EA5AFF4F0C944737812F3A
:101B1000807F1F70882311F01295107FDD20B9F0AF
:101B2000112309F45EC280E2800F883010F091101A
:101B300006C08091BC02182B1093BC0205C0809196
:101B4000BB02182B1093BB020E943D1A4AC2802F81
:101B50000E94E22F112309F459C2005E109508304B
:101B600010F0911006C08091BC0218231093BC02A3
:101B700005C08091BB0218231093BB020E943D1A3E
:101B800045C2812F807F1F70803211F01295107F27
:101B9000992021F0F1E09F1601F12EC0DD20A1F087
:101BA0008091BD02AA2071F001E0A0120BC0182B99
:101BB0009091D10192FD2AC2181709F427C21093FF
:101BC000BD0224C2812B10C0AA2021F021E0A21660
:101BD00009F41CC20E94371A27C0DD2041F035E00D
:101BE0003A1508F413C2812F0E94421E0FC284E0EE
:101BF0008A1508F40BC218C0DD2049F0AA2099F319
:101C0000F701858180FFEDC18F708583ECCFAA201D
:101C100059F0093309F0F7C1FFEF17EE23E0F15057
:101C200010402040E1F7EDC1812F0E94371EEEC128
:101C3000812F86958695837019F0813059F0E6C121
:101C4000DD2019F0C801937002C080E090E00E948E
:101C50007E2BE2C1DD2019F0C801937002C080E044
:101C600090E00E94682BD8C1802FDD2019F00E94DF
:101C7000692F02C00E94B02E8FE0800F8830C0F51F
:101C8000082F81E090E09C0101C0220F0A95EAF73D
:101C900086E0E9E8F7E0DE01179601900D928A955B
:101CA000E1F786E0FE013796DE011D9601900D9268
:101CB0008A95E1F79885DD2019F0892F822B03C0E2
:101CC000822F809589238E8796E0FE013D96DE0166
:101CD000119601900D929A95E1F78A8386E0FE01B4
:101CE0003196A9E8B7E001900D928A95E1F794C189
:101CF0000E94C42F91C1812F837009F069C0D11057
:101D000089C1902F929596959770990F990F802F72
:101D10008F70882E912CA12CB12C092E04C0880C18
:101D2000991CAA1CBB1C0A94D2F704FF12C04FE0F6
:101D300050E060E070E004C0440F551F661F771F3D
:101D40009A95D2F7DB01CA0180959095A095B09540
:101D500003C080E090E0DC0116951695412F43709A
:101D6000423019F1C8F40091EF011091F001209177
:101D7000F1013091F201413059F088299929AA29BD
:101D8000BB29BC01CD0160237123822393230AC0A8
:101D9000802A912AA22AB32ABC01CD016829792977
:101DA0008A299B290E94221E35C188299929AA299E
:101DB000BB290091EF011091F0012091F1013091C8
:101DC000F201BC01CD016027712782279327EACF5A
:101DD000DD2019F0812F817001C08695882309F4D8
:101DE00019C1902F929596959770990F990F802F02
:101DF0008F70882E912CA12CB12C092E04C0880C38
:101E0000991CAA1CBB1C0A94D2F704FF12C04FE015
:101E100050E060E070E004C0440F551F661F771F5C
:101E20009A95D2F7DB01CA0180959095A095B0955F
:101E300003C080E090E0DC0116951695412F4370B9
:101E40004230D9F068F50091F3011091F40120912E
:101E5000F5013091F601413059F088299929AA29D4
:101E6000BB29BC01CD0160237123822393231EC0B3
:101E7000802A912AA22AB32A13C088299929AA293B
:101E8000BB290091F3011091F4012091F5013091EB
:101E9000F601BC01CD01602771278227932706C078
:101EA000BC01CD01682979298A299B290E94B31D8B
:101EB000B1C01F70DD2039F0812F0E94011E802FDC
:101EC0000E94421EA7C0802F0E94371E812F0E94B1
:101ED000BF1DA0C0802F32EF931609F440C0391502
:101EE00038F090EF991661F0E1EF9E1699F174C009
:101EF000F3EF9F16D9F124EF921609F44EC06CC08F
:101F0000DD2019F134E03A1508F480C01F7181E03A
:101F100090E0A0E0B0E0AC01BD0104C0440F551F4B
:101F2000661F771F1A95D2F78091F3019091F40103
:101F3000A091F501B091F6018A019B0108271927AC
:101F40002A273B27C901B80125C025E02A1508F436
:101F50005DC0DCCFDD2029F0812F8F7130C0DD2006
:101F6000D9F3812F8F710E94BF1D50C0DD2079F001
:101F70001F7181E090E0A0E0B0E0BC01CD0104C0A1
:101F8000660F771F881F991F1A95D2F703C060E06C
:101F900070E0CB010E94B31D39C0DD2099F01F71A4
:101FA000812F0E94011E8091D10182FD07C038E07F
:101FB000139FC001112483608093B902812F0E9476
:101FC000011E24C081E00E94E41D81E08A15F0F426
:101FD00082E00E94E41D1AC0DD2039F0AA2009F435
:101FE000BBCF802F0E94493011C0AA2009F4B9CF7D
:101FF000893349F49FEFE7EEF3E09150E040F04081
:10200000E1F700C00000802F0E94E22F88EF8B0DC7
:10201000843010F40E94A22BCC20A9F08091B90248
:1020200080FD11C0F70112828595859585950E94E6
:10203000011EC7010E940D0A8091B9028595859500
:1020400085950E94BF1D85E0F701DE011D96019078
:102050000D928A95E1F78D859E850E945C1DEE8527
:10206000F0E008E0809FE00DF11D112483E0EE0F09
:10207000FF1F8A95E1F78D85E80FF11DEE0FFF1F19
:10208000E451FA4F8591949177C069E23DCC083CC8
:102090002CE5120709F450C008F053C048E65DE291
:1020A0006FE57DE261C00C3CFCE51F0709F453C0FD
:1020B00008F056C04BE35DE26FE27DE255C00E359D
:1020C0008DE5180709F4ACCC43CC80915A0780FF0A
:1020D0001EC08E7F80935A0760915A0770915B07EC
:1020E00080915C0790915D070E94832D80911D0770
:1020F000816080931D079FEFE0E7F2E09150E040A0
:10210000F040E1F700C000000E94822C89CC816081
:1021100080935A0761E086952CC048EB5DE261EC44
:102120007DE222C041EC5DE268EB7DE21DC04FE53F
:102130005DE268E67DE218C047E45DE263E57DE2CA
:1021400013C043E55DE267E47DE20EC04FE25DE26D
:102150006BE37DE209C044EC59E265ED79E204C02D
:1021600045ED59E264EC79E20E947C2C59CC61E0A7
:1021700081E00E94952D54CC67960FB6F894DEBF8F
:102180000FBECDBFDF91CF911F910F91FF90EF90C8
:10219000DF90CF90BF90AF909F908F900895CF9396
:1021A000DF93CDB7DEB7E1970FB6F894DEBF0FBE71
:1021B000CDBF84B7877F84BF0FB6F894A895809170
:1021C0006000886180936000109260000FBE90E014
:1021D00080E80FB6F89480936100909361000FBE81
:1021E00085B7806885BF85B7806885BF8AE69EE130
:1021F0009093C9018093C8010E94EE270E940D2888
:102200008091E20084608093E200789480910603DC
:102210008823A1F01091E9001F709091EC00892FA4
:10222000817090FD80E8182B1092E9008091E80001
:1022300083FD0E94E1241F701093E90082E084BDB9
:1022400093E095BD9AEF97BD80936E001092CC01FC
:102250001092CD011092CE011092CF010E94B720B2
:102260008093000180910001882321F010925E018B
:102270008AE003C08AE080935E0180935F010E9440
:10228000B72081110E94EF328091000180910001FE
:10229000811102C094E001C090E09093DB0184E0E2
:1022A000891B8093DA0103E611E057E6E52E51E041
:1022B000F52ED8018D918D018F3F11F00E944C2198
:1022C000E016F106B1F70BE611E043E7E42E41E03A
:1022D000F42EF80181918F018F3F11F00E944C2163
:1022E000E016F106B1F7E2EDF1E08AED91E0A2EE41
:1022F000B1E011921D928E179F07D9F780E090E010
:102300000E94DF34893E9E4F11F00E94B71982E08F
:1023100090E00E94D134809348020E94A6199093C5
:10232000D1018093D00183E090E00E94D134682FE6
:1023300070E080E090E00E94221E6091F3017091B5
:10234000F4018091F5019091F6010E949A090E9492
:10235000ED300E94B720811102C00E94F23282E06B
:102360008093370280E8809310030E94ED306DE087
:1023700070E085E191E00E948C24892B09F043C034
:102380008091370263E070E081FD3AC082E191E024
:102390000E948C24892BB9F56DE070E082E091E019
:1023A0000E948C24892B79F50E94002BDC01CB0143
:1023B000805A9541AF4FBF4F80935F07909360075E
:1023C000A0936107B0936207E3E1F3E080E094E05B
:1023D000DF018C011D9201501040E1F7F0931A07C4
:1023E000E09319078FEF9FEF9093120380931103EF
:1023F00081E080936407809363071092380203C0E2
:102400008FE091E0C5CF8091DC01811139C080E07F
:1024100090E00E94DF34893E9E4F21F00E94B71960
:102420000E94C52D88E090E00E94D93460935A073D
:1024300070935B0780935C0790935D0780911D0705
:10244000836080931D076E7F71F40E94C52D88E024
:1024500090E00E94D93460935A0770935B07809391
:102460005C0790935D070E94712D80915A0780FF51
:1024700004C060E086950E94952D81E08093DC0188
:1024800080910001811106C085E380930C0186E6EE
:1024900080930B0120910C01E22FE295EF70F0E0A8
:1024A00031A12F7081E090E0AC01022E01C0440FF9
:1024B0000A94EAF7542F5095352331A332A1432BC8
:1024C00042A340910B01A42FA295AF70B0E091966A
:1024D0003C9191974F70042E01C0880F0A94EAF73F
:1024E000982F9095932391969C93919792969C9177
:1024F0009297892B92968C93929780A190E002C03C
:10250000959587952A95E2F7817090962C9130E009
:1025100002C0359527954A95E2F720FD02C090E06C
:1025200001C092E0892B8093EE019091000181E03F
:1025300098279093ED01891B8093DD01809116010E
:1025400019821A821B821C828D8324E630E045E0CA
:1025500050E0BE016F5F7F4F84E10E94EE3183E166
:1025600090E00E94D9346093DE017093DF01809384
:10257000E0019093E101862F609314016091E001E6
:1025800060931501472F709316010E946D0981E039
:1025900091E090936B0780936A072E012DE1420E24
:1025A000511C6E013FE1C30ED11C809106038530A2
:1025B00009F06EC080E4982E9AEEE92E91E0F92E93
:1025C00020E1A22E32E1B32E80910603853009F07E
:1025D0005BC080910603843009F446C0198E1A8EC0
:1025E0001B8E1C8E04E610E024E030E0AE01475E56
:1025F0005F4F60E084E10E944232FE017996808163
:102600008111108231964E165F06C9F704E610E07C
:1026100024E030E0AE01475E5F4F60E084E10E945D
:10262000153210926E0748E150E00FB6F894A89565
:10263000409360000FBE9092600083B7817F8460FA
:1026400083BF83B7816083BF7894889583B78E7F7B
:1026500083BF0FB6F894A89580916000886180933D
:102660006000109260000FBE80910503882309F47A
:10267000ABCF0E94A621E2EEF1E081918111AAC4C4
:10268000EE16FF06D1F7A0CF0E942C1E0E94A22BAF
:102690000E94A621A82E81110E94002BA9E4B2E07D
:1026A000E2EEF1E0E12CF12C9E2CB1908D918B2586
:1026B00009F453C000E011E0982F912309F448C0B9
:1026C0000E94B720882399F00CA39DA2B12281E03B
:1026D00009F480E08EA30E940C2B8160782F98A7CC
:1026E0008FA34CA15DA16EA188A50E943708F701B8
:1026F000E75BFD4F808118271083E091EE015E2F8C
:10270000550F550F20910C01E22FE295EF70F0E08C
:1027100080A190E02F7002C0959587952A95E2F7E9
:102720008170992740910B01E42FE295EF70F0E062
:1027300020A130E04F7002C0359527954A95E2F709
:10274000F901E170FF2720FF21C0E2E0F0E01EC0A8
:102750000F5F110F083009F0AFCF5FEFE51AF50AF0
:1027600068E0E616F10409F09FCF8FEF89A78AA7EA
:102770001BA60E940C2B8160782F9DA78CA749A5D2
:102780005AA56BA58DA50E943708B7CFE82BF92B6A
:10279000E52BE093EE011091ED01EF70F0E0ED58C4
:1027A000FE4F90818091EC01890F8093EC01843081
:1027B00074F0E12FF0E0E651FE4F80818F5F80835F
:1027C00060E0812F0E944E09BB24B39401C0B12C5C
:1027D0008091EC018D3F6CF4E12FF0E0E651FE4F6B
:1027E00080818150808361E0812F0E944E09BB244B
:1027F000B3948091EC01082E000C990B64E070E01A
:102800000E9414378093EC01B1100E94A4198091AA
:102810006407882309F4CFC18091390290913A026C
:102820000E94F12AC29708F4BFC00E940C2B90931B
:102830003A028093390283E193E090931A078093E0
:1028400019070E94B720882309F46CC08CEA95E030
:102850000E947E248DE995E00E947E2485E995E022
:102860000E947E244091F3015091F4016091F501A2
:102870007091F6018091EF019091F001A091F1012A
:10288000B091F2017A018B01E82AF92A0A2B1B2B5D
:10289000C801B7010E94DF0890E087309105D0F4AD
:1028A000FC01EE59FF4F0C9447378DE895E014C0BA
:1028B00085E895E011C089E795E00EC084E795E0D2
:1028C0000BC08FE695E008C085E695E005C08DE574
:1028D00095E002C082E595E00E947E240E94A22B32
:1028E00081FB002700F982FB112710F980FD03C04E
:1028F00082E495E002C08AE495E00E947E24011102
:1029000003C082E395E002C08AE395E00E947E2442
:10291000111103C082E295E002C08AE295E00E94B4
:102920007E2442C08091190790911A0783519340E9
:102930009C013C5F2130344028F020E034E0281B2B
:10294000390B02C020E034E0609111037091120352
:10295000DC01AD5EBC4FAC01280F391F01E010E077
:1029600042175307E8F4FA01E81BF90BEE5DFE4F3E
:10297000E491FC91EF1781F0EC93FA01689415F85B
:10298000F695E7951694E1F7780102C0EE0CFF1C6E
:10299000EA95E2F76E297F294F5F5F4F1196E0CFEE
:1029A000709312036093110380916407882309F4E4
:1029B000E7C020911103309112032115310509F46C
:1029C000DFC0809138028111DBC061E070E0082F28
:1029D00010E07B01082E02C0EE0CFF1C0A94E2F707
:1029E000A9014E215F21452B11F48F5FF0CF90910B
:1029F00037029801F6E0220F331FFA95E1F790FDB8
:102A000013C08295880F880F807480930F01220F66
:102A1000232F221F330B319520931201815C809369
:102A200010011092130112C076E0369527957A9521
:102A3000E1F7220F220F220F20930F0110921201B3
:102A4000295F2093100187E08093130124E630E092
:102A500047E050E06DE071E088E70E94EE31892B9D
:102A600009F08EC08091370280FD22C0A80166E087
:102A7000440F551F6A95E1F74D5E5C4F04E610E088
:102A800020E430E060E488E70E941532892B09F0E9
:102A900077C00E943F2CE094F094809111039091B4
:102AA0001203E822F922F0921203E092110368C0A7
:102AB00080E4E7EFF1E0DF011D928A95E9F7180164
:102AC00046E0220C331C4A95E1F7EBE8F1E0F9AB64
:102AD000E8AB43E851E077247394A8A9B9A98D9194
:102AE000B9ABA8ABFA019191AF019101290F311D4A
:102AF00089010D5E1C4F1FA70EA790E089509E4FC5
:102B0000FC0107E09F01281B390B872C01C0880CB2
:102B10002A95EAF76EA57FA5912CDB011D91BD01D9
:102B20001821202F29192770622E022E000C330B3A
:102B3000B12F01C0BB0F6A94EAF76B2E3195219536
:102B400031092770332701C016952A95EAF7612AC3
:102B50001081612A6082939418E09112DECF0150B7
:102B600031960F3F79F628A939A92359314009F048
:102B7000B4CF04E610E020E430E047EF51E082CF2C
:102B8000809163078823B9F00E94002B00915F07B2
:102B9000109160072091610730916207DC01CB0141
:102BA000801B910BA20BB30B8F3F9F4FAF4FBF47C3
:102BB00010F40E94252CA11001C0B1100E943F2CDE
:102BC00086E0EDE7F7E0DE01599601900D928A95D7
:102BD000E1F7E0907F07F090800700918107109166
:102BE000820710927F07109280071092810710923F
:102BF0008207E11003C0FF2009F451C080917B07D8
:102C000090917C070E94F12A9C019091770799236B
:102C100009F4F6C12333310508F441C09F3F19F090
:102C20009F5F90937707EE2061F00E94492F1E145A
:102C300014F09FEF01C091E0899F802D11248093B3
:102C40007F07FF2061F00E94492F1F1414F09FEFAF
:102C500001C091E0899F802D1124809380073091DD
:102C60007F073323E1F0209180072223C1F045EB59
:102C70003403C0011124992319F090937F0703C0F6
:102C800081E080937F0755EB2503C0011124992330
:102C900019F09093800703C081E0809380070111B1
:102CA00003C0112309F451C08091790790917A07EC
:102CB0000E94F12A9C0190917607992309F4A5C1FD
:102CC0002536310508F441C09F3F19F09F5F90936E
:102CD0007607002361F00E94272F101614F09FEF53
:102CE00001C091E0899F802D1124809381071123D9
:102CF00061F00E94272F111614F09FEF01C091E0A0
:102D0000899F802D1124809382073091810733237E
:102D1000E1F0209182072223C1F065EB3603C00168
:102D20001124992319F09093810703C081E08093C7
:102D3000810775EB2703C0011124992319F09093A3
:102D4000820703C081E08093820780917F07811111
:102D50000BC080918007811107C08091810781118C
:102D600003C08091820781110E94C42FEB8EFC8EDC
:102D70000D8F1E8F86E0FE017996ADE7B7E00190DA
:102D80000D928A95E1F786E0E9E8F7E0DE011D960D
:102D900001900D928A95E1F786E0FE013D96DE01F5
:102DA000539601900D928A95E1F786E0FE017396A5
:102DB000DE01599601900D928A95E1F71F8E04E687
:102DC00010E021E030E0A60169EF84E10E94423288
:102DD0008F8D80FFAFC08091450290914602009791
:102DE000F9F40E940C2B8160909346028093450277
:102DF00085E0D6011D928A95E9F704E610E025E00A
:102E000030E0A60164E084E10E944232EF8C38A1F8
:102E100009A12AA18BA1982F907880FD06C019C026
:102E20000E94F12A0697E8F685C08A8D992311F051
:102E3000816001C08E7F8A8F86E0FE017996DE0177
:102E4000179601900D928A95E1F786E0FE0137967C
:102E50009AC0F12CE31AF10810E0021B1109E114E9
:102E6000F10421F40115110509F464C0911162C047
:102E700080913F0290914002892B19F483E00E94D7
:102E8000011E0E940C2B81609093400280933F02B0
:102E900081E090E01E141F0414F080E090E02F2DDC
:102EA000221F2227221FFC01E21BF109EE9CA00138
:102EB000EF9C500D500D1124E49FC001E59F900D33
:102EC000F49F900D1124880F991F880F991F20914E
:102ED0003D0230913E02820F931F90933E028093F9
:102EE0003D0281E090E01016110614F080E090E0C1
:102EF000212F221F2227221F7C01E21AF108009FA6
:102F0000A001019F500D500D1124E49EC001E59ECB
:102F1000900DF49E900D1124880F991F880F991F12
:102F200020913B0230913C02820F931F90933C0210
:102F300080933B0280913D0290913E02892B61F18A
:102F40006DE372E0CE014B960E942F096BE372E0B5
:102F5000CE014C960E942F0961E472E0C2010E94EA
:102F60002F0963E472E0CE014E960E942F0986E09D
:102F7000FE017996DE01119601900D928A95E1F796
:102F800086E0FE013196A9E8B7E001900D928A959E
:102F9000E1F70E946D2ECECF80913B0290913C02D2
:102FA000892B71F68091430290914402892B41F65E
:102FB0008091410290914202892B11F60E94A22B2E
:102FC00090914702891709F4F0CA0E94A22B8093BE
:102FD0004702E7CAA9BCB9BC09B400FEFDCF809185
:102FE000D8008F7D8093D8008091E000826080932C
:102FF000E0008091E00081FDFCCF0E942C1EE4CA1D
:103000002D32314008F00CCE4ACE2D32314008F03E
:103010005DCE9BCECF93DF938238910569F1B0F4FA
:103020008133910509F46FC048F48932910509F4A0
:1030300065C08A32910509F46BC08AC08533910559
:1030400009F457C089339105B9F082C0833E9105D8
:1030500071F138F4803E9105B1F0823E910511F195
:1030600077C0863E9105B9F1873E9105C9F1843E4E
:10307000910509F06DC024C02091D00120FD53C0FE
:1030800021FD51C065C08091D00180FD46C0809176
:10309000D10180FF48C08091D00184FD50C183EEF2
:1030A00090E04FC18091D00182FF3AC0F4CF80916F
:1030B000D00182FD35C08091D10180FD34C0EBCFBD
:1030C0008091D10181FF35C08091D00184FD37C14D
:1030D00087EE90E036C18091D00183FF27C0F4CF06
:1030E0008091D00183FD22C08091D10181FD21C05A
:1030F000EBCF8091D00185FD1FC021C08091D00110
:1031000085FD1DC019C08091D00186FD1BC01DC06A
:103110008091D00186FD19C015C089E390E011C1EE
:1031200082EE90E00EC180EE90E00BC186EE90E062
:1031300008C184EE90E005C189E290E002C185E318
:1031400090E0FFC08AE290E0FCC081E390E0F9C02B
:10315000811531E5930708F069C0811540E59407B2
:10316000F0F09C0174E0369527957A95E1F7922F5F
:103170009370482F437021E030E002C0220F331FCC
:103180004A95E2F73C68392B982F9F709695969553
:1031900040E2949FC0011124822B932BD2C0883E21
:1031A000910568F5803E910508F0CBC0883A9105FD
:1031B000B8F4853A910548F0855AE82FF0E0ED56CD
:1031C000FE4F808190E09064BCC08130910509F48D
:1031D000B3C008F4B4C08430910508F4B0C0B1C0E5
:1031E0008F3B910508F0ABC0885AE82FF0E0EE0F56
:1031F000FF1FEA56FE4F808191819464A2C0811521
:1032000020E2920758F4811531E0930708F099C045
:103210008D3E910508F493C0906593C0811540E4FC
:10322000940708F48CC09F70906A8BC0811525E5C7
:10323000920708F042C0811534E5930728F0982FD3
:103240008827846F906A7DC0811543E59407B0F0AC
:103250009C012370332741E050E002C0440F551F0A
:103260002A95E2F7282F2695269580E2289F90013F
:103270001124CA01822B932B9A6863C0811522E521
:10328000920728F4982F8827816F906A5AC09C0172
:103290002370332741E050E002C0440F551F2A95A8
:1032A000E2F7282F2695269580E2289F9001112489
:1032B000CA01822B932B9C6844C0EC01811539E52F
:1032C0009307A8F48115984528F09C2F8827806FD4
:1032D000906A37C0C11586E5D80788F58C2F0E9403
:1032E00063218F7190E0982F882790622AC0811502
:1032F0002AE5920790F48C2F8F700E94632194E04E
:10330000D695C7959A95E1F7CF70D0E0DC2FCC2702
:10331000D0699E01282BC90114C090568115904296
:1033200070F48D2F8F710E946321282F2F71CE0191
:1033300099279062922B05C081E090E002C080E066
:1033400090E0DF91CF9108950C94002BCF9384E00F
:1033500090E00E94D134C82F82E290E00E94D134E4
:103360002C2F30E0A901582BCA01CF91089569EEA6
:103370007EEF80E090E00E94033560E082E090E024
:103380000E94E53460E083E090E00E94E534109212
:10339000EF011092F0011092F1011092F20160E041
:1033A00084E090E00E94E53460E082E290E00E94D8
:1033B000E53460E085E090E00E94E53460E086E07E
:1033C00090E00E94E5346FEF87E090E00E94E534E2
:1033D00040E050E0BA0188E090E00E94F73460E0FD
:1033E0008DE090E00E94E53440E050E0BA0188E1D1
:1033F00090E00E94F73460E087E190E00E94E534BD
:1034000040E050E0BA018CE190E00E94F73460E0C7
:1034100070E080E290E00E94033540E050E0BA01A5
:1034200088E190E00E94F73440E050E0BA018FE07C
:1034300090E00E94F7341092DE011092DF011092AA
:10344000E0011092E101EEEDF1E08CEC80838CED77
:10345000828382EC81834091DE015091DF01609193
:10346000E0017091E10183E190E00C94F7348091E8
:10347000BD0281111092BD0208959091BC0280910D
:10348000BB02892B2091BA02982F922B9093510264
:103490008091BD02882389F0892B80935102E3E556
:1034A000F2E097E080E0915029F021912223D9F3B6
:1034B0008F5FF9CF81110E94371AE0916A07F0916E
:1034C0006B07309731F00280F381E02D81E592E0C7
:1034D0000994089580E090E00E947E2B80E090E0C7
:1034E0000E94682B1092BB021092BA020E943D1AF1
:1034F000EDE7F7E086E0DF011D928A95E9F710928B
:10350000770710927607109278070C94C42FCF9308
:10351000C091D101C2FB992790F9981781F080FBE7
:10352000C2F9C093D1016091D00184E090E00E9483
:10353000E5346C2F82E290E0CF910C94E534CF918A
:1035400008958091B80290918702891719F08F5FD2
:103550008770FBCF08950F931F93CF93DF938091D4
:10356000860282958F7009F05DC080918302882366
:1035700009F458C08091B8021091870260918102CD
:1035800070918202C0918402D091850291E06F3FD8
:1035900009F090E0292F06E0811709F443C0209735
:1035A00021F07F3F21F030E003C031E001C0322F35
:1035B00090E030FD34C0089FF001099FF00D112408
:1035C000DF01A857BD4F11963C911197371327C0C3
:1035D0003C91361324C012963C91129731111FC0B2
:1035E00013964D915C9114974C1B5D0B483C510513
:1035F000B0F4809186028F70806180938602E357D9
:10360000FD4F80818F708061808381E892E00E940D
:103610000D0ADF91CF911F910F910C94A11A019681
:103620008770BACFDF91CF911F910F9108958F923C
:103630009F92AF92BF92EF92FF920F931F93CF93FF
:10364000DF938090F3019090F401A090F501B09089
:10365000F6014091EF015091F0016091F1017091FC
:10366000F201842A952AA62AB72ACFE1D0E0E92ED2
:10367000F12C082F10E0D501C4010C2E04C0B69522
:10368000A795979587950A94D2F780FD04C0219756
:1036900090F780E01AC0FE0183E0EE0FFF1F8A95CD
:1036A000E1F7EE0DFF1D93E0EE0FFF1F9A95E1F796
:1036B000E00FF11FEE0FFF1FE451FA4F8591949137
:1036C0000E940A18019719F38C2FDF91CF911F9157
:1036D0000F91FF90EF90BF90AF909F908F900895C3
:1036E000CF93DF93D82FC92F0E94171BEC2FF0E048
:1036F00098E0899FE00DF11D112483E0EE0FFF1F7C
:103700008A95E1F7ED0FF11DEE0FFF1FE451FA4F1F
:10371000859194910E940A18DF91CF910895FC0140
:10372000808191810E94701B292F2F70E92FE295D3
:10373000EF704E2F50E0FA013297EE30F105B8F4F9
:10374000E759FF4F0C944737803F99F018F4883EB3
:1037500070F40FC0843F59F40CC0883E50F0813F94
:1037600031F407C0822F869586958695089580E06E
:10377000089581E008959F92AF92BF92CF92DF9219
:10378000EF92FF920F931F93CF93DF93CDB7DEB7E6
:1037900061970FB6F894DEBF0FBECDBF8C0185E0F8
:1037A000F801DE011D9601900D928A95E1F7F8016E
:1037B000E280909181026091820240918402509156
:1037C00085024115510531F06F3F31F481E09F3F93
:1037D00019F403C081E001C080E0F82FF1709F2E42
:1037E00080FD1AC1F80130812181C380D48081E835
:1037F000A82E82E0B82EF0908302F601E41BF50BB0
:10380000FF2009F4C6C080918602E83CF10508F06B
:1038100091C0482F407F09F050C0621311C093132C
:103820000FC0FE2CE1100CC08F7080618093860267
:10383000C5010E940D0A80918602F801858329C185
:10384000CD2831F02F3F31F481E03F3F19F403C020
:1038500081E001C080E080FD03C081E08E2502C0D0
:1038600080E090E0F82FF170FF2E80FF1CC0809167
:10387000B8024091870256E0841709F4E8C090E04E
:10388000589FF001599FF00D1124E857FD4F6181B9
:10389000261306C06081631303C06281E61203C071
:1038A00001968770E9CFFE2CEE2009F4F2C08091DA
:1038B000860281608093860249C0621306C093131A
:1038C00004C0E11002C0F80186C0C8010E948F1B2D
:1038D000882351F1EE2041F120918602822F8295BA
:1038E0008F7090E0029774F0809181029091820233
:1038F00098878F831986DB86CA862C87CE01079628
:103900000E940D0A86E0F801A1E8B2E001900D9254
:103910008A95E1F70E94AB1A0AC06217C9F0C80184
:103920000E948F1B81111EC0C8010E940D0AFF2436
:10393000F394AFC0482F407F81F781E892E00E9466
:103940000D0A86E0F50111928A95E9F7F12CA1C0E4
:103950009313E5CFE110E3CFF8018583C8010E94FE
:103960000D0A54C0EE2001F320918602822F829529
:103970008F7090E0029734F28091810290918202E0
:103980009A8389831B82DD82CC822E83CE010196AD
:10399000B7CFE83CF105D0F5FE2CEE2029F26213FA
:1039A00027C0931325C02091860220FD18C0822FC6
:1039B00082958F70482F50E04115510581F0F80134
:1039C00025834F30510541F08F5F982F9295907F5E
:1039D000822F8F70892B8583C8010E940D0A86E093
:1039E000F801A1E8B2E001900D928A95E1F751C08B
:1039F000C8010E948F1B811185CF80918602816052
:103A000080938602C8010E940D0A43C086E0F5013A
:103A100011928A95E9F73DC0EE2009F485CFC801DF
:103A20000E948F1BF82E882309F47ECF86E0F801D0
:103A3000A1E8B2E001900D928A95E1F780918102B0
:103A4000909182020E94701B0E94AB1A22C03D8797
:103A50002E878D859E850E94701B292F22952F70A1
:103A6000223028F49F7039F0811105C00BC024303A
:103A700028F49F7049F4805E883020F0C8010E94CD
:103A80000D0A9F2CF92C05C0F8019581907F99F7BC
:103A9000F9CF8F2D61960FB6F894DEBF0FBECDBF64
:103AA000DF91CF911F910F91FF90EF90DF90CF901A
:103AB000BF90AF909F90089528E0929F800D1124B1
:103AC000682F669566956695982F977085E0689F34
:103AD000B001112440E050E080E0FB01E40FF51F4D
:103AE000E75AFD4F208130E0092E02C03695279518
:103AF0000A94E2F721703327042E01C0220F0A94A2
:103B0000EAF7822B4F5F5F4F4530510531F708953B
:103B100028E0929F800D1124E82FE695E695E69522
:103B2000877051E001C0550F8A95EAF785E0E89F5C
:103B3000F0011124E75AFD4F20E030E070E04081B1
:103B4000CB01022E02C0969587950A94E2F7817008
:103B5000819584278523842781932F5F3F4F2530CC
:103B6000310569F708950E949A096093F3017093F3
:103B7000F4018093F5019093F6010C946A1A0F9367
:103B80001F9341E050E060E070E004C0440F551F17
:103B9000661F771F8A95D2F740955095609570956E
:103BA0008091F3019091F401A091F501B091F6019B
:103BB0008A019B01082319232A233B23C901B80149
:103BC0001F910F910C94B31D2091B902809582230F
:103BD0008093B902982F977041F430E0482F082E57
:103BE000000C550B2417350721F49091D10192FF59
:103BF00007C08595859585950E94BF1D1092B902D5
:103C000008950F931F9341E050E060E070E004C01E
:103C1000440F551F661F771F8A95D2F78091F301D5
:103C20009091F401A091F501B091F6018A019B01F8
:103C3000082B192B2A2B3B2BC901B8011F910F917F
:103C40000C94B31D6093EF017093F0018093F10128
:103C50009093F2010C946A1A1092BC0286E0E3E59C
:103C6000F2E0DF011D928A95E9F70C946A1A882325
:103C700041F080959091BC0289238093BC020C9402
:103C80003D1A0895882339F09091BC02892B8093C6
:103C9000BC020C943D1A08951F93CF93DF93182F05
:103CA000893319F0C0E0D0E002C0C0E5D0E0812F38
:103CB0000E944930209741F08FE99FE00197F1F78A
:103CC00000C000002197F6CF812FDF91CF911F9187
:103CD0000C94E22F80E00895AF92BF92CF92DF92D2
:103CE000EF92FF920F931F93CF93DF937C015B01C1
:103CF0006A018091F8028A3018F001E010E002C0F9
:103D00000AE010E0C1E0D0E0F894B501C701F60187
:103D100009957894811115C021960C171D0794F010
:103D2000CC9F9001CD9F300D300D112480E090E0AC
:103D300045E34A95F1F70000019682179307C1F712
:103D4000E3CF81E0DF91CF911F910F91FF90EF9032
:103D5000DF90CF90BF90AF9008958F929F92AF92D7
:103D6000BF92CF92DF92EF92FF920F931F93CF9368
:103D7000DF93FB0180809180A280B3809FB7F8948D
:103D8000C0906F07D0907007E0907107F0907207B5
:103D90009FBFC818D908EA08FB08F4E6CF16D1047B
:103DA000E104F10410F4442351F17B01C82F880F82
:103DB000DD0B01151105A9F08AE08C9FF0018D9FA4
:103DC000F00D1124E95EFE4F8381948188529D4F4E
:103DD000428150E00417150708F4A801B9010E94B8
:103DE0007C37CE010E94FC33892B11F080E008C0A3
:103DF0000E94002BF701608371838283938381E0AB
:103E0000DF91CF911F910F91FF90EF90DF90CF90B6
:103E1000BF90AF909F908F9008950F931F93CF9373
:103E2000DF931F92CDB7DEB780916307898320911E
:103E3000EB0230E090E041E02817390709F440E058
:103E400001E010E09E012F5F3F4F64EF72E086E0DB
:103E50000E94AD1E0F90DF91CF911F910F91089599
:103E60000F931F93CF93DF93CDB7DEB728970FB68D
:103E7000F894DEBF0FBECDBF85E0EAE5F7E0DE01D6
:103E8000119601900D928A95E1F780911B07909110
:103E90001C07A0911D078E839F83A88741E088851A
:103EA000811101C040E008E010E09E012F5F3F4F0C
:103EB00060EF72E085E00E94AD1E811110921D0737
:103EC00028960FB6F894DEBF0FBECDBFDF91CF911D
:103ED0001F910F9108957F928F929F92AF92BF9200
:103EE000CF92DF92EF92FF920F931F93CF93DF93C6
:103EF0001F92CDB7DEB7762E4A0159016801082F0F
:103F0000880F110BC8010E94FC33892B09F07EC079
:103F10008AE0809FF001819FF00D1124E95EFE4F41
:103F2000458150E04115510511F041E050E08AE033
:103F3000809FF001819FF00D1124E95EFE4F6681A4
:103F4000778168527D4FCE0101960E947C37F40143
:103F500040815181628173812FB7F89480916F07FE
:103F600090917007A0917107B09172072FBF841BC9
:103F7000950BA60BB70B84369105A105B10540F44E
:103F8000B701C6010E94652C9981891709F440C0C8
:103F9000072D770C110BC8010E94FC33892B09F502
:103FA000E114F10401F18AE0809FF001819FF00D9E
:103FB0001124E95EFE4F458150E0E416F50608F451
:103FC000A7018AE0809FF001819FF00D1124E95E36
:103FD000FE4F6681778168527D4FC5010E947C3714
:103FE00002C010E001C011E0B701C6010E94652CBB
:103FF00091E02981281390E0192381F00E94002B81
:10400000F401608371838283938308C010E001C050
:1040100011E0A701B601C5010E947C37812F0F90E6
:10402000DF91CF911F910F91FF90EF90DF90CF9094
:10403000BF90AF909F908F907F900895CF92DF9226
:10404000EF92FF920F931F93CF93DF931F92CDB701
:10405000DEB7EE24E394F12C0EED12E09E012F5F0B
:104060003F4F44ED52E063E082E00E946B1FC82E98
:10407000882379F1D090DD018D2D90E09C012651AF
:104080003E4F79011981F9018081181B012F80E0D1
:1040900010165CF40150F70180818F5F808360E02F
:1040A0008D2D0E944E0981E0F3CF912F17FD90E0F6
:1040B000191B112359F01F5FF70180818150808304
:1040C00061E08D2D0E944E0981E0F3CF81110E94A5
:1040D000A4198C2D0F90DF91CF911F910F91FF901C
:1040E000EF90DF90CF900895CF92DF92EF92FF9202
:1040F0000F931F93CF93DF9300D000D0CDB7DEB7DF
:104100006B0184E0E82EF12C09ED12E09E012F5F97
:104110003F4F40ED52E061E080E00E946B1F88233A
:1041200061F049815A816B817C814093CC0250932C
:10413000CD026093CE027093CF024091CC02509199
:10414000CD026091CE027091CF02F601408351837F
:10415000628373830F900F900F900F90DF91CF9138
:104160001F910F91FF90EF90DF90CF900895809175
:10417000CB02811118C08091D80080618093D80053
:104180008AE18A95F1F700C08091D90080FD02C0D4
:1041900082E001C081E08093CB02823021F40E9452
:1041A000EE271092060381E09091CB02913009F046
:1041B00080E008950F931F93CF93DF9300D000D03A
:1041C000CDB7DEB74091EC025091ED026091EE0266
:1041D0007091EF022FB7F89480916F07909170075C
:1041E000A0917107B09172072FBF841B950BA60B8E
:1041F000B70B84369105A105B10508F443C00E94B0
:10420000B720882319F00E94002B0EC00E94002BBB
:104210000091CC011091CD012091CE013091CF01C0
:10422000600F711F821F931FDC01CB010296A11D3D
:10423000B11D89839A83AB83BC83809142019091A5
:10424000430188529D4F4091410150E04530510556
:1042500010F044E050E0BE016F5F7F4F0E947C375A
:1042600084E090E00E94FC33892B11F080E00BC0C9
:104270000E94002B6093EC027093ED028093EE029B
:104280009093EF0281E00F900F900F900F90DF91CD
:10429000CF911F910F910895F894E82FE295EF7058
:1042A000F0E031A1282F2F7081E090E001C0880F4D
:1042B0002A95EAF7982F9095932391A392A1892BA1
:1042C00082A3789408959091D00192FF0DC0282F79
:1042D0002871283019F4877F846006C0282F247144
:1042E000243011F48B7F886093FF0DC0282F287134
:1042F000283119F4877E846106C0282F2471243167
:1043000011F48B7E88612091D10120FF0DC0382FE0
:104310003871383019F4877F816006C0382F3171C9
:10432000313011F48E7F886021FF0DC0282F287155
:10433000283119F4877E816106C0282F217121312F
:1043400011F48E7E886194FD877E08958F929F92EE
:10435000AF92BF92CF92DF92EF92FF920F931F9393
:10436000CF93DF93CDB7DEB72C970FB6F894DEBFAF
:104370000FBECDBF9E012F5F3F4F790188E0F9014D
:1043800011928A95E9F703E611E06901AA24A39442
:10439000B12CF80180818F3F09F447C0F894E82FD1
:1043A000E295EF70F0E021A18F70A50102C0440FEB
:1043B000551F8A95E2F7CA01922F982B91A392A1DB
:1043C0008095892382A3789400C0EBE6F1E020E099
:1043D00030E0912C41914F3FB1F0A42FA295AF70E6
:1043E000B0E090968C9190E04F7002C095958795C3
:1043F0004A95E2F780FD07C08A2D022E01C0880F82
:104400000A94EAF701C080E0982A2F5F3F4F2830D6
:10441000310501F7F80180818F3F11F00E944C2196
:10442000F0EAFA95F1F7F60190820F5F1F4FFFEF68
:10443000CF1ADF0A21E00736120709F0AACF48E0B9
:1044400050E0B70182ED91E00E946F378C01892B1B
:1044500041F088E0F701A2EDB1E001900D928A955C
:10446000E1F7F090DB010115110549F081E080933F
:10447000C1020E940C2B9093C0028093BF028091D6
:10448000C1028823B1F08091BF029091C0020E94C6
:10449000F12A059770F0A2EDB1E0EF2DF0E0EE51BA
:1044A000FE4F8D91819331E0A63DB307D1F7109275
:1044B000C1020115110509F049C10E94B720E09120
:1044C000DB01882309F4A3C019861A861B861C8683
:1044D0000E2F10E00E511E4F8091F802AE01435F87
:1044E0005F4F7A018A3058F444E750E2BE01675FBB
:1044F0007F4FC8010E946C1E882399F10AC08091E9
:10450000C2029091C3020E94F12A843F914060F759
:104510003AC04EE150E2BE01675F7F4FC8010E9482
:104520006C1E8823F1F04AED50E2BE01675F7F4FB9
:10453000C8010E946C1E8823A1F040E35FE1BE0128
:10454000675F7F4FC8010E946C1E882351F04DE0C9
:104550005FE1BE01675F7F4FC8010E946C1E811141
:10456000F8C08091F8028F3F19F08F5F8093F802B6
:104570008091F8028A3008F4EEC00E940C2B9093D0
:10458000C3028093C202E091DA01F0E0EE51FE4FE7
:10459000DE01199611921D92AE15BF05D9F701E003
:1045A0008091C5029091C6020E94F12A893E9340F3
:1045B00008F4E4C06091C402E62EF12C6627772748
:1045C0006E197F09072E000C880B990B0E94CE35BF
:1045D00027EA39E747E45DE30E949B364B015C0123
:1045E000B701FF0C880B990B0E94CE359B01AC01E3
:1045F000C501B4010E941A350E949D356093C40222
:104600000E940C2B9093C6028093C502B7C0F0E0C5
:10461000EE51FE4FF89484E0A9EDB2E001900D92C6
:104620008A95E1F764E070E089ED92E00E94652CE4
:104630008093D8027894F894E091ED01F0E0E6518F
:10464000FE4F808189878093DE0261E070E0CE01B9
:1046500009960E94652C8093DD027894F894C090AE
:10466000DF02D090E002E090E102F090E20280915F
:10467000C7029091C802A091C902B091CA02C8169F
:10468000D906EA06FB06E1F0C092C702D092C80242
:10469000E092C902F092CA020E94B720811110C0B4
:1046A0000E94002BA7019601261B370B480B590BC4
:1046B0002093CC013093CD014093CE015093CF0194
:1046C0007894F8948091EA02882399F180FF22C0BF
:1046D0009091E30280915A0790FF09C08160809316
:1046E0005A0760E0892F86950E94952D13C08E7F12
:1046F00080935A0780911D07816080931D073FEFCB
:1047000040E752E0315040405040E1F700C0000027
:104710000E94822C8091EA0281FF09C020E0409132
:10472000E6026091E5028091E4020E94CE2C109294
:10473000EA027894F8948091EB02882319F00E94A1
:104740003F2C02C00E94252C789418C001E010E094
:1047500015C01092F802E091DA01F0E0EE51FE4F40
:10476000DE01199600E08D919081981711F08083F9
:1047700001E03196EA16FB06B1F712CF802F2C9696
:104780000FB6F894DEBF0FBECDBFDF91CF911F9162
:104790000F91FF90EF90DF90CF90BF90AF909F90E0
:1047A0008F900895CF93DF93C0911907D0911A0786
:1047B0008A30B1F420911003CE0183519340622FCF
:1047C00070E00E94B434281B822F66E00E940837F4
:1047D000C82FC15008F48FC080E20E94D223F9CFC5
:1047E0008D30E9F4C351D34020911003622F70E063
:1047F000CE010E94B434281B822F9E01280F311D48
:104800002115344018F080E0C0E0D0E0C80FD11D81
:10481000CD5EDC4FD0931A07C09319076CC096E0A9
:10482000FE01A3E1B7E001900D929A95E1F7803E79
:1048300030F086E0FE0111928A95E9F70BC0F6E0B0
:104840008F9FB00111246856764F46E050E0CE01AC
:104850000E94C834C0911907D0911A0746E050E071
:10486000BE0183E197E00E946F37892B49F19E01D9
:1048700023513340A90186E0569547958A95E1F783
:1048800081E090E0BC0102C0660F771F4A95E2F715
:104890004091110350911203462B572B2B5F3F4F32
:1048A00066E0369527956A95E1F702C0880F991F53
:1048B0002A95E2F7842B952B909312038093110392
:1048C0009E012D50334040911003642F70E0C901C8
:1048D0000E94B434481B463010F4240F311D2115BA
:1048E00084E0380710F020E030E02D5E3C4F30933C
:1048F0001A0720931907DF91CF910895CF93DF9383
:10490000EC01FE018491882321F00E94D22321969C
:10491000F8CFDF91CF910895EF92FF920F931F93FD
:10492000CF93DF93EC017B0164E670E088E70E949F
:10493000F3308C01EC0EFD1ECE15DF0561F017FD86
:104940000AC0FE01849164E670E00E9474318C011B
:104950002196892B89F30E948E32C801DF91CF9175
:104960001F910F91FF90EF900895EF92FF920F9398
:104970001F93CF93DF937C018B010E94E629811165
:1049800019C0E70101151105A1F08091E80085FD2E
:104990000AC08091E8008E778093E8000E94E629A3
:1049A000882381F307C089918093F1000150110998
:1049B000E9CF80E0DF91CF911F910F91FF90EF90B1
:1049C00008951F93CF93DF93CDB7DEB7AA970FB6A5
:1049D000F894DEBF0FBECDBFE8E0F3E08091F100B8
:1049E000819323E0E031F207C9F780910903833016
:1049F00009F460C030F4813071F0823009F49AC05B
:104A0000B1C08A3009F486C08B3009F46BC089309C
:104A100009F0A8C020C080910803813A09F0A2C023
:104A20008091E800877F8093E80080910C0390914B
:104A30000D03892B21F468E08CEF92E003C060E065
:104A400080E090E070E00E946D2A8091E8008B7712
:104A50008093E80087C080910803813209F082C00A
:104A600080910C0390910D03029708F07BC0809118
:104A7000E800877F8093E8008091E80082FD05C010
:104A8000809106038111F8CF6DC02091F3008091D1
:104A9000F20090E0922B029729F48091F1008B7F35
:104AA000813021F48091F1008093FB028091E80035
:104AB0008B7754C080910803813A09F053C08091EC
:104AC0000C0390910D03892B09F04CC08091E800F4
:104AD000877F8093E8008091E80080FFFCCF809181
:104AE0005D0137C0809108038132E1F580910C03AC
:104AF00090910D03892BB1F58091E800877F809319
:104B0000E8000E94192A80910A0380935D010E94A7
:104B10002C1E28C080910803813221F58091E80085
:104B2000877F8093E8000E94192A80910B0380936D
:104B3000FA0218C080910803813AA1F48091E8003C
:104B4000877F8093E8008091E80080FFFCCF809110
:104B5000FA028093F1008091E8008E778093E8005C
:104B60000E94192A8091E80083FFCCC1809108033C
:104B700090910903492F50E04A30510508F0C2C115
:104B8000FA01E958FF4F0C944737803821F08238FA
:104B900009F0B8C108C080910403909105039923DE
:104BA00089F082600FC080910C038F70873008F00D
:104BB000A9C18093E9008091EB0085FB882780F9EB
:104BC0001092E9009091E800977F9093E80080931D
:104BD000F1001092F10065C1282F2D7F09F092C1DC
:104BE000882319F0823061F08DC180910A038130F1
:104BF00009F088C1933009F080E0809305032EC04E
:104C000080910A0381112AC080910C038F702FEFCD
:104C1000280F263008F076C18093E9002091EB0040
:104C200020FF1CC0933021F48091EB00806214C0FF
:104C30009091EB0090619093EB0021E030E0A901AE
:104C400002C0440F551F8A95E2F74093EA00109284
:104C5000EA008091EB0088608093EB001092E900FD
:104C60008091E800877F20C181114CC110910A0317
:104C70001F778091E3008078812B8093E3008091FF
:104C8000E800877F8093E8000E94192A8091E8005D
:104C900080FFFCCF8091E30080688093E3001111D6
:104CA00002C082E001C083E0809306032BC18058DC
:104CB000823008F027C180910A0390910B038C3D4C
:104CC00053E0950779F583E08A838AE289834FB7B9
:104CD000F894DE01139620E03EE051E2E32FF0E08D
:104CE00050935700E49120FF03C0E295EF703F5FBF
:104CF000EF708E2F90E0EA3010F0C79601C0C0969A
:104D00008D939D932F5F243149F74FBF8091E80029
:104D1000877F8093E8006AE270E0CE0101960E94EE
:104D20006D2AAEC040910C0350910D03292F3327FB
:104D300023303105A9F068F42130310509F4F1C0C0
:104D40002230310509F0DEC08BE390E0E7E2F9E0C4
:104D500044C02132310521F12232310571F1D2C036
:104D6000992781309105A1F058F0029709F0CAC047
:104D7000E4E7F9E0E4918E2F90E0E4E7F9E02AC05F
:104D8000E4E9F9E0E4918E2F90E0E4E9F9E022C053
:104D9000E2E8F9E0E4918E2F90E0E2E8F9E01AC051
:104DA0004115510509F4C2C04130510509F0AAC0AE
:104DB00089E090E0E2E5F9E010C04115510509F401
:104DC000BAC04130510509F09DC08BE790E0ECE698
:104DD000F8E003C0009709F495C02091E800277F10
:104DE0002093E80020910E0330910F038217930760
:104DF00008F49C0140E02115310589F180910603FA
:104E0000882309F43DC08530D9F18091E80083FD05
:104E100037C08091E80082FD2FC08091E80080FFBC
:104E2000EACF4091F3008091F20090E0942B21159D
:104E3000310559F08830910540F444914093F100D8
:104E40003196215031090196F2CF41E0089709F0DF
:104E500040E08091E8008E778093E800CCCF41114C
:104E6000CDCF0AC080910603882351F0853041F0F0
:104E70008091E80083FD04C08091E80082FFF2CFBA
:104E80008091E8008B778093E8003CC08038D1F5B2
:104E90008091E800877F8093E800809107038093EA
:104EA000F1008091E8008E778093E8000E94192A33
:104EB00029C0811127C080910A0390910B03992783
:104EC000029704F58091E800877F8093E8001091B5
:104ED0000A03109307030E94192A111106C080913A
:104EE000E30087FD02C081E001C084E080930603F7
:104EF00042E061EC81E00E94382A42E261EC82E00B
:104F00000E94382A8091E80083FF1AC08091E8004F
:104F1000877F8093E8008091EB0080628093EB00B4
:104F20000FC082E190E0E2E6F9E057CF89E090E03F
:104F3000E9E3F9E052CF80E490E0E7EEF8E04DCF0E
:104F4000AA960FB6F894DEBF0FBECDBFDF91CF910A
:104F50001F9108951F920F920FB60F9211242F9355
:104F60003F934F935F936F937F938F939F93AF93F1
:104F7000BF93CF93DF93EF93FF93C091E900CF707E
:104F80008091EC00D82FD17080FDD0E81092E9001C
:104F90008091F000877F8093F00078940E94E12454
:104FA0001092E9008091F00088608093F000CD2B92
:104FB000CF70C093E900FF91EF91DF91CF91BF9146
:104FC000AF919F918F917F916F915F914F913F91A1
:104FD0002F910F900FBE0F901F901895E8EDF0E005
:104FE00080818E7F80831092E2001092DA0010920E
:104FF000E100A0EEB0E08C9181608C9380818F778E
:10500000808319BCA7EDB0E08C918E7F8C9380815A
:105010008F7E80831092F9020895CF92DF92EF92F3
:10502000FF920F931F93CF93DF93C8EDD0E0888159
:105030008F7E8883E7EDF0E080818160808384E06B
:1050400082BF81E08093F90288818E7F888302EE9F
:1050500010E0F80110821092DA0081EEC82ED12CF7
:10506000F601108288818F778883888180688883A1
:1050700088818F7D888319BC1092060310920703E4
:10508000109205031092040390EEE92EF12CF70123
:1050900080818B7F808388818160888342E060E0AB
:1050A00080E00E94382AF60180818E7F8083F8019B
:1050B000808181608083808188608083F701808126
:1050C0008E7F8083888180618883DF91CF911F915B
:1050D0000F91FF90EF90DF90CF9008951F920F9265
:1050E0000FB60F9211242F933F934F935F936F93BB
:1050F0007F938F939F93AF93BF93EF93FF93809191
:10510000E10082FF09C08091E20082FF05C080912A
:10511000E1008B7F8093E1008091DA0080FF2AC05C
:105120008091D80080FF26C08091DA008E7F809326
:10513000DA008091D90080FF18C080E189BD82E14A
:1051400089BD09B400FEFDCF81E080930603809104
:10515000F90281110FC00E94EE270E940D28809154
:10516000E20084608093E20005C019BC109206033F
:105170001092F9028091E10080FF17C08091E20057
:1051800080FF13C08091E2008E7F8093E2008091C7
:10519000E20080618093E2008091D8008062809379
:1051A000D80019BC85E0809306038091E10084FF5C
:1051B0002EC08091E20084FF2AC080E189BD82E197
:1051C00089BD09B400FEFDCF8091D8008F7D80930A
:1051D000D8008091E1008F7E8093E1008091E20011
:1051E0008F7E8093E2008091E20081608093E200F4
:1051F00080910703882311F084E007C08091E300C9
:1052000087FD02C081E001C083E0809306038091A6
:10521000E10083FF27C08091E20083FF23C08091DB
:10522000E100877F8093E10082E080930603109283
:1052300007038091E1008E7F8093E1008091E2007E
:105240008E7F8093E2008091E20080618093E20093
:1052500042E060E080E00E94382A8091F00088609F
:105260008093F000FF91EF91BF91AF919F918F914B
:105270007F916F915F914F913F912F910F900FBE52
:105280000F901F9018958091FB020895909106034E
:10529000943031F5809373077093750760937407AA
:1052A00082E08093E9008FEF9091E800815095FDB6
:1052B00006C095ED9A95F1F700008111F5CF809128
:1052C000E80085FF0DC040E050E063E070E083E758
:1052D00097E00E94B5248091E8008E778093E800E3
:1052E0000895BC0184E00C944629BC0183E00C9431
:1052F000462922E02093E9002FEF3091E800215069
:1053000035FD06C035ED3A95F1F700002111F5CFD6
:105310002091E80025FF0BC040E050E066E070E01F
:105320000E94B5248091E8008E778093E80008956C
:10533000CF93DF9321E02093E9002FEF3091E80035
:10534000215035FD06C035ED3A95F1F700002111E9
:10535000F5CF2091E80025FF14C0EC0140E050E0BB
:1053600068E070E00E94B5248091E8008E77809319
:10537000E80088E0FE01ACEFB2E001900D928A9562
:10538000E1F7DF91CF91089580915E07882319F0AE
:10539000815080935E0760915A0770915B078091FE
:1053A0005C0790915D070C94832D80915E0783309C
:1053B00018F48F5F80935E0760915A0770915B07C6
:1053C00080915C0790915D070C94832D2091E400FF
:1053D0003091E50095E64091EC00842F817040FF0C
:1053E00023C08091E80080FD1DC0809106038823C2
:1053F00099F0853099F08091EB0085FD11C04091C6
:10540000E4005091E5002417350729F3915011F07D
:105410009A01E1CF84E0089582E0089583E0089541
:1054200081E0089580E008954091E80042FFDDCFDB
:1054300008958091080387FF11C08091E80082FDE4
:1054400005C0809106038111F8CF11C08091E8005A
:105450008B770BC080910603882349F08091E80088
:1054600080FFF8CF8091E8008E778093E800089560
:10547000982F973068F59093E900981739F070915C
:10548000EC002091ED005091F00003C0242F762F06
:1054900050E021FD02C09F5FECCF3091EB003E7FDA
:1054A0003093EB003091ED003D7F3093ED00309173
:1054B000EB0031603093EB007093EC002093ED0033
:1054C0005093F0002091EE0027FDE5CF80E0089595
:1054D0008F708093E90081E0089520910E03309150
:1054E0000F032617370748F06115710539F420912D
:1054F000E8002E772093E80001C0B901FC0120E00C
:105500006115710579F1809106038823F1F18530E9
:10551000F1F18091E80083FD3CC08091E80082FDBC
:105520002EC08091E80080FFEBCF2091F3008091A6
:10553000F20090E0922B6115710551F088309105D1
:1055400038F421912093F100615071090196F3CF55
:1055500021E0089709F020E08091E8008E778093A1
:10556000E800CECF2111CFCF0AC080910603882357
:1055700061F0853061F08091E80083FD0AC0809180
:10558000E80082FFF2CF80E0089582E0089583E092
:10559000089581E0089578941F920F920FB60F92AC
:1055A00011248F939F93AF93BF9380916F07909136
:1055B0007007A0917107B09172070196A11DB11DEE
:1055C00080936F0790937007A0937107B093720751
:1055D000BF91AF919F918F910F900FBE0F901F9031
:1055E00018959C014FB7F89480916F0790917007C0
:1055F000A0917107B09172074FBF821B930B089562
:105600002FB7F89460916F077091700780917107C0
:10561000909172072FBF08952FB7F89480916F076C
:1056200090917007A0917107B09172072FBF0895F4
:105630001F920F920FB60F9211248F939F93AF93E7
:10564000BF9380916E07811113C080916F07909175
:105650007007A0917107B09172074196A11DB11D0D
:1056600080936F0790937007A0937107B0937207B0
:10567000BF91AF919F918F910F900FBE0F901F9090
:1056800018959C012A5F3F4FFC014281461301C0DF
:105690001282019682179307B9F708959C01FC01C5
:1056A00032969FEF80E04191461789F09F3F19F4B1
:1056B000411101C0982F8F5F8630A9F79F3F39F0C5
:1056C000F901E90FF11D97FDFA9562830895089598
:1056D00020916C0730916D072817390771F090936E
:1056E0006D0780936C07E0916A07F0916B07309724
:1056F00021F00084F185E02D099408952091680738
:10570000309169072817390771F0909369078093E2
:105710006807E0916A07F0916B07309721F00680E7
:10572000F781E02D09940895E0916A07F0916B07E5
:10573000309739F022E0DC012C930480F581E02DD4
:10574000099408950E94B720882351F0E0916A07D8
:10575000F0916B07309721F00190F081E02D0994D2
:1057600080E008950F931F93CF93DF93C42FD22F20
:10577000FC0182818823C9F0409367070E940C2BAB
:10578000909366078093650780E28C0F883008F05D
:1057900057C0C77081E001C0880FCA95EAF7DF9152
:1057A000CF911F910F910C94421E8091670748136F
:1057B00030C080916507909166070E94F12A883C6D
:1057C000910538F510E21D0FCD17B9F080E28C0F6E
:1057D000883040F4C77081E001C0880FCA95EAF7AD
:1057E0000E94371E183028F581E09D2F977001C068
:1057F000880F9A95EAF70E94421E802F0E944C1E45
:105800001830F0F4D77081E001C0880FDA95EAF71C
:105810000AC080E28C0F883098F4C77081E001C024
:10582000880FCA95EAF7DF91CF911F910F910C94E1
:10583000371E802FDF91CF911F910F910C944C1E3A
:10584000DF91CF911F910F910895809164079091FE
:105850006307882389F0992369F062E070E08AED9C
:105860009EE00E948C24892B19F080916307089593
:10587000109263079091630781E0892708958091D2
:1058800064078823F9F00E94002BDC01CB01805AC9
:105890009541AF4FBF4F80935F0790936007A093F0
:1058A0006107B09362078091630781110BC062E0CA
:1058B00070E088ED9EE00E948C24892B19F481E031
:1058C00080936307809163070895FC01680F791F37
:1058D0008FEF91E3E617F70771F02191822728E017
:1058E00030E087FF03C0880F892701C0880F21504F
:1058F0003109B9F7EFCF0895882311F0FA0101C0FB
:10590000FB01099430915F0180915A0780FF16C016
:10591000E0915E0163E0E69FF0011124E25EF84F42
:10592000539A8BB1877F9BB198602FB7F894AF01E2
:1059300063E0369F400D511D112414C08091600119
:1059400090916101891720F7E82FF0E0AF01440F33
:10595000551FE40FF51FE25EF84F1182108212828C
:105960008F5FF0CFE417F50789F0319168E09BB9BC
:10597000000000C037FF8BB9330F000000C000C02B
:1059800000C08BB900C06A9591F7ECCF2FBF8FE5AF
:1059900094E00197F1F700C0000008950F931F9362
:1059A000CF93DF9390915A0790FF54C0022FC42FDA
:1059B000D62F182FE92FE695F0E0EA53FE4F8081AD
:1059C00080931B079E7F9230F1F4842F473908F0B3
:1059D00086E9612F7D2F0E94DD2D9091600120913D
:1059E0006101921770F4E92FF0E0AF01440F551FE9
:1059F000E40FF51FE25EF84F7183608382839F5F3F
:105A0000F0CF0E94822C80915B07181308C0809110
:105A10005C07D81304C080915D07C81729F08091F6
:105A20001D07826080931D0710935B07D0935C076E
:105A3000C0935D07002371F060915A0770915B0776
:105A400080915C0790915D07DF91CF911F910F913D
:105A50000C94832DDF91CF911F910F910895EAE56A
:105A6000F7E0438128E0421B08F440E021E0628136
:105A700081810C94CE2CEAE5F7E0438128E0420FC7
:105A800008F44FEF21E0628181810C94CE2CEAE58D
:105A9000F7E0628128E0621B08F460E021E04381C6
:105AA00081810C94CE2CEAE5F7E0628128E0620F58
:105AB00008F46FEF21E0438181810C94CE2CEAE55C
:105AC000F7E0818121E04381628188500C94CE2CE3
:105AD000EAE5F7E0818121E043816281885F0C94EF
