:100000000C94B0070C94F7070C94F7070C94073383
:100010000C94F7070C94F7070C94F7070C94F70768
:100020000C94F7070C94F7070C94F8240C94AD2368
:100030000C9478260C94F7070C94F7070C94F707A8
:100040000C94F7070C94F7070C94F7070C94F70738
:100050000C94F7070C942B260C94F7070C94F707D5
:100060000C94F7070C94F7070C94F7070C94F70718
:100070000C94F7070C94F7070C94F7070C94F70708
:100080000C94F7070C94F7070C94F7070C94F707F8
:100090000C94F7070C94F7070C94F7070C94F707E8
:1000A0000C94F7070C94F7070C94F7076E0C6E0C82
:1000B000A80CA80CFF0C1B0DED0EED0E620D400EF2
:1000C000510E510EA913AC13AF13B213B513B813DD
:1000D000BB13292029203C203C2032203C203C20FE
:1000E0003C202920292037203C203C203720CF2DC0
:1000F000F62D8C2FF62D8C2F3E2E612E8C2F502F0F
:10010000632F00DA1281FFD9F1DB20A4A62EAF0005
:10011000A0C000A1C800AED580A83FD300408D1478
:100120002000643214000000000000000000000005
:1001300000008080C0E0F07078383C1C1E0E0E0E6F
:10014000070707070707070707070707070707073F
:100150000E0E0E1E1C3C387870F0E0C0808000004F
:10016000000000000000000000000000000000008F
:10017000000000000000000000000000000000007F
:10018000000000000000000000000000000000006F
:10019000000000000000000000000000000000005F
:1001A000000000000000000000000000C0E0F07C43
:1001B0003E1F0F07030180C0E0F078383C1C1E0E84
:1001C0000E070787E77F1FFFFF1F7FE78707070EE1
:1001D0000E1E1C3C3878F0E0C0800103070F1F3E64
:1001E0007CF0E0C000000000000000000000000003
:1001F00000000000000000000000000000000000FF
:1002000000000000000000000000000000000000EE
:1002100000000000000000000000000000000000DE
:10022000000000000000000000F0FCFF1F070100BC
:1002300000C0F0FCFEFFF7F3B1B0303030303030AA
:100240003078FE87010000FFFF00000187FE783054
:10025000303030303030B0B1F3F7FFFEFCF0C0008A
:100260000001071FFFFCF00000000000000000007C
:10027000000000000000000000000000000000007E
:10028000000000000000000000000000000000006E
:10029000000000000000000000000000000000005E
:1002A0000000000000000000FFFFFF000000000051
:1002B000FEFFFF0101071E78E181838386868C8C17
:1002C0009898B1B7FEF8E0FFFFE0F8FEB7B1989854
:1002D0008C8C8686838381E1781E070101FFFFFEF7
:1002E0000000000000FFFFFF00000000FFFF000013
:1002F000C0C030300000F0F0000000000000F0F05E
:100300000000F0F0C0C030303030C0C000003030ED
:10031000F3F3000000000000303030303030C0C057
:100320000000000000000000FFFFFF0000000000D0
:100330007FFFFF8080E0781E8781C1C1616131311C
:1003400019198DED7F1F07FFFF071F7FED8D19190D
:1003500031316161C1C181871E78E08080FFFF7FFC
:100360000000000000FFFFFF000000003F3F03030C
:100370000C0C3030000000003333333333330F0FB5
:1003800000003F3F0000000000000000000030308F
:100390003F3F303000000C0C3333333333333F3FB7
:1003A0000000000000000000000F3FFFF8E08000A8
:1003B00000030F3F7FFFEFCF8D0D0C0C0C0C0C0CCE
:1003C0000C1E7FE1800000FFFF000080E17F1E0C1B
:1003D0000C0C0C0C0C0C0D8DCFEFFF7F3F0F0300AE
:1003E0000080E0F8FF3F0F00000000000000000068
:1003F00000000000000000000000000000000000FD
:1004000000000000000000000000000000000000EC
:1004100000000000000000000000000000000000DC
:1004200000000000000000000000000003070F3E75
:100430007CF8F0E0C0800103070F1E1C3C38787088
:1004400070E0E0E1E7FEF8FFFFF8FEE7E1E0E070D2
:100450007078383C1C1E0F07030180C0E0F0F87C68
:100460003E0F070300000000000000000000000035
:10047000000000000000000000000000000000007C
:10048000000000000000000000000000000000006C
:10049000000000000000000000000000000000005C
:1004A000000000000000000000000000000000004C
:1004B0000000010103070F0E1E1C3C38787070709D
:1004C000E0E0E0E0E0E0E0E0E0E0E0E0E0E0E0E02C
:1004D00070707078383C1C1E0E0F0703010100007D
:1004E000000000000000000000000000000000000C
:1004F00000000000000000000000000000000000FC
:1005000000000000000000000000000000000000EB
:1005100000000000000000000000000000000000DB
:100520000000000000202020202020200053435203
:100530004C434B200020202020202020004341500D
:100540004C434B200020202020202020004E554DE1
:100550004C434B2000556E646566696E65640A0005
:1005600041646A7573740A0046756E6374696F6ED0
:100570000A0053796D0A004E61760A00436F6C657C
:100580006D616B2D44480A0044766F72616B0A00FE
:100590005157455254590A004C617965723A20000E
:1005A0004B7972696120726576312E300A0A0080BB
:1005B0008182838485868788898A8B8C8D8E8F90B3
:1005C00091929394A0A1A2A3A4A5A6A7A8A9AAAB1F
:1005D000ACADAEAFB0B1B2B3B4C0C1C2C3C4C5C696
:1005E000C7C8C9CACBCCCDCECFD0D1D2D3D40000CE
:1005F0000000001700150008001A0014002942002E
:100600000000000A0009000700160004002B002F5C
:100610000035000500190006001B001D00E0002940
:10062000412C41E300E200E3000000000000000074
:100630000000001C0018000C00120013002A00002B
:100640000000000B000D000E000F003300340030DE
:10065000002E001100100036003700380028002955
:10066000422C45E5004600E60000000000000000C6
:10067000000000310230022F021F021E02010000A2
:10068000000000350027022602210220020100019D
:10069000000100350230002F002302220201002E4B
:1006A0000033000100010001000000000000000014
:1006B0000000000100010001000100010031000004
:1006C0000000002E022D0038002502220234000115
:1006D00000010024022E003600370038002D002EC5
:1006E00000330001000100010000000000000000D4
:1006F0000000002200210020001F001E0001000059
:10070000000000A900AB00AE00AC00010001000138
:10071000000100AA00A80001000100010001000181
:1007200000010001000100010000000000000000C5
:1007300000000023002400250026002700010000FF
:100740000000005000510052004F00010001000164
:10075000000100EF00EE00ED00F0000100010001DB
:100760000001000100010001000000000000000085
:100770000000003E003D003C003B003A000100004C
:10078000000000C45CCA5CC65CC85CC35C010001BC
:10079000000100C55CCB5CC75CC95C0100010001C5
:1007A0000001000100010001000000000000000045
:1007B0000000003F004000410042004300010000F3
:1007C000000000010001000100440045000100019B
:1007D0000001000100010001000100010001000111
:1007E0000001000100010001000000000000000005
:1007F000AF00AE000101010101010101010202028D
:1008000002020202020203030303030303030404BC
:100810000404040404050505050506060606060786
:100820000707070708080808090909090A0A0A0B3F
:100830000B0B0C0C0C0D0D0D0E0E0E0F0F0F1010E0
:100840001111111212131314141515161617171867
:100850001819191A1A1B1B1C1D1D1E1E1F202021D2
:100860002222232424252626272829292A2B2C2D19
:100870002D2E2F30313232333435363738393A3B3A
:100880003C3D3E3F404142434445464748494A4C2F
:100890004D4E4F50515354555658595A5B5D5E5FFB
:1008A000616264656668696B6C6D6F707273757791
:1008B000787A7B7D7E8082838587888A8C8E8F91F3
:1008C000939596989A9C9EA0A2A3A5A7A9ABADAF1D
:1008D000B1B3B5B7BABCBEC0C2C4C6C9CBCDCFD107
:1008E000D4D6D8DBDDDFE2E4E7E9EBEEF0F3F5F8B0
:1008F000FAFDFF05010902A10185020901A1000518
:1009000009190129081500250195087501810205BD
:1009100001093009311581257F9502750881060985
:10092000381581257F950175088106050C0A380266
:100930001581257F950175088106C0C005010980D4
:10094000A101850319012AB700150126B7009501F9
:1009500075108100C0050C0901A101850419012A47
:10096000A002150126A002950175108100C00501A5
:100970000906A101050719E029E7150025019508D9
:10098000750181029501750881010507190029FF8C
:10099000150026FF00950675088100050819012934
:1009A00005950575019102950175039101C0090234
:1009B0003B00020100A0FA0904000001030101004C
:1009C0000921110100012240000705810308000AE6
:1009D00009040100010300000009211101000122A6
:1009E0007B000705820320000A12010002000000BC
:1009F000081D8D9D9D0100010200010C034B007933
:100A00000072006900610000001003730070006C48
:100A100000690074004B0042000000040309040751
:100A2000087F0807003E5B4F5B3E003E6B4F6B3E0E
:100A3000001C3E7C3E1C00183C7E3C18001C577D70
:100A4000571C001C5E7F5E1C0000183C180000FF55
:100A5000E7C3E7FF00001824180000FFE7DBE7FF0B
:100A60000030483A060E00262979292600407F05E5
:100A7000050700407F05253F005A3CE73C5A007FB0
:100A80003E1C1C0800081C1C3E7F0014227F221400
:100A9000005F5F005F5F0006097F017F00006689DD
:100AA000956A0060606060600094A2FFA2940008F4
:100AB000047E04080010207E20100008082A1C086C
:100AC00000081C2A0808001E10101010000C1E0C34
:100AD0001E0C0030383E383000060E3E0E06000078
:100AE000000000000000005F000000000700070099
:100AF00000147F147F1400242A7F2A120023130875
:100B000064620036495620500000080703000000C8
:100B10001C224100000041221C00002A1C7F1C2ACC
:100B20000008083E0808000080703000000808082F
:100B30000808000000606000002010080402003E69
:100B40005149453E0000427F4000007249494946F4
:100B5000002141494D33001814127F1000274545EC
:100B60004539003C4A494931004121110907003605
:100B70004949493600464949291E00000014000031
:100B80000000403400000000081422410014141436
:100B90001414000041221408000201590906003E05
:100BA000415D594E007C1211127C007F4949493643
:100BB000003E41414122007F4141413E007F494981
:100BC0004941007F09090901003E41415173007FFD
:100BD0000808087F0000417F4100002040413F019C
:100BE000007F08142241007F40404040007F021CEB
:100BF000027F007F0408107F003E4141413E007F9C
:100C000009090906003E4151215E007F0919294664
:100C10000026494949320003017F0103003F40405B
:100C2000403F001F2040201F003F4038403F0063EE
:100C300014081463000304780403006159494D4308
:100C400000007F41414100020408102000004141A2
:100C5000417F000402010204004040404040000087
:100C600003070800002054547840007F284444388B
:100C700000384444442800384444287F0038545401
:100C800054180000087E09020018A4A49C78007F74
:100C9000080404780000447D4000002040403D00EE
:100CA000007F102844000000417F4000007C047851
:100CB0000478007C0804047800384444443800FC7C
:100CC000182424180018242418FC007C08040408A4
:100CD0000048545454240004043F4424003C404041
:100CE000207C001C2040201C003C4030403C004444
:100CF00028102844004C9090907C004464544C444C
:100D00000000083641000000007700000000413676
:100D10000800000201020402003C2623263C0000D9
:100D20000000000000404040F0F8F8FF38FFF8F8FD
:100D30003FF8F8FF38FFF8F8F040404000000000AE
:100D4000000080C0C0C0800000C0C08000000080E3
:100D5000C0C000C0C0000080C0C00000000000C0D3
:100D6000C0C0C0C000C0C000000000000000000003
:100D70000000000000000000000000000000000073
:100D80000000000000000000000000000000000063
:100D90000000000000000000000000000000C0F0A3
:100DA000F8FC3E1E06010000007F4141417F007FAC
:100DB0004141417F000080C0E07E5B4F5BFEC00090
:100DC00000C000DCD7DEDEDED7DC00C000000000A3
:100DD0000000000000000000000000000000000013
:100DE0000000000000494949FFFFFFFFE0DFBFBFEF
:100DF00000BFBFDFE0FFFFFFFF49494900000000DF
:100E0000001F3F6060E0BF1F007F7F071E381E0786
:100E10007F7F007F7F0E1F3B716000000000007F1E
:100E20007F0C0C0C007E7E007F7E0303007F7E0320
:100E3000037E7E03037F7E000F3E703C063C703EC7
:100E40000F00327B49493F7E007F7E0303001E3F37
:100E500069696F2600000000000000000000030F19
:100E60001F3F3C7870600000007F4141417F007F60
:100E70004141417F00307B7F7830202030787F3BBC
:100E80000003000F7F0F0F0F7F0F00030000000013
:100E90000000000000000000000000000000000052
:100EA0000000000000010101070F0F7F0F7F0F0FEF
:100EB0007E0F0F7F0F7F0F0F070101010000000061
:100EC0000000000000000101000000000000000020
:100ED0000000000000000000000000000000000012
:100EE0000000000000000000000000000000000002
:100EF00000000000000000000000000000000000F2
:100F000000000000000000000000000000000000E1
:100F100000000000000000000000000000000000D1
:100F200000000000000000000000000000000000C1
:100F300000000000000000000000000000000000B1
:100F400000000000000000000000000000000000A1
:100F50000000000000000000000000000000000091
:100F600011241FBECFEFDAE0DEBFCDBF04B603FE13
:100F700027C080919F079091A007A091A107B091F1
:100F8000A2078730904BA740B04BD1F410929F0737
:100F90001092A0071092A1071092A20714BE84B766
:100FA000877F84BF0FB6F894A89580916000886110
:100FB00080936000109260000FBEE0E0F8E30995B6
:100FC00011E0A0E0B1E0ECECFEE602C005900D926D
:100FD000AC3CB107D9F727E0ACECB1E001C01D9201
:100FE000AF39B207E1F70E94CD0F0C9464370C942F
:100FF00000001F93CF93DF93CDB7DEB767970FB68F
:10100000F894DEBF0FBECDBF4B8B5C8B6D8B7E8BA0
:101010008F8B61111092080386E09E01235F3F4F82
:10102000D901E82F1D92EA95E9F795E0FE01739644
:10103000D90101900D929A95E1F79C894E895F89BB
:101040007B897D879E876F87598B488BF901DE01ED
:10105000179601900D928A95E1F7CE0107960E94AE
:10106000402081113EC086E0FE013796DE011196D8
:1010700001900D928A95E1F7FF81E8856A857B856D
:101080006115710531F0EF3F31F481E0FF3F19F454
:1010900003C081E001C080E080FD23C02091D40224
:1010A00030E0C9010196877099274091050350E00F
:1010B0008417950779F1F983EA837D836C8396E041
:1010C000929FD001939FB00D1124AB52BD4FFE01F2
:1010D000319601900D929A95E1F78093D4020E9487
:1010E000261F16E0809105039091D4028917F9F02C
:1010F000189FC00111248B529D4F0E9440208823CD
:10110000B1F08091050390E0019687709927809354
:101110000503E8CF0E94AF221092D402109205037B
:10112000EEECF2E086E0DF011D928A95E9F7679622
:101130000FB6F894DEBF0FBECDBFDF91CF911F91E8
:10114000089581110CC0662329F089EA0E94CF22FC
:1011500089EA12C08AEA0E94CF228AEA0DC0813051
:1011600069F4662329F08BEA0E94CF228EE404C042
:101170008CEA0E94CF228BE40E94CF2281E0089566
:10118000DC01FB0180819181803891053CF08FE783
:101190008C93808191818F5791090AC081382FEFFC
:1011A00092074CF481E88C938081918181589F4F04
:1011B0009183808308958C9311821082089568171B
:1011C00020F4861B682F21E002C0681B20E0469FA8
:1011D000A0011124649FC001659F900D112491709E
:1011E000222319F091958195910908958F929F92EC
:1011F000AF92BF92CF92DF92EF92FF920F931F9325
:10120000CF93DF93CDB7DEB767970FB6F894DEBF05
:101210000FBECDBFFC01D080118183819481892BC9
:1012200039F01F3F39F491E00FEFD01203C003C033
:1012300091E001C090E090FD9DC67F0185E0DE0158
:10124000539601900D928A95E1F7F70122818B89DF
:101250009C89222349F00E949C1F082F682F8B89AC
:101260009C890E940D2203C00E94E121082FE12FDA
:10127000F0E018E0019FE00DF11D112463E0EE0F96
:10128000FF1F6A95E1F7ED0DF11DEE0FFF1FE15114
:10129000FA4F05911491F7018281882309F463C004
:1012A000C80190568115F0E29F0748F0905E8115C5
:1012B00020E1920720F0915C81159F4118F4C8014C
:1012C000992708C00F3F110509F010F4C80102C0AA
:1012D00080E090E09C01245031092432310520F057
:1012E0008B970E9708F05DC080916A0290916B0217
:1012F000009799F10E9451269C0140E050E060EE79
:101300007EE280E090E00E94FA36C09069022F3FB2
:10131000310519F010F02FEF30E0D12CB9016C1924
:101320007D0980E090E00E949E3527EA39E747E496
:101330005DE30E946D360E9458354B015C01B60199
:10134000DD0C880B990B0E94A035A50194010E9429
:10135000EC340E946F35609369020E946C26909372
:101360006B0280936A02043F8CE51807D1F178F490
:10137000093DECE51E0761F10A3DFCE51F0709F494
:1013800051C0083D2CE5120709F052C01BC0063FB2
:101390003CE51307B9F180F1073F9CE51907E1F13E
:1013A00047C0043FFCE51F07E1F008F5093D3CE5B7
:1013B000130771F00A3D8CE51807A1F1083D9CE583
:1013C0001907D9F506E221EE41EE68ED7CE505C08E
:1013D00007E225EE45EE69ED7CE5C7010E94362760
:1013E00006C206E221EE40EE64EF7CE5F6CF063F52
:1013F000ECE51E0739F060F407E225EE44EE65EFF8
:101400007CE5EBCF06E221EE42EE66EF7CE5E5CF30
:10141000073F2CE5120789F407E225EE46EE67EF59
:101420007CE5DBCF08E221E045EE6AED7CE5D5CF37
:10143000F7018281882309F446C1109252030430D7
:10144000FDE51F0758F40B3F2CE5120760F4C801B7
:1014500082509C45449708F01FC105C002363DE507
:10146000130709F019C10E94401E9093D001809388
:10147000CF0100318CE5180709F4CAC008F041C05B
:101480000830ECE51E0709F4A4C0F0F404302CE5A4
:10149000120709F48CC068F402308CE5180709F4CF
:1014A00082C003301C4509F0E7C08091CF01826003
:1014B000E1C00630ECE51E0709F483C008F085C0E2
:1014C0008091CF018860D6C00C302CE5120709F45A
:1014D00090C068F40A308CE5180709F47EC008F063
:1014E00084C00E94AF228091CF018068C3C00E30BB
:1014F000ECE51E0709F481C008F086C08091CF0199
:1015000094C00D3F2CE5120709F47BC038F5043177
:101510008CE5180709F49AC058F40231ECE51E076F
:1015200009F47AC008F07EC08091CF018F7BA2C001
:101530000B3F2CE51207F1F108F03FC005311C45C7
:1015400009F09AC08091CF0182FB222720F991E017
:10155000922790FB82F990FB83F98CC001309DE5C6
:10156000190709F467C050F48091D0010F3FFCE5E2
:101570001F07C1F108F05BC08D7F65C003303DE5FA
:10158000130709F471C008F46DC002361D4509F057
:1015900073C08091CF0184FB222720F991E092272C
:1015A00090FB84F967C08091CF01816063C0809116
:1015B000CF0116C08091D00116C08091D001826009
:1015C00042C08091CF01806155C08091CF0180627F
:1015D00051C08091CF0180644DC08091CF0188605F
:1015E000846048C0826081602EC08091CF018E7F70
:1015F00041C08091CF018D7F3DC08091CF01877F19
:1016000039C08091D00114C08091CF018F7E32C04B
:101610008091CF018F7D2EC00E94AF228091CF019B
:101620008F7728C08091CF01877F8B7F23C08D7FEC
:101630008E7F09C08091D001982F909591708E7FF8
:10164000892B90FB81F98093D00116C00E94AF22B4
:101650008091CF0187FB222720F991E0922790FB10
:1016600087F908C061E001C060E08EE090E00E9470
:10167000B73402C08093CF016091CF011091D001A7
:1016800084E090E00E94B734612F82E290E00E94F3
:10169000B7340E94AF22ABC006312CE5120709F027
:1016A00040C0809109038A7A91E009F490E0909318
:1016B000CE01882311F065E301C069E28EE992E072
:1016C0000E94D2260EC006313CE5130769F48091D2
:1016D000CE01882309F4C0C365E38EE992E00E943D
:1016E000C5260E94C21E83C08091090382720B3CF2
:1016F000ECE51E0709F42DC408F06FC0063C2CE58C
:10170000120709F412C408F0A9C3043C9CE51907A8
:1017100009F401C408F004C4033CFCE51F0709F404
:10172000D0C3F7018281882309F480C00B35FDE521
:101730001F0709F44CC058F401153CE51307C1F02C
:101740000F3D1C4509F072C00E94511E50C00C355F
:101750009DE5190709F43DC00D351D4509F066C02A
:101760008091D00182FB882780F991E0892732C0DF
:101770000E94AF22FFEF04E31CE0F1500040104054
:10178000E1F700C0000081E08093E00080E28093F8
:10179000D8001092C9008FE19EE40197F1F700C0D4
:1017A000000087E090EBDC0180939F079093A007F7
:1017B000A093A107B093A2079CE088E10FB6F8942C
:1017C000A895809360000FBE90936000FFCF81E0EA
:1017D00001C080E00E940C1F29C0013DFCE51F07ED
:1017E00008F05EC30F3C2CE5120708F44DC380914E
:1017F0000603877009F4BEC3F7018281882309F4C8
:10180000B9C382E067960FB6F894DEBF0FBECDBFB6
:10181000DF91CF911F910F91FF90EF90DF90CF90CC
:10182000BF90AF909F908F900C946722F7018281B8
:1018300000811181882349F0C8010E949C1FD82E85
:10184000682FC8010E940D2204C0C8010E94E12136
:10185000D82EE12FF0E018E0D19EE00DF11D11240B
:1018600033E0EE0FFF1F3A95E1F7E00FF11DEE0FA9
:10187000FF1FE151FA4F859194910E94611A8C01EA
:10188000982EF701D280A580A2945FE0A5228091D6
:101890000603877099F0DD2089F0812F807F8034E6
:1018A00021F080E2800F883048F082E00E946722B9
:1018B000809106038770CC24C3948111C12CB12E72
:1018C000B2942FE0B2228B2D90E08C30910508F07D
:1018D00084C2FC01EA5AFF4F0C941937812F807F94
:1018E0001F70882311F01295107FDD20B9F01123AD
:1018F00009F45EC280E2800F883010F0911006C0BB
:1019000080910903182B1093090305C080910803E7
:10191000182B109308030E94C21E4AC2802F0E94F7
:10192000B42F112309F459C2005E1095083010F04D
:10193000911006C08091090318231093090305C074
:10194000809108031823109308030E94C21E45C209
:10195000812F807F1F70803211F01295107F9920A7
:1019600021F0F1E09F1601F12EC0DD20A1F0809161
:101970000A03AA2071F001E0A0120BC0182B90916D
:10198000D00192FD2AC2181709F427C210930A0346
:1019900024C2812B10C0AA2021F021E0A21609F454
:1019A0001CC20E94BC1E27C0DD2041F035E03A1564
:1019B00008F413C2812F0E94C5220FC284E08A1549
:1019C00008F40BC218C0DD2049F0AA2099F3F701F2
:1019D000858180FFEDC18F708583ECCFAA2059F0FF
:1019E000093309F0F7C1FFEF17EE23E0F150104083
:1019F0002040E1F7EDC1812F0E94BA22EEC1812F74
:101A000086958695837019F0813059F0E6C1DD2006
:101A100019F0C801937002C080E090E00E94022794
:101A2000E2C1DD2019F0C801937002C080E090E0AF
:101A30000E94EC26D8C1802FDD2019F00E94E12AF7
:101A400002C00E94282A8FE0800F8830C0F5082F3E
:101A500081E090E09C0101C0220F0A95EAF786E040
:101A6000EFE3F2E0DE01179601900D928A95E1F71F
:101A700086E0FE013796DE011D9601900D928A9553
:101A8000E1F79885DD2019F0892F822B03C0822F82
:101A9000809589238E8796E0FE013D96DE011196A2
:101AA00001900D929A95E1F78A8386E0FE013196C6
:101AB000AFE3B2E001900D928A95E1F794C10E94E4
:101AC0003C2B91C1812F837009F069C0D11089C16D
:101AD000902F929596959770990F990F802F8F70F0
:101AE000882E912CA12CB12C092E04C0880C991C95
:101AF000AA1CBB1C0A94D2F704FF12C04FE050E0AE
:101B000060E070E004C0440F551F661F771F9A9570
:101B1000D2F7DB01CA0180959095A095B09503C0DE
:101B200080E090E0DC0116951695412F437042301D
:101B300019F1C8F40091ED011091EE012091EF012F
:101B40003091F001413059F088299929AA29BB29FF
:101B5000BC01CD0160237123822393230AC0802A14
:101B6000912AA22AB32ABC01CD01682979298A29A0
:101B70009B290E94A52235C188299929AA29BB2918
:101B80000091ED011091EE012091EF013091F001F3
:101B9000BC01CD016027712782279327EACFDD2082
:101BA00019F0812F817001C08695882309F419C12D
:101BB000902F929596959770990F990F802F8F700F
:101BC000882E912CA12CB12C092E04C0880C991CB4
:101BD000AA1CBB1C0A94D2F704FF12C04FE050E0CD
:101BE00060E070E004C0440F551F661F771F9A9590
:101BF000D2F7DB01CA0180959095A095B09503C0FE
:101C000080E090E0DC0116951695412F437042303C
:101C1000D9F068F50091F1011091F2012091F301E2
:101C20003091F401413059F088299929AA29BB291A
:101C3000BC01CD0160237123822393231EC0802A1F
:101C4000912AA22AB32A13C088299929AA29BB2933
:101C50000091F1011091F2012091F3013091F40112
:101C6000BC01CD01602771278227932706C0BC01E4
:101C7000CD01682979298A299B290E943822B1C07F
:101C80001F70DD2039F0812F0E948422802F0E9456
:101C9000C522A7C0802F0E94BA22812F0E94422213
:101CA000A0C0802F32EF931609F440C0391538F0E8
:101CB00090EF991661F0E1EF9E1699F174C0F3EF81
:101CC0009F16D9F124EF921609F44EC06CC0DD20A6
:101CD00019F134E03A1508F480C01F7181E090E0FA
:101CE000A0E0B0E0AC01BD0104C0440F551F661F69
:101CF000771F1A95D2F78091F1019091F201A0918E
:101D0000F301B091F4018A019B01082719272A27C2
:101D10003B27C901B80125C025E02A1508F45DC09C
:101D2000DCCFDD2029F0812F8F7130C0DD20D9F389
:101D3000812F8F710E94422250C0DD2079F01F71E7
:101D400081E090E0A0E0B0E0BC01CD0104C0660FEE
:101D5000771F881F991F1A95D2F703C060E070E0C3
:101D6000CB010E94382239C0DD2099F01F71812FEC
:101D70000E9484228091D00182FD07C038E0139F29
:101D8000C0011124836080930603812F0E94842266
:101D900024C081E00E94672281E08A15F0F482E08D
:101DA0000E9467221AC0DD2039F0AA2009F4BBCFB7
:101DB000802F0E941B3011C0AA2009F4B9CF8933AB
:101DC00049F49FEFE7EEF3E09150E040F040E1F797
:101DD00000C00000802F0E94B42F88EF8B0D84304C
:101DE00010F40E942627CC20A9F08091060380FDE4
:101DF00011C0F70112828595859585950E948422F0
:101E0000C7010E94F6088091060385958595859502
:101E10000E94422285E0F701DE011D9601900D929D
:101E20008A95E1F78D859E850E94E121EE85F0E09F
:101E300008E0809FE00DF11D112483E0EE0FFF1FED
:101E40008A95E1F78D85E80FF11DEE0FFF1FE15137
:101E5000FA4F859194918EC069E23FCC083C2CE505
:101E6000120709F46CC008F465C0093C9CE5190729
:101E700009F46AC00A3CECE51E0709F052CC46EEB4
:101E800059E262EF79E26EC00D3C3CE5130709F4BC
:101E900065C008F06AC040EA58E261EB78E262C0CF
:101EA000073DECE51E0738F4023D1C4508F09FCCC9
:101EB0000E94872C9CCC0E352DE5120709F497CC97
:101EC00030CC80918F0380FF20C08E7F80938F0362
:101ED00060918F0370919003809191039091920390
:101EE0000E948E280E94062880910D0381608093B5
:101EF0000D033FEF80E792E0315080409040E1F7E2
:101F000000C000000E94282872CC816080938F035B
:101F100061E086952CC04AE95BE263EA7BE222C07D
:101F200043EA5BE26AE97BE21DC046E15AE26FE107
:101F30007AE218C04FE15AE266E17AE213C04EEF4E
:101F400059E26AE07AE20EC04AE05AE26EEF79E2C4
:101F500009C042EF59E266EE79E204C041EB58E273
:101F600060EA78E20E94002842CC61E081E00E94B1
:101F70005A2B3DCC67960FB6F894DEBF0FBECDBF8F
:101F8000DF91CF911F910F91FF90EF90DF90CF9055
:101F9000BF90AF909F908F900895CF93DF93CDB770
:101FA000DEB7A4970FB6F894DEBF0FBECDBF84B7DF
:101FB000877F84BF0FB6F894A895809160008861F0
:101FC00080936000109260000FBE90E080E80FB632
:101FD000F89480936100909361000FBE85B780688C
:101FE00085BF85B7806885BF8DE397E19093CD016C
:101FF0008093CC010E94F1230E9497248091E200FB
:1020000084608093E2007894809185038823A1F016
:102010001091E9001F709091EC00892F817090FD64
:1020200080E8182B1092E9008091E80083FD0E945F
:10203000EB2C1F701093E90082E084BD93E095BD06
:102040009AEF97BD80936E001092590310925A0335
:1020500010925B0310925C030E94271A8093000188
:1020600080910001882321F010925A018AE003C078
:102070008AE080935A0180935B010E94271A8111A4
:102080000E94C1328091000180910001811102C043
:1020900094E001C090E09093DA0184E0891B809382
:1020A000D90101E611E0B5E6EB2EB1E0FB2ED80137
:1020B0008D918D018F3F11F00E944A1AE016F106B2
:1020C000B1F709E611E0A1E7EA2EA1E0FA2EF80146
:1020D00081918F018F3F11F00E944A1AE016F1069C
:1020E000B1F7E1EDF1E089ED91E0ADEDB1E01192F4
:1020F0001D928E179F07D9F780E090E00E94B134BF
:10210000893E9E4F11F00E94511E82E090E00E9495
:10211000A33480935A020E94401E9093D001809372
:10212000CF0183E090E00E94A334682F70E080E04C
:1021300090E00E94A5220E94271A811102C00E94ED
:10214000C43282E08093350280E8809394030E9439
:10215000BF306DE070E085E191E00E94962C892B04
:1021600009F043C08091350263E070E081FD3AC020
:1021700082E191E00E94962C892BB9F56DE070E028
:1021800082E091E00E94962C892B79F50E946026CE
:10219000DC01CB01805A9541AF4FBF4F80934A037A
:1021A00090934B03A0934C03B0934D03E7E9F3E006
:1021B00080E094E0DF018C011D9201501040E1F7B6
:1021C000F0939E07E0939D078FEF9FEF9093960308
:1021D0008093950381E080934F0380934E03109288
:1021E000360203C08FE091E0C5CF8091DB01811101
:1021F0003BC080E090E00E94B134893E9E4F21F0C8
:102200000E94511E0E94C22888E090E00E94AB34D8
:1022100060938F0370939003809391039093920344
:1022200080910D03836080930D036E7F71F40E9493
:10223000C22888E090E00E94AB3460938F037093D3
:10224000900380939103909392030E9474280E94BC
:10225000062880918F0380FF04C060E086950E946D
:102260005A2B81E08093DB0180910001811106C02F
:1022700085E380930C0186E680930B0120910C018D
:10228000E22FE295EF70F0E031A12F7081E090E055
:10229000AC01022E01C0440F0A94EAF7542F509566
:1022A000352331A332A1432B42A340910B01A42F2C
:1022B000A295AF70B0E091963C9191974F70042E2B
:1022C00001C0880F0A94EAF7982F9095932391966E
:1022D0009C93919792969C919297892B92968C932E
:1022E000929780A190E002C0959587952A95E2F794
:1022F000817090962C9130E002C0359527954A95D3
:10230000E2F720FD02C090E001C092E0892B8093AB
:10231000EC019091000181E098279093EB01891BDB
:102320008093DC010E94BF3040E060E080E00E94CA
:10233000592C4FEF60E08FEF0E94592C81E091E023
:102340009093560380935503E0E4CE2E8824839423
:10235000912C80918503853009F044C000E112E1A1
:1023600080918503853009F039C0809185038430E0
:1023700019F110925D0328E130E00FB6F894A895AA
:10238000209360000FBEC092600083B7817F84609D
:1023900083BF83B7816083BF7894889583B78E7F2E
:1023A00083BF0FB6F894A8958091600088618093F0
:1023B0006000109260000FBE80918403882309F4AE
:1023C000CFCF0E94FB1BEDEDF1E08191811135C56E
:1023D00065EE71E06E177F07C1F7C2CF0E94AF2292
:1023E0000E9426270E94FB1BB82E81110E946026A6
:1023F000ABE5B2E0EDEDF1E000E010E0A02ED19011
:102400008D918D2549F1E12CFF24F394982F9F2184
:10241000F1F00E94271A882399F0E98EAA8EDF2016
:1024200081E009F480E08B8F0E946C268160782F18
:102430009D8F8C8F498D5A8D6B8D8D8D0E94F907E4
:10244000F801E55AFD4F8081F826F0821AC0E39426
:10245000FF0C78E0E712DACF0F5F1F4F083011054D
:1024600069F68FEF8E8F8F8F18A20E946C26816085
:10247000782F9AA389A34E8D5F8D68A18AA10E94AF
:10248000F90780910C03882309F46BC080910B033A
:10249000E0918F03E695E81BE0937503823061F4C9
:1024A000E695F0E0EE5DFE4FE4910E2F10E07FE642
:1024B000E72E73E2F72E06C000ED17E060EFE62E80
:1024C00062E2F62E80917603882361F01092760303
:1024D0000E94BC2690937403809373031092780338
:1024E000109277030E94BC26E0917303F09174036D
:1024F0009C012E1B3F0B2F3F3F4798F52091E70192
:102500002223B1F01092E7012091E5013091E6011C
:10251000821B930B8F3F9F4758F4205D3A483093BE
:10252000E6012093E50180910D03886080930D03FF
:1025300060907703709078030E0F1F1F1093740341
:102540000093730383E793E0F70109958091770384
:1025500090917803892B29F4672819F081E0809302
:10256000E701E091EC015E2F550F550F20910C0112
:10257000E22FE295EF70F0E080A190E02F7002C0B2
:10258000959587952A95E2F78170992740910B01DF
:10259000E42FE295EF70F0E020A130E04F7002C030
:1025A000359527954A95E2F7F901E170FF2720FF5D
:1025B00002C0E2E0F0E0E82BF92BE52BE093EC0120
:1025C0001091EB01EF70F0E0EF58FE4F9081809199
:1025D000EA01890F8093EA01843074F0E12FF0E082
:1025E000E851FE4F80818F5F808360E0812F0E94E1
:1025F000A108DD24D39401C0D12C8091EA018D3F44
:102600006CF4E12FF0E0E851FE4F8081815080832F
:1026100061E0812F0E94A108DD24D3948091EA011A
:10262000082E000C990B64E070E00E94E63680935F
:10263000EA01D1100E943E1E80914F03882309F4C5
:1026400005C280913702909138020E945126C297AC
:1026500008F4FBC00E946C269093380280933702E6
:1026600087E993E090939E0780939D070E94271A25
:10267000882309F4ABC08FEA95E00E94792C80EAA8
:1026800095E00E94792C88E995E00E94792C409190
:10269000F1015091F2016091F3017091F401809188
:1026A000ED019091EE01A091EF01B091F001842B2A
:1026B000952BA62BB72BAD01662777274115510522
:1026C0006105710521F0DB01CA01E0E101C0E0E034
:1026D000492F5A2F6B2F7727411551056105710539
:1026E00019F0E85FDB01CA01AC01BD0134E0769569
:1026F0006795579547953A95D1F74115510561056D
:10270000710519F0EC5FDB01CA01AC01BD0122E0EB
:1027100076956795579547952A95D1F741155105B7
:102720006105710519F0EE5FDB01CA01B695A79549
:1027300097958795892B8A2B8B2B09F0EF5F8E2F2E
:1027400090E087309105D0F4FC01EE59FF4F0C94D6
:10275000193780E995E014C088E895E011C08CE74E
:1027600095E00EC087E795E00BC082E795E008C0D2
:1027700088E695E005C080E695E002C085E595E035
:102780000E94792C0E94262781FB002700F982FBFA
:10279000112710F980FD03C085E495E002C08DE4A7
:1027A00095E00E94792C011103C085E395E002C0F9
:1027B0008DE395E00E94792C111103C085E295E02C
:1027C00002C08DE295E00E94792C3FC080919D0768
:1027D00090919E07875993409C013C5F2130344083
:1027E00028F020E034E0281B390B02C020E034E060
:1027F0006091950370919603DC01A956BC4FAC0122
:10280000280F391F42175307E0F4FA01E81BF90BB0
:10281000EB5DFE4FE491FC91EF1779F0EC93FA0138
:1028200016E0F695E7951A95E1F7840102C0000FCE
:10283000111FEA95E2F7602B712B4F5F5F4F1196E6
:10284000E1CF709396036093950380914F038823A3
:1028500009F4E1C0209195033091960321153105CB
:1028600009F4D9C0809136028111D5C0282E312CAF
:102870007401082E02C0EE0CFF1C0A94E2F7A901B5
:102880004E215F21452B11F48F5FF0CF90913502DF
:10289000910166E0220F331F6A95E1F790FD13C0A6
:1028A0008295880F880F807480930F01220F232F49
:1028B000221F330B319520931201815C809310010C
:1028C0001092130112C046E0369527954A95E1F71C
:1028D000220F220F220F20930F0110921201295F65
:1028E0002093100187E08093130124E630E047E055
:1028F00050E06DE071E088E70E94C031892B09F05B
:102900008AC08091350280FD23C0C10126E0880F76
:10291000991F2A95E1F7AC0149565C4F04E610E097
:1029200020E430E060E488E70E94E731892B09F079
:1029300072C00E94C327E094F09480919503909117
:102940009603E822F922F0929603E092950363C081
:10295000E5EFF1E0DF010C2D1D920A95E9F786E025
:10296000220C331C8A95E1F729E831E03CA32BA324
:1029700041E851E0ABA1BCA18D91BCA3ABA3FA018E
:102980009191AF019101290F311D890109561C4F09
:10299000280190E08B509E4FFC0107E09F01281B0F
:1029A000390B782C01C0770C2A95EAF7B201A12CDB
:1029B000DB011D91BD011721202F2A192770622EDE
:1029C000022E000C330BB12F01C0BB0F6A94EAF743
:1029D0006B2E3195219531092770332701C016954B
:1029E0002A95EAF7612A1081612A6082A39418E08F
:1029F000A112DECF015031960F3F81F62BA13CA1F1
:102A00002159314009F0B6CF04E610E020E430E06F
:102A100045EF51E087CF80914E038823B9F00E94A3
:102A2000602600914A0310914B0320914C03309192
:102A30004D03DC01CB01801B910BA20BB30B8F3F2D
:102A40009F4FAF4FBF4710F40E94A927B11001C09C
:102A5000D1100E94C32786E0EDE6F3E0DE01539635
:102A600001900D928A95E1F7F0906F03E09070036A
:102A7000109171030091720310926F031092700312
:102A80001092710310927203F11003C0EE2009F44A
:102A900051C080916B0390916C030E9451269C0160
:102AA00090916703992309F4DEC12333310508F4BB
:102AB00041C09F3F19F09F5F90936703FF2061F033
:102AC0000E94C12A1F1414F09FEF01C091E0899F5A
:102AD000802D112480936F03EE2061F00E94C12AA3
:102AE0001E1414F09FEF01C091E0899F802D1124E6
:102AF0008093700330916F033323E1F020917003D2
:102B00002223C1F045EB3403C0011124992319F0AD
:102B100090936F0303C081E080936F0365EB2603FE
:102B2000C0011124992319F09093700303C081E030
:102B300080937003111103C0002309F451C08091E8
:102B4000690390916A030E9451269C01909166034B
:102B5000992309F48DC12536310508F441C09F3F02
:102B600019F09F5F90936603112361F00E949F2AE2
:102B7000111614F09FEF01C091E0899F802D112460
:102B800080937103002361F00E949F2A101614F0B5
:102B90009FEF01C091E0899F802D112480937203E3
:102BA000309171033323E1F0209172032223C1F0AD
:102BB00075EB3703C0011124992319F09093710329
:102BC00003C081E08093710335EB2303C00111241E
:102BD000992319F09093720303C081E080937203EC
:102BE00080916F0381110BC080917003811107C028
:102BF00080917103811103C08091720381110E9441
:102C00003C2BFD8AEE8A1F8B088F86E0FE017396AF
:102C1000ADE6B3E001900D928A95E1F780915802FC
:102C20008A3008F0FEC080915602909157020E94AF
:102C30005126089708F4F5C004E610E025E030E0DE
:102C400041E552E064E084E10E941432892B09F0EE
:102C500089C01092580280915102882311F040E0FF
:102C600014C080915202882319F040E06FEF06C033
:102C700080915302882321F04FEF60E080E007C08D
:102C800080915402882329F04FEF60E08FEF0E947B
:102C9000592C86E0EFE3F2E0DE01179601900D92E9
:102CA0008A95E1F786E0FE013796DE011D960190D8
:102CB0000D928A95E1F786E0FE013D96ABE4B2E025
:102CC00001900D928A95E1F79091550280914C0206
:102CD00097FD3EC08E7F80934C0280914902909177
:102CE0004A02009799F545E06091510280915202A5
:102CF0000E94DF082091470230914802820F931F03
:102D0000909348028093470245E06091530280917E
:102D100054020E94DF082091450230914602820F42
:102D2000931F909346028093450267E472E08DE41E
:102D300092E00E94C00865E472E08EE492E00E9496
:102D4000C0081092500210924F0211C0019705C0A6
:102D5000816080934C0284E190E090934A028093DA
:102D6000490205C0809158028F5F8093580286E027
:102D7000EBE4F2E0DE01119601900D928A95E1F705
:102D800086E0FE013196AFE3B2E001900D928A95A4
:102D9000E1F73091410220914202909143028091EB
:102DA000440270913B0260913C0240913D0250917F
:102DB0003E02F0914002E0913A02FE1312C033232A
:102DC00011F073130EC0222311F062130AC088237E
:102DD00011F0581306C0992331F081E0491304C063
:102DE00002C081E001C080E080FF04C08FE392E078
:102DF0000E94182710924102109242021092430240
:102E00001092440286E0EFE3F2E0A9E3B2E0019021
:102E10000D928A95E1F70E946C2690935702809359
:102E200056020E94262790915902891709F491CAE7
:102E30000E942627809359028CCA09BD19BD09B486
:102E400000FEFDCF8091D8008F7D8093D8008091C7
:102E5000E00082608093E0008091E00081FDFCCF83
:102E60000E94AF227DCA2D32314008F024CE62CEBE
:102E70002D32314008F075CEB3CE80E008959091A8
:102E8000CF0192FF0DC0282F2871283019F4877FB9
:102E9000846006C0282F2471243011F48B7F886051
:102EA00093FF0DC0282F2871283119F4877E846183
:102EB00006C0282F2471243111F48B7E8861209163
:102EC000D00120FF0DC0382F3871383019F4877FBA
:102ED000816006C0382F3171313011F48E7F8860E7
:102EE00021FF0DC0282F2871283119F4877E8161B8
:102EF00006C0282F2171213111F48E7E886194FD46
:102F0000877E0895AF92BF92CF92DF92EF92FF92A9
:102F10000F931F93CF93DF937C015B016A01809134
:102F20009D028A3018F001E010E002C00AE010E0D3
:102F3000C1E0D0E0F894B501C701F6010995789495
:102F4000811115C021960C171D0794F0CC9F90019C
:102F5000CD9F300D300D112480E090E045E34A957F
:102F6000F1F70000019682179307C1F7E3CF81E0E4
:102F7000DF91CF911F910F91FF90EF90DF90CF9055
:102F8000BF90AF900895CF93DF9300D000D0CDB71E
:102F9000DEB740919102509192026091930270913C
:102FA00094022FB7F89480915E0390915F03A091F3
:102FB0006003B09161032FBF841B950BA60BB70B69
:102FC00084369105A105B10580F10E94A126DC019E
:102FD000CB010296A11DB11D89839A83AB83BC836B
:102FE00080913F019091400183589D4F40913E0157
:102FF00050E04530510510F044E050E0BE016F5FF5
:103000007F4F0E945B3784E090E00E94CE33892B93
:1030100011F080E00BC00E946026609391027093D3
:103020009202809393029093940281E00F900F900C
:103030000F900F90DF91CF9108958F929F92AF9252
:10304000BF92CF92DF92EF92FF920F931F93CF9395
:10305000DF93FB0180809180A280B3809FB7F894BA
:10306000C0905E03D0905F03E0906003F090610336
:103070009FBFC818D908EA08FB08F4E6CF16D104A8
:10308000E104F10410F4442351F17B01C82F880FAF
:10309000DD0B01151105A9F08AE08C9FF0018D9FD1
:1030A000F00D1124EC5EFE4F8381948183589D4F77
:1030B000428150E00417150708F4A801B9010E94E5
:1030C0005B37CE010E94CE33892B11F080E008C01F
:1030D0000E946026F701608371838283938381E07D
:1030E000DF91CF911F910F91FF90EF90DF90CF90E4
:1030F000BF90AF909F908F9008950F931F93CF93A1
:10310000DF931F92CDB7DEB780914E038983209164
:10311000900230E090E041E02817390709F440E0E0
:1031200001E010E09E012F5F3F4F69E972E086E009
:103130000E941D180F90DF91CF911F910F9108955C
:103140000F931F93CF93DF93CDB7DEB728970FB6BA
:10315000F894DEBF0FBECDBF85E0EFE8F3E0DE01FF
:10316000119601900D928A95E1F780910B03909151
:103170000C03A0910D038E839F83A88741E088856F
:10318000811101C040E008E010E09E012F5F3F4F39
:1031900065E972E085E00E941D18811110920D030F
:1031A00028960FB6F894DEBF0FBECDBFDF91CF914A
:1031B0001F910F9108957F928F929F92AF92BF922D
:1031C000CF92DF92EF92FF920F931F93CF93DF93F3
:1031D0001F92CDB7DEB7762E4A0159016801082F3C
:1031E000880F110BC8010E94CE33892B09F07EC0D5
:1031F0008AE0809FF001819FF00D1124EC5EFE4F6C
:10320000458150E04115510511F041E050E08AE060
:10321000809FF001819FF00D1124EC5EFE4F6681CE
:10322000778163587D4FCE0101960E945B37F40190
:1032300040815181628173812FB7F89480915E0340
:1032400090915F03A0916003B09161032FBF841B35
:10325000950BA60BB70B84369105A105B10540F47B
:10326000B701C6010E94E9279981891709F440C076
:10327000072D770C110BC8010E94CE33892B09F55D
:10328000E114F10401F18AE0809FF001819FF00DCB
:103290001124EC5EFE4F458150E0E416F50608F47B
:1032A000A7018AE0809FF001819FF00D1124EC5E60
:1032B000FE4F6681778163587D4FC5010E945B3761
:1032C00002C010E001C011E0B701C6010E94E92769
:1032D00091E02981281390E0192381F00E94602653
:1032E000F401608371838283938308C010E001C07E
:1032F00011E0A701B601C5010E945B37812F0F9035
:10330000DF91CF911F910F91FF90EF90DF90CF90C1
:10331000BF90AF909F908F907F900895CF92DF9253
:10332000EF92FF920F931F93CF93DF931F92CDB72E
:10333000DEB7EE24E394F12C03E812E09E012F5F48
:103340003F4F49E752E063E082E00E94DB18C82E5D
:10335000882379F1D090DC018D2D90E09C012851DB
:103360003E4F79011981F9018081181B012F80E0FE
:1033700010165CF40150F70180818F5F808360E05C
:103380008D2D0E94A10881E0F3CF912F17FD90E0D1
:10339000191B112359F01F5FF70180818150808331
:1033A00061E08D2D0E94A10881E0F3CF81110E9480
:1033B0003E1E8C2D0F90DF91CF911F910F91FF90AA
:1033C000EF90DF90CF900895CF92DF92EF92FF922F
:1033D0000F931F93CF93DF9300D000D0CDB7DEB70C
:1033E0006B0184E0E82EF12C0EE712E09E012F5FC6
:1033F0003F4F45E752E061E080E00E94DB18882300
:1034000061F049815A816B817C81409371025093B4
:103410007202609373027093740240917102509132
:1034200072026091730270917402F60140835183BD
:10343000628373830F900F900F900F90DF91CF9165
:103440001F910F91FF90EF90DF90CF9008958091A2
:103450007002811118C08091D80080618093D800DB
:103460008AE18A95F1F700C08091D90080FD02C001
:1034700082E001C081E080937002823021F40E94DA
:10348000F1231092850381E090917002913009F050
:1034900080E00895F894E82FE295EF70F0E031A114
:1034A000282F2F7081E090E001C0880F2A95EAF75D
:1034B000982F9095932391A392A1892B82A378941E
:1034C0000895CF93DF938238910569F1B0F4813389
:1034D000910509F46FC048F48932910509F465C07B
:1034E0008A32910509F46BC08AC08533910509F4CD
:1034F00057C089339105B9F082C0833E910571F1BF
:1035000038F4803E9105B1F0823E910511F177C00B
:10351000863E9105B9F1873E9105C9F1843E91053A
:1035200009F06DC024C02091CF0120FD53C021FDC2
:1035300051C065C08091CF0180FD46C08091D0010F
:1035400080FF48C08091CF0184FD50C183EE90E0A0
:103550004FC18091CF0182FF3AC0F4CF8091CF015B
:1035600082FD35C08091D00180FD34C0EBCF8091C9
:10357000D00181FF35C08091CF0184FD37C187EE36
:1035800090E036C18091CF0183FF27C0F4CF8091B6
:10359000CF0183FD22C08091D00181FD21C0EBCFFE
:1035A0008091CF0185FD1FC021C08091CF0185FD95
:1035B0001DC019C08091CF0186FD1BC01DC0809128
:1035C000CF0186FD19C015C089E390E011C182EEDC
:1035D00090E00EC180EE90E00BC186EE90E008C155
:1035E00084EE90E005C189E290E002C185E390E0BD
:1035F000FFC08AE290E0FCC081E390E0F9C0811551
:1036000031E5930708F069C0811540E59407F0F0B3
:103610009C0174E0369527957A95E1F7922F937087
:10362000482F437021E030E002C0220F331F4A953B
:10363000E2F73C68392B982F9F709695969540E25B
:10364000949FC0011124822B932BD2C0883E9105F8
:1036500068F5803E910508F0CBC0883A9105B8F432
:10366000853A910548F0855AE82FF0E0EF56FE4F75
:10367000808190E09064BCC08130910509F4B3C0B2
:1036800008F4B4C08430910508F4B0C0B1C08F3BD9
:10369000910508F0ABC0885AE82FF0E0EE0FFF1F4D
:1036A000EC56FE4F808191819464A2C0811520E286
:1036B000920758F4811531E0930708F099C08D3EC8
:1036C000910508F493C0906593C0811540E4940778
:1036D00008F48CC09F70906A8BC0811525E5920715
:1036E00008F042C0811534E5930728F0982F882709
:1036F000846F906A7DC0811543E59407B0F09C010A
:103700002370332741E050E002C0440F551F2A9533
:10371000E2F7282F2695269580E2289F9001112414
:10372000CA01822B932B9A6863C0811522E5920708
:1037300028F4982F8827816F906A5AC09C012370C3
:10374000332741E050E002C0440F551F2A95E2F7AD
:10375000282F2695269580E2289F90011124CA01E2
:10376000822B932B9C6844C0EC01811539E59307AB
:10377000A8F48115984528F09C2F8827806F906ABF
:1037800037C0C11586E5D80788F58C2F0E943F17F2
:103790008F7190E0982F882790622AC081152AE5C2
:1037A000920790F48C2F8F700E943F1794E0D6956B
:1037B000C7959A95E1F7CF70D0E0DC2FCC27D06980
:1037C0009E01282BC90114C090568115904270F4B7
:1037D0008D2F8F710E943F17282F2F71CE019927AF
:1037E0009062922B05C081E090E002C080E090E002
:1037F000DF91CF9108958F929F92AF92BF92CF9217
:10380000DF92EF92FF920F931F93CF93DF93CDB789
:10381000DEB72C970FB6F894DEBF0FBECDBF9E016A
:103820002F5F3F4F790188E0F90111928A95E9F7FE
:1038300001E611E06901AA24A394B12CF80180816A
:103840008F3F09F447C0F894E82FE295EF70F0E05D
:1038500021A18F70A50102C0440F551F8A95E2F780
:10386000CA01922F982B91A392A18095892382A3BC
:10387000789400C0E9E6F1E020E030E0912C41913D
:103880004F3FB1F0A42FA295AF70B0E090968C910D
:1038900090E04F7002C0959587954A95E2F780FDBC
:1038A00007C08A2D022E01C0880F0A94EAF701C0D2
:1038B00080E0982A2F5F3F4F2830310501F7F8014B
:1038C00080818F3F11F00E944A1AF0EAFA95F1F7D1
:1038D000F60190820F5F1F4FFFEFCF1ADF0A21E042
:1038E0000536120709F0AACF48E050E0B70181ED94
:1038F00091E00E944E378C01892B41F088E0F7015E
:10390000A1EDB1E001900D928A95E1F7F090DA0116
:103910000115110549F081E0809366020E946C2632
:103920009093650280936402809166028823B1F0CF
:1039300080916402909165020E945126059770F073
:10394000A1EDB1E0EF2DF0E0E352FE4F8D918193B8
:1039500031E0A53DB307D1F71092660201151105BC
:1039600009F060C10E94271AE091DA01882309F466
:10397000A3C019861A861B861C860E2F10E00352E0
:103980001E4F80919D02AE01435F5F4F7A018A30E6
:1039900058F444EE59E1BE01675F7F4FC8010E94B1
:1039A0008217882399F10AC080916702909168027A
:1039B0000E945126843F914060F73AC04EE859E199
:1039C000BE01675F7F4FC8010E9482178823F1F014
:1039D00043EC57E1BE01675F7F4FC8010E94821729
:1039E0008823A1F040EA58E1BE01675F7F4FC8011C
:1039F0000E948217882351F04DE758E1BE01675FAE
:103A00007F4FC8010E94821781110FC180919D02D2
:103A10008F3F19F08F5F80939D0280919D028A30C5
:103A200008F405C10E946C26909368028093670297
:103A3000E091D901F0E0E352FE4FDE0119961192B8
:103A40001D92EA16FB06D9F701E080916A02909177
:103A50006B020E945126893E934008F4FBC060919E
:103A60006902E62EF12C662777276E197F09072E4B
:103A7000000C880B990B0E94A03527EA39E747E430
:103A80005DE30E946D364B015C01B701FF0C880BB2
:103A9000990B0E94A0359B01AC01C501B4010E94A5
:103AA000EC340E946F35609369020E946C269093FB
:103AB0006B0280936A02CEC0F0E0E352FE4FF894AE
:103AC00084E0AEE7B2E001900D928A95E1F764E000
:103AD00070E08EE792E00E94E92780937D0278945F
:103AE000F894E091EB01F0E0E851FE4F8081898786
:103AF0008093830261E070E0CE0109960E94E9277D
:103B0000809382027894F894C0908402D0908502C9
:103B1000E0908602F090870280916C0290916D0295
:103B2000A0916E02B0916F02C816D906EA06FB0694
:103B3000E1F0C0926C02D0926D02E0926E02F092BF
:103B40006F020E94271A811110C00E946026A701EF
:103B50009601261B370B480B590B209359033093C2
:103B60005A0340935B0350935C037894F8948091DC
:103B70008F02882309F449C080FF24C090918802F5
:103B800080918F0390FF09C0816080938F0360E074
:103B9000892F86950E945A2B15C08E7F80938F03A4
:103BA0000E94062880910D03816080930D033FEFF2
:103BB00040E752E0315040405040E1F700C0000083
:103BC0000E94282880918F0281FF09C020E0409147
:103BD0008B0260918A02809189020E9470298091F3
:103BE0008F0282FF09C080918E02882319F00E9403
:103BF0000D2802C00E94062880918F0283FF03C017
:103C000081E08093760310928F027894F8948091EB
:103C10009002882319F00E94C32702C00E94A9279E
:103C2000789418C001E010E015C010929D02E09158
:103C3000D901F0E0E352FE4FDE01199600E08D91CC
:103C40009081981711F0808301E03196EA16FB0607
:103C5000B1F7FBCE802F2C960FB6F894DEBF0FBEC7
:103C6000CDBFDF91CF911F910F91FF90EF90DF902B
:103C7000CF90BF90AF909F908F9008950C94602646
:103C8000CF9384E090E00E94A334C82F82E290E0BA
:103C90000E94A3342C2F30E0A901582BCA01CF91E8
:103CA000089569EE7EEF80E090E00E94D53460E0F8
:103CB00082E090E00E94B73460E083E090E00E94F0
:103CC000B7341092ED011092EE011092EF011092B4
:103CD000F00160E084E090E00E94B73460E082E2AE
:103CE00090E00E94B73460E085E090E00E94B73435
:103CF00060E086E090E00E94B7346FEF87E090E0EC
:103D00000E94B73440E050E0BA0188E090E00E94A1
:103D1000C93460E08DE090E00E94B73440E050E0AC
:103D2000BA0188E190E00E94C93460E087E190E048
:103D30000E94B73440E050E0BA018CE190E00E946C
:103D4000C93460E070E080E290E00E94D53440E049
:103D500050E0BA0188E190E00E94C93440E050E0B0
:103D6000BA018FE090E00E94C93440E050E0BA010F
:103D700083E190E00C94C93480910A038111109280
:103D80000A0308959091090380910803892B2091DB
:103D90000703982F922B90939E0280910A03882309
:103DA00089F0892B80939E02E0EAF2E097E080E0C0
:103DB000915029F021912223D9F38F5FF9CF8111FE
:103DC0000E94BC1EE0915503F0915603309731F0EC
:103DD0000280F381E02D8EE992E00994089580E05D
:103DE00090E00E94022780E090E00E94EC26109272
:103DF0000803109207030E94C21EEDE6F3E086E07E
:103E0000DF011D928A95E9F710926703109266030D
:103E1000109268030C943C2BCF93C091D001C2FB4D
:103E2000992790F9981781F080FBC2F9C093D001CF
:103E30006091CF0184E090E00E94B7346C2F82E261
:103E400090E0CF910C94B734CF9108958091050301
:103E50009091D402891719F08F5F8770FBCF089576
:103E60000F931F93CF93DF938091D30282958F702E
:103E700009F05DC08091D002882309F458C0809178
:103E800005031091D4026091CE027091CF02C091CF
:103E9000D102D091D20291E06F3F09F090E0292F3A
:103EA00006E0811709F443C0209721F07F3F21F0FD
:103EB00030E003C031E001C0322F90E030FD34C06B
:103EC000089FF001099FF00D1124DF01AB52BD4F97
:103ED00011963C911197371327C03C91361324C09B
:103EE00012963C91129731111FC013964D915C911F
:103EF00014974C1B5D0B483C5105B0F48091D302E4
:103F00008F7080618093D302E652FD4F80818F7065
:103F1000806180838EEC92E00E94F608DF91CF9161
:103F20001F910F910C94261F01968770BACFDF91D5
:103F3000CF911F910F9108958F929F92AF92BF9250
:103F4000EF92FF920F931F93CF93DF938090F10135
:103F50009090F201A090F301B090F4014091ED0136
:103F60005091EE016091EF017091F001842A952A41
:103F7000A62AB72ACFE1D0E0E92EF12C082F10E0D5
:103F8000D501C4010C2E04C0B695A79597958795C9
:103F90000A94D2F780FD04C0219790F780E01AC000
:103FA000FE0183E0EE0FFF1F8A95E1F7EE0DFF1D86
:103FB00093E0EE0FFF1F9A95E1F7E00FF11FEE0F70
:103FC000FF1FE151FA4F859194910E94611A019768
:103FD00019F38C2FDF91CF911F910F91FF90EF90EC
:103FE000BF90AF909F908F900895CF93DF93D82F7D
:103FF000C92F0E949C1FEC2FF0E098E0899FE00DF4
:10400000F11D112483E0EE0FFF1F8A95E1F7ED0FFC
:10401000F11DEE0FFF1FE151FA4F859194910E941F
:10402000611ADF91CF910895FC01808191810E94F6
:10403000F51F292F2F70E92FE295EF704E2F50E0DA
:10404000FA013297EE30F105B8F4E759FF4F0C94BE
:104050001937803F99F018F4883E70F40FC0843F00
:1040600059F40CC0883E50F0813F31F407C0822FD4
:10407000869586958695089580E0089581E0089557
:104080009F92AF92BF92CF92DF92EF92FF920F93E7
:104090001F93CF93DF93CDB7DEB761970FB6F89438
:1040A000DEBF0FBECDBF8C0185E0F801DE011D969D
:1040B00001900D928A95E1F7F801E2809091CE028D
:1040C0006091CF024091D1025091D2024115510529
:1040D00031F06F3F31F481E09F3F19F403C081E07C
:1040E00001C080E0F82FF1709F2E80FD1AC1F80109
:1040F00030812181C380D4808EECA82E82E0B82E3E
:10410000F090D002F601E41BF50BFF2009F4C6C0C5
:104110008091D302E83CF10508F091C0482F407F20
:1041200009F050C0621311C093130FC0FE2CE110B0
:104130000CC08F7080618093D302C5010E94F60885
:104140008091D302F801858329C1CD2831F02F3F1A
:1041500031F481E03F3F19F403C081E001C080E009
:1041600080FD03C081E08E2502C080E090E0F82F42
:10417000F170FF2E80FF1CC0809105034091D40296
:1041800056E0841709F4E8C090E0589FF001599F69
:10419000F00D1124EB52FD4F6181261306C06081A2
:1041A000631303C06281E61203C001968770E9CFF2
:1041B000FE2CEE2009F4F2C08091D302816080933E
:1041C000D30249C0621306C0931304C0E11002C0B9
:1041D000F80186C0C8010E941420882351F1EE2006
:1041E00041F12091D302822F82958F7090E0029747
:1041F00074F08091CE029091CF0298878F831986B8
:10420000DB86CA862C87CE0107960E94F60886E0D8
:10421000F801AEECB2E001900D928A95E1F70E94B0
:10422000301F0AC06217C9F0C8010E941420811112
:104230001EC0C8010E94F608FF24F394AFC0482FA7
:10424000407F81F78EEC92E00E94F60886E0F5014F
:1042500011928A95E9F7F12CA1C09313E5CFE110F3
:10426000E3CFF8018583C8010E94F60854C0EE2010
:1042700001F32091D302822F82958F7090E00297F4
:1042800034F28091CE029091CF029A8389831B826F
:10429000DD82CC822E83CE010196B7CFE83CF105BA
:1042A000D0F5FE2CEE2029F2621327C0931325C00F
:1042B0002091D30220FD18C0822F82958F70482F45
:1042C00050E04115510581F0F80125834F3051052B
:1042D00041F08F5F982F9295907F822F8F70892B5E
:1042E0008583C8010E94F60886E0F801AEECB2E0D2
:1042F00001900D928A95E1F751C0C8010E941420E7
:10430000811185CF8091D30281608093D302C8014F
:104310000E94F60843C086E0F50111928A95E9F7FC
:104320003DC0EE2009F485CFC8010E941420F82E6C
:10433000882309F47ECF86E0F801AEECB2E001906C
:104340000D928A95E1F78091CE029091CF020E9462
:10435000F51F0E94301F22C03D872E878D859E85C8
:104360000E94F51F292F22952F70223028F49F706C
:1043700039F0811105C00BC0243028F49F7049F436
:10438000805E883020F0C8010E94F6089F2CF92C2E
:1043900005C0F8019581907F99F7F9CF8F2D61962F
:1043A0000FB6F894DEBF0FBECDBFDF91CF911F9146
:1043B0000F91FF90EF90DF90CF90BF90AF909F90C4
:1043C000089528E0929F800D1124682F66956695C8
:1043D0006695982F977085E0689FB001112440E0A2
:1043E00050E080E0FB01E40FF51FEA55FD4F20810E
:1043F00030E0092E02C0369527950A94E2F7217025
:104400003327042E01C0220F0A94EAF7822B4F5F54
:104410005F4F4530510531F7089528E0929F800D98
:104420001124E82FE695E695E695877051E001C0E6
:10443000550F8A95EAF785E0E89FF0011124EA55C7
:10444000FD4F20E030E070E04081CB01022E02C041
:10445000969587950A94E2F7817081958427852344
:10446000842781932F5F3F4F2530310569F70895E9
:104470006093F1017093F2018093F3019093F40142
:104480000C94EF1E0F931F9341E050E060E070E04A
:1044900004C0440F551F661F771F8A95D2F74095B9
:1044A0005095609570958091F1019091F201A091E5
:1044B000F301B091F4018A019B01082319232A23F7
:1044C0003B23C901B8011F910F910C943822209110
:1044D00006038095822380930603982F977041F4FA
:1044E00030E0482F082E000C550B2417350721F417
:1044F0009091D00192FF07C08595859585950E9482
:1045000042221092060308950F931F9341E050E05A
:1045100060E070E004C0440F551F661F771F8A9546
:10452000D2F78091F1019091F201A091F301B09145
:10453000F4018A019B01082B192B2A2B3B2BC90163
:10454000B8011F910F910C9438226093ED01709384
:10455000EE018093EF019093F0010C94EF1E109206
:10456000090386E0E0EAF2E0DF011D928A95E9F7AF
:104570000C94EF1E882341F08095909109038923C4
:10458000809309030C94C21E0895882339F09091FA
:104590000903892B809309030C94C21E08951F936D
:1045A000CF93DF93182F893319F0C0E0D0E002C019
:1045B000C0E5D0E0812F0E941B30209741F08FE9A9
:1045C0009FE00197F1F700C000002197F6CF812FFF
:1045D000DF91CF911F910C94B42F80917A030895AD
:1045E000089590918503943031F580936203709320
:1045F00064036093630382E08093E9008FEF9091FE
:10460000E800815095FD06C095ED9A95F1F7000000
:104610008111F5CF8091E80085FF0DC040E050E0AA
:1046200063E070E082E693E00E94BF2C8091E80096
:104630008E778093E8000895BC0184E00C94F12209
:10464000BC0183E00C94F12222E02093E9002FEFDB
:104650003091E800215035FD06C035ED3A95F1F76F
:1046600000002111F5CF2091E80025FF0BC040E0AC
:1046700050E066E070E00E94BF2C8091E8008E77E9
:104680008093E8000895CF93DF9321E02093E90021
:104690002FEF3091E800215035FD06C035ED3A95F9
:1046A000F1F700002111F5CF2091E80025FF14C09B
:1046B000EC0140E050E068E070E00E94BF2C809187
:1046C000E8008E778093E80088E0FE01ABE7B3E076
:1046D00001900D928A95E1F7DF91CF910895FF92B5
:1046E0000F931F93CF93DF93EC01F12C0FEF10E0AA
:1046F00060915E01F61608F580915C012F2D30E087
:10470000280F311DC901880F991F280F391F225FFB
:104710003C4F40919203473908F046E970E0C801E8
:104720000E94E636962F8C8160919103F99E800D50
:1047300011240E94DA28F394DBCF0E9428289A8162
:104740008C8190FF02C08F5F01C081508C83DF910C
:10475000CF911F910F91FF9008951F920F920FB666
:104760000F9211242F933F934F935F936F937F93F7
:104770008F939F93AF93BF93CF93DF93EF93FF9369
:10478000C091E900CF708091EC00D82FD17080FDEE
:10479000D0E81092E9008091F000877F8093F000CC
:1047A00078940E94EB2C1092E9008091F0008860D0
:1047B0008093F000CD2BCF70C093E900FF91EF9173
:1047C000DF91CF91BF91AF919F918F917F916F9129
:1047D0005F914F913F912F910F900FBE0F901F90BF
:1047E0001895E8EDF0E080818E7F80831092E200E2
:1047F0001092DA001092E100A0EEB0E08C9181609E
:104800008C9380818F77808319BCA7EDB0E08C9169
:104810008E7F8C9380818F7E8083109265030895B4
:104820002091E4003091E50095E64091EC00842F62
:10483000817040FF23C08091E80080FD1DC0809101
:104840008503882399F0853099F08091EB0085FDF0
:1048500011C04091E4005091E5002417350729F379
:10486000915011F09A01E1CF84E0089582E008951B
:1048700083E0089581E0089580E008954091E80084
:1048800042FFDDCF08958091870387FF11C080919B
:10489000E80082FD05C0809185038111F8CF11C029
:1048A0008091E8008B770BC080918503882349F0C5
:1048B0008091E80080FFF8CF8091E8008E778093A8
:1048C000E8000895982F973068F59093E9009817BD
:1048D00039F07091EC002091ED005091F00003C090
:1048E000242F762F50E021FD02C09F5FECCF309146
:1048F000EB003E7F3093EB003091ED003D7F309335
:10490000ED003091EB0031603093EB007093EC00E0
:104910002093ED005093F0002091EE0027FDE5CFAD
:1049200080E008958F708093E90081E00895CF9230
:10493000DF92EF92FF920F931F93CF93DF93C8ED17
:10494000D0E088818F7E8883E7EDF0E08081816010
:10495000808384E082BF81E08093650388818E7FBD
:10496000888302EE10E0F80110821092DA0081EEE6
:10497000C82ED12CF601108288818F778883888198
:104980008068888388818F7D888319BC1092850315
:1049900010928603109284031092830390EEE92E06
:1049A000F12CF70180818B7F8083888181608883EF
:1049B00042E060E080E00E946224F60180818E7F08
:1049C0008083F8018081816080838081886080831A
:1049D000F70180818E7F8083888180618883DF9169
:1049E000CF911F910F91FF90EF90DF90CF9008959E
:1049F0001F920F920FB60F9211242F933F934F9354
:104A00005F936F937F938F939F93AF93BF93EF9336
:104A1000FF938091E10082FF09C08091E20082FF54
:104A200005C08091E1008B7F8093E1008091DA00E6
:104A300080FF2AC08091D80080FF26C08091DA00D4
:104A40008E7F8093DA008091D90080FF18C080E1CA
:104A500089BD82E189BD09B400FEFDCF81E080936C
:104A600085038091650381110FC00E94F1230E948C
:104A700097248091E20084608093E20005C019BC15
:104A800010928503109265038091E10080FF17C0AA
:104A90008091E20080FF13C08091E2008E7F8093BE
:104AA000E2008091E20080618093E2008091D80072
:104AB00080628093D80019BC85E080938503809143
:104AC000E10084FF2EC08091E20084FF2AC080E1D3
:104AD00089BD82E189BD09B400FEFDCF8091D80077
:104AE0008F7D8093D8008091E1008F7E8093E100DC
:104AF0008091E2008F7E8093E2008091E2008160ED
:104B00008093E20080918603882311F084E007C03F
:104B10008091E30087FD02C081E001C083E08093C3
:104B200085038091E10083FF27C08091E20083FF2D
:104B300023C08091E100877F8093E10082E0809331
:104B40008503109286038091E1008E7F8093E100BF
:104B50008091E2008E7F8093E2008091E20080618C
:104B60008093E20042E060E080E00E946224809155
:104B7000F00088608093F000FF91EF91BF91AF91BA
:104B80009F918F917F916F915F914F913F912F9165
:104B90000F900FBE0F901F90189520918D033091AC
:104BA0008E032617370748F06115710539F42091F7
:104BB000E8002E772093E80001C0B901FC0120E055
:104BC0006115710579F1809185038823F1F18530B4
:104BD000F1F18091E80083FD3CC08091E80082FD06
:104BE0002EC08091E80080FFEBCF2091F3008091F0
:104BF000F20090E0922B6115710551F0883091051B
:104C000038F421912093F100615071090196F3CF9E
:104C100021E0089709F020E08091E8008E778093EA
:104C2000E800CECF2111CFCF0AC080918503882321
:104C300061F0853061F08091E80083FD0AC08091C9
:104C4000E80082FFF2CF80E0089582E0089583E0DB
:104C5000089581E0089578941F920F920FB60F92F5
:104C600011248F939F93AF93BF9380915E03909194
:104C70005F03A0916003B09161030196A11DB11D76
:104C800080935E0390935F03A0936003B0936103EE
:104C9000BF91AF919F918F910F900FBE0F901F907A
:104CA00018959C014FB7F89480915E0390915F0333
:104CB000A0916003B09161034FBF821B930B0895D5
:104CC0002FB7F89460915E0370915F038091600349
:104CD000909161032FBF08952FB7F89480915E03E0
:104CE00090915F03A0916003B09161032FBF08957D
:104CF0001F920F920FB60F9211248F939F93AF9331
:104D0000BF9380915D03811113C080915E039091E8
:104D10005F03A0916003B09161034196A11DB11D95
:104D200080935E0390935F03A0936003B09361034D
:104D3000BF91AF919F918F910F900FBE0F901F90D9
:104D400018950F931F930E94271A882321F01F9113
:104D50000F910C9460260E946026009159031091D7
:104D60005A0320915B0330915C03600F711F821F17
:104D7000931F1F910F9108950E94271A81110C947F
:104D80006C260E94A126CB0108959C012A5F3F4F0B
:104D9000FC014281461301C01282019682179307DB
:104DA000B9F708959C01FC0132969FEF80E0419194
:104DB000461789F09F3F19F4411101C0982F8F5F6A
:104DC0008630A9F79F3F39F0F901E90FF11D97FDF2
:104DD000FA956283089508952091570330915803FE
:104DE0002817390771F09093580380935703E09187
:104DF0005503F0915603309721F00084F185E02DA2
:104E000009940895209153033091540328173907CA
:104E100071F09093540380935303E0915503F09104
:104E20005603309721F00680F781E02D099408950C
:104E3000E0915503F0915603309739F022E0DC0100
:104E40002C930480F581E02D099408950E94271A7F
:104E5000882351F0E0915503F0915603309721F0EB
:104E60000190F081E02D099480E008950F931F9345
:104E7000CF93DF93C42FD22FFC0182818823C9F006
:104E8000409352030E946C269093510380935003E9
:104E900080E28C0F883008F057C0C77081E001C0F5
:104EA000880FCA95EAF7DF91CF911F910F910C946B
:104EB000C52280915203481330C0809150039091D5
:104EC00051030E945126883C910538F510E21D0FD0
:104ED000CD17B9F080E28C0F883040F4C77081E0C4
:104EE00001C0880FCA95EAF70E94BA22183028F547
:104EF00081E09D2F977001C0880F9A95EAF70E9474
:104F0000C522802F0E94CF221830F0F4D77081E0A4
:104F100001C0880FDA95EAF70AC080E28C0F88306A
:104F200098F4C77081E001C0880FCA95EAF7DF9155
:104F3000CF911F910F910C94BA22802FDF91CF91C6
:104F40001F910F910C94CF22DF91CF911F910F9160
:104F5000089580914F0390914E03882389F09923FF
:104F600069F062E070E081EF97E00E94962C892B57
:104F700019F080914E03089510924E0390914E03C4
:104F800081E08927089580914F038823F9F00E94DA
:104F90006026DC01CB01805A9541AF4FBF4F809313
:104FA0004A0390934B03A0934C03B0934D0380911D
:104FB0004E0381110BC062E070E08FEE97E00E941B
:104FC000962C892B19F481E080934E0380914E0337
:104FD0000895FC01680F791F8FEF91E3E617F7073B
:104FE00071F02191822728E030E087FF03C0880F0D
:104FF000892701C0880F21503109B9F7EFCF0895F3
:10500000882311F0FA0101C0FB010994EBE0F3E001
:105010001182828184608283089560918F036695F6
:1050200070E041E050E08FE591E00E944137892B2C
:1050300019F481E080930C030E94BC2690937403C2
:105040008093730380910D03846080930D03089512
:1050500030915B0180918F0380FF16C0E0915A016F
:1050600063E0E69FF0011124E25FFC4F539A8BB19D
:10507000877F9BB198602FB7F894AF0163E0369FAC
:10508000400D511D112414C080915C0190915D016F
:10509000891720F7E82FF0E0AF01440F551FE40F08
:1050A000F51FE25FFC4F1182108212828F5FF0CFFA
:1050B000E417F50789F0319168E09BB9000000C062
:1050C00037FF8BB9330F000000C000C000C08BB9A0
:1050D00000C06A9591F7ECCF2FBF8FE594E0019760
:1050E000F1F700C00000089580918F03282F2695C6
:1050F00030E02115310519F48170826005C0283037
:10510000310524F081708E6080938F03809192032B
:10511000873918F086E9809392030895CF92DF9241
:10512000EF92FF926B017C010E947428B701A601E7
:1051300088E090E0FF90EF90DF90CF900C94C9341E
:1051400080919303882319F0815080939303609199
:105150008F037091900380919103909192030C942E
:105160008E2880919303833018F48F5F809393038C
:1051700060918F03709190038091910390919203BD
:105180000C948E28EFE8F3E083E0808311828FEFA8
:10519000828386E983831482ABE0B3E012968C911C
:1051A0001297836012968C936081718182819381C2
:1051B0000C948E28AF92BF92CF92DF92EF92FF9223
:1051C0000F931F93CF93DF93E82EF62EE901E42F80
:1051D000F0E0611106C0ED50F84FE4914E2F2E2FF4
:1051E00071C0062F10E0ED50F84F4491F42FC42EFB
:1051F000D12C26E0829FC00111242FEF30E0B901AD
:105200000E9486345BEA5603C001579F900D11241B
:105210008E0D911D8E0D911D582F550F580FD901D0
:10522000A01BB10BAC9DC001AD9D900DBC9D900D20
:105230001124E92FF59ED0011124AB2FBB27790152
:10524000EA1AFB0AEC9CD001ED9CB00DFC9CB00D61
:1052500011245901A51AB108A09E7001A19EF00C5D
:10526000B09EF00C1124EF2CFF242E193F092C9D29
:1052700080012D9D100D3C9D100D1124212F6230B9
:10528000710591F048F461157105E1F06130710527
:10529000B9F4242F4B2F16C06430710569F040F02B
:1052A0006630710579F00CC0242F492FE12F0AC018
:1052B000492FEF2F2B2F06C0292FE42F412F02C09B
:1052C000292FEB2F49832883EA83DF91CF911F9108
:1052D0000F91FF90EF90DF90CF90BF90AF90089527
:1052E000EF92FF920F931F93CF93DF9300D01F9203
:1052F000CDB7DEB7082FF62E142FE22E80918F0344
:1053000080FF5AC0E82FE695F0E0EC53FE4F908105
:1053100090930B038E7F823041F5473908F046E9C0
:105320009E012F5F3F4F6F2D802F0E94DA288091C2
:105330008F0380FF1EC02B8139814A8180915C01DF
:1053400090915D01891770F4E82FF0E0BF01660FBE
:10535000771FE60FF71FE25FFC4F41833083228304
:105360008F5FF0CF0E94282804C0923011F4009182
:10537000900380919003081308C080919103F81264
:1053800004C080919203181729F080910D03826068
:1053900080930D0300939003F09291031093920376
:1053A000EE2051F060918F037091900380919103F2
:1053B000909192030E948E280F900F900F90DF9192
:1053C000CF911F910F91FF90EF900895EFE8F3E0D8
:1053D000438128E0421B08F440E021E062818181A2
:1053E0000C947029EFE8F3E0438128E0420F08F4C1
:1053F0004FEF21E0628181810C947029EFE8F3E0A6
:10540000628128E0621B08F460E021E04381818131
:105410000C947029EFE8F3E0628128E0620F08F451
:105420006FEF21E0438181810C947029EFE8F3E074
:10543000818121E04381628188500C947029EFE8DA
:10544000F3E0818121E043816281885F0C947029BF
:105450008D3E39F49091700397FF35C01092700320
:1054600059C08E3E29F4909170031916BCF32BC0DD
:1054700090916F038F3E29F497FF25C010926F0320
:1054800049C0803F19F41916CCF31DC090917103E7
:10549000893F29F41916BCF4109271033BC08A3F6E
:1054A00019F497FF10C0F8CF8B3F39F49091720335
:1054B00097FF09C0109272032DC08C3F21F4909188
:1054C00072031916BCF39FE0980F983080F421E026
:1054D00030E0A90102C0440F551F9A95E2F7CA01B6
:1054E000809590916E03892380936E0313C08D3F46
:1054F00021F4809168038E7F0BC08E3F21F4809150
:1055000068038D7F05C08F3F29F4809168038B7FEE
:105510008093680380916F03811106C080917003AE
:10552000811102C01092670380917103811106C03E
:1055300080917203811102C01092660308958091D8
:10554000680380FD16C081FD16C082FD18C08091E1
:105550006603882391F0883290F428E0829FC0018E
:10556000112468E270E00E94E636862F672B29F04E
:1055700007C082E0089584E0089581E0089588E0FE
:1055800008958091680380FD14C081FD14C082FDE0
:1055900016C080916703882381F0843180F422E370
:1055A000829FC001112464E170E00E94E636862FDC
:1055B00008958CE0089589E1089585E0089582E3D7
:1055C00008958D3E21F40E94C12A819504C08E3E2B
:1055D00029F40E94C12A8093700308958F3E21F41C
:1055E0000E94C12A819504C0803F29F40E94C12AEB
:1055F00080936F030895893F19F40E949F2A05C084
:105600008A3F31F40E949F2A819580937103089507
:105610008B3F21F40E949F2A819504C08C3F29F47E
:105620000E949F2A8093720308959FE0980F9830FC
:1056300078F421E030E0A90102C0440F551F9A958B
:10564000E2F7CA0190916E03892B80936E0308954F
:105650008D3F21F48091680381600BC08E3F21F45F
:1056600080916803826005C08F3F29F480916803B0
:1056700084608093680308950E946C2620916F03D4
:10568000211104C020917003222321F090936C0318
:1056900080936B0320917103211104C02091720348
:1056A000222321F090936A03809369038DE693E0AF
:1056B0000C94182790918F0390FF3BC0917081113B
:1056C00002C0926006C0883010F09E6002C0880F51
:1056D000982B90938F0380910D03816080930D032D
:1056E000662351F060918F03709190038091910334
:1056F000909192030E948E2860918F03669570E0CE
:1057000041E050E08FE591E00E944137892B19F08C
:105710000E94062802C00E940D2881E08093760333
:1057200020E04091920360919103809190030C944A
:105730007029089580918F038695815009F487E040
:1057400061E00C945A2B80918F0386958F5F88308F
:1057500008F081E061E00C945A2BCF93DF93C09165
:105760009D07D0919E078A30B1F420919403CE0119
:1057700087599340622F70E00E948634281B822F45
:1057800066E00E94DA36C82FC15008F48FC080E26C
:105790000E94AD2BF9CF8D30E9F4C759D340209149
:1057A0009403622F70E0CE010E948634281B822F62
:1057B0009E01280F311D2115344018F080E0C0E013
:1057C000D0E0C80FD11DC956DC4FD0939E07C093BF
:1057D0009D076CC096E0FE01A7E9B7E001900D922D
:1057E0009A95E1F7803E30F086E0FE0111928A95AD
:1057F000E9F70BC0F6E08F9FB0011124615E754F91
:1058000046E050E0CE010E949A34C0919D07D091AD
:105810009E0746E050E0BE0187E997E00E944E37C0
:10582000892B49F19E0127593340A90186E05695FD
:1058300047958A95E1F781E090E0BC0102C0660FD0
:10584000771F4A95E2F74091950350919603462BB6
:10585000572B2B5F3F4F66E0369527956A95E1F70A
:1058600002C0880F991F2A95E2F7842B952B9093FD
:105870009603809395039E012159334040919403F0
:10588000642F70E0C9010E948634481B463010F432
:10589000240F311D211584E0380710F020E030E09E
:1058A00029563C4F30939E0720939D07DF91CF915F
:1058B00008950F931F93CF93DF9300D000D0CDB7FF
:1058C000DEB789836A834B831C8204E610E024E000
:1058D00030E0AE014F5F5F4F60E084E10E94E7314E
:1058E0000F900F900F900F90DF91CF911F910F911C
:1058F0000895CF93DF93EC01FE018491882321F07A
:105900000E94AD2B2196F8CFDF91CF910895809121
:105910008F0380FF07C0869582588F77853010F4FB
:105920000C94A32B61E082E00C945A2BEF92FF922F
:105930000F931F93CF93DF93EC017B0164E670E03C
:1059400088E70E94C5308C01EC0EFD1ECE15DF05E8
:1059500061F017FD0AC0FE01849164E670E00E94C8
:1059600046318C012196892B89F30E946032C8014F
:10597000DF91CF911F910F91FF90EF900895EF92DB
:10598000FF920F931F93CF93DF937C018B010E94B3
:105990001024811119C0E70101151105A1F08091B2
:1059A000E80085FD0AC08091E8008E778093E800CA
:1059B0000E941024882381F307C089918093F1000D
:1059C00001501109E9CF80E0DF91CF911F910F9134
:1059D000FF90EF9008951F93CF93DF93CDB7DEB77D
:1059E000AA970FB6F894DEBF0FBECDBFE7E8F3E08D
:1059F0008091F100819323E0EF38F207C9F780919D
:105A00008803833009F460C030F4813071F0823053
:105A100009F49AC0B1C08A3009F486C08B3009F409
:105A20006BC0893009F0A8C020C080918703813AFB
:105A300009F0A2C08091E800877F8093E800809100
:105A40008B0390918C03892B21F468E08BE793E022
:105A500003C060E080E090E070E00E94CD2580917E
:105A6000E8008B778093E80087C0809187038132BC
:105A700009F082C080918B0390918C03029708F00B
:105A80007BC08091E800877F8093E8008091E800E8
:105A900082FD05C0809185038111F8CF6DC02091F2
:105AA000F3008091F20090E0922B029729F480910C
:105AB000F1008B7F813021F48091F10080937A0393
:105AC0008091E8008B7754C080918703813A09F078
:105AD00053C080918B0390918C03892B09F04CC0AB
